:040000006F00807994
:10000400000000000000000090000020B602002064
:10001400A9BDF9F5900000200000000000000000D8
:10002400900000209000002000000000000000006C
:10003400900000200000000090000020000000005C
:1000440090000020900000209000002090000020EC
:10005400900000209000002092000020000000008A
:1000640090000020900000209000002090000020CC
:1000740090000020900000209000002090000020BC
:1000840090000020900000209000002090000020AC
:1000940001A0971000E0E780009673002030B7F7C6
:1000A40007000111944B13078008F337078093F777
:1000B40087083EC20F100000B717004013087005F0
:1000C40023800705930580FA2380B7040F100000EE
:1000D40003C6B7041376F60DA385C704238007046B
:1000E4001246732606800F1000001376050255CEC3
:1000F400F336078093F6860836C40F100000238079
:1001040007052380B7040F100000B70614007D898B
:10011400558D88C7010001000100010023800704F8
:10012400A246F3A606800F100000733707801377EA
:1001340087083AC60F100000238007052380B70400
:100144000F1000000F100000372700409306100521
:10015400A303D78023800704B247F3A707800F10B7
:10016400000093078008F3B7078093F787083ECE13
:100174000F100000B7170040130770052380E70431
:10018400130780FA2380E7040F10000003C7B704A5
:1001940013670708A385E70423800704F247F3A73E
:1001A40007800F100000056182801376050459C290
:1001B400733607801376860832C80F100000238038
:1001C40007052380B7040F10000037061400130638
:1001D40006047D89518D88C70100010001000100DA
:1001E400238007044246732606800F1000007337ED
:1001F4000780137787083ACA0F1000002380070589
:100204002380B7040F100000A54793F6F60F639EF2
:10021400F600B727004013073005A383E780B7171C
:10022400004023800704D2470DBFB72700401307BF
:100234002005E5B773370780137787083ACC0F108A
:100244000000238007052380B7040F10000098479F
:100254001367070C98C723800704E247FDBD01110B
:10026400814601468145114506CE7D2A93078008C3
:10027400F3B7078093F787083EC60F100000B7173F
:100284000040130770052380E704130780FA2380D6
:10029400E7040F10000003C76704136717002383E4
:1002A400E70423800704B247F3A707800F10000078
:1002B400F240056182804111814601468145114524
:1002C400A52213078008F337078093F787083EC4F5
:1002D4000F100000B7170040130670052380C704F1
:1002E400930680FA2380D7040F100000FD5523964F
:1002F400B70223800704A245F3A505800F10000070
:1003040073370780137787083AC60F1000002380DD
:10031400C7042380D7040F10000003C767041367C2
:1003240017002383E70423800704B247F3A7078059
:100334000F10000001A0BD473305F50201007D1533
:1003440075FD8280411122C426C206C6AA840144D6
:1003540063179400B2402244924441018280050410
:100364001305803E4204C13F4180DDB7230304806E
:1003740015472303E48001002302A48082808307BD
:100384006480E3CE07FE23030480828083076480B5
:10039400E3CE07FE03454480828083076480E3CE76
:1003A40007FE2302A4808280411126C44AC24EC0A3
:1003B40006C61377F50BAD47AA892E8995446306C3
:1003C400F70019456537653F8D444E854537FD591E
:1003D400FD1463983401B240A24412498249410198
:1003E4008280135509011375F50F453F2209CDB7D6
:1003F400011126CC06CEB704080051371545BD3788
:10040400713769372AC6A53F32459377150089EBC2
:10041400136515001375F50FF240E24405618280FF
:10042400FD14E9FC0145CDBF397126DC4ADA4ED80A
:1004340052D656D45AD25ED006DE62CE66CCB7E728
:1004440000E07D5783AA070022C603AA470023A021
:10045400E71823A2E718B717004013077005238095
:10046400E704130780FA2380E70483C74704930B48
:1004740075FFB684E20793FBFB0F8546AA892E8B92
:10048400328937240040E187015763FA7601630813
:10049400D5008946130700026313D5000157D98F8D
:1004A40093F7F70FB71C00402382FC041147230382
:1004B400E4801305F00F5D3D094CD135636D7C116B
:1004C400B7050700DA9537870700795563F2E50425
:1004D400B3879500636EF702370B0800A94733EB27
:1004E40065016399F90689E48144513D26850DA08F
:1004F400DA850945553D05090345F9FFFD14050B4A
:10050400693D81C49377FB0FFDF7DD3569FD7D55AA
:10051400B7170040130770052380E704130780FA18
:100524002380E70403C74704418B2382E704F25086
:10053400B7E700E023A0571123A24711E254324445
:100544005259C259325AA25A125B825B724CE24C23
:1005540021618280A5476395F90685691309F00F27
:10056400B3069900B3742B01B6941349F9FFB3741D
:100574009900856B33796901416B9387F9FFB3F770
:10058400270199E363FC340193D94900C147E3E6A9
:1005940037FF99BF0569C1697D19D9B71305800D66
:1005A4006388690113050002638479011305100847
:1005B400CA85DD3B353D21DD4E99B3843441D9B73D
:1005C400DA852D45D533CA94E30099F205097D3BBC
:1005D400A30FA9FED5BF9387F9FF93F7F70F6361C4
:1005E400FC0C83C71C0413073008631FF704370788
:1005F4000800636BEB04B3079B00B706100063F5B8
:10060400D704334BEB0089476393F9068980D549B6
:10061400E38C04ECDA850945413B11090327C9FF42
:1006240091472320E48003076480E34E07FE2303FD
:100634003481FD17EDFBFD14110B81C49377FB0F7F
:10064400E9FF7D3371F5E1B5B717004003C75704DF
:10065400B70708001377070219E3B787070079552E
:10066400E378FBEA33079B00E3FFE7F855B58547DA
:10067400E382F9F2DA852D45053B9389F4FFE3859E
:1006840004E6293393F7390091EB8326048003278A
:10069400090093074900E39AE6E43E89CE84F1BF5A
:1006A400B5476396F9001305900BC93135BDB147C1
:1006B4001305B00AE38BF9FE99476391F904B70572
:1006C4000800B365BB002D45C53181448D4BA1495C
:1006D400753963967401832704802320F900850407
:1006E400E39834FF8327048013172B016355070015
:1006F4002312F900D5BB2322F900FDB39D4763996A
:10070400F90281451305B0044531BD442320090095
:1007140023220900FD599D3993F77400CA9703C732
:100724000700FD14398D2380A700E39634FF6DBBC9
:10073400A1476392F9046D398144630D0B008D4721
:100744009304C0036308FB009304000563048B0156
:10075400930440041375C507E30895D81945393146
:1007640039390545213126850D3909453D31493150
:10077400E31C05D669BB91476399F900130560062C
:10078400F536F53E130590090DB7E38F09D4F154FE
:04079400A9BB0000FD
:10079800971100209381018617610020130101063B
:1007A800130540009705002093854585170600200E
:1007B800130606FE63FAC5008322050023A0550030
:1007C80011059105E3EAC5FE1715000013058561BB
:1007D800970500209385C5FB1386818063FAC500C1
:1007E8008322050023A0550011059105E3EAC5FE03
:1007F800138581809385C1A66377B5002320050002
:100808001105E36DB5FEFD42739002BC8D427390F5
:100818004280930280087390023097F2FF1F938200
:10082800E27D93E232007390523097020000938287
:10083800220E73901234730020303D432A8763736D
:10084800C3029377F700BDEFADE5937606FF3D8AC7
:10085800BA960CC34CC30CC74CC74107E36BD7FE11
:1008680011E28280B306C3408A069702000096967A
:100878006780A6002307B700A306B7002306B700C2
:10088800A305B7002305B700A304B7002304B700E6
:10089800A303B7002303B700A302B7002302B700DE
:1008A800A301B7002301B700A300B7002300B700D6
:1008B800828093F5F50F93968500D58D9396050163
:1008C800D58D61B793962700970200009696868289
:1008D800E78086FA9680C1171D8F3E96E374C3F8A9
:1008E800A5B7371700408327870A411106C693E743
:1008F80007202324F70A854513050010AD2B8D45E5
:10090800130500208D2BB2404101E9AD41111305BB
:10091800800406C697F0FF1FE7802078D93717159F
:1009280000001305E543EF0070159387818223A823
:10093800F1809387818E23AAF1809387819623ACD7
:10094800F1809387819E23AEF180F125B7E700E01F
:100958003707400023A0E71001A081471386418193
:1009680013F7F70F6363A70035A718423E9783462E
:100978000700850793C6F6FF2300D704D5B781473C
:100988001386818113F7F70F6363A70039AF184205
:100998003E9783460700850793C6F6FF2300D704D2
:1009A800D5B781471386C18113F7F70F6363A70093
:1009B80001AF18423E9783460700850793C6F6FFA6
:1009C8002300D704D5B781471386018113F7F70FA2
:1009D8006363A70009A718423E9783460704850763
:1009E80093C6F6FF2300D708D5B7B787004003C7DB
:1009F80067001377F70F9376270063850644011184
:100A080006CE22CC26CA4AC84EC603C7770093062C
:100A1800000313770703630BD70203C777009146D8
:100A28001377F7036309D72063EFE6068546630665
:100A3800D7166301071689466301D7188D46630DDB
:100A4800D71AB787004009472383E7003787004054
:100A580083477700E207E18763D50728930720FCDF
:100A68002301F70293860181884203477500834773
:100A7800650022075D8F2395E18083471500A384D5
:100A8800F1800349050013760906631106242946F7
:100A9800636EF62217160000130606228A07B2971D
:100AA8009C43B2978287930620026308D71263E9B2
:100AB800E60293060002630CD70493061002E312C1
:100AC800D7F803C76702134707042383E70203C75E
:100AD80067021377C70F136727002383E70295B7C9
:100AE80093063002630AD71293064002E31BD7F439
:100AF80003C72703134707042389E70203C727030C
:100B08001377C70F136727002389E7021DBF03C7A1
:100B1800918095466302D7069946631AD70693874C
:100B2800A18003D4070013070004BE846374870000
:100B380013040004938701811389C1808843420408
:100B48008325090041802286552383D704009379A1
:100B5800F40F818F2395F180832709003E9423A603
:100B68008180B78700402380370303C727021347D4
:100B780007042381E702F1B503C7370083C6A180C4
:100B880013770708558FA381E7000947DDB723804E
:100B98000702E5BF83C787006DB503C777001377E2
:100BA8000704E30007EA03C767021347070823831C
:100BB800E70203C58700553369B503C77700137784
:100BC8000704E30007E803C7A702134707082385BC
:100BD800E70203C587006533ADB503C7A70213470E
:100BE80007042385E70203C7A7021377C70F136714
:100BF80027002385E702B1B503C7770013770704F9
:100C0800E30107E403C7E702134707082387E7025E
:100C180003C58700793335B503C7E70213470704CF
:100C28002387E70203C7E7021377C70F1367270075
:100C38002387E70239B503C7770013770704E30270
:100C480007E003C72703134707082389E70203C5FB
:100C58008700953BFDB38347350083462500094649
:100C6800A207D58F93D687006384C6088D45638B0A
:100C7800B60885476390F60A971700009387470BD5
:100C880023A6F1800144C947C207C18363F4E70082
:100C98002395F1809387A18003D60700930700046A
:100CA80063F4C700130600049389C18093140601F6
:100CB80083A50900C1802686152903A60900269662
:100CC80023A6C1809307F00F6319F40AB787004081
:100CD8001307F0FC2381E702B78700400947238305
:100CE800E700F2406244D2444249B2490561828039
:100CF80097170000938707FF23A6F1800144930705
:100D0800A00459B793F7F70F85466389D7008DCBB1
:100D1800638FC7001304F00F8147BDB79717000012
:100D28009387470223A6F1800144B947B1BF9717BB
:100D380000009387270223A6F1800144B147A9B791
:100D4800971700009387870923A6F18001449147EC
:100D580025BF834725002395F18005A083C781809F
:100D68002300F50003D7A180854763F8E70085478E
:100D7800DDB7834725002384F1806209135989412F
:100D880081466352090283D7A180930600043E87F7
:100D980063F4F6001307000442074183998F9376A2
:100DA800F70F2395F180B78700402380D7021307F8
:100DB80000FC0DB71377F9018947E319F7F083476A
:100DC80045006381E704636CF7000547E390E7F0AB
:100DD800378700408347670293F7370799A01307BF
:100DE80010086388E70213072008E391E7EE3787C6
:100DF80000408347A70293F7C70B93E72700230513
:100E0800F702A5BF378700408347A70293F7370744
:100E1800FDB7378700408347670293F7C70B93E70F
:100E280027002303F70291BF2300050025BF2300F5
:100E380005009C42A380070003D7A1808947E3FEF1
:100E4800E7F211BF9376170085C20947A38107000F
:100E58002381E7022383E7022385E7022387E7024A
:100E680005472383E700828093764700FDDA03C7AE
:100E780057001147FDB7914763EEB70217170000F7
:100E8800130787EE8A05BA959C41BA978287B717E8
:100E9800004003A7470B1345F5FF698F23AAE70A0C
:100EA80003A7070B698F23A8E70A03A7070A798D09
:100EB80023A0A70A8280B717004083A6470B1347D1
:100EC800F5FFF98E23AAD70A83A6070B558D23A809
:100ED800A70A83A6070A758F23A0E70A8280B71797
:100EE800004003A7470B498F23AAE70A03A7070B6C
:100EF8001345F5FF45BFB717004083A6470B1347B7
:100F0800F5FF758F23AAE70A03A7070A598D4DB77E
:100F1800B717004003A7470B498FEDB7B717004035
:100F28008847420541819377050491EB9377F50152
:100F38003755E801130505803345F502828093771C
:100F4800050C130700046397E7009377F50137450D
:100F58009C1CCDB72165130505D0828081473737A2
:100F68000040A14663C4C700328582800345B7406C
:100F7800E38EA6FE3385F5000345050085072304A7
:100F8800A740CDB7970700209387C7869C43138750
:100F9800C1A63E95636EE500175700201307076644
:100FA8006368A700170700202326A7843E85828050
:100FB800FD57EDBF411122C406C62A84853729474B
:100FC800B307E502B2408D83B3D787022244950761
:100FD800B3D7E70237370040C207C1832316F7406B
:100FE80041018280716541111305052006C6D93774
:100FF800B7370040130770F82381E7400D47A381F6
:10100800E74013070004A380E74005472387E7402C
:10101800B24041018280B787004023800700130750
:10102800C0FC2386E700A386E70003D70181239845
:10103800E70003D74181239AE70003D78181239CE6
:10104800E70003D7C181239EE70089462381D702A1
:1010580049472383E7022385E7022387E702238999
:10106800D702A3810700130790022380E700B71671
:10107800004003D7A6011367070C239DE6007D57A0
:101088002383E700130710F8A380E7001D47238197
:10109800E7008280B78700402382A70203C7670260
:1010A8001377C70F2383E7028280B7870040238422
:1010B800A70203C7A7021377C70F2385E702828019
:1010C800B78700402386A70203C7E7021377C70F35
:1010D8002387E7028280B78700402388A70203C7D7
:1010E80027031377C70F2389E7028280B3C7A500B8
:1010F8008D8B3307C50081E78D4763EEC700AA874C
:101108006370E50A83C6050085078505A38FD7FEAA
:10111800E3EAE7FE828093763500AA8791CA83C600
:10112800050085078505A38FD7FE93F63700FDB721
:101138009376C7FF138606FE63F0C70683A30500F0
:1011480083A2450083AF850003AFC50083AE0501C8
:1011580003AE450103A3850183A8C5019385450214
:1011680023A0770003A8C5FF23A2570023A4F701F3
:1011780023A6E70123A8D70123AAC70123AC670048
:1011880023AE17019387470223AE07FF75B7904137
:101198009107910523AEC7FEE3EBD7FEE3E4E7F63C
:1011A8008280011126CA4AC806CE22CC4EC652C435
:1011B800AA842E8901C51C4D91E3ED299C4C8044DD
:1011C80099E32685C52997170000938727BD631CD7
:1011D800F402C0408357C400A18BB1C71C48A1C703
:1011E800FD59294A1C4483450900FD17B1E91CC46F
:1011F80063DE07062286A94526854128FD57630830
:10120800F502294535A097170000938727BB63147B
:10121800F4008044C1B797170000938727B6E31BF3
:10122800F4FAC04445BFA2852685052255D97D55C7
:10123800F2406244D2444249B249224A056182805E
:101248001CC4050963D70700184C63CBE700638902
:1012580045011C401387170018C02380B70059B7F1
:10126800228626851D20E31F35F7D1B71C4013873A
:10127800170018C029472380E70061B797F7FF1FB9
:1012880093878757AA85884329BF011122CC26CA8C
:101298004AC806CE4EC6AA842E89328401C51C4D82
:1012A80091E3092997170000938747AF6319F4065C
:1012B800C0401C4C1CC48357C400A18BC9C31C4824
:1012C800BDCF1C4808409379F90F1379F90F1D8D8C
:1012D8005C486346F500A2852685752C2DE51C44DF
:1012E8000505FD171CC41C401387170018C0238070
:1012F80037015C486389A7008357C400858B81CB7D
:10130800A9476316F900A285268571240DEDF240E0
:1013180062444A85D2444249B2490561828097179E
:1013280000009387A7A96314F400804459B797175E
:1013380000009387A7A4E31EF4F6C0449DBFA285CE
:10134800268521203DDD7D59D9B7411197F7FF1F2B
:101358009387874A26C2844322C44AC006C62A897C
:101368002E8489C49C4C99E32685A92697170000EA
:101378009387C7A2631CF402C0400317C4009317E5
:101388000701C18393F68700B5EE93F607019DEE3A
:10139800A5472320F900136707042316E4007D55A9
:1013A800B2402244924402494101828097170000CA
:1013B8009387C7A06314F4008044C1B7971700004F
:1013C8009387C79BE31BF4FAC04445BF918B8DC735
:1013D8004C5889C9930744046384F5004A858123DE
:1013E800232A04028357C4002322040093F7B7FD7D
:1013F8002316F4001C481CC08357C40093E78700D9
:101408002316F4001C4881EF8357C40013070020FB
:1014180093F707286385E700A2854A859D218357AE
:10142800C40013F7170005C75C4823240400B3075A
:10143800F0401CCC1C480145A5F78317C40013F7DE
:10144800070839DF93E707042316F40089BF898B5F
:10145800014791E3584818C4F1BF83D7C50001116B
:1014680022CC26CA06CE4AC84EC613F78700AA84DD
:101478002E8471EFD841634DE000B841634AE00023
:101488000145F2406244D2444249B2490561828032
:1014980058547DD703A904009396370123A004006C
:1014A80063DD060670488357C400918B99C75C407A
:1014B8001D8E5C5899C33C401D8E5C540C5081466F
:1014C80026858297FD570357C400631DF500944095
:1014D800F54763E8D706B70740208507B3D7D70095
:1014E800858BA5C31C48232204001CC09317370111
:1014F80063D80700FD576314F5009C4091E368C862
:101508004C5823A02401ADDD930744046384F500FF
:1015180026853121232A0402A5B70C5001468546A9
:1015280026850297FD572A86E31FF5F69C40A5DF1E
:1015380075476385E70059476394E70423A02401AE
:1015480081B7136707042316E4007D551DBF83A9DF
:101558000501E38709F203A905008D8B23A0350156
:1015680033093941014791E3D84918C4E35A20F1B6
:101578001C540C50CA864E86268582976349A00063
:101588008357C40093E707042316F4007DBFAA9984
:101598003309A940E1BF9C49B9CF011122CC06CE3D
:1015A8002A8411C51C4D81E72EC62922B24597070A
:1015B80000009387A77E639BF5004C408397C50086
:1015C80095C722856244F240056141BD9707000036
:1015D8009387C77E6394F5000C44CDB79707000046
:1015E8009387C779E39CF5FC4C44C9BFF240624439
:1015F80001450561828001458280411122C406C6E9
:101608002A842316B5002317C500232005002322AA
:101618000500232405002322050623280500232A84
:101628000500232C0500214681451305C505EFF06B
:10163800CFA097070000938787485CD097070000E2
:101648009387E74A1CD4970700009387274F5CD4F9
:10165800970700009387E75100D01CD8B240224476
:101668004101828097050000938525F389AA4111DD
:1016780026C2130680069384F5FFB384C4024AC0C9
:101688002E8922C406C693854407252E2A8401CDB7
:101698002320050023222501310508C4138684066A
:1016A8008145EFF08F992285B24022449244024945
:1016B800410182801C4DBDE3411106C622C4970733
:1016C8000000938767FA1CD5970700009387477136
:1016D8009C432324050423260504232805046314B6
:1016E800F50085471CCD2A841D2848C02285052879
:1016F80008C422852D2048C4484001469145F53D3F
:1017080008440546A545D53D48440946C945F5352B
:1017180085471CCCB240224441018280828041111D
:10172800970700009387C76B26C284434AC006C642
:101738009C4C22C42A8999E32685AD3F938484046E
:101748008044DC40FD1763D607009C40B9CF844035
:10175800C5BF0317C40039E7C177850723220406EC
:101768002320040023220400232404005CC423282B
:101778000400232A0400232C040021468145130574
:10178800C405EFF08F8B232A0402232C04022324A0
:101798000404232604042285B240224492440249C8
:1017A800410182801304840671BF91454A85C13581
:1017B80088C051FDB1472320F9000144E9BF797180
:1017C80022D44AD052CC56CA5AC85EC606D626D2A9
:1017D8004ECE2A8AAE8A130485040149054BFD5B67
:1017E80009ECB25022544A8592540259F249624A8D
:1017F800D24A424BB24B456182800444832944005B
:10180800FD1963D409000040E1BF83D7C400637B9E
:10181800FB008397E40063877701A6855285829A47
:101828003369A90093848406E1BF1971A6DAAE84EE
:101838008395E500A2DC86DE328463DC050083D76D
:10184800C40023A0060093F707089DE39307004010
:1018580015A0300836C6952EB246E34205FE7247FB
:10186800BD67F98F7977BA9793B717009CC2F9BF0C
:10187800930700041CC0F6506654D654014509610C
:10188800828083D7C500011122CC06CE26CA4AC859
:10189800898B2E8489CF930774041CC01CC8854784
:1018A8005CC8F2406244D2444249056182807400B7
:1018B8003000AA849D3FA2452A892685192201ED78
:1018C8008317C40013F7072069FFF19B93E72700EC
:1018D8002316F400C9B7970700009387E7D89CD46C
:1018E8008357C40008C008C893E707082316F40004
:1018F800A2475CC8B24789CF8315E4002685DD2C52
:1019080001C98357C400F19B93E717002316F4001D
:101918008357C4003369F9002316240159B7CDC190
:1019280083A7C5FF411122C406C626C21384C5FF7A
:1019380063D307003E94AA84012E938701829C43B7
:1019480099EB2322040023A081822244B2402685F9
:1019580092444101DDAC637EF40014403307D400A7
:101968006396E7009843DC43369718C05CC0E1BF34
:10197800BA87D84319C3E37DE4FE94433386D7007E
:10198800631F86001040B29694C33386D700E31EC7
:10199800C7FA10435843B29694C3D8C37DB763754A
:1019A800C400B1479CC055B71040B306C4006316C5
:1019B800D70014435843B29614C058C0C0C371B777
:1019C8008280011126CA93843500F19806CE22CC74
:1019D8004AC84EC6A104B14763F1F404B14463E0B8
:1019E800B4042A8995249387018298433A8431E084
:1019F800938741829C4391E781454A85512823A2D8
:101A0800A182A6854A856920FD5963173507B14724
:101A18002320F9004A85152C29A0E3D204FCB147FC
:101A28001CC10145F2406244D2444249B2490561B1
:101A380082801C40858F63CE0702AD4663F6F600B0
:101A48001CC03E9404C031A05C406312870223A0EE
:101A5800F1824A85DD2A1305B40093074400619991
:101A68003307F54061D33A94898F1CC065BF5CC3C6
:101A7800CDB722874040A5BF130435007198E30312
:101A880085FCB305A4404A852120E31D35FB41B7F9
:101A9800411122C42A842E8523A401A606C6EFF08C
:101AA8006FCEFD576317F500938781A69C4391C3BA
:101AB8001CC0B240224441018280411122C42E84BC
:101AC8008395E50006C65922634905007C48AA9714
:101AD8007CC8B2402244410182808357C4007D778C
:101AE8007D17F98F2316F400EDB783D7C5000111D0
:101AF80022CC26CA4AC84EC606CE93F70710AA8437
:101B08002E843289B68991C78395E50089460146B6
:101B180031228357C4007D777D17F98F2316F4008F
:101B28008315E4006244F240CE864A86B2494249AF
:101B38002685D24405613DA8411122C42E8483958F
:101B4800E50006C6E128FD570357C400631BF500EE
:101B5800FD77FD17F98F2316F400B24022444101A6
:101B680082808567D98F2316F40068C8FDB78395EE
:101B7800E50005A8411122C42A842E85B28536863F
:101B880023A401A606C6EFF06FBDFD576317F50045
:101B9800938781A69C4391C31CC0B2402244410153
:101BA8008280411122C42A842E8523A401A606C658
:101BB800E120FD576317F500938781A69C4391C3E5
:101BC8001CC0B240224441018280411122C42A84AF
:101BD8002E85B28523A401A606C66D20FD5763177E
:101BE800F500938781A69C4391C31CC0B240224450
:101BF80041018280411122C42A842E8523A401A692
:101C080006C67920FD576317F500938781A69C4384
:101C180091C31CC0B240224441018280411122C4B8
:101C28002A842E85B285368623A401A606C6BD2041
:101C3800FD576317F500938781A69C4391C31CC089
:101C4800B24022444101828082808280411122C4B4
:101C58002A842E85B285368623A401A606C6A92025
:101C6800FD576317F500938781A69C4391C31CC059
:101C7800B2402244410182809307800523A4F1A643
:101C88007D5582809307800523A4F1A67D55828027
:101C98009307800523A4F1A6014582809307800558
:101CA80023A4F1A67D5582809307800523A4F1A67D
:101CB8007D5582807AF1FFFF00F1FFFF18F0FFFFEA
:101CC80018F0FFFF18F0FFFF9EF0FFFFA2EFFFFFE5
:101CD80018F0FFFFA8F0FFFFBEF0FFFF74F1FFFF51
:101CE80009024A0001010080320904000008FF804F
:101CF8005500070584024000000705040240000063
:101D0800070583024000000705030240000007059D
:101D18008202400000070502024000000705810218
:101D280040000007050102400000000012011001F8
:101D3800FF8055404843375500010102000100006B
:101D48000E037700630068002E0063006E00000039
:101D58000C03430048003500390078007374617241
:101D6800740000002AF1FFFF52F1FFFF7AF1FFFF34
:101D780092F1FFFFACF1FFFF00000000000000003F
:101D8800000000000000000000000000000000004B
:101D9800000000000000000000000000000000003B
:101DA800000000000000000000000000000000002B
:101DB800000000000000000000000000000000001B
:101DC800000000000000000000000000000000000B
:101DD800000000000000000004030904940700202C
:101DE80000000000A01D0000C01D0000801D0000B4
:101DF80000000000000000000000000000000000DB
:101E080000000000000000000000000000000000CA
:101E180000000000000000000000000000000000BA
:101E280000000000000000000000000000000000AA
:101E3800000000000000000000000000000000009A
:0C1E480000000000640A00209407002045
:00000001FF
