:040000006F10406BD2
:10000400000000000000000090000020C202002058
:10001400A9BDF9F5780300200000000000000000ED
:100024007803002090000020000000000000000081
:10003400900000200000000090000020000000005C
:1000440090000020900000209000002090000020EC
:1000540090000020240800209000002000000000F0
:1000640090000020900000209000002090000020CC
:10007400DE0300209000002090000020900000206B
:1000840090000020900000209000002090000020AC
:1000940001A04111B7170040985F3AC6945F3247F8
:1000A400E39CE6FE324541018280B7F70700011167
:1000B400944B13078008F337078093F787083EC2F1
:1000C4000F100000B71700401308700523800705C0
:1000D400930580FA2380B7040F10000003C6B70409
:1000E4001376F60DA385C7042380070412467326EE
:1000F40006800F1000001376050255CEF3360780F4
:1001040093F6860836C40F10000023800705238069
:10011400B7040F100000B70614007D89558D88C7F9
:10012400010001000100010023800704A246F3A698
:1001340006800F10000073370780137787083AC6CC
:100144000F100000238007052380B7040F10000060
:100154000F1000003727004093061005A303D78033
:1001640023800704B247F3A707800F10000093070A
:100174008008F3B7078093F787083ECE0F1000007E
:10018400B7170040130770052380E704130780FAAC
:100194002380E7040F10000003C7B70413670708A0
:1001A400A385E70423800704F247F3A707800F1011
:1001B4000000056182801376050459C273360780F6
:1001C4001376860832C80F100000238007052380A9
:1001D400B7040F10000037061400130606047D89C7
:1001E400518D88C70100010001000100238007042C
:1001F4004246732606800F1000007337078013777A
:1002040087083ACA0F100000238007052380B7042B
:100214000F100000A54793F6F60F639EF600B7276C
:10022400004013073005A383E780B71700402380FD
:100234000704D2470DBFB727004013072005E5B7D1
:1002440073370780137787083ACC0F100000238098
:1002540007052380B7040F10000098471367070CA5
:1002640098C723800704E247FDBD0111814601467A
:100274008145114506CE912493078008F3B7078082
:1002840093F787083EC60F100000B7170040130706
:1002940070052380E704130780FA2380E7040F1016
:1002A400000003C76704136717002383E704238050
:1002B4000704B247F3A707800F100000F24005615E
:1002C400828041118146014681451145FD22130773
:1002D4008008F337078093F787083EC40F100000A7
:1002E400B7170040130670052380C704930680FAED
:1002F4002380D7040F100000FD552396B7022380F6
:100304000704A245F3A505800F100000733707808A
:10031400137787083AC60F1000002380C704238090
:10032400D7040F10000003C7670413671700238363
:10033400E70423800704B247F3A707800F100000E7
:1003440001A0BD473305F50201007D1575FD8280CE
:10035400411122C426C206C6AA840144631794002C
:10036400B240224492444101828005041305803E38
:100374004204C13F4180DDB79305000273A045806C
:1003840082457390153492402242B2424243D24392
:100394006244F244025592552256B2564257D257FD
:1003A4006258F25806499649264AB64A464BD64BF5
:1003B400664CF64C065D965D265EB65E465FD65F7D
:1003C4000961730020304111B7170040985F3AC6A5
:1003D400945F3247E39CE6FE324541018280B717C1
:1003E4000040130700032388E702854723A0F18414
:1003F40073002030411106C6EF00C07CF5BF230313
:10040400048015472303E48001002302A480828032
:1004140083076480E3CE07FE23030480828083077E
:100424006480E3CE07FE03454480828083076480B2
:10043400E3CE07FE2302A4808280411126C44AC26F
:100444004EC006C61377F50BAD47AA892E8995448D
:100454006306F70019456537653F8D444E8545377A
:10046400FD59FD1463983401B240A24412498249F3
:1004740041018280135509011375F50F453F220987
:10048400CDB7011126CC06CEB70408005137154567
:10049400BD37713769372AC6A53F324593771500B2
:1004A40089EB136515001375F50FF240E2440561FD
:1004B4008280FD14E9FC0145CDBF397126DC4ADA9E
:1004C4004ED852D656D45AD25ED006DE62CE66CC10
:1004D400B7E700E07D5783AA070022C603AA4700B6
:1004E40023A0E71823A2E718B717004013077005E5
:1004F4002380E704130780FA2380E70483C74704B3
:10050400930B75FFB684E20793FBFB0F8546AA891C
:100514002E8B328937240040E187015763FA760134
:100524006308D5008946130700026313D5000157F9
:10053400D98F93F7F70FB71C00402382FC041147AF
:100544002303E4801305F00F5D3D094CD135636D41
:100554007C11B7050700DA9537870700795563F2F0
:10056400E504B3879500636EF702370B0800A947CB
:1005740033EB65016399F90689E48144513D26858D
:100584000DA0DA850945553D05090345F9FFFD141C
:10059400050B693D81C49377FB0FFDF7DD3569FDDC
:1005A4007D55B7170040130770052380E704130730
:1005B40080FA2380E70403C74704418B2382E704BE
:1005C400F250B7E700E023A0571123A24711E254E9
:1005D40032445259C259325AA25A125B825B724C4B
:1005E400E24C21618280A5476395F9068569130968
:1005F400F00FB3069900B3742B01B6941349F9FFB5
:10060400B3749900856B33796901416B9387F9FF62
:10061400B3F7270199E363FC340193D94900C14737
:10062400E3E637FF99BF0569C1697D19D9B7130599
:10063400800D638869011305000263847901130541
:100644001008CA85DD3B353D21DD4E99B384344124
:10065400D9B7DA852D45D533CA94E30099F2050953
:100664007D3BA30FA9FED5BF9387F9FF93F7F70F3F
:100674006361FC0C83C71C0413073008631FF70471
:1006840037070800636BEB04B3079B00B706100041
:1006940063F5D704334BEB0089476393F9068980EC
:1006A400D549E38C04ECDA850945413B110903275C
:1006B400C9FF91472320E48003076480E34E07FECB
:1006C40023033481FD17EDFBFD14110B81C49377D3
:1006D400FB0FE9FF7D3371F5E1B5B717004003C7A0
:1006E4005704B70708001377070219E3B787070011
:1006F4007955E378FBEA33079B00E3FFE7F855B548
:100704008547E382F9F2DA852D45053B9389F4FFA9
:10071400E38504E6293393F7390091EB83260480BB
:100724000327090093074900E39AE6E43E89CE844F
:10073400F1BFB5476396F9001305900BC93135BD78
:10074400B1471305B00AE38BF9FE99476391F904A5
:10075400B7050800B365BB002D45C53181448D4BF9
:10076400A149753963967401832704802320F90015
:100774008504E39834FF8327048013172B01635502
:1007840007002312F900D5BB2322F900FDB39D47CE
:100794006399F90281451305B0044531BD44232012
:1007A400090023220900FD599D3993F77400CA9763
:1007B40003C70700FD14398D2380A700E39634FF97
:1007C4006DBBA1476392F9046D398144630D0B003D
:1007D4008D479304C0036308FB009304000563047E
:1007E4008B01930440041375C507E30895D8194594
:1007F400393139390545213126850D3909453D31D0
:100804004931E31C05D669BB91476399F900130587
:100814006006F536F53E130590090DB7E38F09D44C
:10082400F154A9BB197106C212C416C61AC81ECA4D
:1008340022CC26CE2AD02ED232D436D63AD83EDA9C
:1008440042DC46DECAC0CEC2D2C4D6C6DAC8DECACC
:10085400E2CCE6CEEAD0EED2F2D4F6D6FAD8FEDA7C
:10086400938581838841E700050092402242B24289
:100874004243D2436244F244025592552256B25640
:100884004257D2576258F25806499649264AB64A00
:10089400464BD64B664CF64C065D965D265EB65EC0
:1008A400465FD65F096173002030B7E700E09843E4
:1008B400B706200023A0D718758F0F10000001C5BC
:1008C40099C1814711E6B7E700E023A0E7108280D1
:1008D400B386F50003C80600B306F5008507238038
:1008E4000601E317F6FEC5B737E700E01C43B70679
:1008F40020002320D718F58F0F10000019C191C1D3
:1009040011E637E700E02320F7108280910503A762
:10091400C5FF11057D16232EE5FEDDB737E700E0A0
:100924001C43B70620002320D718F58F0F100000B2
:1009340001C53307C50011E637E700E02320F710AF
:1009440082800505A30FB5FEE31DE5FEF5B7B7E705
:1009540000E09843B706200023A0D718758F0F1026
:1009640000008147B306F5008386060099E6B7E6E2
:1009740000E023A0E6103E8582808507E5B737E7CF
:1009840000E01C43B70620002320D718F58F0F1072
:10099400000001C599C1014711EA37E700E02320AF
:1009A400F710054582800507E309E6FE3308E500F4
:1009B400B386E5000348080083C60600E305D8FEB5
:1009C40037E700E02320F7100145828037E700E095
:1009D4001C43B70620002320D718F58F0F10000002
:1009E4001307F6FFBA952A966317C50037E700E0A8
:1009F4002320F7108280FD1503C715000505A30FFA
:100A0400E5FEDDB737E700E01C43B70620002320EE
:100A1400D718F58F0F10000001C53307C50019E67C
:100A240037E700E02320F71001458280050583465F
:100A3400F5FFE397B6FEE31BE5FE37E700E023206E
:100A4400F7100545828079719387418622D48043CB
:100A540006D626D24AD04ECE52CC56CA5AC85EC604
:100A64004DCC37C9C901014B938981851309F937E5
:100A7400172A0000130A4A7C972A0000938ACA7F27
:100A840097340000938484838357240085E35C4473
:100A9400631B0B0023A2F186832BC4002285EF0085
:100AA40030245E84A9A82326FB00FDB783A7090090
:100AB40082971C443307F5406375F500D8401D8FB9
:100AC4002A97636FE9069727000023AF077A8355B7
:100AD400240003450400972000E0E780A0525C4016
:100AE4005844B9C70C44D040AE97BE8663E4B700FF
:100AF40063E4C700B386C74014C4228B3A8449F424
:100B040097270000938747779C4B09476371F70841
:100B1400F917172700002329F776B250225492546C
:100B24000259F249624AD24A424BB24B4561828031
:100B340063150B0023A2E18685B72326EB00A9BF2A
:100B440003274A021DCF63E1A7043385A7408347E7
:100B5400040085E3172700000347776F5917B3078D
:100B6400A7003E85D44063E4E70063E4D7003385FF
:100B7400D74083A70A016376F5009727000023A5D1
:100B8400A770228B4044A5BFD840BA977DBF972752
:100B9400000023AB076E51B79387C1859C4381CF77
:100BA400411106C6829783C7C18699E323AE0184A7
:100BB400B2404101828083C7C18681E723AE0184AC
:100BC40082808280411122C4172400001304446DE2
:100BD4001C4006C626C24AC091C7829797270000C8
:100BE40023A0076C9737000083C7D783858B1739F9
:100BF40000001309E98289CF834779001947631CF0
:100C0400F70E97370000A38F078069235C4482970F
:100C14001C4491C382979384C18498401726000092
:100C2400034696659727000083C7076593961700C8
:100C3400BA9683D60600E1CE9727000083C7C76320
:100C440063E1C70E97270000238807621C40639462
:100C54000714938781859C43638F071297270000AD
:100C64009387C765DC4317270000232FF760E13B18
:100C74009727000083C7777B639F0710972700009F
:100C840083C7977A91CF8347790093F7F70F89EB5E
:100C940097270000A38A0778970001E0E780C0E760
:100CA4009727000093874759DC536386070E9727DD
:100CB40000009387675C9C4BF9CF83477900154705
:100CC400636BF70C9727000083C7C77A918BE1E722
:100CD40083C7C186E9E390409726000083C6D659AE
:100CE40063C1D70C2244B2409244024941011733F4
:100CF40000E06700638F834779001D47E31AF7F02C
:100D040097270000A380077271211C4809B7850743
:100D140093F7F70F972600002380F656E3E4C7F015
:100D240021BF86073E978355070023100700239AA7
:100D34000184938781869C43172500000345C5538E
:100D440013172500BA979C43829783D741851727A9
:100D540000000347675293C7F7FF7D8D9317170071
:100D640098403E97835707005D8D2310A70097276F
:100D7400000083C7675091C7850717270000230D1C
:100D8400F74E172700000347274F9727000083C714
:100D9400B74EE379F7EAB240224492440249410152
:100DA4008280139717003297035707006DF7850762
:100DB40005BF37C700408326C720B707FCFFFD17D0
:100DC400F58F2326F7200100010097270000938761
:100DD400A74AC84F832787262326D7206A0593C7A7
:100DE400F7FF99835D8D8280011122CC604126CA70
:100DF4004AC84EC652C406CEAA841D4A13096505C4
:100E04008549BC446364F4000545B9A003C7D40014
:100E140083474400631A470503C784026304F70049
:100E24000040C5B70347540083C75405E31AF7FECF
:100E34001946CA85130564009936E31335FF034741
:100E4400C40083C79402E31DF7FC0357E40083D76F
:100E5400A402E317F7FC0145F2406244D24442493C
:100E6400B249224A05618280E31CF7FA0347540021
:100E740083C75405E316F7FA1946CA8513056400B7
:100E8400FD3CE31F35F9C1BF01119727000093878B
:100E9400676522CC03A4070C26CA06CE2AC42EC634
:100EA400854419E40145F2406244D24405618280DC
:100EB4008347910003471400858B6304F7000044C3
:100EC400CDB719469305A100130524004D3CE31842
:100ED40095FE0545C9BF0000EFF01FCC730000006C
:100EE400000000009382C186038302002380020075
:100EF400630F0300F32510342EC09705000093857B
:100F0400E5FD73901534EF00204A7300203086DC31
:100F1400EF008049E650828000001387419014431B
:100F2400411122C49C5E4AC006C6998326C2858BA1
:100F34003A8413890190D1C7930700069CDE1727D2
:100F440000000347474E930700089724000093844A
:100F5400244D631BF700832709009C4393F7070480
:100F6400172700002301F74C83C7040093F70704F5
:100F74008DC3938781859C4382979727000023AF75
:100F8400A74A83C7040093F7F70B17270000230928
:100F9400F74883C7440093F7070485E78547172775
:100FA4000000A301F7489387C1909C4337070200D0
:100FB40098C7130700FC972600002385E646984847
:100FC400F8D318401C5F9183858B99CF1C5F93E7FE
:100FD40007011CDF9387C1909C4323A20706854722
:100FE400172700002300F74483270900D84305830B
:100FF400058B19C7D843759BD8C3D843799BD8C3ED
:10100400B24022449244024941018280393773003C
:1010140020309317D50063D107029387C1909C4376
:101024007D57B8D79727000093870725DC4F85079E
:10103400172700002320F726937785008DCB972769
:10104400000083C7073E93E7170017270000230A11
:10105400F73C930700F8172700002305F73C938714
:10106400419098435C57F19B93E717005CD79377C3
:1010740015009DC39727000083C7973A93E717008D
:1010840017270000A30EF7389387419098435C57C5
:10109400F19B93E717005CD79377650085CB937733
:1010A4004500172700001307A737CDC7834707005C
:1010B40093E71700172700002304F736938741901E
:1010C40098435C57F19B93E717005CD79317F5009F
:1010D40063D407021727000003474748418B97272B
:1010E40000009387274041C383C7870793E707021C
:1010F400172700002304F7469317E50063D507027A
:101104009727000083C70732E207E18763D7070008
:101114008547172700002307F7309387C1909C4326
:101124003707020098C79317C50063D4070217272F
:1011340000000347B742058B972700009387873A3F
:1011440029C383C7970793E7270017270000A3073E
:10115400F74082808347370093E717001727000082
:10116400A301F72CA1BF03C7870789463D8B6308FA
:10117400D70083C787070D47BD8BE39FE7F69147E9
:1011840085BF03C79707118B69D783C7970793E771
:10119400870065BF9387C190944397270000938786
:1011A400272803C70700058B11CB97270000238B43
:1011B400072697270000A3870726828003C7170006
:1011C400058B65F7F85271FF83C75700DDB71387A6
:1011D400419003280700832788039583858BADEF0F
:1011E40011C683270803BD832300F6009DC61C4354
:1011F400985B4607935767016356070093E707C058
:10120400C207C18303970600C207C18709C7BA97FB
:101214000947B3C7E7022390F6008DCD8345150037
:1012240095C99727000083C7072093F707041387FE
:101234009500894585C33A95834705000547994537
:1012440093F6F7066398E600E207E187814563D3E6
:101254000700B9452E8582808545EDBF411126C220
:1012640006C622C49384C1902DED9440AE87F852F3
:101274007DFF37F400E03E85972700002383071A9B
:10128400832704D1B285ED9B2328F4D0832704D18E
:1012940093E787022328F4D07300501097F000E0FE
:1012A400E7800075938741909C43B706800098437C
:1012B400558F98C3D857719BD8D797270000A3831D
:1012C400071697270000A38D07149C40094798C36D
:1012D400832704D193E787002328F4D073005010A8
:1012E40039A88D476313F504938741909C43B7064F
:1012F40080009843558F98C3D857719BD8D7944092
:10130400172700001307C71183472700858B89EB34
:1013140083473700858BD1C79727000023840710A4
:10132400B24022449244410182808547E319F5FC8E
:10133400B7F700E003A707D16D9B23A8E7D003A765
:1013440007D11367870223A8E7D073005010984091
:101354008177FD175447F58F5CC70F100000984044
:10136400B70702001CC7930700F817260000230BD9
:10137400F60A938741909C439C439D83858B639F8E
:10138400A700930760197CD354C737F700E083277D
:1013940007D193E787002328F7D089B79307E01B89
:1013A400DDB7FC52B5F3ADBF9387C1909C4388472A
:1013B400D847798D09C988C79387019103A307008A
:1013C40063030300028382809387C19098438967F3
:1013D400938707F47CD3938781919C4383A6070961
:1013E400139656006358060083A6070913966600F1
:1013F400634406007453FDF282804111B7E700E0B4
:1014040022C480433707200006C6798C23A0E7183E
:101414000F10000011C199E5B7E700E023A0871081
:1014240001454DA893073500C207C183F19BC2074C
:10143400C183130740036365F7021387819A084346
:101444001387019A14436390A60217270000130719
:10145400A7DE185B71D3C207DD8D054502976DBF0A
:101464001387419AE9BF035765002DEB03574500E5
:101474006366F706B306F7402146637CD602032869
:101484000500938687001D8FAA9661171726000012
:101494000356E6DE2392E60023A00601239306000A
:1014A40014C12312F500130786FF97260000239822
:1014B400E6DC2313B5009725000083D545DCB3870C
:1014C400F54017270000231CF7DAB7E700E023A054
:1014D40087102105B2402244410182800841A5B70A
:1014E400B7E700E08C433707200023A0E718F98D05
:1014F4000F10000001E523A0B71082809387819A22
:1015040003A307009387019A83A8070081469A875B
:1015140063FE170B03A80700636DF50A636BA80A43
:10152400138787006364E50A03D66700216705070C
:101534006317E60003C7818D0507238CE18C17250B
:101544000000130565D303D64700035765002393B2
:101554000700329742074183172E00002311EED271
:10156400638A67021383419A032303006304F3022B
:1015740003D366006310030283D7460023A0060149
:1015840021073E9621062392C60097270000239840
:10159400E7CEB6879843630B17039386419A944228
:1015A4006306D7028356670095E283D64700035645
:1015B40047001843A106B2962392D70098C38357D5
:1015C4006500A10717270000231BF7CAB7E700E04F
:1015D4001DB7BE86C2872DBF0111972700009387D0
:1015E40067F022CC03A4870C26CA4AC84EC606CE8E
:1015F400AA8413092500854915C083C7140003472D
:101604003400858B6304F700405CFDB719469305ED
:1016140044004A85EFF0AFB6E31835FF2285F24067
:101624006244D2444249B2490561828041119727FC
:101634000000938727EB22C403A4870C26C24AC068
:1016440006C693042500054901E82285B2402244D8
:101654009244024941018280A6851305A40297A001
:1016640001E0E78020BBE30225FF405CF1BF4111AC
:1016740097270000938707E722C403A4870C26C298
:101684004AC006C693042500054901E82285B240F4
:1016940022449244024941018280A6851305A40193
:1016A40097A001E0E78000B7E30225FF405CF1BFAB
:1016B4009711002093814194175100201301411484
:1016C4001305400097F5FF1F9385859317060020A7
:1016D400130606FE63FAC5008322050023A0550005
:1016E40011059105E3EAC5FE17D501001305C59A56
:1016F400970500209385C5FB1386818363FAC50093
:101704008322050023A0550011059105E3EAC5FED7
:101714001385818397250020938545EF6377B50072
:10172400232005001105E36DB5FEFD42739002BC54
:101734008D4273904280930280087390023097F236
:10174400FF1F9382E28B93E2320073905230971220
:1017540000009382823773901234730020303D432B
:101764002A876373C3029377F700BDEFADE59376E1
:1017740006FF3D8ABA960CC34CC30CC74CC741073D
:10178400E36BD7FE11E28280B306C3408A06970258
:10179400000096966780A6002307B700A306B7004B
:1017A4002306B700A305B7002305B700A304B700B9
:1017B4002304B700A303B7002303B700A302B700B1
:1017C4002302B700A301B7002301B700A300B700A9
:1017D4002300B700828093F5F50F93968500D58D8D
:1017E40093960501D58D61B7939627009702000063
:1017F40096968682E78086FA9680C1171D8F3E965C
:10180400E374C3F8A5B7B717004003C77705137788
:10181400E70FA38BE704130700F8A38DE7043D4704
:10182400238CE70413075003A38CE70403C7A7051D
:101834001377D70F238DE7048280B717004003C7BF
:10184400E7020D8941111377C70F498F930680086A
:10185400F3B6068093F6860836C60F10000093068A
:1018640070052380D704930680FA2380D7040F10D1
:1018740000002387E70223800704B247F3A7078009
:101884000F1000004101828041112A83014E930E02
:10189400407E130F0019930F400663E56E12930800
:1018A400001913034006B3781503854E0D4FA14F5D
:1018B400337365020D891335150063EFBE121308E7
:1018C400F6FF794672984208135808013307C70295
:1018D40013D61700BE0732976146B3F6C602130645
:1018E4008070B386C6023697A166F58F42075D8F76
:1018F400B716004083C7F60293F70708A303F10065
:101904000346710083C7F60293F70708E394C7FE02
:1019140083477100B716004093F7F70F63880712E7
:1019240093078008F3B7078093F787083EC40F1026
:101934000000B7170040930670052380D704930670
:1019440080FA2380D7040F10000023AA070383C65C
:10195400170393E60608A388D70223800704A24747
:10196400F3A707800F1000001166B71700407D161B
:10197400D45BC85F93854703A98EF18EF5FA93066D
:101984008008F3B6068093F6860836C60F1000006A
:10199400930670052380D704930680FA2380D70426
:1019A4000F10000098C103C7170313670704A38827
:1019B400E70223800704B247F3A707800F10000053
:1019C400410182807D133368E3039308E016630EBC
:1019D40008003368F3039308D0166308080093786B
:1019E400330093B818009388D81633081E01131EC9
:1019F4000801135E0E0155B56393E503054863863C
:101A040008000148630303002A8871087298FD15D1
:101A1400131E0801C205135E0E01C18179BD13F8BE
:101A2400150063F4BF007908D5B713381800E5BF73
:101A340083C7F60293F70708A303F1000346710076
:101A440083C7F60293F70708E394C7FE8347710040
:101A540093F7F70FF1DFE9B531714AD966CB06DFA9
:101A640022DD26DB4ED752D556D35AD15ECF62CD76
:101A74006AC96EC7AA8C02D8EF0010122A8993078C
:101A84008008F3B7078093F787083EDA0F10000049
:101A9400B7170040130770052380E704130780FA83
:101AA4002380E7040F10000003C7F7021377770FB2
:101AB400A387E70203C7F70213678700A387E70238
:101AC40023800704D257F3A707800F1000000545B1
:101AD400AD33130780C13347E902116A93070AE85B
:101AE40093065002BD69930BA004814A014B130471
:101AF4008008930470057D1AB347F9023307D702AF
:101B04003EC0FD873ECC938709A69309803E3347A8
:101B1400F7023AC27D873AC4334739038549B399FA
:101B2400990193D93940B306D702B30B7703B3C6EF
:101B3400F602B3CBFB0236C6FD8636C893D6FB410C
:101B440036CEB7460F00938606243349D9028566FC
:101B5400938606FAB3969601B389E9021307605592
:101B64003309D90293060010B389E9023349D90233
:101B7400B3C9F9029316390036CA37190040FD86F5
:101B840036D0930D090493D7F9413ED2F33604803D
:101B940093F6860836DC0F10000093077005238047
:101BA400FD00930680FA2380DD000F1000008346B9
:101BB400390593F6860FA309D9048346390593E6BC
:101BC4001600A309D90423800D00E256F3A606806B
:101BD4000F100000130C80FA116DF336048093F695
:101BE400860836DE0F100000930770052380FD0081
:101BF40023808D010F10000083463905216693E68A
:101C04000602A309D90483560905B3E6A6012318DD
:101C1400D90483560905D18E2318D90423800D00D5
:101C2400F256F3A606800F1000008346390593F69A
:101C340006026389061803463905218A6DDE0818F1
:101C4400612F7336048013768608B2C20F10000029
:101C540023809D0023808D010F100000B7170040E2
:101C640003C637051376F60DA389C70403C63705E3
:101C740013660602A389C704835609052166B3E6E1
:101C8400A6012318D90483560905D18E2318D90433
:101C940023800D009646F3A606800F1000008346AD
:101CA400390593F606026386061483463905A18A2C
:101CB400EDFE97E0FF1FE780C03DAA8636D497E08B
:101CC400FF1FE780003DA256E30AD5FE83560905AF
:101CD4004255B3E6A6012318D904392F83463905A2
:101CE400A18AEDDE0356090583462905824733762A
:101CF400CA00B306DA0293D5F641B296B388F64029
:101D0400E24733B8C6002E983308F840A247B3B66A
:101D140016013308D84063C70701631DF8009247D2
:101D240063FA1701C247634DF80E63950701B24782
:101D340063E8F80E894663E7660FF24693151800C8
:101D440013D3F8015E8613951800B365B30042D629
:101D540046D4EFA0C1163258050B137BFB0F634723
:101D6400000163120838A258638F0836130815005F
:101D7400B336A800B69513D6F5013298B336C80029
:101D8400AE9613581800FE06B3E6060173360480B7
:101D940013768608B2C60F10000023809D002380AE
:101DA4008D010F1000000356C902B296C206C1820B
:101DB4002316D90223800D00B646F3A606800F1021
:101DC400000021BDF336048093F68608B6C00F10D8
:101DD400000023809D0023808D010F1000008346A6
:101DE400390593E60602A309D90423800D0086462B
:101DF4000DBDF336048093F68608B6C40F100000B8
:101E040023809D0023808D010F1000008346390537
:101E140093E60602A309D90423800D00A646A5BDB6
:101E2400E30D0BF0F336048093F68608B6C80F1062
:101E34000000930680FA23809D002380DD000F10AC
:101E440000008346390593F5FC0F93F6860FA3092A
:101E5400D90483463905CD8EA309D90423800D0006
:101E6400C646F3A606800F100000130580FA034649
:101E74003905930639051D8A63149629733604803F
:101E840013768608B2CC0F100000130680FA238064
:101E94009D002380CD000F10000003C606001376BA
:101EA400F60D2380C60003C60600136606022380CF
:101EB400C600835609051166D18E2318D9048356AA
:101EC40009052166D18E2318D90423800D00E64626
:101ED400F3A606800F100000130680FA8346390526
:101EE40093F606026388062483463905130C3905E4
:101EF400A18AFDDA0818CD21F336048093F686080A
:101F0400B6D00F100000930680FA23809D00238032
:101F1400DD000F10000083460C00116693F6F60DE9
:101F24002300DC0083460C0093E606022300DC0059
:101F340083560905D18E2318D904835609052166D1
:101F4400D18E2318D90423800D008656F3A606806B
:101F54000F100000130680FA8346390593F6060233
:101F64006385062083463905A18AEDFE97E0FF1FAD
:101F7400E78020122A8C97E0FF1FE7808011E30C92
:101F840085FF8356090511664255D18E2318D9045D
:101F9400A5218346390513063905A18AFDDAF336EE
:101FA400048093F68608B6D40F100000930680FAD6
:101FB40023809D002380DD000F100000834606006F
:101FC40093F6F60D2300D60023800D00A656F3A643
:101FD40006800F1000008356090503462905D247E1
:101FE400B376DA003306CA021305800C9355F64122
:101FF4003696330DF6408257333CD6002E9C33364A
:10200400A601330CFC40330CCC40330885039256B4
:102014004E86B335A5033305A503C295EF90316A07
:1020240063468001631E0C16630C0D16130615001F
:102034003335A6002E959356F5013696B335D60062
:10204400AA959396F50105828585D18E6346B000E5
:10205400639D051A638B061A0356C902158233055C
:10206400D6003336C500B2956348B00063910524A9
:102074001306F00F637DA622894663F35615930772
:102084008008F3B7078093F78708BED60F100000C7
:1020940037170040930770052300F704930780FA6D
:1020A4002300F7040F1000008356C70289678117C5
:1020B400D58FC207C1832316F70223000704B6573E
:1020C400F3A707800F100000FA506A54DA544A59F3
:1020D400BA592A5A9A5A0A5BFA4B6A4CDA4C4A4D54
:1020E400BA4D296182801308F5FF3335A800FD1528
:1020F4002E951356F5013298B336C800AA9651B1FD
:10210400F336048093F68608B6CA0F1000002380C5
:102114009D002380AD000F10000083463905CD8E4D
:10212400A309D90423800D00D646F3A606800F1018
:10213400000035BBF336048093F68608B6CE0F1044
:10214400000023809D002380CD000F1000008346F3
:10215400390593E60602A309D90423800D00F64647
:10216400F3A606800F10000095BBF336048093F6A7
:102174008608B6D20F10000023809D002380CD0076
:102184000F1000008346390593E60602A309D9041B
:1021940023800D009656F3A606800F1000006DBB39
:1021A4009306F5FF33B5A600FD152E959355F5015D
:1021B400AE96B3B5B600AA951396F501858269B5B6
:1021C400F336048093F68608B6D80F100000930601
:1021D40080FA23809D002380DD000F1000008356C9
:1021E400C9020566011693F6F60FD18EC206C182A6
:1021F4002316D90223800D00C656F3A606800F10BD
:102204000000850A93FAFA0F51B233E6B60045C2CC
:102214000356C9023305D0403338A000B305B0409B
:10222400B385054115826345B000D1E16371A60809
:10223400894663F0560593078008F3B7078093F740
:102244008708BEDA0F100000B717004013077005A7
:102254002380E704130780FA2380E7040F100000AB
:1022640003D7C7027D8B2396E70223800704D65742
:1022740081BDF336048093F68608B6DC0F100000A7
:10228400930680FA23809D002380DD000F10000058
:102294008356C9020566011693F6F60FD18EC2065F
:1022A400C1822316D90223800D00E656B9B79307DD
:1022B4008008F3B7078093F78708BEDE0F1000008D
:1022C40037170040930770052300F704930780FA3B
:1022D4002300F7040F1000000356C702939756001B
:1022E400B297C207C1832316F70223000704F657E7
:1022F400C1BB914763EEB70217B701001307C76765
:102304008A05BA959C41BA978287B717004003A7FC
:10231400470B1345F5FF698F23AAE70A03A7070BA9
:10232400698F23A8E70A03A7070A798D23A0A70AC0
:102334008280B717004083A6470B1347F5FFF98E39
:1023440023AAD70A83A6070B558D23A8A70A83A619
:10235400070A758F23A0E70A8280B717004003A7F6
:10236400470B498F23AAE70A03A7070B1345F5FF79
:1023740045BFB717004083A6470B1347F5FF758F7A
:1023840023AAE70A03A7070A598D4DB7B7170040D8
:1023940003A7470B498FEDB7B7170040884742059D
:1023A40041819377050491EB9377F5013755E80163
:1023B400130505803345F50282809377050C1307D6
:1023C40000046397E7009377F50137459C1CCDB76C
:1023D4002165130505D0828037E700E01C43544390
:1023E400A183E206D58F1CC1FD572320F7182322B1
:1023F400F7180F100000828013178500B7E700E07C
:1024040023A0E710618123A2A7108280B7F700E020
:102414008847CC478280814737370040A14663C450
:10242400C700328582800345B740E38EA6FE33851C
:10243400F5000345050085072304A740CDB797F7AA
:10244400FF1F9387673B9C43171700201307071C44
:102454003E95636EE500174700201307671A63680B
:10246400A70017F7FF1F2329A7383E858280FD5751
:10247400EDBF411122C406C62A84393F2947B30758
:10248400E502B2408D83B3D7870222449507B3D7C0
:10249400E70237370040C207C1832316F7404101E2
:1024A4008280716541111305052006C6D937B737F7
:1024B4000040130770F82381E7400D47A381E740EC
:1024C40013070004A380E74005472387E740B24091
:1024D4004101828011456FF02FD841119396250058
:1024E400AA852D4506C697E0FF1FE78000FDB24090
:1024F400014541018280011122CC06CE37140040EF
:1025040026CA4AC84EC652C483447405034AB40555
:102514008349840503499405EFF0EFAE8347A4058E
:1025240093F4F40F137AFA0F93E71700230DF404CE
:1025340093F9F90F1379F90FB717004003C7A705EB
:10254400058B6DFF03D5C705A38D4705238C370580
:10255400A38C2705A38B9704F2406244D2444249DA
:10256400B249224A0561828041119397050122C430
:1025740006C6C1872E8463DB0700512D11C1F923E0
:102584002165218DB24022444101828093F71500D8
:1025940013C51500E5FB9397250163D00702EFE00F
:1025A400D0380D3F37F60200130606E0896503C5EF
:1025B400C183EF0010430965E9B7939715010145FD
:1025C400E3D207FC17B501001305C540EFA0611A5B
:1025D40013060064916503C5C183EF009040116543
:1025E4004DB72D71232A9110FD74E98C232C811091
:1025F40023282111232631112A84AE893289930696
:1026040000100A86A6852D45232E111097E0FF1F82
:10261400E780A0EA1315440151810A0513962900A5
:10262400CA850A9597E0FF1FE7802028A68585665E
:102634000146254597E0FF1FE78020E80A86A68526
:1026440093060010294597E0FF1FE78000E78320E9
:10265400C111032481118324411103290111832908
:10266400C11015618280B7F7070003C70701411144
:1026740006C622C426C24AC0A547631AF700953786
:10268400B24022449244024901454101828013949C
:102694002500AA843289A286AA850146254597E0A9
:1026A400FF1FE78080E1A2864A86A685294597E038
:1026B400FF1FE78080E0E9B71D71494697B5010027
:1026C4009385C52C17B501001305054486CE97E004
:1026D400FF1FE780C02A01E917B501001305452C47
:1026E400EFA0210901A0B7F600E0795798CAFD5779
:1026F400DCCA0567B7E700E023A0E7101306F00281
:1027040090C223A0E7180F10000017E7FF1F13075C
:10271400677D23ACE1824157A38AE7401306000496
:102724008145080897E0FF1FE780401F97F7FF1FC8
:10273400938747303EC8896793870780231AF1003F
:102744009D673ECCB7070105938707103ECEED4742
:102754002310F10285472301F102970700009387B4
:1027640007D8BEC297070000938727F0BEC48567C9
:10277400938757D12312F10297070000938747C923
:102784003ED8B7F5070097070000938707D73EDCCC
:10279400814697070000938727D43000E105194547
:1027A4003EDE97E0FF1FE78040D118088147994635
:1027B40030003E960346060085070507A30BC700B5
:1027C400E398D7FEC24791C70357410185676373F6
:1027D400F70001A00808EF102005AA8501C917B564
:1027E40001001305251DEF90916401A0F6402561B9
:1027F4008280411117050000130545D706C622C47F
:10280400EF00107F1384C1832300A400192803451B
:1028140004002244B24013060032896541016F006E
:10282400501C797106D613078008F337078093F795
:1028340087083EC20F100000B717004093057005CB
:102844002380B704130680FA2380C7040F10000006
:1028540083C6F70293F6A60FA387D7022380070443
:102864009246F3A606800F10000073370780137793
:1028740087083AC40F1000002380B7042380C704DC
:102884000F10000003C7F70213672700A387E702AE
:1028940023800704A247F3A707800F100000054513
:1028A400EFE0BFF905398147014781460546854573
:1028B4001305407EEFE05FFD68005146814597E0D7
:1028C400FF1FE780A005B707C0A83EC8B787E80385
:1028D400938707D03ECA680097E7FF1F9387A7AE88
:1028E4003EC6EF100024B250456182804111939797
:1028F400050122C406C6C1872E8463DD070003C513
:102904005184312611C199242165218DB24022447C
:102914004101828093F715000145EDDB17B50100F5
:102924001305C573EF30517E13451400C5B78347B3
:102934002500011122CC06CE26CA4AC84EC652C46E
:1029440056C25AC005472A846387E70A91CF3547A0
:102954006380E704F2406244D2444249B249224AC5
:10296400924A024B05618280014685450D45EF3050
:10297400517B6244F240D2444249B249224A924ACB
:10298400024B17B501001305250505616F90715EB3
:1029940003C741849D47E3EFE7FA834945001309E0
:1029A400550001449384C19F03C541846366A40216
:1029B4000E05090526951946CA8597E0FF1FE7808D
:1029C400C0EE83C7418413973700BA948507A38068
:1029D40034012382F184BDBF93153400890519465F
:1029E400A6954A8597E0FF1FE78060F925F5050461
:1029F4001374F40F55BF17B501001305E5FEEF90EE
:102A0400515783473400A5E3014685450D45EF3012
:102A140051716244F240D2444249B249224A924A34
:102A2400024B17B50100130565FD05616F90314038
:102A3400A6854E85EF90B13F139B340001495C405D
:102A44005285DA97CA9783C527000509EF90313E6E
:102A5400E31759FF2945EF909141850483473400DA
:102A6400E3C8F4FC55B7814497B90100938949FA46
:102A740017BA0100130ACAFA994ACDB7011117050A
:102A840000001305E5E606CE22CCEF007056138451
:102A94005184A1471306F1002300A40085451305C2
:102AA400E030A307F100EF40C10385659385052C51
:102AB4000945EF20501A0345040085458123F2405F
:102AC40062440561828041111305800406C697D0D3
:102AD400FF1FE780805D371700408327870A8D45F5
:102AE4001305002093E707202324F70AEFF07F80E3
:102AF4004D3A17B5010013052501EF9091476D3E3E
:102B0400CD39EF4061299D3F97E0FF1FE780808E1C
:102B140023AC05FE1C4191E7010001000CC1828039
:102B2400BA8703A787FF6DFF23ACB7FE82801841E5
:102B340083A785FF6319B7001CC1FD5723AC05FEAD
:102B4400238FF5FE8280232CF6FEC5BF411122C4DB
:102B540037E400E026C204403707200006C6F98C9B
:102B64002320E4180F10000009E9232094101545D0
:102B7400B24022449244410182800347E5FF930717
:102B8400F00F6306F700232094101145D5B797F092
:102B9400FF1FE780E094014523209410D1BF411129
:102BA40026C2B7E400E04AC003A90400B707200026
:102BB40006C622C43379F90023A0F4180F100000CC
:102BC40009E923A02411B24022449244024941015C
:102BD40082809565938505D0C98D2A842105C20517
:102BE4004205C181418197F0FF1FE780008101CD3B
:102BF400FD5723200500231285002303F50023A09D
:102C040024112105C9B723A0241101456DBF011169
:102C1400B7E700E04AC803A907004EC637072000FB
:102C240006CE22CC26CAAA893379E90023A0E71864
:102C34000F1000009387818480438144014619E486
:102C440099E8A1654E85EF00300331A88347E4FF7E
:102C54006397370395C8A68513858184C93D75D0CC
:102C6400A1654E85612EF2406244B7E700E023A0DF
:102C7400271126854249D244B2490561828091E0F8
:102C84002286032484FF65BFA284E5BF41114AC0A4
:102C940037E900E022C4032409003707200006C6F0
:102CA40026C2798C2320E9180F10000089E523201F
:102CB4008910154515A0AA849707002083C7975B40
:102CC4002E8563F5F400894763EE97004135B7E735
:102CD40000E023A087100D45B240224492440249EB
:102CE4004101828083A785FF99E703C7E5FF930726
:102CF400F00F6308F700993DB7E700E023A08710C1
:102D04004DBF238F95FE138581841935A1652685D2
:102D1400F524014523208910C1B723A401848280AE
:102D2400938741869C4399E33E85828003D727009D
:102D34006316B70003C70700E308A7FEDC47E5B73F
:102D4400B1CD011106CE22CC26CA8147C14633D764
:102D5400F540058B1DCF12053E9531473305E5023D
:102D640013870185044305443314F4002EC642043A
:102D74004180AA949C40C8408297B24523A0040095
:102D840023A20400A18DF2406244D2442E85056141
:102D940082808507E39DD7FA0144EDB72E858280B2
:102DA400BDCD797122D406D626D24AD04ECE014466
:102DB4004147B3D78540858BB1CF12053147229562
:102DC4003305E5029387018503A907008544B3947D
:102DD4008400C204C180BE892A990327090011C74F
:102DE400032549002EC60297B24531473304E40255
:102DF40083A709003E941C4489E723200900232269
:102E04000900B2502254A58D02599254F2492E85DC
:102E1400456182800504E31EE4F88144DDB72E8514
:102E240082804111B7E700E022C4804337072000C5
:102E340006C626C2798C23A0E7180F100000970756
:102E440000209387273F9C539384418099C782979E
:102E54009C403E9523A2A18029A0938781859C4311
:102E6400FDF78840B74703009387D73F3305F50242
:102E7400B7A72600938737ECB24092443E9523A22D
:102E8400A180B7E700E023A087102244410182809B
:102E94000111B7E700E022CC80434AC8370720007D
:102EA40006CE26CA2A892E86798C23A0E7180F100D
:102EB4000000131506019305F004418132C697E022
:102EC400FF1FE7808053AA8419C53246CA8597E05C
:102ED400FF1FE780809DB7E700E023A08710F24042
:102EE400624426854249D244056182807971B7E7FC
:102EF40000E022D480433708200006D626D24AD0E8
:102F04004ECE52CC56CA5AC85EC662C4337404014B
:102F140023A007190F10000005E123A0871009451D
:102F2400B250225492540259F249624AD24A424B54
:102F3400B24B224C45618280938781859C43BA8A37
:102F4400368AB28B2E8BAA89829793870185984300
:102F54003E898144B146C147338CD402330687018C
:102F6400104241E6C165938505F0414597E0FF1F96
:102F7400E780A04805E1970700209387A72B9C5B77
:102F840081C7814511458297B7E700E023A08710E8
:102F94002D4579B793874186984321E723A2A186DB
:102FA40023000500832709000547331797002326CC
:102FB4000500232475012311E50023225501E2971E
:102FC40023A0370123A2670123A4570163040A0045
:102FD40023009A00B7E700E023A08710014589B7D2
:102FE4003E875C47F5FF48C765BF8504E396F4F662
:102FF400B7E700E023A0871021451DB7B7E700E03D
:103004009843B706200023A0D718758F0F1000002F
:103014009706002083C616266371D5021386C184E1
:10302400931615000842369583560500D58D231056
:10303400B50023A0E7100145828023A0E7100D45C9
:103044008280B7E700E09843B706200023A0D71892
:10305400758F0F1000009706002083C6B621637396
:10306400D5021386C18493161500084293C5F5FF53
:10307400369583560500F58D2310B50023A0E7107F
:103084000145828023A0E7100D458280011137E7B6
:1030940000E026CA0443B706200006CE22CC4AC864
:1030A4004EC652C4F58C2320D7180F100000130706
:1030B40005FF1377F70FFD4763E1E70AB146B3064F
:1030C400D50293870185984336971C43D9C7135A71
:1030D400450005443D893315A400131405014180BE
:1030E4002E895285A2852D39AA8939C9A28552858E
:1030F400893F938781859C4382979707002083D7D4
:10310400271C338727032A84814613060064B3B738
:10311400270313050732B335E500BE95EF90A117D9
:10312400B307850097060020938606193E87D4428C
:1031340063E4A70063E4D7003387D74023A4E900FE
:10314400B7E700E023A097100145F2406244D2445F
:103154004249B249224A05618280B7E700E023A0D0
:1031640097100945DDB70111B7E700E026CA84438B
:103174003707200006CE22CC4AC84EC6F98C23A0BD
:10318400E7180F100000BD4763E7A7043147330772
:10319400E502938701859C43BA979C438DCF0544F0
:1031A4003314A400420441802E890145A2858D3E3A
:1031B400AA8911C5A2850145693523A42901B7E768
:1031C40000E023A097100145F2406244D2444249F2
:1031D400B24905618280B7E700E023A09710094552
:1031E400E5B779714AD037E900E026D28324090093
:1031F400B707200006D622D44ECE52CC56CA5AC89F
:103204005EC6FD8C2320F9180F10000097070020DC
:1032140083C757066378F5009387818583AB0700DE
:1032240063970B00B7E700E023A09710A9A0170B42
:103234000020130B6B08832A4B00B74736FE938795
:1032440007C82E8A9705002083D58507BE9AB387C1
:10325400C5022A84B2898146B3B5C50213850732F3
:10326400B337F50013060064BE95EF90C10263F016
:10327400AA02232099100145B250225492540259B3
:10328400F249624AD24A424BB24B45618280829BE8
:103294009705002083D5C502B38735032A89130611
:1032A40000648146B3B5350313850732B337F5009F
:1032B400BE95EF80517EB30725013E8903274B005D
:1032C40063E4A70063E4E7003389E740D2852285FD
:1032D400813C09C923242501B7E700E023A0971006
:1032E400054559BF936504F0C205C181414597E086
:1032F400FF1FE780801019E997070020938787F361
:103304009C5B8DD3A2851145829729BF9387418603
:103314009C4395E323A2A186854723260500232405
:1033240025012311450123008500A300F500232274
:1033340005005DB7BA87D84775FFC8C7F1BF797173
:10334400B7E700E026D284433707200006D622D40C
:103354004AD04ECE52CC56CA5AC85EC662C466C261
:103364006AC0F98C23A0E7180F1000002DC1414456
:10337400B689B28A2E8A2A89B14C138B0185054DF0
:10338400130C0003B30B940303270B005E971C4339
:10339400A5E39375F400B315BD0013554440C2056D
:1033A4005686C1811375F50F2D3D39C183270B0056
:1033B400DE9723A0270123A2470163840900238009
:1033C4008900B7E700E023A09710014521A023A0BE
:1033D40097100945B250225492540259F249624A54
:1033E400D24A424BB24B224C924C024D45618280F0
:1033F4000504E31984F9B7E700E023A097102145F9
:10340400D1BF0111B7E700E026CA844322CC4AC8E1
:103414004EC63707200006CE2A84AE893289F98C3D
:1034240023A0E7180F1000006D3B2285CE85EFF036
:103434003F8F2A8405C59705002083D565E8B387A7
:103444002503130600648146B3B5250313850732AB
:10345400B337F500BE95EF80116448C013351400EE
:10346400F2406244B7E700E023A097104249D244F7
:10347400B2490E05056182800111B7E700E04AC830
:1034840003A9070022CC4EC63707200006CE26CA61
:10349400AA892E843379E90023A0E7180F100000CD
:1034A400EFF01F88AA8419C123110500A2854E8557
:1034B400493E9707002083C7E7DB6397370183D72B
:1034C40041855D8C239A8184B7E700E023A027110E
:1034D400014591E01945F2406244D2444249B2495F
:1034E4000561828001114AC837E900E022CC032437
:1034F4000900B707200006CE26CA4EC67D8C2320BD
:10350400F9180F1000009307F00263E6A704B1470F
:10351400B304F5029389018583A70900A6979C4308
:103524009DCB9377F5008545B395F500C205C18120
:103534001181993783A709000145A69723A00700A5
:1035440023A2070023208910F2406244D244424956
:10355400B24905618280B7E700E023A087100945DE
:10356400E5B74111B7E700E026C2844306C622C48A
:1035740037072000F98C23A0E7180F100000EFF0A4
:103584002FFA19E90145B2402244B7E700E023A02D
:103594009710924441018280938781859C43004522
:1035A400829797070020938727D16368A402D843A2
:1035B400B74636FE938606C83305A4403697E373B0
:1035C400E5FC13070064B335E50203D687008146A2
:1035D4003305E502EF80314C7DB7D8433A94C1BF3F
:1035E400411122C426C2170400201304E4CC97041A
:1035F4000020938424C8944858409387818506C644
:103604009C43639FE60682975440B74736FE9387F0
:1036140007C8B6973387A7003A856364F7006364E5
:10362400D7003305D74097040020938424DFDC506F
:1036340091CB9387819194433707CDFF7D179C46A7
:10364400F98F9CC611E1484097070020938787BEF5
:10365400DC53829719E5DC5099CFEFD05042EFD07C
:103664000020DC5089CB938781919843B7063300BF
:103674001C47D58F1CC7B24022449244410182802A
:10368400829794485840B387A6003E8563E4D700E8
:10369400E3EBE7F83385E74079B7411106C623A089
:1036A400A1860295B2409707002023A1A7BE014539
:1036B40041018280994763E9B7008A059707002092
:1036C4009387C7BDBE9588C1828023AEA18401C5FE
:1036D40085472386F186828041117146814517050D
:1036E40000201305A5BB06C623A2018623A00186DC
:1036F40023AC01842386018623AE018497D0FF1F67
:10370400E780C021130680028145170500201305B8
:1037140065B697D0FF1FE7806020EF3021719707CF
:103724000020938727B103C5C70383C7D703854503
:103734003E958D473305F50239051375F50F970747
:103744000020238AA7B299473305F50213050524FF
:1037540097E0FF1FE78060CA23A8A18459C5994751
:1037640017060020034626B13306F60281451306E8
:10377400062497D0FF1FE780601A938701859C4336
:103784009387072423A4F186170700200347A7AED5
:103794000A07BA9723A6F184EFF02FD8492193871B
:1037A400818694439707002083C7D7AC13972700DB
:1037B400369717F6FFFF1306E65E10C3138717004C
:1037C4001377F70F0A07369717F6FFFF1306865786
:1037D40010C313873700890793F7F70F8A079705F4
:1037E4000020A389E5A8B69790C3B2404101828026
:1037F4009707002083C717A8170700200347A7A728
:1038040063F1E7021387818618439386170017062E
:103814000020A301D6A693962700369708C33E85B9
:1038240082809307F00FE5BF1C416382071641773E
:103834007D8FB70600208947631CD71403574500C2
:1038440063080714411122C419462A849305F00F12
:10385400610506C697D0FF1FE780C01A05478D474C
:103864006302E5121C4481CB58589947630C071036
:10387400185C63090710130600048145170500202E
:103884001305459B97D0FF1FE780400913060004EA
:10389400A285170500201305E59997D0FF1FE7803F
:1038A400C0009707002083D7A799170700201307A4
:1038B400679899E793070010970600202392F698DB
:1038C4009707002083C7E79791E78547970600206D
:1038D4002389F6969707002083D7C79691E7ED478B
:1038E400970600202390F6969707002083C77795C4
:1038F40091E7954797060020A385F6949707002043
:1039040083C7679491E7854797060020238DF69235
:103914009707002083C7379399E78347F7009706F3
:103924000020A382F6929707002083C7F79181CFE6
:1039340093F63700898317060020230BD692970647
:103944000020A387F6929707002083C7E78F91E7AB
:10395400D547970600202389F68E8347640199E7AB
:103964009307C003970600202381F68E1C5791C746
:103974008297970700202393A790FD57A387F19878
:10398400A13B8147B24022443E8541018280894760
:103994003E85828001114EC6970900209389C99102
:1039A40083A7090006CE22CC26CA4AC852C48297ED
:1039B40013090064B335250303DA8900814652866E
:1039C40033052503EF80310D970700209387878AFD
:1039D400804FAA8401456306940233858440636E54
:1039E400940003A5490052868146B335A9023305E4
:1039F400A902EF80510A018D26959707002023A77D
:103A04009788F2406244D2444249B249224A05614D
:103A140082809707002083D7C78A51471D45637C5E
:103A2400F702794719456378F70213072003154510
:103A34006373F7021307B0041145637EF70013079D
:103A440040060D456379F70013076009094563745F
:103A5400F70013B5B70F8280011122CC06CE2A8459
:103A64002EC6EFF00FBCB245F240818D33A5A502FE
:103A7400229562441375F50F05618280011122CCF1
:103A840006CE2A842EC6EFF0CFB9B245F240818D1E
:103A940033A5A502229562444205418105618280D5
:103AA400011122CC06CE2A842EC6EFF08FB7B24580
:103AB400F240818D33B5A50222956244056182806E
:103AC40097F7FF1F93870777985739CB411122C483
:103AD40026C206C6BE84029717F7FF1F0357077A4C
:103AE4002A8415CBBA876373A700AA87C207C18348
:103AF400BA866373E400A286C206C182958F5147D9
:103B0400635BF700DC5491C38297EFD0006297F7B0
:103B1400FF1F23958776B24022449244410182805C
:103B2400828023A8018697F7FF1F9387A770DC572D
:103B3400011106CEAA8581C72AC68297B245D1CD86
:103B44009C410545C1CBDC41D1C783D78500D9C38E
:103B540083D7A500C1C3514617F5FF1F1305C575CB
:103B640097D0FF1FE78060D497F7FF1F238C07745B
:103B740097F7FF1F938747749C4323ACF18497F70F
:103B8400FF1F83C7976C8DE79307805717F5FF1FB7
:103B9400035505733305F50237460F001306062453
:103BA40081468145EF80216F97F7FF1FA38FA76898
:103BB40017F7FF1F03477769A54763E7E700A9479E
:103BC40017F7FF1FA303F768170500001305C5DCEB
:103BD400E9340145F2400561828097F7FF1F23A96C
:103BE400076A97D7FF1F9387C71C17F7FF1F232563
:103BF400F76C7D5797F7FF1F23A2E76CB787320056
:103C0400938727A197F6FF1F23ACF66A97F7FF1F48
:103C1400238A076AB7C7004023A4E72691BF01118E
:103C240022CC17F4FF1F1304E460084406CE26CA0E
:103C34004AC801E90545F2406244D244424905615B
:103C440082805C58E5DB185C75D7700085458297E7
:103C54001844B247E300F7FE9305E00417F5FF1F8D
:103C64000355055E97D0FF1FE780207917F7FF1FE4
:103C74002322A76261D117F6FF1F0356665C9305E2
:103C8400F00F97D0FF1FE78060C9814417F9FF1F29
:103C94001309495E97F7FF1F83C7A75A0326090232
:103CA40063C1F402328597E0FF1FE780608301451A
:103CB40097F7FF1F23A0075E97F7FF1F23AE075C4C
:103CC4009DBF97F5FF1F83D5A557B3879502084479
:103CD400185C898185043E9508C2029765BF01116D
:103CE40056C297FAFF1F938AEA5483A78A0022CC0C
:103CF4004AC84EC606CE26CA52C45AC0AA892E84C1
:103D040032896386072203A74A036309071413074A
:103D1400F01F6367A71497F4FF1F9384A45503AAA5
:103D2400040263170A0A9565938515E017F5FF1FCA
:103D34000355055197D0FF1FE780206C97F7FF1FAD
:103D440023AAA7542A86630B051083A74A0303A555
:103D54008A0097F5FF1F83D5A54E8981829783A793
:103D64008A0003AA040217F7FF1F2327F752894783
:103D7400639CF908C1476313F40E97F5FF1F83D5BD
:103D8400254C938505FC9147B3C5F5028A05D29568
:103D940003C725009307A005631EF70A83D7050010
:103DA400639A370B4A852286910597D0FF1FE780D7
:103DB400C0AF9C505285639347150145F24062445D
:103DC400D2444249B249224A924A024B0561828056
:103DD400D850E38EE7F89565938525E017F5FF1F26
:103DE4000355054697D0FF1FE78020612A8A3DC509
:103DF4002A8683A74A0303A58A0097F5FF1F83D564
:103E0400254489818297A5B78D47639DF900C147F1
:103E14006316F40497F5FF1F83D58542938545FD0A
:103E2400F199B5B79147639AF9006319340397F58B
:103E3400FF1F83D5E540A115E5B793070010639FE5
:103E4400F900A14763EC870097F5FF1F83D5453F31
:103E5400C115F9B79C5052856396470D2945B9BFE2
:103E64001D6A568B6371450B130A05E01947334AE3
:103E7400EA0217F7FF1F0357A73C97FAFF1F938A1D
:103E84006A3F330AEA023E9A83A74A0263954701CE
:103E940083A40A029DE49305E00417F5FF1F03556C
:103EA400253A97D0FF1FE7804055AA8445D9832738
:103EB4004B0397F5FF1F83D5A5382A868981528540
:103EC400829791451307A005898193972500A697AA
:103ED40083C627006393E60483D60700639C3603F6
:103EE40085058A052286A6954A8597D0FF1FE78017
:103EF400C09B83A70A02E38297EC268597D0FF1F15
:103F0400E780005E5DBD21677917E369A7F4330A92
:103F1400454185B783C5370045BF83A70A02E38FB0
:103F240097F2268597D0FF1FE780805B05BF97F740
:103F3400FF1F938727348C5395D191479306A0058F
:103F44008983139727002E9703462700E318D6F09A
:103F540003560700631C360185078A072286BE952F
:103F64004A8597D0FF1FE780409481BD834737007F
:103F7400C1BF97F7FF1F9387E72B984739C79C5F0B
:103F8400A9C705476313E504411122C417F4FF1FB1
:103F94001304442E105006C60DC6485097F5FF1F53
:103FA40083D5052A89818297085097D0FF1FE7801F
:103FB400205397F7FF1F23AF072C97F7FF1F23AD5D
:103FC400072CB2402244410182808280011117F7FC
:103FD400FF1F130727264EC68329870022CC26CA33
:103FE4004AC806CE52C456C2AA842E843289638B30
:103FF40009201C5FBA8A99EB2945F2406244D244F5
:104004004249B249224A924A056182805C5BEDD7FB
:104014009307F01F63EAA70E97F9FF1F9389892579
:1040240083A70902B1CB03A58A0083A7490263953C
:10403400A70689476393F408C147E31FF4FA17F509
:10404400FF1F0355E51F9147130505FC3345F50292
:104054009317250003A509022286CA853E95930776
:10406400A0052301F50023109500110597D0FF1F2B
:10407400E780A083014551B79305E00417F5FF1FBE
:104084000355051C97D0FF1FE780203797F7FF1FC4
:1040940023A2A72049F98DB783A74A0303A60902DF
:1040A40097F5FF1F83D5C5198981829783A78A0055
:1040B40017F7FF1F2322F71EADBF8D47639EF40041
:1040C400C147E31BF4F217F5FF1F035565171305EA
:1040D40045FD9377C5FFBDBF9147639AF400E31D87
:1040E40094F017F5FF1F0355A5152115DDB79307A8
:1040F4000010E393F4F0A147E3E087F017F5FF1F06
:10410400035505144115F1B79D676379F5069307C7
:1041140005E01947B3C7E70217F7FF1F0357471214
:1041240017FAFF1F130A0A15B387E702BE998327FC
:104134000A02A1CF83274A026399370703250A029B
:1041440091461308A0059305F00F93D72600139703
:1041540027002A9703462700631F06078358070092
:104164000346370063959806B306D64063CF8604AA
:1041740085078A072286CA853E95CDBD21677917B2
:10418400E36CA7E6B307F54041BF9305E00417F5D8
:10419400FF1F0355E50A97D0FF1FE780002697F716
:1041A400FF1F23A9A70E59F581BD83A74A03032640
:1041B4000A0297F5FF1F83D5A50889814E8582974A
:1041C40097F7FF1F23AA370D95BF2310B700931647
:1041D4000601C1829DBFB385860017F6FF1F0356F3
:1041E40026069105130606FCE368B6E013063400C0
:1041F400719A1106B2962301070123109700A301B7
:10420400D700BDB797F7FF1F9387C7069453BE899E
:10421400A9C203A5090291461308A0059305F00F4E
:1042240093D72600139727002A970346270063187D
:104234000605835807000346370063989800B306C1
:10424400D640E3D786F22310B70093160601C18245
:10425400C1BF8357C70017F5FF1F034585FE9305AC
:10426400E0043305F5024205418197D0FF1FE78042
:10427400C01897F7FF1F23AFA70041FDB5BB17F682
:10428400FF1F0356E6FB97F5FF1F83C585FBB38528
:10429400C502338686001106E3E0C5D681BF014519
:1042A4008280011106CE2EC6EF50203C01C9B245D2
:1042B400F2400355250005616F908072F240494534
:1042C40005618280A38E0188238E018823A2018840
:1042D40023A4018823A6018823A8018823A0018898
:1042E40023AE018697F7FF1F938747FE37068403A3
:1042F4003707B40090D337C6070098C3130606B82F
:104304003747A000D8C3D0D33707100041669306BF
:10431400070AB70550009308060194C723A417039E
:1043240093860501930816F8D4C723A61703B70686
:10433400D007B7087F001308070513850601410756
:1043440023A81703B0C393081600938606051386A3
:104354001500D8CBF8C323A8070188CF23AE0700E4
:1043640023AA170323AC070223AE070223A40704DE
:10437400F0C7B4CB23AA0704ACCF23AE0705B8D348
:104384003707A000F8D71307000AB8DB1307C01CCF
:10439400F8DB37071400B8DF0547F8DF130710F818
:1043A400E8D323A4070623A0E7088280011126CAC4
:1043B400AA84214522CC06CE2E8432C636C43AC203
:1043C400EFE0EFFD1DC9A24612473246930700FDF8
:1043D4002300F5009947A30095002301F50023036A
:1043E400D500A303E5002312C500AA8522856244F3
:1043F400F240D24405616FE07F89F2406244D244C6
:104404000561828023A2A188828023A4A18882805E
:1044140023A6A188828023A8A1888280011122CCAE
:104424004AC806CE26CA2A890144B30489006368AF
:10443400B400F2406244D2444249056182802EC6EF
:10444400EFE03F9E93170501C183A183B24523800A
:10445400F4009307140093F7F70F850463F9B7008A
:10446400CA9709042380A7001374F40F7DBF3E8408
:104474007DBFC16717F5FF1F0355E5EDFD17630405
:10448400F502411117F6FF1F034686F8938541890B
:1044940006C6EF40307CB240FD5717F7FF1F231CC0
:1044A400F7EA41018280828009C925151375F50F49
:1044B4001335850E134515008280014582802390B3
:1044C4000500C9C6797122D426D24ECE52CC5AC820
:1044D40006D64AD056CA5EC63684328AAE892A8B3C
:1044E400814463F34407B307940083C70700138927
:1044F40014004209939A070193DA0A011359090136
:1045040063840A04CA976341FA04B307240183CB82
:1045140007005E85513F0DC99387FAFF2390F90088
:1045240063906B03130519002295B25022549254E0
:104534000259F249624AD24A424BB24B45618280E7
:10454400D694C204C18071BF0145C5B701458280BC
:10455400411126C2AE8422C497F7FF1F23A4C7E0EB
:1045640097F7FF1F23AEB7DE97F7FF1F23A8A7DE39
:104574002A8441469305F00F26854AC006C605499C
:1045840097C0FF1FE78000486310250597F7FF1FBA
:10459400938707DC884BC145513541469305F00F9D
:1045A400228597C0FF1FE780E04585446318950284
:1045B400224497F7FF1F9387A7D9B2409244024938
:1045C400C847C145410199BD41468145268597C0EB
:1045D400FF1FE7802043E31225FD4DBF414681457F
:1045E400228597C0FF1FE780E041E30395FCB240BA
:1045F40022449244024941018280411122C426C2CC
:104604002E84AA8413060002814517F5FF1F1305A3
:1046140025D406C697C0FF1FE780403097F7FF1FD9
:10462400A38997D297F7FF1F238687DEEF90403D3B
:10463400854719C181474945B240224417F7FF1FF6
:104644002308F7D0924441018280814781CD19C962
:104654008547631BF50083C7550093E707FCA382D6
:10466400F50085473E85828089476317F50083C737
:10467400550093F7F703E5B70D478547E314E5FEC7
:1046840003C755001377F70313670704A382E500F4
:10469400D1BF81478DC105C103C755009306000CE6
:1046A40085471377070C6308D700930600048D47EA
:1046B4006303D70089473E858280411122C4005D8F
:1046C40006C626C21DC8AA84085009C597D0FF1F74
:1046D400E78000E1485009C597D0FF1FE78040E01C
:1046E400085409C597D0FF1FE78080DF228597D043
:1046F400FF1FE780E0DE23AC0402B2402244924470
:104704004101828009ED97F7FF1F83C787C417F51E
:10471400FF1F130565C581CB13854187828017F57B
:10472400FF1F130565C4828017F5FF1F034565C28B
:10473400828097F7FF1F9387A7C1C847828097F7A6
:10474400FF1F9387E7C0884B828097F7FF1F9387EB
:1047540027C0DC4B8843828097F7FF1F938747BFAE
:10476400D84B1C4385071CC317F5FF1F034575BEB3
:104774009307F00F6305F50091656FE03F88828031
:10478400011122CC06CE2E8432C6EF40507E9147D2
:10479400B245631FF500938701899C438DC303A32E
:1047A4000700630E030022856244F2400561028320
:1047B400938781889C4381C703A34700DDB7F240F8
:1047C4006244054505618280011122CC2A84035587
:1047D400450006CE26CA4AC84EC6EF4070582DC5BD
:1047E4002A89834405008349C500C13D4A85EF50A9
:1047F400E03103554400EF40D07283C7C189A9CB8F
:104804006398970483C5D1892685613C19E1238E79
:10481400018803554400EF4090759147631FF500EC
:104824000357440097F7FF1F83D7E7B26317F700D6
:10483400FD5717F7FF1F2310F7B2F2406244D2442A
:104844004249B2490561828081499304F00F75B7EA
:104854009307F00FE38FF4FA834664000356440091
:10486400034524004E87A685913665B779715EC6E7
:10487400AA8B2E8552CC56CA5AC806D622D426D222
:104884004AD04ECEAE8A328B368AEF40704D7DC10F
:10489400045D2A89E5C09C50614599C31305400312
:1048A4009C5481C751054205418163050A00710585
:1048B40042054181DC5081C75D0542054181EFE03D
:1048C4000FAE2A8445C96146814597C0FF1FE78022
:1048D400E00497F9FF1F83C969A26394090083491F
:1048E4000900930700FD2300F400A947A300740105
:1048F4002301F400230364018C5023125401130593
:10490400840191C908C47146930A440397C0FF1FE8
:10491400E780A0F956858C5491C948C45146930A3E
:10492400450197C0FF1FE78040F85685630C0A00D5
:1049340008C87146D285930AC50197C0FF1FE78056
:10494400C0F65685CC5099C548C85D4697C0FF1F30
:10495400E780A0F5A2854E85EFE04FB32254B25014
:104964009254F249624AD24A424BB24B4A850259A6
:104974004561A1B3B250225492540259F249624A99
:10498400D24A424BB24B4561828001114EC6AA897C
:104994002E854AC806CE22CC26CA2E89EF40503C2A
:1049A40021C997F4FF1F83C4649599E083440500EB
:1049B4001945EFE0CF9E2A8405CD8145194697C05D
:1049C400FF1FE780A0F5930700FD2300F400B9471B
:1049D400A30034012301F40023122401A2856244BC
:1049E400F2404249B2492685D24405616FE00FAADC
:1049F400F2406244D2444249B2490561828039712D
:104A04005ECEAA8B2E8526DA4ED652D456D25AD0F2
:104A140006DE22DC4AD8AE84328BB68A3A8ABE8954
:104A240042C6EF40F03321CD2A894145EFE02F976C
:104A34002A8431C54146814597C0FF1FE78000EEB7
:104A440017F5FF1F0345858B19E1034509009307FB
:104A540000FD2300F400BD472301F400B247A30086
:104A640074012312940023046401A3045401230554
:104A74004401A30534015CC4A285EFE02FA1F250E8
:104A84006254D2544259B259225A925A025BF24B9E
:104A940021618280797126D2AA8439454AD04ECECA
:104AA40006D622D42EC6B2893689EFE04F8F21C1B3
:104AB400B2459307000D2310F500B1472A84231251
:104AC400B5002301F500CE851905194697C0FF1FCF
:104AD400E780A0DD23062401A2852254B2500259A6
:104AE400F24913F5F40F925445616FE02F9AB250D6
:104AF400225492540259F2494561828017F7FF1FEC
:104B0400034737859307F00F630DF706411126C25B
:104B1400AA84394522C406C64AC0EFE04F882A84D5
:104B240039C9930700FD2300F500A3009500230174
:104B3400050097F5FF1F938525830D05194697C03A
:104B4400FF1FE78080D617F9FF1F13096980835779
:104B54008900A28517E5FF1F0345B57F2315F400DF
:104B6400834719002306F4002244B24092440249C8
:104B740041016FE0AF91B2402244924402494101A5
:104B84008280828001115AC02A8B314526CA4EC6C2
:104B940052C456C206CE22CC4AC8AE84B28A368AE1
:104BA400BA89EFD0DFFF35CD2A842685EF40501B2C
:104BB40011C50347C500A1476314F70417E9FF1F94
:104BC40003493979930700FD2300F4009D47A300AE
:104BD40064012301F40023129400231354012314C9
:104BE400440123153401A2856244F240D244B249FF
:104BF400224A924A024B4A85424905616FE00F8975
:104C040017F9FF1F03491981E31E0BFA9387419794
:104C14009C439C47C5DBCE865286D68526858297E3
:104C240055B7F2406244D2444249B249224A924AB8
:104C3400024B05618280011122CC2A84214506CED3
:104C44002EC6EFD0DFF521C1B245930700FD230046
:104C5400F500C5472301F50083C73500A301F5001E
:104C640083D745002312F50083C765002303F500AD
:104C740083C77500AA85A303F50022856244F24028
:104C840005616FE0AF80F240624405618280397152
:104C940062CC2A8C594526DA4AD84ED652D456D2FA
:104CA4005AD05ECE06DE22DCAE8432C636C4BA8B5F
:104CB4003E8BC28A468A8359010403494104EFD0DA
:104CC4001FEE25C93246930700FDA2462300F500D6
:104CD4009547A301C500A30085012301F5002A849B
:104CE40019461105A9C2B68597C0FF1FE780E0BB2E
:104CF40023066401230A2401231574012317540194
:104D04002318440123193401A2856254F2504259F4
:104D1400B259225A925A025BF24B624C2685D25403
:104D240021616FD0BFF6814597C0FF1FE78000BFA8
:104D3400C1B7F2506254D2544259B259225A925ACB
:104D4400025BF24B624C2161828097E7FF1F83C7AD
:104D540047608DCB4111AA8519461385418706C644
:104D640097C0FF1FE78060B49385418717E5FF1F55
:104D74000345255EEFF07F8DB240138541874101E5
:104D84006F8090480145828017E7FF1F0347775CD7
:104D94009307F00F6305F708411126C2AA84294539
:104DA40022C406C6EFD0BFDF2A8429C1930700FDC1
:104DB4002300F500A1472301F500A300950097E720
:104DC400FF1F9387E75883C7270093854187110501
:104DD400A30FF5FE194697C0FF1FE78000ADA2851B
:104DE40017E5FF1F0345F556EFD05FEA17E7FF1FEE
:104DF400034727568D47631FF7009387C1889C4359
:104E040091CB03A38700630703002244B24092447A
:104E140041010283B240224492444101828017E757
:104E2400FF1F034707538D47631AF7009387C18811
:104E34009C4389C703A38700E31D03FC8280797127
:104E440022D406D626D24AD04ECE52CC094455CDD1
:104E54002A89035505002E8A5144EF406070AA84C4
:104E64004DC597E7FF1F83C7E75AFD1793F7F70F61
:104E740005474944637BF7080347C500A14763140A
:104E8400F70063140A089C5C4544C1E3916593856B
:104E940045711305C00297C0FF1FE780005688DCE8
:104EA400AA894D443DC11306C002814597C0FF1F26
:104EB400E780C0A68357090093864900368523916D
:104EC400F90071469305490036C697C0FF1FE78075
:104ED400C09D89472380F90003C5C400B246035628
:104EE4000900611597E5FF1F83C585521335150029
:104EF400EF5030052A8463060A00D2852685EF40E8
:104F0400D06F01C42685EFF04FFB2285B2502254A6
:104F140092540259F249624A4561828097E7FF1F21
:104F240083C7474FFD1793F7F70F05476378F708D3
:104F3400894751C6011122CC26CA4AC84EC652C45A
:104F440006CEAA89368AB2842E89EF4060612A840B
:104F5400D14729C9485509C597C0FF1FE780405864
:104F6400F1452685EFD0DFF248D4CD4705CD834601
:104F7400C40021478147639FE600630D0A0003478D
:104F8400A5010356050193062501AA854E85EF4028
:104F9400506EAA8703474400630F09001367670034
:104FA4002302E400F2406244D2444249B249224A14
:104FB4003E850561828013674700DDB7C9473E859A
:104FC40082809307000463EBA70097E7FF1F938792
:104FD400E72F06053E9503550500828041657D1542
:104FE4008280011122CC2A842E8526CA06CEAE8464
:104FF400EF4000571DCDB7470F009387F7230945AE
:1050040063E4870281450A85414697C0FF1FE78014
:10501400E090A685231081000A8541802301810048
:10502400A3010100EF50805DF2406244D244056167
:1050340082804945D5BF97E7FF1F238CA73C828018
:105044006F50406A797152CC2A8A328522D426D292
:105054004AD04ECE56CA5AC85EC606D662C4AE8B75
:10506400B28A368BBA843E89C2894684EF40404F67
:1050740015C92A8C63140A0213774B008347450031
:1050840015CF93E727012302FC008DEC631C090272
:10509400639A090205E8ED9B2302FC00832B8C0331
:1050A400639F0B06B250225492540259F249624A49
:1050B400D24A424BB24B224C45618280F59B93E726
:1050C4000701D1B793E747002302FC0001CC1C4839
:1050D4004146A2852324FC0213058C0197B0FF1FCF
:1050E400E780A07C63910B02D5D80325CC0209C5C7
:1050F40097C0FF1FE780C03EF1452685EFD05FD9FA
:105104002326AC0261BFE30B09F80325CC0209C5D1
:1051140097C0FF1FE780C03CF1454A85C5B79DC4D1
:1051240083A70B0299EB916593853571714597C0FF
:10513400FF1FE780802C23A0AB0203A50B0219C537
:105144007146A68597B0FF1FE78020766388090221
:1051540083A74B0299EB9165938525715D4597C0B3
:10516400FF1FE780802923A2AB0203A54B0219C5C8
:105174005D46CE8597B0FF1FE78020731DC483A7CB
:105184008B0299EB916593851571514597C0FF1F6B
:10519400E780A02623A4AB0203A58B0219C55146C0
:1051A400A28597B0FF1FE78040702254B2509254FA
:1051B400F249B24B224CCA865A860259424BD685D2
:1051C4005285D24A624A45616FF04FEA011126CAFC
:1051D40052C406CE22CC4AC84EC62A8AAE84EF40B8
:1051E400203825C5AA893945EFD07F9B2A8431CD43
:1051F40017E9FF1F034989106314090003C9090053
:105204009307000D2310F400AD472301F4009385A8
:10521400690013053400194697B0FF1FE780E06862
:1052240093F71400858085882306F400A306940070
:1052340023154401A2856244F240D244B249224A71
:105244004A85424905616FD07FA4F2406244D2444A
:105254004249B249224A0561828001114EC652C4B4
:1052640056C206CE22CC26CA4AC8AA8A2E8AB28937
:10527400EF40002F2DCD2A891305C002EFD03F92B5
:105284002A8435C597E4FF1F83C4440799E0834407
:1052940009009307000D2310F400E9472301F400EB
:1052A4009305690013053400194697B0FF1FE78082
:1052B400C05FD285231554011305C400414697B03D
:1052C400FF1FE780805ECE851305C401414697B079
:1052D400FF1FE780805DA2856244F2404249B249E3
:1052E400224A924A2685D24405616FD03F9AF24001
:1052F4006244D2444249B249224A924A05618280B8
:105304009387C187884301CD411106C697C0FF1F0B
:10531400E780001DB24023AE018641018280828075
:10532400011106CE22CC26CA4AC82EC6EF4040231D
:1053340039CDB24517E9FF1F034949FCAA840CD5AE
:1053440063140900034905004145EFD05F852A84B1
:105354001DCD9307000D2310F500A5472301F5008B
:1053640083C75400938564001105A30FF5FE194605
:1053740097B0FF1FE78060539C54A285F2405CC441
:105384006244D2444A85424905616FD03F90F2405D
:105394006244D244424905618280797122D406D69E
:1053A4002A842EC6EF40C01B01CDB2452285230EB0
:1053B400B1006C08EF40F020B25022544561828065
:1053C4005145DDBF6F40A02FC1671387E7FF63948A
:1053D400E502938781889C4391EB49458280494546
:1053E400B2402244924402494101828003A307004F
:1053F400E30503FE0283411122C426C24AC006C645
:10540400FD172A892E84B2846395F50293878188D7
:105414009C4391CB9C4381CB829711E5238E2189B8
:10542400A38E918875BFA6854A85EFE09FE74DF965
:10543400F5B72E85EF40C0125DD1834705000D45B9
:10544400E39027FB22852244B2400249A685924478
:1054540041016F80E0589307000463E2A7064111FD
:10546400C16722C406C626C2FD172A840945638281
:10547400F502C547AE846313F4022E85EF80405DC8
:1054840017E5FF1F130585E406042A9423109400EE
:105494000145B24022449244410182809307A00313
:1054A4006316F4002E85EF802054D9BF9307B00310
:1054B400E318F4FC13F5F50FEF804053D1B7094519
:1054C4008280411106C622C426C217E4FF1F1304BA
:1054D40024E8AA84EFE01FDFEF208000EF10A06E25
:1054E400EF10C14A228581451306000297B0FF1FC1
:1054F400E780C042930700F02311F4007D5797E73B
:10550400FF1F9387E7F02381E7002380970023029E
:1055140004002244B24026859244954541016F20FF
:10552400D01B597193970501CAD086D6A2D4A6D2AE
:10553400CECED2CCD6CADAC8DEC6E2C4E6C2EAC04F
:105544006EDEC1872E8963D1075A17E5FF1F034515
:1055540025ECEFD0CFEB8964416A856A797B2A8494
:10556400938BD4007D1AA50A130CABFF1DE02165B3
:105574003345A900B650265496540659F649664A4E
:10558400D64A464BB64B264C964C064DF25D6561A9
:105594008280834704001307200A639DE7000355B4
:1055A400240097E9FF1F83C9D9DA2286D285EFF058
:1055B4002F9D59A21307100997E9FF1F83C969E5B5
:1055C4006398E7188347140015476390E702228520
:1055D400EFF08F9F2285EFD06FD717E5FF1F0345AC
:1055E40025E3EFD0CFE22A8451B73947639BE7180C
:1055F40003554400631B55050C4483CC0500639D8F
:105604000C00850591C9194617E5FF1F1305C5D57B
:1056140097B0FF1FE780602917E7FF1F034747D3B1
:1056240085476317F712638A0C0097E7FF1F2381EE
:1056340007D26685EFF08FCC71BF894717E7FF1F4C
:105644002308F7D0EF80003C71B793872400631AD6
:10565400F506832C8400638D0C0E83C70C008DE348
:1056640083C72C0003C71C00A207D98F17E7FF1FAD
:105674002314F7CE83C73C0017E7FF1FA30AF7CC18
:1056840017E7FF1F0347C7CC89476313F70C83C78A
:105694000C0081CB97E7FF1F238C07CA03C50C00BE
:1056A40051BF8D4797E5FF1F83C595CA17E5FF1FB7
:1056B400035585CA17E7FF1F230CF7C8EF20F00432
:1056C400F1BF938754006318F5001C4403C5070019
:1056D400EFF08FEB01B7B3078501C207C183114710
:1056E4006372F7049307ABFCAA97139707014183EE
:1056F400F14763F1E7029387B4006312F5049387DB
:1057040041889C43E38807EC9C43A285E38407EC2F
:1057140082971DA0B70700189387F770B3D7E700E7
:10572400858BB9CB9387C1889C43E38507EA9C4367
:10573400E38207EA22858297E31E05E811A893878E
:10574400C4006310F5021C4483C70700E38407E820
:105754009307F00FE380F9E8A2854E85EFD00FD3CD
:10576400ADBD9387E4006319F500938781889C435A
:10577400E38207E6DC4351BF93871404E301F5F8A1
:10578400C1BF3D476397E70403554400E30F75FD2C
:1057940093879401E30BF5FC93873401E31AF5FA3C
:1057A40097E7FF1F83D727BB639E470193878188B1
:1057B4009C43E38107E2DC43E38E07E0A285138583
:1057C4003401B9B7938701899C43E38507E09C437F
:1057D400E5B71307E003E39DE7F683472400054795
:1057E4006397E70E83476400938DC187F1E383A732
:1057F4000D00D5CB83CC0700A14903457400130DDC
:105804008400EA85EFE0FFE883474401A303A40092
:10581400835804010358E400035744002A860345CF
:1058240034003EC283572401EA86E6853EC0CE8713
:10583400EFF0EFC58347340095E7DD478358040153
:105844000358E40083467400835544003EC28357E2
:1058540024016A8705463EC06685CE87EF40400333
:10586400A301A40083A70D0081C71145EFF05FA930
:1058740003C5C189E30005D683C5D189EFE07FA2C2
:10588400E30A05D48346340093071003638AF600C1
:10589400035644004E8783C5C1893685EFE01FB1A6
:1058A400238E018805BB97ECFF1F83CC9CAAA9B764
:1058B4009387C1889C4397ECFF1F83CC9CA9914993
:1058C4008DDFDC439DDB8145014582973DB7294748
:1058D4006391E70C83476400138DC187C1E7832775
:1058E4000D00A5CF83CC0700A1490345740093069E
:1058F400840093772500D1C713761500930D4401D6
:10590400834704028358C4010358A4010357440085
:10591400034534003EC28357E401E6853EC0CE878A
:10592400EFF0EFB68347340095E7DD478358C401B1
:105934000358A40183467400835544003EC2835730
:10594400E4016E8705463EC06685CE87EF3050740D
:10595400A301A40083270D0001BF97ECFF1F83CC94
:105964005C9F59B79387C1889C4397ECFF1F83CCF6
:105974005C9E9149BDDBDC43ADDB814501458297EB
:10598400ADB7B68536CEEFE0DFD0F2462A86B68DC7
:1059940085BF0947639DE700938741889C43E38B58
:1059A40007C2DC43E38807C22285829725B12D47CD
:1059B4006399E700938741889C43E38D07C09C4724
:1059C400D5B70D476397E70022868D4503554400FC
:1059D400F9BE19476395E706930561021305103173
:1059E400EF1061002C1013052031EF00D17F035616
:1059F4006400835781020355440063E8C70083565B
:105A040084000357610263F7E60093050002EF8008
:105A14002003C9B66374E6002313E40063F4D700DB
:105A24002314F4000357C4008356A40003568400CF
:105A34008355640001488147EF80400061BE1D47E3
:105A4400E388E7D031476395E7002286B145BDBFBF
:105A540035476399E700938741889C43E38C07B6F5
:105A6400DC4789B739476396E7002285EF00D00306
:105A740095B63D476399E700938741889C43E38B40
:105A840007B49C4B05B741476396E7002285EF00B6
:105A9400900C89B645476396E7000145EF00701BFB
:105AA40015BE4947639EE7009387C1889C43E38101
:105AB40007CADC43E38E07C881450545829749B987
:105AC4004D47639DE7009387C1889C43E38207C8E1
:105AD400DC43E38F07C6A2850945CDB76147E39947
