:040000006F00905BA2
:100004000000000000000000E00000203007002095
:10001400A9BDF9F5E0000020000000000000000088
:10002400E0000020E00000200000000000000000CC
:100034000605002000000000CC0C00200000000099
:100044007C0D00207C0D00207C0D00207C0D002008
:100054007C0D0020E00000207C0D0020000000004A
:100064007C0D00207C0D00207C0D00207C0D0020E8
:100074007C0D00207C0D00207C0D00207C0D0020D8
:100084007C0D00207C0D00207C0D00207C0D0020C8
:10009400E0000020BA010020E0000020E000002081
:1000A400E0000020E0000020E0000020000000004C
:1000B400E0000020E0000020E0000020AE0400206A
:1000C400E0000020E0000020E0000020E00000202C
:1000D400E0000020E0000020E0000020E00000201C
:1000E4006F000000411122C406C6174400E0130447
:1000F400E4C82285972000E0E780408B1305803E0A
:10010400972000E0E780002FEDB7411122C406C616
:10011400174400E0130404C72285972000E0E78019
:10012400E08813050032972000E0E780A02CEDB7AB
:10013400411101468145174500E0130525C506C652
:1001440022C426C2971000E0E780E00B9717000056
:1001540023AEA7CA39C585450565974000E0E78009
:10016400208B89450565974000E0E780C094B7E798
:1001740000E03707020023A0E710971400009384DF
:10018400E4C8174400E0130424C18840FD559710C7
:1001940000E0E780200A2285972000E0E7800081C4
:1001A400EDB72244B2409244174500E01305C5BFA1
:1001B4004101171300E06700637F4111B717004046
:1001C40022C403D4C70906C64204418093173401EC
:1001D40063DB070097170000938747C38843971092
:1001E40000E0E780600EB7170040239E8708B24006
:1001F40022444101828097170000938767C1884396
:100204008280411122C42A8406C6EF003020971749
:10021400000023AF87BE2244B24041016F00D01FCB
:10022400971700009387C7BE9C43411106C68507F4
:1002340017170000232EF7BC29223C41FD173CC1AF
:1002440081E75C5D3CC11122B24041019DAA184185
:100254005C415CC398C348C108C182805C418CC3C3
:10026400DCC14CC188C182801C413385A740133551
:100274001500828083C7818085072384F180828072
:1002840083C78180FD172384F180828018415C41FB
:100294005CC398C348C108C182805C418CC3DCC183
:1002A4004CC188C1828018415C415CC398C348C179
:1002B40008C182801C413385A74013351500828014
:1002C400411122C406C6EF00701483D741832A84E7
:1002D400A1E7938701848843971000E0E780C07703
:1002E4001307F5FF931637009387412FB6978C4376
:1002F4009386018388429387C5FE630FF5002386A6
:10030400E18223A8F1829717000083C7A7B0710583
:10031400A10589EBEF00501222852244B24041012D
:100324006F00900FB12ACDBF5C418CC3DCC14CC1BE
:1003340088C1828018415C415CC398C348C108C12C
:1003440082809387018388438280011122CC26CA4C
:1003540006CEEF00B00B9387018380430547AA8440
:1003640083474403BD8B639DE70258481C4C6309D3
:10037400F702930544012E852EC66D3F834754032F
:10038400B2451385412F8E073E95793F2685EF00B0
:10039400B0083D37F2406244D24401450561828091
:1003A4002685EF007007FDB718415C415CC398C314
:1003B40048C108C182801C413385A740133515000C
:1003C4008280397126DA240006DE4AD852D456D205
:1003D4005AD05ECE22DC4ED626C626C4293DAA8B30
:1003E40037090080EF0090022A8A938A8184134996
:1003F400E9FF0D4B138581847D3F19CD5285EF00B4
:10040400B001F2506254D2544259B259225A925A0B
:10041400025BF24B2161828003A40A0048489309DD
:10042400C4FE3385AB40E36BA9FC4E85972000E006
:10043400E780A005834754FF13F7270001E7F99BE2
:10044400A30AF4FEA2474844C0C31CC01C4422C4EF
:1004540044C082974D33AA8B2685B13F41FD228546
:10046400A137834754FF13F73700E31567F9F99B66
:10047400A30AF4FE4E85972000E0E780A0099DBF03
:10048400938781859C4399E323A8A18423AAB184FB
:10049400854723ACF1841167B7E700E023A0E72088
:1004A40082801C413385A74013351500828037377D
:1004B4000040834747409946BD8B6381D70231474B
:1004C4006385E7001147639FE702411122C426C2F6
:1004D40006C6373400409384814319A883475740A4
:1004E4008280834584402685973000E0E78020178A
:1004F4008347A44093F7F70FEDF7B24022449244A8
:10050400410182808280BD33213BB7F700E023A202
:100514000700BD3373002030B7F707000111944B77
:1005240013078008F337078093F787083EC20F103C
:100534000000B717004013087005238007059305D2
:1005440080FA2380B7040F10000003C6B7041376A3
:10055400F60DA385C704238007041246732606807C
:100564000F1000001376050255CEF336078093F67C
:10057400860836C40F100000238007052380B704C3
:100584000F100000B70614007D89558D88C701003F
:1005940001000100010023800704A246F3A606809F
:1005A4000F10000073370780137787083AC60F10BF
:1005B4000000238007052380B7040F1000000F10EC
:1005C40000003727004093061005A303D78023803B
:1005D4000704B247F3A707800F10000093078008B1
:1005E400F3B7078093F787083ECE0F100000B717C4
:1005F4000040130770052380E704130780FA238063
:10060400E7040F10000003C7B70413670708A385A6
:10061400E70423800704F247F3A707800F100000C4
:10062400056182801376050459C2733607801376F8
:10063400860832C80F100000238007052380B70402
:100644000F10000037061400130606047D89518D2F
:1006540088C701000100010001002380070442460D
:10066400732606800F1000007337078013778708FE
:100674003ACA0F100000238007052380B7040F1027
:100684000000A54793F6F60F639EF600B7270040D7
:1006940013073005A383E780B717004023800704BE
:1006A400D2470DBFB727004013072005E5B77337BE
:1006B4000780137787083ACC0F10000023800705C2
:1006C4002380B7040F10000098471367070C98C7DE
:1006D40023800704E247FDBD01118146014681459F
:1006E400114506CE7D2A93078008F3B7078093F758
:1006F40087083EC60F100000B717004013077005A7
:100704002380E704130780FA2380E7040F10000016
:1007140003C76704136717002383E70423800704D0
:10072400B247F3A707800F100000F24005618280F2
:1007340041118146014681451145A52213078008D0
:10074400F337078093F787083EC40F100000B717EC
:100754000040130670052380C704930680FA2380A3
:10076400D7040F100000FD552396B7022380070419
:10077400A245F3A505800F10000073370780137797
:1007840087083AC60F1000002380C7042380D704CB
:100794000F10000003C76704136717002383E704DF
:1007A40023800704B247F3A707800F10000001A0BD
:1007B400BD473305F50201007D1575FD82804111A9
:1007C40022C426C206C6AA84014463179400B24018
:1007D400224492444101828005041305803E420470
:1007E400C13F4180DDB72303048015472303E48020
:1007F40001002302A480828083076480E3CE07FE85
:1008040023030480828083076480E3CE07FE0345CC
:100814004480828083076480E3CE07FE2302A480A1
:100824008280411126C44AC24EC006C61377F50B16
:10083400AD47AA892E8995446306F70019456537A3
:10084400653F8D444E854537FD59FD146398340149
:10085400B240A244124982494101828013550901E0
:100864001375F50F453F2209CDB7011126CC06CEED
:10087400B704080051371545BD37713769372AC6A3
:10088400A53F32459377150089EB13651500137561
:10089400F50FF240E24405618280FD14E9FC014554
:1008A400CDBF397126DC4ADA4ED852D656D45AD244
:1008B4005ED006DE62CE66CCB7E700E07D5783AA41
:1008C400070022C603AA470023A0E71823A2E718BB
:1008D400B7170040130770052380E704130780FA55
:1008E4002380E70483C74704930B75FFB684E207AC
:1008F40093FBFB0F8546AA892E8B3289372400404F
:10090400E187015763FA76016308D5008946130726
:1009140000026313D5000157D98F93F7F70FB71C63
:1009240000402382FC0411472303E4801305F00FE5
:100934005D3D094CD135636D7C11B7050700DA952F
:1009440037870700795563F2E504B3879500636E32
:10095400F702370B0800A94733EB65016399F906E1
:1009640089E48144513D26850DA0DA850945553D2C
:1009740005090345F9FFFD14050B693D81C493770F
:10098400FB0FFDF7DD3569FD7D55B71700401307F3
:1009940070052380E704130780FA2380E70403C764
:1009A4004704418B2382E704F250B7E700E023A019
:1009B400571123A24711E25432445259C259325AB0
:1009C400A25A125B825B724CE24C21618280A54781
:1009D4006395F90685691309F00FB3069900B3749A
:1009E4002B01B6941349F9FFB3749900856B3379DD
:1009F4006901416B9387F9FFB3F7270199E363FC1E
:100A0400340193D94900C147E3E637FF99BF05692B
:100A1400C1697D19D9B71305800D63886901130570
:100A240000026384790113051008CA85DD3B353D56
:100A340021DD4E99B3843441D9B7DA852D45D533B8
:100A4400CA94E30099F205097D3BA30FA9FED5BF23
:100A54009387F9FF93F7F70F6361FC0C83C71C04BA
:100A640013073008631FF70437070800636BEB04B0
:100A7400B3079B00B706100063F5D704334BEB00B4
:100A840089476393F9068980D549E38C04ECDA85B8
:100A94000945413B11090327C9FF91472320E480FD
:100AA40003076480E34E07FE23033481FD17EDFB47
:100AB400FD14110B81C49377FB0FE9FF7D3371F5AE
:100AC400E1B5B717004003C75704B7070800137709
:100AD400070219E3B78707007955E378FBEA330780
:100AE4009B00E3FFE7F855B58547E382F9F2DA8521
:100AF4002D45053B9389F4FFE38504E6293393F7F9
:100B0400390091EB832604800327090093074900E9
:100B1400E39AE6E43E89CE84F1BFB5476396F900D3
:100B24001305900BC93135BDB1471305B00AE38BEA
:100B3400F9FE99476391F904B7050800B365BB0052
:100B44002D45C53181448D4BA14975396396740196
:100B5400832704802320F9008504E39834FF832746
:100B6400048013172B01635507002312F900D5BB2A
:100B74002322F900FDB39D476399F90281451305CA
:100B8400B0044531BD442320090023220900FD5946
:100B94009D3993F77400CA9703C70700FD14398D74
:100BA4002380A700E39634FF6DBBA1476392F90449
:100BB4006D398144630D0B008D479304C0036308B2
:100BC400FB009304000563048B0193044004137534
:100BD400C507E30895D81945393139390545213117
:100BE40026850D3909453D314931E31C05D669BBDC
:100BF40091476399F90013056006F536F53E130530
:100C040090090DB7E38F09D4F154A9BB737504306F
:100C14000100010082800000731005308280000012
:100C240003210500B72200009382028873900230EA
:100C34006F0040050000000019712320250006C044
:100C440006C212C416C61AC81ECA22CC26CE2AD080
:100C54002ED232D436D63AD83EDA42DC46DECAC088
:100C6400CEC2D2C4D6C6DAC8DECAE2CCE6CEEAD058
:100C7400EED2F2D4F6D6FAD8FEDA03A105006F005C
:100C84006000000002457310153492402242B242C3
:100C94004243D2436244F244025592552256B2561C
:100CA4004257D2576258F25806499649264AB64ADC
:100CB400464BD64B664CF64C065D965D265EB65E9C
:100CC400465FD65F0961730020300000197106C2C7
:100CD40012C416C61AC81ECA22CC26CE2AD02ED2B8
:100CE40032D436D63AD83EDA42DC46DECAC0CEC268
:100CF400D2C4D6C6DAC8DECAE2CCE6CEEAD0EED298
:100D0400F2D4F6D6FAD8FEDA9305000273A0458031
:100D14001384818523200400732510342AC013848E
:100D24000185044023A0240013844185044003A1C9
:100D3400040002457310153492402242B2424243E9
:100D4400D2436244F244025592552256B256425757
:100D5400D2576258F25806499649264AB64A464B33
:100D6400D64B664CF64C065D965D265EB65E465FD7
:100D7400D65F09617300203000000000EFF08FCFD0
:100D8400F32520349395250017F5FFFF1305852CD3
:100D94003305B50003250500731001341761000005
:100DA400130141A6E700050073210034EFF04FCD95
:040DB4007300203078
:100DB800971100209381018517610020130101A478
:100DC8001305400097F5FF1F93854523170600205C
:100DD800130606FE63FCC5008322050023A0550008
:100DE8001305450093854500E3E8C5FE1745000057
:100DF800130545C297050020938585FB170600203B
:100E08001306460063FCC5008322050023A0550095
:100E18001305450093854500E3E8C5FE1705002046
:100E2800130545FE97250020938505C26378B50014
:100E38002320050013054500E36CB5FE9302F0017D
:100E4800739002BC9302100073904280B722000096
:100E5800938202807390023097F2FF1F9382021AE6
:100E680093E2320073905230970200009382022678
:100E780073901234730020303D432A876373C30292
:100E88009377F700BDEFADE5937606FF3D8ABA96F6
:100E98000CC34CC30CC74CC74107E36BD7FE11E228
:100EA8008280B306C3408A06970200009696678040
:100EB800A6002307B700A306B7002306B700A305BB
:100EC800B7002305B700A304B7002304B700A303A2
:100ED800B7002303B700A302B7002302B700A3019A
:100EE800B7002301B700A300B7002300B700828032
:100EF80093F5F50F93968500D58D93960501D58DBD
:100F080061B7939627009702000096968682E7803D
:100F180086FA9680C1171D8F3E96E374C3F8A5B76D
:100F280017350000130585E06F009027411106C6AC
:100F380022C4EF10A017138441A7D1481148930782
:100F4800002013874187814617F6FF1F13064619AD
:100F580097350000938505DC2285EF1080282285CF
:100F6800EF10804E1384C1CED1481148930700205A
:100F78001387C1AE814617F6FF1F1306C6189735AB
:100F880000009385A5D92285EF10A0252285EF10B2
:100F9800A04B138441F6D1481148930700201387CA
:100FA80041D6814617F6FF1F1306461897350000ED
:100FB800938545D72285EF10C0222285EF10C048BF
:100FC800EF102011B2402244014541018280634262
:100FD80005029307803E3347F5023365F502330572
:100FE800F5021305753E3345F5023307F7023A95C6
:100FF80082807D558280014582800145828001453D
:10100800828001458280411122C426C206C6174447
:1010180000001304E49E974400009384E49E6367F1
:101028009400B24022449244410182801C40110441
:101038008297F5B7411122C426C206C6174400009C
:101048001304849C974400009384849C63679400F1
:10105800B24022449244410182801C40110482978C
:10106800F5B7411106C6F937B2404101C1B5411182
:10107800D14709479306002001469705000093854C
:1010880085FE173500001305E5D206C6EF10601F70
:10109800B24041016F10403B411106C69700002045
:1010A800E78080B6EF20F00FEF007016EF10205A9F
:1010B800EF00B06E6D3FEF10205A4120EF00107125
:1010C800B240014541018280411106C6F137B24064
:1010D800014541018280011126CA06CE22CC4AC8A8
:1010E8004EC69384818397000020E780E0B19C403E
:1010F8002A89639C97006244F240D2444249B2492B
:101108000561170300206700E3B08040228597F04F
:10111800FF1FE780801348489309C4FEEF00503F43
:101128004E85EF00105E4A8597000020E78080AE6C
:101138005DBF411106C64537FDBF411122C4138466
:10114800C1FD2285930800021D48930700201387DC
:1011580041058146170600001306E6FD9735000095
:101168009385C5C506C6EF10C00722852244B24044
:1011780041016F10602D011122CC2A842E8532C6C0
:101188002EC406CEEF10601B3246A24501CE85471D
:101198006307F600F2406244014505618280084019
:1011A8006315A400D105228501A803C75503834709
:1011B80015026378F700D10597F0FF1FE780C00993
:1011C800D1BF0841F1BF011126CAB2842E868945D4
:1011D80022CC06CE2A8436C6EF00F041B2469307E9
:1011E8004401231E94001CCC5CC8A304D400F24024
:1011F8006244D244014505618280011122CC2E84CB
:10120800AA85094506CE32C6EF00504911C93246B3
:10121800930745011CCD5CC9231E8500A304C500A6
:10122800F240624405618280011126CA06CEAA8472
:1012380022CC4AC82EC697000020E780E09C83D7BE
:10124800C40199CFFD17239EF40097000020E78082
:10125800609C0145F2406244D24442490561828063
:10126800B24799E797000020E780C09A7955DDB723
:101278002A8997F0FF1FE780800C2328050203C600
:101288009400AA852A8413854401F535B247635C26
:10129800F00093044404700081452685EF10E03384
:1012A8002685EF1060264A8597000020E780809603
:1012B80097F0FF1FE7808000085869BF011122CC12
:1012C80026CA06CE2A8497000020E780E093AA84E5
:1012D8001305440197F0FF1FE780C0F805E548486B
:1012E80005443115EF104011268597000020E7804E
:1012F800609201450DC82AC697F0FF1FE78000FCE1
:10130800324515A08357C40141677D176387E700FD
:101318008507231EF4000144C1BF268597000020DD
:10132800E780408F7555F2406244D244056182805F
:1013380003C581808280937808044111173F00001B
:10134800130F8FC263860800173F0000130F8FB773
:10135800937E080163870E001378E8FF9303000269
:1013680039A09378180093030003E38908FE937863
:101378002800638F0806635806023306C0409308A6
:10138800D0020A8E8142A94F6396F6073373D602BC
:101398003356D6027A93034303008502050EA30F42
:1013A8006EFE7DF215A0137348009308B002631710
:1013B800030093788800B3381001960879F29306F1
:1013C80000032300D1008542968663D3F200BE86CF
:1013D80013781801158F6313080463850800635395
:1013E800E0007D172A863303E500130E000221A8CA
:1013F8008148E9B71373F600118269BF6374B600B8
:101408002300C60105063308C340E34900FF3A86B6
:101418006353070001467D173295118F63880800D2
:101428006374B500230015017D17050563870E0257
:10143800AA96130800031DA86374B600230076005B
:1014480005063388C840E34900FF3A86635307001E
:1014580001467D173295118FE1BF2A86B308E50052
:10146800CDB76374B5002300050105053386A64092
:10147800E3C9C2FEFD56FD126383D20099E7AA872D
:101488003306E5001308000205A06378B5003306AB
:101498005100034606002300C5000505E9BF63F4B3
:1014A800B700238007018507B306F640E349D0FE5D
:1014B8006353070001473A9541018280411122C4D4
:1014C80006C62A84B53519C523A68180B2402244B0
:1014D8004101828097F0FF1FE78060E675D500D94B
:1014E800F5B70D47AA876376C7009377350091C78C
:1014F800AA873E966397C706828093F7F50F1397DE
:101508008700D98F139707015D8FB308C500AA8795
:10151800BD463388F84063EB060393574600C1562F
:10152800B386D7029207AA970D4836963383C70029
:10153800BE86B308D3406362180313572600F156DA
:10154800B306D7020A07BA97369665B798C3D8C3C1
:1015580098C7C10723AEE7FE6DBF910623AEE6FE2E
:10156800C9BF8507A38FB7FE71B763F3A504B38618
:10157800C500637FD5029345F6FF8147FD17639346
:10158800F50082803387F600030807003387C70019
:101598002A9723000701DDB73387F5008306070084
:1015A8003307F50085072300D700E317F6FE82808E
:1015B8008147E5BF0DC6AA8785050387F5FF85071F
:1015C8009306F6FFA38FE7FE09EB3E968507639324
:1015D800C7008280A38F07FED5BF3686F1FE8280C2
:1015E80001476314E600814705A0B307E500838639
:1015F8000700B387E50083C70700B387F640E20713
:10160800E18799E30507F1FE3E858280AA87038773
:10161800070001E73385A74082808507CDBF797130
:101628005EC6AE8B56CA5AC806D622D426D24AD02F
:101638004ECE52CC62C4B30A75012A8BB68563F5C7
:10164800AA00934BF5FFFD5AC1645A851309B002ED
:1016580093090002130A3002FD1439A81307500237
:101668006383E704637455012300F50093071500AD
:101678003284130614003E8583070600E5F363866B
:101688000B006378553123000500B250225433050E
:10169800654192540259F249624AD24A424BB24BCE
:1016A800224C4561828001481307D002930600034B
:1016B80031A0639E2701136848002286830716001D
:1016C80013041600E397E7FE13680801FDB7639556
:1016D800370113688800D5B7639547011368080276
:1016E800E9BF6395D70013681800C1BF138707FDCA
:1016F800A54663E6E6040147A546A94839A033078D
:10170800170305043E97130707FD83070400138694
:1017180007FDE3F6C6FE030604009306E002FD5744
:10172800631FD60483071400254693061400938884
:1017380007FD6367160B8147A548294E3DA0930610
:10174800A0027D57E399D7FC984113042600910520
:10175800E35307FC3307E040136808016DBFB38704
:10176800C7038506B297938707FD03860600130310
:1017780006FDE3F668FE63D30700814736848306D7
:10178800040013068006814813F3B6FF6315C300EF
:1017980093F8F60F05040306040093069006630504
:1017A800D60663C7C606930680056309D61C63C5BB
:1017B800C60493075002630CF61A63765501930723
:1017C80050022300F5000307040093071500630B7C
:1017D800071A63F45701A300E5009307250051BDDC
:1017E8001306A0026397C7009C4193062400910545
:1017F80059B73684814761B7930630066301D60826
:1018080093064006E31BD6FA13682800A94699A058
:10181800930630076305D60C63C5C6029306F00627
:101828006304D61693060007E319D6F8FD56631528
:10183800D700136818002147138C4500C146904112
:1018480015A893065007E303D6FC13038007C14687
:10185800E31566F61306C006138C4500E381C8FE3F
:1018680013068006E39DC8FC904193752800639F8A
:101878000510658ED685C134AA87E285DDBB13784D
:10188800080163160802BA879306000231A0637440
:1018980055012300D5000505FD17E34AF0FE93071F
:1018A800F7FF6343E00005473387E7400507938662
:1018B8004500637555019C412300F5009307150009
:1018C8002A97930500023306F7406344C000B685A3
:1018D8004DB363F457012380B7008507EDB79041F6
:1018E8009388450009E617260000130666678146B7
:1018F8006387E600B305D6008385050091ED63553F
:10190800F00063D3D700BE8613780801631108027C
:10191800BA879305000209A88506D9BF63745501E3
:101928002300B5000505BA877D17E3C9F6FE814790
:10193800639DD700B307D5003E9793050002330691
:10194800F74063C0C602C6852DB3B305F50063F83A
:1019580055013308F60003080800238005018507B0
:10196800C1BF63F457012380B7008507C9BF6374FB
:1019780055012300C50093071500E5B9136808044D
:10198800C146C9BD7D14F5B1A146E9B542064186F7
:10199800D5B5A38F0AFED5B9938701818843828084
:1019A80039712ED232D436D62A8654109305F007D0
:1019B800138541253EDA36C606CE22CC26CA3AD849
:1019C80042DC46DEA93993870181AA86884311E95A
:1019D80013854125EF109070F2406244D244216192
:1019E80082808354A5013E8493E70404231DF500F7
:1019F8009307F00763F4D7009306F0071386412591
:101A08008145EF1090631C40239D9700F1B7411169
:101A1800172500001305454C06C659371725000041
:101A28001305454CB53F172500001305A54E17278C
:101A380000001307674D954605468D459537B2401A
:101A4800172500001305054F410199BF39C91377C0
:101A5800F50F972600009386E63611C7BA9603C598
:101A6800060005058280C167938707F0E98F89CB57
:101A780021851377F50F36970345070025058280E2
:101A8800B707FF00E98F89CB41859377F50FB697A4
:101A980003C5070045058280618136950345050029
:101AA800650582809387818198435C41BA97630872
:101AB800F50283D6270085E69386418194426380A8
:101AC800F6029386C18194426394F60023AEA18006
:101AD800D44354C1DC43B306E540BA9794C71445D0
:101AE800B307D7006301F50203D6270009EE138672
:101AF800C18110426314A60023AEF1805041D0C3C7
:101B08005C413E9714C78280938741828C43411180
:101B1800172500001305854606C659359387818227
:101B28008C43172500001305A5469D3D9387018228
:101B3800B2408C43172500001305C54641018DB5F9
:101B480013F7C5FFE1462E8663F5E60693073500D1
:101B5800F19B930687FE63EEF6041D8F930687FEBE
:101B680023A2D18223ACF1804111896606C65117A0
:101B7800938606EA94C3D8C323A40700BA9723AA76
:101B8800F180C966938606EA94C3D8C398C781468C
:101B98000546972500009385654A1385412DEFF08A
:101BA8008FE2938781819C43B24023AEF18041014B
:101BB8008280AA85172500001305C548D5B363049C
:101BC8000512938741824111984322C413043500BA
:101BD80026C206C67198BE840145636E870CB1475C
:101BE8006373F4003144FD551385412DEFF0CFE3C5
:101BF8009387C1819843938781818C438840B3063A
:101C0800B740B307854063E8F6001385412DEFF030
:101C1800EFEA01454DA0B384D50003D6240083A87C
:101C2800440061E23386D840130846FF636B880A94
:101C38001383018293878182032E03001303840197
:101C48009C43636F68061306C4003696096333889D
:101C5800C500130303EA232218012324D8002320F4
:101C680068008546D0C02391D400832648003105FA
:101C78006384A600AE9690C6B1073E9423A48182E1
:101C880063748E0023A081828967938707EA239073
:101C9800F400631C9700938741819443814703565E
:101CA800270015EA99C323AEE1801385412DEFF093
:101CB800EFE01385C400B24022449244410182807F
:101CC8008546B2972391D40023A4F182E37EFEFADD
:101CD80023A0F18255BFE307D7FC584385472E97C9
:101CE8007DBFC6860DB7014582803306B502011156
:101CF80022CC06CE328532C6D9352A8409C5324669
:101D08008145EFF00FFE2285F24062440561828032
:101D180055CD93878181984341114AC006C622C494
:101D280026C23E89636EE508938741819C436379A7
:101D3800F5082A84930445FFFD551385412DEFF0DE
:101D4800AFCE835764FF81CB035744FF89679387DE
:101D580007EA6301F7021725000013056529893191
:101D6800835644FF035664FFA68517250000130514
:101D7800E5293D318967938707EA231AF4FE93879B
:101D8800C1819C43231B04FE63F4F40023AE9180BD
:101D980093878182032784FF9C432685998F032795
:101DA80009003387E440BA9723A4F182E539224435
:101DB800B240924402491385412D41016FF00FD082
:101DC800B24022449244024941018280828097F6BF
:101DD800FF1F9386E6FD8147368715468C4263963A
:101DE800A50092073305F70082808507C106E397AF
:101DF800C7FE01458280011122CC2A842E8506CE99
:101E080026CA4AC84EC652C4AE89328AC9372A89F8
:101E1800712C83244900930749006394F404552CDA
:101E280093E909F823043401D28521462285EFF08D
:101E38006FF897F0FF1FE78020DD0327490093071D
:101E4800C400F2405CC358C42322F90004C86244A9
:101E5800D2444249B249224A056117F3FF1F67007D
:101E680063DB84405DBF411106C622C426C2230439
:101E780005002A8497F0FF1FE78000D9AA8413057C
:101E8800C40097E0FF1FE78020402244B240268527
:101E98009244410117F3FF1F6700C3D7011106CE13
:101EA80022CC26CA4AC84EC62E89AA890D37AA84CA
:101EB800484531332A8415CDD04481459104EFF04B
:101EC8004FE22146CA8523043401A3040400228575
:101ED800EFF04FEE97F0FF1FE78000D3984093078D
:101EE800C4005CC358C49CC004C897F0FF1FE780B7
:101EF80060D22285F2406244D2444249B249056127
:101F08008280411106C622C426C2230405002A8401
:101F180097F0FF1FE78040CFAA841305C40097E01D
:101F2800FF1FE7806036268597F0FF1FE78080CE89
:101F380022852244B24092444101D9BB0305850061
:101F48007D81828001114EC6AA892E8506CE22CCBB
:101F580026CA4AC8AD3D638C0900AA8401441DC144
:101F6800B122910403A90400631599009D2201443C
:101F780011A8130449FF2146CE852285EFF04FE6CC
:101F880011E9812A2285F2406244D2444249B24989
:101F98000561828003290900C1BF239A01829387C2
:101FA800412F13874133DCC39CC3A107E39DE7FEA0
:101FB8009D472386F18223A8018223A00184938769
:101FC800818323AEF18223ACF182828093870184DE
:101FD8008843411106C69D3C7D159317350013852E
:101FE800412F3E9508419307C5FE210523A8F1829C
:101FF80097F0FF1FE78080C201A0411106C622C4E6
:1020080026C22A8497F0FF1FE78000C08347440355
:10201800AA841385412FC19B93E71700230AF40272
:1020280083475403930544018E073E9597E0FF1FAD
:10203800E7806026138701841C5C14432244B24065
:10204800D58F268592441CC3410117F3FF1F6700F3
:1020580063BC411106C622C426C22A8497F0FF1F1A
:10206800E78080BAAA841305440197E0FF1FE78040
:102078004023834754031385412F8E073E9597E0ED
:10208800FF1FE780E02211C91C5C138701841843F5
:1020980093C7F7FFF98F23A0F1842244B240268525
:1020A8009244410117F3FF1F6700C3B6411106C6EA
:1020B80097F0FF1FE78040B51387418383570700D8
:1020C800B24085072310F700410117F3FF1F67008F
:1020D80063B4411106C697F0FF1FE780E0B283D7CB
:1020E8004183FD17C207C187239AF1826342F00238
:1020F800239A018297F0FF1FE780C0B1938701837D
:102108009C4389CFB240410117E3FF1F6700031BBF
:10211800B240410117F3FF1F6700C3AFB24041014E
:102128008280411122C426C22A8406C697F0FF1F66
:10213800E78080AD3C58AA8499C3228582972244BF
:10214800B24026859244410117F3FF1F670083AC14
:1021580041119387018322C4804306C626C297F0A3
:10216800FF1FE78060AAAA842285653F2285D535AE
:102178009147230AF40213054404812E22857D3BEE
:1021880085476311F5022285F93997E0FF1FE7803B
:10219800E0122244B24026859244410117F3FF1F02
:1021A800670043A793878183944313074401D8C2E8
:1021B80054C81CCC23ACE182C9BF411106C622C455
:1021C800F9571CD92A84510597E0FF1FE78040166C
:1021D800228525352244B240410117E3FF1F6700DD
:1021E800E30D797126D2B2842E86854506D622D48F
:1021F80042C82A8446C636CE3ACC3ECAED3E62472D
:10220800D247F2461306440118D410CC50C804D063
:1022180054D05CD43E863A8593053002EFF06FAC1B
:102228005C5410544C500850F1173E969706000025
:10223800938646F21D214248B24848CC230B04033A
:1022480013054404A30A0403232C0402232E1403B5
:102258002320140523280402230A04022328040641
:10226800232A0406A286A285814701471706000093
:102278001306E6F4112CB2502254925401454561DC
:102288008280011156C2AE8AAA85054522CC26CA8B
:102298004AC84EC652C406CE328AB684BA893E8926
:1022A800F53E2A8401C92685EFF07F9111ED22853C
:1022B800893901442285F2406244D2444249B249F4
:1022C800224A924A056182801307440118CC58C8F3
:1022D8002686232054032322440308D444D4930598
:1022E8003002EFF00FA05C5410544C500850F11716
:1022F8003E96970600009386E6E5852648CC230B94
:102308003403A30A3403232C0402232E240323209A
:10231800240523280402230A040223280406232A66
:10232800040681470147A28617060000130626E91E
:10233800A28513054404892AB5BF83474503054789
:10234800BD8B6393E704411106C622C426C22A84C2
:1023580097F0FF1FE780408BAA842285DD398347E9
:10236800440313054404C19B93E72700230AF4029E
:102378001D24268597F0FF1FE780C089B2402244BC
:1023880092440145410182807D558280011106CE2B
:1023980022CC26CA4AC82AC697F0FF1FE780C08603
:1023A8009387018380432A892285413F930444040B
:1023B80070008145268515242685B9224A8597F01F
:1023C800FF1FE780208597E0FF1FE78020EF185860
:1023D800F9576314F70023280402F2406244D244F8
:1023E800424901450561828055B7411106C6EFE0B3
:1023F8001FBEB240410159BF834745030947BD8B02
:102408006392E704411106C622C426C22A8497E0D3
:10241800FF1FE780607FAA841305440197E0FF1F30
:10242800E78000F113054404BD22268597E0FF1FCD
:10243800E780407E2285D136B2402244924401454D
:10244800410182807D558280411106C6834665031D
:1024580005473317D70018DD0947A30AD502230A11
:10246800E502593F97E0FF1FE78060ED09C597E057
:10247800FF1FE780A0E4B240014541018280510579
:1024880017E3FF1F670003F2011126CAB2842E86E4
:10249800A94522CC06CE2A8436C63AC43EC2EFF0FD
:1024A8009F959247B2462247F99BA304F4009307ED
:1024B800440144CC14D02324040258D01CCC5CC85A
:1024C800F2406244D24405618280411106C622C4AA
:1024D80026C22A8497E0FF1FE7800073AA8422851A
:1024E800793F834794002685F99BA304F40097E07D
:1024F800FF1FE78020722285EFF0FF96B24022444A
:102508009244014541018280411106C622C426C277
:102518002A8497E0FF1FE780206FAA8422858537E9
:1025280083479400F99BA304F40097E0FF1FE7801A
:1025380040CC5C50370600801346E6FF3E959387F3
:102548008184CC4308D49843639FF50293864184E1
:1025580094422685850623A2D1849306440154C358
:1025680058C894C31CCC8347940093E71700A3046E
:10257800F40097E0FF1FE780E069B24022449244EC
:10258800014541018280544B6305D500898EE37F64
:10259800D6FABA874DBF83479500858B8DCF4111F9
:1025A80006C622C426C22A8497E0FF1FE780C065BA
:1025B800AA842285E935834794002685F99BA304DC
:1025C800F40097E0FF1FE780E064B24022449244A1
:1025D8000145410182807D558280011122CC2EC6A1
:1025E80006CE2A8432C497E0FF1FE780E061B24537
:1025F800914763E1B70217270000130767A88A0508
:10260800BA959C412246BA9782875C501CC219A091
:102618001C425CD097E0FF1FE780C05FF240624435
:1026280001450561828083479400F59BA304F4006B
:10263800D5B78347940093E72700CDBF834794001D
:10264800858B99C38547D9B723200600E1B79387BF
:102658008184DCC39CC3828082801106719A2A8897
:1026680037C7ADDE130506F8AA871307F7EE631917
:10267800F6002322D6F82320B6FA232006F9828012
:1026880098C39107EDB7411117250000130505A65A
:1026980006C6EFF0EFB0B24001454101828001115A
:1026A80022CC004126CA4AC84EC606CEAA8417299B
:1026B80000001309A9F797290000938969F763199E
:1026C8009400F2406244D2444249B2490561828092
:1026D8009305C4FE4A85EFF0AFAC1C4063859700B4
:1026E8004E85EFF0EFAB0040D9BF411106C6EFF0C1
:1026F8000FB2B24001454101828001111725000047
:10270800130505A022CC4AC84EC652C406CE26CA16
:10271800EFF00FA99387C185804313890186972914
:1027280000009389299F172A0000130AEA9E83272D
:102738000900636BF400F2406244D2444249B24952
:10274800224A01450561828004400946CE852685D6
:10275800EF10005711C55040A6855285EFF04FA4E1
:102768003104F1B7DC4523A80500C1CB83C7850038
:10277800011122CC26CA06CE4AC84EC62A84AE8487
:1027880001459DCB83A90500014919E04E840549FF
:1027980097E0FF1FE7804047AA8663160902834730
:1027A800C4FF03C7840093F7F7F7638EE70097E049
:1027B800FF1FE78020460145F2406244D244424967
:1027C800B24905618280D040814700403E896384D8
:1027D80089021397270003A9C400329700C385070D
:1027E800E39527FF368597E0FF1FE780A042228503
:1027F80023A82401D1B70144F5B7014582804111CE
:1028080022C426C206C62544972400009384C4E146
:102818007D1411E4B240224492444101828026850D
:10282800EFF00F98F5B71971154586DECED6D2D4DC
:10283800D6D2DAD0DECEA2DCA6DACAD8EFF02FD90B
:10284800110595471726000013060695A1452ACEBF
:102858002302F1021725000013058594A147130AE6
:1028680001033ED452D002D6EFF08F93493F17258B
:10287800000013052595EFF0AF928149972A0000D3
:10288800938A8A97172B0000130B8B95972B0000C0
:10289800938BCB864E856C08F135AA890149B257CE
:1028A8006340F902E39809FEF6506654D654465937
:1028B800B659265A965A065BF64B0145096182803D
:1028C80093172900D297844397E0FF1FE780C0330E
:1028D8000347410283C7C4FF93F7F7F76388E7000C
:1028E80097E0FF1FE7800033050955BF97E0FF1FFA
:1028F800E780403213848400938644FF228536C6DD
:1029080097E0FF1FE780A0B903D7640183D744018C
:10291800B2462286014815E11042631DC4002146D3
:10292800A1455A85EFF0CF872285953B5E85EFF06C
:102938002F875DBF0508CDB705081042E31EC4FE0A
:102948002146A1455685EFF0AF8579BF59712545D8
:1029580086D6CAD0CECED2CCD6CADAC8DEC6A2D4E3
:10296800A6D2EFF0CFC61105A5471716000013062B
:10297800267CA1452AC6230AF10017150000130575
:10298800A57BA147930901023ECC4EC802CEEFF0C9
:102998002F81B535171500001305857CEFF04F80A2
:1029A8000149554A971A0000938A0A78171B0000B4
:1029B800130B4B7D971B0000938BCB6D4A856C00E6
:1029C80055332A890144F2476340F402E31809FEAB
:1029D800B650265496540659F649664AD64A464B86
:1029E800B64B01456561828093172400CE978443D6
:1029F80097E0FF1FE78040210347410183C7C4FFD9
:102A080093F7F7F76388E70097E0FF1FE7808020D8
:102A1800050455BF97E0FF1FE780C01F9C449386BD
:102A280044FF56876365FA008A07DE97984383C791
:102A380004012146A1455A85EFE09FF6D1BF1D71DB
:102A4800294586CECAC8CEC6D2C4D6C2DAC0A2CC60
:102A5800A6CAEFF0CFB71105A9471726000013063D
:102A6800E690A1452AC6230AF100172500001305A0
:102A78006590A147930901023ECC4EC802CEEFE013
:102A88003FF2B53B1725000013054591EFE05FF1D4
:102A98000149172A0000130AAA92972A0000938A6C
:102AA8006A94172B0000130B2B934A856C005D3931
:102AB8002A898144F24763CAF402E31809FE97D0D1
:102AC800FF1FE7800073AA8517250000130585926C
:102AD800EFE01FEDF6406644D6444649B649264A1B
:102AE800964A064B01452561828093972400CE972C
:102AF800804397E0FF1FE780201103474101834788
:102B0800C4FF93F7F7F76388E70097E0FF1FE780B4
:102B18006010850445B797E0FF1FE780A00F5C4C65
:102B2800184C5285930644FF2146A145EFE05FE724
:102B38008347D4FF5A85858B91E35685EFE05FE69E
:102B4800C9BF1171054586DFCAD9CED7D2D5D6D32C
:102B5800DAD1DECFA2DDA6DBE2CDE6CBEAC9EEC74D
:102B6800EFF0EFA61105854717160000130646700B
:102B7800A1452ACA230EF100171500001305C56FD9
:102B8800A147930981023ED04ECC02D2EFE05FE12B
:102B9800BD311715000013056572EFE07FE00149AC
:102BA800171A0000130A8A75854A130B3002971BFF
:102BB8000000938B2B794A854C086D362A8981440D
:102BC800130C4006894C114D925763C4F402E31468
:102BD80009FEFE506E54DE544E59BE592E5A9E5A66
:102BE8000E5BFE4B6E4CDE4C4E4DBE4D01451161E9
:102BF800828093972400CE97804397E0FF1FE78059
:102C0800A0000347C1018347C4FFAA8D93F7F7F7D4
:102C18006388E70097E0FF1FE780C0FF85046DB772
:102C2800930644FFB68513068007A80036C6EF0052
:102C380090796E8597E0FF1FE780C0FD03479402F7
:102C4800B24652852146A145EFE09FD583478402CD
:102C5800171500001305456BBD8B638A57031715BD
:102C680000001305256B63849703171500001305EF
:102C7800256B91CF171500001305456B6389A701D4
:102C88000D476398E700171500001305E56AEFE0A4
:102C98003FD14C4CAE8683C7060063826703105051
:102CA80008485C50B295B386D540B3868603585819
:102CB800898D5E85B3D6C602EFE09FCE85B78506BF
:102CC800D9BF1971094586DECED6D2D4D6D2DAD08C
:102CD800DECEA2DCA6DACAD8EFF06F8F11058947DD
:102CE800171600001306C652A1452ACE2302F10288
:102CF8001715000013058552A147130A01033ED496
:102D080052D002D6EFE0DFC9DD3C171500001305ED
:102D1800A552EFE0FFC88149971A0000938A4A54E8
:102D2800171B0000130BCB52971B0000938B0B3D16
:102D38004E856C08EFF01FA3AA898144B25763C07F
:102D4800F402E39709FEF6506654D6544659B6592C
:102D5800265A965A065BF64B01450961828093977D
:102D68002400D29703A9070097E0FF1FE780C0E976
:102D7800034741028347C9FF93F7F7F76388E700E2
:102D880097E0FF1FE78000E985044DBF97E0FF1F2C
:102D9800E78040E813048900930649FF228536C678
:102DA80097D0FF1FE780A06F03570901B24622861C
:102DB80081471DE11042631EC4002146A1455A8582
:102DC800EFE01FBE2285EFF09F8D5E85EFE05FBDCF
:102DD80065BF8507C5B785071042E31EC4FE2146B7
:102DE800A1455685EFE0DFBB45B701111725000067
:102DF8001305459B22CC4AC84EC652C406CE26CAE5
:102E0800EFE01FBA9387C18580431389018697290C
:102E180000009389E99A172A0000130AEA9A83277F
:102E280009006361F402171500001305252DEFE072
:102E38003FB7F2406244D2444249B249224A01456E
:102E48000561828004401946CE852685EF005067CB
:102E580019E55040938564005285EFE07FB4310452
:102E68007DBF411106C6F139B2400145410182805A
:102E7800411106C6EFE05FC9B240014541018280B9
:102E880005458280397122DC26DA06DE4AD84ED61C
:102E980052D456D25AD0AA842E84930600022547CB
:102EA8006307041A838704006386D70A6384E70AE2
:102EB800014913070002A546B38724018387070049
:102EC800638FE708638DD708631924099387C18541
:102ED80083A907009387018683AA0700172B0000A0
:102EE800130B0B8E63FF590703AA09001946DA85ED
:102EF8005285EF00F05C59E54A86A68513056A00FD
:102F0800EF00105C41E14A9A83076A00A5EF83A9A4
:102F18008900638809041306000281450A85EFD0F9
:102F2800BFF50A898A86A68701470145130800026A
:102F3800A548214313062002130EC0058385070008
:102F480063840501639715056310E404A1476304CE
:102F5800F50475A085047D14A1B70509B1BFE31771
:102F680009F6A687038707001377F7FD79EF17257A
:102F780000001305A58123800700A685EFE05FA266
:102F88007D55B1A0B109B9BF2380070005078507A2
:102F980075B763186504171500001305E57CEFE0A5
:102FA8003FA00010971400009384047E8325090035
:102FB80026851109EFE0DF9EE31A89FE1715000048
:102FC8001305C513EFE0DF9D21458A858299F250EC
:102FD8006254D2544259B259225A925A025B216120
:102FE8008280637E870005056392C504850705070F
:102FF8009CC2838507006381C5026364870071F5FD
:103008008DB7838E17006396C5016394CE0085073C
:10301800050785070507F1BFE37387FE23800700CF
:10302800050785079106E36B87F0D1BF9CC28385AE
:1030380007006389050163871501E302E4FC85073E
:103048000507F5B7E36087FE5DBF850721BF01452A
:10305800BDBF8307050081E78145014579B37971D3
:103068009387C18552CC03AA070026D24AD04ECEF8
:1030780056CA5AC85EC606D622D4AA8401498149CE
:10308800938A0186171B0000130B8B73971B000094
:10309800938B0B7483A70A006363FA02630209081F
:1030A8002254B250624AD24A424BB24B4E86CA852B
:1030B800F24902592685925445616FE0AFCF032447
:1030C8000A001946DA852285EF00903F21E126851E
:1030D800EF00F03D19042A86A2852685EF00503EB0
:1030E80015E5639709002285EF00703CAA892289BB
:1030F800CA8722870386070001EEB387274163D377
:103108003701BE89A2855E85EFE09F89310A59B7EC
:1031180083060700FDD2E312D6FE85070507D9BF4F
:10312800B250225492540259F249624AD24A424B4E
:10313800B24B45618280938701878843411106C657
:10314800EFE0CF97B2400145410182809717000018
:103158009387877C23AEF184972700009387078A9B
:1031680023A0F1869727000093874789411123A25E
:10317800F18693050008972700009387278805455F
:1031880023A4F18606C622C426C2EFE01FB623A8F0
:10319800A18611ED171500001305056FEFE05F809C
:1031A8007D542285B2402244924441018280A9473D
:1031B80019479306004001469705000093850513BB
:1031C800171500001305C56DEFF0AF8B1384018749
:1031D800AA84084081460146971500009385C56C6E
:1031E800EFD07FFE184001448347470293E727004A
:1031F8002302F702DDD42685EFF00FA55DB793878C
:1032080001879C4383C74702898B91E7238A013250
:103218001385413382809387C1868C43411106C64A
:1032280081CD1306000813854133EF00302CB240DE
:103238001385413341018280A131971500009385A0
:10324800656109E59715000093854561138541334C
:10325800EF00D024971500009385C560138541338E
:10326800EF00D021E9B7011106CE22CC26CA2AC622
:10327800C121B24519E96244F240D2441715000051
:103288001305855E05616FE0AFF1138401871C406B
:10329800AA84FC5F6385A70493053014692921E19A
:1032A8001C40E85F11C51D231C408145E85F5D2B6C
:1032B800004081451306000513055402EFD0DFBB1B
:1032C80064DC231B0406231C04066244F2402685A2
:1032D800D24497050000938545E6056161A3F24055
:1032E8006244D24405618280397122DC13840187EB
:1032F8001C4006DE26DA03C747024AD84ED652D407
:1033080056D25AD05ECE62CC136717002382E702EA
:10331800FC5F89E7EFE04FE811C1B137CD35EFE049
:103328002FE86D49A549130AF007971A0000938AF8
:10333800AA59171B0000130BAB589714000093846D
:1033480024571C40A3070100FC5F81EBF92BAA85D9
:103358000DA00840FD55EFD03FED1C4085461306F3
:10336800F100E85FFD556D218547E314F5FE8305FF
:10337800F100E3C805FC1C400547638B2501945305
:1033880005476390E6021307B0056395E500094712
:1033980098D345BF23A00702CDD56395350D014CC1
:1033A800BDA00946E39AC6FE23A007029386F5FB53
:1033B800E379D7F813074004639FE50083D78707AD
:1033C800C9D32685EFE0CFDD184083578707FD175F
:1033D800231CF706BDB713073004E39FE5FA03D5AE
:1033E800870703D76707E37EE5F43E958305550213
:1033F800171500001305054CEFE08FDA18408357C6
:1034080087078507F1B72685EFE08FD9050C832B51
:10341800040083D78B07E348FCFE1715000013054B
:10342800E5CDEFE0EFD7EFF0BFA58547938B5B02C3
:103438006314F5005E853139D9335E86AA85171580
:10344800000013056547EFE0AFD5832B0400138513
:103458005B02EF00D00542054181239BAB06239C0C
:10346800AB06C5B56385450121476392E50803D7D7
:103478008707E30807EC03D667077D1742077D1621
:10348800420641824183239BC706239CE706637655
:10349800C7049305670213055702198EBE953E951A
:1034A800EFE0AF8C1C405A8503D767073E97A3020D
:1034B800070283D5870793855502BE95EFE04FCE67
:1034C8001C4083DB87071C4083D76707E3CB77E77C
:1034D8002685EFE0EFCC850BFDB75685EFE04FCCA6
:1034E8001C4003D76707BA97A382070299BD3547DF
:1034F8006385E5002947639AE504EFF07F988547DF
:103508006314F5021C4083C74702858B99C71715BA
:1035180000001305A5BEEFE0AFC808408355650756
:1035280013055502EFF01F96D939EFE06FC7832BCB
:10353800040013060005814513855B02EFD0DF9375
:10354800239B0B06239C0B06EDBB83D6670713074B
:10355800F0046374D700239B070603D6870703D7B5
:103568006707939B850193DB8B416373E60893059B
:10357800560213056602BE953306C7403E95EFD046
:10358800DFFE0C4083D785073387F500A302770356
:1035980003C74502058B11CB93875702BE951715B4
:1035A80000001305A508EFE0AFBF1C4083DB8707C9
:1035B8001C4083D7670763C8FB021C4003D7670713
:1035C80083D687070507420785064183239CD706CC
:1035D800239BE7069306F004E3F5E6D6239B07064C
:1035E800239C0706B9BB2685EFE08FBB850BC9B7BF
:1035F8003E97A302770383C74702858BDDDF171544
:1036080000001305252BEFE0AFB945BF719A2322BF
:1036180005000CC12314C50082805441139706018C
:10362800458313D61601630BC700B307E6406360F2
:10363800C70283178500B297998F11A813D706017F
:10364800058B858A81476384E600831785003E855C
:103658008280011122CC06CE2A842EC67D3F831794
:103668008400638AA7045C40B24513D717011C4045
:10367800BA972380B7005C408316840013D71701DC
:10368800FD166314D70213D70701058BC1761347BC
:103698001700FD164207F58FD98FBE07BD835CC0A2
:1036A8000545F2406244056182800507BE0746076A
:1036B800BD83D98FEDB70145EDB7011122CC06CEF8
:1036C8002A842EC6993F31C55840A1679386F7FFD3
:1036D80005831C40758F420741833E978347070047
:1036E800B2452380F500584003168400935717000D
:1036F800F58FC207C1837D166391C70293771700C0
:1037080093C71700799B5D8FC17785077D8F58C058
:103718000545F2406244056182808507F58FC2073E
:10372800C176C18385068607758FD98F5CC0CDB7F2
:10373800A5456FE03F8183578501011122CC06CE54
:1037480026CAC18B2A8485EF1C5585C72EC6829749
:10375800AA84B24519CD2A86A2851715000013053B
:10376800E516EFE0EFA3F24062442685D2440561F6
:1037780082808357840193E70701231CF400835751
:103788008401A18B91C78357A401E554A18BE1FF64
:103798005C548DC322858297AA840DE58357A401C2
:1037A80093E78700231DF4008347C4018507230E90
:1037B800F40055BF85679387F7F0FD8D231DB4008E
:1037C8008144E9BFE957E310F5FAC9BF8347C5014A
:1037D8008DCF4111FD1722C406C693F7F70F230EAC
:1037E800F5002A84014789EF1C5989E70147231D01
:1037F800040039A082972A8775D9E957E309F5FEAD
:10380800B24022443A85410182807D573A858280C0
:10381800411106C60347C50101EB7D55EFD01FCA0C
:10382800B24001454101828003234503630503003B
:10383800B240410102836955D5B7411106C6034715
:10384800C50101EB7D55EFD07FC7B240014541016D
:1038580082800323850363050300B240410102838C
:103868006955D5B70CD1014582804111130600086E
:103878009385813B1385814306C6493B3717004032
:103888008327870A85451305001093E7072023241B
:10389800F70A8D2A8D4513050020AD2271651305A1
:1038A8000520E924B73700401D472381E7400D472D
:1038B800A381E74013070004A380E7400547238757
:1038C800E74005459545D92CB240B7E700E03707F2
:1038D800000823A0E710014541018280411122C45C
:1038E80006C62A84EFD09FD2A28722952946373769
:1038F8000040A146B5456396A700B2402244410165
:103908008280038807006318C8000348B740E38E25
:1039180006FF2304B7400348B740E38E06FF03C8F9
:103928000700850723040741F9B701119305F10042
:103938001385814306CE513311C50305F100F240CA
:10394800056182802945EFE05FAA7D55CDBFB7E7C5
:1039580000E041572386E7402387E740056723A017
:10396800E710116723A0E710B7F700E023A00700CE
:1039780023A20700814694C70147D8C71306F5FF5D
:1039880090CB8146D4CB3D4798C30145828017E54B
:10399800FF1F1305650B828017F5FF1F1305C50A66
:1039A800828041111305800406C622C497D0FF1FE8
:1039B800E78040B6B7E700E039472388E70417D720
:1039C800FF1F1307673013671700B8D33147A38861
:1039D800E70417D7FF1F1307C7B213671700F8D3F9
:1039E800B1229307803E3355F5029537EFD0AFE10A
:1039F800793F2A845537AA8522852244B24041015D
:103A08006FE00F94914763EEB70217170000130792
:103A180067EF8A05BA959C41BA978287B717004025
:103A280003A7470B1345F5FF698F23AAE70A03A7E6
:103A3800070B698F23A8E70A03A7070A798D23A034
:103A4800A70A8280B717004083A6470B1347F5FFE4
:103A5800F98E23AAD70A83A6070B558D23A8A70A90
:103A680083A6070A758F23A0E70A8280B71700404C
:103A780003A7470B498F23AAE70A03A7070B134598
:103A8800F5FF45BFB717004083A6470B1347F5FF5F
:103A9800758F23AAE70A03A7070A598D4DB7B717E9
:103AA800004003A7470B498FEDB79317050105475A
:103AB800C1836382E5048DC10947638DE5040D4721
:103AC8006380E50637170040231EF7088356070969
:103AD800D58F2318F7088280371700400356470907
:103AE80093C6F7FFF18E231AD7088326C70A558D88
:103AF8002326A70AC1BF371700400356470993C6B4
:103B0800F7FFF18E231AD7088326870A558D2324B9
:103B1800A70A4DBF3717004083564709DD8EE1B726
:103B28003717004083564709DD8EE9BFB7170040B5
:103B38008847420541819377050491EB9377F50116
:103B48003755E801130505803345F50282809377E0
:103B5800050C130700046397E7009377F5013745D1
:103B68009C1CCDB72165130505D08280411122C464
:103B780006C62A84653F2947B307E502B2408D830C
:103B8800B3D7870222449507B3D7E70237370040F7
:103B9800C207C1832316F74041018280B73700402E
:103BA80003C7174019C9D98DA380B74003C7074079
:103BB800136787002380E740828093C5F5FFF98D5E
:103BC800A380B7408280B3C7A5008D8B3307C5009B
:103BD80081E78D4763EEC700AA876370E50A83C64D
:103BE800050085078505A38FD7FEE3EAE7FE8280F7
:103BF80093763500AA8791CA83C60500850785058F
:103C0800A38FD7FE93F63700FDB79376C7FF1386C9
:103C180006FE63F0C70683A3050083A2450083AFB1
:103C2800850003AFC50083AE050103AE450103A3BC
:103C3800850183A8C5019385450223A0770003A8C1
:103C4800C5FF23A2570023A4F70123A6E70123A851
:103C5800D70123AAC70123AC670023AE17019387B6
:103C6800470223AE07FF75B790419107910523AE30
:103C7800C7FEE3EBD7FEE3E4E7F68280AA8703C733
:103C880007009386170009EB850503C7F5FF85072D
:103C9800A38FE7FE75FB8280B687D5B7AA8703C7CF
:103CA800050085078505A38FE7FE75FB8280AA8737
:103CB800850703C7F7FF6DFF3385A7407D15828011
:103CC80005C67D160147B307E500B386E50083C73F
:103CD800070083C606006396D7006304C70005077C
:103CE800FDF33385D740828001458280AA8709CABF
:103CF800850503C7F5FF85077D16A38FE7FE65FBDE
:103D08003E966393C70082808507A38F07FED5BFC1
:103D18007461736B310000007461736B32000000D2
:103D28007461736B330000007468697320697320D1
:103D380061207465737420666F72206D73682E0A33
:103D480000000000746869732069732061206D7336
:103D580068207465737400005F5F636D645F6D73E2
:103D6800685F746573745F7072696E740000000038
:103D78007461736B310D0A007461736B320D0A0044
:103D88006770696F612073656D0000006770696F07
:103D9800612073656D206765740D0A0073656D2079
:103DA800637265617465206661696C65640D0A00FB
:103DB8006D61696E000000007469646C6500000044
:103DC80000000100020001000300010002000100E0
:103DD80004000100020001000300010002000100CC
:103DE80005000100020001000300010002000100BB
:103DF80004000100020001000300010002000100AC
:103E08000600010002000100030001000200010099
:103E1800040001000200010003000100020001008B
:103E2800050001000200010003000100020001007A
:103E3800040001000200010003000100020001006B
:103E48000700010002000100030001000200010058
:103E5800040001000200010003000100020001004B
:103E6800050001000200010003000100020001003A
:103E7800040001000200010003000100020001002B
:103E88000600010002000100030001000200010019
:103E9800040001000200010003000100020001000B
:103EA80005000100020001000300010002000100FA
:103EB80004000100020001000300010002000100EB
:103EC8003031323334353637383941424344454648
:103ED800000000000A205C207C202F0A000000005F
:103EE8002D205254202D20202020205468726561F6
:103EF80064204F7065726174696E672053797374BA
:103F0800656D0A0041756720313320323032350043
:103F1800202F207C205C202020202025642E256452
:103F28002E2564206275696C642025730A000000E0
:103F38002032303036202D203230323020436F701E
:103F48007972696768742062792072742D74687256
:103F5800656164207465616D0A000000284E554C47
:103F68004C29000030313233343536373839616204
:103F78006364656600000000746F74616C206D6591
:103F88006D6F72793A2025640A00000075736564C4
:103F9800206D656D6F7279203A2025640A00000053
:103FA8006D6178696D756D20616C6C6F63617465A6
:103FB80064206D656D6F72793A2025640A000000EF
:103FC8006C697374206D656D6F72792075736167A4
:103FD8006520696E666F726D6174696F6E000000AE
:103FE8006C6973745F6D656D00000000746F206606
:103FF8007265652061206261642064617461206279
:104008006C6F636B3A0A00006D656D3A2030782555
:104018003038782C207573656420666C61673A20A7
:1040280025642C206D6167696320636F64653A209D
:104038003078253034780A00686561700000000027
:104048006D656D20696E69742C206572726F7220BF
:10405800626567696E206164647265737320307885
:1040680025782C20616E6420656E6420616464721A
:1040780065737320307825780A00000094E5FFFF07
:104088008EE5FFFFAAE5FFFFB6E5FFFFC0E5FFFFEE
:10409800384600004C4600005C46000070460000B0
:1040A8007C460000884600008C4600009C460000C4
:1040B800AC460000B4460000C8460000D8460000E0
:1040C800E0460000EC460000F84600000C470000FF
:1040D8001447000024470000344700004C47000004
:1040E8005C4700002C41000048656C6C6F205254FE
:1040F8002D546872656164210A0000002D2D4675F3
:104108006E6374696F6E204C6973743A0A0000001C
:104118005F5F0000252D313673202D2D2025730A71
:1041280000000000556E6B6E6F776E0064657669EF
:1041380063650000252D2A2E7320202020202020B2
:1041480020207479706520202020202020202072D3
:10415800656620636F756E740A000000202D2D2D92
:104168002D2D2D2D2D2D2D2D2D2D2D2D2D2D2D2D77
:104178002D202D2D2D2D2D2D2D2D2D2D0A0000001E
:10418800252D2A2E2A7320252D32307320252D38EF
:10419800640A00006D61696C626F7800252D2A2E13
:1041A8007320656E7472792073697A6520737573EC
:1041B80070656E64207468726561640A00000000AE
:1041C800202D2D2D2D20202D2D2D2D202D2D2D2D4B
:1041D8002D2D2D2D2D2D2D2D2D2D0A00252D2A2E61
:1041E8002A73202530346420202530346420256447
:1041F8003A000000252D2A2E2A7320253034642009
:1042080020253034642025640A00000073656D6140
:1042180070686F7265000000252D2A2E73207620A5
:10422800202073757370656E6420746872656164AC
:104238000A000000202D2D2D202D2D2D2D2D2D2D6A
:104248002D2D2D2D2D2D2D0A00000000252D2A2E77
:104258002A7320253033642025643A00252D2A2E20
:104268002A7320253033642025640A007468726537
:1042780061640000252D2A2E732070726920207336
:1042880074617475732020202020207370202020F2
:104298002020737461636B2073697A65206D61787F
:1042A8002075736564206C656674207469636B207F
:1042B800206572726F720A00202D2D2D20202D2D61
:1042C8002D2D2D2D2D202D2D2D2D2D2D2D2D2D2D23
:1042D800202D2D2D2D2D2D2D2D2D2D20202D2D2D2D
:1042E8002D2D2D20202D2D2D2D2D2D2D2D2D2D201D
:1042F8002D2D2D0A00000000252D2A2E2A73202599
:104308003364200020726561647920200000000079
:104318002073757370656E640000000020696E6913
:10432800742020200000000020636C6F736520203B
:10433800000000002072756E6E696E670000000054
:10434800203078253038782030782530387820208B
:10435800202025303264252520202030782530384B
:104368007820253033640A0074696D657200000096
:10437800252D2A2E732020706572696F6469632069
:10438800202074696D656F757420202020202020FE
:10439800666C61670A000000202D2D2D2D2D2D2D16
:1043A8002D2D2D202D2D2D2D2D2D2D2D2D2D202D4F
:1043B8002D2D2D2D2D2D2D2D2D2D0A00252D2A2E7F
:1043C8002A732030782530387820307825303878AE
:1043D800200000006163746976617465640A0000F6
:1043E80064656163746976617465640A000000003D
:1043F80063757272656E74207469636B3A307825E0
:104408003038780A000000006C69737420616C6CA5
:104418002073796D626F6C20696E2073797374658F
:104428006D0000006C697374000000006C6973749F
:104438002064657669636520696E20737973746595
:104448006D0000005F5F636D645F6C6973745F6427
:1044580065766963650000006C697374206465762D
:1044680069636520696E2073797374656D00000057
:104478006C6973745F646576696365006C697374ED
:104488002074696D657220696E2073797374656D27
:10449800000000005F5F636D645F6C6973745F7434
:1044A800696D6572000000006C6973742074696D31
:1044B800657220696E2073797374656D0000000061
:1044C8006C6973745F74696D657200006C697374EC
:1044D800206D61696C20626F7820696E2073797332
:1044E80074656D005F5F636D645F6C6973745F6DA5
:1044F80061696C626F7800006C697374206D616922
:104508006C20626F7820696E2073797374656D0012
:104518006C6973745F6D61696C626F78000000008C
:104528006C6973742073656D6170686F726520695A
:104538006E2073797374656D000000005F5F636DB2
:10454800645F6C6973745F73656D00006C69737484
:104558002073656D6170686F726520696E2073796C
:104568007374656D000000006C6973745F73656D2A
:10457800000000006C6973742074687265616400DF
:104588005F5F636D645F6C6973745F7468726561A3
:10459800640000006C69737420746872656164005B
:1045A8006C6973745F7468726561640073686F77AF
:1045B8002052542D5468726561642076657273695F
:1045C8006F6E20696E666F726D6174696F6E000040
:1045D8005F5F636D645F76657273696F6E0000007C
:1045E80073686F772052542D546872656164207621
:1045F800657273696F6E20696E666F726D6174693A
:104608006F6E000076657273696F6E007361792052
:1046180068656C6C6F20776F726C640068656C6C91
:104628006F0000002D000000257300002F0000001F
:104638004368617261637465722044657669636575
:1046480000000000426C6F636B2044657669636507
:10465800000000004E6574776F726B20496E7465B8
:1046680072666163650000004D54442044657669B4
:104678006365000043414E20446576696365000028
:1046880052544300536F756E6420446576696365C0
:1046980000000000477261706869632044657669AC
:1046A8006365000049324320427573005553422028
:1046B800536C617665204465766963650000000087
:1046C80055534220486F73742042757300000000F0
:1046D8005350492042757300535049204465766908
:1046E800636500005344494F204275730000000081
:1046F800504D2050736575646F2044657669636515
:10470800000000005069706500000000506F72746E
:10471800616C2044657669636500000054696D65C5
:104728007220446576696365000000004D69736313
:10473800656C6C616E656F75732044657669636539
:104748000000000053656E736F72204465766963DC
:1047580065000000546F7563682044657669636579
:1047680000000000546F6F206D616E7920617267E0
:10477800732021205765206F6E6C79205573653A38
:104788000A0000002573200025733A20636F6D6DC1
:10479800616E64206E6F7420666F756E642E0A00F9
:1047A80052542D546872656164207368656C6C207E
:1047B800636F6D6D616E64733A0A00005F5F636DCD
:1047C800645F0000252D313673202D2025730A00E3
:1047D80053686F7720746865206D656D6F727920F6
:1047E800757361676520696E2074686520737973D5
:1047F80074656D2E000000005F5F636D645F667214
:10480800656500004C69737420746872656164732F
:1048180020696E207468652073797374656D2E0045
:104828005F5F636D645F70730000000052542D5425
:104838006872656164207368656C6C2068656C706B
:104848002E0000005F5F636D645F68656C70000038
:104858006D7368200000000066696E7368200000B0
:104868003E00000066696E73683A2063616E206ED0
:104878006F742066696E64206465766963653A20A2
:1048880025730A006E6F206D656D6F727920666FF3
:1048980072207368656C6C0A0000000074736865A8
:1048A8006C6C00007368727800000000080000005B
:1048B8002563000025732573000000000825732078
:1048C8002008000008200800546F20696E69746988
:1048D800616C697A65206465766963653A25732039
:1048E8006661696C65642E20546865206572726F14
:1048F8007220636F64652069732025640A000000D4
:104908001CF1FFFF44F1FFFF6CF1FFFF84F1FFFF93
:104918009EF1FFFF603D00004C3D0000280F0000A5
:10492800E83F0000C83F0000101B00002C440000B6
:1049380010440000022700004C44000034440000EA
:104948005429000078440000604400005429000005
:104958009C44000084440000462A0000C84400002B
:10496800B0440000462A0000EC440000D444000093
:104978002E28000018450000004500002E280000E1
:104988004445000028450000CA2C0000704500007E
:1049980054450000CA2C0000884500007C450000F2
:1049A8004A2B0000A84500009C4500004A2B000047
:1049B800D8450000B4450000F22600000C4600006F
:1049C800E8450000F22600002446000014460000D6
:1049D8008E26000000480000D8470000782E00000E
:1049E800284800000C4800006A2E00004C480000CF
:1049F80034480000F22D0000FE0F000006100000F1
:104A0800723800000A100000543100000210000043
:104A180001000000B80D0020B80D0020780000004B
:104A280002000000C80D0020C80D00202000000072
:104A380005000000D80D0020D80D0020300000002F
:104A480009000000E80D0020E80D002044000000E7
:104A58000A000000F80D0020F80D00202C000000CE
:044A6800000000004A
:00000001FF
