:040000006F10506AC3
:10000400000000000000000090000020C202002058
:10001400A9BDF9F5780300200000000000000000ED
:100024007803002090000020000000000000000081
:10003400900000200000000090000020000000005C
:1000440090000020900000209000002090000020EC
:1000540090000020240800209000002000000000F0
:1000640090000020900000209000002090000020CC
:10007400DE0300209000002090000020900000206B
:1000840090000020900000209000002090000020AC
:1000940001A04111B7170040985F3AC6945F3247F8
:1000A400E39CE6FE324541018280B7F70700011167
:1000B400944B13078008F337078093F787083EC2F1
:1000C4000F100000B71700401308700523800705C0
:1000D400930580FA2380B7040F10000003C6B70409
:1000E4001376F60DA385C7042380070412467326EE
:1000F40006800F1000001376050255CEF3360780F4
:1001040093F6860836C40F10000023800705238069
:10011400B7040F100000B70614007D89558D88C7F9
:10012400010001000100010023800704A246F3A698
:1001340006800F10000073370780137787083AC6CC
:100144000F100000238007052380B7040F10000060
:100154000F1000003727004093061005A303D78033
:1001640023800704B247F3A707800F10000093070A
:100174008008F3B7078093F787083ECE0F1000007E
:10018400B7170040130770052380E704130780FAAC
:100194002380E7040F10000003C7B70413670708A0
:1001A400A385E70423800704F247F3A707800F1011
:1001B4000000056182801376050459C273360780F6
:1001C4001376860832C80F100000238007052380A9
:1001D400B7040F10000037061400130606047D89C7
:1001E400518D88C70100010001000100238007042C
:1001F4004246732606800F1000007337078013777A
:1002040087083ACA0F100000238007052380B7042B
:100214000F100000A54793F6F60F639EF600B7276C
:10022400004013073005A383E780B71700402380FD
:100234000704D2470DBFB727004013072005E5B7D1
:1002440073370780137787083ACC0F100000238098
:1002540007052380B7040F10000098471367070CA5
:1002640098C723800704E247FDBD0111814601467A
:100274008145114506CE912493078008F3B7078082
:1002840093F787083EC60F100000B7170040130706
:1002940070052380E704130780FA2380E7040F1016
:1002A400000003C76704136717002383E704238050
:1002B4000704B247F3A707800F100000F24005615E
:1002C400828041118146014681451145FD22130773
:1002D4008008F337078093F787083EC40F100000A7
:1002E400B7170040130670052380C704930680FAED
:1002F4002380D7040F100000FD552396B7022380F6
:100304000704A245F3A505800F100000733707808A
:10031400137787083AC60F1000002380C704238090
:10032400D7040F10000003C7670413671700238363
:10033400E70423800704B247F3A707800F100000E7
:1003440001A0BD473305F50201007D1575FD8280CE
:10035400411122C426C206C6AA840144631794002C
:10036400B240224492444101828005041305803E38
:100374004204C13F4180DDB79305000273A045806C
:1003840082457390153492402242B2424243D24392
:100394006244F244025592552256B2564257D257FD
:1003A4006258F25806499649264AB64A464BD64BF5
:1003B400664CF64C065D965D265EB65E465FD65F7D
:1003C4000961730020304111B7170040985F3AC6A5
:1003D400945F3247E39CE6FE324541018280B717C1
:1003E4000040130700032388E702854723ACF18804
:1003F40073002030411106C6EF00C07CF5BF230313
:10040400048015472303E48001002302A480828032
:1004140083076480E3CE07FE23030480828083077E
:100424006480E3CE07FE03454480828083076480B2
:10043400E3CE07FE2302A4808280411126C44AC26F
:100444004EC006C61377F50BAD47AA892E8995448D
:100454006306F70019456537653F8D444E8545377A
:10046400FD59FD1463983401B240A24412498249F3
:1004740041018280135509011375F50F453F220987
:10048400CDB7011126CC06CEB70408005137154567
:10049400BD37713769372AC6A53F324593771500B2
:1004A40089EB136515001375F50FF240E2440561FD
:1004B4008280FD14E9FC0145CDBF397126DC4ADA9E
:1004C4004ED852D656D45AD25ED006DE62CE66CC10
:1004D400B7E700E07D5783AA070022C603AA4700B6
:1004E40023A0E71823A2E718B717004013077005E5
:1004F4002380E704130780FA2380E70483C74704B3
:10050400930B75FFB684E20793FBFB0F8546AA891C
:100514002E8B328937240040E187015763FA760134
:100524006308D5008946130700026313D5000157F9
:10053400D98F93F7F70FB71C00402382FC041147AF
:100544002303E4801305F00F5D3D094CD135636D41
:100554007C11B7050700DA9537870700795563F2F0
:10056400E504B3879500636EF702370B0800A947CB
:1005740033EB65016399F90689E48144513D26858D
:100584000DA0DA850945553D05090345F9FFFD141C
:10059400050B693D81C49377FB0FFDF7DD3569FDDC
:1005A4007D55B7170040130770052380E704130730
:1005B40080FA2380E70403C74704418B2382E704BE
:1005C400F250B7E700E023A0571123A24711E254E9
:1005D40032445259C259325AA25A125B825B724C4B
:1005E400E24C21618280A5476395F9068569130968
:1005F400F00FB3069900B3742B01B6941349F9FFB5
:10060400B3749900856B33796901416B9387F9FF62
:10061400B3F7270199E363FC340193D94900C14737
:10062400E3E637FF99BF0569C1697D19D9B7130599
:10063400800D638869011305000263847901130541
:100644001008CA85DD3B353D21DD4E99B384344124
:10065400D9B7DA852D45D533CA94E30099F2050953
:100664007D3BA30FA9FED5BF9387F9FF93F7F70F3F
:100674006361FC0C83C71C0413073008631FF70471
:1006840037070800636BEB04B3079B00B706100041
:1006940063F5D704334BEB0089476393F9068980EC
:1006A400D549E38C04ECDA850945413B110903275C
:1006B400C9FF91472320E48003076480E34E07FECB
:1006C40023033481FD17EDFBFD14110B81C49377D3
:1006D400FB0FE9FF7D3371F5E1B5B717004003C7A0
:1006E4005704B70708001377070219E3B787070011
:1006F4007955E378FBEA33079B00E3FFE7F855B548
:100704008547E382F9F2DA852D45053B9389F4FFA9
:10071400E38504E6293393F7390091EB83260480BB
:100724000327090093074900E39AE6E43E89CE844F
:10073400F1BFB5476396F9001305900BC93135BD78
:10074400B1471305B00AE38BF9FE99476391F904A5
:10075400B7050800B365BB002D45C53181448D4BF9
:10076400A149753963967401832704802320F90015
:100774008504E39834FF8327048013172B01635502
:1007840007002312F900D5BB2322F900FDB39D47CE
:100794006399F90281451305B0044531BD44232012
:1007A400090023220900FD599D3993F77400CA9763
:1007B40003C70700FD14398D2380A700E39634FF97
:1007C4006DBBA1476392F9046D398144630D0B003D
:1007D4008D479304C0036308FB009304000563047E
:1007E4008B01930440041375C507E30895D8194594
:1007F400393139390545213126850D3909453D31D0
:100804004931E31C05D669BB91476399F900130587
:100814006006F536F53E130590090DB7E38F09D44C
:10082400F154A9BB197106C212C416C61AC81ECA4D
:1008340022CC26CE2AD02ED232D436D63AD83EDA9C
:1008440042DC46DECAC0CEC2D2C4D6C6DAC8DECACC
:10085400E2CCE6CEEAD0EED2F2D4F6D6FAD8FEDA7C
:10086400938501898841E700050092402242B24203
:100874004243D2436244F244025592552256B25640
:100884004257D2576258F25806499649264AB64A00
:10089400464BD64B664CF64C065D965D265EB65EC0
:1008A400465FD65F096173002030B7E700E09843E4
:1008B400B706200023A0D718758F0F10000001C5BC
:1008C40099C1814711E6B7E700E023A0E7108280D1
:1008D400B386F50003C80600B306F5008507238038
:1008E4000601E317F6FEC5B737E700E01C43B70679
:1008F40020002320D718F58F0F10000019C191C1D3
:1009040011E637E700E02320F7108280910503A762
:10091400C5FF11057D16232EE5FEDDB737E700E0A0
:100924001C43B70620002320D718F58F0F100000B2
:1009340001C53307C50011E637E700E02320F710AF
:1009440082800505A30FB5FEE31DE5FEF5B7B7E705
:1009540000E09843B706200023A0D718758F0F1026
:1009640000008147B306F5008386060099E6B7E6E2
:1009740000E023A0E6103E8582808507E5B737E7CF
:1009840000E01C43B70620002320D718F58F0F1072
:10099400000001C599C1014711EA37E700E02320AF
:1009A400F710054582800507E309E6FE3308E500F4
:1009B400B386E5000348080083C60600E305D8FEB5
:1009C40037E700E02320F7100145828037E700E095
:1009D4001C43B70620002320D718F58F0F10000002
:1009E4001307F6FFBA952A966317C50037E700E0A8
:1009F4002320F7108280FD1503C715000505A30FFA
:100A0400E5FEDDB737E700E01C43B70620002320EE
:100A1400D718F58F0F10000001C53307C50019E67C
:100A240037E700E02320F71001458280050583465F
:100A3400F5FFE397B6FEE31BE5FE37E700E023206E
:100A4400F7100545828079719387018D22D4804304
:100A540006D626D24AD04ECE52CC56CA5AC85EC604
:100A64004DCC37C9C901014B9389418C1309F9371E
:100A7400174A0000130A4A3E974A0000938ACA4163
:100A840097440000938484458357240085E35C44A1
:100A9400631B0B0023A8F18C832BC4002285EF1069
:100AA40020275E84A9A82326FB00FDB783A709009D
:100AB40082971C443307F5406375F500D8401D8FB9
:100AC4002A97636FE9069747000023AF073C8355D5
:100AD400240003450400973000E0E780C0505C40E8
:100AE4005844B9C70C44D040AE97BE8663E4B700FF
:100AF40063E4C700B386C74014C4228B3A8449F424
:100B040097470000938747399C4B09476371F7085F
:100B1400F917174700002329F738B250225492548A
:100B24000259F249624AD24A424BB24B4561828031
:100B340063150B0023A8E18C85B72326EB00A9BF1E
:100B440003274A021DCF63E1A7043385A7408347E7
:100B5400040085E317470000034777315917B307AB
:100B6400A7003E85D44063E4E70063E4D7003385FF
:100B7400D74083A70A016376F5009747000023A5B1
:100B8400A732228B4044A5BFD840BA977DBF974770
:100B9400000023AB073051B79387818C9C4381CFEE
:100BA400411106C6829783C7818D99E323A4018CE2
:100BB400B2404101828083C7818D81E723A4018CE7
:100BC40082808280411122C4174400001304442F00
:100BD4001C4006C626C24AC091C7829797470000A8
:100BE40023A0072E9747000083C75747858B1749D3
:100BF40000001309694691CF834779001947631DA3
:100C0400F70E97470000A38B0744EF00B05B5C44EA
:100C140082971C4491C382979384818B9840174692
:100C24000000034676279747000083C7E72693967C
:100C34001700BA9683D60600E9CE9747000083C70B
:100C4400A72563E2C70E97470000238707241C40AB
:100C5400639507149387418C9C43638007149747DB
:100C640000009387A727DC4317470000232EF722B1
:100C7400D93B9747000083C7D73E63900712974735
:100C8400000083C7F73D91CF8347790093F7F70FAF
:100C940089EB97470000A385073C977001E0E78044
:100CA400A055974700009387271BDC536387070EE3
:100CB400974700009387471E9C4BE5C38347790001
:100CC4001547636CF70C9747000083C7273E918B49
:100CD400E9E783C7818DF1E390409746000083C61E
:100CE400B61B63C2D70C2244B2409244024941016C
:100CF400174300E06700638D834779001D47E31ABB
:100D0400F7F097470000A38B0734EF00B04B1C4863
:100D140001B7850793F7F70F97460000238EF61661
:100D2400E3E3C7F019BF86073E97835507002310F6
:100D340007002390018C9387418D9C431745000045
:100D44000345851513172500BA979C43829783D7CB
:100D5400018C174700000347271493C7F7FF7D8DC5
:100D64009317170098403E97835707005D8D231013
:100D7400A7009747000083C7271291C78507174725
:100D84000000230BF710174700000347E7109747AD
:100D9400000083C77710E378F7EAB2402244924414
:100DA40002494101828013971700329703570700C5
:100DB4006DF785073DB737C700408326C720B707BF
:100DC400FCFFFD17F58F2326F7200100010097474C
:100DD40000009387670CC84F832787262326D720D4
:100DE4006A0593C7F7FF99835D8D82800327851178
:100DF40063000712411122C406C68347C500834518
:100E0400E5042A8493F7C70F2306F5008346970069
:100E14000356C70013958601618563F1C508635ABB
:100E240005060345870093F6F607A304D700054695
:100E340093E627006314C50093E617002306D40045
:100E44005C4389075CC3A30AB400032504112E86FE
:100E54004C430905993C8327841103465401D44328
:100E640003D7C700B296118FD4C32396E7008947EE
:100E7400A30DF400034764039747000083C7E7FE0C
:100E84006378F7048347C40093E707012306F4005B
:100E940081A093E717002306F40075B79376F60F45
:100EA400635D050203458700854513E62700631447
:100EB400B50013E617002306C400A30AD400A30454
:100EC40007008547A30DF400832784119C43DDF3B9
:100ED400B240224401454101828093E71700230672
:100EE400F400A30AD400A3040700032504114C430F
:100EF4000905653A8327841103465401D44303D773
:100F0400C700B296118FD4C32396E7008D475DBF07
:100F140005458280938741999C43411122C406C6AA
:100F2400858B2A84C5EF4165130525F5972001E0DB
:100F3400E780406F45C58347A5002315F500832747
:100F44000412BDE72320A4122322A41285472311EF
:100F5400F404232005008347640154412316F5005B
:100F64000347D4002304E5000547A304E50017471D
:100F740000001307670E58531385170215811C438D
:100F84007D151375F50F9CC25C43DCC21C479CC6DF
:100F94005C47DCC61C4B9CCA5C4BDCCA1C4F9CCE19
:100FA4005C4FDCCE19CD9386060213070702C1BF3E
:100FB4008327441288C3835724042322A412850759
:100FC40079B79747000083D767168507174700004E
:100FD400231EF714B2402244410182808347C40097
:100FE40023090400054593C747002306F400DDB731
:100FF4008347850193F7E70FC5EF83479501CDEB51
:10100400034625018346C50009CA8345650317477E
:101014000000034797E563E7E50013F7060151CBAA
:10102400014709C6C18A0357651C81C68356A51C9E
:10103400369741C31307C71217450000035585EAC5
:10104400B335A70237460F00411113060624814623
:1010540022C426C206C67D543305A702972002E0A7
:10106400E78080219747000083C777E0B384A70017
:10107400974700009387070B03A78709832707096E
:1010840063F387003E84184375FB9387418C9C432C
:10109400829781476364A400B307A440B24022440A
:1010A400B3B7970093C7170092443E8541018280ED
:1010B40081473E8582809387419B98433C5BFDFF3B
:1010C400010001008280011122CC4AC84EC606CE1E
:1010D40026CA52C456C25AC00347B50085472A845B
:1010E4002E8983290509631EF71E83570508035BB0
:1010F400C503974A000083DAEADE174A0000130AA0
:10110400EADD63F8671B834605016394E61A032747
:1011140085116310071A0327450A631C07188346C1
:10112400F5001D476397E6180355A503330BFB40F1
:101134009307204E330565038324440937460F0083
:101144008146130606243305F5029747000083C73A
:1011540007D2B3549502B3B5AA02BE94C204C180A7
:10116400231394083385AA02972002E0E780C01075
:10117400B307350133B5A7002E953E8783264A0071
:1011840019E163E4D7003387D740B3845403B746E7
:101194000F009387F623938606242320E900A6975D
:1011A400B3D7D702DA976360F7101D8F2320E900C5
:1011B4009389418C83A7090083240900829763E5FE
:1011C400A4123385A4406354050C83A709008297B5
:1011D400032709006361E512198D8357E403174758
:1011E4000000035727D08E07B387E70213070032A6
:1011F40093870719B3D7E70263E7A710374A0F00AD
:10120400130BFA23974A0000938A4ACD130A0A243F
:101214008357040485072310F4048347041499E3D3
:10122400228559222285971001E0E780A03475E9D0
:10123400832604098327C40803A74A00B6973E857A
:1012440063E4D70063E4E7003385E7408347F401B0
:10125400835464082328A4088507A30FF400974740
:10126400000083D727C8B384F402DA94B3D44403C8
:101274006368950CB304954083A709002320990063
:10128400829763E3A40C3385A440E34305F89747AE
:10129400000083C7D7BD63E7A7089747000023A3CF
:1012A40087F2014541A083264A00B387F6403E9762
:1012B400F5BD8354640837470F009307F723B384BD
:1012C4005403BE9493070724B3D7F40263E7F900E9
:1012D400B387F9402320F900E1BD03274A00BA99F6
:1012E400C5BF23A03501E9B597470000938707BF21
:1012F400DC43BE94F9B597470000938727BEDC43CF
:10130400998F3E95D9BDA1452285971001E0E780CC
:10131400401FA305A402974700009387E7B39C5B93
:1013240081EF7D55F2406244D2444249B249224A97
:10133400924A024B05618280894515458297D5B74B
:10134400B3049740AA940DBF83A74A00BE9425BF57
:1013540039C901116C0022CC06CE2A84AD331DCDCF
:10136400FD576302F502B2479745000083C535B0C7
:1013740063EFB70003459402B385B7402EC6973098
:1013840000E0E780E0DCF2406244056182801747B8
:1013940000001307A7B45843BA97E9BF972001E0A8
:1013A400E78080DACDB78280797126D206D622D43E
:1013B4004AD04ECE52CC56CA5AC85EC6834755034D
:1013C40003447513AA843E941374F40F93074002E4
:1013D40063F687001304B4FD1374F40F03AA841393
:1013E40083AAC413A38B841222865285D6859720A0
:1013F40002E0E78060A5058915E503CBD412014915
:101404008149337B6403930B50024A865285D68507
:10141400972002E0E78040A3058915C5639169031D
:101424001374F90F238B8412B2502254925402592C
:10143400F249624AD24A424BB24B456182808509E5
:10144400E20993D989410509E31179FDE1BF8327B5
:10145400850903560504797193D60701BD8EC2062A
:10146400C182358E1357764093575640898B058B2E
:101474005D8F93573640918B5D8F93571640A18BA8
:101484005D8F93171600C18B5D8F9317360093F70A
:1014940007025D8F931756009355860093F7070450
:1014A4001E065D8F1376F60F518F93D7554013D6D2
:1014B4003540118A898BD18F13D67540D18F13D6BD
:1014C4001540218AD18F13961500418AD18F139626
:1014D400350013760602D18F139655001376060451
:1014E4009E05D18F93F5F50FCD8FA20745465D8FED
:1014F4003307C70222D42A8426D252CC56CA032ADE
:101504008413832AC4135AC806D6369742074183E4
:1015140093577740135557400989858BC98F1355C5
:1015240037401189C98F135517402189C98F131565
:1015340017004189C98F1315370013750502C98F28
:101544001315570093558700137505041E07C98F9B
:101554001377F70FD98F13D5354013D75540118919
:10156400098B498F13D57540498F13D515402189AF
:10157400498F139515004189498F139535001375CB
:101584000502498F13955500137505049E05498F6F
:1015940093F5F50F4D8F2207D98FB387C7024AD031
:1015A4004ECE5EC662C4B697C207C18313D77740D6
:1015B40013D557400989058B498F13D537401189B5
:1015C400498F13D517402189498F139517004189F5
:1015D400498F1395370013750502498F13955700EA
:1015E40093D58700137505049E07498F93F7F70F6A
:1015F400D98F13D5354013D755401189098B498F9D
:1016040013D57540498F13D515402189498F1395FA
:1016140015004189498F1395350013750502498FCB
:1016240013955500137505049E05498F93F5F50F21
:101634004D8F2207D98FB387C702130650025285F4
:10164400D685B697BD8E93940601C18033F6C40245
:10165400137BF60F971002E0E780007F05890DEDFC
:101664008347D41201498149B3849702130C500271
:10167400C1804A865285D685971002E0E780C07CF7
:101684000589937BF90F11C563863403850993F9A2
:10169400F90F0509E31F89FD230B6413B25022548B
:1016A40092540259F249624AD24A424BB24B224CFA
:1016B400456182805E8BCDB7011197470000938707
:1016C40067A622CC03A4070C26CA06CE2AC42EC6BB
:1016D400854419E40145F2406244D24405618280A4
:1016E4008347910003471400858B6304F70000448B
:1016F400CDB719469305A10013052400EFF02FA8D8
:10170400E31795FE0545C1BFEFF00FC97300000054
:10171400000000009382818D038302002380020075
:10172400630F0300F32510342EC097050000938542
:10173400E5FD73901534EF00204A7300203086DCF9
:10174400EF008049E650828000001387C19A144359
:10175400411122C49C5E4AC006C6998326C2858B69
:101764003A841389819AD1C7930700069CDE1747F0
:1017740000000347C78E9307000897440000938432
:10178400A48D631BF700832709009C4393F7070488
:10179400174700002305F78C83C7040093F7070459
:1017A4008DC39387418C9C4382979747000023A362
:1017B400A78C83C7040093F7F70B17470000230D8A
:1017C400F78883C7440093F7070485E785471747DD
:1017D4000000A305F7889387419B9C4337070200C9
:1017E40098C7130700FC974600002389E6869848AB
:1017F400F8D318401C5F9183858B99CF1C5F93E7C6
:1018040007011CDF9387419B9C4323A2070685475E
:10181400174700002304F78483270900D84305836E
:10182400058B19C7D843759BD8C3D843799BD8C3B4
:10183400B240224492440249410182803937730004
:1018440020309317D50063D107029387419B9C43B3
:101854007D57B8D79737000093870764DC4F850717
:10186400173700002328F764937785008DCB9737CB
:10187400000083C7877E93E7170017370000230E05
:10188400F77C930700F8173700002309F77C938748
:10189400C19A98435C57F19B93E717005CD7937701
:1018A40015009DC39737000083C7177B93E7170084
:1018B40017370000A302F77A9387C19A98435C57BD
:1018C400F19B93E717005CD79377650085CB9377FB
:1018D40045001737000013072778CDC78347070053
:1018E40093E71700173700002308F7769387C19A08
:1018F40098435C57F19B93E717005CD79317F50067
:1019040063D407021747000003474789418B974771
:1019140000009387278141C383C7870793E70702A2
:1019240017470000230CF7869317E50063D50702D9
:101934009737000083C78772E207E18763D7070000
:10194400854717370000230BF7709387419B9C430F
:101954003707020098C79317C50063D407021747D7
:1019640000000347B783058B973700009387877B75
:1019740029C383C7970793E7270017470000A30FDE
:10198400F78082808347370093E7170017370000FA
:10199400A305F76CA1BF03C7870789463D8B63087E
:1019A400D70083C787070D47BD8BE39FE7F69147B1
:1019B40085BF03C79707118B69D783C7970793E739
:1019C400870065BF9387419B9443973700009387B3
:1019D400A76803C70700058B11CB97370000238F37
:1019E400076697370000A38B0766828003C717003A
:1019F400058B65F7F85271FF83C75700DDB713876E
:101A0400C19A03280700832788039583858BADEF4C
:101A140011C683270803BD832300F6009DC61C431B
:101A2400985B4607935767016356070093E707C01F
:101A3400C207C18303970600C207C18709C7BA97C3
:101A44000947B3C7E7022390F6008DCD83451500FF
:101A540095C99737000083C7876093F707041387F6
:101A64009500894585C33A958347050005479945FF
:101A740093F6F7066398E600E207E187814563D3AE
:101A84000700B9452E8582808545EDBF411126C2E8
:101A940006C622C49384419B2DED9440AE87F85230
:101AA4007DFF37F400E03E85973700002387075A0F
:101AB400832704D1B285ED9B2328F4D0832704D156
:101AC40093E787022328F4D073005010976001E055
:101AD400E780E05A9387C19A9C43B70680009843F5
:101AE400558F98C3D857719BD8D797370000A387D1
:101AF400075697370000A38107569C40094798C3AF
:101B0400832704D193E787002328F4D0730050106F
:101B140039A88D476313F5049387C19A9C43B7068C
:101B240080009843558F98C3D857719BD8D7944059
:101B3400173700001307475283472700858B89EB2B
:101B440083473700858BD1C7973700002388075018
:101B5400B24022449244410182808547E319F5FC56
:101B6400B7F700E003A707D16D9B23A8E7D003A72D
:101B740007D11367870223A8E7D073005010984059
:101B84008177FD175447F58F5CC70F10000098400C
:101B9400B70702001CC7930700F817360000230F8D
:101BA400F64A9387C19A9C439C439D83858B639F8C
:101BB400A700930760197CD354C737F700E0832745
:101BC40007D193E787002328F7D089B79307E01B51
:101BD400DDB7FC52B5F3ADBF9387419B9C43884767
:101BE400D847798D09C988C79387819B03A30700C8
:101BF40063030300028382809387419B9843896730
:101C0400938707F47CD39387019C9C4383A607099D
:101C1400139656006358060083A6070913966600B8
:101C2400634406007453FDF282804111B7E700E07B
:101C340022C480433707200006C6798C23A0E71806
:101C44000F10000011C199E5B7E700E023A0871049
:101C540001454DA893073500C207C183F19BC20714
:101C6400C183130740036365F702138701A5084383
:101C7400138781A414436390A60217370000130747
:101C8400A71D185B71D3C207DD8D054502976DBF93
:101C94001387C1A4E9BF035765002DEB0357450023
:101CA4006366F706B306F7402146637CD602032831
:101CB4000500938687001D8FAA96611717360000CA
:101CC4000356E61D2392E60023A006012393060093
:101CD40014C12312F500130786FF973600002390E2
:101CE400E61C2313B5009735000083D5451BB38745
:101CF400F540173700002314F71AB7E700E023A0D4
:101D040087102105B2402244410182800841A5B7D1
:101D1400B7E700E08C433707200023A0E718F98DCC
:101D24000F10000001E523A0B7108280938701A55E
:101D340003A30700938781A483A8070081469A8799
:101D440063FE170B03A80700636DF50A636BA80A0B
:101D5400138787006364E50A03D6670021670507D4
:101D64006317E60003C7019705072388E196173533
:101D740000001305651203D647000357650023933B
:101D84000700329742074183173E00002319EE10E3
:101D9400638A67021383C1A4032303006304F30269
:101DA40003D366006310030283D7460023A0060111
:101DB40021073E9621062392C60097370000239000
:101DC400E70EB6879843630B17039386C1A4944226
:101DD4006306D7028356670095E283D6470003560D
:101DE40047001843A106B2962392D70098C383579D
:101DF4006500A107173700002313F70AB7E700E0CF
:101E04001DB7BE86C2872DBF011197370000938787
:101E1400673122CC03A4870C26CA4AC84EC606CE14
:101E2400AA8413092500854915C083C714000347F4
:101E34003400858B6304F700405CFDB719469305B5
:101E440044004A85EFE0BFB3E31835FF2285F24032
:101E54006244D2444249B2490561828041119737B4
:101E640000009387272C22C403A4870C26C24AC0EF
:101E740006C693042500054901E82285B2402244A0
:101E84009244024941018280A6851305A402971059
:101E940002E0E780A0B0E30225FF405CF1BF000050
:101EA40097110020938141C41751002013014195DB
:101EB4001305400097E5FF1F93858514170600203E
:101EC400130606FE63FAC5008322050023A055000D
:101ED40011059105E3EAC5FE1735020013054553C4
:101EE400970500209385C5FB1386818663FAC50098
:101EF4008322050023A0550011059105E3EAC5FEE0
:101F04001385818697350020938545346377B50022
:101F1400232005001105E36DB5FEFD42739002BC5C
:101F24008D4273904280930280087390023097E24E
:101F3400FF1F9382E20C93E2320073905230972297
:101F44000000938242B673901234730020303D43F4
:101F54002A876373C3029377F700BDEFADE59376E9
:101F640006FF3D8ABA960CC34CC30CC74CC7410745
:101F7400E36BD7FE11E28280B306C3408A06970260
:101F8400000096966780A6002307B700A306B70053
:101F94002306B700A305B7002305B700A304B700C1
:101FA4002304B700A303B7002303B700A302B700B9
:101FB4002302B700A301B7002301B700A300B700B1
:101FC4002300B700828093F5F50F93968500D58D95
:101FD40093960501D58D61B793962700970200006B
:101FE40096968682E78086FA9680C1171D8F3E9664
:101FF400E374C3F8A5B7B717004003C77705137791
:10200400E70FA38BE704130700F8A38DE7043D470C
:10201400238CE70413075003A38CE70403C7A70525
:102024001377D70F238DE7048280B717004003C7C7
:10203400E7020D8941111377C70F498F9306800872
:10204400F3B6068093F6860836C60F100000930692
:1020540070052380D704930680FA2380D7040F10D9
:1020640000002387E70223800704B247F3A7078011
:102074000F1000004101828041112A83014E930E0A
:10208400407E130F0019930F400663E56E12930808
:10209400001913034006B3781503854E0D4FA14F65
:1020A400337365020D891335150063EFBE121308EF
:1020B400F6FF794672984208135808013307C7029D
:1020C40013D61700BE0732976146B3F6C60213064D
:1020D4008070B386C6023697A166F58F42075D8F7E
:1020E400B716004083C7F60293F70708A303F1006D
:1020F4000346710083C7F60293F70708E394C7FE0B
:1021040083477100B716004093F7F70F63880712EF
:1021140093078008F3B7078093F787083EC40F102E
:102124000000B7170040930670052380D704930678
:1021340080FA2380D7040F10000023AA070383C664
:10214400170393E60608A388D70223800704A2474F
:10215400F3A707800F1000001166B71700407D1623
:10216400D45BC85F93854703A98EF18EF5FA930675
:102174008008F3B6068093F6860836C60F10000072
:10218400930670052380D704930680FA2380D7042E
:102194000F10000098C103C7170313670704A3882F
:1021A400E70223800704B247F3A707800F1000005B
:1021B400410182807D133368E3039308E016630EC4
:1021C40008003368F3039308D01663080800937873
:1021D400330093B818009388D81633081E01131ED1
:1021E4000801135E0E0155B56393E5030548638644
:1021F40008000148630303002A8871087298FD15DA
:10220400131E0801C205135E0E01C18179BD13F8C6
:10221400150063F4BF007908D5B713381800E5BF7B
:1022240083C7F60293F70708A303F100034671007E
:1022340083C7F60293F70708E394C7FE8347710048
:1022440093F7F70FF1DFE9B531714AD966CB06DFB1
:1022540022DD26DB4ED752D556D35AD15ECF62CD7E
:102264006AC96EC7AA8C02D8EF0010122A89930794
:102274008008F3B7078093F787083EDA0F10000051
:10228400B7170040130770052380E704130780FA8B
:102294002380E7040F10000003C7F7021377770FBA
:1022A400A387E70203C7F70213678700A387E70240
:1022B40023800704D257F3A707800F1000000545B9
:1022C400AD33130780C13347E902116A93070AE863
:1022D40093065002BD69930BA004814A014B130479
:1022E4008008930470057D1AB347F9023307D702B7
:1022F4003EC0FD873ECC938709A69309803E3347B1
:10230400F7023AC27D873AC4334739038549B39902
:10231400990193D93940B306D702B30B7703B3C6F7
:10232400F602B3CBFB0236C6FD8636C893D6FB4114
:1023340036CEB7460F00938606243349D902856604
:10234400938606FAB3969601B389E902130760559A
:102354003309D90293060010B389E9023349D9023B
:10236400B3C9F9029316390036CA37190040FD86FD
:1023740036D0930D090493D7F9413ED2F336048045
:1023840093F6860836DC0F1000009307700523804F
:10239400FD00930680FA2380DD000F1000008346C1
:1023A400390593F6860FA309D9048346390593E6C4
:1023B4001600A309D90423800D00E256F3A6068073
:1023C4000F100000130C80FA116DF336048093F69D
:1023D400860836DE0F100000930770052380FD0089
:1023E40023808D010F10000083463905216693E692
:1023F4000602A309D90483560905B3E6A6012318E6
:10240400D90483560905D18E2318D90423800D00DD
:10241400F256F3A606800F1000008346390593F6A2
:1024240006026389061803463905218A6DDE0818F9
:10243400612F7336048013768608B2C20F10000031
:1024440023809D0023808D010F100000B7170040EA
:1024540003C637051376F60DA389C70403C63705EB
:1024640013660602A389C704835609052166B3E6E9
:10247400A6012318D90483560905D18E2318D9043B
:1024840023800D009646F3A606800F1000008346B5
:10249400390593F606026386061483463905A18A34
:1024A400EDFE97E0FF1FE780C0BEAA8636D497E012
:1024B400FF1FE78000BEA256E30AD5FE8356090536
:1024C4004255B3E6A6012318D904392F83463905AA
:1024D400A18AEDDE03560905834629058247337632
:1024E400CA00B306DA0293D5F641B296B388F64031
:1024F400E24733B8C6002E983308F840A247B3B673
:1025040016013308D84063C70701631DF8009247DA
:1025140063FA1701C247634DF80E63950701B2478A
:1025240063E8F80E894663E7660FF24693151800D0
:1025340013D3F8015E8613951800B365B30042D631
:1025440046D4EF0072153258050B137BFB0F63471B
:10255400000163120838A258638F08361308150067
:10256400B336A800B69513D6F5013298B336C80031
:10257400AE9613581800FE06B3E6060173360480BF
:1025840013768608B2C60F10000023809D002380B6
:102594008D010F1000000356C902B296C206C18213
:1025A4002316D90223800D00B646F3A606800F1029
:1025B400000021BDF336048093F68608B6C00F10E0
:1025C400000023809D0023808D010F1000008346AE
:1025D400390593E60602A309D90423800D00864633
:1025E4000DBDF336048093F68608B6C40F100000C0
:1025F40023809D0023808D010F1000008346390540
:1026040093E60602A309D90423800D00A646A5BDBE
:10261400E30D0BF0F336048093F68608B6C80F106A
:102624000000930680FA23809D002380DD000F10B4
:1026340000008346390593F5FC0F93F6860FA30932
:10264400D90483463905CD8EA309D90423800D000E
:10265400C646F3A606800F100000130580FA034651
:102664003905930639051D8A631496297336048047
:1026740013768608B2CC0F100000130680FA23806C
:102684009D002380CD000F10000003C606001376C2
:10269400F60D2380C60003C60600136606022380D7
:1026A400C600835609051166D18E2318D9048356B2
:1026B40009052166D18E2318D90423800D00E6462E
:1026C400F3A606800F100000130680FA834639052E
:1026D40093F606026388062483463905130C3905EC
:1026E400A18AFDDA0818CD21F336048093F6860812
:1026F400B6D00F100000930680FA23809D0023803B
:10270400DD000F10000083460C00116693F6F60DF1
:102714002300DC0083460C0093E606022300DC0061
:1027240083560905D18E2318D904835609052166D9
:10273400D18E2318D90423800D008656F3A6068073
:102744000F100000130680FA8346390593F606023B
:102754006385062083463905A18AEDFE97E0FF1FB5
:10276400E78020932A8C97E0FF1FE7808092E30C98
:1027740085FF8356090511664255D18E2318D90465
:10278400A5218346390513063905A18AFDDAF336F6
:10279400048093F68608B6D40F100000930680FADE
:1027A40023809D002380DD000F1000008346060077
:1027B40093F6F60D2300D60023800D00A656F3A64B
:1027C40006800F1000008356090503462905D247E9
:1027D400B376DA003306CA021305800C9355F6412A
:1027E4003696330DF6408257333CD6002E9C333652
:1027F400A601330CFC40330CCC40330885039256BD
:102804004E86B335A5033305A503C295EF00C26810
:1028140063468001631E0C16630C0D161306150027
:102824003335A6002E959356F5013696B335D6006A
:10283400AA959396F50105828585D18E6346B000ED
:10284400639D051A638B061A0356C9021582330564
:10285400D6003336C500B2956348B00063910524B1
:102864001306F00F637DA622894663F3561593077A
:102874008008F3B7078093F78708BED60F100000CF
:1028840037170040930770052300F704930780FA75
:102894002300F7040F1000008356C70289678117CD
:1028A400D58FC207C1832316F70223000704B65746
:1028B400F3A707800F100000FA506A54DA544A59FB
:1028C400BA592A5A9A5A0A5BFA4B6A4CDA4C4A4D5C
:1028D400BA4D296182801308F5FF3335A800FD1530
:1028E4002E951356F5013298B336C800AA9651B105
:1028F400F336048093F68608B6CA0F1000002380CE
:102904009D002380AD000F10000083463905CD8E55
:10291400A309D90423800D00D646F3A606800F1020
:10292400000035BBF336048093F68608B6CE0F104C
:10293400000023809D002380CD000F1000008346FB
:10294400390593E60602A309D90423800D00F6464F
:10295400F3A606800F10000095BBF336048093F6AF
:102964008608B6D20F10000023809D002380CD007E
:102974000F1000008346390593E60602A309D90423
:1029840023800D009656F3A606800F1000006DBB41
:102994009306F5FF33B5A600FD152E959355F50165
:1029A400AE96B3B5B600AA951396F501858269B5BE
:1029B400F336048093F68608B6D80F100000930609
:1029C40080FA23809D002380DD000F1000008356D1
:1029D400C9020566011693F6F60FD18EC206C182AE
:1029E4002316D90223800D00C656F3A606800F10C5
:1029F4000000850A93FAFA0F51B233E6B60045C2D5
:102A04000356C9023305D0403338A000B305B040A3
:102A1400B385054115826345B000D1E16371A60811
:102A2400894663F0560593078008F3B7078093F748
:102A34008708BEDA0F100000B717004013077005AF
:102A44002380E704130780FA2380E7040F100000B3
:102A540003D7C7027D8B2396E70223800704D6574A
:102A640081BDF336048093F68608B6DC0F100000AF
:102A7400930680FA23809D002380DD000F10000060
:102A84008356C9020566011693F6F60FD18EC20667
:102A9400C1822316D90223800D00E656B9B79307E5
:102AA4008008F3B7078093F78708BEDE0F10000095
:102AB40037170040930770052300F704930780FA43
:102AC4002300F7040F1000000356C7029397560023
:102AD400B297C207C1832316F70223000704F657EF
:102AE400C1BB914763EEB70217270200130747E7FC
:102AF4008A05BA959C41BA978287B717004003A705
:102B0400470B1345F5FF698F23AAE70A03A7070BB1
:102B1400698F23A8E70A03A7070A798D23A0A70AC8
:102B24008280B717004083A6470B1347F5FFF98E41
:102B340023AAD70A83A6070B558D23A8A70A83A621
:102B4400070A758F23A0E70A8280B717004003A7FE
:102B5400470B498F23AAE70A03A7070B1345F5FF81
:102B640045BFB717004083A6470B1347F5FF758F82
:102B740023AAE70A03A7070A598D4DB7B7170040E0
:102B840003A7470B498FEDB7B717004088474205A5
:102B940041819377050491EB9377F5013755E8016B
:102BA400130505803345F50282809377050C1307DE
:102BB40000046397E7009377F50137459C1CCDB774
:102BC4002165130505D0828037E700E01C43544398
:102BD400A183E206D58F1CC1FD572320F7182322B9
:102BE400F7180F100000828013178500B7E700E084
:102BF40023A0E710618123A2A7108280B7F700E029
:102C04008847CC478280814737370040A14663C458
:102C1400C700328582800345B740E38EA6FE338524
:102C2400F5000345050085072304A740CDB797F7B2
:102C3400FF1F9387676B9C431727002013070761C7
:102C44003E95636EE500174700201307679B636892
:102C5400A70017F7FF1F2329A7683E858280FD5729
:102C6400EDBF411122C406C62A84393F2947B30760
:102C7400E502B2408D83B3D7870222449507B3D7C8
:102C8400E70237370040C207C1832316F7404101EA
:102C94008280716541111305052006C6D937B737FF
:102CA4000040130770F82381E7400D47A381E740F4
:102CB40013070004A380E74005472387E740B24099
:102CC40041018280CC41411106C6328503C61500FC
:102CD40083C5050022064D8E42068D654186138804
:102CE40075A2630C060F6348C804138845A26306E3
:102CF400060B634AC800938535A26309B606239080
:102D04000600294679A0138855A26308060B93850B
:102D140065A2E316B6FEC1451D4663ECE5064546CD
:102D2400198E63F3C7003E862390C60097250200E0
:102D3400938545C589A8138895A26300060F634E41
:102D4400060B1388A5A2630A060F938505A5E3184D
:102D5400B6FA99451D4663EEE502198E63F3C70082
:102D64003E862390C6009385C18031A89D451D46AB
:102D740063E1E5022146198E63F3C7003E86239082
:102D8400C60093858186BA9597E0FF1FE780E0B17E
:102D94000146B240328541018280AD451D46E3EAD9
:102DA400E5FE3146198E63F3C7003E862390C600C4
:102DB400972502009385C5C0F9B7B1451D46E3EADE
:102DC400E5FC3546198E63F3C7003E862390C600A2
:102DD400972502009385C5BF7DB7C1451D46E3EA2B
:102DE400E5FA4546198E63F3C7003E862390C60074
:102DF40097250200938545BA79B7C1451D46E3EA94
:102E0400E5F84546198E63F3C7003E862390C60055
:102E1400972502009385C5BCBDB7C1451D46E3EAAD
:102E2400E5F64546198E63F3C7003E862390C60037
:102E340097250200938585B7B9B7B5451D46E3EAE2
:102E4400E5F43946198E63F3C7003E862390C60025
:102E540097250200938505B23DB797F6FF1F938629
:102E640026174146CD4517F5FF1F130565036F80EF
:102E740000642D453DEF03C5050009476317E506CA
:102E84003285D041411106C60347160003460600A9
:102E940041682207518F130628FE6308C70263693D
:102EA400E6000518630307032390060029451DA8BF
:102EB400130648FE630BC7001518E31707FF1547F1
:102EC4003E866377F700154621A03E8691C30546EA
:102ED400CC452390C6004206418297E0FF1FE7805D
:102EE400C09C0145B2404101828023900600054503
:102EF4008280828083C7850093F70702E1E3411152
:102F040006C622C426C24AC003C9050009432E8846
:102F14008547631B690203A345003284B684834753
:102F2400130003430300A207B3E767004163130ED2
:102F340013FE6382C7030D13638B67040D681308C4
:102F4400289063850707A947B24022449244024966
:102F54003E8541018280AD4765FB0547B547E36582
:102F6400D7FE0325C8000546A28597E0FF1FE7802A
:102F7400C09301499387C1889843814771D7184307
:102F840061D72686A2854A850297814775BFAD47DA
:102F940045FF0547B547E369D7FA0325C800054649
:102FA400A28597E0FF1FE7804090E9B72244B24032
:102FB40092440249854741016F609013A1473E85C1
:102FC400828041677917630CE502411122C406C669
:102FD40085472A84639AF50022852244B24093856A
:102FE400018841016F80805789476396F5008545C4
:102FF400EFA0F00B75D1B24022444101828082805F
:10300400411122C42A844165938501887D1506C631
:10301400EF80C054170500001305E5FA0588EFA0FA
:10302400500005C02244B24097F6FF1F9386060C59
:103034004146C54517F5FF1F130545FA41016F8049
:103044000047B240224401454101828009C523A6BC
:10305400A18801458280454582801147636EA70699
:1030640097260200938606990A0536951841411160
:1030740006C63697AE87B285028705476145639ACF
:10308400E70005461385018797E0FF1FE780E0818D
:103094000145B2404101828005476145E39BE7FE5B
:1030A400054613854187CDB705476145E393E7FEA0
:1030B400054613858187C9BF05476145E39BE7FC46
:1030C40005461385C187C9B715476145E393E7FCF6
:1030D4001546138541884DBF09458280411122C49C
:1030E4002E849385018826C206C6AA84EF60007BDD
:1030F400058915C197F7FF1F938747EE83D7A70B61
:10310400A285B2402310F40022442685924401464D
:1031140041016F702055B240224492444945410117
:10312400828011456FF04F92411193962500AA8534
:103134002D4506C697D0FF1FE7802038B2400145D1
:1031440041018280011122CC06CE3714004026CAE8
:103154004AC84EC652C483447405034AB40583491D
:10316400840503499405EFE01FE98347A40593F41C
:10317400F40F137AFA0F93E71700230DF40493F96D
:10318400F90F1379F90FB717004003C7A705058B8B
:103194006DFF03D5C705A38D4705238C3705A38C85
:1031A4002705A38B9704F2406244D2444249B249B2
:1031B400224A0561828041119397050122C406C603
:1031C400C1872E8463DD0700EF00902219C1EF0050
:1031D40010162165218DB24022444101828093F76B
:1031E400150013C51500E5FB93F7250013C525004D
:1031F400FDF39397250163D00702EF500161153762
:1032040037F60200130606E0896503C54189EF001D
:10321400707B0965C1B7939715010145E3DD07FA92
:10322400172502001305C582EF00025B1306006434
:10323400916503C54189EF00F078116561BF2D7177
:10324400232A9110FD74E98C232C81102328211149
:10325400232631112A84AE893289930600100A8606
:10326400A6852D45232E111097D0FF1FE780E0245B
:103274001315440151810A0513962900CA850A953C
:1032840097D0FF1FE7806062A685856601462545C5
:1032940097D0FF1FE78060220A86A6859306001058
:1032A400294597D0FF1FE78040218320C1110324C3
:1032B400811183244111032901118329C11015614E
:1032C4008280B7F7070003C70701411106C622C46D
:1032D40026C24AC0A547631AF7009537B240224474
:1032E4009244024901454101828013942500AA8435
:1032F4003289A286AA850146254597D0FF1FE7801B
:10330400C01BA2864A86A685294597D0FF1FE78061
:10331400C01AE9B75D714946971502009385C56ED9
:10332400172502001305C5BA86C697D0FF1FE7808C
:10333400006501E9171502001305456EEF00C24947
:1033440001A0B7F600E0795798CAFD57DCCA0567B3
:10335400B7E700E023A0E7101306F00290C223A011
:10336400E7180F10000017E7FF1F1307A73A23A859
:10337400E1884157A38AE7401306000481450A8582
:1033840097D0FF1FE780805997F7FF1F9387872CFB
:103394003EC08D67938707802312F1009D673EC46A
:1033A400B707010A938707103EC69307001F231827
:1033B400F10099472309F10097070000938707D785
:1033C4003EDA97070000938707F03EDC8567938712
:1033D40057D1231AF10097070000938767823ED0E4
:1033E40097070000938747D63ED49707000093873A
:1033F40087D33ED60A8797270200938727FD97260F
:103404000200938646FC03C65700FD170507A30B6D
:10341400C700E39AD7FE0A85EF10203FAA8501C9A9
:10342400171502001305C560EF00622901A0B6401C
:1034340061618280411117050000130505D806C695
:1034440022C4EF100039138441892300A4001928F1
:10345400034504002244B240130600328965410149
:103464006F005056797106D613078008F33707802A
:1034740093F787083EC20F100000B717004093056A
:1034840070052380B704130680FA2380C7040F1045
:10349400000083C6F70293F6A60FA387D702238002
:1034A40007049246F3A606800F10000073370780C6
:1034B400137787083AC40F1000002380B7042380D1
:1034C400C7040F10000003C7F70213672700A38780
:1034D400E70223800704A247F3A707800F10000028
:1034E4000545EFE09FB435398147014781460546DC
:1034F40085451305407EEFE03FB86800514681459D
:1035040097D0FF1FE7808041B707C0A83EC8B787A0
:10351400E803938707D03ECA680097D7FF1F9387B5
:1035240087EA3EC6EF100062B250456182802A8667
:10353400B305B040171502001305455B6F00221850
:10354400011106CE19C589476301F502F2400561F0
:103554008280680097D0FF1FE7802035171502008E
:103564001305C565EF004227D5B7680097D0FF1F44
:10357400E780A0331715020013050566E5B783D766
:10358400418A6390A7022393B18A2394C18A239525
:10359400D18A2E861715020013054553BE856F0088
:1035A4000212171502001305E5536F00E2224111C0
:1035B4009397050122C406C626C2C1872E8463DA06
:1035C400070603C501822D25AA8405CD834705007E
:1035D4001307000B638EE7021307000D6391E702E4
:1035E40003472500C547631CF70003466500834570
:1035F40075001715020013056547EF00420C268578
:103604003D232165218DB2402244924441018280B0
:10361400034745009307F007E313F7FE835585003E
:1036240017150200130545462396B182EF002209BF
:10363400F9B793F7150091CF17F6FF1F130606B2DB
:103644009385C1A603C50182EFA0917113451400AF
:103654005DBF93F72500B9C383C7018B95C79387D3
:10366400C18A8C431715020013054543EF00220558
:1036740023A6018A13060064894503C50182EF006D
:1036840070341345240041B7171502001305C541D2
:10369400EF00821485472388F18AE9BF93F78500F8
:1036A40085C383C70182130740068146130640067B
:1036B400994503D5418AEFA0116413458400A1B74D
:1036C40093F745000145A1D303D5418AEFB0813E6C
:1036D4000566130606C8914503C50182EF00902EC6
:1036E400134544000DB703574500011106CE83D797
:1036F400418A631FF702C167F917894503C501822F
:1037040023A2F18A23A4018AEF003055914503C511
:103714000182EF00905485471306F1008545130597
:103724005030A307F100EFB0810DF24005618280B3
:10373400171502001305053BEF00020AFDB77D15BE
:10374400954763E2A714171702001307A7300A0569
:103754003A951C41411122C406C6BA972E84828729
:10376400171502001305053A2244B24041016F00C7
:10377400A20683C7250019476391E7022E85A53762
:1037840083456400171502001305C538EFF0317343
:10379400171502001305C539C1BF0D47E38AE7FEBB
:1037A400B24022444101828003C725009547E319B2
:1037B400F7FEC16703D7418AF91703D5A500630F44
:1037C400F700EFB0612F1715020013056537EF00FE
:1037D400A200171502001305253979B72392A18A8F
:1037E40083D7E5000566130606C82393F18A83D7B9
:1037F400050103C501822394F18A83D725018945F4
:103804002395F18AEF00101C0356E4008355A400AD
:103814001715020013050534EFF0716A5DBF03C785
:1038240025008D47171502001305C534E31AF7F672
:1038340025BF83C5250091476397F500171502003E
:103844001305C53415B79947639FF5002285613D7B
:1038540083456400171502001305C52B2244B240AA
:1038640041016FF0D1659547639AF50083471400D1
:10387400F1F71715020013052533FDB517150200DE
:1038840013050533E1BF828083C7018BD1C30111C6
:1038940022CC26CA06CE938481A71384C18A83D7F7
:1038A400C1821386D7FF42064182F917634DF600A1
:1038B4001715020013058520EFF01172F2406244DF
:1038C400D2440561828001478146ED4503D5418A92
:1038D4002315C100EF5090362AC66DD10356A100BE
:1038E400A68597D0FF1FE78040FC2C0003D5418AB2
:1038F400EFF0CFFE11C5ED452800EF50F04B7DBF32
:103904001C4003D7C182F517BA9723A6F18A41BF99
:1039140082807971170500001305A5C906D622D443
:1039240026D2EF00106B93840182994705442380CB
:10393400A400231AF10010089307400685451305D7
:103944005030231CF10023088100EFA0516B17F6BF
:10395400FF1F1306E682F14513057030EFA0316AAC
:10396400138641829D4513056030EFA051695008CC
:10397400894513051031EFA0916830088945130576
:103984002031EFA0D167930500050D45EF20503A93
:10399400930500051145EF20B03930089145130512
:1039A400704023048100230681002308810002CC97
:1039B400230A0100EF90F1333000854513050040E0
:1039C400EF9031337000854513051040EF9071324C
:1039D4005008854513052040EF90B1311008854506
:1039E40013055040EF90F1307D55EF50806D7D55BB
:1039F400EF70B033EFF06FC67D55EFF06FE017E670
:103A0400FF1F13066676D5450145EF50205A8947B6
:103A14002306F1008D472308F1009147230AF100A2
:103A240093870186984383C7470030008545014545
:103A34003ACC230EF10023048100EFF00FE2700072
:103A440085450545EFF06FE1100885450945EFF020
:103A5400CFE0500885450D45EFF02FE0300895453F
:103A64001145EFF08FDFC1671387418AF9171CC333
:103A7400232207001385C181EFF04FDD1385C1892F
:103A8400EF80617A03C504008545912B170500007A
:103A94001305C5DFEFD0D076B2502254925445615D
:103AA400828041111305800406C697C0FF1FE7807A
:103AB400C05F371700408327870A8D451305002010
:103AC40093E707202324F70AEFF0AF81EFF06F9C10
:103AD400171502001305C53FEFF01150EFF09F8357
:103AE400EFF05F95EFA0917F2D3597D0FF1FE78012
:103AF400609023AC05FE1C4191E7010001000CC15C
:103B04008280BA8703A787FF6DFF23ACB7FE82804C
:103B1400184183A785FF6319B7001CC1FD5723AC67
:103B240005FE238FF5FE8280232CF6FEC5BF4111CE
:103B340022C437E400E026C204403707200006C64A
:103B4400F98C2320E4180F10000009E923209410B5
:103B54001545B24022449244410182800347E5FF67
:103B64009307F00F6306F700232094101145D5B78F
:103B740097E0FF1FE780C019014523209410D1BFAF
:103B8400411126C2B7E400E04AC003A90400B70704
:103B9400200006C622C43379F90023A0F4180F10BC
:103BA400000009E923A02411B240224492440249AE
:103BB400410182809565938505D0C98D2A842105AC
:103BC400C2054205C181418197E0FF1FE780E005FE
:103BD40001CDFD5723200500231285002303F500A2
:103BE40023A024112105C9B723A0241101456DBFC9
:103BF4000111B7E700E04AC803A907004EC637071A
:103C0400200006CE22CC26CAAA893379E90023A053
:103C1400E7180F1000009387418B804381440146CD
:103C240019E499E8A1654E85EF00300331A8834774
:103C3400E4FF6397370395C8A6851385418BC93D77
:103C440075D0A1654E85612EF2406244B7E700E06D
:103C540023A0271126854249D244B24905618280B6
:103C640091E02286032484FF65BFA284E5BF41114D
:103C74004AC037E900E022C40324090037072000C2
:103C840006C626C2798C2320E9180F10000089E5A6
:103C940023208910154515A0AA849717002083C7EF
:103CA400771F2E8563F5F400894763EE970041354D
:103CB400B7E700E023A087100D45B24022449244A8
:103CC40002494101828083A785FF99E703C7E5FF85
:103CD4009307F00F6308F700993DB7E700E023A0CE
:103CE40087104DBF238F95FE1385418B1935A16530
:103CF4002685F524014523208910C1B723AA018A0A
:103D040082809387018D9C4399E33E85828003D70B
:103D140027006316B70003C70700E308A7FEDC47C4
:103D2400E5B7B1CD011106CE22CC26CA8147C146E2
:103D340033D7F540058B1DCF12053E95314733052A
:103D4400E5021387C18B044305443314F4002EC6E3
:103D540042044180AA949C40C8408297B24523A063
:103D6400040023A20400A18DF2406244D2442E85B3
:103D7400056182808507E39DD7FA0144EDB72E855E
:103D84008280BDCD797122D406D626D24AD04ECEB9
:103D940001444147B3D78540858BB1CF12053147E4
:103DA40022953305E5029387C18B03A90700854457
:103DB400B3948400C204C180BE892A9903270900F0
:103DC40011C7032549002EC60297B2453147330473
:103DD400E40283A709003E941C4489E723200900D8
:103DE40023220900B2502254A58D02599254F2495B
:103DF4002E85456182800504E31EE4F88144DDB725
:103E04002E8582804111B7E700E022C48043370742
:103E1400200006C626C2798C23A0E7180F100000E4
:103E240097170020938707039C539384018399C7B2
:103E340082979C403E9523A8A18229A09387418C18
:103E44009C43FDF78840B74703009387D73F33056A
:103E5400F502B7A72600938737ECB24092443E950B
:103E640023A8A182B7E700E023A0871022444101E0
:103E740082800111B7E700E022CC80434AC83707AB
:103E8400200006CE26CA2A892E86798C23A0E7181C
:103E94000F100000131506019305F004418132C68A
:103EA40097E0FF1FE78060D8AA8419C53246CA8507
:103EB40097D0FF1FE780609FB7E700E023A087103B
:103EC400F240624426854249D24405618280797178
:103ED400B7E700E022D480433708200006D626D274
:103EE4004AD04ECE52CC56CA5AC85EC662C4337447
:103EF400040123A007190F10000005E123A0871077
:103F04000945B250225492540259F249624AD24AA3
:103F1400424BB24B224C456182809387418C9C4337
:103F2400BA8A368AB28B2E8BAA8982979387C18BE1
:103F340098433E898144B146C147338CD402330649
:103F44008701104241E6C165938505F0414597E03C
:103F5400FF1FE78080CD05E197170020938787EF47
:103F64009C5B81C7814511458297B7E700E023A098
:103F740087102D4579B79387018D984321E723A8AE
:103F8400A18C2300050083270900054733179700F8
:103F940023260500232475012311E500232255015E
:103FA400E29723A0370123A2670123A457016304E6
:103FB4000A0023009A00B7E700E023A08710014518
:103FC40089B73E875C47F5FF48C765BF8504E3961C
:103FD400F4F6B7E700E023A0871021451DB7B7E743
:103FE40000E09843B706200023A0D718758F0F1060
:103FF40000009716002083C6F6E96371D502138684
:10400400818B931615000842369583560500D58D8D
:104014002310B50023A0E7100145828023A0E710F8
:104024000D458280B7E700E09843B706200023A03F
:10403400D718758F0F1000009716002083C696E5D9
:104044006373D5021386818B93161500084293C5BA
:10405400F5FF369583560500F58D2310B50023A092
:10406400E7100145828023A0E7100D4582800111ED
:1040740037E700E026CA0443B706200006CE22CC68
:104084004AC84EC652C4F58C2320D7180F1000001E
:10409400130705FF1377F70FFD4763E1E70AB146FE
:1040A400B306D5029387C18B984336971C43D9C76F
:1040B400135A450005443D893315A4001314050122
:1040C40041802E895285A2852D39AA8939C9A285B4
:1040D4005285893F9387418C9C4382979717002090
:1040E40083D707E0338727032A84814613060064B5
:1040F400B3B7270313050732B335E500BE95EFF0D8
:104104002117B3078500971600209386E6DC3E87C7
:10411400D44263E4A70063E4D7003387D74023A4E1
:10412400E900B7E700E023A097100145F24062449C
:10413400D2444249B249224A05618280B7E700E08D
:1041440023A097100945DDB70111B7E700E026CA9F
:1041540084433707200006CE22CC4AC84EC6F98CC9
:1041640023A0E7180F100000BD4763E7A7043147F9
:104174003307E5029387C18B9C43BA979C438DCF49
:1041840005443314A400420441802E890145A285CC
:104194008D3EAA8911C5A2850145693523A429014B
:1041A400B7E700E023A097100145F2406244D244EF
:1041B4004249B24905618280B7E700E023A0971025
:1041C4000945E5B779714AD037E900E026D283245E
:1041D4000900B707200006D622D44ECE52CC56CAC8
:1041E4005AC85EC6FD8C2320F9180F1000009717DB
:1041F400002083C737CA6378F5009387418C83AB6B
:10420400070063970B00B7E700E023A09710A9A06D
:10421400171B0020130B4BCC832A4B00B74736FEE9
:10422400938707C82E8A9715002083D565CBBE9A3D
:10423400B387C5022A84B2898146B3B5C502138502
:104244000732B337F50013060064BE95EFF0410260
:1042540063F0AA02232099100145B25022549254CB
:104264000259F249624AD24A424BB24B45618280BA
:10427400829B9715002083D5A5C6B38735032A8969
:10428400130600648146B3B5350313850732B3378B
:10429400F500BE95EFE0D17DB30725013E890327E4
:1042A4004B0063E4A70063E4E7003389E740D28569
:1042B4002285813C09C923242501B7E700E023A016
:1042C4009710054559BF936504F0C205C181414566
:1042D40097E0FF1FE780609519E9971700209387FF
:1042E40067B79C5B8DD3A2851145829729BF9387BD
:1042F400018D9C4395E323A8A18C854723260500C3
:10430400232425012311450123008500A300F50082
:10431400232205005DB7BA87D84775FFC8C7F1BF28
:104324007971B7E700E026D284433707200006D628
:1043340022D44AD04ECE52CC56CA5AC85EC662C4A3
:1043440066C26AC0F98C23A0E7180F1000002DC1C3
:104354004144B689B28A2E8A2A89B14C138BC18B07
:10436400054D130C0003B30B940303270B005E9756
:104374001C43A5E39375F400B315BD0013554440E5
:10438400C2055686C1811375F50F2D3D39C18327AA
:104394000B00DE9723A0270123A2470163840900B1
:1043A40023808900B7E700E023A09710014521A0EE
:1043B40023A097100945B250225492540259F2494D
:1043C400624AD24A424BB24B224C924C024D456156
:1043D40082800504E31984F9B7E700E023A097106D
:1043E4002145D1BF0111B7E700E026CA844322CC9E
:1043F4004AC84EC63707200006CE2A84AE893289C1
:10440400F98C23A0E7180F1000006D3B2285CE85A0
:10441400EFF03F8F2A8405C59715002083D545AC5E
:10442400B3872503130600648146B3B525031385BA
:104434000732B337F500BE95EFE0916348C01335FA
:104444001400F2406244B7E700E023A09710424909
:10445400D244B2490E05056182800111B7E700E03C
:104464004AC803A9070022CC4EC63707200006CE4F
:1044740026CAAA892E843379E90023A0E7180F10ED
:104484000000EFF01F88AA8419C123110500A2853A
:104494004E85493E9717002083C7C79F639737010E
:1044A40083D7018C5D8C2390818CB7E700E023A037
:1044B4002711014591E01945F2406244D244424932
:1044C400B2490561828001114AC837E900E022CC73
:1044D40003240900B707200006CE26CA4EC67D8CE9
:1044E4002320F9180F1000009307F00263E6A704D5
:1044F400B147B304F5029389C18B83A70900A6973A
:104504009C439DCB9377F5008545B395F500C20593
:10451400C1811181993783A709000145A69723A07A
:10452400070023A2070023208910F2406244D244EA
:104534004249B24905618280B7E700E023A08710B1
:104544000945E5B74111B7E700E026C2844306C632
:1045540022C437072000F98C23A0E7180F100000AD
:10456400EFF02FFA19E90145B2402244B7E700E021
:1045740023A097109244410182809387418C9C43ED
:104584000045829797170020938707956368A402D4
:10459400D843B74636FE938606C83305A4403697FB
:1045A400E373E5FC13070064B335E50203D6870023
:1045B40081463305E502EFE0B14B7DB7D8433A9429
:1045C400C1BF411122C426C2171400201304C49091
:1045D400971400209384048C944858409387418C0A
:1045E40006C69C43639FE60682975440B74736FE4F
:1045F400938707C8B6973387A7003A856364F700A3
:104604006364D7003305D74097140020938484A4AF
:10461400DC5091CB9387019C94433707CDFF7D17E2
:104624009C46F98F9CC611E1484097170020938758
:104634006782DC53829719E5DC5099CFEF40213231
:10464400EF30D10ADC5089CB9387019C9843B7069D
:1046540033001C47D58F1CC7B24022449244410109
:104664008280829794485840B387A6003E8563E4CD
:10467400D700E3EBE7F83385E74079B7411106C685
:1046840023A6A18C0295B2409717002023A0A782ED
:10469400014541018280994763E9B7008A0597176C
:1046A40000209387A781BE9588C1828023A4A18C12
:1046B40001C58547238CF18C828041117146814567
:1046C400170500201305857F06C623A8018C23A6A1
:1046D400018C23A2018C238C018C23A4018C97C010
:1046E400FF1FE780A02313068002814517050020E1
:1046F4001305457A97C0FF1FE7804022EFA041478A
:10470400970700209387077503C5C70383C7D7039B
:1047140085453E958D473305F50239051375F50F2B
:10472400970700202389A77699473305F5021305D7
:10473400052497D0FF1FE780404F23AEA18A59C5B7
:10474400994717060020034606753306F60281458D
:104754001306062497C0FF1FE780401C9387C18B74
:104764009C439387072423AAF18C1707002003474F
:1047740087720A07BA9723ACF18AEFF02FD8D121B8
:104784009387418D94439707002083C7B77013978D
:104794002700369717F6FFFF1306E65E10C313874C
:1047A40017001377F70F0A07369717F6FFFF13065C
:1047B400865710C313873700890793F7F70F8A07C3
:1047C40097050020A388E56CB69790C3B2404101D9
:1047D40082809707002083C7F76B170700200347E1
:1047E400876B63F1E7021387418D184393861700A3
:1047F40017060020A300D66A93962700369708C3AD
:104804003E8582809307F00FE5BF1C416382071643
:1048140041777D8FB70600208947631CD71403575F
:10482400450063080714411122C419462A849305DC
:10483400F00F610506C697C0FF1FE780A01C05475F
:104844008D476302E5121C4481CB58589947630C89
:104854000710185C63090710130600048145170547
:1048640000201305255F97C0FF1FE780200B130668
:104874000004A285170500201305C55D97C0FF1F1E
:10488400E780A0029707002083D7875D17070020E1
:104894001307475C99E793070010970600202391BC
:1048A400F65C9707002083C7C75B91E785479706A7
:1048B40000202388F65A9707002083D7A75A91E748
:1048C400ED4797060020239FF6589707002083C7DB
:1048D400575991E7954797060020A384F658970700
:1048E400002083C7475891E7854797060020238C0B
:1048F400F6569707002083C7175799E78347F700B1
:1049040097060020A381F6569707002083C7D75542
:1049140081CF93F63700898317060020230AD656E1
:1049240097060020A386F6569707002083C7C7532F
:1049340091E7D547970600202388F6528347640100
:1049440099E79307C003970600202380F6521C576B
:1049540091C78297970700202392A754FD57A38BF2
:10496400F1A2A13B8147B24022443E8541018280AD
:1049740089473E85828001114EC69709002093899C
:10498400A95583A7090006CE22CC26CA4AC852C418
:10499400829713090064B335250303DA890081463D
:1049A400528633052503EFE0B10C97070020938767
:1049B400674E804FAA840145630694023385844080
:1049C400636E940003A5490052868146B335A9025B
:1049D4003305A902EFE0D109018D26959707002040
:1049E40023A6974CF2406244D2444249B249224A37
:1049F40005618280011122CC0A852E8441469705E7
:104A040002009385E5F406CEEFE011401808060491
:104A14003A94035504FF9707002083D7874CF2404C
:104A24006244AA9737450F00130505243355F50250
:104A3400056182809707002083D7A74A51471D4507
:104A4400637CF702794719456378F702130720035B
:104A540015456373F7021307B0041145637EF7002D
:104A6400130740060D456379F700130760090945EC
:104A74006374F70013B5B70F8280011122CC06CE00
:104A84002A842EC6EFF00FB8B245F240818D33A5CB
:104A9400A502229562441375F50F05618280011108
:104AA40022CC06CE2A842EC6EFF0CFB5B245F24012
:104AB400818D33A5A5022295624442054181056199
:104AC4008280011122CC06CE2A842EC6EFF08FB349
:104AD400B245F240818D33B5A50222956244056149
:104AE4008280970700209387E736985739CB411186
:104AF40022C426C206C6BE840297170700200357A5
:104B0400E7392A8415CBBA876373A700AA87C2073B
:104B1400C183BA866373E400A286C206C182958FFC
:104B24005147635BF700DC5491C38297EF30F14D3A
:104B34009707002023948736B240224492444101CF
:104B44008280828023AE018C970700209387873070
:104B5400DC57011106CEAA8581C72AC68297B245C1
:104B6400D9CD9C410545C9CBDC41D9C783D7850044
:104B7400C1C783D7A500C9C3514617050020130533
:104B8400A53597C0FF1FE78040D297070020238BED
:104B9400073497070020938727349C4323A2F18C82
:104BA4009707002083C7772C8DE793078057170555
:104BB40000200355E5323305F50237460F0013068E
:104BC400062481468145EFE0A16A97070020A38E61
:104BD400A7281707002003475729A54763E7E700DD
:104BE400A94717070020A302F7281705000013059B
:104BF400C5D8EFF0BFA80145F24005618280970750
:104C0400002023A7072A97C7FF1F9387C71A1707F0
:104C140000202323F72C7D579707002023A0E72C9F
:104C2400B7873200938727A19706002023AAF62A84
:104C3400970700202388072AB7C7004023A4E72644
:104C440089BF011122CC170400201304A4200844B6
:104C540006CE26CA4AC801E90545F2406244D24458
:104C64004249056182805C58E5DB185C75D77000A9
:104C7400854582971844B247E300F7FE9305E004A4
:104C8400170500200355C51D97D0FF1FE780E0F9E5
:104C9400170700202320A72261D1170600200356FE
:104CA400261C9305F00F97C0FF1FE78020C781449F
:104CB400170900201309091E9707002083C7671AE4
:104CC4000326090263C1F402328597D0FF1FE780EF
:104CD400200401459707002023AE071C97070020F6
:104CE40023AC071C9DBF9705002083D56517B387A8
:104CF40095020844185C898185043E9508C2029790
:104D040065BF011156C2970A0020938AAA1483A78B
:104D14008A0022CC4AC84EC606CE26CA52C45AC0FD
:104D2400AA892E8432896386072203A74A0363096A
:104D340007141307F01F6367A714970400209384D4
:104D4400641503AA040263170A0A9565938515E09E
:104D5400170500200355C51097D0FF1FE780E0EC2E
:104D64009707002023A8A7142A86630B051083A79E
:104D74004A0303A58A009705002083D5650E89811F
:104D8400829783A78A0003AA040217070020232519
:104D9400F7128947639CF908C1476313F40E97051A
:104DA400002083D5E50B938505FC9147B3C5F50237
:104DB4008A05D29503C725009307A005631EF70A49
:104DC40083D70500639A370B4A852286910597C0DD
:104DD400FF1FE78080AD9C505285639347150145C2
:104DE400F2406244D2444249B249224A924A024BB6
:104DF40005618280D850E38EE7F89565938525E0B8
:104E0400170500200355C50597D0FF1FE780E0E193
:104E14002A8A3DC52A8683A74A0303A58A009705E3
:104E2400002083D5E50389818297A5B78D47639DCB
:104E3400F900C1476316F4049705002083D54502A1
:104E4400938545FDF199B5B79147639AF9006319C4
:104E540034039705002083D5A500A115E5B7930772
:104E64000010639FF900A14763EC870097050020B9
:104E740083D505FFC115F9B79C5052856396470D3C
:104E84002945B9BF1D6A568B6371450B130A05E0AA
:104E94001947334AEA0217070020035767FC970AA9
:104EA4000020938A2AFF330AEA023E9A83A74A0221
:104EB4006395470183A40A029DE49305E004170562
:104EC40000200355E5F997D0FF1FE78000D6AA8498
:104ED40045D983274B039705002083D565F82A8697
:104EE40089815285829791451307A00589819397FB
:104EF4002500A69783C627006393E60483D607009C
:104F0400639C360385058A052286A6954A8597C043
:104F1400FF1FE780809983A70A02E38297EC268526
:104F240097D0FF1FE780C0DE5DBD21677917E36975
:104F3400A7F4330A454185B783C5370045BF83A726
:104F44000A02E38F97F2268597D0FF1FE78040DCA3
:104F540005BF970700209387E7F38C5395D19147BA
:104F64009306A0058983139727002E9703462700ED
:104F7400E318D6F003560700631C360185078A0739
:104F84002286BE954A8597C0FF1FE780009281BDA7
:104F940083473700C1BF970700209387A7EB984743
:104FA40039C79C5FA9C705476313E504411122C4AF
:104FB40017040020130404EE105006C60DC6485012
:104FC4009705002083D5C5E989818297085097D039
:104FD400FF1FE780E0D39707002023AD07EC970776
:104FE400002023AB07ECB24022444101828082803E
:104FF4000111170700201307E7E54EC68329870030
:1050040022CC26CA4AC806CE52C456C2AA842E84CA
:105014003289638B09201C5FBA8A99EB2945F240D7
:105024006244D2444249B249224A924A056182808A
:105034005C5BEDD79307F01F63EAA70E9709002086
:10504400938949E583A70902B1CB03A58A0083A705
:1050540049026395A70689476393F408C147E31F90
:10506400F4FA170500200355A5DF9147130505FC45
:105074003345F5029317250003A509022286CA8544
:105084003E959307A0052301F50023109500110513
:1050940097C0FF1FE7806081014551B79305E00485
:1050A400170500200355C5DB97D0FF1FE780E0B745
:1050B4009707002023A0A7E049F98DB783A74A03E7
:1050C40003A609029705002083D585D98981829793
:1050D40083A78A00170700202320F7DEADBF8D4782
:1050E400639EF400C147E31BF4F217050020035547
:1050F40025D7130545FD9377C5FFBDBF9147639A37
:10510400F400E31D94F017050020035565D521151F
:10511400DDB793070010E393F4F0A147E3E087F0D1
:10512400170500200355C5D34115F1B79D67637971
:10513400F506930705E01947B3C7E70217070020F0
:10514400035707D2170A0020130ACAD4B387E70209
:10515400BE9983270A02A1CF83274A02639937079E
:1051640003250A0291461308A0059305F00F93D76F
:105174002600139727002A9703462700631F060774
:10518400835807000346370063959806B306D64054
:1051940063CF860485078A072286CA853E95CDBDDE
:1051A40021677917E36CA7E6B307F54041BF930580
:1051B400E004170500200355A5CA97D0FF1FE78018
:1051C400C0A69707002023A7A7CE59F581BD83A7C2
:1051D4004A0303260A029705002083D565C88981FE
:1051E4004E8582979707002023A837CD95BF2310BB
:1051F400B70093160601C1829DBFB38586001706CA
:1052040000200356E6C59105130606FCE368B6E0E4
:1052140013063400719A1106B29623010701231074
:105224009700A301D700BDB797070020938787C6CF
:105234009453BE89A9C203A5090291461308A00587
:105244009305F00F93D72600139727002A97034658
:105254002700631806058358070003463700639840
:105264009800B306D640E3D786F22310B70093160E
:105274000601C182C1BF8357C7001705002003453B
:1052840045BE9305E0043305F5024205418197D0FC
:10529400FF1FE78080999707002023ADA7C041FD39
:1052A400B5BB170600200356A6BB9705002083C58F
:1052B40045BBB385C502338686001106E3E0C5D637
:1052C40081BF01458280011106CE2EC6EF80604C5D
:1052D40001C9B245F2400355250005616FC0005F66
:1052E400F240494505618280A384019023840190A2
:1052F40023A8018E23AA018E23AC018E23AE018E36
:1053040023A6018E23A4018E97070020938707BE4E
:10531400370684033707B40090D337C6070098C311
:10532400130606B83747A000D8C3D0D337071000F8
:1053340041669306070AB70550009308060194C70F
:1053440023A4170393860501930816F8D4C723A64C
:105354001703B706D007B7087F001308070513859E
:105364000601410723A81703B0C3930816009386C8
:10537400060513861500D8CBF8C323A8070188CFE8
:1053840023AE070023AA170323AC070223AE0702A8
:1053940023A40704F0C7B4CB23AA0704ACCF23AEDD
:1053A4000705B8D33707A000F8D71307000AB8DBFE
:1053B4001307C01CF8DB37071400B8DF0547F8DF14
:1053C400130710F8E8D323A4070623A0E708828074
:1053D400011126CAAA84214522CC06CE2E8432C6C7
:1053E40036C43AC2EFE0CFF91DC9A246124732468D
:1053F400930700FD2300F5009947A30095002301BE
:10540400F5002303D500A303E5002312C500AA85F4
:1054140022856244F240D24405616FE05F85F24028
:105424006244D2440561828023A8A18E828023AA8B
:10543400A18E828023ACA18E828023AEA18E828035
:10544400011122CC4AC806CE26CA2A890144B304D3
:1054540089006368B400F2406244D2444249056161
:1054640082802EC6EFE01F9A93170501C183A183A2
:10547400B2452380F4009307140093F7F70F8504D3
:1054840063F9B700CA9709042380A7001374F40FC3
:105494007DBF3E847DBFC167170500200355A5ADC0
:1054A400FD176304F5024111170600200346C6B92F
:1054B4009385019006C6EF80600CB240FD57170734
:1054C4000020231AF7AA41018280828009C9251588
:1054D4001375F50F1335850E1345150082800145AC
:1054E400828023900500C9C6797122D426D24ECE7B
:1054F40052CC5AC806D64AD056CA5EC63684328AB8
:10550400AE892A8B814463F34407B307940083C7AD
:105514000700138914004209939A070193DA0A01D8
:105524001359090163840A04CA976341FA04B3074F
:10553400240183CB07005E85513F0DC99387FAFF91
:105544002390F90063906B03130519002295B25060
:10555400225492540259F249624AD24A424BB24B03
:1055640045618280D694C204C18071BF0145C5B72C
:1055740001458280411126C2AE8422C497070020CF
:1055840023A2C7A09707002023ACB79E970700204B
:1055940023A6A79E2A8441469305F00F26854AC078
:1055A40006C6054997B0FF1FE780C045631025056F
:1055B400970700209387C79B884BC14551354146C7
:1055C4009305F00F228597B0FF1FE780A043854421
:1055D4006318950222449707002093876799B24085
:1055E40092440249C847C145410199BD414681459C
:1055F400268597B0FF1FE780E040E31225FD4DBFED
:1056040041468145228597B0FF1FE780A03FE30311
:1056140095FCB240224492440249410182804111E6
:1056240022C426C22E84AA841306000281451705CB
:1056340000201305E59306C697B0FF1FE780002EF0
:1056440097070020A387979297070020238087A0BD
:10565400EFC0C029854719C181474945B24022445A
:10566400170700202306F790924441018280814766
:1056740081CD19C98547631BF50083C7550093E79E
:1056840007FCA382F50085473E858280894763171E
:10569400F50083C7550093F7F703E5B70D47854732
:1056A400E314E5FE03C755001377F70313670704F4
:1056B400A382E500D1BF81478DC105C103C7550051
:1056C4009306000C85471377070C6308D7009306ED
:1056D40000048D476303D70089473E8582804111CA
:1056E40022C4005D06C626C21DC8AA84085009C586
:1056F40097C0FF1FE780C061485009C597C0FF1FCE
:10570400E7800061085409C597C0FF1FE780406027
:10571400228597C0FF1FE780A05F23AC0402B2403C
:10572400224492444101828009ED9707002083C7F7
:105734004784170500201305258581CB1385018E29
:105744008280170500201305258482801705002018
:105754000345258282809707002093876781C84785
:105764008280970700209387A780884B828097F7D1
:10577400FF1F9387E77FDC4B8843828097F7FF1FE7
:105784009387077FD84B1C4385071CC317F5FF1F5E
:105794000345357E9307F00F6305F50091656FE0CF
:1057A4001F848280011122CC06CE2E8432C6EF8063
:1057B400800E9147B245631FF5009387C18F9C43C8
:1057C4008DC303A30700630E030022856244F240E5
:1057D400056102839387418F9C4381C703A34700DC
:1057E400DDB7F2406244054505618280011122CC97
:1057F4002A840355450006CE26CA4AC84EC6EF7011
:10580400B06835C52A89834405008349C500C13D74
:105814004A85EF80404603554400EF80000383C768
:105824008190B1CB6399970483C591902685EFF05D
:105834009FA919E12384019003554400EF80A0053A
:105844009147631FF5000357440097F7FF1F83D761
:1058540087726317F700FD5717F7FF1F231DF770B3
:10586400F2406244D2444249B2490561828081498E
:105874009304F00F6DB79307F00FE38FF4FA8346A8
:10588400640003564400034524004E87A6858936E8
:1058940065B779715EC6AA8B2E8552CC56CA5AC892
:1058A40006D622D426D24AD04ECEAE8A328B368A3F
:1058B400EF70905D7DC1045D2A89E5C09C5061450F
:1058C40099C3130540039C5481C751054205418186
:1058D40063050A00710542054181DC5081C75D05FD
:1058E40042054181EFE0CFA92A8445C9614681453B
:1058F40097B0FF1FE780800297F9FF1F83C90962F1
:105904006394090083490900930700FD2300F40010
:10591400A947A30074012301F400230364018C50FC
:10592400231254011305840191C908C47146930AD2
:10593400440397B0FF1FE78040F756858C5491C904
:1059440048C45146930A450197B0FF1FE780E0F52C
:105954005685630C0A0008C87146D285930AC501AE
:1059640097B0FF1FE78060F45685CC5099C548C8AE
:105974005D4697B0FF1FE78040F3A2854E85EFE0B8
:105984000FAF2254B2509254F249624AD24A424B67
:10599400B24B4A850259456199B3B250225492548C
:1059A4000259F249624AD24A424BB24B4561828063
:1059B40001114EC6AA892E854AC806CE22CC26CA13
:1059C4002E89EF70704C21C997F4FF1F83C40455CE
:1059D40099E0834405001945EFE08F9A2A8405CDA8
:1059E4008145194697B0FF1FE78040F3930700FDF8
:1059F4002300F400B947A30034012301F400231267
:105A04002401A2856244F2404249B2492685D24427
:105A140005616FE0CFA5F2406244D2444249B249E5
:105A24000561828039715ECEAA8B2E8526DA4ED628
:105A340052D456D25AD006DE22DC4AD8AE84328BF7
:105A4400B68A3A8ABE8942C6EF70104421CD2A89AB
:105A54004145EFE0EF922A8431C54146814597B034
:105A6400FF1FE780A0EB17F5FF1F0345254B19E146
:105A740003450900930700FD2300F400BD472301FB
:105A8400F400B247A30074012312940023046401B8
:105A9400A304540123054401A30534015CC4A28575
:105AA400EFE0EF9CF2506254D2544259B259225A58
:105AB400925A025BF24B21618280797126D2AA84C8
:105AC40039454AD04ECE06D622D42EC6B28936895E
:105AD400EFE00F8B21C1B2459307000D2310F500B1
