:040000006F10900EDF
:10000400000000000000000090000020C202002058
:10001400A9BDF9F5780300200000000000000000ED
:100024007803002090000020000000000000000081
:10003400900000200000000090000020000000005C
:1000440090000020900000209000002090000020EC
:1000540090000020700B00209000002000000000A1
:1000640090000020900000209000002090000020CC
:10007400DE0300209000002090000020900000206B
:1000840090000020900000209000002090000020AC
:1000940001A04111B7170040985F3AC6945F3247F8
:1000A400E39CE6FE324541018280B7F70700011167
:1000B400944B13078008F337078093F787083EC2F1
:1000C4000F100000B71700401308700523800705C0
:1000D400930580FA2380B7040F10000003C6B70409
:1000E4001376F60DA385C7042380070412467326EE
:1000F40006800F1000001376050255CEF3360780F4
:1001040093F6860836C40F10000023800705238069
:10011400B7040F100000B70614007D89558D88C7F9
:10012400010001000100010023800704A246F3A698
:1001340006800F10000073370780137787083AC6CC
:100144000F100000238007052380B7040F10000060
:100154000F1000003727004093061005A303D78033
:1001640023800704B247F3A707800F10000093070A
:100174008008F3B7078093F787083ECE0F1000007E
:10018400B7170040130770052380E704130780FAAC
:100194002380E7040F10000003C7B70413670708A0
:1001A400A385E70423800704F247F3A707800F1011
:1001B4000000056182801376050459C273360780F6
:1001C4001376860832C80F100000238007052380A9
:1001D400B7040F10000037061400130606047D89C7
:1001E400518D88C70100010001000100238007042C
:1001F4004246732606800F1000007337078013777A
:1002040087083ACA0F100000238007052380B7042B
:100214000F100000A54793F6F60F639EF600B7276C
:10022400004013073005A383E780B71700402380FD
:100234000704D2470DBFB727004013072005E5B7D1
:1002440073370780137787083ACC0F100000238098
:1002540007052380B7040F10000098471367070CA5
:1002640098C723800704E247FDBD0111814601467A
:100274008145114506CE912493078008F3B7078082
:1002840093F787083EC60F100000B7170040130706
:1002940070052380E704130780FA2380E7040F1016
:1002A400000003C76704136717002383E704238050
:1002B4000704B247F3A707800F100000F24005615E
:1002C400828041118146014681451145FD22130773
:1002D4008008F337078093F787083EC40F100000A7
:1002E400B7170040130670052380C704930680FAED
:1002F4002380D7040F100000FD552396B7022380F6
:100304000704A245F3A505800F100000733707808A
:10031400137787083AC60F1000002380C704238090
:10032400D7040F10000003C7670413671700238363
:10033400E70423800704B247F3A707800F100000E7
:1003440001A0BD473305F50201007D1575FD8280CE
:10035400411122C426C206C6AA840144631794002C
:10036400B240224492444101828005041305803E38
:100374004204C13F4180DDB79305000273A045806C
:1003840082457390153492402242B2424243D24392
:100394006244F244025592552256B2564257D257FD
:1003A4006258F25806499649264AB64A464BD64BF5
:1003B400664CF64C065D965D265EB65E465FD65F7D
:1003C4000961730020304111B7170040985F3AC6A5
:1003D400945F3247E39CE6FE324541018280B717C1
:1003E4000040130700032388E702854723A8F1820E
:1003F40073002030411106C6EF00502BF5BF2303D4
:10040400048015472303E48001002302A480828032
:1004140083076480E3CE07FE23030480828083077E
:100424006480E3CE07FE03454480828083076480B2
:10043400E3CE07FE2302A4808280411126C44AC26F
:100444004EC006C61377F50BAD47AA892E8995448D
:100454006306F70019456537653F8D444E8545377A
:10046400FD59FD1463983401B240A24412498249F3
:1004740041018280135509011375F50F453F220987
:10048400CDB7011126CC06CEB70408005137154567
:10049400BD37713769372AC6A53F324593771500B2
:1004A40089EB136515001375F50FF240E2440561FD
:1004B4008280FD14E9FC0145CDBF397126DC4ADA9E
:1004C4004ED852D656D45AD25ED006DE62CE66CC10
:1004D400B7E700E07D5783AA070022C603AA4700B6
:1004E40023A0E71823A2E718B717004013077005E5
:1004F4002380E704130780FA2380E70483C74704B3
:10050400930B75FFB684E20793FBFB0F8546AA891C
:100514002E8B328937240040E187015763FA760134
:100524006308D5008946130700026313D5000157F9
:10053400D98F93F7F70FB71C00402382FC041147AF
:100544002303E4801305F00F5D3D094CD135636D41
:100554007C11B7050700DA9537870700795563F2F0
:10056400E504B3879500636EF702370B0800A947CB
:1005740033EB65016399F90689E48144513D26858D
:100584000DA0DA850945553D05090345F9FFFD141C
:10059400050B693D81C49377FB0FFDF7DD3569FDDC
:1005A4007D55B7170040130770052380E704130730
:1005B40080FA2380E70403C74704418B2382E704BE
:1005C400F250B7E700E023A0571123A24711E254E9
:1005D40032445259C259325AA25A125B825B724C4B
:1005E400E24C21618280A5476395F9068569130968
:1005F400F00FB3069900B3742B01B6941349F9FFB5
:10060400B3749900856B33796901416B9387F9FF62
:10061400B3F7270199E363FC340193D94900C14737
:10062400E3E637FF99BF0569C1697D19D9B7130599
:10063400800D638869011305000263847901130541
:100644001008CA85DD3B353D21DD4E99B384344124
:10065400D9B7DA852D45D533CA94E30099F2050953
:100664007D3BA30FA9FED5BF9387F9FF93F7F70F3F
:100674006361FC0C83C71C0413073008631FF70471
:1006840037070800636BEB04B3079B00B706100041
:1006940063F5D704334BEB0089476393F9068980EC
:1006A400D549E38C04ECDA850945413B110903275C
:1006B400C9FF91472320E48003076480E34E07FECB
:1006C40023033481FD17EDFBFD14110B81C49377D3
:1006D400FB0FE9FF7D3371F5E1B5B717004003C7A0
:1006E4005704B70708001377070219E3B787070011
:1006F4007955E378FBEA33079B00E3FFE7F855B548
:100704008547E382F9F2DA852D45053B9389F4FFA9
:10071400E38504E6293393F7390091EB83260480BB
:100724000327090093074900E39AE6E43E89CE844F
:10073400F1BFB5476396F9001305900BC93135BD78
:10074400B1471305B00AE38BF9FE99476391F904A5
:10075400B7050800B365BB002D45C53181448D4BF9
:10076400A149753963967401832704802320F90015
:100774008504E39834FF8327048013172B01635502
:1007840007002312F900D5BB2322F900FDB39D47CE
:100794006399F90281451305B0044531BD44232012
:1007A400090023220900FD599D3993F77400CA9763
:1007B40003C70700FD14398D2380A700E39634FF97
:1007C4006DBBA1476392F9046D398144630D0B003D
:1007D4008D479304C0036308FB009304000563047E
:1007E4008B01930440041375C507E30895D8194594
:1007F400393139390545213126850D3909453D31D0
:100804004931E31C05D669BB91476399F900130587
:100814006006F536F53E130590090DB7E38F09D44C
:10082400F154A9BBBD66014717360000130686FBC9
:10083400938606A685458347060093F7F70F91C371
:1008440082800507E3F9E6FE97370000238CB7F8AA
:10085400DDB77D166206618693178601E18763D44E
:10086400070001458280931726003307F500AE97F1
:1008740018439C4363E7E7007D16E37FF7FC7D554F
:10088400828005458280FD15E205E1851397850187
:10089400618793F7F50F63480700FD15139725004B
:1008A4002A97584365D713851700620561858280AE
:1008B4003308B5021C4283A80600B335B502C297BB
:1008C40033B50701AE98469585486367B5006394D0
:1008D400A50063E3070181480C43C6950CC388C295
:1008E4001CC2828081471397870161876343B700E5
:1008F4008280139727002A97232007008507E5B7EE
:100904008147014793968701E18663C5B600133595
:100914001700828093962700AA9694428507558FE4
:10092400D5B793D755408A07AA979C4305453315F5
:10093400B5007D8D8280171300E0E70203092A8445
:10094400993705C5931725003E940327C4FF8147B3
:1009540011EB7D1516053E9542054185171300E000
:100964006700E30805838507E5B70145C5BF8147EF
:100974001397870161876343C70082801397270019
:10098400B386E50094422A97850714C3D5B77D162C
:1009940062066186014793178601E18763D50700E4
:1009A40013351700828093172600B306F500AE971F
:1009B40094429C437D16B58F5D8FF1BF8A05AA953D
:1009C40001476363B500828083A6C5FFF11593D701
:1009D4001600D98F9CC11397F601E5B72A83014805
:1009E400014701456343D7008280B387050183A88B
:1009F4000700B30706019C43C697AA976384F800CF
:100A040033B517010507B3080301620723A0F800F3
:100A140061871108C1BF2A8301478147014563C328
:100A2400D70082803388E50083280800330EE6006F
:100A3400032E0E003388A8403308C841638408019C
:100A440033B508018507B308E300E20723A00801D2
:100A5400E1871107E9B7171300E0E70203F7011173
:100A6400B286B2842E86AA850A8575372A84A6851D
:100A74000A85793533348000060413351500018D59
:100A84000561171300E0670083F6171300E0E7021F
:100A940043F14111AA89AE8A328BB68402C202C4E0
:100AA40002C60144131C8401135C8C4163499C02FB
:100AB400939B1400FD1B0549138CF4FFF15C330474
:100AC400890162046184634D740592478E04CE9457
:100AD40023AEF4FE4101171300E0670003F013197D
:100AE4002400B30B2B01014A93172A00D69783A540
:100AF4000B0088437800340050005D3B050A9317CF
:100B04008A01E187F11BE351FCFE92474E990504EB
:100B14002320F900A2473EC2B24702C63EC459B7D9
:100B2400131A8901135A8A41131D240093178A0149
:100B3400E18763CF970092470A044E941CC0A247F2
:100B440005091379F90F3EC2B24702C63EC485BFF8
:100B5400B3079A0313152A00569508417800340008
:100B64005000050AEA97DA978C439933C1B700001D
:100B7400197106C212C416C61AC81ECA22CC26CEC1
:100B84002AD02ED232D436D63AD83EDA42DC46DEE9
:100B9400CAC0CEC2D2C4D6C6DAC8DECAE2CCE6CE59
:100BA400EAD0EED2F2D4F6D6FAD8FEDA9385818270
:100BB4008841E700050092402242B2424243D243B8
:100BC4006244F244025592552256B2564257D257C5
:100BD4006258F25806499649264AB64A464BD64BBD
:100BE400664CF64C065D965D265EB65E465FD65F45
:100BF400096173002030B7E700E09843B70620008E
:100C040023A0D718758F0F10000001C599C1814723
:100C140011E6B7E700E023A0E7108280B386F50071
:100C240003C80600B306F500850723800601E31711
:100C3400F6FEC5B737E700E01C43B70620002320C3
:100C4400D718F58F0F10000001C53307C50011E652
:100C540037E700E02320F71082800505A30FB5FED7
:100C6400E31DE5FEF5B737E700E01C43B7062000B7
:100C74002320D718F58F0F10000001C599C1014733
:100C840011EA37E700E02320F710054582800507C5
:100C9400E309E6FE3308E500B386E50003480800EF
:100CA40083C60600E305D8FE37E700E02320F710EB
:100CB4000145828037E700E01C43B706200023206B
:100CC400D718F58F0F1000001307F6FFBA952A9670
:100CD4006317C50037E700E02320F7108280FD1575
:100CE40003C715000505A30FE5FEDDB737E700E0F0
:100CF4001C43B70620002320D718F58F0F100000DF
:100D040001C53307C50019E637E700E02320F710D3
:100D14000145828005058346F5FFE397B6FEE31B94
:100D2400E5FE37E700E02320F7100545828079715E
:100D34009387418522D4804306D626D24AD04ECE0C
:100D440052CC56CA5AC85EC64DCC37C9C901014BEC
:100D5400938981841309F937173A0000130A4AF476
:100D6400973A0000938ACAF797340000938484FB6F
:100D74008357240085E35C44631B0B0023AAF1849E
:100D8400832BC4002285EF0050265E84A9A8232665
:100D9400FB00FDB783A7090082971C443307F54085
:100DA4006375F500D8401D8F2A97636FE90697375E
:100DB400000023AF07F28355240003450400975035
:100DC40001E0E78000435C405844B9C70C44D0407C
:100DD400AE97BE8663E4B70063E4C700B386C7403A
:100DE40014C4228B3A8449F497370000938747EF61
:100DF4009C4B09476371F708F9171737000023293B
:100E0400F7EEB250225492540259F249624AD24A3D
:100E1400424BB24B4561828063150B0023AAE184E7
:100E240085B72326EB00A9BF03274A021DCF63E140
:100E3400A7043385A7408347040085E317370000E0
:100E4400034777E75917B307A7003E85D44063E407
:100E5400E70063E4D7003385D74083A70A016376AC
:100E6400F5009737000023A5A7E8228B4044A5BFCF
:100E7400D840BA977DBF9737000023AB07E651B738
:100E84009387C1849C4381CF411106C6829783C74F
:100E9400C18599E323A60184B2404101828083C7BE
:100EA400C18581E723A6018482808280411122C406
:100EB40017340000130444E51C4006C626C24AC089
:100EC40091C782979737000023A007E49737000063
:100ED40083C797EC858B173900001309A9EB89CFD9
:100EE400834779001947631CF70E97370000A385E1
:100EF40007EA69295C4482971C4491C382979384CE
:100F0400C183984017360000034696DD97370000EA
:100F140083C707DD93961700BA9683D60600E1CE01
:100F24009737000083C7C7DB63E1C70E973700001C
:100F3400238807DA1C4063940714938781849C43B5
:100F4400638F0712973700009387C7DDDC43173799
:100F54000000232FF7D8E13B9737000083C737E41D
:100F6400639F07109737000083C757E391CF8347E8
:100F7400790093F7F70F89EB97370000A38007E216
:100F8400977001E0E780C0D097370000938747D17E
:100F9400DC536386070E97370000938767D49C4B16
:100FA400F9CF834779001547636BF70C9737000037
:100FB40083C787E3918BE1E783C7C185E9E3904069
:100FC4009736000083C6D6D163C1D70C2244B24001
:100FD400924402494101175301E06700234F8347BC
:100FE40079001D47E31AF7F097370000A38607DA64
:100FF400712E1C4809B7850793F7F70F9736000041
:101004002380F6CEE3E4C7F021BF86073E978355DD
:1010140007002310070023920184938781859C4352
:10102400173500000345C5CB13172500BA979C4319
:10103400829783D7418417370000034767CA93C751
:10104400F7FF7D8D9317170098403E97835707004D
:101054005D8D2310A7009737000083C767C891C729
:10106400850717370000230DF7C61737000003471D
:1010740027C79737000083C7B7C6E379F7EAB240BA
:101084002244924402494101828013971700329707
:10109400035707006DF7850705BF37C70040832650
:1010A400C720B707FCFFFD17F58F2326F7200100A3
:1010B4000100973700009387A7C2C84F832787266C
:1010C4002326D7206A0593C7F7FF99835D8D828015
:1010D400EFF01FDB73000000000000009382C18565
:1010E4000383020023800200630F0300F3251034FE
:1010F4002EC0970500009385E5FD73901534EF002D
:10110400204A7300203086DCEF008049E65082805C
:101114000000138781881443411122C49C5E4AC095
:1011240006C6998326C2858B3A8413894188D1C720
:10113400930700069CDE17370000034707C6930792
:101144000008973400009384E4C4631BF7008327EA
:1011540009009C4393F7070417370000230FF7C2D5
:1011640083C7040093F707048DC3938781849C434A
:1011740082979737000023ADA7C283C7040093F773
:10118400F70B173700002307F7C083C7440093F712
:10119400070485E7854717370000A30FF7BE938739
:1011A40001899C433707020098C7130700FC973650
:1011B40000002383E6BE9848F8D318401C5F91834F
:1011C400858B99CF1C5F93E707011CDF9387018907
:1011D4009C4323A20706854717370000230EF7BA5E
:1011E40083270900D8430583058B19C7D843759B0A
:1011F400D8C3D843799BD8C3B2402244924402490D
:10120400410182803937730020309317D50063D1B0
:101214000702938701899C437D57B8D7973700000D
:10122400938707ACDC4F8507173700002328F7ACFA
:10123400937785008DCB9737000083C7C7B593E7B5
:101244001700173700002308F7B4930700F817377F
:1012540000002303F7B49387818898435C57F19B7C
:1012640093E717005CD7937715009DC39737000069
:1012740083C757B293E7170017370000A30CF7B0E2
:101284009387818898435C57F19B93E717005CD759
:101294009377650085CB93774500173700001307D4
:1012A40067AFCDC78347070093E7170017370000E0
:1012B4002302F7AE9387818898435C57F19B93E7A9
:1012C40017005CD79317F50063D4070217370000A3
:1012D4000347C7BA418B973700009387A7B241C32E
:1012E40083C7870793E70702173700002308F7B877
:1012F4009317E50063D507029737000083C7C7A992
:10130400E207E18763D70700854717370000230505
:10131400F7A8938701899C433707020098C793175E
:10132400C50063D4070217370000034737B5058BA0
:1013340097370000938707AD29C383C7970793E7BF
:10134400270017370000A30BF7B2828083473700CA
:1013540093E7170017370000A30FF7A2A1BF03C735
:10136400870789463D8B6308D70083C787070D47E6
:10137400BD8BE39FE7F6914785BF03C79707118BA2
:1013840069D783C7970793E7870065BF9387018968
:101394009443973700009387E79F03C70700058BA3
:1013A40011CB973700002389079E97370000A38548
:1013B400079E828003C71700058B65F7F85271FFFB
:1013C40083C75700DDB71387818803280700832765
:1013D40088039583858BADEF11C683270803BD83EE
:1013E4002300F6009DC61C43985B4607935767018C
:1013F4006356070093E707C0C207C183039706003B
:10140400C207C18709C7BA970947B3C7E702239040
:10141400F6008DCD8345150095C99737000083C725
:10142400C79793F7070413879500894585C33A95B1
:10143400834705000547994593F6F7066398E60048
:10144400E207E187814563D30700B9452E85828091
:101454008545EDBF411126C206C622C49384018985
:101464002DED9440AE87F8527DFF37F400E03E85C1
:101474009737000023810792832704D1B285ED9B1F
:101484002328F4D0832704D193E787022328F4D0B8
:1014940073005010976001E0E780006D93878188A6
:1014A4009C43B70680009843558F98C3D857719BC7
:1014B400D8D797370000A381078E97370000A38BF6
:1014C400078C9C40094798C3832704D193E787007E
:1014D4002328F4D07300501039A88D476313F50402
:1014E400938781889C43B70680009843558F98C39F
:1014F400D857719BD8D794401737000013078789B2
:1015040083472700858B89EB83473700858BD1C7B9
:101514009737000023820788B24022449244410155
:1015240082808547E319F5FCB7F700E003A707D1EC
:101534006D9B23A8E7D003A707D11367870223A8CD
:10154400E7D07300501098408177FD175447F58F0A
:101554005CC70F1000009840B70702001CC7930730
:1015640000F8173600002309F682938781889C438C
:101574009C439D83858B639FA700930760197CD34D
:1015840054C737F700E0832707D193E78700232860
:10159400F7D089B79307E01BDDB7FC52B5F3ADBFB5
:1015A400938701899C438847D847798D09C988C79F
:1015B4009387418903A307006303030002838280A6
:1015C400172700001307877F8346B701973700006A
:1015D40083C797814C4BB697FD8B33D7F50097267D
:1015E4000000A38DF67C97260000A38FF67E058B62
:1015F40015EF172700000347777FB3F7E70281460B
:1016040001471305000233D6E500058A1378F70F66
:1016140019CA6397D70097270000A381077B8280AC
:10162400850693F6F60F0507E31FA7FC82809387D0
:1016340081849C43011122CC4AC806CE26CA4EC6D8
:101644008297972700009387677980470149630150
:10165400A406BE8463668506018D1354550097273E
:10166400000083C747771379F5016360F404972971
:1016740000009389296BA93703A8840097260000EA
:1016840083C66675139756004297158C3A8683A5D0
:101694004900636407016364B7003306B7409727C2
:1016A400000023A1C774E378D4FC16043369240131
:1016B400F24062444A85D2444249B249056182807B
:1016C4009727000093870766DC433384874022957D
:1016D40069B79387018998438967938707F47CD313
:1016E4009387C1899C4383A60709139656006358C0
:1016F400060083A607091396660063440600745324
:10170400FDF282804111B7E700E022C4804337072D
:10171400200006C6798C23A0E7180F10000011C121
:1017240099E5B7E700E023A0871001454DA893078A
:101734003500C207C183F19BC207C183130740036D
:101744006365F7021387018B08431387818A144367
:101754006390A6021727000013078754185B71D300
:10176400C207DD8D054502976DBF1387C18AE9BFA6
:10177400035765002DEB035745006366F706B30670
:10178400F7402146637CD602032805009386870030
:101794001D8FAA966117172600000356C65423927C
:1017A400E60023A006012393060014C12312F500CA
:1017B400130786FF972600002397E6522313B500EC
:1017C4009725000083D52552B387F54017270000DD
:1017D400231BF750B7E700E023A087102105B24090
:1017E4002244410182800841A5B7B7E700E08C4359
:1017F4003707200023A0E718F98D0F10000001E53A
:1018040023A0B71082809387018B03A307009387DB
:10181400818A83A8070081469A8763FE170B03A871
:101824000700636DF50A636BA80A13878700636476
:10183400E50A03D66700216705076317E60003C7B7
:10184400B1870507A38DE1861725000013054549D7
:1018540003D64700035765002393070032974207D6
:101864004183172E00002310EE48638A6702138316
:10187400C18A032303006304F30203D366006310E5
:10188400030283D7460023A0060121073E962106C2
:101894002392C600972700002397E744B68798430E
:1018A400630B17039386C18A94426306D702835657
:1018B400670095E283D64700035647001843A10604
:1018C400B2962392D70098C383576500A1071727C0
:1018D4000000231AF740B7E700E01DB7BE86C287B1
:0418E4002DBF000014
:1018E80097110020938101B517510020130101F1D0
:1018F8001305400097E5FF1F9385457017060020E4
:10190800130606FE63FAC5008322050023A05500CE
:1019180011059105E3EAC5FE17C501001305050188
:1019280097050020938505FC1386018263FAC5009C
:101938008322050023A0550011059105E3EAC5FEA1
:1019480013850182972500209385055E6377B5008E
:10195800232005001105E36DB5FEFD42739002BC1E
:101968008D4273904280930280087390023097E210
:10197800FF1F9382A26893E232007390523097223D
:1019880000009382C20573901234730020303971BD
:1019980001436EC619A0397141536AC866CA62CC40
:1019A8005ECE19A0397101535AD056D252D44ED6B0
:1019B8004AD826DA22DC06DE3301614082824111F0
:1019C8004AC026C222C406C68282B24D4101024DD7
:1019D800924C224CB24B4101024B924A224AB249E4
:1019E8004101024992442244B240410182803D4370
:1019F8002A876373C3029377F700BDEFADE593764B
:101A080006FF3D8ABA960CC34CC30CC74CC74107A6
:101A1800E36BD7FE11E28280B306C3408A069702C1
:101A2800000096966780A6002307B700A306B700B4
:101A38002306B700A305B7002305B700A304B70022
:101A48002304B700A303B7002303B700A302B7001A
:101A58002302B700A301B7002301B700A300B70012
:101A68002300B700828093F5F50F93968500D58DF6
:101A780093960501D58D61B79396270097020000CC
:101A880096968682E78086FA9680C1171D8F3E96C5
:101A9800E374C3F8A5B73367B500FD530D8B79E739
:101AA800B7877F7F9387F7F710419441B372F600A9
:101AB8003363F600BE92B3E262006397720C631858
:101AC800D6065041D441B372F6003363F600BE9295
:101AD800B3E262006398720A631BD604104594450A
:101AE800B372F6003363F600BE92B3E2620063910C
:101AF800720A631ED6025045D445B372F6003363AA
:101B0800F600BE92B3E26200639A72086311D602CD
:101B180010499449B372F6003363F600BE92B3E2FB
:101B28006200639372085105D105E30FD6F61317C7
:101B3800060193970601631CF7001357060193D714
:101B480006013305F7409375F50F91E982804183CB
:101B5800C1833305F7409375F50F91E182801377C0
:101B6800F70F93F7F70F3305F74082800346050018
:101B780083C60500050585056313D60065FA330598
:101B8800D640828011059105E312D6FE0145828078
:101B98002105A105E31CD6FC014582803105B1056C
:101BA800E316D6FC014582804105C105E310D6FC49
:101BB80001458280B717004003C777051377E70F01
:101BC800A38BE704130700F8A38DE7043D47238C94
:101BD800E70413075003A38CE70403C7A70513778B
:101BE800D70F238DE7048280B717004003C7E702A9
:101BF8000D8941111377C70F498F93068008F3B6F3
:101C0800068093F6860836C60F1000009306700506
:101C18002380D704930680FA2380D7040F1000008E
:101C28002387E70223800704B247F3A707800F1032
:101C380000004101828041112A83014E930E407EAB
:101C4800130F0019930F400663E56E1293080019ED
:101C580013034006B3781503854E0D4FA14F337318
:101C680065020D891335150063EFBE121308F6FFE0
:101C7800794672984208135808013307C70213D6E9
:101C88001700BE0732976146B3F6C6021306807086
:101C9800B386C6023697A166F58F42075D8FB716E1
:101CA800004083C7F60293F70708A303F100034631
:101CB800710083C7F60293F70708E394C7FE8347CA
:101CC8007100B716004093F7F70F63880712930760
:101CD8008008F3B7078093F787083EC40F10000009
:101CE800B7170040930670052380D704930680FA3F
:101CF8002380D7040F10000023AA070383C6170305
:101D080093E60608A388D70223800704A247F3A70F
:101D180007800F1000001166B71700407D16D45BCE
:101D2800C85F93854703A98EF18EF5FA930680085C
:101D3800F3B6068093F6860836C60F1000009306A1
:101D480070052380D704930680FA2380D7040F10E8
:101D5800000098C103C7170313670704A388E702A5
:101D680023800704B247F3A707800F100000410142
:101D780082807D133368E3039308E016630E08003E
:101D88003368F3039308D016630808009378330088
:101D980093B818009388D81633081E01131E08013B
:101DA800135E0E0155B56393E50305486386080085
:101DB8000148630303002A8871087298FD15131EF1
:101DC8000801C205135E0E01C18179BD13F8150023
:101DD80063F4BF007908D5B713381800E5BF83C787
:101DE800F60293F70708A303F1000346710083C7BF
:101DF800F60293F70708E394C7FE8347710093F749
:101E0800F70FF1DFE9B531714AD966CB06DF22DD7C
:101E180026DB4ED752D556D35AD15ECF62CD6AC98A
:101E28006EC7AA8C02D8EF00901C2A8993078008F5
:101E3800F3B7078093F787083EDA0F100000B7174B
:101E48000040130770052380E704130780FA2380F6
:101E5800E7040F10000003C7F7021377770FA38773
:101E6800E70203C7F70213678700A387E702238007
:101E78000704D257F3A707800F1000000545AD33BC
:101E8800130780C13347E902116A93070AE89306EA
:101E98005002BD69930BA004814A014B13048008CA
:101EA800930470057D1AB347F9023307D7023EC081
:101EB800FD873ECC938709A69309803E3347F702F6
:101EC8003AC27D873AC4334739038549B3999901A2
:101ED80093D93940B306D702B30B7703B3C6F602DA
:101EE800B3CBFB0236C6FD8636C893D6FB4136CE49
:101EF800B7460F00938606243349D9028566938630
:101F080006FAB3969601B389E902130760553309B7
:101F1800D90293060010B389E9023349D902B3C93B
:101F2800F9029316390036CA37190040FD8636D0B3
:101F3800930D090493D7F9413ED2F336048093F602
:101F4800860836DC0F100000930770052380FD001B
:101F5800930680FA2380DD000F10000083463905C0
:101F680093F6860FA309D9048346390593E616002C
:101F7800A309D90423800D00E256F3A606800F10AA
:101F88000000130C80FA116DF336048093F686086E
:101F980036DE0F100000930770052380FD002380B4
:101FA8008D010F10000083463905216693E606026D
:101FB800A309D90483560905B3E6A6012318D90451
:101FC80083560905D18E2318D90423800D00F256B3
:101FD800F3A606800F1000008346390593F6060223
:101FE800638A061803463905218A6DDE0818EF0052
:101FF80010047336048013768608B2C20F100000EE
:1020080023809D0023808D010F100000B71700402A
:1020180003C637051376F60DA389C70403C637052B
:1020280013660602A389C704835609052166B3E629
:10203800A6012318D90483560905D18E2318D9047B
:1020480023800D009646F3A606800F1000008346F5
:10205800390593F606026386061483463905A18A74
:10206800EDFE97E0FF1FE7808002AA8636D497E04E
:10207800FF1FE780C001A256E30AD5FE8356090573
:102088004255B3E6A6012318D904D127834639055A
:10209800A18AEDDE03560905834629058247337672
:1020A800CA00B306DA0293D5F641B296B388F64071
:1020B800E24733B8C6002E983308F840A247B3B6B3
:1020C80016013308D84063C70701631DF80092471B
:1020D80063FA1701C247634DF80E63950701B247CB
:1020E80063E8F80E894663E7660FF2469315180011
:1020F80013D3F8015E8613951800B365B30042D672
:1021080046D4EF80312D3258050B137BFB0F634704
:10211800000163120838A258638F083613081500A7
:10212800B336A800B69513D6F5013298B336C80071
:10213800AE9613581800FE06B3E6060173360480FF
:1021480013768608B2C60F10000023809D002380F6
:102158008D010F1000000356C902B296C206C18253
:102168002316D90223800D00B646F3A606800F1069
:10217800000019BDF336048093F68608B6C00F1028
:10218800000023809D0023808D010F1000008346EE
:10219800390593E60602A309D90423800D00864673
:1021A80005BDF336048093F68608B6C40F10000008
:1021B80023809D0023808D010F1000008346390580
:1021C80093E60602A309D90423800D00A646A5BDFF
:1021D800E30D0BF0F336048093F68608B6C80F10AB
:1021E8000000930680FA23809D002380DD000F10F5
:1021F80000008346390593F5FC0F93F6860FA30973
:10220800D90483463905CD8EA309D90423800D004E
:10221800C646F3A606800F100000130580FA034691
:102228003905930639051D8A631496297336048087
:1022380013768608B2CC0F100000130680FA2380AC
:102248009D002380CD000F10000003C60600137602
:10225800F60D2380C60003C6060013660602238017
:10226800C600835609051166D18E2318D9048356F2
:1022780009052166D18E2318D90423800D00E6466E
:10228800F3A606800F100000130680FA834639056E
:1022980093F606026388062483463905130C39052C
:1022A800A18AFDDA08186123F336048093F68608BC
:1022B800B6D00F100000930680FA23809D0023807B
:1022C800DD000F10000083460C00116693F6F60D32
:1022D8002300DC0083460C0093E606022300DC00A2
:1022E80083560905D18E2318D9048356090521661A
:1022F800D18E2318D90423800D008656F3A60680B4
:102308000F100000130680FA8346390593F606027B
:102318006385062083463905A18AEDFE97E0FF1FF5
:10232800E780E0D62A8C97E0FF1FE78040D6E30CD1
:1023380085FF8356090511664255D18E2318D904A5
:1023480039238346390513063905A18AFDDAF336A0
:10235800048093F68608B6D40F100000930680FA1E
:1023680023809D002380DD000F10000083460600B7
:1023780093F6F60D2300D60023800D00A656F3A68B
:1023880006800F1000008356090503462905D24729
:10239800B376DA003306CA021305800C9355F6416A
:1023A8003696330DF6408257333CD6002E9C333692
:1023B800A601330CFC40330CCC40330885039256FD
:1023C8004E86B335A5033305A503C295EF8091006A
:1023D80063468001631E0C16630C0D161306150068
:1023E8003335A6002E959356F5013696B335D600AB
:1023F800AA959396F50105828585D18E6346B0002E
:10240800639D051A638B061A0356C90215823305A4
:10241800D6003336C500B2956348B00063910524F1
:102428001306F00F637DA622894663F356159307BA
:102438008008F3B7078093F78708BED60F1000000F
:1024480037170040930770052300F704930780FAB5
:102458002300F7040F1000008356C702896781170D
:10246800D58FC207C1832316F70223000704B65786
:10247800F3A707800F100000FA506A54DA544A593B
:10248800BA592A5A9A5A0A5BFA4B6A4CDA4C4A4D9C
:10249800BA4D296182801308F5FF3335A800FD1570
:1024A8002E951356F5013298B336C800AA9651B145
:1024B800F336048093F68608B6CA0F10000023800E
:1024C8009D002380AD000F10000083463905CD8E96
:1024D800A309D90423800D00D646F3A606800F1061
:1024E800000035BBF336048093F68608B6CE0F108D
:1024F800000023809D002380CD000F10000083463C
:10250800390593E60602A309D90423800D00F6468F
:10251800F3A606800F10000095BBF336048093F6EF
:102528008608B6D20F10000023809D002380CD00BE
:102538000F1000008346390593E60602A309D90463
:1025480023800D009656F3A606800F1000006DBB81
:102558009306F5FF33B5A600FD152E959355F501A5
:10256800AE96B3B5B600AA951396F501858269B5FE
:10257800F336048093F68608B6D80F100000930649
:1025880080FA23809D002380DD000F100000835611
:10259800C9020566011693F6F60FD18EC206C182EE
:1025A8002316D90223800D00C656F3A606800F1005
:1025B8000000850A93FAFA0F49B233E6B60045C21D
:1025C8000356C9023305D0403338A000B305B040E4
:1025D800B385054115826345B000D1E16371A60852
:1025E800894663F0560593078008F3B7078093F789
:1025F8008708BEDA0F100000B717004013077005F0
:102608002380E704130780FA2380E7040F100000F3
:1026180003D7C7027D8B2396E70223800704D6578A
:1026280081BDF336048093F68608B6DC0F100000EF
:10263800930680FA23809D002380DD000F100000A0
:102648008356C9020566011693F6F60FD18EC206A7
:10265800C1822316D90223800D00E656B9B7930725
:102668008008F3B7078093F78708BEDE0F100000D5
:1026780037170040930770052300F704930780FA83
:102688002300F7040F1000000356C7029397560063
:10269800B297C207C1832316F70223000704F6572F
:1026A800C1BB914763EEB70217A701001307871153
:1026B8008A05BA959C41BA978287B717004003A745
:1026C800470B1345F5FF698F23AAE70A03A7070BF2
:1026D800698F23A8E70A03A7070A798D23A0A70A09
:1026E8008280B717004083A6470B1347F5FFF98E82
:1026F80023AAD70A83A6070B558D23A8A70A83A662
:10270800070A758F23A0E70A8280B717004003A73E
:10271800470B498F23AAE70A03A7070B1345F5FFC1
:1027280045BFB717004083A6470B1347F5FF758FC2
:1027380023AAE70A03A7070A598D4DB7B717004020
:1027480003A7470B498FEDB7914763EEB70217A769
:102758000100130767088A05BA959C41BA978287D2
:10276800B717004003A7470D1345F5FF698F23AA44
:10277800E70C03A7070D698F23A8E70C03A7070C2D
:10278800798D23A0A70C8280B717004083A6470D38
:102798001347F5FFF98E23AAD70C83A6070D558D8D
:1027A80023A8A70C83A6070C758F23A0E70C8280AB
:1027B800B717004003A7470D498F23AAE70C03A7C3
:1027C800070D1345F5FF45BFB717004083A6470D12
:1027D8001347F5FF758F23AAE70C03A7070C598D3C
:1027E8004DB7B717004003A7470D498FEDB7B71787
:1027F80000408847420541819377050491EB937720
:10280800F5013755E801130505803345F502828047
:102818009377050C130700046397E7009377F50196
:1028280037459C1CCDB72165130505D0828037E755
:1028380000E01C435443A183E206D58F1CC1FD5719
:102848002320F7182322F7180F100000828013178F
:102858008500B7E700E023A0E710618123A2A71055
:102868008280B7F700E08847CC47828081473737B6
:102878000040A14663C4C700328582800345B74043
:10288800E38EA6FE3385F50003450500850723047E
:10289800A740CDB797F7FF1F9387C7399C431717F2
:1028A8000020130767683E95636EE5001747002010
:1028B8001307C7D46368A70017F7FF1F232CA73691
:1028C8003E858280FD57EDBF411122C406C62A8489
:1028D800393F2947B307E502B2408D83B3D7870252
:1028E80022449507B3D7E70237370040C207C183B0
:1028F8002316F740410182807165411113050520B7
:1029080006C6D937B7370040130770F82381E74068
:102918000D47A381E74013070004A380E74005475C
:102928002387E740B240410182802380018223A2AD
:102938000182B717004003A7070CB706C0FFFD16B2
:10294800758F23A0E70C03A7070DB7064000558F26
:1029580023A8E70C03A7070C3D9B23A0E70C03A7BC
:10296800070D1367070123A8E70C828023A2A18221
:1029780013064006894503C5C1826F30D10FB717CA
:10298800004003A5470C83A7470C59811345150040
:10299800C18B058999E31365250083C70182638C80
:1029A800A7002380A18201C99387418203A307005E
:1029B800630303000283828011456FF0CFC4411185
:1029C80093962500AA852D4506C697E0FF1FE78048
:1029D80080AEB240014541018280011122CC06CE71
:1029E8003714004026CA4AC84EC652C483447405E8
:1029F800034AB4058349840503499405EFF08F9B86
:102A08008347A40593F4F40F137AFA0F93E717009A
:102A1800230DF40493F9F90F1379F90FB717004050
:102A280003C7A705058B6DFF03D5C705A38D47050C
:102A3800238C3705A38C2705A38B9704F2406244A7
:102A4800D2444249B249224A056182804111939792
:102A5800050122C406C6C1872E8463DA0700EF3059
:102A6800214D19C1EF30A1402165218D1DA093F79B
:102A7800150013C5150091EF93F7250099CF01377D
:102A88001306000A894503C5C182EF30C17E13458C
:102A98002400B2402244410182809397250163D0EB
:102AA8000702EF50E140093F37F60200130606E03F
:102AB800896503C5C182EF30017C09657DB79397AD
:102AC80015010145E3D707FC17A50100130585D6B5
:102AD800EF80512913060064916503C5C182EF3068
:102AE8008179116559B72D71232A9110FD74E98CEC
:102AF800232C811023282111232631112A84AE8901
:102B08003289930600100A86A6852D45232E1110BA
:102B180097E0FF1FE780209A1315440151810A05A9
:102B280013962900CA850A9597E0FF1FE780600C75
:102B3800A68585660146254597E0FF1FE780A09793
:102B48000A86A68593060010294597E0FF1FE780AF
:102B580080968320C1110324811183244111032904
:102B680001118329C11015618280B7F7070003C7D7
:102B78000701411106C622C426C24AC0A547631AE6
:102B8800F7009537B2402244924402490145410179
:102B9800828013942500AA843289A286AA850146D8
:102BA800254597E0FF1FE7800091A2864A86A68503
:102BB800294597E0FF1FE7800090E9B71D71494656
:102BC80097A50100938585C217B50100130545B87F
:102BD80086CEA2CC97E0FF1FE780A00801E917A5E1
:102BE80001001305E5C1EF80F11701A037F700E0F8
:102BF800795610CBFD5654CBB7E700E0056423A007
:102C080087109306F00214C323A087180F10000042
:102C180017E7FF1F1307474C23A4E1824157A38AF4
:102C2800E740130600048145080897E0FF1FE78086
:102C3800200097070020938767953EC89D673ECC84
:102C4800B7070105938707103ECEED472310F10221
:102C580085472301F10297070000938787D6BEC2F4
:102C6800970700009387A7F0BEC48567938757D15D
:102C78002312F102970700009387E7BE3ED8B7F505
:102C8800070097070000938787D53EDC81469707A2
:102C980000009387A7D23000E10519453EDE231ACC
:102CA800810097E0FF1FE780008118088147994657
:102CB80030003E960346060085070507A30BC700AC
:102CC800E398D7FEC24791C70357410185676373ED
:102CD800F70001A00808EF303123AA8501C917A51C
:102CE8000100130525B3EF80A17301A0F6406644E7
:102CF80025618280411117050000130565D506C6B8
:102D080022C4EF30F11C1384C1822300A4002128BF
:102D18002939034504002244B2401306003289656C
:102D280041016F304155797106D613078008F33792
:102D3800078093F787083EC20F100000B7170040BE
:102D4800930570052380B704130680FA2380C7040F
:102D58000F10000083C6F70293F6A60FA387D702C9
:102D6800238007049246F3A606800F1000007337ED
:102D78000780137787083AC40F1000002380B70430
:102D88002380C7040F10000003C7F702136727004A
:102D9800A387E70223800704A247F3A707800F1041
:102DA80000000545EFE05FE40139814701478146AE
:102DB800054685451305407EEFE0FFE7680051466C
:102DC800814597E0FF1FE780A0E6B707C0A83EC887
:102DD800B787E803938707D03ECA680097D7FF1FD5
:102DE8009387275E3EC6EF301137B2504561828027
:102DF800411197A50100938565A717A50100130543
:102E0800E5BD06C6EF80C16117A50100130505BE23
:102E1800EF8001612945EF80A164B24041016F2034
:102E28007014411197A50100938585A217A501008B
:102E38001305C5BA06C6EF80A15E13050002EF8030
:102E480021622945EF80C161EF3021308567138603
:102E580007773376C502B2409387873803C5418325
:102E6800854541013E966F300141411197A501000A
:102E78009385859C17A50100130545B606C6EF8006
:102E8800215A13050002EF80A15D2945EF80415DBD
:102E9800B24003C54183854541016F30A15397076F
:102EA800002083C7B77B411193F7E70F06C61707C2
:102EB8000020A305F77AEF90F00A05E1EF20A02C97
:102EC800EF203066B2403726090003C54183130658
:102ED800067C854541016F30013AB240410182804C
:102EE800411197A501009385A59717A50100130522
:102EF800E5AE06C6EF80C1522945EF806156B24063
:102F0800410171BF411197A501009385A59317A5AC
:102F180001001305A5AC06C622C426C24AC0EF802C
:102F280021502945EF80C153EF90D00319E5224481
:102F3800B2409244024941019DB717F4FF1F1304A0
:102F4800A4A43C487179F5741D09FD142390270148
:102F58002391970017F5FF1F130505A7EFC0907A77
:102F68007C4417F5FF1F130525A617F4FF1F13044C
:102F780064A823900700EFC050771C48228523904F
:102F8800270123919700EFC0F0775C442285224403
:102F9800B240924402492390070041016FC0F07487
:102FA800411197A501009385258D17A501001305EB
:102FB800E5A206C622C426C2EF8081462945EF80D5
:102FC800214AEF90207A05E997A501009385C58AE3
:102FD80017A50100130585A0EF80814417A50100FE
:102FE800130585A2EF80C1432244B240924429458B
:102FF80041016F80E14613050002EF0050712A84F9
:1030080005E197A501009385258717A501001305FC
:10301800E59CEF80E14017A50100130565A0D9B72D
:10302800A547A300F5009307C0125CC1FD5723060E
:10303800F500EF00B06C2300A400084CB705D400DD
:103048009385851A3105EF10A05C084C8345040070
:103058003105EF20D069084C930500103105EF20A9
:10306800506A044C0565EF00007BB104AA852685EB
:10307800EF20F067084C9305A0103105EF20706829
:10308800044CFD26AA85B1042685EF2050662285CA
:103098002244B240924441016F00106D93F715002D
:1030A800B9CB411122C417A50100130525932E841D
:1030B80097A501009385858006C6EF80613629456E
:1030C800EF80013AEF90006A01C9D93D1345140019
:1030D800B2402244410182809707002083C71758D5
:1030E80093F7E70F93E7170017070020A308F75691
:1030F800EF20E00AE1BF01458280797197950100D0
:103108009385C57817A501001305458D06D6EF8070
:1031180021312945EF80C134614681452800EFE01F
:103128001F8DEF00B05DA547A304F1009307C012FF
:103138002304A1003EC60565FD57230AF100EF00F0
:103148001003EF9020621DE59795010093850574A3
:1031580017A5010013058588EF80812C17A50100AC
:103168001305858AEF80C12B2945EF80612FB25066
:10317800456182802800EF001060D5BF4111979506
:1031880001009385A57117A501001305258506C6BD
:1031980022C4EF80E1282945EF80812CEF90805CE4
:1031A8001DE5979501009385656F17A50100130527
:1031B800E582EF80E12617A501001305E584EF807D
:1031C80021262244B240294541016F8061294145A9
:1031D800EF00F0532A8405E1979501009385056C6B
:1031E800179501001305857FEF80812317A501003E
:1031F80013050583E9B7A547A300F5009307C01297
:103208005CC197A701009387E76F5CC9FD57230648
:10321800F500EF00B04E2300A400084CB705D40019
:103228009385851A3105EF10A03E084C83450400AC
:103238003105EF20D04B084CBD65A5053105EF20C1
:10324800504C084C930530023105EF20504A228536
:103258002244B24041016F003051411122C4979578
:1032680001009385E5642A84179501001305057705
:1032780006C6EF80E11AA2851795010013050578A7
:10328800EF80011A2945EF80A11D85476309F400E5
:103298008947630AF400B2402244410182802244F3
:1032A800B240410199BD2244B2404101C1BD011162
:1032B8003546979501009385E56717A50100130525
:1032C800E5B706CE22CC97E0FF1FE78080990DE591
:1032D800979501009385855F179501001305057083
:1032E800EF8001141795010013058551EF808127A0
:1032F8002945EF80E11601A097F7FF1F9387879F65
:103308003EC4856793870780340017A6010013061B
:10331800E65F97A501009385A58A17A50100130507
:10332800A58B3EC6EF2000102A840DC99795010091
:103338009385C559179501001305456AEF80410E1D
:10334800A285179501001305E55FEF80610D2945FA
:10335800EF800111F240624405618280EF80A01C79
:103368001795010013058557EF10E030EF50A012B4
:10337800EFE0302D17E5FF1F13050567EFE0101A82
:103388001795010013058556EFE0702D2A84EF107C
:10339800D00AEFA0A04DEF00714BEF201020EF10E6
:1033A800B065EFC0D03197950100938525521795E8
:1033B80001001305A56209C8EF808106A28517954B
:1033C80001001305655A51B7EF8081051795010073
:1033D8001305C55BEF80C1042945EF806108EFC084
:1033E8007014EF90203829C5979501009385054EF4
:1033F800179501001305855EEF808102179501007E
:103408001305455AEF80C1012945EF80610597955D
:1034180001009385A54B179501001305255CEF80E6
:103428002100179501001305255AEF70717F05B724
:10343800BD34F1BF411117050000130565C606C666
:10344800EF300129238AA18217E5FF1F1305855A4A
:10345800EF00D043A93DEFF04FCD1705000013054D
:1034680005E0EFF0AFD0B24081450565410165AE9A
:103478004111979501009385255C17950100130567
:10348800E55506C622C4EF70B1791384E1808345FF
:103498000400179501001305E565EF70717829455B
:1034A800EF70117C03450400B24022444101828040
:1034B80039711C0822DC3EC22E84B7072000B705EC
:1034C800D30026DA9385851AAA843EC448001C08CE
:1034D80006DE3EC6EF10C013EF005022AA85480052
:1034E800EF20F0209305A0104800EF2090214937E5
:1034F80093150501C1814800EF20B0209795010080
:1035080093858554179501001305454DEF7051714A
:103518008355840003566400179501001305855AE6
:10352800A18193F5F507EF70B16F2945EF705173DD
:10353800834794000147814693F7F707D917B337B4
:10354800F000B307F0402305F4005000A28526855B
:10355800EF10402C15C52A84979501009385C54E18
:103568001795010013058547EF70916BA285179594
:1035780001001305A556EF70B16A2945EF70516E29
:10358800F2506254D25421618280411122C426C271
:103598002A84AE84179501001305454497950100C8
:1035A8009385054C06C6EF70B16713050002EF70EE
:1035B800316B2945EF70D16A22852244B240A68535
:1035C80092444101F5B5797122D426D22E844AD08D
:1035D8008145B2842A896146280006D6EFE02FC1CA
:1035E800EF00D011A547A304F1009307C0123EC60F
:1035F8002304A100EF207135930720033375F502EA
:1036080097950100938505472AC81795010013056A
:10361800E53CEF70F160835584008306840003560F
:103628006400A18193F5F507179501001305454737
:10363800EF70115F2945EF70B1629840834727000A
:1036480083461700A207D58FBD6663C7F604834774
:1036580037002387F18083479400294793F7F707BA
:103668006385E700FD57230AF10083176400635957
:10367800F000FD57230AF1009307400602C83EC632
:103688002800EF001018A2854A851D35B250225433
:103698009254025945618280AD06E39ED7FA83446D
:1036A8005700F93326952387A18075B7011197959F
:1036B80001009385653D179501001305253232C633
:1036C80006CE22CCEF70D15513050002EF70515988
:1036D8002945EF70F1583246184283472700834640
:1036E8001700A207D58FBD6663CAF6008347370067
:1036F8002387F180F240624405618280AD06E39B36
:10370800D7FE03445700AD3322952387A180DDB748
:1037180039711C0822DC3EC22E84B7072000A1653F
:1037280026DA3EC4AA841C0893854520480006DE94
:103738003EC6EF00F06DB717004083A5470C480060
:10374800B18193C515008589EF20607A97950100AE
:103758009385C53B1795010013054528EF70514C1B
:1037680083558400035664001795010013058535B9
:10377800A18193F5F507EF70B14A2945EF70514ED5
:10378800834794000147814693F7F707D917B33762
:10379800F000B307F0402305F4005000A285268509
:1037A800EF10400715C52A849795010093850536C3
:1037B8001795010013058522EF709146A28517958C
:1037C80001001305A531EF70B1452945EF70514946
:1037D800F2506254D25421618280411122C426C21F
:1037E8002A84AE84179501001305451F979501009B
:1037F8009385053306C6EF70B14213050002EF70DA
:1038080031462945EF70D14522852244B240A6852C
:1038180092444101F5BDB717004083A7470C7D8D41
:10382800133515008280411126C2AE848D4522C40D
:1038380006C62A84EFE05FF1B717004099C803A5D0
:10384800C70C418D23A6A70CB240224492444101E3
:10385800828003A5870C418D23A4A70CF5B701111D
:10386800979501009385C52D179501001305051738
:1038780032C606CEEF70D13A13050002EF70513E02
:103888002945EF70F13D3246B717004083A7470C32
:103898001842B1838345070093C71700858B638659
:1038A800F500F24005650561BDBFF2400561828003
:1038B800797122D426D22E844AD081453289AA84AD
:1038C8006146280006D6EFE08F920D2DA547A30488
:1038D800F1009307C0123EC62304A100EF20F106B1
:1038E800930720033375F5029795010093854524C6
:1038F8002AC8179501001305650EEF7071328355BC
:1039080084008306840003566400A18193F5F507BB
:103918001795010013050527EF7091302945EF70C1
:10392800313483270900056583C50700ED3D8347CA
:103938009400294793F7F7076385E700FD57230AA3
:10394800F100831764006359F000FD57230AF10062
:103958009307400602C83EC62800312DA285268559
:10396800453BB2502254925402594561828041111C
:103978008D4522C406C62A84EFE01FDDB717004034
:1039880003A5870CB240218D224423A4A70C410132
:10399800828001113546979501009385A5F9179501
:1039A80001001305A54906CE97D0FF1FE780602BBD
:1039B80001E9179501001305251FEF70B13A01A021
:1039C800EF50316E2AC6EF00712AEF00B109EF609F
:1039D8005070F24032450561828041111305800420
:1039E80006C697C0FF1FE780006C37170040832783
:1039F800870A8D451305002093E707202324F70A3B
:103A0800EFE03FCAEFE05FEF17A50100130545D4CB
:103A1800EF7051351795010013054542EF70913449
:103A2800EFF0CF99EFF00FADAD37EFF0BFA097D023
:103A3800FF1FE780E09B01458280B7F7070003C7B7
:103A48000701A547AE866316F7009397450191C312
:103A580001A0AA850146254517D3FF1F6700A3A526
:103A68004111B2862E86AA852D4506C697D0FF1F1E
:103A7800E78060A4B24001454101828093070004B9
:103A880063E6C7021D71A2CC2A84080886CE32C616
:103A9800EF70B10DB2461008A285294597D0FF1FD7
:103AA800E78060A1F64066442561828039558280AE
:103AB800014797960100938666293388E500834776
:103AC8000800050709059183B69783C70700230FE8
:103AD800F5FE83470800BD8BB69783C70700A30F81
:103AE800F5FE93170701C183E3E9C7FC8280411102
:103AF800979501009385C51517950100130505EEE7
:103B080006C6EF70F11113050002EF707115B2408F
:103B1800294541016F70D1145C49411122C406C680
:103B28002A8491C7DC4381C72E850C4882971C4C98
:103B3800C84BEF20C1331C4CB240224423AA0700D3
:103B4800410182804111328506C622C426C22E84D4
:103B58004AC0EF202044AA84979501009385450E1A
:103B680017950100130585E7EF70910B0307840093
:103B78000356640083554400A68617950100130573
:103B88002520EF70F1092945EF70910D17040020E9
:103B9800130404A517090020130989AA8347040000
:103BA800639B970081452285853F8345C40103C5F2
:103BB8006183EF20310213040402E31124FFB240B1
:103BC800224492440249410182801C42011126CAC2
:103BD8004AC806CE22CC03C4270003C71700AA840C
:103BE8002204598C3D672E896378870003C44700F7
:103BF80083C7370022045D8C9795010093850503E0
:103C080017950100130585DD32C6EF707101A28595
:103C18001795010013058519EF7091002945EF707C
:103C280031049307A01032466316F400CA8526852E
:103C3800EFF0DFA797950100938545FF17950100E1
:103C48001305C5D9EF70C17D13050002EF7051014E
:103C58006244F240D2444249294505616F705100DF
:103C68001C42011126CA4AC806CE22CC03C427002A
:103C780003C71700AA842204598C3D672E896378EC
:103C8800870003C4470083C7370022045D8C9795DB
:103C980001009385E5F817950100130525D432C670
:103CA800EF700178A2851795010013052510EF70B4
:103CB80021772945EF70C17A9307A0103246631B1C
:103CC800F4006244F240CA8526854249D24405611F
:103CD8006FF07F8FF2406244D2444249056182808E
:103CE8001C42011126CA4AC806CE22CC03C42700AA
:103CF80003C71700AA842204598C3D672E8963786C
:103D0800870003C4470083C7370022045D8C97955A
:103D18000100938525F017950100130525CC32C6BF
:103D2800EF700170A2851795010013052508EF7043
:103D3800216F2945EF70C1729307A0103246631BAB
:103D4800F4006244F240CA8526854249D24405619E
:103D58006FF0BF83F2406244D244424905618280D9
:103D68001D719707002083C76789CEC686CEA2CC6F
:103D7800A6CACAC8D2C4ED8F97090020938949867C
:103D8800D9EF9707002083C76789ED8FD9EB97078D
:103D9800002083C7A78AED8F0145B5CB8947939447
:103DA80057001C103EC4B70720003EC617EAFF1F85
:103DB800130A4AC41C103EC88327CA0002CA02CC90
:103DC80002CE83D7070033849900184C231BF100D7
:103DD800FD77231CF1005C4B2E89B1E79795010014
:103DE800938505EA17950100130545BFEF704163F8
:103DF80017950100130545F0EF7081622945EF70B2
:103E08002166B387990003C5C7013345A900F64069
:103E18006644D6444649B649264A25618280814788
:103E2800BDBF8547ADBF83471400A555B9CFFD1762
:103E3800035607014C47A300F4008347C400280039
:103E4800230FF100EF20C0085285228797A60100B2
:103E5800938646AC30004C08EF00D01B2A8A55D117
:103E6800979501009385C5E117950100130505B7DE
:103E7800EF70015BD285179501001305A5E8EF7077
:103E8800215A2945EF70C15DD5552285713195BFFD
:103E98009C4DDC4B81CBD04183C5C50103C56183F3
:103EA8006F20613D82801C4EDC4BA1CBB9C541110E
:103EB80026C217950100130565B2AE8497950100D7
:103EC800938545DB06C622C43284EF706155A6850A
:103ED800179501001305C5E8EF7081542945EF7067
:103EE80021588345C4012244B240924403C56183EA
:103EF8001306400641016F20013882809387518361
:103F080003C50700130715002380E700828001110D
:103F180022CC17F4FF1F1304A46C26CA044C06CE47
:103F28004AC8DC484EC699CF045CDC4895CB244C83
:103F3800DC488DCB0145F2406244D2444249B24943
:103F4800056182800149AA891609EF107177C8C8EE
:103F5800330524011C4D23993701DC4BE9FFD9BFF8
:103F68000549D5B70949C5B710458345C50103C5F6
:103F780061836F204130411126C2AA84414506C69B
:103F880022C4713705E997950100938565D0179587
:103F980001001305A5A4EF70A148179501001305AA
:103FA80025A8EF70E1472244B240924429454101D7
:103FB8006F70014B6146A6852A84EF70013B084C5F
:103FC800B705D4009385851A31059925084C83C512
:103FD80004003105EF10B071084C9305001031054D
:103FE800EF103072044C0565EFF0FF82B104AA852A
:103FF8002685EF10D06F22852244B24092444101B9
:10400800A5B7411126C2AA84414506C622C4013774
:1040180005E9979501009385E5C8179501001305F3
:10402800E59BEF70E13F179501001305659FEF7061
:10403800213F2244B2409244294541016F704142D8
:104048006146A6852A84EF704132084CB705D40032
:104058009385851A31056D2B084C83C504003105FD
:10406800EF10F068084C9305A0103105EF10706947
:10407800044CEFF0EFBFAA85B1042685EF10306736
:1040880022852244B24092444101F9BDB707B1618B
:104098009387871A17F7FF1F232CF75AB787002033
:1040A8009387979917F7FF1F2326F75AB7976C142A
:1040B8001571938757B617F7FF1F232FF7588810E6
:1040C8009307802186CF17F7FF1F2329F758A2CD22
:1040D800EF004165B78799619387079011464C00B7
:1040E80028103EC2EFF0DF9C97950100938505BD2F
:1040F8000818EF70E147194697950100938545C365
:1041080013051103EFF0DF9A97950100938505BB1E
:104118001305D103EF70C14541469795010093857A
:1041280085C11305E103EFF0BF98130660032C1057
:104138008810EF00E16585476308F50A9795010047
:10414800938505B21795010013054589EF70412D38
:10415800179501001305C5B6EF70812C2945EF703E
:104168002130EF10917E9357850003C75183AA979A
:10417800BA9713570501BA976181AA97A38AF18262
:1041880097F7FF1F9387874017F7FF1F2326F746E8
:10419800854717F7FF1F2303F74697F7FF1F9387F6
:1041A800A74017F7FF1F2329F746894717F7FF1F6F
:1041B8002306F74697F7FF1F9387C74017F7FF1F98
:1041C800232CF746170500001305C5B9914717F7C3
:1041D800FF1F2305F746EF20A14FFE406E44238BB7
:1041E800A18201452D6182802A848C102800EF006D
:1041F80041606301850297950100938565A617853F
:1042080001001305A57DEF70A12117950100130585
:10421800A5AC99B741462C0017F5FF1F1305454279
:10422800EF70A1143DBFEFD2EFF72A8408452E891D
:10423800B28909C900C1970500009385E573610536
:10424800EFF0B07381447D5AEF10400463C3A404B7
:104258008144EF10A00463C6A40497F7FF1F938757
:10426800E7409C43DC47B307F94091872302F400F9
:10427800638109048327C900B307F4409587A30223
:10428800F4001C4C89C79C4799C3228582976FD03C
:10429800AFF45C44139714008504BA972390470140
:1042A80065B71C48139714008504BA972390070034
:1042B8004DB7832789000547B307F4409587A302C4
:1042C800F40083570400638EE7028DC309476384B3
:1042D800E7040D47E397E7FA979701009387C70428
:1042E8001CCC979701009387270511A89797010081
:1042F800938707CB1CCC97970100938767CB5CC843
:1043080049B7979701009387A7B61CCC97970100E8
:10431800938707B7EDB7979701009387A7051CCC3C
:104328009797010093870706D9BF85E1EFD22FE958
:10433800004618448347940075839D8B6315F700E6
:10434800EF00D01948C46FD0CFE98280EFD28FE553
:1043580013893500C16442094111AA890144F11445
:1043680013590901054A2EC6EF005072B24563463B
:10437800A400014541016FD02FE683A70900131758
:104388001400BA9783D707006388B700639497002F
:1043980063742A010504C1BF0545E9BFEFD2AFDF49
:1043A800AA892E89328BB6843A8ABE8AEF80803BEE
:1043B8004DC12685EF10B02D8D4763E5A7007D55CB
:1043C8006FD0EFE083DB4400EF0050722A84EF00E7
:1043D80030739307740031443305850263C5A7021F
:1043E800EF00D070EF0090702A84EF00707193078F
:1043F800740031443305850263CDA702EF00106FC6
:104408009307450019A8EF00B06F3305850213071D
:10441800F0179307C017E357A7FC2D55E3C277FBA6
:1044280063000B02D6865286A6854A85EFE0905631
:1044380041BFEF00F06C330585029307C5FFF1BF5C
:10444800832749001385C90083D52700013779F9E7
:10445800BDB76955B5B797F7FF1F239BA72097F7F7
:10446800FF1F9387A720904381470C463307F50029
:10447800420741836393B7008280544613984700EC
:104488008507C2962390E600D5B797F7FF1F938755
:10449800E71D9C4303C58700828017F5FF1F03555E
:1044A800251D8280EFD2AFD1C1671387D7FF63077D
:1044B800E5026368A700F117630EF50001456FD0A8
:1044C8004FD21387E7FF630EE500FD171D8D1335E7
:1044D8001500F5B7EF40A0347D15D5BFEF40201289
:1044E800E5BFEF408010CDBFEFD26FCD4111AA8458
:1044F80001442EC6EF00905AB2456346A400014518
:1045080041016FD00FCE9C48131514003E95835778
:104518000500E387B7FE0504E9BF03485500814657
:1045280093F7F60F63E5070181473E85828058457A
:1045380093975600BA9703D727006316B70003D797
:104548000700E304C7FE8506E1BF8346450001472F
:104558009377F70F63E4D700814711A81C4513161A
:1045680057000507B29703D60700E313B6FE3E854A
:104578008280EFD22FC393170501C18797FAFF1FD7
:10458800938ACA0E6353F00883A70A00C0479C4762
:1045980003570400198D420541816366F500014403
:1045A80022856FD06FC312052A94DDBFDC471394B0
:1045B8004900014A3E94834744006341FA02014A94
:1045C800834754006346FA028509C20993D9090151
:1045D80083A70A009847E3EBE9FCD1B71C441319F9
:1045E8005A00A6853E994A85013709ED050AE1B7C3
:1045F8005C4413195A00A6853E994A85F53519E198
:10460800050A7DBFE30209FC61BFAA848149C9B7D5
:10461800EFD2EFBA1C452A8481E79307C5001CC571
:104628001C44231204001CC09307F00F63E9B70071
:1046380093F5F50F2285EF10900B6FD08FBA9394F6
:104648000501C167C18063F7F500A6852285EF10D3
:10465800B00DE5B7C18193F5F50F2285EF1030094C
:10466800A6852285EF10F009C9BF97F7FF1F93872A
:10467800E7FF884382801C4599C797F7FF1F23A748
:10468800A7FE014582807D55828097F7FF1F93879B
:10469800E7FD984383474500484792073E95828047
:1046A800EFD2EFB1617100451C183EC6B707800113
:1046B8003EC81C183ECA8357440002CE02D002CC22
:1046C800231EF100834784002A8902D22301F102C4
:1046D8003C083ED402D6553F835705002316F10205
:1046E800EF3070632307A1025C4003556400F18337
:1046F80013F717008347F10252055181F99BD98FAF
:10470800A307F102EFE0701A39C5AA840355050022
:10471800EF80200683D704002AD26800231CF1000A
:1047280083D72400231DF1001C4803D647008C437F
:10473800EF10007A8347B400CA8617860100130673
:10474800A66C8117A305F4006C004810EFE09024D4
:104758005D616FD00FA92155E5BF1C45B1CF03C5D9
:10476800A700894613576500630BD7028D46630E71
:10477800D70285466300D702130740063305E502D2
:1047880003C7B700418B15CB83C7B700BD8B335523
:10479800F54082801375F5031307803EC5B7096796
:1047A8001375F50313070771D1BF37270900137570
:1047B800F5031307077CD9B701458280EFD22FA0F4
:1047C80003A98500630409048347B900AE8493F7FD
:1047D800070E91CF03459900930520030D81050528
:1047E800B305B50288446105EFF0102505A02E85B4
:1047F800AD372A8401CDDD218325C900B307B54033
:1048080063F887002E94B305A440E9FD6FD06F9D2F
:104818008545C9BFEFD2AF9A2A8403D50500011197
:1048280032C636C43AC22EC002CA02CC02CEEF70DB
:10483800507482452ACA22852ECC813D0357050033
:10484800231EE100EF30304DA24632469247230F37
:10485800A10036874C08B28622850146EFF01FB4C6
:1048680005616FD00F98EFD28F9561711C183EC605
:10487800B70780013EC81C183ECA3C0800453ED414
:10488800AA8402CC02CE02D002D202D6EFF0FFDF19
:104898008357050035592316F102EF30D047230717
:1048A800A10209C48357440091E721594A855D61F3
:1048B8006FD02F930355640052055181EFE0E07EDD
:1048C8002A8965D58347B40093F7070E89C713056E
:1048D8008401EFF0F01783574400231EF10083474B
:1048E80084002301F1025C4003550900D98313F7C2
:1048F800070883471102231CA10093F7F707D98FF4
:10490800A300F10283572900231DF1005C40F183C5
:1049180013F717008347F102F99BD98FA307F10218
:10492800EF7030652AD251D18347940068001397FD
:1049380057008347B400FD8BD98FA305F4001C48AA
:1049480003D647008C43EF10A058A68717870100AD
:104958001307874B740005464C102685EFF01FA4FB
:104968002A8929D58347B400A685FD8BA305F400C1
:10497800B1352DBFEFD2AF84832485FE2A8441113F
:104988002685EFF09FDD834734FF93F7070E9DC31D
:104998002AC62685EFF0DFD019C9834734FFB24510
:1049A800FD8BA309F4FE81C52285EFF0F0084101D3
:1049B8006FD02F836DDD8327C4FF2685829765F925
:1049C800834734FF93F7070E81C72285EFF050081D
:1049D800032584FE493DE1BFEFC27FFB9C414111A5
:1049E8002A8903C7070089472E8493566700638C7A
:1049F800F6020D466382C6049307F0076302F702C6
:104A08002E85EF102059AA848149C16B130C4900E7
:104A180097F7FF1F938787C59C43984763ECE90284
:104A280041016FC09FFA03D745008547E3FAE7FEC7
:104A38002E85EF10005AC1BF03D74500E3F2E7FE09
:104A48002E85EF102055AA842285EF100056C20447
:104A5800C98C5DBFDC470355A900139A49003E9AEB
:104A680093170501C187635DF00083570A006395BA
:104A7800A70263E574038327CA00034D5A001DA0EB
:104A8800A1672167A98F1307F7EFE374F7FE639512
:104A98000900EFF03FA171FD85099DBF83278A00BA
:104AA800034D4A00835DA90003576900216A138BEF
:104AB800C7003AC6814A33CA4D01631E5D0197F7A4
:104AC800FF1F938727BB9C43E1DBA2866286814553
:104AD80026858297D1B7A1679387F7EF930C4BFF91
:104AE80063F04703B2455A85EFF05F8619CD032777
:104AF8008B00104719CA10436380C4023107D5BF21
:104B0800EE856685EFF05F9E71FD93861A0093FA35
:104B1800F60F130B0B0255B7835644005C43E3EDC5
:104B2800F6F622853AC6EF10E035A1679387D704D9
:104B38002A8A035D4400324763E897008347D90017
:104B480093E707F8A306F9001C4766852286E285E5
:104B58008297C1670844FD17337AFA00529508C056
:104B68002312A40115BF97F7FF1F938727B0984317
:104B7800814715C31447814763FFD50093974500C4
:104B88004C47BE9519C903C7550081476375E600B0
:104B9800DC451606B2973E85828003C745008147EB
:104BA800E37BE6FE16069C45F5B7EFC2BFDFAA8990
:104BB8002E8A814497FAFF1F938A4AAB83A70A007B
:104BC800984763E4E4006FC03FE1DC471394440076
:104BD80001493E9413BB140083474400634BF9001A
:104BE800014913BB140083475400634FF90085043F
:104BF800F1B70844931759005287DA860146A2850F
:104C08003E9582990509C9BF4844931759005287B0
:104C1800DA860546A2853E9582990509E9B7EFC26D
:104C28001FDA814517F5FFFF1305256097F7FF1F6A
:104C3800239007A49D3F6FC0DFDA97F7FF1F938784
:104C4800E7A29C4399CBEFC29FD7814517F5FFFF99
:104C58001305A55D993F6FC0DFD88280EFC29FD44E
:104C680041112315E1002E89B284B6893A8681461E
:104C78000147ED452A84EF20A10D2AC61DCD035614
:104C8800A100CE85EF60616ECA852285EF20A12044
:104C9800058915C1228501462C0023149100EF20B7
:104CA80081362A8409C5ED452800EF20C1182285E0
:104CB80041016FC07FD24944FDB76554CDBF5C4107
:104CC800FD175CC18280EFC29FCFEF10E14E954780
:104CD8003305F50281450D816FC0BFD0EFC23FCECD
:104CE800EF10814D95473305F5020D816FC07FCFD9
:104CF800EFC2FFCC03550500EF10D1616FC07FCE26
:104D0800EFC2FFCB035505003287AE8617D6FF1FCB
:104D1800035626D597F5FF1F9385059681376FC0F3
:104D28005FCCEFC2DFC9EF50F1366FC09FCBEFC247
:104D38001FC997F5FF1F93852594EF20A1330145DF
:104D48006FC03FCAEFC2BFC7814517D5FF1F0355C4
:104D580045CDEF20611E6FC0DFC8EFC25FC697F573
:104D6800FF1F93856592EF20E13001456FC07FC733
:104D7800EFC2FFC4814517D5FF1F035585D0EF202B
:104D8800A11B6FC01FC6EFC29FC32E85EF60C04C2A
:104D9800EF6010026FC0FFC4EFC27FC2EF60F00B7C
:104DA8006FC03FC45C49E1175CC95CC583572501E6
:104DB800A1072319F50083570501A1072318F5005A
:104DC8008280F1473305F50297F7FF1F9387C78D58
:104DD8009C433E9582808D476317F60603D74600AD
:104DE800854763F2E706EFC29FBD368536842E8974
:104DF800EF10401A39C18357440093140501C1804C
:104E080063ED97022285EF10E018FD142312940039
:104E18009307A002630EF5009307B0026301F50241
:104E280093079002631BF5002285EFC0507731A0ED
:104E38000146CA852285EF8080036FC09FBA22850C
:104E4800EF003056DDBF828097F6FF1F93860686F7
:104E58009C42014599CF9843D44217F6FF1F232758
:104E6800E6846396D70097F6FF1F23A3E68413858D
:104E7800C7FE8280EFC2BFB4D126714433058502D4
:104E88009145EF70E05601E565556FC09FB597F7FE
:104E9800FF1F23A9A7805D26330585029145EF7082
:104EA80020557DD197F7FF1F23A0A780412E97E7B4
:104EB800FF1F2393A77E592697E7FF1F239FA77CF1
:104EC80097870100938787F917E7FF1F232AF77C45
:104ED80097070000938747ED17E7FF1F2320F77C0C
:104EE800014565B7EFC2BFADAA8517E5FF1F1305DA
:104EF800A57AEF10001E6FC0DFAEEFC25FACDD37E2
:104F0800EF10A01E97E7FF1F9387477A9C4381CF36
:104F18001387C7FE09CB83D5C7FF17E5FF1F130506
:104F28006579EFF060316FC0DFABEFC25FA9EFF0DA
:104F3800BFF119C9834785002A8493F7070499E7C5
:104F48000355E500EFF07FFB6FC0BFA98347C5009D
:104F58009304450117E9FF1F1309497585E3832762
:104F680009005CC997E7FF1F23A2977483274900AC
:104F7800E1FF97E7FF1F23AD9772F9B7FD172306E7
:104F8800F5006105EF60E0728307840063C90704D8
:104F98008347840093E707F82304F400EF10E11A2D
:104FA8004205A94741813375F5028347840093F789
:104FB80007FCC98F2304F4008347D4003E951C40A6
:104FC8002318A40089CF984319CB8347C4005040C5
:104FD800814585073305F5024205418102978327FC
:104FE80009005CC897E7FF1F23A2976C8327490035
:104FF80089E797E7FF1F23AD976A8347C400A9D7BE
:105008008355040117E5FF1F1305C56AEFF0C02299
:1050180025BFEFC2DF9A97F7FF1F9387E78E9C475C
:1050280001448583858B81EFAE84B2853A86EF1083
:1050380020112A8409C5EF102008829408CC228503
:105048006FC03F9AEFC21F9641112E8932C6AA89B6
:10505800712C324713060502CA869705000093850E
:1050680085D617E5FF1F13052563EFF09FFA2A84FD
:1050780029CD9304C5004D261946AA852685EF003B
:10508800306585452685EF001062178501001305F8
:10509800A5DA4E95834505002685EF0050655C48E6
:1050A80031468145A1075CC85CC483572401E117D8
:1050B8002319F40083570401E1172318F4001C4C4A
:1050C8003E85EFC0DF92A3042501228541016FC010
:1050D800BF90EFC2DF8E4111AA842EC632C4EF10F2
:1050E8000000004DB2452246834784000CC050C0E2
:1050F80093F7F70393E707042304F4002318040045
:105108002685EF00707B83479400A9462317A400E7
:1051180013D7370005073307D7029D8B850723066A
:10512800F400A306E40083C70401D8488507230FC9
:10513800F7FE17E7FF1F130767575843232A040092
:10514800930744011DEB17E7FF1F2323F75617E7C3
:10515800FF1F232DF75417E4FF1F1304A4552285BE
:10516800EFF040031C44858B5D8D09E58145228560
:10517800EFF0800C41016FC0DF861CC317E7FF1FEB
:105188002328F752C9BFEFC29F8397050000938574
:10519800C5C40145EFF03FBF01456FC09F84EFC212
:1051A8001F82EFF07FBF6FC0DF838347C500A1E791
:1051B800EFC2FF802A840355E500EFF0BFD215C97E
:1051C8008347840093F7F7FB2304F4001C4091C73E
:1051D800DC4381C74C4001458297EFF0FFC617E5D5
:1051E800FF1F1305254DEFF0A0060355E400EFF06F
:1051F800DFD06FC00FFF8280EFC26FFC97E7FF1F01
:105208009387C74A97050000938565D217E5FF1F66
:105218001305454A23A0070023A20700EFE0F07515
:105228006FC02FFC1C4D91CBDC4381CBEFC22FF913
:105238008345070082976FC0CFFA828097E7FF1FE8
:10524800938787499C4303C50700828097E7FF1F20
:10525800938787489C4303C51700828097E7FF1F01
:10526800938787479C4303C52700828097E7FF1FE2
:10527800938787469C4303C54700828097E7FF1FB3
:10528800938787459C4303C53700828097E7FF1FB4
:10529800938787449C4303C55700828097E7FF1F85
:1052A800938787439C4303C56700828097E7FF1F66
:1052B800938787429C4303C57700828097E7FF1F47
:1052C800938787419C4303C58700828097E7FF1F28
:1052D800938787409C4303C59700828097E7FF1F09
:1052E8009387873F9C4303C5A700828097E7FF1FEA
:1052F8009387873E9C4303C5B70011E11D45828013
:1053080097E7FF1F9387473D9C4303C5C7008280EB
:1053180097E7FF1F9387473C9C4303C5D7008280CC
:1053280097E7FF1F9387473B9C4303C5E7008280AD
:1053380097E7FF1F9387473A9C4303D5070182806D
:1053480097E7FF1F938747399C4303C5270182804E
:1053580097E7FF1F938747389C4303D5470182800F
:1053680097E7FF1F938747379C4303D567018280E0
:1053780097E7FF1F938747369C4303D587018280B1
:1053880097E7FF1F938747359C4303C5A701828092
:1053980097E7FF1F938747349C4303C5B701828073
:1053A80097E7FF1F938747339C4303C5C701828054
:1053B80097E7FF1F938747329C4303C5D701828035
:1053C80097E7FF1F938747319C438857828097E769
:1053D800FF1F938767309C4303D5C702828097E7F6
:1053E800FF1F9387672F9C4303D5E702828097E7C7
:1053F800FF1F9387672E9C4303C50703828097E7A7
:10540800FF1F9387672D9C43C85B828097E7FF1F28
:105418009387072C8843828097E7FF1F9387872B02
:105428008843828019E17D558280F5DE984265DFE8
:10543800FDD917E7FF1F1307274D1847AA8771558E
:10544800058B6316072203C507001547E37DA7FCF4
:1054580003C737001305F0057D171377F70FE364CB
:10546800E5FC03C35700E30003FC83C86700E38C33
:1054780008FA03C77700494579171377F70FE364EC
:10548800E5FA03C7A70011481305F7FF1375F50FD1
:10549800E36BA8F803CE97000D481305FEFF1375BC
:1054A800F50FE362A8F803C8B70063090800651898
:1054B8001378F80F1305600DE36705F703C5C700F8
:1054C800794879151375F50FE36FA8F403C8D70069
:1054D8000D457D181378F80FE36705F503D8070124
:1054E800930E40175118420813580801E3ED0EF3C4
:1054F80003C8E7007D181378F80FE36605F303C8BF
:1055080027017D181378F80FE36F05F103C88700AA
:10551800C54E75181378F80FE3E70EF103D8670145
:10552800856E938EBEE06D18420813580801E3ECAF
:105538000EEF03D847016D18420813580801E3E439
:105548000EEF03D887017918420813580801E36C55
:1055580005ED03C8A7017D181378F80FE36505ED7D
:1055680003C5B7011D487D151375F50FE36DA8EA4E
:1055780003C5D701714879151375F50FE365A8EAD6
:1055880003D5E7011308E00F7D1542054181E36C5F
:10559800A8E803C50702494879151375F50FE364B0
:1055A800A8E883AE470237C534001308F5BFE36C9B
:1055B800D8E703A88702130555BF5918E36505E71F
:1055C80017E5FF1F2328C51003C6050117E5FF1FB0
:1055D8002324F5100545E378C5E403D82501D0490F
:1055E80033760603E31106E403C61501E30D06E26C
:1055F80017E6FF1F232EB60C83C5270001466387D5
:10560800A50003C61700F1453306B60283C7070392
:105618009305C00272971A071307C70516031A974E
:1056280096084697B387B70241553E973297420787
:105638004183636EE802EFC28FB83685EF6070650C
:10564800EFD0701B2A84EF8090122A94EFC0501F6D
:105658002A94EF60F07C2A94EFF0DF812A94EF20FF
:1056680010612A94EF50606222956FC08FB78280D4
:10567800EFC2EFB44111A307A100EF8060139305B7
:10568800F10017050000130525BAEFF00FD2014508
:1056980041016FC00FB5EFC20FB017E4FF1F13042D
:1056A800A4260328840079599368180097E4FF1FFB
:1056B80023A0142713781800631E0800BA84BE8933
:1056C800368B328A2E89AA8AEFE03FDC7D15269533
:1056D80009E531594A856FC08FAFEFE01FDB7D15B3
:1056E8002695A167E357F5FE97E7FF1F938787582D
:1056F80098433E8C814B11C70145EFC07038933BEE
:1057080015004A85DA865686D285EF70502C2A898C
:1057180011CD1C44F99B17E7FF1F232BF71E832786
:105728000C00CDDBE3880BFA82976DB7268597E7E7
:10573800FF1F23AD071CEFE01FD24146CE8517E5BA
:10574800FF1F1305E525EF505142EFA090040325F4
:10575800040BEFA090060545EFA0900C0545EFF06F
:105768003FF18DBF97E7FF1F9387071A9C47858BEB
:10577800D5C7EFC2CFA417E5FF1F1305A52097E7EC
:10578800FF1F23A3071897E7FF1F23A1071897E711
:10579800FF1F23AF0716EFE0B02BEF30D07FEFE00D
:1057A8005003EFE0D00797E7FF1F938767149C43E8
:1057B80081C70545EF60502997E7FF1F938707FDCD
:1057C8009C4389C741657D15EF50C067EFC03034F1
:1057D800EFA0007D97E7FF1F9387C7279C43139788
:1057E800170163540700EFC0603F97E7FF1F23A925
:1057F800071A97E7FF1F23A7071A97E7FF1F23A595
:10580800071A97E7FF1F23A3071AEFF05F999D2355
:10581800EFF0EFC0EFC040616FC0AF9C8280EFC275
:105828006F982A849304140201112E85B289A685E3
:10583800214636C63A89EF50F1301DE1B2463808A4
:105848002686CE8513059404EF40404121462C0856
:105858004A85EF50312F1335150005616FC0CF977A
:105868000145E5BFEFC2AF959305450617E5FF1F54
:105878001305C5E6EFE0501C6FC0AF96EFC22F943A
:1058880041112EC6EFF08FC5B24588C141016FC0E6
:105898004F95EFC22F91AA842E84EF60B06FAA892A
:1058A80085452285A92583C7E4011389940899E3CE
:1058B80013890403CE8522851D2D214693051902DF
:1058C8002285392597E7FF1F938707048C43228594
:1058D800EF0060682146938584022285D52B6FC02E
:1058E800AF8FEFC24F8B3971EFC0604A9305400606
:1058F80045EDEF603067630E051097E7FF1F83C71C
:10590800A7DF13B7170097E6FF1F2387E6DE0144DA
:1059180089CFC16417E9FF1F130909FF9309400ED6
:10592800FD14EFF0BF9A6348A408EFF02FBB41695C
:10593800B7290900096AFD7A2A8B81447D19938960
:10594800F97B130A0A71938A8AC7EFF03F9863D5E7
:10595800A4041304400EB387840217E7FF1F13073C
:10596800A7FA0324070B3E948357C40163862709CB
:1059780018403307EB4063EAE90083474400850792
:10598800B3874703D6976369F706014681450945FA
:10599800EFF04FEBAA8B29E1EF2090598547631F61
:1059A800F50489659385057117E5FF1F130505D370
:1059B800EFE09008A1A8B30734030327090BBA97AF
:1059C80003D7C7016308970003C75700A3820700DE
:1059D8002382E7000504B1B79305C5002285EFF0DF
:1059E8005FEB5E8522869775010093852546EFF06B
:1059F8004FEE5E85EF00606F850481BF97E7FF1F5C
:105A0800938787F09C478D83858BC1FF21616FB099
:105A18001FFC01468545094502D002D202D402D6B0
:105A2800EFF04FE2AA847DD1EFC0A0351389C400FE
:105A38002A8481454A8565290C4041464A85492979
:105A480083294400638809084E8502D802DA02DCFB
:105A580002DEEF5011332ACE141005462C08081820
:105A68004ECCEF4040171375F50F2DE58355840094
:105A780093E525004A854D2911460C104A85892948
:105A88000146977501009385E53C2685EFF06FE4A4
:105A98002685EF0080655C40B5DB014685450D45F0
:105AA800EFF04FDAAA843DD148401389C400EF5083
:105AB800512D2AC64A85E12E3246636AC5004C40FC
:105AC8004A853921014681452685EFF08FE02685F4
