:040000006F109036B7
:100004000000000000000000900000206A030020AF
:10001400A9BDF9F560040020000000000000000004
:100024006004002090000020000000000000000098
:10003400900000200000000090000020000000005C
:1000440090000020900000209000002090000020EC
:1000540090000020941A002090000020000000006E
:1000640090000020900000209000002090000020CC
:10007400C604002090000020900000209000002082
:1000840090000020900000209000002090000020AC
:1000940001A073270080218B9387018209CB7327EA
:1000A400008023A0E18298435D9B731007800100C8
:1000B400010037170040930670052300D704930608
:1000C40080FA2300D704010001008346B70493F6A5
:1000D400F60DA305D70423000704F32600809843F4
:1000E400218B558F7310078023A00182010001002A
:1000F40013770502630F071073270080218B09CB48
:100104007327008023A0E18298435D9B73100780CE
:100114000100010037170040930670052300D7043F
:10012400930680FA2300D70401000100B7061400E7
:100134007D89558D08C701000100010001002300DD
:100144000704F32600809843218B558F7310078092
:1001540023A001820100010073270080218B09CBB9
:100164007327008023A0E18298435D9B731007806E
:100174000100010037170040930670052300D704DF
:10018400930680FA2300D704010001000100010056
:10019400B726004013061005A383C6802300070476
:1001A400F32600809843218B558F7310078023A07A
:1001B40001820100010073270080218B09CB732782
:1001C400008023A0E18298435D9B731007800100A7
:1001D400010037170040930670052300D7049306E7
:1001E40080FA2300D704010001008346B70493E694
:1001F4000608A305D70423000704732700809C4343
:10020400A18BD98F7390078023A001820100010084
:1002140082801377050455C373270080218B09CB93
:100224007327008023A0E18298435D9B73100780AD
:100234000100010037170040930670052300D7041E
:10024400930680FA2300D70401000100B7061400C6
:10025400938606047D89558D08C7010001000100BD
:10026400010023000704F32600809843218B558F57
:100274007310078023A0018201000100732700800E
:10028400218B09CB7327008023A0E18298435D9BD7
:1002940073100780010001003717004093067005B2
:1002A4002300D704930680FA2300D7040100010039
:1002B400B726004013062005C5B573270080218B9F
:1002C40009CB7327008023A0E18298435D9B7310C0
:1002D40007800100010037170040930670052300D2
:1002E400D704930680FA2300D704010001001447C1
:1002F40093E6060C14C75DB541118146014681455C
:10030400114506C6792CF3270080A18B93860182C0
:1003140089CBF327008023A0F1829C42DD9B73905C
:10032400078001000100B717004013077005238000
:10033400E704130780FA2380E7040100010003C7E0
:100344006704136717002383E704238007047327D4
:1003540000809C42A18BD98F7390078023A00182D7
:1003640001000100B240410182808146014681457D
:100374001145052CF3270080A18B1387018289CBBB
:10038400F327008023A0F1821C43DD9B7390078038
:1003940001000100B7170040930670052380D704BD
:1003A400930680FA2380D70401000100FD562396AA
:1003B400D70223800704F32600801C43A18BD58F2A
:1003C4007390078023A0018201000100F3270080BD
:1003D400A18B89CBF327008023A0F1821C43DD9BF2
:1003E4007390078001000100B71700409306700561
:1003F4002380D704930680FA2380D70401000100E8
:1004040083C6670493E616002383D7042380070476
:10041400F32600801C43A18BD58F7390078023A003
:1004240001820100010001A0BD473305F50201006E
:100434007D1575FD8280411122C426C206C6AA8498
:10044400014463179400B2402244924441018280E3
:1004540005041305803E4204C13F4180DDB700001E
:100464009305000273A04580824573901534924031
:100474002242B2424243D2436244F244025592556C
:100484002256B2564257D2576258F25806499649F4
:10049400264AB64A464BD64B664CF64C065D965DEC
:1004A400265EB65E465FD65F096173002030411157
:1004B400B7170040985F3AC6945F3247E39CE6FE64
:1004C400324541018280B717004013070003238897
:1004D400E702854723AAF18273002030411106C642
:1004E400EF00702AF5BF2303048015472303E4803B
:1004F40001002302A480828083076480E3CE07FE88
:1005040023030480828083076480E3CE07FE0345CF
:100514004480828083076480E3CE07FE2302A480A4
:100524008280411126C44AC24EC006C61377F50B19
:10053400AD47AA892E8995446306F70019456537A6
:10054400653F8D444E854537FD59FD14639834014C
:10055400B240A244124982494101828013550901E3
:100564001375F50F453F2209CDB7011126CC06CEF0
:10057400B704080051371545BD37713769372AC6A6
:10058400A53F32459377150089EB13651500137564
:10059400F50FF240E24405618280FD14E9FC014557
:1005A400CDBF397126DC4ADA4ED852D656D45AD247
:1005B4005ED006DE62CE66CCB7E700E07D5783AA44
:1005C400070022C603AA470023A0E71823A2E718BE
:1005D400B7170040130770052380E704130780FA58
:1005E4002380E70483C74704930B75FFB684E207AF
:1005F40093FBFB0F8546AA892E8B32893724004052
:10060400E187015763FA76016308D5008946130729
:1006140000026313D5000157D98F93F7F70FB71C66
:1006240000402382FC0411472303E4801305F00FE8
:100634005D3D094CD135636D7C11B7050700DA9532
:1006440037870700795563F2E504B3879500636E35
:10065400F702370B0800A94733EB65016399F906E4
:1006640089E48144513D26850DA0DA850945553D2F
:1006740005090345F9FFFD14050B693D81C4937712
:10068400FB0FFDF7DD3569FD7D55B71700401307F6
:1006940070052380E704130780FA2380E70403C767
:1006A4004704418B2382E704F250B7E700E023A01C
:1006B400571123A24711E25432445259C259325AB3
:1006C400A25A125B825B724CE24C21618280A54784
:1006D4006395F90685691309F00FB3069900B3749D
:1006E4002B01B6941349F9FFB3749900856B3379E0
:1006F4006901416B9387F9FFB3F7270199E363FC21
:10070400340193D94900C147E3E637FF99BF05692E
:10071400C1697D19D9B71305800D63886901130573
:1007240000026384790113051008CA85DD3B353D59
:1007340021DD4E99B3843441D9B7DA852D45D533BB
:10074400CA94E30099F205097D3BA30FA9FED5BF26
:100754009387F9FF93F7F70F6361FC0C83C71C04BD
:1007640013073008631FF70437070800636BEB04B3
:10077400B3079B00B706100063F5D704334BEB00B7
:1007840089476393F9068980D549E38C04ECDA85BB
:100794000945413B11090327C9FF91472320E48000
:1007A40003076480E34E07FE23033481FD17EDFB4A
:1007B400FD14110B81C49377FB0FE9FF7D3371F5B1
:1007C400E1B5B717004003C75704B707080013770C
:1007D400070219E3B78707007955E378FBEA330783
:1007E4009B00E3FFE7F855B58547E382F9F2DA8524
:1007F4002D45053B9389F4FFE38504E6293393F7FC
:10080400390091EB832604800327090093074900EC
:10081400E39AE6E43E89CE84F1BFB5476396F900D6
:100824001305900BC93135BDB1471305B00AE38BED
:10083400F9FE99476391F904B7050800B365BB0055
:100844002D45C53181448D4BA14975396396740199
:10085400832704802320F9008504E39834FF832749
:10086400048013172B01635507002312F900D5BB2D
:100874002322F900FDB39D476399F90281451305CD
:10088400B0044531BD442320090023220900FD5949
:100894009D3993F77400CA9703C70700FD14398D77
:1008A4002380A700E39634FF6DBBA1476392F9044C
:1008B4006D398144630D0B008D479304C0036308B5
:1008C400FB009304000563048B0193044004137537
:1008D400C507E30895D8194539313939054521311A
:1008E40026850D3909453D314931E31C05D669BBDF
:1008F40091476399F90013056006F536F53E130533
:1009040090090DB7E38F09D4F154A9BB1737000040
:100914001307470C8347070093F7F70FE5DF82803F
:100924007D166206618693178601E18763D407000A
:1009340001458280931726003307F500AE971843CC
:100944009C4363E7E7007D16E37FF7FC7D558280D7
:1009540005458280FD15E205E185139785016187D0
:1009640093F7F50F63480700FD15139725002A97A1
:10097400584365D713851700620561858280330863
:10098400B5021C4283A80600B335B502C29733B53D
:100994000701AE98469585486367B5006394A50042
:1009A40063E3070181480C43C6950CC388C21CC28B
:1009B400828081471397870161876343B7008280F0
:1009C400139727002A97232007008507E5B7814757
:1009D400014793968701E18663C5B6001335170076
:1009E400828093962700AA9694428507558FD5B79F
:1009F40093D755408A07AA979C4305453315B500FC
:100A04007D8D8280171300E0E70223242A8499371E
:100A140005C5931725003E940327C4FF814711EBB6
:100A24007D1516053E9542054185171300E06700C4
:100A3400032405838507E5B70145C5BF814713979F
:100A4400870161876343C700828013972700B386B9
:100A5400E50094422A97850714C3D5B77D1662062C
:100A64006186014793178601E18763D50700133533
:100A74001700828093172600B306F500AE979442C0
:100A84009C437D16B58F5D8FF1BF8A05AA950147FA
:100A94006363B500828083A6C5FFF11593D7160062
:100AA400D98F9CC11397F601E5B72A830148014702
:100AB40001456343D7008280B387050183A80700FB
:100AC400B30706019C43C697AA976384F80033B51D
:100AD40017010507B3080301620723A0F800618723
:100AE4001108C1BF2A8301478147014563C3D70069
:100AF40082803388E50083280800330EE600032E45
:100B04000E003388A8403308C8416384080133B514
:100B140008018507B308E300E20723A00801E18781
:100B24001107E9B7171300E0E70223120111B28697
:100B3400B2842E86AA850A8575372A84A6850A85F5
:100B4400793533348000060413351500018D0561B1
:100B5400171300E06700A311171300E0E702630C0A
:100B64004111AA89AE8A328BB68402C202C402C67B
:100B74000144131C8401135C8C4163499C02939BC4
:100B84001400FD1B0549138CF4FFF15C3304890147
:100B940062046184634D740592478E04CE9423AE3F
:100BA400F4FE4101171300E06700230B131924001E
:100BB400B30B2B01014A93172A00D69783A50B0088
:100BC40088437800340050005D3B050A93178A017E
:100BD400E187F11BE351FCFE92474E990504232063
:100BE400F900A2473EC2B24702C63EC459B7131A1F
:100BF4008901135A8A41131D240093178A01E1873E
:100C040063CF970092470A044E941CC0A24705097B
:100C14001379F90F3EC2B24702C63EC485BFB3077B
:100C24009A0313152A0056950841780034005000A1
:100C3400050AEA97DA978C439933C1B7B7C70040DE
:100C440003A7C72023A607200F10000001C599C1E0
:100C5400814711E6B7C7004023A6E7208280B38608
:100C6400F50003C80600B306F500850723800601D6
:100C7400E317F6FEC5B737C700408327C7202326EE
:100C840007200F10000019C191C111E637C70040B9
:100C94002326F7208280910503A7C5FF11057D1641
:100CA400232EE5FEDDB737C700408327C720232660
:100CB40007200F10000001C53307C50011E637C730
:100CC40000402326F72082800505A30FB5FEE31D0F
:100CD400E5FEF5B7B7C7004083A6C72023A60720C3
:100CE4000F10000081473307F5000307070019E7D9
:100CF40037C700402326D7203E8582808507E5B785
:100D0400011126CA4AC8B7C7004006CE22CC83A424
:100D1400C7202A892E8623A607200F10000013154A
:100D240006019305F004418132C6EF00B0372A84EE
:100D340001C53246CA8519372285F2406244B7C7D5
:100D4400004023A697204249D24405618280B7C758
:100D5400004003A7C72023A607200F10000001C5E9
:100D640099C1814711EAB7C7004023A6E72005458A
:100D740082808507E309F6FE3308F500B386F500A3
:100D84000348080083C60600E305D8FEB7C7004041
:100D940023A6E72001458280B7C7004003A7C720E8
:100DA40023A607200F1000009307F6FFBE952A968E
:100DB4006317C500B7C7004023A6E7208280FD154E
:100DC40083C715000505A30FF5FEDDB737C700403F
:100DD4008327C720232607200F10000001C53307EF
:100DE400C50019E637C700402326F7200145828055
:100DF40005058346F5FFE397B6FEE31BE5FE37C71B
:100E040000402326F720054582807971973700003A
:100E1400938707FD22D4804306D626D24AD04ECEED
:100E240052CC56CA5AC85EC65DCCB7C4C901014B80
:100E340097390000938949FA9384F437173A0000EC
:100E4400130A4AFA973A0000938ACAF41739000041
:100E54001309C9FD8357240095E35C44631D0B000B
:100E640017370000232EF7F6832BC4002285EF00EA
:100E740050325E8499A82326FB00FDB783A709009E
:100E840082971C443307F5406376F5000327490035
:100E94001D8F2A9763EEE4069737000023A407F01A
:100EA4008355240003450400975001E0E78020A601
:100EB4005C405844A1C71444B6978326490063E3B1
:100EC400D700958F1CC4228B3A8449F497370000CD
:100ED400938747EC9C4B05476372F706FD1717375A
:100EE40000002321F7ECB250225492540259F249E3
:100EF400624AD24A424BB24B4561828063170B006F
:100F04009737000023AEE7EC85B72326EB00A9BF93
:100F140003274A0209CF63EFA7003385A74083A7BD
:100F24000A016376F5009737000023ADA7E6228B0C
:100F3400404461BF03274900BA97C5B797370000FB
:100F440023A207E64DB7973700009387A7ED9C438C
:100F540085C3411106C682979737000083C7A7E768
:100F640089E79737000023AF07EAB2404101828046
:100F74009737000083C727E691E79737000023A33C
:100F840007EA82808280411122C4173400001304CE
:100F940024E31C4006C626C24AC091C782979737ED
:100FA400000023AF07E05C4091C382971C40639C20
:100FB400071C17370000034757FD95479734000077
:100FC400938444FC6301F71C9737000083C7C7E68A
:100FD4008DE383C75400858B89CF83C77400194779
:100FE400631CF70E97370000A38007FAE52C5C44D6
:100FF40082971C4491C3829717390000130909DEB4
:1010040003270900173600000346D6D89737000097
:1010140083C747D893961700BA9683D60600E9CAC1
:101024009737000083C707D763EEC70C97370000D4
:10103400238207D61C406398071483C7740015479E
:101044006303F7149737000083C757F491CF83C71E
:10105400740093F7F70F89EB97370000A38807F222
:10106400976001E0E780605E973700009387C7D6FA
:101074009C43638A071097370000938727DBDC4380
:10108400173700002320F7D249339737000093879E
:1010940067D5DC53EDCB83C7740015476365F70E42
:1010A4009737000083C7C7F2918BF1EF97370000A1
:1010B40083C767D2E9EB032609009736000083C68D
:1010C40076CD63C8D70C2244B24092440249410110
:1010D400175301E06700C3B083C774001D47E31AC8
:1010E400F7F097370000A38107EAED2A1C4809B7F7
:1010F400850793F7F70F97360000238DF6C8E3E7CB
:10110400C7F039BF86073E978355070023100700B1
:1011140097370000239007CC97370000938707CABE
:101124009C43173500000345E5C613172500BA97FD
:101134009C4382979737000083D7C7C917370000AD
:10114400034747C593C7F7FF7D8D93171700032700
:1011540009003E97835707005D8D2310A70097373A
:10116400000083C727C391C78507173700002303EF
:10117400F7C2173700000347E7C19737000083C75A
:1011840077C1E375F7EAB24022449244024941012F
:101194008280139717003297035707006DF785076E
:1011A4000DB737C700408326C720B707FCFFFD17DC
:1011B400F58F2326F7200F10000097370000938740
:1011C40067BDC84F832787262326D7206A0593C780
:1011D400F7FF99835D8D8280173700001307C7D905
:1011E4001443411122C49C5E4AC006C6998326C298
:1011F400858B3A84173900001309C9D7D1CB9307DB
:1012040000069CDE17370000034727D89307000821
:1012140097340000938404D7631BF70083270900E5
:101224009C4393F70704173700002300F7D683C7BE
:10123400040093F707049DC3973700009387C7B949
:101244009C4382979737000023A6A7D483C7040042
:1012540093F7F70B173700002306F7D283C7440030
:1012640093F7070495E7854717370000A30EF7D0D7
:10127400973700009387C7D29C433707020098C76B
:10128400130700FC973600002380E6D0D844F8D337
:1012940018401C5F9183858B8DC31C5F93E7070106
:1012A4001CDF973700009387A7CF9C4323A2070630
:1012B4008547173700002309F7CC83270900D84353
:1012C4000583058B19C7D843759BD8C3D843799B2D
:1012D400D8C3B24022449244024941018280ED3D88
:1012E4007300203097370000938787CB9443973758
:1012F4000000938727C903C70700058B11CB9737D5
:101304000000238307C897370000A38F07C6828095
:1013140003C71700058B65F7F85271FF83C75700A1
:10132400DDB717370000130727C5032807008327F5
:1013340088039583858BADEF11C683270803BD838E
:101344002300F6009DC61C43985B4607935767012C
:101354006356070093E707C0C207C18303970600DB
:10136400C207C18709C7BA970947B3C7E7022390E1
:10137400F6008DCD8345150095C99737000083C7C6
:10138400C7C093F7070413879500894585C33A9529
:10139400834705000547994593F6F7066398E600E9
:1013A400E207E187814563D30700B9452E85828032
:1013B4008545EDBF411122C406C61734000013044D
:1013C40024BE184049E9AE877453FDFE3E85B285BC
:1013D40097370000238907BA976001E0E78020135C
:1013E40097370000938747B99C43B706800098431A
:1013F400558F98C3D857719BD8D797370000A385CA
:1014040007B897370000A38F07B61C40094798C355
:10141400B7F700E003A707D16D9B23A8E7D003A784
:1014240007D15D9B23A8E7D07300501014401737F1
:101434000000130727B583472700858B89EB834773
:101444003700858BC1C397370000238F07B2B240A2
:101454002244410182808D476310F50297370000D2
:10146400938787B19C43B70680009843558F98C3F0
:10147400D857719BD8D75DBF8547E319F5FA544710
:101484008177FD17F58F5CC70F1000001840B70770
:1014940002001CC7930700F8173600002306F6AEB7
:1014A40097370000938747AD9C439C439D83858B6E
:1014B4006397A700930760197CD354C785BF93072C
:1014C400E01BDDBFFC52A5FB59B7411122C4173400
:1014D40000001304E4AC1C4006C6D8479316D7009A
:1014E40063D6060298479316D70063D106027D5748
:1014F400B8D7173700001307E789584F0507973601
:10150400000023A7E68A3707040098C798470D838D
:10151400058B1DC3173700000347E7A613671700A1
:10152400973600002381E6A6130700F897360000DB
:10153400238CE6A4214798C79847058B09CF173712
:101544000000034737A41367170097360000A38BE6
:10155400E6A2054798C798470983058B09E798478A
:101564000583058B31C317370000A30F07A09847E5
:1015740097360000938606A10983058B6302071042
:1015840003C706001367170097360000238CE69EF6
:10159400114798C7173700001307079E1443D856FE
:1015A400719B13671700D8D698479316F70063D634
:1015B40006029736000083C6A6ACC18A173700001E
:1015C4001307C7A4E1CA03474707136707029736FF
:1015D40000002387E6AA416798C798479316E70057
:1015E40063D20602173700000347079A6207618730
:1015F400635707000547973600002387E6983707A7
:10160400020098C798479316C70063D70602973617
:10161400000083C6F6A6858A173700001307079FC4
:10162400C1CA034757071367270097360000A389E9
:10163400E6A43707080098C798479316B70063DDF8
:1016440006023707100098C79727000083C7C77E94
:1016540085C717370000034757939547630EF70074
:1016640097370000938787909C4391C382971840D3
:10167400B7071F00BD075CC7B24022444101828006
:1016840003C736001367170097360000A38DE68E54
:10169400094701B7834647070946BD8A6388C600E0
:1016A400034747078D463D8BE317D7F2114705B72C
:1016B40083465707918AB5DE0347570713678700A8
:1016C400ADB7173700001307E78D8346B701973787
:1016D400000083C7F78F4C4BB697FD8B33D7F500CB
:1016E40097360000A380F68C97360000A382F68E0E
:1016F400058B15EF173700000347D78DB3F7E702C3
:10170400814601471305000233D6E500058A1378A4
:10171400F70F19CA6397D70097370000A384078986
:101724008280850693F6F60F0507E31FA7FC8280E7
:101734009737000083C75785C9EB97270000938725
:10174400A7699C43411122C426C206C682979737D3
:101754000000938727878047BE846303A4066368D9
:101764008504018D135455009737000083C72785DE
:101774006368F404B93798449737000083C7278413
:101784009396570036971D8C9736000023A0E68465
:10179400E372F4FE2244B24092441735000003453C
:1017A400758081454101176301E067000325972790
:1017B40000009387A767DC433384874022955DB795
:1017C400B2402244924441018280828097270000E3
:1017D400938787609C43011122CC4AC806CE26CA4F
:1017E4004EC68297972700009387C77D804701499B
:1017F400630CA404BE8463618506018D13545500F3
:101804009727000083C7A77B1379F501636BF40264
:1018140097290000938989616D359C4497260000BF
:1018240083C6E67903A64900139756003E97158CA4
:101834006363C700118F9727000023A9E778E37D2E
:10184400D4FC160433692401F24062444A85D2442C
:101854004249B24905618280972700009387075D5A
:10186400DC4333848740229551BF97270000938738
:10187400277398438967938707F47CD397270000DD
:10188400938747779C4383A60709139656006358AA
:10189400060083A607091396660063440600745382
:1018A400FDF28280411122C4B7C7004006C603A4DA
:1018B400C72023A607200F10000011C199E5B7C760
:1018C400004023A6872001457DA893073500C20761
:1018D400C183F19BC207C183130740036369F70205
:1018E4001727000013070772084317270000130780
:1018F400E77014436392A602172700001307874E6C
:10190400185B55DFC207DD8D054502974DBF1727CC
:1019140000001307E76EC9BF035765002DEB03579B
:1019240045006366F706B306F7402146637CD6029A
:1019340003280500938687001D8FAA966117172632
:101944000000035686452392E60023A00601239354
:10195400060014C12312F500130786FF9726000022
:10196400239DE6422313B5009725000083D5E54265
:10197400B387F540172700002311F742B7C700408B
:1019840023A687202105B2402244410182800841D8
:1019940095B7B7C7004003A8C72023A607200F1098
:1019A400000001E523A60721828097270000938782
:1019B400676503AE0700972700009387276403A396
:1019C40007008146F28763F0670C83A80700636F02
:1019D400F50A63EDA80A138787006366E50A03D650
:1019E4006700216705076317E60003C771860507CB
:1019F400A383E186972500009385C53903D6470064
:101A040003D76500239307003297420741831725C4
:101A140000002314E538638AC70317250000130563
:101A2400255E08416303F50203D5660019ED83D7EB
:101A3400460023A0160121073E9621062392C600E4
:101A440097270000239BE734B6879843630D67020A
:101A5400972600009386C65A94426306D70283569B
:101A6400670095E283D64700035647001843A10652
:101A7400B2962392D70098C383D76500A10717278E
:101A84000000231CF730B7C7004029BFBE86C687B5
:101A94001DBF0000197106C212C416C61AC81ECA98
:101AA40022CC26CE2AD02ED232D436D63AD83EDA1A
:101AB40042DC46DECAC0CEC2D2C4D6C6DAC8DECA4A
:101AC400E2CCE6CEEAD0EED2F2D4F6D6FAD8FEDAFA
:101AD4009385C1828841E700050092402242B242C8
:101AE4004243D2436244F244025592552256B256BE
:101AF4004257D2576258F25806499649264AB64A7E
:101B0400464BD64B664CF64C065D965D265EB65E3D
:101B1400465FD65F0961730020300000EFF0AFC26A
:101B24007300000000000000972200009382A22AA4
:101B34000383020023800200630F0300F3251034A3
:101B44002EC0970500009385A5FD73901534EFF022
:101B5400DF977300203086DCEFF03F97E6508280F9
:041B6400000000007D
:101B680097110020938101BB17510020130101C96F
:101B78001305400097E5FF1F938545481706002089
:101B8800130606FE63FAC5008322050023A055004C
:101B980011059105E3EAC5FE17B50100130545696E
:101BA80097050020938505FC1386018263FAC5001A
:101BB8008322050023A0550011059105E3EAC5FE1F
:101BC8001385018297250020938545566377B500D4
:101BD800232005001105E36DB5FEFD42739002BC9C
:101BE8008D42739042809302800873A0023097E27E
:101BF800FF1F9382A24093E23200739052309722E3
:101C08000000938282AF73901234730020303971D0
:101C180001436EC619A0397141536AC866CA62CCBD
:101C28005ECE19A0397101535AD056D252D44ED62D
:101C38004AD826DA22DC06DE33016140828241116D
:101C48004AC026C222C406C68282B24D4101024D54
:101C5800924C224CB24B4101024B924A224AB24961
:101C68004101024992442244B240410182803D43ED
:101C78002A876373C3029377F700BDEFADE59376C8
:101C880006FF3D8ABA960CC34CC30CC74CC7410724
:101C9800E36BD7FE11E28280B306C3408A0697023F
:101CA800000096966780A6002307B700A306B70032
:101CB8002306B700A305B7002305B700A304B700A0
:101CC8002304B700A303B7002303B700A302B70098
:101CD8002302B700A301B7002301B700A300B70090
:101CE8002300B700828093F5F50F93968500D58D74
:101CF80093960501D58D61B793962700970200004A
:101D080096968682E78086FA9680C1171D8F3E9642
:101D1800E374C3F8A5B73367B500FD530D8B79E7B6
:101D2800B7877F7F9387F7F710419441B372F60026
:101D38003363F600BE92B3E262006397720C6318D5
:101D4800D6065041D441B372F6003363F600BE9212
:101D5800B3E262006398720A631BD6041045944587
:101D6800B372F6003363F600BE92B3E26200639189
:101D7800720A631ED6025045D445B372F600336327
:101D8800F600BE92B3E26200639A72086311D6024B
:101D980010499449B372F6003363F600BE92B3E279
:101DA8006200639372085105D105E30FD6F6131745
:101DB800060193970601631CF7001357060193D792
:101DC80006013305F7409375F50F91E98280418349
:101DD800C1833305F7409375F50F91E1828013773E
:101DE800F70F93F7F70F3305F74082800346050096
:101DF80083C60500050585056313D60065FA330516
:101E0800D640828011059105E312D6FE01458280F5
:101E18002105A105E31CD6FC014582803105B105E9
:101E2800E316D6FC014582804105C105E310D6FCC6
:101E380001458280B717004003C777051377E70F7E
:101E4800A38BE704130700F8A38DE7043D47238C11
:101E5800E70413075003A38CE70403C7A705137708
:101E6800D70F238DE704828041112A83014E930EF8
:101E7800407E130F0019930F400663E66E14930813
:101E8800001913034006B3781503854E0D4FA14F73
:101E9800337365020D891335150063E0BE16130808
:101EA800F6FF794672984208135808013307C702AB
:101EB80013D61700BE0732976146B3F6C60213065B
:101EC8008070B386C6023697A166F58F42075D8F8C
:101ED800B716004083C7F60293F70708A307F10077
:101EE8000346F10083C7F60293F70708E394C7FE99
:101EF8008347F100B716004093F7F70F638907147B
:101F0800F3270080A18B9386018263980714010050
:101F18000100B7170040130670052380C704130695
:101F280080FA2380C7040100010023AA070303C61F
:101F3800170313660608A388C702238007047326BD
:101F480000809C42A18BD18F7390078023A00182CF
:101F5800010001001166B71500407D16DC59C85D07
:101F6800A98FF18FE5FFF3270080A18B89CBF32799
:101F7800008023A0F1829C42DD9B739007800100C2
:101F88000100B7170040130670052380C704130625
:101F980080FA2380C70401000100D8DB03C71703B8
:101FA80013670704A388E7022380070473270080C8
:101FB8009C42A18BD98F7390078023A001820100D6
:101FC8000100410182807D133368E3039308E01622
:101FD800630E08003368F3039308D01663080800FB
:101FE8009378330093B818009388D81633081E01E5
:101FF800131E0801135E0E0149B56393E5030548F6
:10200800638608000148630303002A8871087298F0
:10201800FD15131E0801C205135E0E01C181B5BD71
:1020280013F8150063F4BF007908D5B71338180002
:10203800E5BF83C7F60293F70708A307F100034635
:10204800F10083C7F60293F70708E394C7FE8347B6
:10205800F10093F7F70FF1DF65B5F327008023A0B0
:10206800F1829C42DD9B7390078055B54111B717EB
:102078000040985F3AC6945F3247E39CE6FE3245DB
:10208800410182801D71CEC662DC86CEA2CCA6CA72
:10209800CAC8D2C4D6C2DAC05EDE66DA6AD86ED6DC
:1020A8002A8CEF00700AAA89F3270080A18B9384F9
:1020B800018289CBF327008023A0F1829C40DD9B1D
:1020C8007390078001000100B717004013077005DF
:1020D8002380E704130780FA2380E7040100010046
:1020E80003C7F7021377770FA387E70203C7F7023F
:1020F80013678700A387E7022380070473270080FC
:102108009C40A18BD98F7390078023A00182010086
:102118000100F3270080A18B89CBF327008023A03F
:10212800F1829C40DD9B7390078001000100B71786
:102138000040130770052380E704130780FA238003
:10214800E7040100010003C7E7021377C70F2387DD
:10215800E70203C7E702136717002387E702238014
:102168000704732700809C40A18BD98F7390078048
:1021780023A0018201000100F3270080A18B89CBF5
:10218800F327008023A0F1829C40DD9B7390078099
:1021980001000100B7170040130770052380E7040A
:1021A800130780FA2380E7040100010003C73705FD
:1021B8001377870FA389E70403C737051367170049
:1021C800A389E70423800704732700809C40A18B20
:1021D800D98F7390078023A00182010001001309A1
:1021E80080C133C92903916B938C0BE8130A500201
:1021F800930A803E2167130707D0130BA0043714F6
:102208000040930D0404617DFD1BB3C79903916CD5
:10221800330949033EC6B3CA5903B347E902130950
:1022280080FA338A4A033EC8B347EA02130A7005A4
:10223800338B6A033ECABD67938707A6B347FB0281
:10224800014B3ECC73270080218B09CB732700807C
:1022580023A0E18298405D9B731007800100010074
:10226800930770052380FD0023802D0101000100E4
:102278000347340513670702A309E4040357040559
:10228800336797012318E404035704053367A7014C
:10229800420741832318E40423800D00F3260080BD
:1022A8009840218B558F7310078023A0018201006D
:1022B800010003473405137707026308071403472F
:1022C8003405218B6DDF73270080218B09CB7327A1
:1022D800008023A0E18298405D9B73100780010075
:1022E800010023804D0123802D01010001000347D7
:1022F80034051377F70DA309E4040347340513677E
:102308000702A309E4040357040533679701231858
:10231800E404035704053367A701420741832318E0
:10232800E40423800D00F32600809840218B558F0C
:102338007310078023A001820100010003473405C0
:1023480013770702630E070E03473405218B6DFFD1
:10235800313B2A873ACE193B7247E30DE5FE035716
:102368000405336797012318E40403473405218BD8
:102378006DDF8356040503472405B247B3F6DB0037
:102388003387EB02BA969D8EC24763D5D700D247F2
:1023980063C3F60E09476362670FE24713061B0023
:1023A80013971600137BF60F3347F7026350D0409C
:1023B800050789463347D702F3260080A18A89CAD0
:1023C800F326008023A0D1829440DD9A7390068082
:1023D8000100010023804D0123802D01010001002F
:1023E8008356C4023697420741832316E4022380AA
:1023F8000D00F32600809840218B558F73100780BD
:1024080023A001820100010035BD73270080218BC4
:1024180009CB7327008023A0E18298405D9B73104D
:1024280007800100010023804D0123802D01010058
:1024380001000347340513670702A309E404A9BD93
:1024480073270080218B09CB7327008023A0E182AA
:1024580098405D9B731007800100010023804D01A7
:1024680023802D010100010003473405136707028B
:10247800A309E4047DB5E3020BF2F3270080A18BE6
:1024880089CBF327008023A0F1829C40DD9B7390C9
:10249800078001000100B71700401307700523806B
:1024A800E704130780FA2380E7040100010003C74B
:1024B80037059376FC0F1377870FA389E70403C7C3
:1024C8003705558FA389E704238007047327008005
:1024D8009C40A18BD98F7390078023A001820100B3
:1024E8000100B717004013067005930580FA03C76B
:1024F80037051D8B631E872BF3270080A18B89CBA3
:10250800F327008023A0F1829C40DD9B7390078015
:1025180001000100B7170040130770052380E70486
:10252800130780FA2380E7040100010003C7370579
:1025380091661377F70DA389E70403C73705136777
:102548000702A389E70403D70705558F2398E704F3
:1025580003D70705A166558F2398E704238007044E
:10256800732700809C40A18BD98F7390078023A08C
:10257800018201000100B717004093067005130699
:1025880080FA03C7370513770702630A0726371748
:10259800004083473705A18BEDDFF3270080A18B2F
:1025A80089CBF327008023A0F1829C40DD9B7390A8
:1025B800078001000100B71700401307700523804A
:1025C800E704130780FA2380E7040100010003C72A
:1025D800370591661377F70DA389E70403C7370515
:1025E80013670702A389E70403D70705558F2398C4
:1025F800E70403D70705A166558F2398E7042380CE
:102608000704732700809C40A18BD98F73900780A3
:1026180023A0018201000100B7170040930670054E
:10262800130680FA03C737051377070263010722E9
:102638003717004083473705A18BEDFF053C2A84F7
:102648003534E30F85FE3717004083570705916639
:10265800D58F2318F70483473705A18BEDDFF327C0
:102668000080A18B9386018289CBF327008023A069
:10267800F1829C42DD9B7390078001000100B7172F
:102688000040130770052380E704130780FA2380AE
:10269800E7040100010003C737051377F70DA38985
:1026A800E70423800704732600809842218B518F0A
:1026B8007310078023A001820100010003D70705DA
:1026C80003C627059167FD177D8FB387C702374675
:1026D8000F0013060624B3C9C9023E97856793877E
:1026E80007FAB3978701B389370393070010B3C973
:1026F800F9029307800C8E09B30937410547331C4B
:102708008701135C3C40B30A5C03130C60553D67BA
:10271800130707A6B38A8A03B3CAEA02B387F90282
:10272800B3C75703635D301785070947B3C7E70287
:10273800960773270080218B09CB7327008023A07D
:10274800E18298425D9B73100780010001003717F2
:102758000040130670052300C704130680FA2300FF
:10276800C704010001000356C702B297C207C1831C
:102778002316F70223000704732700809C42A18BCD
:10278800D98F7390078023A0018201000100F640D1
:102798006644D6444649B649264A964A064BF25BF1
:1027A800625CD25C425DB25D256182807D1711B1A9
:1027B80073270080218B09CB7327008023A0E18237
:1027C80098405D9B73100780010001002380C704B7
:1027D8002380B7040100010003C73705558FA3897B
:1027E800E70423800704732500809840218B498FD4
:1027F8007310078023A0018201000100CDB973275F
:102808000080218B09CB7327008023A0E1829840A8
:102818005D9B73100780010001002380D70423808B
:10282800C7040100010003C7370513670702A3891E
:10283800E70423800704F32500809840218B4D8FFF
:102848007310078023A00182010001001DBB7327BC
:102858000080218B09CB7327008023A0E182984058
:102868005D9B73100780010001002380D70423803B
:10287800C7040100010003C7370513670702A389CE
:10288800E70423800704F32500809840218B4D8FAF
:102898007310078023A001820100010061B3FD17B6
:1028A80069B5914763EEB70217A701001307478E72
:1028B8008A05BA959C41BA978287B717004003A743
:1028C800470B1345F5FF698F23AAE70A03A7070BF0
:1028D800698F23A8E70A03A7070A798D23A0A70A07
:1028E8008280B717004083A6470B1347F5FFF98E80
:1028F80023AAD70A83A6070B558D23A8A70A83A660
:10290800070A758F23A0E70A8280B717004003A73C
:10291800470B498F23AAE70A03A7070B1345F5FFBF
:1029280045BFB717004083A6470B1347F5FF758FC0
:1029380023AAE70A03A7070A598D4DB7B71700401E
:1029480003A7470B498FEDB7B717004088474205E3
:1029580041819377050491EB9377F5013755E801A9
:10296800130505803345F50282809377050C13071C
:1029780000046397E7009377F50137459C1CCDB7B2
:102988002165130505D08280B7F700E08847CC475A
:102998008280814737370040A14663C4C70032852B
:1029A80082800345B740E38EA6FE3385F5000345D4
:1029B800050085072304A740CDB7411122C406C6E8
:1029C8002A8459372947B307E502B2408D83B3D724
:1029D800870222449507B3D7E70237370040C2077A
:1029E800C1832316F74041018280716541111305A7
:1029F800052006C6D937B7370040130770F823817A
:102A0800E7400D47A381E74013070004A380E74090
:102A180005472387E740B240410182802382018233
:102A280023A40182B717004003A7070CB706C0FF0D
:102A3800FD16758F23A0E70C03A7070DB706400006
:102A4800558F23A8E70C03A7070C3D9B23A0E70C91
:102A580003A7070D1367070123A8E70C828023A4A7
:102A6800A18213064006894503C501836F20717250
:102A7800B717004003A5470C83A7470C5981134596
:102A88001500C18B058999E31365250083C7418229
:102A9800638CA7002382A18201C99387818203A343
:102AA8000700630303000283828011456FF08FDD06
:102AB800411193962500AA852D4506C697E0FF1F6C
:102AC800E780E0ADB240014541018280411126C254
:102AD8009394250022C44AC02A843289A686AA85EE
:102AE8000146254506C697E0FF1FE78040ABA6864E
:102AF8004A86A285294597E0FF1FE78040AAB24091
:102B0800224492440249014541018280011122CCAC
:102B180006CE3714004026CA4AC84EC652C483445B
:102B28007405034AB4058349840503499405EFF005
:102B38006FB08347A40593F4F40F137AFA0F93E761
:102B48001700230DF40493F9F90F1379F90FB71748
:102B5800004003C7A705058B6DFF03D5C705A38DE7
:102B68004705238C3705A38C2705A38B9704F240D0
:102B78006244D2444249B249224A056182804111E5
:102B88009397050122C406C6C1872E8463DA07001D
:102B9800EF20912819C1EF20D11C2165218D1DA09E
:102BA80093F7150013C5150091EF93F7250099CFFA
:102BB800C1351306000A894503C50183EF20715DFD
:102BC80013452400B2402244410182809397250195
:102BD80063D00702EF405145C93D37F6020013069E
:102BE80006E0896503C50183EF20B15A09657DB701
:102BF800939715010145E3D707FC179501001305C5
:102C0800E55EEF80E13113060064916503C5018339
:102C1800EF203158116559B71D7149469795010044
:102C28009385455817A501001305054486CEA2CC07
:102C380097E0FF1FE780601101E917950100130570
:102C4800A557EF80E12D01A037F700E0795610CBAA
:102C5800FD5654CBB7E700E0056423A08710930620
:102C6800F00214C323A087180100010097F7FF1F83
:102C7800938747EB1306C0038145480823A6F182D2
:102C880097E0FF1FE780E00197070020938787B947
:102C98003ECAA167938707E03ECEB7070105938731
:102CA80007103ED0ED472312F10285472303F102B6
:102CB80097070000938707E0BEC497070000938733
:102CC80027E1BEC68567938757D12314F10297077A
:102CD80000009387A7CB3EDAB7F5070097070000F7
:102CE800938707E33EDE814697070000938727DC3A
:102CF8007000E1051945BEC0231C810097E0FF1F45
:102D0800E780E08958088147994670003E96034657
:102D1800060085070507A30BC700E398D7FED2472F
:102D280091C70357810185676373F70001A04808BD
:102D3800EF304116AA8501C9179501001305054909
:102D4800EF80C10901A0F6406644256182804111E7
:102D5800170500001305E5E206C622C4EF30C10FCF
:102D6800138401832300A40031284D39034504004E
:102D78002244B24037F60200130606E08965410195
:102D88006F203141011106CEF3270080A18B1387F4
:102D9800018289CBF327008023A0F1821C43DD9BAD
:102DA8007390078001000100B71700409306700573
:102DB8002380D704930680FA2380D70401000100FA
:102DC80083C6F70293F6A60FA387D70223800704CA
:102DD800F32600801C43A18BD58F7390078023A016
:102DE800018201000100F3270080A18B89CBF32722
:102DF800008023A0F1821C43DD9B739007800100B3
:102E08000100B7170040930670052380D704930686
:102E180080FA2380D7040100010083C6F70293E6F5
:102E28002600A387D70223800704F32600801C43CB
:102E3800A18BD58F7390078023A001820100010028
:102E4800AD31814701478146054685451305407EDA
:102E5800EFF08F810A854146814597E0FF1FE780A3
:102E680040E4B707C0A83EC2B787E803938707D0F6
:102E78003EC40A8597D7FF1F938727633EC0EF306C
:102E8800A123F24005618280411197950100938545
:102E9800A539179501001305E54B06C6EF701174A7
:102EA800179501001305054CEF705173B240294581
:102EB80041016F70B17641119795010093850538EE
:102EC800179501001305054906C6EF70317117956E
:102ED80001001305E546EF707170B24029454101C4
:102EE8006F70D173411197950100938565361795D9
:102EF80001001305254606C6EF70516EB2402945FC
:102F080041016F70B171797122D426D24AD02E84D2
:102F18002A89B28481457146480006D6EFE03FD53C
:102F280097F7FF1F9387C7D6DC4783D7070023147B
:102F380021012313F100EF00F03C8547A305F100C0
:102F4800930700192305A1003EC62686FD57A285D2
:102F58004800230AF100EF00503DB2502254925429
:102F6800025945618280411122C406C68347050083
:102F78002A849DC397950100938505321795010012
:102F88001305453DEF7091654C40179501001305F9
:102F98006553EF70B16471A85841B707CF009387A4
:102FA800777D631AF71A979501009385E52E179593
:102FB80001001305253AEF7071621C448356E40042
:102FC8008355C40003C60700179501001305055172
:102FD800EF70D1602945EF7071640356C4000C444A
:102FE8001385810797E0FF1FE78000C583C7810726
:102FF8001307200A638AE7001307300A6380E71281
:10300800B2402244410182800357C4008D479795FE
:10301800010093856528179501001305A533630002
:10302800F702EF70B15B179501001305254DEF709E
:10303800F15A2244B240294541016F70315EEF7068
:10304800F159179501001305E54CEF7031592945E1
:10305800EF70D15C0355E400930720F8054693858B
:103068008107238CF10645359377F50F2A8495C798
:103078009795010093854522179501001305852D25
:10308800EF70D1559375F40F179501001305454C52
:10309800EF70D1542945EF707158979501009385C9
:1030A800A51F179501001305E52AEF7031531795F1
:1030B80001001305254BEF7071522945EF70115629
:1030C8004165930730FA0546938581077D15238C62
:1030D800F106153D9377F50F2A8495C7979501005A
:1030E8009385851B179501001305C526EF70114FB1
:1030F8009375F40F1795010013058545EF70114E70
:103108002945EF70B1510566130606C88945224462
:10311800B24003C5818341016F20B1070357C40042
:1031280085476301F702979501009385E516179582
:10313800010013052522EF70714A17950100130548
:10314800A545F5B58357E4000566130606C823911F
:10315800F18491456DBFB707CC009387777D631ADB
:10316800F70297950100938525131795010013051C
:10317800651EEF70B1461C448356E4008355C400B5
:1031880003C607001795010013054535EF70114573
:103198004DB5B707CE009387777DE303F7E697959C
:1031A80001009385650F179501001305A51AEF70A7
:1031B800F1424C40179501001305C53FD9BB0111D9
:1031C80022CC979501009385250F2A841795010035
:1031D8001305451806CEEF707140A28517950100BA
:1031E8001305455AEF70913F2945EF703143938796
:1031F80081819843DC4321462C0005453AC43EC6EC
:10320800193315C52A84979501009385E50A179502
:10321800010013052514EF70713CA2851795010074
:1032280013054527EF70913B2945EF70313FF24078
:10323800624405618280411122C406C683470500A5
:103248002A8485CB979501009385C50317950100BE
:1032580013054510EF7091384C4017950100130580
:10326800251CEF70B1372244B240294541016F70E7
:10327800F13A58411DEF979501009385A5001795E0
:1032880001001305250DEF70713517950100130521
:10329800A51AEF70B1342945EF7051382244B24075
:1032A800116603C58183130606E8894541016F202D
:1032B800416EA1679386D7036311D70297950100E2
:1032C800938545FC179501001305C508EF7011316A
:1032D80017950100130545176DBFED079795010078
:1032E800938545FA179501001305C5066315F7027E
:1032F800EF70D12E1795010013054516EF70112EAA
:103308002945EF70B1312244B24003C58183894514
:1033180041016F20617DEF70712C4C4017950100C1
:10332800130545293DBF411106C6EF90600019E518
:10333800EF10902EB24041016F202068B240410149
:103348008280411197950100938505F31795010037
:103358001305450006C6EF7071282945EF70112C3A
:10336800B2404101C9B7411122C4179501001305A4
:1033780065FE2E8497950100938545EE06C6EF708D
:10338800F1252945EF70912905C897950100938586
:10339800E5EC179501001305E5FBEF703124A285D4
:1033A8001795010013050510EF7051232244B24010
:1033B800294541016F709126B24022444101828023
:1033C800011122CC2EC62A84979501009385C5E960
:1033D80017950100130505F806CEEF703120324627
:1033E800A285179501001305A50CEF70311F29451B
:1033F800EF70D12283C7418481EF97F7FF1F93872E
:103408002789DC4703D70700C167FD17631DF7004D
:103418006244F240116603C58183130606E88945B4
:1034280005616F200157F2406244056182804111B5
:1034380022C406C693F715002E8499CF0566130695
:103448000696854503C58183EF20A15413451400D2
:10345800B24022444101828093F725008DCB979595
:103468000100938525E7179501001305A5EEEF7078
:10347800F116179501001305A5D7EF7031162945E8
:10348800EF70D119EF10907713452400D1B793F757
:1034980045000145D5DF854503D52184EFE0A02807
:1034A80097950100938505E317950100130585EAB3
:1034B800EF70D112179501001305C5D4EF701112E2
:1034C8002945EF70B1151345440059B70111354628
:1034D80097950100938545EA1795010013058537EF
:1034E80006CE22CC97E0FF1FE780208601E91795DA
:1034F8000100130565CCEF70B12201A097F7FF1FFB
:103508009387C7A83EC4B7F50700856793870780E8
:1035180081461386C183E10519453EC697D0FF1F32
:10352800E780E00719469385C1831385810997D001
:10353800FF1FE780607034001386C18397950100F0
:103548009385450A179501001305450BEF101037B1
:103558002A840DC9979501009385C5D61795010052
:10356800130545DFEF709107A28517950100130534
:10357800A5E1EF70B1062945EF70510AF2406244A7
:1035880005618280EF70D038179501001305C5D505
:10359800EF005058EF40B039EFE0A04117E5FF1FAA
:1035A8001305C56CEFE0802E179501001305C5D4EF
:1035B800EFE0E0412A84EF10C031EF901067EF0090
:1035C800215EEF200047EF10500CEFC0E0439795C5
:1035D8000100938525CF179501001305A5D709C8C4
:1035E800EF70C17FA28517950100130525DC51B73F
:1035F800EF70C17E17950100130585DDEF70017E20
:103608002945EF70B101EFC0802685472382F184F8
:10361800EF80105229C5979501009385A5CA179583
:103628000100130525D3EF70617B17950100130581
:10363800A5DBEF70A17A2945EF70417E97950100CF
:10364800938545C8179501001305C5D0EF7001791A
:1036580017950100130585DBEF70417829BFE1312B
:10366800F1BF4111170500001305A5DC06C622C4E9
:10367800EF20817E138481832300A40017E5FF1FB8
:1036880013050561EF00D0019135EFF02FB917054B
:103698000000130505B3EFF08FBC03450400224476
:1036A800B24013060064854541016F20812E011147
:1036B800354697950100938525CC1795010013058C
:1036C800651906CE97D0FF1FE780206801E9179596
:1036D80001001305A5EFEF70B10401A0EF50D13937
:1036E8002AC6EF00F10DEF00216DEF605067F24040
:1036F80032450561828041111305800406C697D0C2
:10370800FF1FE780C098371700408327870A8D4539
:103718001305002093E707202324F70AEFF06F989A
:10372800EFF0AFAC17A5010013050594EF70417FCA
:103738001795010013050512EF70817EEFF0CFCDCC
:10374800EFF0EFE0AD37313F97D0FF1FE780C0D8EB
:10375800014582804111B2862E86AA852D4506C66E
:1037680097D0FF1FE780A0E3B24001454101828066
:10377800AE860146AA85254517D3FF1F670023E2B9
:103788009307000463E6C7021D71A2CC2A840808C7
:1037980086CE32C6EF702159B2461008A285294557
:1037A80097D0FF1FE780A0DFF6406644256182803E
:1037B800395582809387818418429C4383D645007B
:1037C8000345070083C5C700035646006396A50056
:1037D80083D5E700638DD502011106CE2386A700A5
:1037E8002397D700B705CF00DC4B9385757D050778
:1037F8007D162EC2230001003AC42316C1002317E8
:10380800D10099C30A858297F2400561828082803F
:103818006D713C083EC6B707E500232291103EC8EB
:10382800AA843C083285232611103ECA232481101D
:10383800232021112E89EF20603F2A8497950100CB
:10384800938505E1179501001305C5B0EF7001597F
:10385800A285179501001305A5EFEF70215829459A
:10386800EF70C15BB705CB009385757D6800EF00ED
:103878001024A2856800EF200031014781467000BE
:10388800CA852685EF00F04215C52A849795010060
:10389800938505DC179501001305C5ABEF7001543E
:1038A800A28517950100130565EBEF702153294593
:1038B800EF70C1568320C110032481108324411066
:1038C80003290110516182809387818418429C43A7
:1038D800797122D406D60348070083C807012A84D1
:1038E80083D64500035546006396080183D827010F
:1038F800638DD8022388070105072399D700370865
:10390800CC00DC4B1308787D3ACC1307F5FF42CA8C
:1039180023080100231EE100231FD10099C70808CE
:1039280032C62EC482973246A2452285D535B2507A
:103938002254456182806D713C083EC0B707E5009E
:103948003EC23C083EC423261110232481102322A2
:103958009110231701002318010023190100231ACD
:103968000100231B010097E7FF1F83D7673699E300
:10397800C167FD172316F10097E7FF1F83D7673547
:1039880081EB938781849C439C43DC4783D7070062
:1039980017E4FF1F1304C433584C2317F10083574F
:1039A8004400484B2318F10005ED979501009385D5
:1039B80025D1179501001305E599EF702142179558
:1039C8000100130525D1EF7061412945EF700145CC
:1039D8008320C11003248110832441105161828007
:1039E80097E7FF1F83C7372F99E7EF1091375C4C94
:1039F80023AA0700F1BFFD1797E6FF1FA38DF62C3A
:103A080003560701834704014C470A85230BF1003D
:103A1800EF208015938781849C4301478146884322
:103A28000A866C00EF00F028AA8405C99795010062
:103A3800938505C9179501001305C591EF70013AE3
:103A4800A685179501001305A5C9EF7021392945E9
:103A5800EF70C13C5C4CC84B49BF97E7FF1F83C759
:103A68009727EDDB1044854503C5C184EF107172BB
:103A780085B7DC4DDC4B99C7904503C5C18491459A
:103A88006F10317182805C4EDC4BA1C7B9C1411106
:103A980022C4179501001305E58B2E849795010024
:103AA800938545C006C6EF706133A285179501005E
:103AB800130545C5EF7081322945EF702136224440
:103AC800B24003C5C18413064006914541016F10F9
:103AD800516C8280411122C417E4FF1F1304441D56
:103AE8001C4C06C689C7DC4399C34C4882975C4C7A
:103AF800C84BEF1011275C4CB240224423AA0700A0
:103B0800410182801387A180834707009306F00B49
:103B1800850793F7F70F63E7F6002385F1800345E0
:103B280007008280930700F8CDBF83574500638D57
:103B3800070C01114AC817E9FF1F1309691952C474
:103B4800032AC90106CE22CC03274A0126CA4EC63B
:103B5800F15729EB1307D00DFD576365C7042A8475
:103B68001305860042054181B284AE89EF105124C5
:103B7800232AAA000325C9015C4995EF97950100FE
:103B8800938545B0178501001305C57CEF700125A5
:103B980017950100130545BFEF7041242945EF70C3
:103BA800E127DD57F2406244D2444249B249224AF1
:103BB8003E850561828093874400B705CF002319AD
:103BC800F5009385757D3105EF00606E0325C90109
:103BD800834564003105EF10107B0325C901268653
:103BE800CE853105EF1050787146A2854A85EF7071
:103BF8008113504401CA854503C5C184EF1071592A
:103C080081474DB70D3BEDBFFD573E858280411181
:103C180022C417E4FF1F1304A40B5C4C06C6C84B50
:103C2800EF1031145C4C2244B24023AA070003C5AC
:103C3800C184854541016F10316B411126C29384BF
:103C480081849C4006C622C4BDCFDC43ADCF5CC195
:103C58002300B5002A84979501009385E59D178573
:103C680001001305256FEF7061172945EF70011BDF
:103C78009C4023A4070023A2070097E7FF1F938710
:103C88002703DC4FDC4B99C32955A93597E7FF1F5C
:103C980093870704DC4FDC4B91C3953F894503C5E7
:103CA800C184EF107164914503C5C184EF10D163DD
:103CB8009C4003A347016308030022852244B240C5
:103CC800924441010283B2402244924441018280DD
:103CD8000111328506CE22CC26CA2E84EF1010752B
:103CE800AA849795010093856598178501001305A7
:103CF8006566EF70A10E03078400035664008355C0
:103D08004400A686179501001305C5A1EF70010DA3
:103D18002945EF70A11097E7FF1F83C7C7F963977D
:103D280097000145453B81450A85013FF2406244C1
:103D3800D244056182806D712324811023261110DD
:103D48002322911093F745002E84638F07103C08B7
:103D58003EC0B707E5003EC23C083EC42317010039
:103D68002318010023190100231A0100231B010055
:103D780097E7FF1F83D7C7F399E3C167FD1723169A
:103D8800F10097E7FF1F83D7C7F281EB9387818400
:103D98009C439C43DC4783D7070017E7FF1F1307A3
:103DA80027F12317F100544F835747002318F100D8
:103DB800DC4A95EF979501009385858F178501005B
:103DC80013054559EF70810117950100130585907A
:103DD800EF70C1002945EF7061041345440083204A
:103DE800C11003248110832441105161828097E718
:103DF800FF1F83C757EC2555B5C7FD1717E6FF1FEB
:103E0800A30BF6EA03D6060183470701CC460A85C9
:103E1800230BF100EF105055938781849C4317E7DB
:103E2800FF1F1307E7E8979601009386E63E88434D
:103E38000A866C00BD2DAA844DD197950100938503
:103E48002587178501001305E550EF603179A685B0
:103E5800179501001305C588EF6051782945EF6073
:103E6800F17B2685853995BF93F725008DC341469B
:103E78008145280897D0FF1FE780A0E2255599398A
:103E880028089305F00F553B1345240089BF93F785
:103E980015000145A9D7EFF01FAA1345140081B7F3
:103EA8005C4D411106C688C3170500001305E5E8F7
:103EB80023A4F184EF10517AB2402386A1840145EE
:103EC80041018280EFD21FD62A8408452E89B28903
:103ED80009C900C1970500009385C5736105EFF016
:103EE800105F81447D5AEF10800363C3A4048144AA
:103EF800EF10E00363C6A404970700209387079692
:103F08009C43DC47B307F94091872302F40063819F
:103F180009048327C900B307F4409587A302F40076
:103F28001C4C89C79C4799C3228582976FD0DFD2E2
:103F38005C44139714008504BA972390470165B72A
:103F48001C48139714008504BA97239007004DB7AF
:103F5800832789000547B307F4409587A302F40037
:103F680083570400638EE7028DC309476384E7041F
:103F78000D47E397E7FA97970100938767DC1CCC16
:103F8800979701009387C7DC11A89797010093873B
:103F9800A7A21CCC97970100938707A35CC849B7D1
:103FA800979701009387478E1CCC979701009387BA
:103FB800A78EEDB797970100938747DD1CCC97979D
:103FC80001009387A7DDD9BF85E1EFD25FC700461F
:103FD80018448347940075839D8B6315F700EF00A1
:103FE800701948C46FD0FFC78280EFD2BFC313894E
:103FF8003500C16442094111AA890144F1141359D9
:104008000901054A2EC6EF009071B2456346A40027
:10401800014541016FD05FC483A70900131714003D
:10402800BA9783D707006388B700639497006374CF
:104038002A010504C1BF0545E9BFEFD2DFBDAA8942
:104048002E89328BB6843A8ABE8AEF80602E4DC1A3
:104058002685EF10502D8D4763E5A7007D556FD05D
:104068001FBF83DB4400EF0090712A84EF00707259
:104078009307740031443305850263C5A702EF0036
:104088001070EF00D06F2A84EF00B07093077400AF
:1040980031443305850263CDA702EF00506E9307C4
:1040A800450019A8EF00F06E330585021307F017D5
:1040B8009307C017E357A7FC2D55E3C277FB6300AE
:1040C8000B02D6865286A6854A85EFE0B04341BFEB
:1040D800EF00306C330585029307C5FFF1BF8327D6
:1040E80049001385C90083D52700013779F9BDB781
:1040F8006955B5B797F7FF1F2394A77697F7FF1F62
:104108009387C775904381470C463307F5004207EC
:1041180041836393B700828054461398470085070C
:10412800C2962390E600D5B797F7FF1F93870773CA
:104138009C4303C58700828017F5FF1F035545720E
:104148008280EFD2DFAFC1671387D7FF6307E5022D
:104158006368A700F117630EF50001456FD07FB0C3
:104168001387E7FF630EE500FD171D8D1335150056
:10417800F5B7EF4040347D15D5BFEF40C011E5BF1E
:10418800EF402010CDBFEFD29FAB4111AA8401446C
:104198002EC6EF00D059B2456346A400014541013F
:1041A8006FD03FAC9C48131514003E95835705000B
:1041B800E387B7FE0504E9BF03485500814693F736
:1041C800F60F63E5070181473E858280584593973E
:1041D8005600BA9703D727006316B70003D707001E
:1041E800E304C7FE8506E1BF834645000147937790
:1041F800F70F63E4D700814711A81C451316570031
:104208000507B29703D60700E313B6FE3E85828002
:10421800EFD25FA193170501C18797FAFF1F938A11
:10422800EA636353F00883A70A00C0479C47035713
:104238000400198D420541816366F5000144228519
:104248006FD09FA112052A94DDBFDC471394490063
:10425800014A3E94834744006341FA02014A834776
:1042680054006346FA028509C20993D9090183A754
:104278000A009847E3EBE9FCD1B71C4413195A002C
:10428800A6853E994A85013709ED050AE1B75C44E0
:1042980013195A00A6853E994A85F53519E1050A8C
:1042A8007DBFE30209FC61BFAA848149C9B7EFD287
:1042B8001F991C452A8481E79307C5001CC51C4427
:1042C800231204001CC09307F00F63E9B70093F5AD
:1042D800F50F2285EF10300B6FD0BF98939405012E
:1042E800C167C18063F7F500A6852285EF10500DE0
:1042F800E5B7C18193F5F50F2285EF10D008A685A3
:104308002285EF109009C9BF97F7FF1F93870755BC
:10431800884382801C4599C797F7FF1F23A0A7549D
:10432800014582807D55828097F7FF1F9387075349
:10433800984383474500484792073E958280EFD2CD
:104348001F90617100451C183EC6B70780013EC822
:104358001C183ECA8357440002CE02D002CC231E4A
:10436800F100834784002A8902D22301F1023C0824
:104378003ED402D6553F835705002316F102EF308D
:1043880010632307A1025C4003556400F18313F70F
:1043980017008347F10252055181F99BD98FA30772
:1043A800F102EFE0900739C5AA8403550500EF70C4
:1043B800107983D704002AD26800231CF10083D720
:1043C8002400231DF1001C4803D647008C43EF103E
:1043D800A0798347B400CA861786010013064644AD
:1043E8008117A305F4006C004810EFE0B0115D617F
:1043F8006FD03F872155E5BF1C45B1CF03C5A70046
:10440800894613576500630BD7028D46630ED702A2
:1044180085466300D702130740063305E50203C744
:10442800B700418B15CB83C7B700BD8B3355F5401B
:1044380082801375F5031307803EC5B709671375A6
:10444800F50313070771D1BF372709001375F50363
:104458001307077CD9B701458280EFD24FFE03A925
:104468008500630409048347B900AE8493F7070EF7
:1044780091CF03459900930520030D810505B305E8
:10448800B50288446105EFF0701005A02E85AD37A0
:104498002A8401CDC5218325C900B307B54063F837
:1044A80087002E94B305A440E9FD6FD08FFB8545A6
:1044B800C9BFEFD2CFF82A8403D50500011132C64F
:1044C80036C43AC22EC002CA02CC02CEEF703067A0
:1044D80082452ACA22852ECC813D03570500231E1A
:1044E800E100EF30D04CA24632469247230FA1009C
:1044F80036874C08B28622850146EFF01FB4056165
:104508006FD02FF6EFD2AFF361711C183EC6B70714
:1045180080013EC81C183ECA3C0800453ED4AA8407
:1045280002CC02CE02D002D202D6FD3B8357050050
:1045380035592316F102EF3090472307A10209C429
:104548008357440091E721594A855D616FD06FF127
:104558000355640052055181EFE0206C2A8965D526
:104568008347B40093F7070E89C713058401EFF05A
:10457800700383574400231EF100834784002301FE
:10458800F1025C4003550900D98313F707088347F4
:104598001102231CA10093F7F707D98FA300F1029A
:1045A80083572900231DF1005C40F18313F717009E
:1045B8008347F102F99BD98FA307F102EF703058B6
:1045C8002AD251D183479400680013975700834734
:1045D800B400FD8BD98FA305F4001C4803D647000F
:1045E8008C43EF106058A6871787010013074723ED
:1045F800740005464C102685EFF03FA42A8929D57A
:104608008347B400A685FD8BA305F400B9352DBFFB
:10461800EFD2EFE2832485FE2A8441112685E93B07
:10462800834734FF93F7070E95C32AC62685013BB7
:1046380019C9834734FFB245FD8BA309F4FE81C530
:104648002285EFF0A07441016FD0AFE16DDD8327C3
:10465800C4FF2685829765F9834734FF93F7070ED1
:1046680081C72285EFF00074032584FE613DE1BF18
:10467800EFD2EFD99C4141112A8903C70700894726
:104688002E8493566700638CF6020D466382C60437
:104698009307F0076302F7022E85EF102059AA84CA
:1046A8008149C16B130C490097F7FF1F9387071BBC
:1046B8009C43984763ECE90241016FD00FD903D7B7
:1046C80045008547E3FAE7FE2E85EF10005AC1BF83
:1046D80003D74500E3F2E7FE2E85EF102055AA84A4
:1046E8002285EF100056C204C98C5DBFDC47035514
:1046F800A900139A49003E9A93170501C187635D83
:10470800F00083570A006395A70263E574038327C3
:10471800CA00034D5A001DA0A1672167A98F13077E
:10472800F7EFE374F7FE63950900EFF09FA171FDC1
:1047380085099DBF83278A00034D4A00835DA90030
:1047480003576900216A138BC7003AC6814A33CAE6
:104758004D01631E5D0197F7FF1F9387A7109C43C8
:10476800E1DBA2866286814526858297D1B7A1675B
:104778009387F7EF930C4BFF63F04703B2455A85D5
:10478800EFF0BF8619CD03278B00104719CA1043D5
:104798006380C4023107D5BFEE856685EFF0BF9E02
:1047A80071FD93861A0093FAF60F130B0B0255B797
:1047B800835644005C43E3EDF6F622853AC6EF10D3
:1047C800E035A1679387D7042A8A035D44003247FE
:1047D80063E897008347D90093E707F8A306F90031
:1047E8001C4766852286E2858297C1670844FD17C3
:1047F800337AFA00529508C02312A40115BF97F71F
:10480800FF1F9387A7059843814715C3144781471E
:1048180063FFD500939745004C47BE9519C903C758
:10482800550081476375E600DC451606B2973E855C
:10483800828003C745008147E37BE6FE16069C4558
:10484800F5B7EFD22FBEAA892E8A814497FAFF1FA7
:10485800938ACA0083A70A00984763E4E4006FD0EC
:10486800AFBFDC471394440001493E9413BB1400C6
:1048780083474400634BF900014913BB1400834785
:104888005400634FF9008504F1B7084493175900A1
:104898005287DA860146A2853E9582990509C9BFE5
:1048A8004844931759005287DA860546A2853E95F3
:1048B80082990509E9B7EFD28FB8814517F5FFFF4F
:1048C8001305856097F7FF1F239C07F89D3F6FD05E
:1048D8004FB997F7FF1F938767F89C4399CBEFD29F
:1048E8000FB6814517F5FFFF1305055E993F6FD099
:1048F8004FB78280EFD20FB341112315E1002E8903
:10490800B284B6893A8681460147ED452A84EF107C
:1049180051392AC61DCD0356A100CE85EF60A140AE
:10492800CA852285EF10514C058915C1228501469B
:104938002C0023149100EF1031622A8409C5ED453B
:104948002800EF107144228541016FD0EFB049442F
:10495800FDB76554CDBF5C41FD175CC18280EFD2C5
:104968000FAEEF00F17695473305F50281450D81CD
:104978006FD02FAFEFD2AFACEF00917595473305ED
:10498800F5020D816FD0EFADEFD26FAB0355050087
:10499800EF10710D6FD0EFACEFD26FAA0355050081
:1049A8003287AE8617D6FF1F0356663997F5FF1F65
:1049B800938585EB81376FD0CFAAEFD24FA8EF5000
:1049C800110E6FD00FAAEFD28FA797F5FF1F93850F
:1049D800A5E9EF10515F01456FD0AFA8EFD22FA620
:1049E800814517D5FF1F03558531EF10114A6FD048
:1049F8004FA7EFD2CFA497F5FF1F9385E5E7EF10F8
:104A0800915C01456FD0EFA5EFD26FA3814517D513
:104A1800FF1F0355C534EF1051476FD08FA4EFD255
:104A28000FA22E85EF60E050EF6020776FD06FA364
:104A3800EFD2EFA0EF6010016FD0AFA25C49E11791
:104A48005CC95CC583572501A1072319F500835765
:104A58000501A1072318F5008280F1473305F50207
:104A680097F7FF1F938747E39C433E9582808D47C6
:104A78006317F60603D74600854763F2E706EFD2C9
:104A88000F9C368536842E89EF10401A39C183571A
:104A9800440093140501C18063ED97022285EF104D
:104AA800E018FD14231294009307A002630EF5008A
:104AB8009307B0026301F50293079002631BF500A8
:104AC8002285EFC0D06431A00146CA852285EF70E7
:104AD800D0766FD00F992285EF003056DDBF8280E7
:104AE80097F6FF1F938686DB9C42014599CF984332
:104AF800D44217F6FF1F2323E6DA6396D70097F60A
:104B0800FF1F23AFE6D81385C7FE8280EFD22F930D
:104B18007D2E7144330585029145EF70204A01E5E9
:104B280065556FD00F9497F7FF1F23A5A7D6452685
:104B3800330585029145EF7060487DD197F7FF1FD7
:104B480023ACA7D4692697F7FF1F239FA7D2412636
:104B580097F7FF1F239BA7D297870100938787D1D9
:104B680017F7FF1F2326F7D297070000938747ED13
:104B780017F7FF1F232CF7D0014565B7EFD22F8C0D
:104B8800AA8517F5FF1F130525D0EF10001E6FD05B
:104B98004F8DEFD2CF8ADD37EF10A01E97F7FF1F9A
:104BA8009387C7CF9C4381CF1387C7FE09CB83D593
:104BB800C7FF17F5FF1F1305E5CEEFF0201D6FD0D7
:104BC8004F8AEFD2CF87293F11C9834785002A84AE
:104BD80093F7070491E70355E500653F6FD06F88A9
:104BE8008347C5009304450117F9FF1F130909CB33
:104BF80085E3832709005CC997F7FF1F23A097CA9D
:104C080083274900E1FF97F7FF1F23AB97C8F9B740
:104C1800FD172306F5006105EF60406883078400EF
:104C280063C907048347840093E707F82304F40063
:104C3800EF0011434205A94741813375F5028347C7
:104C4800840093F707FCC98F2304F4008347D4003A
:104C58003E951C402318A40089CF984319CB83475D
:104C6800C4005040814585073305F502420541815E
:104C78000297832709005CC897F7FF1F23A097C2F4
:104C88008327490089E797F7FF1F23AB97C083471E
:104C9800C400A9D78355040117F5FF1F130585C064
:104CA800EFF0C00E25BFEFC29FF997F7FF1F93875C
:104CB80067D49C4701448583858B81EFAE84B28598
:104CC8003A86EF1060112A8409C5EF1060088294B3
:104CD80008CC22856FC0FFF8EFC2DFF441112E899E
:104CE80032C6AA89692C324713060502CA86970577
:104CF80000009385C5D617F5FF1F1305E5B865377E
:104D08002A8429CD9304C50065261946AA852685D7
:104D1800EF00906585452685EF00706217850100D4
:104D2800130505B34E95834505002685EF00B0654C
:104D38005C4831468145A1075CC85CC4835724019F
:104D4800E1172319F40083570401E1172318F4002D
:104D58001C4C3E85EFC0BFF1A3042501228541010B
:104D68006FC09FEFEFC2BFED4111AA842EC632C4B7
:104D7800EF106000004DB2452246834784000CC006
:104D880050C093F7F70393E707042304F4002318AC
:104D980004002685EF00D07B83479400A94623179B
:104DA800A40013D7370005073307D7029D8B850763
:104DB8002306F400A306E40083C70401D848850746
:104DC800230FF7FE17F7FF1F130747AD5843232A92
:104DD8000400930744011DEB17F7FF1F2322F7ACCC
:104DE80017F7FF1F232CF7AA17F4FF1F130484AB30
:104DF8002285EFE0706F1C44858B5D8D09E5814548
:104E08002285EFE0B07841016FC0BFE51CC317F7FA
:104E1800FF1F2327F7A8C9BFEFC27FE2970500004D
:104E2800938525C50145EFF09FBF01456FC07FE31E
:104E3800EFC2FFE0EFF0DFBF6FC0BFE28347C500FE
:104E4800A1E7EFC2DFDF2A840355E500EFF01FD3A7
:104E580015C98347840093F7F7FB2304F4001C402B
:104E680091C7DC4381C74C4001458297EFF05FC78B
:104E780017F5FF1F130505A3EFE0D0720355E400F3
:104E8800EFF03FD16FC0FFDD8280EFC25FDB97F7A5
:104E9800FF1F9387A7A0970500009385C5D217F534
:104EA800FF1F130525A023A0070023A20700EFE09A
:104EB80010626FC01FDB1C4D91CBDC4381CBEFC26E
:104EC8001FD88345070082976FC0BFD9828097F7A4
:104ED800FF1F9387679F9C4303C50700828097F74E
:104EE800FF1F9387679E9C4303C51700828097F72F
:104EF800FF1F9387679D9C4303C52700828097F710
:104F0800FF1F9387679C9C4303C54700828097F7E0
:104F1800FF1F9387679B9C4303C53700828097F7E1
:104F2800FF1F9387679A9C4303C55700828097F7B2
:104F3800FF1F938767999C4303C56700828097F793
:104F4800FF1F938767989C4303C57700828097F774
:104F5800FF1F938767979C4303C58700828097F755
:104F6800FF1F938767969C4303C59700828097F736
:104F7800FF1F938767959C4303C5A700828097F717
:104F8800FF1F938767949C4303C5B70011E11D4534
:104F9800828097F7FF1F938727939C4303C5C70019
:104FA800828097F7FF1F938727929C4303C5D700FA
:104FB800828097F7FF1F938727919C4303C5E700DB
:104FC800828097F7FF1F938727909C4303D507019B
:104FD800828097F7FF1F9387278F9C4303C527017C
:104FE800828097F7FF1F9387278E9C4303D547013D
:104FF800828097F7FF1F9387278D9C4303D567010E
:10500800828097F7FF1F9387278C9C4303D58701DE
:10501800828097F7FF1F9387278B9C4303C5A701BF
:10502800828097F7FF1F9387278A9C4303C5B701A0
:10503800828097F7FF1F938727899C4303C5C70181
:10504800828097F7FF1F938727889C4303C5D70162
:10505800828097F7FF1F938727879C438857828012
:1050680097F7FF1F938747869C4303D5C702828023
:1050780097F7FF1F938747859C4303D5E70219E1FC
:105088001305800C828097F7FF1F9387E7839C4363
:1050980003C50703828097F7FF1F9387E7829C4326
:1050A800C85B828097F7FF1F938787818843828038
:1050B80097F7FF1F938707818843828019E17D5501
:1050C8008280F5DE984265DFFDD917F7FF1F1307C9
:1050D80067921847AA877155058B6316072203C57F
:1050E80007001547E37DA7FC03C737001305F00544
:1050F8007D171377F70FE364E5FC03C35700E3005C
:1051080003FC83C86700E38C08FA03C777004945A6
:1051180079171377F70FE364E5FA03C7A700114877
:105128001305F7FF1375F50FE36BA8F803CE970087
:105138000D481305FEFF1375F50FE362A8F803C8C1
:10514800B7006309080065181378F80F1305600D98
:10515800E36705F703C5C700794879151375F50F97
:10516800E36FA8F403C8D7000D457D181378F80F2E
:10517800E36705F503D80701930E40175118420855
:1051880013580801E3ED0EF303C8E7007D18137800
:10519800F80FE36605F303C827017D181378F80FA5
:1051A800E36F05F103C88700C54E75181378F80F2B
:1051B800E3E70EF103D86701856E938EBEE06D18A4
:1051C800420813580801E3EC0EEF03D847016D18A5
:1051D800420813580801E3E40EEF03D88701791851
:1051E800420813580801E36C05ED03C8A7017D18B0
:1051F8001378F80FE36505ED03C5B7011D487D1564
:105208001375F50FE36DA8EA03C5D7017148791541
:105218001375F50FE365A8EA03D5E7011308E00F56
:105228007D1542054181E36CA8E803C5070249489A
:1052380079151375F50FE364A8E883AE470237C5FF
:1052480034001308F5BFE36CD8E703A887021305F9
:1052580055BF5918E36505E717E5FF1F2324C56601
:1052680003C6050117E5FF1F2320F5660545E3780A
:10527800C5E403D82501D04933760603E31106E4D3
:1052880003C61501E30D06E217E6FF1F232AB662DF
:1052980083C5270001466387A50003C61700F145AB
:1052A8003306B60283C707039305C00272971A072D
:1052B8001307C70516031A9796084697B387B702C8
:1052C80041553E97329742074183636EE802EFC229
:1052D8001F973685EF60B058EFD0F0082A84EF802A
:1052E800F0042A94EFC0D00C2A94EF6030702A940E
:1052F800EFF0DF812A94EF2010612A94EF50A0612B
:1053080022956FC01F968280EFC27F934111A30739
:10531800A100EF80C0059305F100170500001305F3
:10532800C5B9EFF00FD2014541016FC09F93EFC29D
:105338009F8E17E4FF1F1304E46B03288400795938
:105348009368180097E4FF1F23AA146B13781800BA
:10535800631E0800BA84BE89368B328A2E89AA8ACF
:10536800EFE09FDC7D15269509E531594A856FC028
:105378001F8EEFE07FDB7D152695A167E357F5FECD
:1053880097F7FF1F9387079E98433E8C814B11C761
:105398000145EFC0F025933B15004A85DA8656860D
:1053A800D285EF70501F2A8911CD1C44F99B17E74D
:1053B800FF1F2325F76483270C00CDDBE3880BFA56
:1053C80082976DB7268597E7FF1F23A70762EFE04F
:1053D8007FD24146CE8517E5FF1F1305256BEF5099
:1053E8009114EFA0A06F0325040BEFA0A071054551
:1053F800EFA0A0770545EFF03FF18DBF97E7FF1FBE
:105408009387475F9C47858BD5C7EFC25F8317E5B6
:10541800FF1F1305E56597E7FF1F23AD075C97E7B7
:10542800FF1F23AB075C97E7FF1F23A9075CEFE08B
:105438007017EF30D07FEFE0006FEFE0807397E7F1
:10544800FF1F9387A7599C4381C70545EF60901CB0
:1054580097E7FF1F938787529C4389C741657D154E
:10546800EF500067EFC0B021EFA0206897E7FF1F5B
:105478009387476D9C431397170163540700EFC048
:10548800E02C97E7FF1F23A3076097E7FF1F23A1DF
:10549800076097E7FF1F23AF075E97E7FF1F23AD5E
:1054A800075EEFF0FF989D23EFF0EFC0EFC0C04E0E
:1054B8006FC02FFB8280EFC2EFF62A849304140298
:1054C80001112E85B289A685214636C63A89EF5044
:1054D80031031DE1B24638082686CE8513059404AB
:1054E800EF40804021462C084A85EF507101133562
:1054F800150005616FC04FF60145E5BFEFC22FF4F7
:105508009305450617E5FF1F1305453CEFE0100816
:105518006FC02FF5EFC2AFF241112EC6EFF08FC565
:10552800B24588C141016FC0CFF3EFC2AFEFAA8483
:105538002E84EF60F062AA8985452285A92583C754
:10554800E4011389940899E313890403CE8522851D
:105558001D2D2146930519022285392597E7FF1F3E
:10556800938747498C432285EF00606821469385DD
:1055780084022285D52B6FC02FEEEFC2CFE9397197
:10558800EFC0E0379305400645EDEF60705A630EB3
:10559800051097E7FF1F83C7273513B7170097E64E
:1055A800FF1F2383E634014489CFC16417E9FF1F35
:1055B800130949449309400EFD14EFF05F9A6348BC
:1055C800A408EFF02FBB4169B7290900096AFD7AE1
:1055D8002A8B81447D199389F97B130A0A71938A6E
:1055E8008AC7EFF0DF9763D5A4041304400EB3878E
:1055F800840217E7FF1F1307E73F0324070B3E94B6
:105608008357C4016386270918403307EB4063EAD0
:10561800E900834744008507B3874703D697636942
:10562800F706014681450945EFF00FEBAA8B29E102
:10563800EF2090598547631FF504896593850571A7
:1056480017E5FF1F13058528EFE04074A1A8B307ED
:1056580034030327090BBA9703D7C70163089700D8
:1056680003C75700A38207002382E7000504B1B7E8
:105678009305C5002285EFF05FEB5E85228697755E
:1056880001009385251EEFF0EFED5E85EF00606F5A
:10569800850481BF97E7FF1F9387C7359C478D8394
:1056A800858BC1FF21616FC08FDA014685450945A9
:1056B80002D002D202D402D6EFF00FE2AA847DD142
:1056C800EFC020231389C4002A8481454A856529AF
:1056D8000C4041464A8549298329440063880908C2
:1056E8004E8502D802DA02DC02DEEF5031042ACEFF
:1056F800141005462C0808184ECCEF408016137578
:10570800F50F2DE58355840093E525004A854D293D
:1057180011460C104A858929014697750100938521
:10572800E5142685EFF00FE42685EF0080655C40E0
:10573800B5DB014685450D45EFF00FDAAA843DD16A
:1057480048401389C400EF50617E2AC64A85E12E7D
:105758003246636AC5004C404A8539210146814575
:105768002685EFF02FE02685292D2DBF835584004F
:1057780071BFEFC2CFCC97E7FF1F9387A7279C473E
:1057880019CD93E7870017E5FF1F1305251417E7C1
:10579800FF1F2325F726EFE0005E6FC08FCCDD9B4F
:1057A80017E7FF1F232CF724EF2010427DF517E59C
:1057B800FF1F1305A511EFE0E05EC5B7EFC2AFC547
:1057C8004169AA892E8AB28A368BBA8B814417EC32
:1057D800FF1F130C2C22930C400E7D19EFF02FF8AD
:1057E80063C4A40001442DA03384940383270C0BC5
:1057F8003E948357C401638027055A87D68652860C
:10580800CE8513050403EFF01FCB11C523800B00D1
:1058180022856FC0CFC38347F40191CF5A87D686BC
:105828005286CE8513059408EFF0FFC809C5854751
:105838002380FB00F1BF850455B783574500638D6E
:105848000716EFC22FBE01112A84CD2619C5854738
:10585800630AF50405616FC02FC0EFC0400A7DF9E7
:10586800835744004947ED9BE396E7FEC1452285EF
:10587800612CAA842285D52E0357440002CE914775
:105888002A896317F700228519293C082ACC3ECEBD
:10589800EFC020065C55DDDF74084A86A6850545FD
:1058A80082974DBF03574400D147E3F5E7FA032A2F
:1058B8000400C169014997EAFF1F938AAA13130BD1
:1058C800400EFD19EFF0AFE96344A90C2285032AC5
:1058D8000400A92EA1452A8922853D24AA8422856F
:1058E8007D2E14402A86AA8978082685CA85EFF075
:1058F800FFECAA8425D103C7F40189476315F70093
:105908008347C101A1DB5546D28513856400EF505A
:1059180081410145EF60B02201C583D7C401B1EBD5
:1059280097E7FF1F9387070D9C47935519008589B3
:1059380013D73700058B11CB8983858B6397B70005
:1059480001452EC6EFF0FFE2B2454E85EF60102705
:105958000346C1012A84937519002685EF70701AD1
:1059680031C92685EF601022268511C00145EF60F8
:10597800704CEF2070258547E31EF5EC83C7540073
:105988001307F00FE388E7EC8507A382F400D9B585
:10599800B304690383A70A0BBE9483D7C401638940
:1059A80037015546D28513856400EF50613571D1B2
:1059B800050909BF5DDC5DBF8280EFC2AFA6EF605D
:1059C800301711CDC164014417E9FF1F130989027B
:1059D8009309400EFD14EFF08FD8634AA40017E531
:1059E800FF1F1305A5EEEFE000396FC0EFA63305E2
:1059F80034038327090B3E958357C50163869700B7
:105A080023120500EF6010180504F1B797E7FF1F90
:105A1800938747FE9C478D83858B99EBEFC22FA216
:105A280017E5FF1F130585EAEFE0C0376FC06FA3C6
:105A38008280EFC2CFA097050000938545B417E593
:105A4800FF1F1305A5E8EFE080286FC08FA183C76B
:105A5800F5FF2E858507A38FF5FE828083C7F5FFA6
:105A6800FD1793F7F70FA38FF5FE89EBEFC22F9D74
:105A78001385F5FFEFF0F02E6FC0AF9E8280EFC266
:105A88000F9C8841050542054181EFF0703209C538
:105A980085472300F50005056FC0AF9C1C410357DF
:105AA80045008D8FBA951CC12312B5003E858280B2
:105AB80093D78500A2051441DD8D835745001387D0
:105AC800E6FF18C189072312F50013D68500411196
