:040000006F10D0723B
:100004000000000000000000900000208C0200208E
:10001400A9BDF9F544030020000000000000000021
:1000240044030020900000200000000000000000B5
:10003400900000200000000090000020000000005C
:1000440090000020900000209000002090000020EC
:10005400900000205C1E00209000002000000000A2
:1000640090000020900000209000002090000020CC
:10007400AA0300209000002090000020900000209F
:1000840090000020900000209000002090000020AC
:1000940001A0011113078008F337078093F787083D
:1000A4003EC201000100B71700409305700523808C
:1000B400B704130680FA2380C7040100010083C635
:1000C400B70493F6F60DA385D7042380070492465C
:1000D400F3A606800100010093760502D5CEF3361F
:1000E400078093F6860836C4010001002380B70414
:1000F4002380C70401000100B70614007D89558DD3
:1001040088C7010001000100010023800704A24602
:10011400F3A6068001000100733707801377870870
:100124003AC6010001002380B7042380C7040100FC
:100134000100010001003727004093061005A303C6
:10014400D78023800704B247F3A70780010001008A
:1001540093078008F3B7078093F787083ECE010022
:100164000100B7170040130770052380E704130745
:1001740080FA2380E7040100010003C7B704136772
:100184000708A385E70423800704F247F3A7078041
:10019400010001000561828093760504BDC6F33633
:1001A400078093F6860836C8010001002380B7044F
:1001B4002380C70401000100B706140093860604D7
:1001C4007D89558D88C7010001000100010023804D
:1001D4000704C246F3A606800100010073370780B6
:1001E400137787083ACA010001002380B7042380EB
:1001F400C704010001003727004093062005A3032C
:10020400D78023800704D24781B7733707801377D9
:1002140087083ACC010001002380B7042380C70477
:100224000100010098471367070C98C7238007044F
:10023400E24719BF0111814601468145114506CEA9
:10024400992493078008F3B7078093F787083EC67D
:1002540001000100B7170040130770052380E7046D
:10026400130780FA2380E7040100010003C7670431
:10027400136717002383E70423800704B247F3A717
:10028400078001000100F24005618280411181462E
:10029400014681451145C52A13078008F3370780B5
:1002A40093F787083EC401000100B7170040130606
:1002B40070052380C704930680FA2380D7040100C5
:1002C4000100FD552396B70223800704A245F3A538
:1002D40005800100010073370780137787083AC649
:1002E400010001002380C7042380D704010001001A
:1002F40003C76704136717002383E70423800704F5
:10030400B247F3A707800100010001A0BD473305F0
:10031400F50201007D1575FD8280411122C426C2BB
:1003240006C6AA84014463179400B240224492444E
:100334004101828005041305803E4204C13F41808F
:10034400DDB700009305000273A0458082457390D9
:10035400153492402242B2424243D2436244F244B0
:10036400025592552256B2564257D2576258F25805
:1003740006499649264AB64A464BD64B664CF64C35
:10038400065D965D265EB65E465FD65F09617300C4
:1003940020304111B7170040985F3AC6945F324746
:1003A400E39CE6FE324541018280B7170040130703
:1003B40000032388E702854723A0F18473002030DB
:1003C400411106C6EF00C070F5BF23030480154732
:1003D4002303E48001002302A480828083076480D5
:1003E400E3CE07FE23030480828083076480E3CE88
:1003F40007FE03454480828083076480E3CE07FEC2
:100404002302A4808280411126C44AC24EC006C67B
:100414001377F50BAD47AA892E8995446306F70037
:1004240019456537653F8D444E854537FD59FD14A3
:1004340063983401B240A244124982494101828046
:10044400135509011375F50F453F2209CDB7011165
:1004540026CC06CEB704080051371545BD37713791
:1004640069372AC6A53F32459377150089EB136592
:1004740015001375F50FF240E24405618280FD1406
:10048400E9FC0145CDBF397126DC4ADA4ED852D693
:1004940056D45AD25ED006DE62CE66CCB7E700E010
:1004A4007D5783AA070022C603AA470023A0E718A2
:1004B40023A2E718B7170040130770052380E70449
:1004C400130780FA2380E70483C74704930B75FF5F
:1004D400B684E20793FBFB0F8546AA892E8B3289EB
:1004E40037240040E187015763FA76016308D50099
:1004F4008946130700026313D5000157D98F93F778
:10050400F70FB71C00402382FC0411472303E48047
:100514001305F00F5D3D094CD135636D7C11B705B2
:100524000700DA9537870700795563F2E504B38746
:100534009500636EF702370B0800A94733EB65019A
:100544006399F90689E48144513D26850DA0DA8535
:100554000945553D05090345F9FFFD14050B693DA2
:1005640081C49377FB0FFDF7DD3569FD7D55B71722
:100574000040130770052380E704130780FA2380E3
:10058400E70403C74704418B2382E704F250B7E72B
:1005940000E023A0571123A24711E25432445259D8
:1005A400C259325AA25A125B825B724CE24C2161EC
:1005B4008280A5476395F90685691309F00FB30690
:1005C4009900B3742B01B6941349F9FFB3749900DD
:1005D400856B33796901416B9387F9FFB3F7270181
:1005E40099E363FC340193D94900C147E3E637FF3B
:1005F40099BF0569C1697D19D9B71305800D638851
:100604006901130500026384790113051008CA8582
:10061400DD3B353D21DD4E99B3843441D9B7DA85CC
:100624002D45D533CA94E30099F205097D3BA30F08
:10063400A9FED5BF9387F9FF93F7F70F6361FC0C0D
:1006440083C71C0413073008631FF7043707080027
:10065400636BEB04B3079B00B706100063F5D70484
:10066400334BEB0089476393F9068980D549E38CC2
:1006740004ECDA850945413B11090327C9FF914779
:100684002320E48003076480E34E07FE23033481C0
:10069400FD17EDFBFD14110B81C49377FB0FE9FFEC
:1006A4007D3371F5E1B5B717004003C75704B707A9
:1006B40008001377070219E3B78707007955E37831
:1006C400FBEA33079B00E3FFE7F855B58547E38270
:1006D400F9F2DA852D45053B9389F4FFE38504E6B9
:1006E400293393F7390091EB83260480032709000B
:1006F40093074900E39AE6E43E89CE84F1BFB54707
:100704006396F9001305900BC93135BDB147130544
:10071400B00AE38BF9FE99476391F904B705080021
:10072400B365BB002D45C53181448D4BA149753955
:1007340063967401832704802320F9008504E398D9
:1007440034FF8327048013172B01635507002312FA
:10075400F900D5BB2322F900FDB39D476399F90243
:1007640081451305B0044531BD44232009002322EB
:100774000900FD599D3993F77400CA9703C7070010
:10078400FD14398D2380A700E39634FF6DBBA14788
:100794006392F9046D398144630D0B008D47930412
:1007A400C0036308FB009304000563048B019304F6
:1007B40040041375C507E30895D81945393139390B
:1007C4000545213126850D3909453D314931E31C63
:1007D40005D669BB91476399F90013056006F536A0
:1007E400F53E130590090DB7E38F09D4F154A9BB65
:1007F400B7C7004003A7C72023A607200F10000097
:1008040001C599C1814711E6B7C7004023A6E72077
:100814008280B386F50003C80600B306F500850799
:1008240023800601E317F6FEC5B737C700408327C8
:10083400C720232607200F10000019C191C111E61B
:1008440037C700402326F7208280910503A7C5FF00
:1008540011057D16232EE5FEDDB737C7004083273B
:10086400C720232607200F10000001C53307C50049
:1008740011E637C700402326F72082800505A30F21
:10088400B5FEE31DE5FEF5B7B7C7004083A6C72054
:1008940023A607200F10000081473307F500030744
:1008A400070019E737C700402326D7203E858280FA
:1008B4008507E5B7B7C7004003A7C72023A60720CD
:1008C4000F10000001C599C1814711EAB7C7004064
:1008D40023A6E720054582808507E309F6FE330851
:1008E400F500B386F5000348080083C60600E30557
:1008F400D8FEB7C7004023A6E72001458280B7C7CA
:10090400004003A7C72023A607200F100000930769
:10091400F6FFBE952A966317C500B7C7004023A605
:10092400E7208280FD1583C715000505A30FF5FE9A
:10093400DDB737C700408327C720232607200F10C1
:10094400000001C53307C50019E637C70040232658
:10095400F7200145828005058346F5FFE397B6FE3F
:10096400E31BE5FE37C700402326F72005458280B8
:1009740079719387018722D4804306D626D24AD040
:100984004ECE52CC56CA5AC85EC65DCCB7C4C90155
:10099400014B938941869384F437173A0000130A74
:1009A4002A15973A0000938A6A1817390000130928
:1009B400291C8357240085E35C44631B0B0023A894
:1009C400F186832BC4002285EF00D01E5E84B9A873
:1009D4002326FB00FDB783A7090082971C44330735
:1009E400F5406376F500032749001D8F2A9763E0DD
:1009F400E4089737000023A3071483552400034514
:100A04000400973000E0E78040A45C405844A1CB48
:100A14000C4403264900AE97BE8663E4B70063E442
:100A2400C700B386C74014C4228B3A8459F0973761
:100A340000009387A70F9C4B09476370F706F917CB
:100A440017370000232CF70EB25022549254025947
:100A5400F249624AD24A424BB24B456182806315E5
:100A64000B0023A8E186B1BF2326EB0099BF03271F
:100A74004A0209CF63EFA7003385A74083A70A0181
:100A84006376F5009737000023AAA70A228B404417
:100A940071BF03274900BA97C5B79737000023AF42
:100AA40007085DB7938781869C4381CF411106C6B1
:100AB400829783C7818799E323A40186B2404101C9
:100AC400828083C7818781E723A401868280828014
:100AD400411122C4173400001304C4071C4006C685
:100AE40026C291C782979737000023A50706973738
:100AF400000083C7A7089DE79737000083C7171F27
:100B0400858B173700001307271E89CF834777008B
:100B140099466399F60E97370000A389071C752E32
:100B24005C4482971C4491C3829793848185984046
:100B340017360000034696FF9737000083C707FF68
:100B440093961700BA9683D60600E9CA9737000031
:100B540083C7C7FD63EEC70C97370000238807FCE3
:100B64001C40639107149737000083C77718173424
:100B740000001304641791CF8347740093F7F70FB1
:100B840089EB97370000A3850716977001E0E7808B
:100B940080F1938741869C43638607109737000052
:100BA400938707FDDC43173700002329F7F8C9337F
:100BB400973700009387C7F3DC536385070E973795
:100BC40000009387A7F69C4BF1CF83477400154729
:100BD400636AF70C9737000083C78715918BF9E395
:100BE40083C78187E1E390409736000083C616F4FB
:100BF40063CFD70A2244B24092444101173300E044
:100C0400670083DF834777001D47E31DF7F09737BD
:100C14000000A38D070CD1241C4821B7850793F746
:100C2400F70F973600002383F6F0E3E7C7F039BFE8
:100C340086073E97835507002310070023900186FB
:100C4400938741879C4317350000034525EE13170E
:100C54002500BA979C43829783D7018617370000F3
:100C64000347C7EC93C7F7FF7D8D93171700984090
:100C74003E97835707005D8D2310A7009737000028
:100C840083C7C7EA91C78507173700002300F7EA2F
:100C940017370000034787E99737000083C717E930
:100CA400E37CF7EAB24022449244410182801397E4
:100CB400170032970357070075F7850715BF37C725
:100CC40000408326C720B707FCFFFD17F58F2326B6
:100CD400F7200F10000097370000938727E5C84FCF
:100CE400832787262326D7206A0593C7F7FF99838E
:100CF4005D8D8280011122CC604126CA4AC84EC64D
:100D040052C406CEAA841D4A130965058549BC440C
:100D14006364F4000545B9A003C7D40083474400C5
:100D2400631A470503C784026304F7000040C5B78C
:100D34000347540083C75405E31AF7FE1946CA85CE
:100D440013056400853EE31335FF0347C40083C7DE
:100D54009402E31DF7FC0357E40083D7A402E317CE
:100D6400F7FC0145F2406244D2444249B249224A66
:100D740005618280E31CF7FA0347540083C75405D6
:100D8400E316F7FA1946CA85130564002536E31FEE
:100D940035F9C1BF0111973700009387270122CC91
:100DA40003A4070C26CA06CE2AC42EC6854419E419
:100DB4000145F2406244D244056182808347910038
:100DC40003471400858B6304F7000044CDB719462C
:100DD4009305A10013052400F13CE31895FE054595
:100DE400C9BF1387C1931443411122C49C5E4AC0F6
:100DF40006C6998326C2858B3A8413898193D1C709
:100E0400930700069CDE17370000034747EE93075D
:100E1400000897340000938424ED631BF7008327B4
:100E240009009C4393F70704173700002301F7ECEC
:100E340083C7040093F707048DC3938741869C43BB
:100E440082979737000023A9A7EA83C7040093F782
:100E5400F70B173700002309F7E883C7440093F71B
:100E6400070485E7854717370000A301F7E8938750
:100E740081949C433707020098C7130700FC9736F8
:100E840000002385E6E6D844F8D318401C5F91831C
:100E9400858B99CF1C5F93E707011CDF93878194AF
:100EA4009C4323A207068547173700002300F7E475
:100EB40083270900D8430583058B19C7D843759B3D
:100EC400D8C3D843799BD8C3B24022449244024940
:100ED4004101828039377300203093878194944391
:100EE40097370000938747E003C70700058B11CBB2
:100EF40097370000238C07DE97370000A38807DEAE
:100F0400828003C71700058B65F7F85271FF83C70A
:100F14005700DDB71387C19303280700832788038D
:100F24009583858BADEF11C683270803BD8323000A
:100F3400F6009DC61C43985B4607935767016356AA
:100F4400070093E707C0C207C18303970600C207DF
:100F5400C18709C7BA970947B3C7E7022390F600C8
:100F64008DCD8345150095C99737000083C727D8D1
:100F740093F7070413879500894585C33A958347FA
:100F840005000547994593F6F7066398E600E207DE
:100F9400E187814563D30700B9452E858280854565
:100FA400EDBF411126C206C622C4938481942DED5F
:100FB4009440AE87F8527DFF37F400E03E859737C2
:100FC4000000238407D2832704D1B285ED9B232814
:100FD400F4D0832704D193E787022328F4D0730045
:100FE4005010977001E0E78060949387C1939C430D
:100FF400B70680009843558F98C3D857719BD8D7AC
:1010040097370000A38407CE97370000A38E07CC40
:101014009C40094798C3832704D193E7870023287A
:10102400F4D07300501039A88D476313F5049387E7
:10103400C1939C43B70680009843558F98C3D857F3
:10104400719BD8D79440173700001307E7C983472B
:101054002700858B89EB83473700858BD1C797376A
:101064000000238507C8B240224492444101828093
:101074008547E319F5FCB7F700E003A707D16D9B9B
:1010840023A8E7D003A707D11367870223A8E7D0D3
:101094007300501098408177FD175447F58F5CC753
:1010A4000F1000009840B70702001CC7930700F810
:1010B40017360000230CF6C29387C1939C439C43CC
:1010C4009D83858B639FA700930760197CD354C7C6
:1010D40037F700E0832707D193E787002328F7D069
:1010E40089B79307E01BDDB7FC52B5F3ADBF938717
:1010F40081949C43D8479316D70063D60602984739
:101104009316D70063D106027D57B8D7173700006E
:101114001307C7A1584F05079736000023A6E6A278
:101124003707040098C798470D83058B1DC31737ED
:101134000000034787BB1367170097360000238618
:10114400E6BA130700F8973600002381E6BA214770
:1011540098C79847058B09CF173700000347D7B8BE
:101164001367170097360000A380E6B8054798C7B1
:1011740098470983058B09E798470583058B1DCF9D
:1011840017370000A30407B69847973600009386E4
:10119400A6B50983058B61C703C70600136717004B
:1011A400973600002382E6B4114798C71387C1938A
:1011B4001443D856719B13671700D8D698479316D3
:1011C400F70063D606029736000083C6A6C5C18A17
:1011D40017370000130787BDC9CE03478707136776
:1011E400070297360000238FE6C2416798C79847E5
:1011F4009316E70063D2060217370000034707AFD0
:101204006207618763570700054797360000238FFD
:10121400E6AC3707020098C798479316C70063D710
:1012240006029736000083C6F6BF858A173700008A
:101234001307C7B7A9CE0347970713672700973645
:101244000000A381E6BE3707080098C798479316A5
:10125400B70063D506003707100098C7828003C71C
:1012640036001367170097360000A380E6A80947E5
:101274002DBF834687070946BD8A6388C600034796
:1012840087078D463D8BE312D7F6114799BF8346F6
:101294009707918ACDDA034797071367870045B705
:1012A4009387819498438967938707F47CD39387C2
:1012B40001959C4383A607091396560063580600BC
:1012C40083A6070913966600634406007453FDF26F
:1012D4008280411122C4B7C7004006C603A4C720B8
:1012E40023A607200F10000011C199E5B7C70040DD
:1012F40023A6872001454DA893073500C207C18363
:10130400F19BC207C183130740036365F702138788
:10131400C19D08431387419D14436390A602172778
:1013240000001307E77C185B71D3C207DD8D054508
:1013340002976DBF1387819DE9BF035765002DEBAD
:10134400035745006366F706B306F7402146637CFE
:10135400D60203280500938687001D8FAA9661177D
:10136400172600000356E67C2392E60023A006011C
:101374002393060014C12312F500130786FF972652
:1013840000002398E67A2313B5009725000083D53F
:10139400457AB387F54017270000231CF778B7C7B1
:1013A400004023A687202105B240224441018280C7
:1013B4000841A5B7B7C7004003A8C72023A6072044
:1013C4000F10000001E523A6072182809387C19DA9
:1013D40003AE07009387419D03A307008146F2876C
:1013E40063FC670A83A80700636BF50A63E9A80A2C
:1013F400138787006362E50A03D667002167050740
:101404006317E60003C7C19005072386E19097257B
:1014140000009385A57103D6470003D76500239385
:101424000700329742074183172500002313E57014
:101434006388C7031385819D08416303F50203D5BF
:10144400660019ED83D7460023A0160121073E96B6
:1014540021062392C60097270000239CE76CB687D9
:101464009843630B67029386819D94426306D70277
:101474008356670095E283D6470003564700184316
:10148400A106B2962392D70098C383D76500A1071B
:1014940017270000231FF768B7C700402DB7BE8683
:1014A400C6873DBF0327851163020712411122C479
:1014B40006C68347C5008345E5042A8493F7C70F0E
:1014C4002306F500834697000356C700139586014B
:1014D400618563F2C508635B05060345870093F6DF
:1014E400F607A304D700054693E627006314C50056
:1014F40093E617002306D4005C4389075CC3A30A60
:10150400B400032504112E864C430905EFF04FAEB9
:101514008327841103465401D44303D7C700B296EA
:10152400118FD4C32396E7008947A30DF400034722
:1015340064039727000083C7C75C6378F704834775
:10154400C40093E707012306F40081A093E7170082
:101554002306F4006DB79376F60F635D0502034529
:101564008700854513E627006314B50013E61700CA
:101574002306C400A30AD400A30407008547A30DCF
:10158400F400832784119C43DDF3B24022440145D7
:101594004101828093E717002306F400A30AD400D4
:1015A400A3040700032504114C430905EFF04FA4DD
:1015B4008327841103465401D44303D7C700B2964A
:1015C400118FD4C32396E7008D4755BF054582800C
:1015D4009387419F9C43411122C406C6858B2A846C
:1015E400C5EF4165130525F5970002E0E78020E487
:1015F40045C58347A5002315F50083270412BDE7DD
:101604002320A4122322A41285472311F4042320A7
:1016140005008347640154412316F5000347D400B1
:101624002304E5000547A304E5001727000013077A
:10163400A76B184F1385170215811C437D1513756D
:10164400F50F9CC25C43DCC21C479CC65C47DCC6ED
:101654001C4B9CCA5C4BDCCA1C4F9CCE5C4FDCCE42
:1016640019CD9386060213070702C1BF83274412CC
:1016740088C3835724042322A412850779B79727A4
:10168400000083D727738507172700002314F772F8
:10169400B2402244410182808347C40023090400EC
:1016A400054593C747002306F400DDB7834785014A
:1016B40093F7E70FC5EF83479501CDEB034625016B
:1016C4008346C50009CA83456503172700000347FD
:1016D400574363E7E50013F7060151CB014709C6F9
:1016E400C18A0357651C81C68356A51C369741C31E
:1016F4001307C7121725000003550548B335A70281
:1017040037460F00411113060624814622C426C21F
:1017140006C67D543305A702972002E0E780C04D3A
:101724009727000083C7373EB384A700972700009C
:101734009387C76703A787098327070963F387008C
:101744003E84184375FB938741869C438297814767
:101754006364A400B307A440B2402244B3B7970023
:1017640093C7170092443E854101828081473E859C
:1017740082809387819498433C5BFDFF828005457A
:101784008280011122CC4AC84EC606CE26CA52C453
:1017940056C25AC00347B50085472A842E89832937
:1017A4000509631EF71E83570508035BC503972AC3
:1017B400000083DA6A3C172A0000130A6A3B63F8C4
:1017C400671B834605016394E61A0327851163109A
:1017D400071A0327450A631C07188346F5001D47AB
:1017E4006397E6180355A503330BFB409307204E7C
:1017F400330565038324440937460F0081461306E5
:1018040006243305F5029727000083C7C72FB35476
:101814009502B3B5AA02BE94C204C18023139408EE
:101824003385AA02972002E0E780003DB307350123
:1018340033B5A7002E953E8783264A0019E163E459
:10184400D7003387D740B3845403B7460F00938738
:10185400F623938606242320E900A697B3D7D7025C
:10186400DA976360F7101D8F2320E900938941867E
:1018740083A7090083240900829763E5A4123385B2
:10188400A4406354050C83A7090082970327090029
:101894006361E512198D8357E4031727000003578A
:1018A400A72D8E07B387E702130700329387071922
:1018B400B3D7E70263E7A710374A0F00130BFA23E5
:1018C400972A0000938ACA2A130A0A248357040415
:1018D40085072310F4048347041499E32285592AC5
:1018E400228597F001E0E78000A875E983260409C2
:1018F4008327C40803A74A00B6973E8563E4D7004C
:1019040063E4E7003385E7408347F40183546408C4
:101914002328A4088507A30FF4009727000083D782
:10192400A725B384F402DA94B3D444036368950C12
:10193400B304954083A7090023209900829763E3A9
:10194400A40C3385A440E34305F89727000083C71C
:10195400971B63E7A7089727000023A9874E014533
:1019640041A083264A00B387F6403E97F5BD8354D1
:10197400640837470F009307F723B3845403BE94D6
:1019840093070724B3D7F40263E7F900B387F94058
:101994002320F900E1BD03274A00BA99C5BF23A05B
:1019A4003501E9B5972700009387871CDC43BE9473
:1019B400F9B5972700009387A71BDC43998F3E95C1
:1019C400D9BDA145228597F001E0E780A092A30547
:1019D400A402972700009387A7119C5B81EF7D5594
:1019E400F2406244D2444249B249224A924A024BEA
:1019F40005618280894515458297D5B7B304974020
:101A0400AA940DBF83A74A00BE9425BF3DC101110E
:101A14006C0022CC06CE2A84AD3339C5FD57630A47
:101A2400F502972600009386A60CD45232479727D6
:101A3400000083C7570D91C285836360F702B30723
:101A4400F7403EC6B24503459402972000E0E78084
:101A5400A0B5F24062440561828097260000938617
:101A64002611D4423697E1BF97F001E0E780004D9C
:101A7400CDB78280797126D206D622D44AD04ECEF2
:101A840052CC56CA5AC85EC68347550303447513DD
:101A9400AA843E941374F40F9307400263F68700FC
:101AA4001304B4FD1374F40F03AA841383AAC41398
:101AB400A38B841222865285D685972002E0E78084
:101AC400200E058915E503CBD41201498149337BE6
:101AD4006403930B50024A865285D685972002E010
:101AE400E780000C058915C5639169031374F90F28
:101AF400238B8412B250225492540259F249624AFE
:101B0400D24A424BB24B456182808509E20993D99E
:101B140089410509E31179FDE1BF8327850903564E
:101B24000504797193D60701BD8EC206C182358E34
:101B34001357764093575640898B058B5D8F935787
:101B44003640918B5D8F93571640A18B5D8F931711
:101B54001600C18B5D8F9317360093F707025D8FD4
:101B6400931756009355860093F707041E065D8F5E
:101B74001376F60F518F93D7554013D63540118AFB
:101B8400898BD18F13D67540D18F13D61540218AF6
:101B9400D18F13961500418AD18F13963500137691
:101BA4000602D18F13965500137606049E05D18F35
:101BB40093F5F50FCD8FA20745465D8F3307C70216
:101BC40022D42A8426D252CC56CA032A8413832AC6
:101BD400C4135AC806D636974207418393577740B1
:101BE400135557400989858BC98F1355374011897F
:101BF400C98F135517402189C98F131517004189BF
:101C0400C98F1315370013750502C98F13155700B3
:101C140093558700137505041E07C98F1377F70FB3
:101C2400D98F13D5354013D755401189098B498F66
:101C340013D57540498F13D515402189498F1395C4
:101C440015004189498F1395350013750502498F95
:101C540013955500137505049E05498F93F5F50FEB
:101C64004D8F2207D98FB387C7024AD04ECE5EC6A6
:101C740062C4B697C207C18313D7774013D55740C0
:101C84000989058B498F13D537401189498F13D59D
:101C940017402189498F139517004189498F13955E
:101CA400370013750502498F1395570093D58700A4
:101CB400137505049E07498F93F7F70FD98F13D532
:101CC400354013D755401189098B498F13D5754079
:101CD400498F13D515402189498F139515004189E2
:101CE400498F1395350013750502498F13955500D7
:101CF400137505049E05498F93F5F50F4D8F220743
:101D0400D98FB387C702130650025285D685B6977A
:101D1400BD8E93940601C18033F6C402137BF60F83
:101D2400972002E0E780C0E705890DED8347D412D0
:101D340001498149B3849702130C5002C1804A8639
:101D44005285D685972002E0E78080E50589937B5C
:101D5400F90F11C563863403850993F9F90F050951
:101D6400E31F89FD230B6413B25022549254025989
:101D7400F249624AD24A424BB24B224C45618280BC
:101D84005E8BCDB70111972700009387270222CCE1
:101D940003A4870C26CA4AC84EC606CEAA841309D1
:101DA4002500854915C083C7140003473400858B7B
:101DB4006304F700405CFDB71946930544004A8567
:101DC400EFE05FAFE31835FF2285F2406244D2446E
:101DD4004249B249056182804111972700009387E7
:101DE400E7FC22C403A4870C26C24AC006C6930497
:101DF4002500054901E82285B24022449244024963
:101E040041018280A6851305A402972002E0E780A1
:101E14002093E30225FF405CF1BF411197270000A6
:101E24009387C7F822C403A4870C26C24AC006C6F7
:101E340093042500054901E82285B24022449244D6
:101E4400024941018280A6851305A401972002E07E
:101E5400E780008FE30225FF405CF1BF197106C2E1
:101E640012C416C61AC81ECA22CC26CE2AD02ED216
:101E740032D436D63AD83EDA42DC46DECAC0CEC2C6
:101E8400D2C4D6C6DAC8DECAE2CCE6CEEAD0EED2F6
:101E9400F2D4F6D6FAD8FEDA938581838841E70036
:101EA400050092402242B2424243D2436244F24489
:101EB400025592552256B2564257D2576258F2589A
:101EC40006499649264AB64A464BD64B664CF64CCA
:101ED400065D965D265EB65E465FD65F0961730059
:101EE40020300000EFE01FBC730000000000000081
:101EF400938281870383020023800200630F03001F
:101F0400F32510342EC0970500009385E5FD7390EA
:101F14001534EFF0CF9D7300203086DCEFF02F9D59
:081F2400E6508280000000007D
:101F2C00971100209381C195175100201301C18C8A
:101F3C001305400097E5FF1F9385050C170600203D
:101F4C00130606FE63FAC5008322050023A0550084
:101F5C0011059105E3EAC5FE17450200130585D866
:101F6C00970500209385C5FB1386818363FAC50012
:101F7C008322050023A0550011059105E3EAC5FE57
:101F8C001385818397250020938545F46377B500ED
:101F9C00232005001105E36DB5FEFD42739002BCD4
:101FAC008D4273904280930280087390023097E2C6
:101FBC00FF1F9382620493E23200739052309712A7
:101FCC000000938202F673901234730020303D436C
:101FDC002A876373C3029377F700BDEFADE5937661
:101FEC0006FF3D8ABA960CC34CC30CC74CC74107BD
:101FFC00E36BD7FE11E28280B306C3408A069702D8
:10200C00000096966780A6002307B700A306B700CA
:10201C002306B700A305B7002305B700A304B70038
:10202C002304B700A303B7002303B700A302B70030
:10203C002302B700A301B7002301B700A300B70028
:10204C002300B700828093F5F50F93968500D58D0C
:10205C0093960501D58D61B79396270097020000E2
:10206C0096968682E78086FA9680C1171D8F3E96DB
:10207C00E374C3F8A5B7B717004003C77705137708
:10208C00E70FA38BE704130700F8A38DE7043D4784
:10209C00238CE70413075003A38CE70403C7A7059D
:1020AC001377D70F238DE704828041112A83014EC9
:1020BC00930E407E130F0019930F400663E56E12CA
:1020CC009308001913034006B3781503854E0D4F82
:1020DC00A14F337365020D891335150063EFBE12E2
:1020EC001308F6FF79467298420813580801330713
:1020FC00C70213D61700BE0732976146B3F6C60265
:10210C0013068070B386C6023697A166F58F420718
:10211C005D8FB716004083C7F60293F70708A30339
:10212C00F1000346710083C7F60293F70708E394A6
:10213C00C7FE83477100B716004093F7F70F63880B
:10214C00071293078008F3B7078093F787083EC4FC
:10215C0001000100B7170040930670052380D704D7
:10216C00930680FA2380D7040100010023AA0703F9
:10217C0083C6170393E60608A388D70223800704B7
:10218C00A247F3A70780010001001166B7170040B2
:10219C007D16D45BC85F93854703A98EF18EF5FA43
:1021AC0093068008F3B6068093F6860836C60100BF
:1021BC000100930670052380D704930680FA2380D0
:1021CC00D7040100010098C103C717031367070464
:1021DC00A388E70223800704B247F3A70780010016
:1021EC000100410182807D133368E3039308E016FC
:1021FC00630E08003368F3039308D01663080800D5
:10220C009378330093B818009388D81633081E01BE
:10221C00131E0801135E0E0155B56393E5030548C3
:10222C00638608000148630303002A8871087298CA
:10223C00FD15131E0801C205135E0E01C18179BD87
:10224C0013F8150063F4BF007908D5B713381800DC
:10225C00E5BF83C7F60293F70708A303F100034613
:10226C00710083C7F60293F70708E394C7FE834710
:10227C00710093F7F70FF1DFE9B5914763EEB70201
:10228C0017370200130787078A05BA959C41BA973E
:10229C008287B717004003A7470B1345F5FF698FDB
:1022AC0023AAE70A03A7070B698F23A8E70A03A74A
:1022BC00070A798D23A0A70A8280B717004083A64E
:1022CC00470B1347F5FFF98E23AAD70A83A6070BF2
:1022DC00558D23A8A70A83A6070A758F23A0E70AA2
:1022EC008280B717004003A7470B498F23AAE70A40
:1022FC0003A7070B1345F5FF45BFB717004083A68F
:10230C00470B1347F5FF758F23AAE70A03A7070AA4
:10231C00598D4DB7B717004003A7470B498FEDB741
:10232C00B71700408847420541819377050491EB2C
:10233C009377F5013755E801130505803345F50210
:10234C0082809377050C130700046397E70093775B
:10235C00F50137459C1CCDB72165130505D082804E
:10236C00B7F700E08847CC47828081473737004079
:10237C00A14663C4C700328582800345B740E38E13
:10238C00A6FE3385F5000345050085072304A74009
:10239C00CDB7411122C406C62A8459372947B30741
:1023AC00E502B2408D83B3D7870222449507B3D799
:1023BC00E70237370040C207C1832316F7404101BB
:1023CC008280716541111305052006C6D937B737D0
:1023DC000040130770F82381E7400D47A381E740C5
:1023EC0013070004A380E74005472387E740B2406A
:1023FC0041018280411193962500AA852D4506C680
:10240C0097E0FF1FE780A007B240014541018280A1
:10241C00411126C29394250022C44AC02A843289D1
:10242C00A686AA850146254506C697E0FF1FE780CC
:10243C000005A6864A86A285294597E0FF1FE780FE
:10244C000004B24022449244024901454101828079
:10245C00011122CC06CE3714004026CA4AC84EC6FB
:10246C0052C483447405034AB40583498405034963
:10247C00940511318347A40593F4F40F137AFA0FE2
:10248C0093E71700230DF40493F9F90F1379F90F5F
:10249C00B717004003C7A705058B6DFF03D5C7050C
:1024AC00A38D4705238C3705A38C2705A38B970495
:1024BC00F2406244D2444249B249224A05618280C8
:1024CC0041119397050122C406C6C1872E8463DD92
:1024DC000700EF00103719C1EF00502B2165218D3B
:1024EC00B24022444101828093F7150013C51500B8
:1024FC00E5FB9397250163DF0700EF50F13837F6C2
:10250C000200130606E0896503C5C183EF10401075
:10251C000965F1B7939715010145E3D307FC17350E
:10252C000200130565E3EF10B242130600649165D7
:10253C0003C5C183EF10C00D116555B71D71494618
:10254C00973502009385C5DC173502001305852CE1
:10255C0086CE97E0FF1FE780603501E91735020052
:10256C00130545DCEF10D23E01A0B7F600E0795719
:10257C0098CAFD57DCCA0567B7E700E023A0E7104F
:10258C001306F00290C223A0E71801000100170700
:10259C0000201307679523ACE1824157A38AE740DB
:1025AC001306C0038145480897E0FF1FE780602AA7
:1025BC0097070020938707D33ECA896793870780C4
:1025CC00231CF100A167938707E03ECEB707010FEC
:1025DC00938707103ED09307001F2312F102A947DF
:1025EC002303F10297070000938707E1BEC4970706
:1025FC000000938727E2BEC68567938757D12314C3
:10260C00F102B7F50700970700009387A7D53EDACC
:10261C008146970700009387E7E37000E1051945B1
:10262C003EDE97E0FF1FE78080E55808814799461A
:10263C0070003E960346060085070507A30BC700EE
:10264C00E398D7FED24791C703578101856763731F
:10265C00F70001A04808EF10805DAA8501C9173565
:10266C000200130565CDEF10121D01A0F640256187
:10267C0082804111170500001305C5E406C622C46B
:10268C00EF1060571384C1832300A400292803454D
:10269C0004002244B24037F60200130606E08965B6
:1026AC0041016F00F076797106D613078008F33775
:1026BC00078093F787083EC401000100B71700405C
:1026CC00930570052380B704130680FA2380C70492
:1026DC000100010083C6F70293F6D60FA387D70239
:1026EC0023800704A246F3A606800100010073377D
:1026FC000780137787083AC6010001002380B704CE
:10270C002380C7040100010003C7F70213675700B9
:10271C00A387E70223800704B247F3A707800100D1
:10272C000100814701478146054685451305407EDA
:10273C00AD3A08084146814597E0FF1FE7806011DC
:10274C00B707C0A83ECAB78732003ECC080897E747
:10275C00FF1F938787C33EC8EF10C07EB250456100
:10276C008280411117350200130545E006C6EF10B3
:10277C00920CB2408547A383F18441018280B3055A
:10278C00B04017350200130525E96F10D20A8347B4
:10279C00250035476368F72417370200130707BC79
:1027AC008A07BA979C43797122D406D626D24AD08E
:1027BC004ECEBA972A84828703C7C184A54763E8A3
:1027CC00E70603494500930955008144138441A150
:1027DC0003C5C18463E4A4060E0509051946CE851C
:1027EC00229597E0FF1FE780200083C5C184939753
:1027FC003500850593F5F50F1386F5FFA2970E06A8
:10280C002296A38027012386B1848348760003484F
:10281C00660083475600034746008346360003464E
:10282C00260017350200130525C9EF10D200B2504F
:10283C00225492540259F249456182809395340096
:10284C0089051946A2954E8597E0FF1FE780000683
:10285C0079FD850493F4F40FA5BF05041374F40FEC
:10286C0083C7C184637DF400931534008905194630
:10287C00A6954A8597E0FF1FE780400379DD83C763
:10288C00C184639E870217350200130565C5EF10DE
:10289C00320C014685450D4523860184EF90416B32
:1028AC0017350200130545C0EF10920A49B70144D1
:1028BC00938441A117F9FF1F1309897C55B717356C
:1028CC000200130525C3EF10B208938741A10E0433
:1028DC00930624003E9403461400BE9681450145A0
:1028EC00EF90A1630566130606C89305001003C597
:1028FC002185EF00F051173502001305A5C06DB707
:10290C009305001003C52185EF00B07883451400B2
:10291C00ADE10355A4008947A386F1842393A180DC
:10292C008547A383F18403C621859307C01E6C00E1
:10293C002316F100EF50806513060064A14503C512
:10294C002185EF00F04C130600649305002003C5AD
:10295C002185EF00F04B05661306069693050040A3
:10296C0003C52185EF00D04A17350200130585BA3F
:10297C0025BF173502001305E5BAEF10C26B1735EA
:10298C000200130565B2EF10A27C23860184014678
:10299C0085450D45EF90C15B59BDA3860184F95760
:1029AC009305000803C521852393F18023830184BB
:1029BC0023860184A3830184EF00B06D83456400FA
:1029CC00173502001305C5B7EF10E2661735020084
:1029DC00130585ADEF10C2775DBF173502001305E7
:1029EC00E5B7D9B58280011122CC36C606CE2E842D
:1029FC00EF00D007B24637460F0013060624337695
:102A0C00C50291CAB285173502001305E5BF32C65F
:102A1C00EF106262324622856244F24081450561C4
:102A2C006FA0C16081E9B285173502001305C5B6E8
:102A3C006F1062608547639DF50017350200130522
:102A4C00E5B609C617350200130545B76F1042707D
:102A5C0089476398F50017350200130525B77DD615
:102A6C0082808D47E39EF5FE17350200130505B7EE
:102A7C0071DEB28517350200130585B755BF797124
:102A8C009397050126D206D622D44AD0C187AE84AC
:102A9C0063D3072603C521856D232A840DC50347FF
:102AAC0005009307000B631EF70083C7D184094709
:102ABC008345450013098500638FE7004A85EF5075
:102ACC0010262285E1212165258DB2502254925485
:102ADC000259456182800D476381E5020547639089
:102AEC00E50203478500631AF7028345C5001735D5
:102AFC0002001305258AEF100254A38301840347B7
:102B0C0044009307F007631AF700835584001735C8
:102B1C0002001305A589EF100252834744002D478C
:102B2C006387E7020547639CE70203478400A946D5
:102B3C006311D7048345C400173502001305C587FC
:102B4C00EF10624FA38301848345440085BF5C442E
:102B5C00173502001305458783C50700D5B74D47C8
:102B6C006393E7021735020013054588EF10425EA8
:102B7C00D1BFC9466315D7028345C400173502007F
:102B8C001305858575BF6D47639BE70013878184AB
:102B9C0018438357A400BA9723A4F18475B703C7CD
:102BAC0061845DD385466319D7081D47639CE70292
:102BBC008357840085CB5C441735020013050584CC
:102BCC0083C5170003C6370003C7070083C7270058
:102BDC00A2052206D98D5D8E2398B1842397C184DA
:102BEC00EF106245834744001D476395E704034794
:102BFC001400E947E39AE7F483D70185B1D723148E
:102C0C00F1009387E18483D7070009472383E1848C
:102C1C002315F100F977938727102316F100FD5740
:102C2C0003C621852C0003D561802307F100EF50EA
:102C3C00004019BF05477DBF89466317D706254756
:102C4C006392E7028357840091CF58441725020002
:102C5C001305857D8347170083450700A207DD8D8B
:102C6C00EF10623D834744002547639DE70203470D
:102C7C001400E947E39AE7EC8D472383F1849387AB
:102C8C00018583D707002314F1009387E18483D750
:102C9C0007002315F100930720202316F10093075A
:102CAC009002BDBF0547F9B78D46E31FD7E825470E
:102CBC006390E7048357840085CF58449305000440
:102CCC0013060064834717000347070003C52185DB
:102CDC00A207D98F2392F184A3830184EF005013B0
:102CEC0083D541841725020013058576EF10A23495
:102CFC002383018491BD93F7150085C317F6FF1F3D
:102D0C001306C62297F5FF1F9385852103C52185E0
:102D1C00EF90811B13C514004DBB93F7051081CBAD
:102D2C0041657D15EFB0810913C5041079BB93F78C
:102D3C00850095C781572314F100239701842398AC
:102D4C000184854783C6218509462C0003D5618003
:102D5C002383F184EF50E04B13C58400BDB393F78C
:102D6C00050189CF1307802581465146D14503D5EE
:102D7C006180EFB0210413C5040181BB93F70540BA
:102D8C009DC3014789460946814503D56180EFB053
:102D9C002105AA85172502001305056FEF10A2293E
:102DAC0013C504401DB393F70504B5C383C77184E1
:102DBC00B9E79387418483D70700014781462314E1
:102DCC00F10009468947C94503D5618023180100E4
:102DDC002315F100EF50A02D2AC615C185472300FD
:102DEC00F500B24703C621852C00A380070003D54C
:102DFC006180EF50402419E58547A383F18413C506
:102E0C000404E1B1C9452800EF506071CDBF93F7C0
:102E1C0005088DC303D56180EFA091790566130673
:102E2C0006969305000803C52185EF00607E13C547
:102E3C00040861B993F705200145E38807C8938717
:102E4C0081848C431725020013054565EF10A21EE3
:102E5C00130600649305002003C5218523A4018477
:102E6C00EF00007B13C504208DB101111705000084
:102E7C00130525C106CE22CCEF00F0571384218513
:102E8C0085652300A400938505960945EF20F0285D
:102E9C009D451D45EF2070289D452145EF20F027CD
:102EAC00930540063545EF20502785470D477000A8
:102EBC0091451305F0402304F100A304F100230510
:102ECC00E100A305F10002C6EFA0013D30008545ED
:102EDC0013058040EFA0413C130691008545130576
:102EEC009040EFA0613B1306A10085451305A0405F
:102EFC00EFA0813A1306B10085451305D040EFA031
:102F0C00A139EF60801203450400EF50703E034579
:102F1C00040085451D23F240624405618280411105
:102F2C001305800406C697D0FF1FE78000163717DD
:102F3C0000408327870A8D451305002093E707205F
:102F4C002324F70AEFF06FB3EFF0AFC71735020089
:102F5C001305458CEF10C21FEFF04FDEEFF06FF151
:102F6C00EFA05168193797D0FF1FE780E04423ACDE
:102F7C0005FE1C4191E7010001000CC18280BA875B
:102F8C0003A787FF6DFF23ACB7FE8280411122C4DB
:102F9C0026C237C4004006C68324C420232604203E
:102FAC000F10000009E9232694201545B240224455
:102FBC009244410182800347E5FF9307F00F6306BB
:102FCC00F700232694201145D5B797E0FF1FE78023
:102FDC00E03D014523269420D1BF411126C24AC0B1
:102FEC00B7C4004006C622C403A9C42023A60420EB
:102FFC000F10000009E923A62421B2402244924478
:10300C000249410182809565938505D0C98D2A843A
:10301C002105C2054205C181418197E0FF1FE78070
:10302C00C02A01CDFD572320050023128500230360
:10303C00F50023A624212105C9B723A62421014587
:10304C006DBF411126C2B7C7004006C622C483A477
:10305C00C72023A607200F100000938741859043BB
:10306C0001440147B28791E711E8A165EF007002B6
:10307C0025A083C6E7FF639BA60215CC832684FF9D
:10308C00631DC40223AAD1847D57232C04FE230F75
:10309C00E4FEE1DFA16555262285B2402244B7C784
:1030AC00004023A6972092444101828011E03E8784
:1030BC0083A787FF4DBF3E84E5BF232CD7FEE9B71E
:1030CC00411126C24AC0B7C4004006C622C403A997
:1030DC00C42023A604200F10000089E523A6242178
:1030EC00154515A02A849717002083C777A32E8532
:1030FC006375F400894763EE8700493DB7C700400C
:10310C0023A627210D45B240224492440249410195
:10311C00828083A785FF99E703C7E5FF9307F00F2C
:10312C006308F700A535B7C7004023A627214DBF7C
:10313C00238F85FE138541851D3DA1652285F52CC8
:10314C00014523A62421C1B723AA01848280938739
:10315C0001879C4399E33E85828003D72700631641
:10316C00B70003C70700E308A7FEDC47E5B7BDCDF2
:10317C00797122D406D626D24AD04ECE014441478C
:10318C00B3D78540858BB1CF1205314722953305D6
:10319C00E5029387C18503A907008544B394840095
:1031AC00C204C180BE892A990327090011C70325CF
:1031BC0049002EC60297B24531473304E40283A777
:1031CC0009003E941C4489E72320090023220900AE
:1031DC00B2502254A58D02599254F2492E85456164
:1031EC0082800504E31EE4F88144DDB72E858280DD
:1031FC0041111397050122C406C626C24AC0418755
:10320C002E84635E0700353D11C14933A1673D8CA7
:10321C002285B24022449244024941018280EDD978
:10322C00AA8701474146B356E440858A9DCA920756
:10323C00BA97B146B387D7029386C18503A9060016
:10324C008544B394E400C204C1803E9983270900ED
:10325C000325490082972320090023220900258C8D
:10326C0045BF0507E311C7FC8144D5BF411126C2F8
:10327C00B7C7004006C622C483A4C72023A60720D4
:10328C000F100000971700209387C7859C53138459
:10329C00818099C782971C403E9523A4A18029A0C8
:1032AC00938741869C43FDF71C4037470300130767
:1032BC00D73FB387E70237A72600130737ECB24096
:1032CC00BA9723A4F180B7C7004023A697200840E3
:1032DC002244924441018280011126CA4AC8B7C7D0
:1032EC00004006CE22CC83A4C7202A892E8623A692
:1032FC0007200F100000131506019305F0044181FF
:10330C0032C697E0FF1FE78040FC2A8419C532467D
:10331C00CA8597D0FF1FE780204D2285F24062447A
:10332C00B7C7004023A697204249D244056182804A
:10333C00797126D2B7C7004006D622D44AD04ECED9
:10334C0052CC56CA5AC85EC662C483A4C72023A6F0
:10335C0007200F10000005E123A697200945B25065
:10336C00225492540259F249624AD24A424BB24B0D
:10337C00224C45618280938741869C43BA8A368A67
:10338C00B28B2E8BAA8982979387C18598433E89ED
:10339C000144B146C147330CD402330687011042B5
:1033AC0041E6C165938505F0414597E0FF1FE78035
:1033BC00C0F105E1970700209387C7729C5B81C71A
:1033CC00814511458297B7C7004023A697202D450C
:1033DC0079B793870187984321E723A8A186230017
:1033EC0005008327090005473317870023260500AE
:1033FC00232475012311E50023225501E29723A014
:10340C00370123A2670123A4570163040A00230098
:10341C008A00B7C7004023A69720014589B73E878D
:10342C005C47F5FF48C765BF0504E316F4F6B7C75C
:10343C00004023A6972021451DB7B7C7004083A69F
:10344C00C72023A607200F100000170700200347F2
:10345C00376D6371E50213868185131715000842D9
:10346C003A9503570500D98D2310B50023A6D72014
:10347C000145828023A6D7200D458280B7C7004026
:10348C0083A6C72023A607200F10000017070020D3
:10349C00034717696373E5021386818513171500BB
:1034AC00084293C5F5FF3A9503570500F98D231093
:1034BC00B50023A6D7200145828023A6D7200D4531
:1034CC008280011126CA37C7004006CE22CC4AC8DA
:1034DC004EC652C48324C720232607200F10000099
:1034EC00130705FF1377F70FFD4763E1E70AB146B2
:1034FC00B306D5029387C185984336971C43D9C729
:10350C00135A450005443D893315A40013140501D5
:10351C0041802E895285A2851D39AA8939C9A28577
:10352C005285A93F938741869C4382979707002039
:10353C0083D7C763338727032A8481461306006425
:10354C00B3B7270313050732B335E500BE95EF007B
:10355C00A269B3078500970600209386A6603E8774
:10356C00D44263E4A70063E4D7003387D74023A495
:10357C00E900B7C7004023A697200145F2406244FA
:10358C00D2444249B249224A05618280B7C7004001
:10359C0023A697200945DDB701114AC8B7C70040DB
:1035AC0006CE22CC26CA4EC603A9C72023A60720C6
:1035BC000F100000BD4763E7A70431473307E5024E
:1035CC009387C1859C43BA979C438DCF0544331494
:1035DC00A40042044180AE840145A2858D3EAA8997
:1035EC0011C5A2850145593D23A49900B7C70040D8
:1035FC0023A627210145F2406244D2444249B249F4
:10360C0005618280B7C7004023A627210945E5B78D
:10361C00797126D24ECEB7C4004006D622D44AD0F9
:10362C0052CC56CA5AC85EC683A9C42023A604200D
:10363C000F1000009707002083C7974E6378F500A2
:10364C009387418683AB070063970B00B7C7004095
:10365C0023A63721A9A0170B0020130BAB50832AEC
:10366C004B00B74736FE938707C82E8A9705002074
:10367C0083D5C54FBE9AB387C5022A843289814649
:10368C00B3B5C50213850732B337F50013060064D2
:10369C00BE95EF00625563F0AA0223A634210145C2
:1036AC00B250225492540259F249624AD24A424BC5
:1036BC00B24B45618280829B9705002083D5054BD8
:1036CC00B3872503AA84130600648146B3B525038A
:1036DC0013850732B337F500BE95EF00E250B30700
:1036EC009500BE8403274B0063E4A70063E4E70066
:1036FC00B384E740D2852285993C01C904C5B7C77C
:10370C00004023A63721054561BF936504F0C2052F
:10371C00C181414597E0FF1FE78020BB19E997075E
:10372C0000209387273C9C5B95D3A28511458297FB
:10373C0031BF938701879C438DE323A8A1868547DE
:10374C002326050004C52311450123008500A30091
:10375C00F5002322050065B7BA87D84775FFC8C79F
:10376C00F9BF79714ECEB7C7004006D622D426D207
:10377C004AD052CC56CA5AC85EC662C466C26AC027
:10378C0083A9C72023A607200F10000025C14144A0
:10379C003689B28A2E8AAA84B14C138BC185054D09
:1037AC00130C0003B30B940303270B005E971C430D
:1037BC00B9EF9375F400B315BD0013554440C20521
:1037CC005686C1811375F50FA13531C183270B00C6
:1037DC00DE9784C323A247016304090023008900F8
:1037EC00B7C7004023A63721014521A023A63721C6
:1037FC000945B250225492540259F249624AD24AB3
:10380C00424BB24B224C924C024D456182800504D6
:10381C00E31A84F9B7C7004023A637212145D1BF4D
:10382C00011122CC26CA4AC84EC6B7C7004006CEE4
:10383C0003A9C7202A84AE89B28423A607200F10BF
:10384C000000F9332285CE85EFF07F902A8405C5E0
:10385C009705002083D58531B38795021306006444
:10386C008146B3B5950213850732B337F500BE9583
:10387C00EF00823748C013351400F2406244B7C7DA
:10388C00004023A62721D2444249B2490E050561C6
:10389C008280011122CC4AC84EC6B7C7004006CE62
:1038AC0026CA83A9C7202A892E8423A607200F1095
:1038BC000000EFF0DF89AA8419C123110500A2854D
:1038CC004A856D3E9707002083C78725639727019C
:1038DC0083D701865D8C23908186B7C7004023A6D1
:1038EC003721014591E01945F2406244D2444249E6
:1038FC00B24905618280011126CA4AC8B7C400408A
:10390C0006CE22CC4EC603A9C42023A604200F1039
:10391C0000009307F00263E6A704B1473304F502F5
:10392C009389C18583A70900A2979C439DCB93776C
:10393C00F5008545B395F500C205C1811181913F14
:10394C0083A709000145A29723A0070023A2070023
:10395C0023A62421F2406244D2444249B249056173
:10396C008280B7C7004023A627210945E5B741113E
:10397C0026C206C622C4B7C7004083A4C72023A60C
:10398C0007200F100000EFF08FFC19E90145B24041
:10399C002244B7C7004023A697209244410182805D
:1039AC00938741869C430045829797070020938715
:1039BC00671B6368A402D843B74636FE938606C8D5
:1039CC003305A4403697E373E5FC13070064B33565
:1039DC00E50203D6870081463305E502EF00C220DD
:1039EC007DB7D8433A94C1BF411122C426C21704F3
:1039FC000020130424179704002093846412944825
:103A0C0058409387418606C69C43639FE60682977F
:103A1C005440B74736FE938707C8B6973387A7003D
:103A2C003A856364F7006364D7003305D740970485
:103A3C0000209384A42A9C4C91CB938701959443AA
:103A4C003707CDFF7D179C46F98F9CC611E1484086
:103A5C009707002093870709DC53829719E59C4C44
:103A6C0099CFEF40E176EF3071469C4C89CB938730
:103A7C0001959843B70633001C47D58F1CC7B2403D
:103A8C002244924441018280829794485840B387E3
:103A9C00A6003E8563E4D700E3EBE7F83385E74007
:103AAC0079B7411106C623A6A1860295B2409707A5
:103ABC00002023A3A708014541018280994763E9AF
:103ACC00B7008A059707002093870708BE9588C121
:103ADC00828023A4A18601C58547238CF186828030
:103AEC00411171468145170500201305E50506C6F1
:103AFC0023A8018623A6018623A20186238C018696
:103B0C0023A4018697D0FF1FE780A0D41306800260
:103B1C008145170500201305A50097D0FF1FE780EE
:103B2C0040D3EFA081369707002083C7F7FC13D54D
:103B3C0027008D8B3E958D473305F502854539055C
:103B4C001375F50F97070020238DA7FC99473305B4
:103B5C00F5021305052497D0FF1FE780007723AEED
:103B6C00A18459C5994717060020034686FB3306E6
:103B7C00F60281451306062497D0FF1FE78060CD1F
:103B8C009387C1859C439387072423AAF186170743
:103B9C000020034707F90A07BA9723ACF184EFF02A
:103BAC00AFDA69219387418794439707002083C735
:103BBC0037F713972700369717F6FFFF1306665B48
:103BCC0010C3138717001377F70F0A07369717F6EA
:103BDC00FFFF1306266210C313873700890793F77C
:103BEC00F70F8A0797050020A38CE5F2B69790C3D0
:103BFC00B240410182809707002083C777F21707F4
:103C0C000020034707F263F1E7021387418718434B
:103C1C009386170017060020A304D6F0939627006E
:103C2C00369708C33E8582809307F00FE5BF1C4191
:103C3C006380071441777D8FB70600208947631A8C
:103C4C00D7120357450063060712411122C41946C7
:103C5C002A849305F00F610506C697D0FF1FE780F5
:103C6C00C0CC05478D476300E5101C4491C75858DC
:103C7C00994775CB185C65CB1306C00381451705B6
:103C8C000020130525E697D0FF1FE78080BC1306A4
:103C9C00C003A285170500201305C5E497D0FF1FAC
:103CAC00E78080B417070020035787E497070020AC
:103CBC00938747E319E71307001097060020239911
:103CCC00E6E2170700200347C7E211E7054797060E
:103CDC0000202380E6E2170700200357A7E111E735
:103CEC006D47970600202397E6E01707002003474F
:103CFC0057E011E7154797060020A38CE6DE17075F
:103D0C000020034747DF11E705479706002023846F
:103D1C00E6DE17070020034717DE19E703C7F70095
:103D2C0097060020A389E6DC170700200347C7DCB1
:103D3C0011E75547970600202380E6DC0347640112
:103D4C0019E71307C003970600202388E6DA9C576F
:103D5C0091C78297970700202398A7DCFD57A38172
:103D6C00F19CBD3B8147B24022443E85410182809B
:103D7C0089473E85828001114EC6970900209389A0
:103D8C0069DE83A7090006CE22CC26CA4AC852C4D3
:103D9C00829713090064B335250303DA8900814641
:103DAC00528633052503EFF0316497070020938783
:103DBC0027D7804FAA84014563069402338584403B
:103DCC00636E940003A5490052868146B335A9025F
:103DDC003305A902EFF05161018D2695970700205C
:103DEC0023AC97D4F2406244D2444249B249224AAD
:103DFC0005618280011122CC0A852E8441469715DB
:103E0C0002009385A54E06CEEF0082171808060413
:103E1C003A94035504FF9707002083D747D5F24007
:103E2C006244AA9737450F00130505243355F50254
:103E3C00056182809707002083D767D351471D45C2
:103E4C00637CF702794719456378F702130720035F
:103E5C0015456373F7021307B0041145637EF70031
:103E6C00130740060D456379F700130760090945F0
:103E7C006374F70013B5B70F8280011122CC06CE04
:103E8C002A842EC6EFF08FBEB245F240818D33A549
:103E9C00A502229562441375F50F0561828001110C
:103EAC0022CC06CE2A842EC6EFF04FBCB245F2408F
:103EBC00818D33A5A502229562444205418105619D
:103ECC008280011122CC06CE2A842EC6EFF00FBAC6
:103EDC00B245F240818D33B5A5022295624405614D
:103EEC008280970700209387E7BF985739CB411101
:103EFC0022C426C206C6BE840297170700200357A9
:103F0C00A7C22A8415CBBA876373A700AA87C207F6
:103F1C00C183BA866373E400A286C206C182958F00
:103F2C005147635BF700DC5491C38297EF40C11596
:103F3C0097070020239A87BEB24022449244410145
:103F4C00828082809707002083C787C299C7054566
:103F5C0082800545F2400561828097070020938797
:103F6C0067B8DC57011106CEAA8581C72AC682978D
:103F7C00B245BDC99C41F1DFDC41E1DF83D785004F
:103F8C00E9DB83D7A500F1D74146170500201305BF
:103F9C0065BD97D0FF1FE78020859707002093878A
:103FAC0067BC9C4323A2F1869707002083C7F7B414
:103FBC008DE79307805717050020035525BB330564
:103FCC00F50237460F001306062481468145EFF0B3
:103FDC00B14197070020A382A7B217050000130573
:103FEC00C5D9C1340145BDB79707002023A807B434
:103FFC0097D7FF1F938727CC170700202324F7B6EA
:10400C007D579707002023A1E7B6B7873200938727
:10401C0027A19706002023ABF6B49707002023892D
:10402C0007B4B7C7004023A4E72685BF011122CCF3
:10403C0017040020130404AB084406CE26CA4AC851
:10404C0001E90545F2406244D2444249056182804F
:10405C005C58E5DB185C75D7700085458297184471
:10406C00B247E300F7FE9305E00417050020035563
:10407C0025A897D0FF1FE780402517070020232194
:10408C00A7AC61D117060020035686A69305F00F46
:10409C0097C0FF1FE780E07B8144170900201309BC
:1040AC0029A89707002083C7C7A40326090263C168
:1040BC00F402328597D0FF1FE780402F0145970708
:1040CC00002023AF07A69707002023AD07A69DBFAE
:1040DC009705002083D5C5A1B38795020844185CC9
:1040EC00898185043E9508C2029765BF011156C2AD
:1040FC00970A0020938A0A9F83A78A0022CC4AC879
:10410C004EC606CE26CA52C45AC0AA892E843289FB
:10411C006386072203A74A03630907141307F01FDA
:10412C006367A714970400209384849F03AA040256
:10413C0063170A0A9565938515E01705002003554A
:10414C00259B97D0FF1FE78040189707002023A9D5
:10415C00A79E2A86630B051083A74A0303A58A0032
:10416C009705002083D5C5988981829783A78A00FB
:10417C0003AA0402170700202326F79C8947639C97
:10418C00F908C1476313F40E9705002083D54596B3
:10419C00938505FC9147B3C5F5028A05D29503C7F3
:1041AC0025009307A005631EF70A83D70500639AC1
:1041BC00370B4A852286910597C0FF1FE780C062A6
:1041CC009C505285639347150145F2406244D2449A
:1041DC004249B249224A924A024B05618280D85028
:1041EC00E38EE7F89565938525E0170500200355C8
:1041FC00259097D0FF1FE780400D2A8A3DC52A865F
:10420C0083A74A0303A58A009705002083D5458E12
:10421C0089818297A5B78D47639DF900C1476316C5
:10422C00F4049705002083D5A58C938545FDF19961
:10423C00B5B79147639AF9006319340397050020C9
:10424C0083D5058BA115E5B793070010639FF90083
:10425C00A14763EC87009705002083D56589C115BC
:10426C00F9B79C5052856396470D2945B9BF1D6A15
:10427C00568B6371450B130A05E01947334AEA0262
:10428C00170700200357C786970A0020938A4A898C
:10429C00330AEA023E9A83A74A026395470183A434
:1042AC000A029DE49305E00417050020035545849C
:1042BC0097D0FF1FE7806001AA8445D983274B0361
:1042CC009705002083D5C5822A86898152858297DD
:1042DC0091451307A005898193972500A69783C65E
:1042EC0027006393E60483D60700639C3603850599
:1042FC008A052286A6954A8597C0FF1FE780C04E87
:10430C0083A70A02E38297EC268597D0FF1FE780EC
:10431C00E0095DBD21677917E369A7F4330A4541CC
:10432C0085B783C5370045BF83A70A02E38F97F291
:10433C00268597D0FF1FE780600705BF97F7FF1F03
:10434C009387077E8C5395D191479306A00589835B
:10435C00139727002E9703462700E318D6F0035631
:10436C000700631C360185078A072286BE954A859D
:10437C0097C0FF1FE780404781BD83473700C1BF0F
:10438C0097F7FF1F93870776984739C79C5FA9C794
:10439C0005476313E504411122C417F4FF1F1304EE
:1043AC002478105006C60DC6485097F5FF1F83D5CC
:1043BC00257489818297085097D0FF1FE78000FFF2
:1043CC0097F7FF1F23AE077697F7FF1F23AC0776EF
:1043DC00B2402244410182808280011117F7FF1FF5
:1043EC00130747704EC68329870022CC26CA4AC8B9
:1043FC0006CE52C456C2AA842E843289638B0920FD
:10440C001C5FBA8A99EB2945F2406244D244424976
:10441C00B249224A924A056182805C5BEDD79307D0
:10442C00F01F63EAA70E97F9FF1F9389696F83A7A3
:10443C000902B1CB03A58A0083A749026395A7069D
:10444C0089476393F408C147E31FF4FA17F5FF1F7C
:10445C000355056A9147130505FC3345F50293177F
:10446C00250003A509022286CA853E959307A0055F
:10447C002301F50023109500110597C0FF1FE7805D
:10448C00A036014551B79305E00417F5FF1F0355FE
:10449C00256697D0FF1FE78040E397F7FF1F23A106
:1044AC00A76A49F98DB783A74A0303A6090297F5B2
:1044BC00FF1F83D5E5638981829783A78A0017F74D
:1044CC00FF1F2321F768ADBF8D47639EF400C147E2
:1044DC00E31BF4F217F5FF1F03558561130545FD2A
:1044EC009377C5FFBDBF9147639AF400E31D94F029
:1044FC0017F5FF1F0355C55F2115DDB79307001096
:10450C00E393F4F0A147E3E087F017F5FF1F0355A1
:10451C00255E4115F1B79D676379F506930705E0B4
:10452C001947B3C7E70217F7FF1F0357675C17FA62
:10453C00FF1F130AEA5EB387E702BE9983270A02BC
:10454C00A1CF83274A026399370703250A029146B4
:10455C001308A0059305F00F93D726001397270097
:10456C002A9703462700631F060783580700034654
:10457C00370063959806B306D64063CF860485074B
:10458C008A072286CA853E95CDBD21677917E36CD3
:10459C00A7E6B307F54041BF9305E00417F5FF1FED
:1045AC000355055597D0FF1FE78020D297F7FF1FC3
:1045BC0023A8A75859F581BD83A74A0303260A02ED
:1045CC0097F5FF1F83D5C55289814E85829797F742
:1045DC00FF1F23A9375795BF2310B7009316060169
:1045EC00C1829DBFB385860017F6FF1F0356465048
:1045FC009105130606FCE3F8C5E013063400719A26
:10460C001106B2962301070123109700A301D700CE
:10461C00BDB797F7FF1F9387A7509453BE89A9C2C4
:10462C0003A5090291461308A0059305F00F93D733
:10463C002600139727002A970346270063180605C0
:10464C00835807000346370063989800B306D6409A
:10465C00E3D786F22310B70093160601C182C1BFBF
:10466C008357C70017F5FF1F0345A5489305E004C2
:10467C003305F5024205418197D0FF1FE780E0C466
:10468C0097F7FF1F23AEA74A41FDB5BB17F6FF1FD7
:10469C000356064697F5FF1F83C5A545B385C5028E
:1046AC00338686001106E3E0C5D681BF01458280C2
:1046BC00011106CE2EC6EF80900901C9B245F24019
:1046CC000355250005616FC09041F24049450561D5
:1046DC008280A382018A2382018A23A6018823A8CF
:1046EC00018823AA018823AC018823A4018823A272
:1046FC00018897F7FF1F9387E7473706840337072F
:10470C00B40090D337C6070098C3130606B83747D2
:10471C00A000D8C3D0D33707100041669306070A10
:10472C00B70550009308060194C723A4170393867A
:10473C000501930816F8D4C723A61703B706D007AC
:10474C00B7087F001308070513850601410723A846
:10475C001703B0C39308160093860605138615003D
:10476C00D8CBF8C323A8070188CF23AE070023AA10
:10477C00170323AC070223AE070223A40704F0C7D8
:10478C00B4CB23AA0704ACCF23AE0705B8D33707A5
:10479C00A000F8D71307000AB8DB1307C01CF8DB1E
:1047AC0037071400B8DF0547F8DF130710F8E8D314
:1047BC0023A4070623A0E7088280011126CAAA8435
:1047CC00214522CC06CE2E8432C636C43AC2EFE046
:1047DC00DF801DC9A24612473246930700FD230015
:1047EC00F5009947A30095002301F5002303D5009C
:1047FC00A303E5002312C500AA8522856244F2407A
:10480C00D24405616FE0DF8BF2406244D244056113
:10481C00828023A6A188828023A8A188828023AAD3
:10482C00A188828023ACA1888280011122CC4AC845
:10483C0006CE26CA2A890144B30489006368B400F1
:10484C00F2406244D2444249056182802EC6EFE0B8
:10485C00FFA193170501C183A183B2452380F40006
:10486C009307140093F7F70F850463F9B700CA9701
:10487C0009042380A7001374F40F7DBF3E847DBF11
:10488C00C16717F5FF1F03558537FD176304F50244
:10489C00411117F6FF1F0346A6439385C18906C62F
:1048AC00EF80E049B240FD5717F7FF1F2319F7348B
:1048BC0041018280828009C925151375F50F1335C6
:1048CC00850E1345150082800145828023900500DA
:1048DC00C9C6797122D426D24ECE52CC5AC806D62D
:1048EC004AD056CA5EC63684328AAE892A8B814437
:1048FC0063F34407B307940083C7070013891400BC
:10490C004209939A070193DA0A0113590901638446
:10491C000A04CA976341FA04B307240183CB070046
:10492C005E85513F0DC99387FAFF2390F900639080
:10493C006B03130519002295B2502254925402595C
:10494C00F249624AD24A424BB24B45618280D694BC
:10495C00C204C18071BF0145C5B7014582804111B8
:10496C0026C2AE8422C497F7FF1F23A1C72A97F74C
:10497C00FF1F23ABB72897F7FF1F23A5A7282A846F
:10498C0041469305F00F26854AC006C6054997C0D7
:10499C00FF1FE78080F96310250597F7FF1F9387AA
:1049AC00A725884BC145513541469305F00F22850B
:1049BC0097C0FF1FE78060F7854463189502224477
:1049CC0097F7FF1F93874723B24092440249C84789
:1049DC00C145410199BD41468145268597C0FF1FC0
:1049EC00E780A0F4E31225FD4DBF414681452285A9
:1049FC0097C0FF1FE78060F3E30395FCB2402244AD
:104A0C009244024941018280411122C426C22E8463
:104A1C00AA8413060002814517F5FF1F1305C51D57
:104A2C0006C697C0FF1FE780C0E297F7FF1FA3865B
:104A3C00971C97F7FF1F238F8728EFC0900C854793
:104A4C0019C181474945B240224417F7FF1F23057E
:104A5C00F71A924441018280814781CD19C985475B
:104A6C00631BF50083C7550093E707FCA382F50091
:104A7C0085473E85828089476317F50083C75500BB
:104A8C0093F7F703E5B70D478547E314E5FE03C736
:104A9C0055001377F70313670704A382E500D1BF12
:104AAC0081478DC105C103C755009306000C85478E
:104ABC001377070C6308D700930600048D47630334
:104ACC00D70089473E858280411122C4005D06C60D
:104ADC0026C21DC8AA84085009C597D0FF1FE780BD
:104AEC00E08C485009C597D0FF1FE780208C0854F4
:104AFC0009C597D0FF1FE780608B228597D0FF1FD9
:104B0C00E780C08A23AC0402B240224492444101A3
:104B1C00828009ED97F7FF1F83C7270E17F5FF1F3C
:104B2C001305050F81CB1385C187828017F5FF1FF5
:104B3C001305050E828017F5FF1F0345050C8280B7
:104B4C0097F7FF1F9387470BC847828097F7FF1F84
:104B5C009387870A884B828097F7FF1F9387C70933
:104B6C00DC4B8843828097F7FF1F9387E708D84B6D
:104B7C001C4385071CC317F5FF1F03451508930736
:104B8C00F00F6305F50091656FE03F8B828001119A
:104B9C0022CC06CE2E8432C6EF80A04B9147B24574
:104BAC00631FF500938781899C438DC303A3070082
:104BBC00630E030022856244F240056102839387F1
:104BCC0001899C4381C703A34700DDB7F2406244CF
:104BDC00054505618280011122CC2A8403554500CC
:104BEC0006CE26CA4AC84EC6EF80C02535C52A89CE
:104BFC00834405008349C500C13D4A85EF80407F51
:104C0C0003554400EF80204083C7418AB1CB6399A0
:104C1C00970483C5518A2685EFF09FA919E1238259
:104C2C00018A03554400EF80C0429147631FF50091
:104C3C000357440097F7FF1F83D767FC6317F700F0
:104C4C00FD5717F7FF1F231CF7FAF2406244D244BA
:104C5C004249B2490561828081499304F00F6DB7D6
:104C6C009307F00FE38FF4FA834664000356440075
:104C7C00034524004E87A685893665B779715EC6D3
:104C8C00AA8B2E8552CC56CA5AC806D622D426D206
:104C9C004AD04ECEAE8A328B368AEF80A01A7DC1B6
:104CAC00045D2A89E5C09C50614599C313054003F6
:104CBC009C5481C751054205418163050A00710569
:104CCC0042054181DC5081C75D0542054181EFE021
:104CDC00CFB02A8445C96146814597C0FF1FE78044
:104CEC0040B797F9FF1F83C9E9EB63940900834927
:104CFC000900930700FD2300F400A947A3007401E9
:104D0C002301F400230364018C5023125401130576
:104D1C00840191C908C47146930A440397C0FF1FCC
:104D2C00E78080AC56858C5491C948C45146930A8F
:104D3C00450197C0FF1FE78020AB5685630C0A0026
:104D4C0008C87146D285930AC50197C0FF1FE7803A
:104D5C00A0A95685CC5099C548C85D4697C0FF1F81
:104D6C00E78080A8A2854E85EFE08FB52254B25023
:104D7C009254F249624AD24A424BB24B4A8502598A
:104D8C00456199B3B250225492540259F249624A85
:104D9C00D24A424BB24B4561828001114EC6AA8960
:104DAC002E854AC806CE22CC26CA2E89EF808009D1
:104DBC0021C997F4FF1F83C4E4DE99E08344050006
:104DCC001945EFE08FA12A8405CD8145194697C07E
:104DDC00FF1FE78000A8930700FD2300F400B947EC
:104DEC00A30034012301F40023122401A2856244A0
:104DFC00F2404249B2492685D24405616FE04FAC7E
:104E0C00F2406244D2444249B24905618280397110
:104E1C005ECEAA8B2E8526DA4ED652D456D25AD0D6
:104E2C0006DE22DC4AD8AE84328BB68A3A8ABE8938
:104E3C0042C6EF80200121CD2A894145EFE0EF9950
:104E4C002A8431C54146814597C0FF1FE78060A089
:104E5C0017F5FF1F034505D519E103450900930715
:104E6C0000FD2300F400BD472301F400B247A3006A
:104E7C0074012312940023046401A3045401230538
:104E8C004401A30534015CC4A285EFE06FA3F2508A
:104E9C006254D2544259B259225A925A025BF24B82
:104EAC0021618280797126D2AA8439454AD04ECEAE
:104EBC0006D622D42EC6B2893689EFE00F9221C1D4
:104ECC00B2459307000D2310F500B1472A84231235
:104EDC00B5002301F500CE851905194697C0FF1FB3
:104EEC00E780809023062401A2852254B2500259F7
:104EFC00F24913F5F40F925445616FE06F9CB25078
:104F0C00225492540259F2494561828017F7FF1FCF
:104F1C000347B7CE9307F00F630DF706411126C276
:104F2C00AA84394522C406C64AC0EFE00F8B2A84F6
:104F3C0039C9930700FD2300F500A3009500230158
:104F4C00050097F5FF1F9385A5CC0D05194697C055
:104F5C00FF1FE780608917F9FF1F1309E9C9835701
:104F6C008900A28517F5FF1F034535C92315F400E9
:104F7C00834719002306F4002244B24092440249AC
:104F8C0041016FE0EF93B240224492440249410147
:104F9C008280828001115AC02A8B314526CA4EC6A6
:104FAC0052C456C206CE22CC4AC8AE84B28A368AC5
:104FBC00BA89EFE08F8235CD2A842685EF70906810
:104FCC0011C50347C500A1476314F70417F9FF1F68
:104FDC000349B9C2930700FD2300F4009D47A300C9
:104FEC0064012301F40023129400231354012314AD
:104FFC00440123153401A2856244F240D244B249E3
:10500C00224A924A024B4A85424905616FE04F8B16
:10501C0017F9FF1F034919CCE31E0BFA9387819AEA
:10502C009C439C47C5DBCE865286D68526858297C7
:10503C0055B7F2406244D2444249B249224A924A9C
:10504C00024B05618280011122CC2A84214506CEB7
:10505C002EC6EFD09FF821C1B245930700FD230067
:10506C00F500C5472301F50083C73500A301F50002
:10507C0083D745002312F50083C765002303F50091
:10508C0083C77500AA85A303F50022856244F2400C
:10509C0005616FE0EF82F2406244056182803971F4
:1050AC0062CC2A8C594526DA4AD84ED652D456D2DE
:1050BC005AD05ECE06DE22DCAE8432C636C4BA8B43
:1050CC003E8BC28A468A8359010403494104EFD0BE
:1050DC00DFF025C93246930700FDA2462300F500F8
:1050EC009547A301C500A30085012301F5002A847F
:1050FC0019461105A9C2B68597B0FF1FE780C06E8F
:10510C0023066401230A2401231574012317540177
:10511C002318440123193401A2856254F2504259D8
:10512C00B259225A925A025BF24B624C2685D254E7
:10513C0021616FD0FFF8814597B0FF1FE780607148
:10514C00C1B7F2506254D2544259B259225A925AAF
:10515C00025BF24B624C2161828097F7FF1F83C781
:10516C00C7A98DCB4111AA8519461385C18706C6DF
:10517C0097B0FF1FE78040679385C18717F5FF1F26
:10518C000345A5A7EFF05F8DB2401385C1874101A0
:10519C006FC0E0170145828017F7FF1F0347F7A583
:1051AC009307F00F6305F708411126C2AA8429451D
:1051BC0022C406C6EFD07FE22A8429C1930700FDE2
:1051CC002300F500A1472301F500A300950097F7F4
:1051DC00FF1F938767A283C727009385C18711059B
:1051EC00A30FF5FE194697B0FF1FE780E05FA2857D
:1051FC0017F5FF1F034575A0EFD09FEC17F7FF1FA6
:10520C000347A79F8D47631FF700938741899C43F2
:10521C0091CB03A38700630703002244B24092445E
:10522C0041010283B240224492444101828017F72B
:10523C00FF1F0347879C8D47631AF70093874189AB
:10524C009C4389C703A38700E31D03FC828079710B
:10525C0022D406D626D24AD04ECE52CC094455CDB5
:10526C002A89035505002E8A5144EF70B03DAA845B
:10527C004DC597F7FF1F83C7E7A5FD1793F7F70FEA
:10528C0005474944637BF7080347C500A1476314EE
:10529C00F70063140A089C5C4544C1E3916593854F
:1052AC0045711305C00297C0FF1FE780000288DC20
:1052BC00AA894D443DC11306C002814597B0FF1F1A
:1052CC00E78020598357090093864900368523913E
:1052DC00F90071469305490036C697B0FF1FE78069
:1052EC00A05089472380F90003C5C400B246035679
:1052FC000900611597F5FF1F83C5859D13351500B2
:10530C00EF8070522A8463060A00D2852685EF80CE
:10531C00003D01C42685EFF02FFB2285B2502254AC
:10532C0092540259F249624A4561828097F7FF1FF5
:10533C0083C7479AFD1793F7F70F05476378F7086C
:10534C00894751C6011122CC26CA4AC84EC652C43E
:10535C0006CEAA89368AB2842E89EF70B02E2A84A2
:10536C00D14729C9485509C597C0FF1FE7800004DC
:10537C00F1452685EFD05FF648D4CD4705CD834661
:10538C00C40021478147639FE600630D0A00034771
:10539C00A5010356050193062501AA854E85EF80CC
:1053AC00803BAA8703474400630F0900136767001B
:1053BC002302E400F2406244D2444249B249224AF8
:1053CC003E850561828013674700DDB7C9473E857E
:1053DC0082809307000463EBA70097E7FF1F938776
:1053EC00677906053E9503550500828041657D155C
:1053FC008280011122CC2A842E8526CA06CEAE8448
:10540C00EF7050241DCDB7470F009387F723094544
:10541C0063E4870281450A85414697B0FF1FE78008
:10542C004043A685231081000A8541802301810019
:10543C00A3010100EF80D02AF2406244D2440561FE
:10544C0082804945D5BF97F7FF1F2384A7888280A8
:10545C006F809037797152CC2A8A328522D426D229
:10546C004AD04ECE56CA5AC85EC606D662C4AE8B59
:10547C00B28A368BBA843E89C2894684EF70901CFE
:10548C0015C92A8C63140A0213774B008347450015
:10549C0015CF93E727012302FC008DEC631C090256
:1054AC00639A090205E8ED9B2302FC00832B8C0315
:1054BC00639F0B06B250225492540259F249624A2D
:1054CC00D24A424BB24B224C45618280F59B93E70A
:1054DC000701D1B793E747002302FC0001CC1C481D
:1054EC004146A2852324FC0213058C0197B0FF1FB3
:1054FC00E780802F63910B02D5D80325CC0209C518
:10550C0097C0FF1FE78080EAF1452685EFD0DFDCEE
:10551C002326AC0261BFE30B09F80325CC0209C5B5
:10552C0097C0FF1FE78080E8F1454A85C5B79DC449
:10553C0083A70B0299EB916593853571714597C0E3
:10554C00FF1FE78080D823A0AB0203A50B0219C56F
:10555C007146A68597B0FF1FE78000296388090272
:10556C0083A74B0299EB9165938525715D4597C097
:10557C00FF1FE78080D523A2AB0203A54B0219C500
:10558C005D46CE8597B0FF1FE78000261DC483A71C
:10559C008B0299EB916593851571514597C0FF1F4F
:1055AC00E780A0D223A4AB0203A58B0219C55146F8
:1055BC00A28597B0FF1FE78020232254B25092544B
:1055CC00F249B24B224CCA865A860259424BD685B6
:1055DC005285D24A624A45616FF04FEA011126CAE0
:1055EC0052C406CE22CC4AC84EC62A8AAE84EF706C
:1055FC00700525C5AA893945EFD03F9E2A8431CD47
:10560C0017E9FF1F0349095A6314090003C909006C
:10561C009307000D2310F400AD472301F40093858C
:10562C00690013053400194697B0FF1FE780C01BB3
:10563C0093F71400858085882306F400A306940054
:10564C0023154401A2856244F240D244B249224A55
:10565C004A85424905616FD0BFA6F2406244D244EC
:10566C004249B249224A0561828001114EC652C498
:10567C0056C206CE22CC26CA4AC8AA8A2E8AB2891B
:10568C00EF70407C2DCD2A891305C002EFD0FF941A
:10569C002A8435C597E4FF1F83C4C45099E0834422
:1056AC0009009307000D2310F400E9472301F400CF
:1056BC009305690013053400194697B0FF1FE78066
:1056CC00A012D285231554011305C400414697B08E
:1056DC00FF1FE7806011CE851305C401414697B0CA
:1056EC00FF1FE7806010A2856244F2404249B24934
:1056FC00224A924A2685D24405616FD07F9CF240A3
:10570C006244D2444249B249224A924A056182809B
:10571C0093874188884301CD411106C697C0FF1F6E
:10572C00E780C0C8B24023A20188410182808280F8
:10573C00011106CE22CC26CA4AC82EC6EF70807044
:10574C0039CDB24517E9FF1F0349C945AA840CD5C9
:10575C0063140900034905004145EFD01F882A84D2
:10576C001DCD9307000D2310F500A5472301F5006F
:10577C0083C75400938564001105A30FF5FE1946E9
:10578C0097B0FF1FE78040069C54A285F2405CC492
:10579C006244D2444A85424905616FD07F92F240FF
:1057AC006244D2444249056182801D71A2CC86CEEE
:1057BC002A842EC6EF70006905CD8346C5001147BB
:1057CC00AA8749456392E6029C5FB24599C383C59B
:1057DC0067012308B10097A6000093864681100844
:1057EC0089452285EF707066F6406644256182809B
:1057FC005145DDBF97E7FF1F83C7C74DFD1793F7D3
:10580C00F70F0547637AF704894721CA411122C46F
:10581C0026C24AC006C6B2842E89EF70A0622A84C2
:10582C00D14705C5630809008347450093E7270066
:10583C002302F5004146A6851305840197B0FF1F8E
:10584C00E78080FA9C481CD48147B24022449244A1
:10585C0002493E8541018280C9473E85828079712B
:10586C0022D406D62A842EC6EF70C05D01CDB24577
:10587C002285230EB1006C08EF70F062B2502254F6
:10588C00456182805145DDBF6F70A071C167138780
:10589C00E7FF6394E502938701899C4391EB4945AB
:1058AC0082804945B240224492440249410182809F
:1058BC0003A30700E30503FE0283411122C426C2A1
:1058CC004AC006C6FD172A892E84B2846395F50258
:1058DC00938701899C4391CB9C4381CB829711E5A3
:1058EC002382218BA382918A75BFA6854A85EFE01E
:1058FC003FDC4DF9F5B72E85EF70C0545DD1834771
:10590C0005000D45E39027FB22852244B240024955
:10591C00A685924441016FB0901C9307000463E28A
:10592C00A7064111C16722C406C626C2FD172A84E8
:10593C0009456382F502C547AE846313F4022E85D4
:10594C00EFB0702117E5FF1F1305C52206042A943A
:10595C00231094000145B2402244924441018280BC
:10596C009307A0036316F4002E85EFB01018D9BF6F
:10597C009307B003E318F4FC13F5F50FEFB03017F1
:10598C00D1B709458280011106CE2AC6EFE07FD43B
:10599C00EF10B06CEF10F008EF80212C324597E738
:1059AC00FF1F93876725130700F02391E7002382DD
:1059BC0007007D5797E7FF1F938787312381E70007
:1059CC002380A700F240954505616F50905F597197
:1059DC0093970501CAD086D6A2D4A6D2CECED2CC6D
:1059EC00D6CADAC8DEC6E2C4E6C2EAC06EDEC18739
:1059FC002E8963D1075A17E5FF1F0345652DEFD09C
:105A0C004FE48964416A856A797B2A84938BD4003C
:105A1C007D1AA50A130CABFF1DE021653345A900C7
:105A2C00B650265496540659F649664AD64A464B01
:105A3C00B64B264C964C064DF25D656182808347D1
:105A4C0004001307200A639DE7000355240097E91F
:105A5C00FF1F83C9991A2286D285EFF04F9359A262
:105A6C001307100997E9FF1F83C9A9266398E71844
:105A7C008347140015476390E7022285EFF0AF953A
:105A8C002285EFD0AFD017E5FF1F03456524EFD07B
:105A9C004FDB2A8451B73947639BE7180355440001
:105AAC00631B55050C4483CC0500639D0C008505D8
:105ABC0091C9194617E5FF1F1305851597B0FF1FF0
:105ACC00E78080D217E7FF1F03470713854763174B
