:040000006F10D06845
:100004000000000000000000900000208C0200208E
:10001400A9BDF9F544030020000000000000000021
:1000240044030020900000200000000000000000B5
:10003400900000200000000090000020000000005C
:1000440090000020900000209000002090000020EC
:1000540090000020BC1D0020900000200000000043
:1000640090000020900000209000002090000020CC
:10007400AA0300209000002090000020900000209F
:1000840090000020900000209000002090000020AC
:1000940001A0011113078008F337078093F787083D
:1000A4003EC201000100B71700409305700523808C
:1000B400B704130680FA2380C7040100010083C635
:1000C400B70493F6F60DA385D7042380070492465C
:1000D400F3A606800100010093760502D5CEF3361F
:1000E400078093F6860836C4010001002380B70414
:1000F4002380C70401000100B70614007D89558DD3
:1001040088C7010001000100010023800704A24602
:10011400F3A6068001000100733707801377870870
:100124003AC6010001002380B7042380C7040100FC
:100134000100010001003727004093061005A303C6
:10014400D78023800704B247F3A70780010001008A
:1001540093078008F3B7078093F787083ECE010022
:100164000100B7170040130770052380E704130745
:1001740080FA2380E7040100010003C7B704136772
:100184000708A385E70423800704F247F3A7078041
:10019400010001000561828093760504BDC6F33633
:1001A400078093F6860836C8010001002380B7044F
:1001B4002380C70401000100B706140093860604D7
:1001C4007D89558D88C7010001000100010023804D
:1001D4000704C246F3A606800100010073370780B6
:1001E400137787083ACA010001002380B7042380EB
:1001F400C704010001003727004093062005A3032C
:10020400D78023800704D24781B7733707801377D9
:1002140087083ACC010001002380B7042380C70477
:100224000100010098471367070C98C7238007044F
:10023400E24719BF0111814601468145114506CEA9
:10024400992493078008F3B7078093F787083EC67D
:1002540001000100B7170040130770052380E7046D
:10026400130780FA2380E7040100010003C7670431
:10027400136717002383E70423800704B247F3A717
:10028400078001000100F24005618280411181462E
:10029400014681451145C52A13078008F3370780B5
:1002A40093F787083EC401000100B7170040130606
:1002B40070052380C704930680FA2380D7040100C5
:1002C4000100FD552396B70223800704A245F3A538
:1002D40005800100010073370780137787083AC649
:1002E400010001002380C7042380D704010001001A
:1002F40003C76704136717002383E70423800704F5
:10030400B247F3A707800100010001A0BD473305F0
:10031400F50201007D1575FD8280411122C426C2BB
:1003240006C6AA84014463179400B240224492444E
:100334004101828005041305803E4204C13F41808F
:10034400DDB700009305000273A0458082457390D9
:10035400153492402242B2424243D2436244F244B0
:10036400025592552256B2564257D2576258F25805
:1003740006499649264AB64A464BD64B664CF64C35
:10038400065D965D265EB65E465FD65F09617300C4
:1003940020304111B7170040985F3AC6945F324746
:1003A400E39CE6FE324541018280B7170040130703
:1003B40000032388E702854723A4F18C73002030CF
:1003C400411106C6EF00C070F5BF23030480154732
:1003D4002303E48001002302A480828083076480D5
:1003E400E3CE07FE23030480828083076480E3CE88
:1003F40007FE03454480828083076480E3CE07FEC2
:100404002302A4808280411126C44AC24EC006C67B
:100414001377F50BAD47AA892E8995446306F70037
:1004240019456537653F8D444E854537FD59FD14A3
:1004340063983401B240A244124982494101828046
:10044400135509011375F50F453F2209CDB7011165
:1004540026CC06CEB704080051371545BD37713791
:1004640069372AC6A53F32459377150089EB136592
:1004740015001375F50FF240E24405618280FD1406
:10048400E9FC0145CDBF397126DC4ADA4ED852D693
:1004940056D45AD25ED006DE62CE66CCB7E700E010
:1004A4007D5783AA070022C603AA470023A0E718A2
:1004B40023A2E718B7170040130770052380E70449
:1004C400130780FA2380E70483C74704930B75FF5F
:1004D400B684E20793FBFB0F8546AA892E8B3289EB
:1004E40037240040E187015763FA76016308D50099
:1004F4008946130700026313D5000157D98F93F778
:10050400F70FB71C00402382FC0411472303E48047
:100514001305F00F5D3D094CD135636D7C11B705B2
:100524000700DA9537870700795563F2E504B38746
:100534009500636EF702370B0800A94733EB65019A
:100544006399F90689E48144513D26850DA0DA8535
:100554000945553D05090345F9FFFD14050B693DA2
:1005640081C49377FB0FFDF7DD3569FD7D55B71722
:100574000040130770052380E704130780FA2380E3
:10058400E70403C74704418B2382E704F250B7E72B
:1005940000E023A0571123A24711E25432445259D8
:1005A400C259325AA25A125B825B724CE24C2161EC
:1005B4008280A5476395F90685691309F00FB30690
:1005C4009900B3742B01B6941349F9FFB3749900DD
:1005D400856B33796901416B9387F9FFB3F7270181
:1005E40099E363FC340193D94900C147E3E637FF3B
:1005F40099BF0569C1697D19D9B71305800D638851
:100604006901130500026384790113051008CA8582
:10061400DD3B353D21DD4E99B3843441D9B7DA85CC
:100624002D45D533CA94E30099F205097D3BA30F08
:10063400A9FED5BF9387F9FF93F7F70F6361FC0C0D
:1006440083C71C0413073008631FF7043707080027
:10065400636BEB04B3079B00B706100063F5D70484
:10066400334BEB0089476393F9068980D549E38CC2
:1006740004ECDA850945413B11090327C9FF914779
:100684002320E48003076480E34E07FE23033481C0
:10069400FD17EDFBFD14110B81C49377FB0FE9FFEC
:1006A4007D3371F5E1B5B717004003C75704B707A9
:1006B40008001377070219E3B78707007955E37831
:1006C400FBEA33079B00E3FFE7F855B58547E38270
:1006D400F9F2DA852D45053B9389F4FFE38504E6B9
:1006E400293393F7390091EB83260480032709000B
:1006F40093074900E39AE6E43E89CE84F1BFB54707
:100704006396F9001305900BC93135BDB147130544
:10071400B00AE38BF9FE99476391F904B705080021
:10072400B365BB002D45C53181448D4BA149753955
:1007340063967401832704802320F9008504E398D9
:1007440034FF8327048013172B01635507002312FA
:10075400F900D5BB2322F900FDB39D476399F90243
:1007640081451305B0044531BD44232009002322EB
:100774000900FD599D3993F77400CA9703C7070010
:10078400FD14398D2380A700E39634FF6DBBA14788
:100794006392F9046D398144630D0B008D47930412
:1007A400C0036308FB009304000563048B019304F6
:1007B40040041375C507E30895D81945393139390B
:1007C4000545213126850D3909453D314931E31C63
:1007D40005D669BB91476399F90013056006F536A0
:1007E400F53E130590090DB7E38F09D4F154A9BB65
:1007F400B7C7004003A7C72023A607200F10000097
:1008040001C599C1814711E6B7C7004023A6E72077
:100814008280B386F50003C80600B306F500850799
:1008240023800601E317F6FEC5B737C700408327C8
:10083400C720232607200F10000019C191C111E61B
:1008440037C700402326F7208280910503A7C5FF00
:1008540011057D16232EE5FEDDB737C7004083273B
:10086400C720232607200F10000001C53307C50049
:1008740011E637C700402326F72082800505A30F21
:10088400B5FEE31DE5FEF5B7B7C7004083A6C72054
:1008940023A607200F10000081473307F500030744
:1008A400070019E737C700402326D7203E858280FA
:1008B4008507E5B7B7C7004003A7C72023A60720CD
:1008C4000F10000001C599C1814711EAB7C7004064
:1008D40023A6E720054582808507E309F6FE330851
:1008E400F500B386F5000348080083C60600E30557
:1008F400D8FEB7C7004023A6E72001458280B7C7CA
:10090400004003A7C72023A607200F100000930769
:10091400F6FFBE952A966317C500B7C7004023A605
:10092400E7208280FD1583C715000505A30FF5FE9A
:10093400DDB737C700408327C720232607200F10C1
:10094400000001C53307C50019E637C70040232658
:10095400F7200145828005058346F5FFE397B6FE3F
:10096400E31BE5FE37C700402326F72005458280B8
:1009740079719387818E22D4804306D626D24AD0B9
:100984004ECE52CC56CA5AC85EC65DCCB7C4C90155
:10099400014B9389C18D9384F437173A0000130AED
:1009A400AA47973A0000938AEA4A173900001309C4
:1009B400A94E8357240085E35C44631B0B0023A4E6
:1009C400F18E832BC4002285EF00D0145E84B9A875
:1009D4002326FB00FDB783A7090082971C44330735
:1009E400F5406376F500032749001D8F2A9763E0DD
:1009F400E4089737000023A70746835524000345DE
:100A04000400974000E0E78060C35C405844A1CBF9
:100A14000C4403264900AE97BE8663E4B70063E442
:100A2400C700B386C74014C4228B3A8459F0973761
:100A34000000938727429C4B09476370F706F91718
:100A4400173700002320F742B2502254925402591F
:100A5400F249624AD24A424BB24B456182806315E5
:100A64000B0023A4E18EB1BF2326EB0099BF03271B
:100A74004A0209CF63EFA7003385A74083A70A0181
:100A84006376F5009737000023AEA73C228B4044E1
:100A940071BF03274900BA97C5B79737000023A34E
:100AA400073C5DB79387018E9C4381CF411106C6F5
:100AB400829783C7018F99E323A0018EB24041013D
:100AC400828083C7018F81E723A0018E8280828088
:100AD400411122C4173400001304443A1C4006C6D2
:100AE40026C291C782979737000023A90738973702
:100AF400000083C7273B9DE79737000083C79751C2
:100B0400858B173700001307A75089CF83477700D9
:100B140099466399F60E97370000A38D074E312E40
:100B24005C4482971C4491C382979384018D9840BE
:100B340017360000034616329737000083C7873103
:100B440093961700BA9683D60600E9CA9737000031
:100B540083C7473063EEC70C97370000238C072EFA
:100B64001C40639107149737000083C7F74A173472
:100B740000001304E44991CF8347740093F7F70FFF
:100B840089EB97370000A3890748974001E0E78085
:100B940020F79387C18D9C43638607109737000025
:100BA4009387872FDC4317370000232DF72AC93397
:100BB4009737000093874726DC536385070E9737E2
:100BC4000000938727299C4BF1CF83477400154776
:100BD400636AF70C9737000083C70748918BF9E3E2
:100BE40083C7018FE1E390409736000083C69626C1
:100BF40063CFD70A2244B24092444101174300E034
:100C04006700C3FE834777001D47E31DF7F097375E
:100C14000000A381074015241C4821B7850793F7DA
:100C2400F70F973600002387F622E3E7C7F039BFB2
:100C340086073E978355070023100700239C018CE9
:100C44009387C18E9C43173500000345A5201317D5
:100C54002500BA979C43829783D7818D173700006C
:100C64000347471F93C7F7FF7D8D931717009840DD
:100C74003E97835707005D8D2310A7009737000028
:100C840083C7471D91C78507173700002304F71C46
:100C9400173700000347071C9737000083C7971BCB
:100CA400E37CF7EAB24022449244410182801397E4
:100CB400170032970357070075F7850715BF37C725
:100CC40000408326C720B707FCFFFD17F58F2326B6
:100CD400F7200F100000973700009387A717C84F1D
:100CE400832787262326D7206A0593C7F7FF99838E
:100CF4005D8D82800111973700009387A73D22CC38
:100D040003A4070C26CA06CE2AC42EC6854419E4B9
:100D14000145F2406244D2440561828083479100D8
:100D240003471400858B6304F7000044CDB71946CC
:100D34009305A10013052400B53EE31895FE05456F
:100D4400C9BF1387419B1443411122C49C5E4AC00E
:100D540006C6998326C2858B3A841389019BD1C721
:100D6400930700069CDE173700000347C72A930742
:100D74000008973400009384A429631BF700832799
:100D840009009C4393F70704173700002305F7284D
:100D940083C7040093F707048DC39387C18D9C43D5
:100DA40082979737000023ADA72683C7040093F7E3
:100DB400F70B17370000230DF72483C7440093F77C
:100DC400070485E7854717370000A305F7249387B1
:100DD400019C9C433707020098C7130700FC973611
:100DE40000002389E622D844F8D318401C5F91837D
:100DF400858B99CF1C5F93E707011CDF9387019CC8
:100E04009C4323A207068547173700002304F720D5
:100E140083270900D8430583058B19C7D843759BDD
:100E2400D8C3D843799BD8C3B240224492440249E0
:100E3400410182803937730020309387019C9443A9
:100E4400973700009387C71C03C70700058B11CB96
:100E5400973700002380071C97370000A38C071ADC
:100E6400828003C71700058B65F7F85271FF83C7AB
:100E74005700DDB71387419B0328070083278803A6
:100E84009583858BADEF11C683270803BD832300AB
:100E9400F6009DC61C43985B46079357670163564B
:100EA400070093E707C0C207C18303970600C20780
:100EB400C18709C7BA970947B3C7E7022390F60069
:100EC4008DCD8345150095C99737000083C7A714B6
:100ED40093F7070413879500894585C33A9583479B
:100EE40005000547994593F6F7066398E600E2077F
:100EF400E187814563D30700B9452E858280854506
:100F0400EDBF411126C206C622C49384019C2DED77
:100F14009440AE87F8527DFF37F400E03E85973762
:100F240000002388070E832704D1B285ED9B232874
:100F3400F4D0832704D193E787022328F4D07300E5
:100F44005010974001E0E78000A49387419B9C43A5
:100F5400B70680009843558F98C3D857719BD8D74C
:100F640097370000A388070A97370000A382070A6F
:100F74009C40094798C3832704D193E7870023281B
:100F8400F4D07300501039A88D476313F504938788
:100F9400419B9C43B70680009843558F98C3D8570C
:100FA400719BD8D79440173700001307670683470F
:100FB4002700858B89EB83473700858BD1C797370B
:100FC400000023890704B2402244924441018280F4
:100FD4008547E319F5FCB7F700E003A707D16D9B3C
:100FE40023A8E7D003A707D11367870223A8E7D074
:100FF4007300501098408177FD175447F58F5CC7F4
:101004000F1000009840B70702001CC7930700F8B0
:10101400173600002300F6009387419B9C439C43B2
:101024009D83858B639FA700930760197CD354C766
:1010340037F700E0832707D193E787002328F7D009
:1010440089B79307E01BDDB7FC52B5F3ADBF9387B7
:10105400019C9C43D8479316D70063D60602984751
:101064009316D70063D106027D57B8D7173700000F
:10107400130747DE584F05079736000023AAE6DE1C
:101084003707040098C798470D83058B1DC317378E
:101094000000034707F81367170097360000238AF8
:1010A400E6F6130700F8973600002385E6F6214795
:1010B40098C79847058B09CF17370000034757F5A2
:1010C4001367170097360000A384E6F4054798C712
:1010D40098470983058B09E798470583058B1DCF3E
:1010E40017370000A30807F2984797360000938645
:1010F40026F20983058B61C703C70600136717002F
:10110400973600002386E6F0114798C71387419B62
:101114001443D856719B13671700D8D69847931673
:10112400F70063D606029736000083C62602C18AFA
:1011340017370000130707FAC9CE03478707136759
:101144000702973600002383E600416798C7984753
:101154009316E70063D2060217370000034787EBB4
:1011640062076187635707000547973600002383AA
:10117400E6EA3707020098C798479316C70063D773
:1011840006029736000083C676FC858A173700006E
:10119400130747F4A9CE0347970713672700973629
:1011A4000000A385E6FA3707080098C79847931606
:1011B400B70063D506003707100098C7828003C7BD
:1011C40036001367170097360000A384E6E4094746
:1011D4002DBF834687070946BD8A6388C600034737
:1011E40087078D463D8BE312D7F6114799BF834697
:1011F4009707918ACDDA034797071367870045B7A6
:101204009387019C98438967938707F47CD39387DA
:10121400819C9C4383A607091396560063580600D5
:1012240083A6070913966600634406007453FDF20F
:101234008280411122C4B7C7004006C603A4C72058
:1012440023A607200F10000011C199E5B7C700407D
:1012540023A6872001454DA893073500C207C18303
:10126400F19BC207C183130740036365F702138729
:1012740001A50843138781A414436390A60217377A
:101284000000130767B9185B71D3C207DD8D0545EC
:1012940002976DBF1387C1A4E9BF035765002DEB07
:1012A400035745006366F706B306F7402146637C9F
:1012B400D60203280500938687001D8FAA9661171E
:1012C40017360000035666B92392E60023A00601F0
:1012D4002393060014C12312F500130786FF9736E3
:1012E4000000239CE6B62313B5009735000083D590
:1012F400C5B6B387F540173700002310F7B6B7C754
:10130400004023A687202105B24022444101828067
:101314000841A5B7B7C7004003A8C72023A60720E4
:101324000F10000001E523A607218280938701A501
:1013340003AE0700938781A403A307008146F287C5
:1013440063FC670A83A80700636BF50A63E9A80ACC
:10135400138787006362E50A03D6670021670507E0
:101364006317E60003C7419805072382E198973580
:101374000000938525AE03D6470003D76500239369
:101384000700329742074183173500002317E5AC65
:101394006388C7031385C1A408416303F50203D519
:1013A400660019ED83D7460023A0160121073E9657
:1013B40021062392C600973700002390E7AAB68738
:1013C4009843630B67029386C1A494426306D702D1
:1013D4008356670095E283D64700035647001843B7
:1013E400A106B2962392D70098C383D76500A107BC
:1013F400173700002313F7A6B7C700402DB7BE86E2
:10140400C6873DBF0327851163020712411122C419
:1014140006C68347C5008345E5042A8493F7C70FAE
:101424002306F500834697000356C70013958601EB
:10143400618563F2C508635B05060345870093F67F
:10144400F607A304D700054693E627006314C500F6
:1014540093E617002306D4005C4389075CC3A30A00
:10146400B400032504112E864C430905EFF04FB850
:101474008327841103465401D44303D7C700B2968B
:10148400118FD4C32396E7008947A30DF4000347C3
:1014940064039737000083C747996378F704834749
:1014A400C40093E707012306F40081A093E7170023
:1014B4002306F4006DB79376F60F635D05020345CA
:1014C4008700854513E627006314B50013E617006B
:1014D4002306C400A30AD400A30407008547A30D70
:1014E400F400832784119C43DDF3B2402244014578
:1014F4004101828093E717002306F400A30AD40075
:10150400A3040700032504114C430905EFF04FAE73
:101514008327841103465401D44303D7C700B296EA
:10152400118FD4C32396E7008D4755BF05458280AC
:10153400938701A69C43411122C406C6858B2A8445
:10154400C5EF4165130525F597F001E0E780806B51
:1015540045C58347A5002315F50083270412BDE77D
:101564002320A4122322A41285472311F404232048
:1015740005008347640154412316F5000347D40052
:101584002304E5000547A304E5001737000013070B
:1015940027A8184F1385170215811C437D15137551
:1015A400F50F9CC25C43DCC21C479CC65C47DCC68E
:1015B4001C4B9CCA5C4BDCCA1C4F9CCE5C4FDCCEE3
:1015C40019CD9386060213070702C1BF832744126D
:1015D40088C3835724042322A412850779B7973735
:1015E400000083D7A7AF8507173700002318F7AE8D
:1015F400B2402244410182808347C400230904008D
:10160400054593C747002306F400DDB783478501EA
:1016140093F7E70FC5EF83479501CDEB034625010B
:101624008346C50009CA834565031727000003479D
:10163400D77F63E7E50013F7060151CB014709C6DD
:10164400C18A0357651C81C68356A51C369741C3BE
:101654001307C7121735000003558584B335A70255
:1016640037460F00411113060624814622C426C2C0
:1016740006C67D543305A702972002E0E780802345
:101684009727000083C7B77AB384A7009737000071
:10169400938747A403A787098327070963F3870070
:1016A4003E84184375FB9387C18D9C438297814781
:1016B4006364A400B307A440B2402244B3B79700C4
:1016C40093C7170092443E854101828081473E853D
:1016D40082809387019C98433C5BFDFF8280054593
:1016E4008280011122CC4AC84EC606CE26CA52C4F4
:1016F40056C25AC00347B50085472A842E898329D8
:101704000509631EF71E83570508035BC503972A63
:10171400000083DAEA78172A0000130AEA7763F8EC
:10172400671B834605016394E61A0327851163103A
:10173400071A0327450A631C07188346F5001D474B
:101744006397E6180355A503330BFB409307204E1C
:10175400330565038324440937460F008146130685
:1017640006243305F5029727000083C7476CB3545A
:101774009502B3B5AA02BE94C204C180231394088F
:101784003385AA02972002E0E780C012B30735012F
:1017940033B5A7002E953E8783264A0019E163E4FA
:1017A400D7003387D740B3845403B7460F009387D9
:1017B400F623938606242320E900A697B3D7D702FD
:1017C400DA976360F7101D8F2320E9009389C18D98
:1017D40083A7090083240900829763E5A412338553
:1017E400A4406354050C83A70900829703270900CA
:1017F4006361E512198D8357E4031727000003572B
:10180400276A8E07B387E702130700329387071905
:10181400B3D7E70263E7A710374A0F00130BFA2385
:10182400972A0000938A4A67130A0A2483570404F8
:1018340085072310F4048347041499E32285592A65
:10184400228597E001E0E780602F75E9832604098B
:101854008327C40803A74A00B6973E8563E4D700EC
:1018640063E4E7003385E7408347F4018354640865
:101874002328A4088507A30FF4009727000083D723
:101884002762B384F402DA94B3D444036368950CF6
:10189400B304954083A7090023209900829763E34A
:1018A400A40C3385A440E34305F89727000083C7BD
:1018B400175863E7A7089737000023AD878A0145C7
:1018C40041A083264A00B387F6403E97F5BD835472
:1018D400640837470F009307F723B3845403BE9477
:1018E40093070724B3D7F40263E7F900B387F940F9
:1018F4002320F900E1BD03274A00BA99C5BF23A0FC
:101904003501E9B59727000093870759DC43BE9456
:10191400F9B59727000093872758DC43998F3E95A4
:10192400D9BDA145228597E001E0E780001AA3050F
:10193400A402972700009387274E9C5B81EF7D5577
:10194400F2406244D2444249B249224A924A024B8A
:1019540005618280894515458297D5B7B3049740C0
:10196400AA940DBF83A74A00BE9425BF3DC10111AF
:101974006C0022CC06CE2A84AD3339C5FD57630AE8
:10198400F5029726000093862649D45232479727BA
:10199400000083C7D74991C285836360F702B30708
:1019A400F7403EC6B24503459402973000E0E78015
:1019B400C0DEF2406244056182809726000093866F
:1019C400A64DD4423697E1BF97F001E0E78060D49A
:1019D400CDB78280797126D206D622D44AD04ECE93
:1019E40052CC56CA5AC85EC683475503034475137E
:1019F400AA843E941374F40F9307400263F687009D
:101A04001304B4FD1374F40F03AA841383AAC41338
:101A1400A38B841222865285D685972002E0E78024
:101A240060A6058915E503CBD41201498149337BAE
:101A34006403930B50024A865285D685972002E0B0
:101A4400E78040A4058915C5639169031374F90FF0
:101A5400238B8412B250225492540259F249624A9E
:101A6400D24A424BB24B456182808509E20993D93F
:101A740089410509E31179FDE1BF832785090356EF
:101A84000504797193D60701BD8EC206C182358ED5
:101A94001357764093575640898B058B5D8F935728
:101AA4003640918B5D8F93571640A18B5D8F9317B2
:101AB4001600C18B5D8F9317360093F707025D8F75
:101AC400931756009355860093F707041E065D8FFF
:101AD4001376F60F518F93D7554013D63540118A9C
:101AE400898BD18F13D67540D18F13D61540218A97
:101AF400D18F13961500418AD18F13963500137632
:101B04000602D18F13965500137606049E05D18FD5
:101B140093F5F50FCD8FA20745465D8F3307C702B6
:101B240022D42A8426D252CC56CA032A8413832A66
:101B3400C4135AC806D63697420741839357774051
:101B4400135557400989858BC98F1355374011891F
:101B5400C98F135517402189C98F1315170041895F
:101B6400C98F1315370013750502C98F1315570054
:101B740093558700137505041E07C98F1377F70F54
:101B8400D98F13D5354013D755401189098B498F07
:101B940013D57540498F13D515402189498F139565
:101BA40015004189498F1395350013750502498F36
:101BB40013955500137505049E05498F93F5F50F8C
:101BC4004D8F2207D98FB387C7024AD04ECE5EC647
:101BD40062C4B697C207C18313D7774013D5574061
:101BE4000989058B498F13D537401189498F13D53E
:101BF40017402189498F139517004189498F1395FF
:101C0400370013750502498F1395570093D5870044
:101C1400137505049E07498F93F7F70FD98F13D5D2
:101C2400354013D755401189098B498F13D5754019
:101C3400498F13D515402189498F13951500418982
:101C4400498F1395350013750502498F1395550077
:101C5400137505049E05498F93F5F50F4D8F2207E3
:101C6400D98FB387C702130650025285D685B6971B
:101C7400BD8E93940601C18033F6C402137BF60F24
:101C8400972002E0E780008005890DED8347D41298
:101C940001498149B3849702130C5002C1804A86DA
:101CA4005285D685971002E0E780C07D0589937B35
:101CB400F90F11C563863403850993F9F90F0509F2
:101CC400E31F89FD230B6413B2502254925402592A
:101CD400F249624AD24A424BB24B224C456182805D
:101CE4005E8BCDB70111972700009387A73E22CCC6
:101CF40003A4870C26CA4AC84EC606CEAA84130972
:101D04002500854915C083C7140003473400858B1B
:101D14006304F700405CFDB71946930544004A8507
:101D2400EFE05FB9E31835FF2285F2406244D24404
:101D34004249B24905618280411197270000938787
:101D4400673922C403A4870C26C24AC006C693047A
:101D54002500054901E82285B24022449244024903
:101D640041018280A6851305A402970002E0E78062
:101D7400A0F1E30225FF405CF1BF41119727000069
:101D84009387473522C403A4870C26C24AC006C6DB
:101D940093042500054901E82285B2402244924477
:101DA400024941018280A6851305A401970002E03F
:101DB400E78080EDE30225FF405CF1BF197106C2A4
:101DC40012C416C61AC81ECA22CC26CE2AD02ED2B7
:101DD40032D436D63AD83EDA42DC46DECAC0CEC267
:101DE400D2C4D6C6DAC8DECAE2CCE6CEEAD0EED297
:101DF400F2D4F6D6FAD8FEDA9385018C8841E7004E
:101E0400050092402242B2424243D2436244F24429
:101E1400025592552256B2564257D2576258F2583A
:101E240006499649264AB64A464BD64B664CF64C6A
:101E3400065D965D265EB65E465FD65F09617300F9
:101E440020300000EFE01FC6730000000000000017
:101E54009382018F0383020023800200630F030037
:101E6400F32510342EC0970500009385E5FD73908B
:101E74001534EFF0CF9D7300203086DCEFF02F9DFA
:081E8400E6508280000000001E
:101E8C00971100209381C1CB175100201301C196EB
:101E9C001305400097E5FF1F9385051617060020D4
:101EAC00130606FE63FAC5008322050023A0550025
:101EBC0011059105E3EAC5FE17450200130505C699
:101ECC00970500209385C5FB1386818763FAC500AF
:101EDC008322050023A0550011059105E3EAC5FEF8
:101EEC0013858187972500209385C5306377B500CE
:101EFC00232005001105E36DB5FEFD42739002BC75
:101F0C008D4273904280930280087390023097E266
:101F1C00FF1F9382620E93E232007390523097222D
:101F2C0000009382021F73901234730020303D43E3
:101F3C002A876373C3029377F700BDEFADE5937601
:101F4C0006FF3D8ABA960CC34CC30CC74CC741075D
:101F5C00E36BD7FE11E28280B306C3408A06970278
:101F6C00000096966780A6002307B700A306B7006B
:101F7C002306B700A305B7002305B700A304B700D9
:101F8C002304B700A303B7002303B700A302B700D1
:101F9C002302B700A301B7002301B700A300B700C9
:101FAC002300B700828093F5F50F93968500D58DAD
:101FBC0093960501D58D61B7939627009702000083
:101FCC0096968682E78086FA9680C1171D8F3E967C
:101FDC00E374C3F8A5B7B717004003C777051377A9
:101FEC00E70FA38BE704130700F8A38DE7043D4725
:101FFC00238CE70413075003A38CE70403C7A7053E
:10200C001377D70F238DE7048280B717004003C7DF
:10201C00E7020D8941111377C70F498F930680088A
:10202C00F3B6068093F6860836C6010001009306C7
:10203C0070052380D704930680FA2380D70401000F
:10204C0001002387E70223800704B247F3A7078028
:10205C00010001004101828041112A83014E930E3F
:10206C00407E130F0019930F400663E56E12930820
:10207C00001913034006B3781503854E0D4FA14F7D
:10208C00337365020D891335150063EFBE12130807
:10209C00F6FF794672984208135808013307C702B5
:1020AC0013D61700BE0732976146B3F6C602130665
:1020BC008070B386C6023697A166F58F42075D8F96
:1020CC00B716004083C7F60293F70708A303F10085
:1020DC000346710083C7F60293F70708E394C7FE23
:1020EC0083477100B716004093F7F70F6388071208
:1020FC0093078008F3B7078093F787083EC4010065
:10210C000100B7170040930670052380D70493068F
:10211C0080FA2380D7040100010023AA070383C699
:10212C00170393E60608A388D70223800704A24767
:10213C00F3A70780010001001166B71700407D1658
:10214C00D45BC85F93854703A98EF18EF5FA93068D
:10215C008008F3B6068093F6860836C601000100A7
:10216C00930670052380D704930680FA2380D70446
:10217C000100010098C103C7170313670704A38864
:10218C00E70223800704B247F3A707800100010090
:10219C00410182807D133368E3039308E016630EDC
:1021AC0008003368F3039308D0166308080093788B
:1021BC00330093B818009388D81633081E01131EE9
:1021CC000801135E0E0155B56393E503054863865C
:1021DC0008000148630303002A8871087298FD15F2
:1021EC00131E0801C205135E0E01C18179BD13F8DF
:1021FC00150063F4BF007908D5B713381800E5BF94
:10220C0083C7F60293F70708A303F1000346710096
:10221C0083C7F60293F70708E394C7FE8347710060
:10222C0093F7F70FF1DFE9B54111B7170040985F4D
:10223C003AC6945F3247E39CE6FE32454101828008
:10224C0031714AD966CB06DF22DD26DB4ED752D55B
:10225C0056D35AD15ECF62CD6AC96EC7AA8C02D84A
:10226C00EF0090102A8993078008F3B7078093F743
:10227C0087083EDA01000100B7170040130770050C
:10228C002380E704130780FA2380E7040100010090
:10229C0003C7F7021377770FA387E70203C7F70289
:1022AC0013678700A387E70223800704D257F3A79D
:1022BC000780010001000545893B130780C13347A6
:1022CC00E902116A93070AE893065002BD69930B61
:1022DC00A004814A014B13048008930470057D1AF5
:1022EC00B347F9023307D7023EC0FD873ECC938734
:1022FC0009A69309803E3347F7023AC27D873AC458
:10230C00334739038549B399990193D93940B306B9
:10231C00D702B30B7703B3C6F602B3CBFB0236C6B8
:10232C00FD8636C893D6FB4136CEB7460F00938652
:10233C0006243349D9028566938606FAB39696012C
:10234C00B389E902130760553309D90293060010CB
:10235C00B389E9023349D902B3C9F902931639009A
:10236C0036CA37190040FD8636D0930D090493D731
:10237C00F9413ED2F336048093F6860836DC010030
:10238C000100930770052380FD00930680FA2380DB
:10239C00DD00010001008346390593F6860FA30981
:1023AC00D9048346390593E61600A309D904238082
:1023BC000D00E256F3A6068001000100130C80FA12
:1023CC00116DF336048093F6860836DE01000100A9
:1023DC00930770052380FD0023808D01010001000F
:1023EC0083463905216693E60602A309D904835670
:1023FC000905B3E6A6012318D90483560905D18E25
:10240C002318D90423800D00F256F3A60680010090
:10241C0001008346390593F60602638306180346CA
:10242C003905218A6DDE081841277336048013762E
:10243C008608B2C20100010023809D0023808D011B
:10244C0001000100B717004003C637051376F60DDF
:10245C00A389C70403C6370513660602A389C704FC
:10246C00835609052166B3E6A6012318D9048356C1
:10247C000905D18E2318D90423800D009646F3A6A6
:10248C000680010001008346390593F6060263803D
:10249C00061483463905A18AEDFE7933AA8636D413
:1024AC006133A256E30DD5FE835609054255B3E6BA
:1024BC00A6012318D904392783463905A18AEDDEF4
:1024CC00035609058346290582473376CA00B306AD
:1024DC00DA0293D5F641B296B388F640E24733B8A8
:1024EC00C6002E983308F840A247B3B6160133083D
:1024FC00D84063C70701631DF800924763FA1701C0
:10250C00C247634DF80E63950701B24763E8F80EB6
:10251C00894663E7660FF2469315180013D3F8014A
:10252C005E8613951800B365B30042D646D4EF000F
:10253C00F2793258050B137BFB0F63470001631CC8
:10254C000836A2586389083613081500B336A8005C
:10255C00B69513D6F5013298B336C800AE9613581B
:10256C001800FE06B3E6060173360480137686085F
:10257C00B2C60100010023809D0023808D01010063
:10258C0001000356C902B296C206C1822316D902B3
:10259C0023800D00B646F3A606800100010015B598
:1025AC00F336048093F68608B6C001000100238040
:1025BC009D0023808D01010001008346390593E6BF
:1025CC000602A309D90423800D0086463DBDF336CF
:1025DC00048093F68608B6C40100010023809D0098
:1025EC0023808D01010001008346390593E6060224
:1025FC00A309D90423800D00A64651B5E30D0BF0B9
:10260C00F336048093F68608B6C8010001009306E1
:10261C0080FA23809D002380DD00010001008346A9
:10262C00390593F5FC0F93F6860FA309D90483465D
:10263C003905CD8EA309D90423800D00C646F3A617
:10264C00068001000100130580FA03463905930644
:10265C0039051D8A631E9627733604801376860807
:10266C00B2CC01000100130680FA23809D00238068
:10267C00CD000100010003C606001376F60D238081
:10268C00C60003C60600136606022380C6008356E6
:10269C0009051166D18E2318D904835609052166C4
:1026AC00D18E2318D90423800D00E646F3A60680AC
:1026BC0001000100130680FA8346390593F60602E1
:1026CC006382062483463905130C3905A18AFDDA89
:1026DC000818D929F336048093F68608B6D0010081
:1026EC000100930680FA23809D002380DD00010009
:1026FC00010083460C00116693F6F60D2300DC00F6
:10270C0083460C0093E606022300DC008356090581
:10271C00D18E2318D904835609052166D18E23182E
:10272C00D90423800D008656F3A606800100010013
:10273C00130680FA8346390593F60602638F061E4C
:10274C0083463905A18AEDFEC5342A8CF13CE30F92
:10275C0085FF8356090511664255D18E2318D9047D
:10276C0095218346390513063905A18AFDDAF3361E
:10277C00048093F68608B6D401000100930680FA13
:10278C0023809D002380DD000100010083460600AC
:10279C0093F6F60D2300D60023800D00A656F3A663
:1027AC000680010001008356090503462905D2471E
:1027BC00B376DA003306CA021305800C9355F64142
:1027CC003696330DF6408257333CD6002E9C33366A
:1027DC00A601330CFC40330CCC40330885039256D5
:1027EC004E86B335A5033305A503C295EF00124EF3
:1027FC0063468001631E0C16630C0D161306150040
:10280C003335A6002E959356F5013696B335D60082
:10281C00AA959396F50105828585D18E6346B00005
:10282C00639D051A638B061A0356C902158233057C
:10283C00D6003336C500B2956348B00063910524C9
:10284C001306F00F637DA622894663F35615930792
:10285C008008F3B7078093F78708BED60100010004
:10286C0037170040930770052300F704930780FA8D
:10287C002300F704010001008356C7028967811702
:10288C00D58FC207C1832316F70223000704B6575E
:10289C00F3A7078001000100FA506A54DA544A5930
:1028AC00BA592A5A9A5A0A5BFA4B6A4CDA4C4A4D74
:1028BC00BA4D296182801308F5FF3335A800FD1548
:1028CC002E951356F5013298B336C800AA9641B925
:1028DC00F336048093F68608B6CA01000100238003
:1028EC009D002380AD000100010083463905CD8E8B
:1028FC00A309D90423800D00D646F3A60680010057
:10290C000100A1B3F336048093F68608B6CE01001D
:10291C00010023809D002380CD000100010083462F
:10292C00390593E60602A309D90423800D00F64667
:10293C00F3A606800100010041B3F336048093F640
:10294C008608B6D20100010023809D002380CD00B3
:10295C00010001008346390593E60602A309D90458
:10296C0023800D009656F3A6068001000100D9B312
:10297C009306F5FF33B5A600FD152E959355F5017D
:10298C00AE96B3B5B600AA951396F501858269B5D6
:10299C00F336048093F68608B6D80100010093063E
:1029AC0080FA23809D002380DD0001000100835606
:1029BC00C9020566011693F6F60FD18EC206C182C6
:1029CC002316D90223800D00C656F3A606800100FB
:1029DC000100850A93FAFA0F71BA33E6B60045C2C4
:1029EC000356C9023305D0403338A000B305B040BC
:1029FC00B385054115826345B000D1E16371A6082A
:102A0C00894663F0560593078008F3B7078093F760
:102A1C008708BEDA01000100B717004013077005E4
:102A2C002380E704130780FA2380E70401000100E8
:102A3C0003D7C7027D8B2396E70223800704D65762
:102A4C0081BDF336048093F68608B6DC01000100E4
:102A5C00930680FA23809D002380DD000100010095
:102A6C008356C9020566011693F6F60FD18EC2067F
:102A7C00C1822316D90223800D00E656B9B79307FD
:102A8C008008F3B7078093F78708BEDE01000100CA
:102A9C0037170040930770052300F704930780FA5B
:102AAC002300F704010001000356C7029397560058
:102ABC00B297C207C1832316F70223000704F65707
:102ACC00C1BB914763EEB702172702001307075AE1
:102ADC008A05BA959C41BA978287B717004003A71D
:102AEC00470B1345F5FF698F23AAE70A03A7070BCA
:102AFC00698F23A8E70A03A7070A798D23A0A70AE1
:102B0C008280B717004083A6470B1347F5FFF98E59
:102B1C0023AAD70A83A6070B558D23A8A70A83A639
:102B2C00070A758F23A0E70A8280B717004003A716
:102B3C00470B498F23AAE70A03A7070B1345F5FF99
:102B4C0045BFB717004083A6470B1347F5FF758F9A
:102B5C0023AAE70A03A7070A598D4DB7B7170040F8
:102B6C0003A7470B498FEDB7B717004088474205BD
:102B7C0041819377050491EB9377F5013755E80183
:102B8C00130505803345F50282809377050C1307F6
:102B9C0000046397E7009377F50137459C1CCDB78C
:102BAC002165130505D0828037E700E01C435443B0
:102BBC00A183E206D58F1CC1FD572320F7182322D1
:102BCC00F718828013178500B7E700E023A0E71001
:102BDC00618123A2A7108280B7F700E08847CC4719
:102BEC008280814737370040A14663C4C7003285D5
:102BFC0082800345B740E38EA6FE3385F50003457E
:102C0C00050085072304A740CDB7411122C406C691
:102C1C002A84993F2947B307E502B2408D83B3D785
:102C2C00870222449507B3D7E70237370040C20723
:102C3C00C1832316F7404101828071654111130550
:102C4C00052006C6D937B7370040130770F8238123
:102C5C00E7400D47A381E74013070004A380E7403A
:102C6C0005472387E740B240410182809387418822
:102C7C009C43411106C691C38297938781889C43DC
:102C8C0091C3829717F7FF1F0357A76B9307C012C7
:102C9C0063F7E70403D541809306B01263E4A604FE
:102CAC009386018803A3060063070300B240130553
:102CBC00C012410102830507098F3385A740E54700
:102CCC003305F5024207418309839307F7FF3E95CD
:102CDC003345E5021375F50FB240410182801305AF
:102CEC004006DDBF0145CDBF03A84500411126C2FA
:102CFC0006C622C48347180003480800A944A2074B
:102D0C00B3E70701C2070D68C187130828906396C3
:102D1C00070385473284EF70802CAA8419ED9387C2
:102D2C00C1879C4399CB034514000347040022053B
:102D3C00598D1335150005058297B240224426851E
:102D4C009244410182802D452DEFD841411122C47E
:102D5C0026C206C68347170003470700B684A2079E
:102D6C00D98F0D67930697A13284639CD702FD3DE2
:102D7C0097F7FF1F83C7C75C6376F50097F7FF1FB4
:102D8C002380A75C85472390F40097F7FF1F83C728
:102D9C00275B2300F4000145B240224492444101D8
:102DAC008280130787902945E398E7FECC45894735
:102DBC002390F4000946228597E0FF1FE780C0A20C
:102DCC00D9BF828083474500858BBDC7011122CCBA
:102DDC002A8403552500938541A806CEEF70E01A8E
:102DEC00058939C503552400014781460546ED4543
:102DFC00EF6010542AC60DCD97F7FF1F9387470835
:102E0C0083D7A70201462C002314F1008547231514
:102E1C00F10097F7FF1F83C7A7522300F500035556
:102E2C002400EF70707309C5ED452800EF60106841
:102E3C00F240624405618280828041654111938534
:102E4C0041A87D1506C6EF807062B24097F6FF1F51
:102E5C00938606084146954517F5FF1F1305450255
:102E6C0041016F80D05523AEA1868280411122C4CE
:102E7C0006C6854709446313F502834706000144DF
:102E8C00238CF18617F7FF1F0347874B6378F700F6
:102E9C0017050000130545F3EFB080172285B240EB
:102EAC0022444101828085476303F50209C9094721
:102EBC006304E5020D476308E5020945828097F734
:102ECC00FF1F83C7E7472380F50001458280938766
:102EDC00818783C70700C5BF97F7FF1F83D7E7FA22
:102EEC002390F500DDB713878180035707002392E9
:102EFC00E50017F7FF1F1307A7F88356A702035720
:102F0C00A7032383F5002390D5002391E50075BF1B
:102F1C00411106C6A13B97F7FF1F83C76742637C2D
:102F2C00F50097F7FF1F238DA74017050000130529
:102F3C00A5E9EFB0E00DB240014541018280416747
:102F4C007917630CE502411122C406C685472A8411
:102F5C00639AF50022852244B240938541A8410131
:102F6C006F80D05089476396F5008545EFB0C0045B
:102F7C0075D1B2402244410182808280CC41411102
:102F8C0006C6328503C6150083C5050022064D8E84
:102F9C0042068D654186138875A2630C060F634843
:102FAC00C804138845A26306060B634AC8009385C0
:102FBC0035A26309B60623900600294679A013882A
:102FCC0055A26308060B938565A2E316B6FEC145B0
:102FDC001D4663ECE5064546198E63F3C7003E8635
:102FEC002390C600972502009385850A89A813882B
:102FFC0095A26300060F634E060B1388A5A2630A05
:10300C00060F938505A5E318B6FA99451D4663EEA0
:10301C00E502198E63F3C7003E862390C6009385A4
:10302C00018131A89D451D4663E1E5022146198EBB
:10303C0063F3C7003E862390C6009385C188BA957A
:10304C0097D0FF1FE780407A0146B240328541019C
:10305C008280AD451D46E3EAE5FE3146198E63F3E9
:10306C00C7003E862390C60097250200938505066F
:10307C00F9B7B1451D46E3EAE5FC3546198E63F315
:10308C00C7003E862390C600972502009385050550
:10309C007DB7C1451D46E3EAE5FA4546198E63F353
:1030AC00C7003E862390C60097250200938585FFB6
:1030BC0079B7C1451D46E3EAE5F84546198E63F339
:1030CC00C7003E862390C600972502009385050213
:1030DC00BDB7C1451D46E3EAE5F64546198E63F3D7
:1030EC00C7003E862390C600972502009385C5FC39
:1030FC00B9B7B5451D46E3EAE5F43946198E63F3D5
:10310C00C7003E862390C60097250200938545F79D
:10311C003DB797F6FF1F938666EF4146CD4517F5F1
:10312C00FF1F1305A5DB6F80902982809387818A0E
:10313C009C4303C7C18983C6F18101E781473E8562
:10314C00828003D607006316A60003C66700E30857
:10315C00D6FE7D171377F70FA107C5B7B2862E865B
:10316C00AA8517250200130525FD6F009238011161
:10317C00930500030D4506CEEF30B01993050005FD
:10318C001145EF3010199305C0030545EF30701849
:10319C0085471306F100854513055030A307F10050
:1031AC00EF70D15FF240056182808547631AF500AC
:1031BC001166130686A9894503C5D1896F10606411
:1031CC0089476317F500894503C5D1896F10B00B8A
:1031DC00828085476398F50019E2238BB18823869A
:1031EC00C18A828009476399E50019E6238BF1882F
:1031FC0003D541896F00C07B82809387018A9C43F1
:10320C00011122CC06CE2E8481CB9C4791C782978C
:10321C00F2406244056182806C0013057040EF60DF
:10322C00E14F324681452285EF60B111D5B70111CE
:10323C009397050126CA06CE22CC4AC84EC652C464
:10324C00C187AE8463D7070803C5D189EF00907E90
:10325C002A8439C9034705009307000D6313F7044B
:10326C00834725004547638BE7046547639BE7026B
:10327C00172502001305C5E8EF00B2271309540007
:10328C009309B400172A0200130ACAE883450900FF
:10329C0052850509EF00F225E39A29FF2945EF0035
:1032AC0052292285EF00B06D2165258DF2406244D4
:1032BC00D2444249B249224A0561828003466500E4
:1032CC008345750017250200130545E5EF007222B2
:1032DC00C9BF93F7150085C317F6FF1F130686D4D5
:1032EC0097F5FF1F938545D303C5D189EF70112145
:1032FC0013C5140065BF93F725000145C5DB0939DB
:10330C001166130686A9894503C5D189EF10604F54
:10331C0013C5240061BF797126D24ECE06D622D4B5
:10332C004AD052CC9147AA84AE896314F50483D752
:10333C00A5001306E100854513055030239AF1884A
:10334C0023070100238B0188EF7051459387018A75
:10335C009C4391C7DC4781C7CE8526858297B250A6
:10336C00225423AC918802599254F249624A456125
:10337C008280138781891843E31AF7FC854503D5AE
:10338C004189753E854503D541894925C16703DAD5
:10339C004189F917631BFA0205449305E1001305F3
:1033AC005041238B0188A38F818023070100EF609C
:1033BC00E1368347E100B1E303C7C18A9147E317C4
:1033CC00F7F875332386018A51B79387818A03A94D
:1033DC00070003C4C18969D00355290011C993059D
:1033EC00E100EF70E01F09C54C455285EF801008D5
:1033FC007D141374F40F2109F9BF9387418A9C4300
:10340C0083C74700898BCDDB9305000A0D45EF3050
:10341C0040709305000A1145EF30A06F81450545BA
:10342C00EF30206F1306E10085451305503023075C
:10343C008100EF70B13649B7011117050000130573
:10344C0045DF06CE22CCEF10501A1384D189854764
:10345C001306F10085452300A40013054041A30782
:10346C00F100EF60D1147D55EF60C0347D55EF80D5
:10347C00C07C4531D932212317050000130525D313
:10348C00DD3217050000130585CA0523034504002A
:10349C008545EF10A019F24062440561828023A09B
:1034AC00B18A23A2A18A828023A4B18A238EA18807
:1034BC008280938781899C43797106D622D426D247
:1034CC004AD04ECE52CC1147639BE70483C7618927
:1034DC00414481CF9387818A8043B284B68983C764
:1034EC00C18903C7F18199EB55442285B25022540E
:1034FC0092540259F249624A4561828083464400E3
:10350C00639AA600834654006396B6008346640013
:10351C006380E606FD1793F7F70F2104E9B7094717
:10352C004144E384E7FC2C001305504123040100C3
:10353C00EF60C11E834781008DCB930500020D45C2
:10354C00EF30205D930500031145EF30805C95450D
:10355C000545EF30005C854730008545130550303C
:10356C002304F100EF70912349B711314144B5BFE9
:10357C000355240093056100EF70800635D54C454A
:10358C0003D54189EF607020058939DD1399040159
:10359C0013590901014781464A86ED4503D54189F6
:1035AC00035A0400EF60C0582AC64D441DDD268620
:1035BC00CE85231441012315210197D0FF1FE780ED
:1035CC00A02201462C0003D54189EF70E0782A84B3
:1035DC00E30D05F0ED452800EF60406D39B7C841AB
:1035EC00011122CC06CE328403461500034505009A
:1035FC002206498E19CB0D681308B8A42D45630912
:10360C000607F2406244056182800D651308D5A45B
:10361C0063000603130825A2630C060175781308D2
:10362C00E85C3298420813580801854863EE080399
:10363C0003D5A50036C632C4D53CB24615C1938716
:10364C00018A9C4322468345550003A30700A287A9
:10365C006244F24003454500368785460561028386
:10366C0023900600014571BF1308B5A46317060328
:10367C0003D621821D45E376C7F8198E63D3C700A4
:10368C003E86CC452390C60042064182BA952285DF
:10369C0097D0FF1FE7804015F1B79307A5A46318D7
:1036AC00F60091472390F6001146CC45CDB7930711
:1036BC0085906317F60089472390F6000946F5B705
:1036CC009307E5A4631AF600DC452390160183C723
:1036DC0007002300F40079B713057590E314A6F8DE
:1036EC00D9BF011122CC06CE26CA4AC82317D10055
:1036FC002D4431EBDC412E89B28403C4170083C7FF
:10370C00070022045D8C8D679386D7A46306D400D2
:10371C00938627A36310D4040355A900EFF01FA1CF
:10372C0019E101440DA09387018A9C438345550000
:10373C000345450003A807002286A6871307E1006E
:10374C00814602982A842285F2406244D24442493E
:10375C00056182809386C7A46314D4028357E10069
:10376C0005473544E391E7FE0345060013040008C2
:10377C00E3EBA7FC9387018A9C43DC43829755B704
:10378C0093862790631AD4028356E1008547EF6035
:10379C0010052A844DF99387818A8356A9009C438E
:1037AC0003C7C1893DDF03D627006302D6047D170A
:1037BC001377F70FA107FDB79387E7A4E313F4F68C
:1037CC008357E10005473544E39FE7F603450600C0
:1037DC0013040008E3E9A7F6DC452380A7009387D0
:1037EC00018A9C433335A0000905DC4341BF138794
:1037FC00018A184303C5470083C5570083C71400CB
:10380C000328070003C70400A2078946D98FC20703
:10381C00C18705476383E7008D460D66A6871307AE
:10382C00E10013062690029839BF4165411193853A
:10383C0041A97D1506C622C426C24AC097E4FF1FC3
:10384C009384047FEF80804297F6FF1F9386469007
:10385C004146C9452685EF808036CC4C2A890945DE
:10386C00EFF06FE49387C18283D70700138441AADA
:10387C00138781822312F40083D7A40C035707000B
:10388C00938541AB2310F40083D7A40D2316E400D9
:10389C0003D7A4102311F4000D4585472303F4002E
:1038AC002314E4002307F40023150400EFF0AFDF2A
:1038BC00A2850D45D53EB24022444A859244024928
:1038CC00410182808D679387D7A40145631FF60061
:1038DC008D472945639BF500854735456397F60071
:1038EC008347070001452387F18A82808D67938780
:1038FC00D7A4631EF6008D47639BF50083C7E18A4E
:10390C002300F70085472390F60001458280239021
:10391C000600E5BF0145828025E303A84500AE887B
:10392C008347180003480800A207B3E707010D6896
:10393C00930EF8A4639AD70391473548639FF60218
:10394C0003A5C8004111B285114606C697D0FF1FCA
:10395C00E78080E99387C18B9C4305458297B240F1
:10396C00014842854101828093082890294863963A
:10397C00170185476F60A0662D484285828041659E
:10398C0041119385C1AB7D1506C6EF80202EB24048
:10399C0097F6FF1F938686824146994517E5FF1FD0
:1039AC001305C57B41016F80802123AEA18A8280E3
:1039BC0001119385C1AB22CC06CE2A84EF60E05C6A
:1039CC00058929C1014781460546ED452285EF60F1
:1039DC0020162AC605C997E7FF1F9387277883D738
:1039EC00A70501462C002314F10085472315F1008F
:1039FC00230005002285EF70203609C5ED4528000F
:103A0C00EF60C02AF24062440561828041677917F9
:103A1C00630CE502411122C406C685472A84639AC9
:103A2C00F50022852244B2409385C1AB41016F80E1
:103A3C00E02389476396F5008545EFA0E05775D1E3
:103A4C00B240224441018280828011456FE04FFFD9
:103A5C00411193962500AA852D4506C697D0FF1FC8
:103A6C00E780E0A1B240014541018280411126C2AC
:103A7C009394250022C44AC02A843289A686AA853A
:103A8C000146254506C697D0FF1FE780409FA686B6
:103A9C004A86A285294597D0FF1FE780409EB240F9
:103AAC00224492440249014541018280011122CCF9
:103ABC0006CE3714004026CA4AC84EC652C48344A8
:103ACC007405034AB4058349840503499405EFE062
:103ADC008FD08347A40593F4F40F137AFA0F93E76E
:103AEC001700230DF40493F9F90F1379F90FB71795
:103AFC00004003C7A705058B6DFF03D5C705A38D34
:103B0C004705238C3705A38C2705A38B9704F2401C
:103B1C006244D2444249B249224A05618280411131
:103B2C009397050122C406C6C1872E8463DC070067
:103B3C00EF00407011C1A1252165218DB2402244B6
:103B4C004101828093F7150013C51500E5FB93978F
:103B5C00250163D00702EF10C158C53D37F60200AE
:103B6C00130606E0896503C5418CEF009049096591
:103B7C00E9B7939715010145E3D207FC171502002D
:103B8C001305C566EF00222B13060064916503C56F
:103B9C00418CEF00104711654DB71D7149469715C3
:103BAC00020093852560172502001305659786CEC4
:103BBC0097D0FF1FE78080CF01E91715020013058E
:103BCC00A55FEF00422701A0B7F600E0795798CA2D
:103BDC00FD57DCCA0567B7E700E023A0E710130622
:103BEC00F00290C223A0E7180100010017E7FF1FA5
:103BFC001307872523A0E18C4157A38AE7401306BE
:103C0C00C0038145480897D0FF1FE78080C497F711
:103C1C00FF1F9387A79F3ECA896793870780231C42
:103C2C00F100A167938707E03ECEB70701059387A4
:103C3C0007103ED0ED472312F10285472303F10212
:103C4C0097070000938707E1BEC49707000093878E
:103C5C0027E2BEC68567938757D12314F10297F7E5
:103C6C00FFFF9387A7F73EDAB7F507009707000029
:103C7C00938707E43EDE814697070000938727DD94
:103C8C007000E1051945BEC097C0FF1FE780207F7B
:103C9C0058088147994670003E96034606008507F2
:103CAC000507A30BC700E398D7FED24791C703576C
:103CBC00810185676373F70001A04808EF10601657
:103CCC00AA8501C91715020013054550EF006202C1
:103CDC0001A0F640256182804111170500001305F3
:103CEC0045E406C622C4EF1040101384418C230017
:103CFC00A4002928034504002244B24037F60200F0
:103D0C00130606E0896541016F00B02F797106D664
:103D1C0013078008F337078093F787083EC4010028
:103D2C000100B7170040930570052380B7041306F4
:103D3C0080FA2380C7040100010083C6F70293F6C2
:103D4C00A60FA387D70223800704A246F3A60680FA
:103D5C000100010073370780137787083AC601000A
:103D6C0001002380B7042380C7040100010003C7AE
:103D7C00F70213672700A387E70223800704B247E3
:103D8C00F3A70780010001000545EFE00FA8753986
:103D9C00814701478146054685451305407EEFE086
:103DAC00AFAB08084146814597D0FF1FE78060AA5A
:103DBC00B707C0A83ECAB787E803938707D03ECCA5
:103DCC00080897C7FF1F9387475C3EC8EF10C036A3
:103DDC00B2504561828082803D897D15954763EAAA
:103DEC00A70E171702001307A7400A053A951C41A6
:103DFC00011106CEBA9782872C0013054030EF7064
:103E0C00210A2C000545EF40F0621715020013053E
:103E1C00A542EF00420211A803C725008D471715D4
:103E2C00020013056542E306F7FEF240056182804D
:103E3C0003C725009547E31AF7FE83D7A5000D6647
:103E4C0013060620914503C561842392F184EF008B
:103E5C00501B171502001305254065BF03C725002D
:103E6C008D47E314F7FC171502001305A53F55B752
:103E7C0083C7250011471715020013052540638ED3
:103E8C00E70219476394E70283C565001715020022
:103E9C0013058540EFF0F165854730008545130526
:103EAC0050302304F100EF70610F41B71547E395D3
:103EBC00E7FE171502001305E53FEFF0D177E9BFD8
:103ECC0083C525001715020013054540EFF07162FC
:103EDC00A9BF82803A883E8789E6834608006FF046
:103EEC007F9E85476395F600C2866FF03FA0894799
:103EFC00639FF60041111306401F894503C5618479
:103F0C0006C6EF001010B240014541018280014508
:103F1C00828001119397050122CC06CEC1872E8495
:103F2C0063DD070003C56184312611C1892C21652D
:103F3C00218DF24062440561828093F7150013C510
:103F4C001500E5FB93F7450099CF83C761841307F0
:103F5C00401F81462146A14503D54184EF60715332
:103F6C0013454400F9B793F785009DC30147894673
:103F7C000946814503D54184EF70A12DAA851715FB
:103F8C00020013056528EFF0D1561345840055B790
:103F9C0093F725000145D1DF83C7718413073006E1
:103FAC006379F7021387A7079387A717A183A30544
:103FBC00F100340093074016194685450545231634
:103FCC00F100231401002305E100EFF08FCEA38351
:103FDC00018483C7718405472314E1001387A70765
:103FEC009387A717A183A305F1003400930740160C
:103FFC001946854505452305E1002316F100EFF030
:10400C004FCB9387718483C70700130640068945FD
:10401C00910703C56184A383F184EF00807E13456F
:10402C00240001BF0111170500001305C5EE06CED3
:10403C0022CC26CAEF00705B9384618405442380F4
:10404C00A400700085451305503023068100EF60F5
:10405C00F174138641839D4513056030EF60117434
:10406C0017E6FF1F13064617E94513057030EF607E
:10407C00F172171602001306A61AD5450145EF502A
:10408C0000628D4770009145130570402305F100C7
:10409C0023048100A305810002C6A3040100EF5094
:1040AC0011513000854513050040EF505150130657
:1040BC009100854513051040EF50714F1306A10078
:1040CC00854513052040EF50914E1306B1008545F0
:1040DC0013055040EF50B14D99477000854505458B
:1040EC002306F100EFE09FD8EFF02FF497E5FF1FC8
:1040FC009385850D1385C183EFF06FBA03C504005A
:10410C0085452D23F2406244D244056182804111E1
:10411C001305800406C697C0FF1FE78000F737170A
:10412C0000408327870A8D451305002093E707205D
:10413C002324F70AEFE0FF98EFE03FB017150200D9
:10414C001305053EEFF0314FEFF03FA57136EF70E0
:10415C008110EFF06FAEF93597C0FF1FE780C025D7
:10416C0023AC05FE1C4191E7010001000CC18280CB
:10417C00BA8703A787FF6DFF23ACB7FE828041117E
:10418C0022C426C237C4004006C68324C42023267A
:10419C0004200F10000009E9232694201545B24095
:1041AC0022449244410182800347E5FF9307F00FBC
:1041BC006306F700232694201145D5B797D0FF1F2F
:1041CC00E780C014014523269420D1BF411126C29B
:1041DC004AC0B7C4004006C622C403A9C42023A603
:1041EC0004200F10000009E923A62421B240224428
:1041FC0092440249410182809565938505D0C98D11
:10420C002A842105C2054205C181418197D0FF1F37
:10421C00E780A00101CDFD57232005002312850066
:10422C002303F50023A624212105C9B723A62421A5
:10423C0001456DBF411126C2B7C7004006C622C456
:10424C0083A4C72023A607200F1000009387C18CDE
:10425C00904301440147B28791E711E8A165EF0053
:10426C00900225A083C6E7FF639BA60215CC83268C
:10427C0084FF631DC40223A6D18C7D57232C04FE1E
:10428C00230FE4FEE1DFA16555262285B2402244CE
:10429C00B7C7004023A6972092444101828011E0C9
:1042AC003E8783A787FF4DBF3E84E5BF232CD7FEF7
:1042BC00E9B7411126C24AC0B7C4004006C622C4A1
:1042CC0003A9C42023A604200F10000089E523A60F
:1042DC002421154515A02A849707002083C7D7B63B
:1042EC002E856375F400894763EE8700493DB7C797
:1042FC00004023A627210D45B24022449244024996
:10430C004101828083A785FF99E703C7E5FF9307E7
:10431C00F00F6308F700A535B7C7004023A6272187
:10432C004DBF238F85FE1385C18C1D3DA165228554
:10433C00F52C014523A62421C1B723A6018C82802C
:10434C009387818E9C4399E33E85828003D7270017
:10435C006316B70003C70700E308A7FEDC47E5B701
:10436C00BDCD797122D406D626D24AD04ECE014488
:10437C004147B3D78540858BB1CF12053147229584
:10438C003305E5029387418D03A907008544B39457
:10439C008400C204C180BE892A990327090011C771
:1043AC00032549002EC60297B24531473304E40277
:1043BC0083A709003E941C4489E72320090023228B
:1043CC000900B2502254A58D02599254F2492E85FF
:1043DC00456182800504E31EE4F88144DDB72E8537
:1043EC00828041111397050122C406C626C24AC019
:1043FC0041872E84635E0700353D11C14933A167A7
:10440C003D8C2285B2402244924402494101828073
:10441C00EDD9AA8701474146B356E440858A9DCA27
:10442C009207BA97B146B387D7029386418D03A9F9
:10443C0006008544B394E400C204C1803E998327EE
:10444C000900032549008297232009002322090033
:10445C00258C45BF0507E311C7FC8144D5BF41112D
:10446C0026C2B7C7004006C622C483A4C72023A611
:10447C0007200F10000097070020938727999C5363
:10448C001384818499C782971C403E9523A4A184F0
:10449C0029A09387C18D9C43FDF71C40374703002F
:1044AC001307D73FB387E70237A72600130737EC6C
:1044BC00B240BA9723A4F184B7C7004023A6972033
:1044CC0008402244924441018280011126CA4AC804
:1044DC00B7C7004006CE22CC83A4C7202A892E86DB
:1044EC0023A607200F100000131506019305F004F6
:1044FC00418132C697D0FF1FE78020D32A8419C58B
:10450C003246CA8597C0FF1FE780002E2285F240F5
:10451C006244B7C7004023A697204249D2440561A4
:10452C008280797126D2B7C7004006D622D44AD0F1
:10453C004ECE52CC56CA5AC85EC662C483A4C7209B
:10454C0023A607200F10000005E123A6972009459C
:10455C00B250225492540259F249624AD24A424B06
:10456C00B24B224C456182809387C18D9C43BA8AA1
:10457C00368AB28B2E8BAA8982979387418D98436A
:10458C003E890144B146C147330CD402330687013E
:10459C00104241E6C165938505F0414597D0FF1F58
:1045AC00E780A0C805E197070020938727869C5BCE
:1045BC0081C7814511458297B7C7004023A6972034
:1045CC002D4579B79387818E984321E723A4A18E3B
:1045DC00230005008327090005473317870023268E
:1045EC000500232475012311E50023225501E297D0
:1045FC0023A0370123A2670123A4570163040A00F7
:10460C0023008A00B7C7004023A69720014589B72D
:10461C003E875C47F5FF48C765BF0504E316F4F613
:10462C00B7C7004023A6972021451DB7B7C7004048
:10463C0083A6C72023A607200F1000001707002011
:10464C00034797806371E5021386018D13171500DC
:10465C0008423A9503570500D98D2310B50023A6BF
:10466C00D7200145828023A6D7200D458280B7C76D
:10467C00004083A6C72023A607200F10000017F7C1
:10468C00FF1F0347777C6373E5021386018D1317B5
:10469C001500084293C5F5FF3A9503570500F98DAF
:1046AC002310B50023A6D7200145828023A6D7204E
:1046BC000D458280011126CA37C7004006CE22CC98
:1046CC004AC84EC652C48324C720232607200F1085
:1046DC000000130705FF1377F70FFD4763E1E70AA7
:1046EC00B146B306D5029387418D984336971C4348
:1046FC00D9C7135A450005443D893315A40013143A
:10470C00050141802E895285A2851D39AA8939C996
:10471C00A2855285A93F9387C18D9C43829797F7B9
:10472C00FF1F83D72777338727032A8481461306F5
:10473C000064B3B7270313050732B335E500BE9504
:10474C00EFF04116B307850097F6FF1F93860674AA
:10475C003E87D44263E4A70063E4D7003387D74095
:10476C0023A4E900B7C7004023A697200145F240D7
:10477C006244D2444249B249224A05618280B7C799
:10478C00004023A697200945DDB701114AC8B7C7D9
:10479C00004006CE22CC26CA4EC603A9C72023A6AB
:1047AC0007200F100000BD4763E7A704314733070C
:1047BC00E5029387418D9C43BA979C438DCF05446A
:1047CC003314A40042044180AE840145A2858D3E81
:1047DC00AA8911C5A2850145593D23A49900B7C7E3
:1047EC00004023A627210145F2406244D2444249AD
:1047FC00B24905618280B7C7004023A6272109452D
:10480C00E5B7797126D24ECEB7C4004006D622D475
:10481C004AD052CC56CA5AC85EC683A9C42023A615
:10482C0004200F10000097F7FF1F83C7F761637810
:10483C00F5009387C18D83AB070063970B00B7C757
:10484C00004023A63721A9A017FBFF1F130B0B64F5
:10485C00832A4B00B74736FE938707C82E8A97F5F5
:10486C00FF1F83D52563BE9AB387C5022A8432897C
:10487C008146B3B5C50213850732B337F50013066D
:10488C000064BE95EFF0010263F0AA0223A6342166
:10489C000145B250225492540259F249624AD24A0A
:1048AC00424BB24B45618280829B97F5FF1F83D5AB
:1048BC00655EB3872503AA84130600648146B3B5ED
:1048CC00250313850732B337F500BE95EFE0917DD4
:1048DC00B3079500BE8403274B0063E4A70063E491
:1048EC00E700B384E740D2852285EFF07FA501C9AC
:1048FC0004C5B7C7004023A63721054559BF9365AA
:10490C0004F0C205C181414597D0FF1FE780E091BB
:10491C0019E997F7FF1F9387674F9C5B8DD3A2858F
:10492C001145829729BF9387818E9C438DE323A4E5
:10493C00A18E85472326050004C5231145012300BC
:10494C008500A300F5002322050065B7BA87D84778
:10495C0075FFC8C7F9BF79714ECEB7C7004006D6F0
:10496C0022D426D24AD052CC56CA5AC85EC662C489
:10497C0066C26AC083A9C72023A607200F100000B7
:10498C0025C141443689B28A2E8AAA84B14C138B34
:10499C00418D054D130C0003B30B940303270B003F
:1049AC005E971C43B9EF9375F400B315BD00135516
:1049BC004440C2055686C1811375F50F993531C136
:1049CC0083270B00DE9784C323A2470163040900ED
:1049DC0023008900B7C7004023A63721014521A039
:1049EC0023A637210945B250225492540259F24958
:1049FC00624AD24A424BB24B224C924C024D456118
:104A0C0082800504E31A84F9B7C7004023A6372136
:104A1C002145D1BF011122CC26CA4AC84EC6B7C700
:104A2C00004006CE03A9C7202A84AE89B28423A6EF
:104A3C0007200F100000F1332285CE85EFF05F9038
:104A4C002A8405C597F5FF1F83D5C544B387950206
:104A5C00130600648146B3B5950213850732B3374C
:104A6C00F500BE95EFE0116448C013351400F24018
:104A7C006244B7C7004023A62721D2444249B24919
:104A8C000E0505618280011122CC4AC84EC6B7C7FB
:104A9C00004006CE26CA83A9C7202A892E8423A6C5
:104AAC0007200F100000EFF0BF89AA8419C1231151
:104ABC000500A2854A85653E97F7FF1F83C7C73857
:104ACC006397270183D7818D5D8C239C818CB7C71D
:104ADC00004023A63721014591E01945F24062447C
:104AEC00D2444249B24905618280011126CA4AC8A2
:104AFC00B7C4004006CE22CC4EC603A9C42023A6C0
:104B0C0004200F1000009307F00263E6A704B147DE
:104B1C003304F5029389418D83A70900A2979C4326
:104B2C009DCB9377F5008545B395F500C205C18102
:104B3C001181913F83A709000145A29723A007008B
:104B4C0023A2070023A62421F2406244D244424906
:104B5C00B24905618280B7C7004023A627210945C9
:104B6C00E5B7411126C206C622C4B7C7004083A4CC
:104B7C00C72023A607200F100000EFF06FFC19E9E7
:104B8C000145B2402244B7C7004023A69720924467
:104B9C00410182809387C18D9C430045829797F792
:104BAC00FF1F9387A72E6368A402D843B74636FE2F
:104BBC00938606C83305A4403697E373E5FC1307C8
:104BCC000064B335E50203D6870081463305E50260
:104BDC00EFE0514D7DB7D8433A94C1BF411122C487
:104BEC0026C217F4FF1F1304642A97F4FF1F938443
:104BFC00A425944858409387C18D06C69C43639F57
:104C0C00E60682975440B74736FE938707C8B69797
:104C1C003387A7003A856364F7006364D7003305D4
:104C2C00D74097F4FF1F9384E43D9C4C91CB938722
:104C3C00819C94433707CDFF7D179C46F98F9CC60A
:104C4C0011E1484097F7FF1F9387471CDC5382976D
:104C5C0019E59C4C99CFEF00415DEFF0303A9C4C3C
:104C6C0089CB9387819C9843B70633001C47D58F1B
:104C7C001CC7B240224492444101828082979448DE
:104C8C005840B387A6003E8563E4D700E3EBE7F812
:104C9C003385E74079B7411106C623A2A18E029550
:104CAC00B24097F7FF1F23ADA71A0145410182803F
:104CBC00994763E9B7008A0597F7FF1F9387471B4E
:104CCC00BE9588C1828023A0A18E01C5854723880B
:104CDC00F18E828041117146814517F5FF1F130536
:104CEC00251906C623A4018E23A2018E23AE018CA6
:104CFC002388018E23A0018E97C0FF1FE78060B52B
:104D0C0013068002814517F5FF1F1305E51397C0A5
:104D1C00FF1FE78000B4EF60415D97F7FF1F83C76B
:104D2C00371013D527008D8B3E958D473305F50233
:104D3C00854539051375F50F97F7FF1F2387A710C6
:104D4C0099473305F5021305052497C0FF1FE7802B
:104D5C00C04D23AAA18C59C5994717F6FF1F0346CE
:104D6C00C60E3306F60281451306062497C0FF1FB4
:104D7C00E78020AE9387418D9C439387072423A61D
:104D8C00F18E17F7FF1F0347470C0A07BA9723A8A2
:104D9C00F18CEFF08FDA71219387C18E944397F7E2
:104DAC00FF1F83C7770A13972700369717F6FFFF65
:104DBC001306465B10C3138717001377F70F0A0708
:104DCC00369717F6FFFF1306066210C313873700DA
:104DDC00890793F7F70F8A0797F5FF1FA386E50658
:104DEC00B69790C3B2404101828097F7FF1F83C7EB
:104DFC00B70517F7FF1F0347470563F1E702138752
:104E0C00C18E18439386170017F6FF1FA30ED60208
:104E1C0093962700369708C33E8582809307F00F40
:104E2C00E5BF1C416380071441777D8FB7060020D6
:104E3C008947631AD71203574500630607124111BD
:104E4C0022C419462A849305F00F610506C697C043
:104E5C00FF1FE78080AD05478D476300E5101C44BC
:104E6C0091C75858994775CB185C65CB1306C0038E
:104E7C00814517F5FF1F130565F997C0FF1FE780E4
:104E8C00409D1306C003A28517F5FF1F130505F8F7
:104E9C0097C0FF1FE780409517F7FF1F0357C7F711
:104EAC0097F7FF1F938787F619E71307001097F6FC
:104EBC00FF1F2393E6F617F7FF1F034707F611E7CB
:104ECC00054797F6FF1F238AE6F417F7FF1F0357D2
:104EDC00E7F411E76D4797F6FF1F2391E6F417F7F8
:104EEC00FF1F034797F311E7154797F6FF1FA3869C
:104EFC00E6F217F7FF1F034787F211E7054797F60E
:104F0C00FF1F238EE6F017F7FF1F034757F119E732
:104F1C0003C7F70097F6FF1FA383E6F017F7FF1FF1
:104F2C00034707F011E7554797F6FF1F238AE6EE74
:104F3C000347640119E71307C00397F6FF1F238289
:104F4C00E6EE9C5791C7829797F7FF1F2392A7F025
:104F5C00FD57A38BF1A2BD3B8147B24022443E8555
:104F6C004101828089473E85828001114EC697F9A6
:104F7C00FF1F9389A9F183A7090006CE22CC26CA6C
:104F8C004AC852C4829713090064B335250303DA67
:104F9C0089008146528633052503EFE0B11097F75F
:104FAC00FF1F938767EA804FAA840145630694022A
:104FBC0033858440636E940003A549005286814674
:104FCC00B335A9023305A902EFE0D10D018D269569
:104FDC0097F7FF1F23A697E8F2406244D244424958
:104FEC00B249224A05618280011122CC0A852E84A5
:104FFC004146970502009385650606CEEFE0114405
:10500C00180806043A94035504FF97F7FF1F83D73B
:10501C0087E8F2406244AA9737450F001305052430
:10502C003355F5020561828097F7FF1F83D7A7E6FA
:10503C0051471D45637CF702794719456378F702A0
:10504C001307200315456373F7021307B0041145CA
:10505C00637EF700130740060D456379F7001307CD
:10506C00600909456374F70013B5B70F828001110D
:10507C0022CC06CE2A842EC6EFF06FBEB245F2408B
:10508C00818D33A5A502229562441375F50F056138
:10509C008280011122CC06CE2A842EC6EFF02FBCC2
:1050AC00B245F240818D33A5A5022295624442059A
:1050BC00418105618280011122CC06CE2A842EC644
:1050CC00EFF0EFB9B245F240818D33B5A5022295D0
:1050DC0062440561828097F7FF1F938727D3985707
:1050EC0039CB411122C426C206C6BE84029717F7DB
:1050FC00FF1F0357E7D52A8415CBBA876373A70024
:10510C00AA87C207C183BA866373E400A286C2066B
:10511C00C182958F5147635BF700DC5491C3829732
:10512C00EFF0307C97F7FF1F239487D2B2402244D4
:10513C00924441018280828097F7FF1F83C7C7D5B5
:10514C0099C7054582800545F2400561828097F735
:10515C00FF1F9387A7CBDC57011106CEAA8581C709
:10516C002AC68297B245A5CD9C41F1DFDC41E1DF37
:10517C0083D78500E9DB83D7A500F1D7414617F526
:10518C00FF1F1305A5D097B0FF1FE780E06597F7C9
:10519C00FF1F9387A7CF9C4323AEF18C97F7FF1F7C
:1051AC0083C737C88DE79307805717F5FF1F035543
:1051BC0065CE3305F50237460F00130606248146EB
:1051CC008145EFE0216E97F7FF1FA38CA7C417054D
:1051DC0000001305C5D9EFF01FAC0145B5B797F723
:1051EC00FF1F23A107C897C7FF1F9387C7AC17F7EB
:1051FC00FF1F232DF7C87D5797F7FF1F23AAE7C87A
:10520C00B7873200938727A197F6FF1F23A4F6C810
:10521C0097F7FF1F238207C8B7C7004023A4E726D0
:10522C00BDB7011122CC17F4FF1F130424BE084490
:10523C0006CE26CA4AC801E90545F2406244D2446A
:10524C004249056182805C58E5DB185C75D77000BB
:10525C00854582971844B247E300F7FE9305E004B6
:10526C0017F5FF1F035545BB97C0FF1FE780E0FBF9
:10527C0017F7FF1F232AA7BE61D117F6FF1F03568E
:10528C00A6B99305F00F97B0FF1FE780805C8144AF
:10529C0017F9FF1F130949BB97F7FF1F83C7E7B720
:1052AC000326090263C1F402328597C0FF1FE78011
:1052BC00E005014597F7FF1F23A807BA97F7FF1FD3
:1052CC0023A607BA9DBF97F5FF1F83D5E5B4B38717
:1052DC0095020844185C898185043E9508C20297A2
:1052EC0065BF011156C297FAFF1F938A2AB283A792
:1052FC008A0022CC4AC84EC606CE26CA52C45AC010
:10530C00AA892E8432896386072203A74A0363097C
:10531C0007141307F01F6367A71497F4FF1F9384F8
:10532C00A4B203AA040263170A0A9565938515E0D3
:10533C0017F5FF1F035545AE97C0FF1FE780E0EE42
:10534C0097F7FF1F23A2A7B22A86630B051083A72A
:10535C004A0303A58A0097F5FF1F83D5E5AB898126
:10536C00829783A78A0003AA040217F7FF1F232F33
:10537C00F7AE8947639CF908C1476313F40E97F5A0
:10538C00FF1F83D565A9938505FC9147B3C5F5022D
:10539C008A05D29503C725009307A005631EF70A5B
:1053AC0083D70500639A370B4A852286910597B0FF
:1053BC00FF1FE78060439C5052856393471501455E
:1053CC00F2406244D2444249B249224A924A024BC8
:1053DC0005618280D850E38EE7F89565938525E0CA
:1053EC0017F5FF1F035545A397C0FF1FE780E0E3A8
:1053FC002A8A3DC52A8683A74A0303A58A0097F506
:10540C00FF1F83D565A189818297A5B78D47639DC1
:10541C00F900C1476316F40497F5FF1F83D5C59FA8
:10542C00938545FDF199B5B79147639AF9006319D6
:10543C00340397F5FF1F83D5259EA115E5B7930778
:10544C000010639FF900A14763EC870097F5FF1FDD
:10545C0083D5859CC115F9B79C5052856396470D31
:10546C002945B9BF1D6A568B6371450B130A05E0BC
:10547C001947334AEA0217F7FF1F0357E79997FAC0
:10548C00FF1F938A6A9C330AEA023E9A83A74A0258
:10549C006395470183A40A029DE49305E00417F584
:1054AC00FF1F0355659797C0FF1FE78000D8AA849C
:1054BC0045D983274B0397F5FF1F83D5E5952A869E
:1054CC0089815285829791451307A005898193970D
:1054DC002500A69783C627006393E60483D60700AE
:1054EC00639C360385058A052286A6954A8597B066
:1054FC00FF1FE780602F83A70A02E38297EC2685C3
:10550C0097C0FF1FE78080E05DBD21677917E369D5
:10551C00A7F4330A454185B783C5370045BF83A738
:10552C000A02E38F97F2268597C0FF1FE78000DE03
:10553C0005BF97F7FF1F938727918C5395D1914700
:10554C009306A0058983139727002E9703462700FF
:10555C00E318D6F003560700631C360185078A074B
:10556C002286BE954A8597B0FF1FE780E02781BD54
:10557C0083473700C1BF97F7FF1F93872789984749
:10558C0039C79C5FA9C705476313E504411122C4C1
:10559C0017F4FF1F1304448B105006C60DC6485059
:1055AC0097F5FF1F83D5458789818297085097C04F
:1055BC00FF1FE780A0D597F7FF1F23A7078A97F750
:1055CC00FF1F23A5078AB2402244410182808280BA
:1055DC00011117F7FF1F130767834EC68329870036
:1055EC0022CC26CA4AC806CE52C456C2AA842E84DD
:1055FC003289638B09201C5FBA8A99EB2945F240EA
:10560C006244D2444249B249224A924A056182809C
:10561C005C5BEDD79307F01F63EAA70E97F9FF1FAA
:10562C009389898283A70902B1CB03A58A0083A73A
:10563C0049026395A70689476393F408C147E31FA2
:10564C00F4FA17E5FF1F0355257D9147130505FC5B
:10565C003345F5029317250003A509022286CA8556
:10566C003E959307A0052301F50023109500110525
:10567C0097B0FF1FE7804017014551B79305E00431
:10568C0017E5FF1F0355457997C0FF1FE780E0B969
:10569C0097E7FF1F23AAA77C49F98DB783A74A0375
:1056AC0003A6090297E5FF1F83D5057789818297A9
:1056BC0083A78A0017E7FF1F232AF77AADBF8D4710
:1056CC00639EF400C147E31BF4F217E5FF1F03557B
:1056DC00A574130545FD9377C5FFBDBF9147639A2C
:1056EC00F400E31D94F017E5FF1F0355E572211537
:1056FC00DDB793070010E393F4F0A147E3E087F0E4
:10570C0017E5FF1F035545714115F1B79D67637987
:10571C00F506930705E01947B3C7E70217E7FF1F24
:10572C000357876F17EAFF1F130A0A72B387E70242
:10573C00BE9983270A02A1CF83274A0263993707B0
:10574C0003250A0291461308A0059305F00F93D781
:10575C002600139727002A9703462700631F060786
:10576C00835807000346370063959806B306D64066
:10577C0063CF860485078A072286CA853E95CDBDF0
:10578C0021677917E36CA7E6B307F54041BF930592
:10579C00E00417E5FF1F0355256897C0FF1FE7803E
:1057AC00C0A897E7FF1F23A1A76C59F581BD83A75C
:1057BC004A0303260A0297E5FF1F83D5E565898115
:1057CC004E85829797E7FF1F23A2376B95BF231057
:1057DC00B70093160601C1829DBFB385860017E6FC
:1057EC00FF1F035666639105130606FCE3F8C5E03C
:1057FC0013063400719A1106B29623010701231087
:10580C009700A301D700BDB797E7FF1F9387C76326
:10581C009453BE89A9C203A5090291461308A00599
:10582C009305F00F93D72600139727002A9703466A
:10583C002700631806058358070003463700639852
:10584C009800B306D640E3D786F22310B700931620
:10585C000601C182C1BF8357C70017E5FF1F03456F
:10586C00C55B9305E0043305F5024205418197C001
:10587C00FF1FE780809B97E7FF1F23A7A75E41FDD3
:10588C00B5BB17E6FF1F0356265997E5FF1F83C5C7
:10589C00C558B385C502338686001106E3E0C5D62C
:1058AC0081BF01458280011106CE2EC6EF80005FBC
:1058BC0001C9B245F2400355250005616FC0A071C6
:1058CC00F240494505618280A38E0190238E0190A0
:1058DC0023A2019023A4019023A6019023A8019058
:1058EC0023A0019023AE018E97E7FF1F9387075BE0
:1058FC00370684033707B40090D337C6070098C324
:10590C00130606B83747A000D8C3D0D3370710000A
:10591C0041669306070AB70550009308060194C721
:10592C0023A4170393860501930816F8D4C723A65E
:10593C001703B706D007B7087F00130807051385B0
:10594C000601410723A81703B0C3930816009386DA
:10595C00060513861500D8CBF8C323A8070188CFFA
:10596C0023AE070023AA170323AC070223AE0702BA
:10597C0023A40704F0C7B4CB23AA0704ACCF23AEEF
:10598C000705B8D33707A000F8D71307000AB8DB10
:10599C001307C01CF8DB37071400B8DF0547F8DF26
:1059AC00130710F8E8D323A4070623A0E708828086
:1059BC00011126CAAA84214522CC06CE2E8432C6D9
:1059CC0036C43AC2EFE09F801DC9A2461247324648
:1059DC00930700FD2300F5009947A30095002301D0
:1059EC00F5002303D500A303E5002312C500AA8507
:1059FC0022856244F240D24405616FE09F8BF240F5
:105A0C006244D2440561828023A2A190828023A4A7
:105A1C00A190828023A6A190828023A8A19082804D
:105A2C00011122CC4AC806CE26CA2A890144B304E5
:105A3C0089006368B400F2406244D2444249056173
:105A4C0082802EC6EFE0BFA193170501C183A1830D
:105A5C00B2452380F4009307140093F7F70F8504E5
:105A6C0063F9B700CA9709042380A7001374F40FD5
:105A7C007DBF3E847DBFC16717E5FF1F0355A54A57
:105A8C00FD176304F502411117E6FF1F0346C656C6
:105A9C009385419106C6EF80601FB240FD5717E712
:105AAC00FF1F2312F74841018280828009C9251506
:105ABC001375F50F1335850E1345150082800145BE
:105ACC00828023900500C9C6797122D426D24ECE8D
