:040000006F10006A13
:10000400000000000000000090000020A402002076
:10001400A9BDF9F55C030020000000000000000009
:100024005C0300209000002000000000000000009D
:10003400900000200000000090000020000000005C
:1000440090000020900000209000002090000020EC
:10005400900000205C0800209000002000000000B8
:1000640090000020900000209000002090000020CC
:10007400C203002090000020900000209000002087
:1000840090000020900000209000002090000020AC
:1000940001A04111B7170040985F3AC6945F3247F8
:1000A400E39CE6FE3245410182800111130780087A
:1000B400F337078093F787083EC201000100B717A2
:1000C4000040930570052380B704130680FA23804B
:1000D400C7040100010083C6B70493F6F60DA38597
:1000E400D704238007049246F3A60680010001008A
:1000F40093760502D5CEF336078093F6860836C488
:10010400010001002380B7042380C704010001001B
:10011400B70614007D89558D88C7010001000100D0
:10012400010023800704A246F3A606800100010013
:1001340073370780137787083AC6010001002380CC
:10014400B7042380C7040100010001000100372720
:10015400004093061005A303D78023800704B24709
:10016400F3A707800100010093078008F3B7078015
:1001740093F787083ECE01000100B717004013072C
:1001840070052380E704130780FA2380E704010045
:10019400010003C7B70413670708A385E704238096
:1001A4000704F247F3A7078001000100056182807C
:1001B40093760504BDC6F336078093F6860836C8E1
:1001C400010001002380B7042380C704010001005B
:1001D400B7061400938606047D89558D88C70100EF
:1001E40001000100010023800704C246F3A6068033
:1001F4000100010073370780137787083ACA0100AA
:1002040001002380B7042380C704010001003727BD
:10021400004093062005A303D78023800704D24718
:1002240081B773370780137787083ACC0100010040
:100234002380B7042380C704010001009847136793
:10024400070C98C723800704E24719BF01118146B0
:1002540001468145114506CE692C93078008F3B702
:10026400078093F787083EC601000100B7170040D6
:10027400130770052380E704130780FA2380E7043B
:100284000100010003C76704136717002383E70411
:1002940023800704B247F3A7078001000100F2405E
:1002A40005618280411181460146814511459124B1
:1002B40013078008F337078093F787083EC40100CB
:1002C4000100B7170040130670052380C704930686
:1002D40080FA2380D70401000100FD552396B7025C
:1002E40023800704A245F3A50580010001007337AC
:1002F4000780137787083AC6010001002380C704EA
:100304002380D7040100010003C7670413671700A3
:100314002383E70423800704B247F3A7078001007F
:10032400010001A0BD473305F50201007D1575FDEF
:100334008280411122C426C206C6AA8401446317DE
:100344009400B24022449244410182800504130582
:10035400803E4204C13F4180DDB7000093050002A6
:1003640073A0458082457390153492402242B24274
:100374004243D2436244F244025592552256B25645
:100384004257D2576258F25806499649264AB64A05
:10039400464BD64B664CF64C065D965D265EB65EC5
:1003A400465FD65F0961730020304111B7170040E2
:1003B400985F3AC6945F3247E39CE6FE32454101BA
:1003C4008280B7170040130700032388E70285479C
:1003D40023ACF18073002030BD6601471386E181B0
:1003E400938606A685458347060093F7F70F91C3C6
:1003F4008280050701000100E3F7E6FE238FB18048
:10040400DDB7BD6601471386C181938606A685457F
:100414008347060093F7F70F91C382800507010015
:100424000100E3F7E6FE238EB180DDB7411106C675
:10043400EF006073F5BF2303048015472303E480B2
:1004440001002302A480828083076480E3CE07FE38
:1004540023030480828083076480E3CE07FE034580
:100464004480828083076480E3CE07FE2302A48055
:100474008280411126C44AC24EC006C61377F50BCA
:10048400AD47AA892E8995446306F7001945653757
:10049400653F8D444E854537FD59FD1463983401FD
:1004A400B240A24412498249410182801355090194
:1004B4001375F50F453F2209CDB7011126CC06CEA1
:1004C400B704080051371545BD37713769372AC657
:1004D400A53F32459377150089EB13651500137515
:1004E400F50FF240E24405618280FD14E9FC014508
:1004F400CDBF397126DC4ADA4ED852D656D45AD2F8
:100504005ED006DE62CE66CCB7E700E07D5783AAF4
:10051400070022C603AA470023A0E71823A2E7186E
:10052400B7170040130770052380E704130780FA08
:100534002380E70483C74704930B75FFB684E2075F
:1005440093FBFB0F8546AA892E8B32893724004002
:10055400E187015763FA76016308D50089461307DA
:1005640000026313D5000157D98F93F7F70FB71C17
:1005740000402382FC0411472303E4801305F00F99
:100584005D3D094CD135636D7C11B7050700DA95E3
:1005940037870700795563F2E504B3879500636EE6
:1005A400F702370B0800A94733EB65016399F90695
:1005B40089E48144513D26850DA0DA850945553DE0
:1005C40005090345F9FFFD14050B693D81C49377C3
:1005D400FB0FFDF7DD3569FD7D55B71700401307A7
:1005E40070052380E704130780FA2380E70403C718
:1005F4004704418B2382E704F250B7E700E023A0CD
:10060400571123A24711E25432445259C259325A63
:10061400A25A125B825B724CE24C21618280A54734
:100624006395F90685691309F00FB3069900B3744D
:100634002B01B6941349F9FFB3749900856B337990
:100644006901416B9387F9FFB3F7270199E363FCD1
:10065400340193D94900C147E3E637FF99BF0569DF
:10066400C1697D19D9B71305800D63886901130524
:1006740000026384790113051008CA85DD3B353D0A
:1006840021DD4E99B3843441D9B7DA852D45D5336C
:10069400CA94E30099F205097D3BA30FA9FED5BFD7
:1006A4009387F9FF93F7F70F6361FC0C83C71C046E
:1006B40013073008631FF70437070800636BEB0464
:1006C400B3079B00B706100063F5D704334BEB0068
:1006D40089476393F9068980D549E38C04ECDA856C
:1006E4000945413B11090327C9FF91472320E480B1
:1006F40003076480E34E07FE23033481FD17EDFBFB
:10070400FD14110B81C49377FB0FE9FF7D3371F561
:10071400E1B5B717004003C75704B70708001377BC
:10072400070219E3B78707007955E378FBEA330733
:100734009B00E3FFE7F855B58547E382F9F2DA85D4
:100744002D45053B9389F4FFE38504E6293393F7AC
:10075400390091EB8326048003270900930749009D
:10076400E39AE6E43E89CE84F1BFB5476396F90087
:100774001305900BC93135BDB1471305B00AE38B9E
:10078400F9FE99476391F904B7050800B365BB0006
:100794002D45C53181448D4BA1497539639674014A
:1007A400832704802320F9008504E39834FF8327FA
:1007B400048013172B01635507002312F900D5BBDE
:1007C4002322F900FDB39D476399F902814513057E
:1007D400B0044531BD442320090023220900FD59FA
:1007E4009D3993F77400CA9703C70700FD14398D28
:1007F4002380A700E39634FF6DBBA1476392F904FD
:100804006D398144630D0B008D479304C003630865
:10081400FB009304000563048B01930440041375E7
:10082400C507E30895D819453931393905452131CA
:1008340026850D3909453D314931E31C05D669BB8F
:1008440091476399F90013056006F536F53E1305E3
:1008540090090DB7E38F09D4F154A9BB197106C2ED
:1008640012C416C61AC81ECA22CC26CE2AD02ED22C
:1008740032D436D63AD83EDA42DC46DECAC0CEC2DC
:10088400D2C4D6C6DAC8DECAE2CCE6CEEAD0EED20C
:10089400F2D4F6D6FAD8FEDA938501818841E700CE
:1008A400050092402242B2424243D2436244F2449F
:1008B400025592552256B2564257D2576258F258B0
:1008C40006499649264AB64A464BD64B664CF64CE0
:1008D400065D965D265EB65E465FD65F096173006F
:1008E4002030B7E700E09843B706200023A0D718CC
:1008F400758F0F10000001C599C1814711E6B7E754
:1009040000E023A0E7108280B386F50003C8060048
:10091400B306F500850723800601E317F6FEC5B785
:1009240037E700E01C43B70620002320D718F58FD3
:100934000F10000001C53307C50011E637E700E0DA
:100944002320F71082800505A30FB5FEE31DE5FE05
:10095400F5B737E700E01C43B70620002320D7187B
:10096400F58F0F10000001C599C1014711EA37E75F
:1009740000E02320F710054582800507E309E6FE21
:100984003308E500B386E5000348080083C6060083
:10099400E305D8FE37E700E02320F7100145828005
:1009A40037E700E01C43B70620002320D718F58F53
:1009B4000F10000001C53307C50019E637E700E052
:1009C4002320F7100145828005058346F5FFE39750
:1009D400B6FEE31BE5FE37E700E02320F7100545EC
:1009E40082807971972700009387075B22D4804324
:1009F40006D626D24AD04ECE52CC56CA5AC85EC665
:100A040079C0B7C4C901014B97290000938949589B
:100A14009384F437172A0000130A4A58972A0000CF
:100A2400938A4A52172900001309095C835724004A
:100A340095E35C44631D0B0017270000232EF75435
:100A4400832BC4002285EF00D0345E84B9A823260A
:100A5400FB00FDB783A7090082971C443307F540C8
:100A64006376F500032749001D8F2A9763E2E408A3
:100A74009727000023A0074E835524000345040054
:100A8400972000E0E780804C5C405844A1CB0C44A4
:100A940003264900AE97BE8663E4B70063E4C7004B
:100AA400B386C74014C4228B3A8449F097270000C8
:100AB400938747499C4B09476372F706F917172731
:100AC40000002329F748B250225492540259F249A3
:100AD400624AD24A424BB24B4561828063170B0093
:100AE4009727000023AAE74AA1BF2326EB0089BF6A
:100AF40003274A0209CF63EFA7003385A74083A7E2
:100B04000A016376F5009727000023A5A744228BEA
:100B1400404461BF03274900BA97C5B7972700002F
:100B240023AA07424DB7972700009387674B9C433E
:100B340085C3411106C682979727000083C72745BE
:100B440089E79727000023AD0748B240410182801E
:100B54009727000083C7A74391E79727000023A1A5
:100B6400074882808280411122C4172400001304A4
:100B740024401C4006C626C24AC091C782979727C4
:100B8400000023A7073E9727000083C7F747858BFC
:100B9400172900001309094789CF834779001947AA
:100BA4006312F71097270000A380074665295C4469
:100BB40082971C4491C38297972400009384843DB8
:100BC4009840172600000346F6379727000083C78E
:100BD400673793961700BA9683D60600E5C297271F
:100BE400000083C7273663E5C70E97270000238BD1
:100BF40007341C40639E07149727000093874739E6
:100C04009C4363870714972700009387E73DDC43E1
:100C1400172700002320F734E9339727000083C700
:100C2400173F639707129727000083C7373E91CF7A
:100C34008347790093F7F70F89EB97270000A38781
:100C4400073C973000E0E780A04697270000938791
:100C5400E734DC53638E070E972700009387872EB3
:100C64009C4BFDC78347790015476363F70E9727AD
:100C7400000083C7A73E918BE1EF9727000083C74D
:100C84000731F9E790409726000083C6B62B63C767
:100C9400D70C2244B240924402494101172300E098
:100CA4006700E351834779001D47E314F7F0972762
:100CB4000000A38B07347D261C48DDBD850793F710
:100CC400F70F97260000238FF626E3E0C7F001BF55
:100CD40086073E97835507002310070097270000D7
:100CE4002396072A97270000938747289C431725B4
:100CF40000000345252513172500BA979C438297C6
:100D04009727000083D787281727000003478723E6
:100D140093C7F7FF7D8D9317170098403E9783572D
:100D240007005D8D2310A7009727000083C7872144
:100D340091C78507172700002306F720172700000F
:100D4400034747209727000083C7D71FE37FF7E8AF
:100D5400B240224492440249410182801397170011
:100D64003297035707006DF7850715B737C700405B
:100D74008326C720B707FCFFFD17F58F2326F7202E
:100D840001000100972700009387C71BC84F8327E2
:100D940087262326D7206A0593C7F7FF99835D8D9D
:100DA40082800000EFF03FD87300000000000000D4
:100DB400972200009382A21D038302002380020075
:100DC400630F0300F32510342EC0970500009385AC
:100DD400A5FD73901534EF00A04B7300203086DC22
:100DE400EF00004BE6508280000017270000130735
:100DF40027211443411122C49C5E4AC006C699832C
:100E040026C2858B3A841729000013096942D1CB85
:100E1400930700069CDE172700000347071F93076C
:100E24000008972400009384E41D631BF7008327C4
:100E340009009C4393F70704172700002307F71CB6
:100E440083C7040093F707049DC397270000938783
:100E540027149C4382979727000023A3A71C83C7CA
:100E6400040093F7F70B17270000230DF71883C727
:100E7400440093F7070495E7854717270000A30567
:100E8400F718972700009387671A9C4337070200D7
:100E940098C7130700FC972600002387E616984896
:100EA400F8D318401C5F9183858B8DC31C5F93E737
:100EB40007011CDF97270000938747179C4323A251
:100EC40007068547172700002300F7148327090026
:100ED400D8430583058B19C7D843759BD8C3D8431A
:100EE400799BD8C3B2402244924402494101828092
:100EF400ED3D730020309317D50063D30702972785
:100F040000009387A7129C437D57B8D7972700000A
:100F140093874703DC4F8507172700002322F70434
:100F2400937785008DC39727000083C7C70D93E788
:100F34001700172700002308F70C930700F817275A
:100F440000002303F70C9377150099CB9727000033
:100F540083C7570B93E7170017270000A304F70A6A
:100F64009377650095CB9377450017270000130707
:100F74006709CDCB8347070093E7170017270000C5
:100F84002302F708972700009387870798435C5745
:100F9400F19B93E717005CD79317F50063D407021E
:100FA400172700000347871D418B9727000093876D
:100FB400671551C383C7870793E707021727000004
:100FC400230EF71A9317E50063D70702972700004B
:100FD40083C78703E207E18763D70700854717279D
:100FE40000002303F70297270000938727049C43FC
:100FF4003707020098C79317C50063D40702172761
:1010040000000347B717058B972700009387870FC6
:1010140029C383C7970793E7270017270000A30F67
:10102400F71482808347370093E7170017270000DF
:10103400A30BF7FC81BF03C7870789463D8B630871
:10104400D70083C787070D47BD8BE39DE7F691471C
:10105400B5B703C79707118B69D783C7970793E77A
:10106400870065BF97270000938747FC9443972721
:101074000000938727F903C70700058B11CB972737
:101084000000238307F897270000A38F07F68280C8
:1010940003C71700058B65F7F85271FF83C7570024
:1010A400DDB7172700001307A7F5032807008327D8
:1010B40088039583858BADEF11C683270803BD8311
:1010C4002300F6009DC61C43985B460793576701AF
:1010D4006356070093E707C0C207C183039706005E
:1010E400C207C18709C7BA970947B3C7E702239064
:1010F400F6008DCD8345150095C99727000083C759
:10110400C7F093F7070413879500894585C33A957B
:10111400834705000547994593F6F7066398E6006B
:10112400E207E187814563D30700B9452E858280B4
:101134008545EDBF411126C206C622C4972400008E
:101144009384C4EE3DED9440AE87F8527DFF37F4AE
:1011540000E03E8597270000238707EA832704D110
:10116400B285ED9B2328F4D0832704D193E787022B
:101174002328F4D073005010973000E0E78000E09B
:10118400972700009387C7E79C43B70680009843DE
:10119400558F98C3D857719BD8D797270000A3853C
:1011A40007E697270000A38F07E49C40094798C3EC
:1011B400832704D193E787002328F4D073005010C9
:1011C4000DA08D476315F50497270000938747E327
:1011D4009C43B70680009843558F98C3D857719B9A
:1011E400D8D79440172700001307C7E18347270087
:1011F400858B89EB83473700858BC1CB972700000C
:10120400238407E0B240224492444101828085470E
:10121400E319F5FCB7F700E003A707D16D9B23A8FA
:10122400E7D003A707D11367870223A8E7D0730089
:10123400501098408177FD175447F58F5CC70F1005
:1012440000009840B70702001CC7930700F8172650
:101254000000230BF6DA97270000938767DA9C4394
:101264009C439D83858B639FA700930760197CD360
:1012740054C737F700E0832707D193E78700232873
:10128400F7D02DBF9307E01BDDB7FC52A5F39DBF3C
:1012940097270000938787D99C438847D847798D3F
:1012A40009C988C79387418203A307006303030026
:1012B4000283828017270000130787D78346B7016C
:1012C4009727000083C797D94C4BB697FD8B33D72C
:1012D400F50097260000A38DF6D497260000A38F6F
:1012E400F6D6058B15EF17270000034777D7B3F71A
:1012F400E702814601471305000233D6E500058A5B
:101304001378F70F19CA6397D70097270000A381B2
:1013140007D38280850693F6F60F0507E31FA7FC23
:1013240082809727000083C737CEC9EB9727000038
:10133400938707C69C43411122C426C206C68297DE
:10134400972700009387C7D08047BE846303A40611
:1013540063688504018D135455009727000083C7E3
:10136400C7CE6368F404B93798449727000083C74D
:10137400C7CD9396570036971D8C9726000023AD52
:10138400E6CCE372F4FE2244B240924417250000F6
:10139400034515CA81454101173300E06700C33B8B
:1013A40097270000938747C4DC4333848740229502
:1013B4005DB7B240224492444101828082809727E3
:1013C40000009387E7BC9C43011122CC4AC806CE97
:1013D40026CA4EC6829797270000938767C780471F
:1013E40001496301A406BE8463668506018D135416
:1013F40055009727000083C747C51379F50163603B
:10140400F40497290000938929BE6D3503A884004C
:101414009726000083C666C3139756004297158C1F
:101424003A8683A54900636407016364B700330601
:10143400B7409727000023A1C7C2E378D4FC160461
:1014440033692401F24062444A85D2444249B24994
:101454000561828097270000938707B9DC433384B2
:101464008740229569B797270000938727BC984344
:101474008967938707F47CD397270000938747C035
:101484009C4383A60709139656006358060083A657
:10149400070913966600634406007453FDF28280C4
:1014A4004111B7E700E022C480433707200006C695
:1014B400798C23A0E7180F10000011C199E5B7E754
:1014C40000E023A0871001457DA893073500C207DB
:1014D400C183F19BC207C183130740036369F70209
:1014E40017270000130787C10843172700001307B5
:1014F40067C014436392A60217270000130707AAC4
:10150400185B55DFC207DD8D054502974DBF1727D0
:101514000000130767BEC9BF035765002DEB0357CF
:1015240045006366F706B306F7402146637CD6029E
:1015340003280500938687001D8FAA966117172636
:101544000000035686A02392E60023A006012393FD
:10155400060014C12312F500130786FF9726000026
:101564002395E69E2313B5009725000083D5E59DBA
:10157400B387F540172700002319F79CB7E700E06D
:1015840023A087102105B2402244410182800841F2
:1015940095B7B7E700E08C433707200023A0E7188E
:1015A400F98D0F10000001E523A0B7108280972762
:1015B40000009387A7B403A307009727000093872D
:1015C40067B383A8070081469A8763F2170D03A8BF
:1015D40007006361F50C636FA80A138787006368CB
:1015E400E50A03D66700216705076317E60003C70A
:1015F400A18205072385E182172500001305859440
:1016040003D6470003576500239307003297420728
:101614004183172E0000231AEE92638C670217236E
:101624000000130363AD032303006304F30203D335
:1016340066006310030283D7460023A00601210736
:101644003E9621062392C60097270000239FE78E2B
:10165400B6879843630D1703972600009386C6A99F
:1016640094426306D7028356670095E283D6470007
:10167400035647001843A106B2962392D70098C395
:1016840083576500A107172700002310F78CB7E7DD
:0C16940000E019BFBE86C2870DBF000039
:1016A0009711002093818186175100201301811525
:1016B0001305400097F5FF1F9385C594170600207A
:1016C000130606FE63FAC5008322050023A0550019
:1016D00011059105E3EAC5FE178500001305850491
:1016E000970500209385C5FB1386018163FAC50029
:1016F0008322050023A0550011059105E3EAC5FEEC
:101700001385018197250020938505B36377B50084
:10171000232005001105E36DB5FEFD42739002BC68
:101720008D4273904280930280087390023097F24A
:10173000FF1F9382228D93E23200739052309712F2
:1017400000009382425373901234730020303D4363
:101750002A876373C3029377F700BDEFADE59376F5
:1017600006FF3D8ABA960CC34CC30CC74CC7410751
:10177000E36BD7FE11E28280B306C3408A0697026C
:10178000000096966780A6002307B700A306B7005F
:101790002306B700A305B7002305B700A304B700CD
:1017A0002304B700A303B7002303B700A302B700C5
:1017B0002302B700A301B7002301B700A300B700BD
:1017C0002300B700828093F5F50F93968500D58DA1
:1017D00093960501D58D61B7939627009702000077
:1017E00096968682E78086FA9680C1171D8F3E9670
:1017F000E374C3F8A5B7B717004003C7770513779D
:10180000E70FA38BE704130700F8A38DE7043D4718
:10181000238CE70413075003A38CE70403C7A70531
:101820001377D70F238DE7048280B717004003C7D3
:10183000E7020D8941111377C70F498F930680087E
:10184000F3B6068093F6860836C6010001009306BB
:1018500070052380D704930680FA2380D704010003
:1018600001002387E70223800704B247F3A707801C
:10187000010001004101828041112A83014E930E33
:10188000407E130F0019930F400663E56E12930814
:10189000001913034006B3781503854E0D4FA14F71
:1018A000337365020D891335150063EFBE121308FB
:1018B000F6FF794672984208135808013307C702A9
:1018C00013D61700BE0732976146B3F6C602130659
:1018D0008070B386C6023697A166F58F42075D8F8A
:1018E000B716004083C7F60293F70708A303F10079
:1018F0000346710083C7F60293F70708E394C7FE17
:1019000083477100B716004093F7F70F63880712FB
:1019100093078008F3B7078093F787083EC4010058
:101920000100B7170040930670052380D704930683
:1019300080FA2380D7040100010023AA070383C68D
:10194000170393E60608A388D70223800704A2475B
:10195000F3A70780010001001166B71700407D164C
:10196000D45BC85F93854703A98EF18EF5FA930681
:101970008008F3B6068093F6860836C6010001009B
:10198000930670052380D704930680FA2380D7043A
:101990000100010098C103C7170313670704A38858
:1019A000E70223800704B247F3A707800100010084
:1019B000410182807D133368E3039308E016630ED0
:1019C00008003368F3039308D0166308080093787F
:1019D000330093B818009388D81633081E01131EDD
:1019E0000801135E0E0155B56393E5030548638650
:1019F00008000148630303002A8871087298FD15E6
:101A0000131E0801C205135E0E01C18179BD13F8D2
:101A1000150063F4BF007908D5B713381800E5BF87
:101A200083C7F60293F70708A303F100034671008A
:101A300083C7F60293F70708E394C7FE8347710054
:101A400093F7F70FF1DFE9B5317126DB66CB06DFDF
:101A500022DD4AD94ED752D556D35AD15ECF62CD68
:101A60006AC96EC7AA8C02D8EF00F012AA84930745
:101A70008008F3B7078093F787083EDA010001007A
:101A8000B7170040130770052380E704130780FA97
:101A90002380E7040100010003C7F7021377770FE3
:101AA000A387E70203C7F70213678700A387E7024C
:101AB00023800704D257F3A70780010001000545E2
:101AC000AD339305803EB3C6B4029307007D216712
:101AD00013065002BD69930BA004116B014A814AA1
:101AE00013048008130970057D1BB387F602B3C782
:101AF000E702130780C133C7E4023EC0FD873ECC36
:101B0000938709A68549B399990193D93940330739
:101B1000C7023347F7023386C6023AC27D873AC40A
:101B2000B38B76033347F602B3CBFB023AC67D870D
:101B30003AC813D7FB413ACE37470F0013070724A3
:101B4000B3C4E4020567130707FA33179701B38498
:101B5000E40213070010B3C4E40213070008B384BF
:101B6000B40233C7E402B7140040938D0404B38970
:101B7000D9023ACA7D873AD013076055B389E90282
:101B8000B3C9F90293D7F9413ED2F336048093F6F4
:101B9000860836DC01000100930770052380FD00F4
:101BA000930680FA2380DD000100010083C634051E
:101BB00093F6860FA389D40483C6340593E61600F2
:101BC000A389D40423800D00E256F3A60680010009
:101BD0000100130C80FA116DF336048093F6860829
:101BE00036DE01000100930770052380FD0023808D
:101BF0008D010100010083C63405216693E60602CB
:101C0000A389D40483D60405B3E6A6012398D4049B
:101C100083D60405D18E2398D40423800D00F25678
:101C2000F3A606800100010083C6340593F6060280
:101C30006389061803C63405218A6DDE0818612FF2
:101C40007336048013768608B2C201000100238037
:101C50002D0123808D0101000100B717004003C64C
:101C600037051376F60DA389C70403C63705136637
:101C70000602A389C70483D604052166B3E6A6013C
:101C80002398D40483D60405D18E2398D4042380CA
:101C90000D009646F3A606800100010083C63405B8
:101CA00093F606026386061483C63405A18AEDFE08
:101CB00097E0FF1FE780203EAA8636D497E0FF1FFB
:101CC000E780603DA256E30AD5FE83D6040542555F
:101CD000B3E6A6012398D404292F83C63405A18A2C
:101CE000EDDE03D6040583C6240582473376CB0098
:101CF000B306DB0293D5F641B296B388F640E247CD
:101D000033B8C6002E983308F840A247B3B6160180
:101D10003308D84063C70701631DF800924763FA90
:101D20001701C247634DF80E63950701B24763E898
:101D3000F80E894663E7560FF2469315180013D341
:101D4000F8015E8613951800B365B30042D646D4F9
:101D5000EF50B0443258850A93FAFA0F63470001F6
:101D600063120838A258638F083613081500B3367B
:101D7000A800B69513D6F5013298B336C800AE96D2
:101D800013581800FE06B3E6060173360480137676
:101D90008608B2C60100010023802D0123808D0139
:101DA0000100010003D6C402B296C206C182239686
:101DB000D40223800D00B646F3A606800100010080
:101DC00021BDF336048093F68608B6C001000100F9
:101DD00023802D0123808D010100010083C634057D
:101DE00093E60602A389D40423800D0086460DBD28
:101DF000F336048093F68608B6C401000100238000
:101E00002D0123808D010100010083C6340593E676
:101E10000602A389D40423800D00A646A5BDE38D48
:101E20000AF0F336048093F68608B6C80100010074
:101E3000930680FA23802D012380DD00010001003C
:101E400083C6340593F5FC0F93F6860FA389D4045B
:101E500083C63405CD8EA389D40423800D00C646E5
:101E6000F3A6068001000100130580FA03C63405BD
:101E7000938634051D8A631496297336048013767D
:101E80008608B2CC01000100130680FA23802D01E0
:101E90002380CD000100010003C606001376F60D75
:101EA0002380C60003C60600136606022380C60010
:101EB00083D604051166D18E2398D40483D60405F5
:101EC0002166D18E2398D40423800D00E646F3A624
:101ED000068001000100130680FA83C6340593F6DC
:101EE00006026388062483C63405138C3405A18A50
:101EF000FDDA0818CD21F336048093F68608B6D0B3
:101F000001000100930680FA23802D012380DD006B
:101F10000100010083460C00116693F6F60D2300C4
:101F2000DC0083460C0093E606022300DC0083D627
:101F30000405D18E2398D40483D604052166D18E5E
:101F40002398D40423800D008656F3A60680010052
:101F50000100130680FA83C6340593F606026385F2
:101F6000062083C63405A18AEDFE97E0FF1FE780B7
:101F700080122A8C97E0FF1FE780E011E30C85FFB9
:101F800083D6040511664255D18E2398D404952139
:101F900083C6340513863405A18AFDDAF33604803E
:101FA00093F68608B6D401000100930680FA2380D8
:101FB0002D012380DD00010001008346060093F619
:101FC000F60D2300D60023800D00A656F3A606804A
:101FD0000100010083D6040503C62405D247B37669
:101FE000DB003306CB021305800C9355F641369681
:101FF000330DF6408257333CD6002E9C3336A60173
:10200000330CFC40330CCC403308850392564E868B
:10201000B335A5033305A503C295EF5010186346E9
:102020008001631E0C16630C0D1613061500333564
:10203000A6002E959356F5013696B335D600AA958F
:102040009396F50105828585D18E6346B000639D28
:10205000051A638B061A03D6C40215823305D6000F
:102060003336C500B2956348B0006391052413066A
:10207000F00F637DA622894663F346159307800817
:10208000F3B7078093F78708BED601000100371722
:102090000040930770052300F704930780FA23009C
:1020A000F704010001008356C70289678117D58FA5
:1020B000C207C1832316F70223000704B657F3A70C
:1020C000078001000100FA506A54DA544A59BA599B
:1020D0002A5A9A5A0A5BFA4B6A4CDA4C4A4DBA4D64
:1020E000296182801308F5FF3335A800FD152E9570
:1020F0001356F5013298B336C800AA9651B1F3369B
:10210000048093F68608B6CA0100010023802D01E1
:102110002380AD000100010083C63405CD8EA38964
:10212000D40423800D00D646F3A6068001000100EA
:1021300035BBF336048093F68608B6CE0100010065
:1021400023802D012380CD000100010083C63405CA
:1021500093E60602A389D40423800D00F646F3A675
:1021600006800100010095BBF336048093F68608D3
:10217000B6D20100010023802D012380CD00010093
:10218000010083C6340593E60602A389D4042380A4
:102190000D009656F3A60680010001006DBB930664
:1021A000F5FF33B5A600FD152E959355F501AE96B6
:1021B000B3B5B600AA951396F501858269B5F336D5
:1021C000048093F68608B6D801000100930680FAD1
:1021D00023802D012380DD000100010083D6C4028D
:1021E0000566011693F6F60FD18EC206C1822396BC
:1021F000D40223800D00C656F3A60680010001001C
:10220000050A137AFA0F51B233E6B60045C203D677
:10221000C4023305D0403338A000B305B040B385C5
:10222000054115826345B000D1E16371A608894676
:1022300063F0460593078008F3B7078093F7870894
:10224000BEDA01000100B7170040130770052380B4
:10225000E704130780FA2380E7040100010003D795
:10226000C7027D8B2396E70223800704D65781BDE2
:10227000F336048093F68608B6DC0100010093066D
:1022800080FA23802D012380DD000100010083D628
:10229000C4020566011693F6F60FD18EC206C182FE
:1022A0002396D40223800D00E656B9B79307800821
:1022B000F3B7078093F78708BEDE010001003717E8
:1022C0000040930770052300F704930780FA23006A
:1022D000F704010001000356C70293975600B29716
:1022E000C207C1832316F70223000704F657C1BBB8
:1022F000914763EEB70217770000130727148A058A
:10230000BA959C41BA978287B717004003A7470B3D
:102310001345F5FF698F23AAE70A03A7070B698F07
:1023200023A8E70A03A7070A798D23A0A70A8280BA
:10233000B717004083A6470B1347F5FFF98E23AA72
:10234000D70A83A6070B558D23A8A70A83A6070AD9
:10235000758F23A0E70A8280B717004003A7470BB9
:10236000498F23AAE70A03A7070B1345F5FF45BFCB
:10237000B717004083A6470B1347F5FF758F23AAB5
:10238000E70A03A7070A598D4DB7B717004003A7FF
:10239000470B498FEDB7B717004088474205418189
:1023A0009377050491EB9377F5013755E801130511
:1023B00005803345F50282809377050C13070004EE
:1023C0006397E7009377F50137459C1CCDB72165EE
:1023D000130505D0828037E700E01C435443A183F6
:1023E000E206D58F1CC1FD572320F7182322F718CA
:1023F000828013178500B7E700E023A0E710618112
:1024000023A2A7108280B7F700E08847CC478280DC
:10241000814737370040A14663C4C70032858280B8
:102420000345B740E38EA6FE3385F500034505005E
:1024300085072304A740CDB797F7FF1F9387072D84
:102440009C4317170020130727DF3E95636EE500B6
:10245000174700201307071B6368A70017F7FF1F24
:102460002326A72A3E858280FD57EDBF411122C455
:1024700006C62A840D372947B307E502B2408D838B
:10248000B3D7870222449507B3D7E7023737004016
:10249000C207C1832316F740410182807165411153
:1024A0001305052006C6D937B7370040130770F863
:1024B0002381E7400D47A381E74013070004A38071
:1024C000E74005472387E740B2404101828011453C
:1024D0006FF08FD7411193962500AA852D4506C62A
:1024E00097E0FF1FE7802001B24001454101828053
:1024F000011122CC06CE3714004026CA4AC84EC667
:1025000052C483447405034AB405834984050349CE
:102510009405EFF04FAE8347A40593F4F40F137ABC
:10252000FA0F93E71700230DF40493F9F90F1379C9
:10253000F90FB717004003C7A705058B6DFF03D53B
:10254000C705A38D4705238C3705A38C2705A38BCF
:102550009704F2406244D2444249B249224A05619A
:10256000828041119397050122C406C6C1872E843B
:1025700063DD0700EF00607C19C1EF00E0762165A4
:10258000218DB24022444101828093F7150013C58A
:102590001500E5FB9397250163D00702EF10307F0C
:1025A0003D3737F60200130606E0896503C5418111
:1025B000EF0010230965E9B7939715010145E3D2B0
:1025C00007FC17750000130525EDEF505048130662
:1025D0000064916503C54181EF00902011654DB7FE
:1025E0002D71232A9110FD74E98C232C811023284E
:1025F0002111232631112A84AE89328993060010D5
:102600000A86A6852D45232E111097E0FF1FE7802F
:1026100080EE1315440151810A0513962900CA85DD
:102620000A9597E0FF1FE780002CA6858566014686
:10263000254597E0FF1FE78000EC0A86A6859306F4
:102640000010294597E0FF1FE780E0EA8320C111D1
:102650000324811183244111032901118329C1100D
:1026600015618280B7F7070003C70701411106C64D
:1026700022C426C24AC0A547631AF7009537B24064
:10268000224492440249014541018280139425006D
:10269000AA843289A286AA850146254597E0FF1FB4
:1026A000E78060E5A2864A86A685294597E0FF1F58
:1026B000E78060E4E9B71D7149469775000093858E
:1026C00025D917750000130525EA86CE97E0FF1F70
:1026D000E780602801E9177500001305A5D8EF50C1
:1026E000103701A0B7F600E0795798CAFD57DCCA49
:1026F0000567B7E700E023A0E7101306F00290C2D9
:1027000023A0E7180100010017E7FF1F1307876ADE
:1027100023A8E1804157A38AE740130600048145BE
:10272000080897E0FF1FE780E01F97F7FF1F9387D8
:1027300027013EC8896793870780231AF1009D67A8
:102740003ECCB7070105938707103ECEED47231017
:10275000F10285472301F102970700009387C7D74D
:10276000BEC297070000938727F0BEC48567938792
:1027700057D12312F10297070000938707C93ED86B
:10278000B7F50700970700009387C7D63EDC814660
:10279000970700009387E7D33000E10519453EDE37
:1027A00097E0FF1FE78020D5180881479946300041
:1027B0003E960346060085070507A30BC700E3986E
:1027C000D7FEC24791C70357410185676373F7007E
:1027D00001A00808EF001047AA8501C9177500007D
:1027E000130585C9EF50701201A0F6402561828063
:1027F000411117050000130505D706C622C4EF00D6
:10280000B040138441812300A4001928034504002B
:102810002244B24013060032896541016F00407CBA
:10282000797106D613078008F337078093F7870876
:102830003EC201000100B7170040930570052380D8
:10284000B704130680FA2380C7040100010083C681
:10285000F70293F6A60FA387D702238007049246B8
:10286000F3A60680010001007337078013778708FD
:102870003AC4010001002380B7042380C70401008B
:10288000010003C7F70213672700A387E70223802D
:102890000704A247F3A70780010001000545EFE008
:1028A000DFF83531814701478146054685451305E7
:1028B000407EEFE07FFC68005146814597E0FF1FB6
:1028C000E7804006B707C0A83EC8B787E8033ECAFE
:1028D000680097E7FF1F938787AD3EC6EF00106043
:1028E000B2504561828041119397050122C406C60A
:1028F000C1872E8463DB0700892111C1F52621657C
:10290000218DB24022444101828093F7150091CB82
:102910001306803E894503C5D181D925134514008E
:10292000CDB793F72500A9C7EF30C03F17F5FF1FBC
:10293000130505D7834705009306F00F1306F00F24
:10294000FD17A94517F7FF1F230CF7D4238F01802C
:10295000EF20F00709E597E0FF1FE78020A81306A6
:10296000803E894503C5D181A52D1345240051BF63
:1029700093F7450095CBEF30E03A17F5FF1F1305AD
:1029800025D2834705009306F00F1306F00F850745
:10299000A94517F7FF1F2305F7D0238E0180EF20ED
:1029A000B02813454400B1BF93F785008DCB177550
:1029B0000000130565B8EF5090094145EF20E0474E
:1029C00083C7D18109C913064006A1453E85092D5B
:1029D000134584003DB71306803E8945C5BF93F774
:1029E00005010145E38F07F017750000130585B653
:1029F000EF50F0051305800CEF30E06B11C91306A2
:102A00000019C14503C5D181E12B13450401D5BD92
:102A10009306F00F1306F00FA94517F5FF1F1305D6
:102A200025C8238E0180EF203020C5B7C547630934
:102A3000F50A411106C622C426C24AC063E1A706B0
:102A40008D472E84B2846308F51091476304F5180E
:102A50008947631EF5048547238FF180CDE1830507
:102A6000060017750000130565A317790000130908
:102A7000A9A4EF50806983C51400177500001305E1
:102A800025A3EF50806883C71400636FF4042244C9
:102A9000B24092440249294541016F50006BD14731
:102AA000630AF51263EBA700C9476300F508B2405B
:102AB0002244924402494101828093072002630A22
:102AC000F50693074002E314F5FE177500001305A1
:102AD00065A3EF50C0778547238EF180C145A5A03F
:102AE0008547238FF1808280B387840083C52700C8
:102AF0004A850504EF5060611374F40F69B793F7CA
:102B0000150099C7177500001305459BEF502074F9
:102B1000098851DC2244B2409244024917750000F2
:102B20001305859A41016F5080728547238FF1808C
:102B3000BDBF8547177500001305459A238FF180A7
:102B4000EF50E070A1452244B2409244024903C5CF
:102B5000D1814101D5AEA9ED97E0FF1FE780A08AA2
:102B60008385040017750000130585981779000008
:102B700013098994EF50605983C51400177500003C
:102B800013050593EF50605883C714006367F40082
:102B90002945EF50805B91457DB7B387840083C59D
:102BA00027004A850504EF5040561374F40FE9BF1F
:102BB00093F7150099C71775000013052590EF507E
:102BC0000069098869D8177500001305E58FEF5073
:102BD0000068D1B78547238EF180D1BD7971130686
:102BE000000281450A8506D622D497E0FF1FE780C0
:102BF00060D317050000130545CFEF00F000B7477D
:102C00007671938797123EC4B757550093875755EF
:102C10003EC6FD573ECA85472300F10097070000D6
:102C2000938707E11384D1813EC8ED572300A400A8
:102C3000230EF1000A859147A30CF100EF20203FFD
:102C4000AA85177500001305258DEF50004C97D00D
:102C5000FF1FE780407B177500001305258DEF509F
:102C6000005F03450400A145C524B25022544561CC
:102C7000828041111305800406C697D0FF1FE780AC
:102C80000043371700408327870A8D45130500202E
:102C900093E707202324F70AEFF08FE5EFF01F807A
:102CA000177500001305C58BEF50605A17750000AB
:102CB0001305858BEF50A059FD3A1D3EEF30F024EF
:102CC000313F97D0FF1FE780A076184183A785FF8B
:102CD0006319B7001CC1FD5723AC05FE238FF5FE19
:102CE0008280232CF6FEC5BF411122C437E400E0E8
:102CF00026C204403707200006C6F98C2320E418BA
:102D00000F10000009E9232094101545B240224419
:102D10009244410182800347E5FF9307F00F630669
:102D2000F700232094101145D5B797F0FF1FE780D7
:102D30008086014523209410D1BF0111B7E700E040
:102D40004AC803A907004EC63707200006CE22CC8A
:102D500026CAAA893379E90023A0E7180F100000DA
:102D6000970700209387C71D80438144014611E4E3
:102D700091E8A1654E85C92E05A08347E4FF6399BC
:102D8000370385CCA685170500201305651B353F45
:102D90006DD0A1654E854D2AF2406244B7E700E050
:102DA00023A0271126854249D244B2490561828079
:102DB00091E02286032484FF5DBFA284E5BF9707CC
:102DC000002023AF07168280970700209387C71C37
:102DD0009C4399E33E85828003D727006316B700A2
:102DE00003C70700E308A7FEDC47E5B7A5C101114B
:102DF00006CE22CC26CA8147C14633D7F540058B83
:102E000029C312053E9531473305E5021707002017
:102E10001307C71C044305443314F4002EC64204B0
:102E20004180AA949C40C8408297B24523A00400E8
:102E300023A20400A18DF2406244D2442E85056194
:102E400082808507E39BD7FA0144EDB72E85828007
:102E5000C9C1797122D406D626D24AD04ECE0144B9
:102E60004147B3D78540858BA5C3120531472295CD
:102E70003305E502970700209387471603A907004B
:102E80008544B3948400C204C180BE892A99032773
:102E9000090011C7032549002EC60297B2453147E4
:102EA0003304E40283A709003E941C4489E72320ED
:102EB000090023220900B2502254A58D02599254D0
:102EC000F2492E85456182800504E31CE4F88144C3
:102ED000DDB72E8582804111B7E700E022C4804330
:102EE0003707200006C626C2798C23A0E7180F10EA
:102EF0000000970700209387670A9C5393844180C2
:102F000099C782979C403E9523A2A18039A097073C
:102F100000209387E7079C43EDF78840B7470300FD
:102F20009387D73F3305F502B7A72600938737EC81
:102F3000B24092443E9523A2A180B7E700E023A0CF
:102F40008710224441018280B7E700E09843B7062A
:102F5000200023A0D718758F0F10000097060020BF
:102F600083C656FE6373D502170600201306860239
:102F7000931615000842369583560500D58D23100B
:102F8000B50023A0E7100145828023A0E7100D457E
:102F90008280B7E700E09843B706200023A0D71847
:102FA000758F0F1000009706002083C6B6F9637571
:102FB000D502170600201306E6FD931615000842F9
:102FC00093C5F5FF369583560500F58D2310B500A2
:102FD00023A0E7100145828023A0E7100D458280E1
:102FE00079714AD037E900E026D283240900B70777
:102FF000200006D622D44ECE52CC56CA5AC85EC63F
:10300000FD8C2320F9180F1000009707002083C7BC
:1030100077F3637AF50097070020938767F783AB10
:10302000070063970B00B7E700E023A09710A9A063
:10303000170B0020130B4BFB832A4B00B74736FEC0
:10304000938707C82E8A9705002083D565FABE9A14
:10305000B387C5022A84B2898146B3B5C5021385F8
:103060000732B337F50013060064BE95EF40705089
:1030700063F0AA02232099100145B25022549254C1
:103080000259F249624AD24A424BB24B45618280B0
:10309000829B9705002083D5A5F5B38735032A8940
:1030A000130600648146B3B5350313850732B33781
:1030B000F500BE95EF40F04BB30725013E8903278D
:1030C0004B0063E4A70063E4E7003389E740D2855F
:1030D0002285DD3909C923242501B7E700E023A0B3
:1030E0009710054559BF936504F0C205C18141455C
:1030F00097E0FF1FE780003B19E9970700209387BF
:10310000E7E99C5B8DD3A2851145829729BF97077C
:103110000020938767E89C4385E79707002023AD4D
:10312000A7E6854723260500232425012311450111
:1031300023008500A300F5002322050079BFBA878C
:10314000D84775FFC8C7F1BF0111B7E700E04AC80B
:1031500003A9070022CC4EC63707200006CE26CA98
:10316000AA892E843379E90023A0E7180F10000004
:10317000A139AA8419C123110500A2854E85113DEC
:103180009707002083C707DC639B37019707002060
:1031900083D7C7DF5D8C97070020239987DEB7E7C9
:1031A00000E023A02711014591E01945F240624457
:1031B000D2444249B24905618280411122C426C2EB
:1031C00017040020130444E297040020938484D75A
:1031D0009448584097070020938787DB06C69C4396
:1031E0006393E60882975440B74736FE938707C833
:1031F000B6973387A7003A856364F7006364D70006
:103200003305D740970400209384C4DFDC5081CF7E
:10321000970700209387C7E694433707CDFF7D17B4
:103220009C46F98F9CC611E1484097070020938780
:10323000E7D6DC53829719E5DC508DC3EF10204CA4
:10324000EF009040DC5099CB97070020938747E32D
:103250009843B70633001C47D58F1CC7B2402244A1
:10326000924441018280829794485840B387A600D7
:103270003E8563E4D700E3E7E7F83385E74059B7D5
:10328000411106C69707002023AEA7D40295B2408D
:103290009707002023A4A7CC0145410182809947CC
:1032A00063E9B7008A0597070020938767CCBE952E
:1032B00088C182809707002023A4A7D211C5854723
:1032C000170700202305F7CC828041117146814504
:1032D000170500201305C5C906C69707002023ADB2
:1032E00007CA9707002023AF07CE9707002023A126
:1032F00007CA97070020238C07C89707002023A13F
:1033000007CE97D0FF1FE780E0611306800281455A
:1033100017050020130505C397D0FF1FE7808060C5
:10332000EF40E02F97070020938747C703C5C703E7
:1033300083C7D70385453E958D473305F50239058B
:103340001375F50F97070020238FA7BE9947330504
:10335000F5021305052497E0FF1FE780A014170767
:103360000020232DA7C651CD9947170600200346FC
:1033700086BD3306F60281451306062497D0FF1F4B
:10338000E780405A97070020938747C59C4393875F
:10339000072417070020232BF7BC1707002003473B
:1033A00087BA0A07BA97170700202325F7BE013C02
:1033B000212997070020938767BB94439707002034
:1033C00083C757B8139727003697170600001306D0
:1033D00066A810C3138717001377F70F0A073697ED
:1033E000170600001306C6A010C31387370089070D
:1033F00093F7F70F8A0797050020A385E5B4B697E2
:1034000090C3B240410182809707002083C797B3E1
:1034100017070020034727B363F3E70217070020CD
:103420001307C7B418439386170017060020A30B91
:10343000D6B093962700369708C33E8582809307BF
:10344000F00FE5BF1C416384071641777D8FB706F7
:1034500000208947631ED71403574500630A0714E9
:10346000411122C419462A849305F00F610506C64E
:1034700097D0FF1FE780005305478D476304E5128F
:103480001C4481CB58589947630E0710185C630B96
:10349000071013060004814517050020130505B029
:1034A00097D0FF1FE780004813060004A285170588
:1034B00000201305A5AE97D0FF1FE780C0429707F5
:1034C000002083D767AE17070020130727AD99E7C1
:1034D00093070010970600202398F6AC970700206A
:1034E00083C7A7AC91E7854797060020238FF6AAEC
:1034F0009707002083D787AB91E7ED479706002019
:103500002396F6AA9707002083C737AA91E7954725
:1035100097060020A38BF6A89707002083C727A94A
:1035200091E78547970600202383F6A89707002098
:1035300083C7F7A799E78347F70097060020A3887A
:10354000F6A69707002083C7B7A681CF93F637006A
:103550008983170600202301D6A897060020A38D93
:10356000F6A69707002083C7A7A491E7D54797063B
:103570000020238FF6A28347640199E79307C003D5
:10358000970600202387F6A21C5791C782979707BA
:103590000020239DA79AFD5717070020A30CF7B220
:1035A0002D338147B24022443E85410182808947C4
:1035B0003E85828001114EC6970900209389C9A2D9
:1035C00083A7090006CE22CC26CA4AC852C48297D5
:1035D00013090064B335250303DA89008146528656
:1035E00033052503EF40E078970700209387879500
:1035F000804FAA8401456306940233858440636E3C
:10360000940003A5490052868146B335A9023305CB
:10361000A902EF400076018D26959707002023AF81
:103620009792F2406244D2444249B249224A05612B
:103630008280011122CC06CE2A842EC6EFF0BF89EB
:10364000B245F240818D33A5A502229562441375DF
:10365000F50F05618280011122CC06CE2A842EC688
:10366000EFF07F87B245F240818D33A5A502229508
:10367000624442054181056182809707002093875B
:10368000E791985739CB411122C426C206C6BE84A1
:103690000297170700200357678B2A8415CBBA8738
:1036A0006373A700AA87C207C183BA866373E40065
:1036B000A286C206C182958F5147635BF700DC5436
:1036C00091C38297EF00B06C970700202390878802
:1036D000B2402244924441018280828097070020B8
:1036E00023AE0790970700209387478BDC57011183
:1036F00006CEAA8581C72AC68297B245C1C59C411C
:103700000545B5CFDC41A5CF83D78500ADCB83D7A9
:10371000A500B5C75146170500201305E58C97D0C5
:10372000FF1FE780401C970700202385078C970721
:1037300000209387678B9C4317070020232AF78478
:103740009707002083C7F7868DE7930780571705F3
:1037500000200355E5893305F50237460F001306AF
:10376000062481468145EF40C06097070020A38270
:10377000A78417050000130525E419360145F2401A
:103780000561828097F7FF1F23AC077C97D7FF1F47
:103790009387075E170700202328F7847D57970734
:1037A000002023A5E784B7873200938727A19706D7
:1037B000002023AFF68297070020238D0782B7C72A
:1037C000004023A4E726A5B7011122CC17F4FF1F60
:1037D0001304C47C084406CE26CA4AC801E905453C
:1037E000F2406244D2444249056182805C58E5DB84
:1037F000185C75D77000854582971844B247E3007E
:10380000F7FE9305E00417F5FF1F0355E57997E0F0
:10381000FF1FE78020C917F7FF1F2325A77461D179
:1038200017F6FF1F035646789305F00F97D0FF1F3A
:10383000E780400F814417F9FF1F1309A97097F71C
:10384000FF1F83C787760326090263C1F40232850E
:1038500097E0FF1FE78020D4014597F7FF1F23A3C0
:10386000077097F7FF1F23A107709DBF97F5FF1FF4
:1038700083D58573B38795020844185C89818504D4
:103880003E9508C2029765BF011156C297FAFF1F05
:10389000938ACA7083A78A0022CC4AC84EC606CE35
:1038A00026CA52C45AC0AA892E8432896386072246
:1038B00003A74A03630907141307F01F6367A714DC
:1038C00097F4FF1F9384046803AA040263170A0A8B
:1038D0009565938515E017F5FF1F0355E56C97E097
:1038E000FF1FE78020BC97F7FF1F23ADA7662A863E
:1038F000630B051083A74A0303A58A0097F5FF1FF2
:1039000083D5856A8981829783A78A0003AA0402E6
:1039100017F7FF1F232AF7648947639CF908C147FB
:103920006313F40E97F5FF1F83D50568938505FC97
:103930009147B3C5F5028A05D29503C725009307C1
:10394000A005631EF70A83D70500639A370B4A85E3
:103950002286910597D0FF1FE780E0F89C505285A2
:10396000639347150145F2406244D2444249B2494B
:10397000224A924A024B05618280D850E38EE7F8D2
:103980009565938525E017F5FF1F0355E56197E0E1
:10399000FF1FE78020B12A8A3DC52A8683A74A03F4
:1039A00003A58A0097F5FF1F83D50560898182975B
:1039B000A5B78D47639DF900C1476316F40497F5D9
:1039C000FF1F83D5655E938545FDF199B5B7914796
:1039D000639AF9006319340397F5FF1F83D5C55C1B
:1039E000A115E5B793070010639FF900A14763ECA9
:1039F000870097F5FF1F83D5255BC115F9B79C504C
:103A000052856396470D2945B9BF1D6A568B637170
:103A1000450B130A05E01947334AEA0217F7FF1F5F
:103A20000357875897FAFF1F938ACA51330AEA024D
:103A30003E9A83A74A026395470183A40A029DE444
:103A40009305E00417F5FF1F0355055697E0FF1F88
:103A5000E78040A5AA8445D983274B0397F5FF1F2C
:103A600083D585542A86898152858297914513078B
:103A7000A005898193972500A69783C627006393A5
:103A8000E60483D60700639C360385058A052286F3
:103A9000A6954A8597D0FF1FE780E0E483A70A0236
:103AA000E38297EC268597E0FF1FE780C0AE5DBDFF
:103AB00021677917E369A7F4330A454185B783C5C0
:103AC000370045BF83A70A02E38F97F2268597E068
:103AD000FF1FE78040AC05BF97F7FF1F938787461E
:103AE0008C5395D191479306A0058983139727009E
:103AF0002E9703462700E318D6F003560700631CF1
:103B0000360185078A072286BE954A8597D0FF1F12
:103B1000E78060DD81BD83473700C1BF97F7FF1F96
:103B20009387C747984739C79C5FA9C70547631361
:103B3000E504411122C417F4FF1F1304A4401050E0
:103B400006C60DC6485097F5FF1F83D5E545898108
:103B50008297085097E0FF1FE780E0A397F7FF1FC9
:103B600023A2074097F7FF1F23A00740B24022443B
:103B7000410182808280011117F7FF1F130707425E
:103B80004EC68329870022CC26CA4AC806CE52C414
:103B900056C2AA842E843289638B09201C5FBA8A9C
:103BA00099EB2945F2406244D2444249B249224A43
:103BB000924A056182805C5BEDD79307F01F63EA50
:103BC000A70E97F9FF1F9389E93783A70902B1CBA5
:103BD00003A58A0083A749026395A70689476393D3
:103BE000F408C147E31FF4FA17F5FF1F0355C53B5F
:103BF0009147130505FC3345F5029317250003A5EE
:103C000009022286CA853E959307A0052301F50087
:103C100023109500110597D0FF1FE780C0CC014508
:103C200051B79305E00417F5FF1F0355E53797E0FB
:103C3000FF1FE780208797F7FF1F23A5A73249F9C9
:103C40008DB783A74A0303A6090297F5FF1F83D503
:103C5000A5358981829783A78A0017F7FF1F23253F
:103C6000F730ADBF8D47639EF400C147E31BF4F20C
:103C700017F5FF1F03554533130545FD9377C5FF22
:103C8000BDBF9147639AF400E31D94F017F5FF1F41
:103C9000035585312115DDB793070010E393F4F048
:103CA000A147E3E087F017F5FF1F0355E52F411506
:103CB000F1B79D676379F506930705E01947B3C728
:103CC000E70217F7FF1F0357272E17FAFF1F130AE4
:103CD0006A27B387E702BE9983270A02A1CF832709
:103CE0004A026399370703250A0291461308A00583
:103CF0009305F00F93D72600139727002A970346C2
:103D00002700631F060783580700034637006395A3
:103D10009806B306D64063CF860485078A072286B5
:103D2000CA853E95CDBD21677917E36CA7E6B30739
:103D3000F54041BF9305E00417F5FF1F0355C52665
:103D400097D0FF1FE780007697F7FF1F23ACA720CF
:103D500059F581BD83A74A0303260A0297F5FF1F81
:103D600083D5852489814E85829797F7FF1F23ADE0
:103D7000371F95BF2310B70093160601C1829DBF60
:103D8000B385860017F6FF1F03560622910513061A
:103D900006FCE3F8C5E013063400719A1106B296EA
:103DA0002301070123109700A301D700BDB797F7A0
:103DB000FF1F938727199453BE89A9C203A509023F
:103DC00091461308A0059305F00F93D7260013978B
:103DD00027002A9703462700631806058358070023
:103DE0000346370063989800B306D640E3D786F2BF
:103DF0002310B70093160601C182C1BF8357C700C5
:103E000017F5FF1F0345651A9305E0043305F50216
:103E10004205418197D0FF1FE780C06897F7FF1FD9
:103E200023A2A71441FDB5BB17F6FF1F0356C61703
:103E300097F5FF1F83C56517B385C50233868600D6
:103E40001106E3E0C5D681BF97F7FF1F9387471B95
:103E50009C43B70680003706008298437D16558F35
:103E600098C31307F00F98DF13070005D8DBD85766
:103E7000B7060080558FD8D7D45717F7FF1F0347D1
:103E80002713931587011377F703F18E6607558F74
:103E9000D8D7E18517F7FF1F1307871E9306A003E6
:103EA000184363DEB602744F37060007D18E74CF15
:103EB000370702003907D8DF984B137707FC1367E1
:103EC000E70098CB37E700E0D147A309F70497D77D
:103ED000FF1F9387270293E717007CD78280930602
:103EE000200263DAB600744F370600F97D16F18EB2
:103EF0003706000565BFB70600F91386F6FF744F55
:103F00006945F18E37060003E342B5FA3706000132
:103F100071BF9307A00363EFA7041307A0028D47A7
:103F20006368A7041307200289476363A7046947EE
:103F30008547636FA70251478147636BA7024947D3
:103F4000FD576367A7023947F5576363A7022947FF
:103F5000ED57636FA7001947E157636BA70011473F
:103F6000D9576367A7000947B1576373A700C557BF
:103F70003E8582809147EDBF938701829C4399CB18
:103F8000944BD04B9842518F98C294439C4798428F
:103F9000D98F9CC297F7FF1F9387870617F7FF1FDC
:103FA0000347E70617F6FF1F1306460805489C431C
:103FB0001307E7091442631E0503884313650508C8
:103FC00088C3C8468177FD17E98FDCC60F10000053
:103FD0001C42B7060200AD0594C7930600F817F619
:103FE000FF1F2303D6028A05BA958605ECD3C8C7FE
:103FF000828088431375F5F788C3C8468177FD171B
:10400000E98FDCC60F1000001C42B7060200A905AC
:1040100094C7930600F817F6FF1F2307D6FE8E05F8
:10402000E1B7938701829C4389CFD44303A88700DB
:1040300098423367070198C2D447DC4B9842D98F26
:104040009CC297F7FF1F9387A7FB05479C439505E5
:10405000631EE50298438E051367070898C3984FBF
:10406000137707C01367A71398CF13078007A38997
:10407000E7009385C50397F7FF1F23ADB7F811C677
:10408000060697F7FF1F23A7C7F88280984392057B
:104090001377F7F798C3984F137707C01367271361
:1040A00098CF1307F007A389E700E1B7411106C6CF
:1040B00017F7FF1F034787F5A1476311F70497F729
:1040C000FF1F83C7E7F6858B17F6FF1F034676F8B9
:1040D00097F6FF1F83C6E6F7BDC797F7FF1F9387C5
:1040E00027F7C8432DC1834515000905EF10C033DC
:1040F00011C5854717F7FF1FA30AF7F017F7FF1F32
:104100000347C7F09947631CF70097F7FF1F938792
:1041100067FFFC5F83C7B70095CBEF30807317F75D
:10412000FF1F0347A7EE9D476312F70297F7FF1F94
:10413000938747FD83A7070983C7770081CBB240E8
:1041400041016F30E05A814501454DB7B240410110
:10415000828017F7FF1F130767ED1C43B44B93F6DC
:10416000F68FB4CB944393E6860094C39C438D832F
:10417000858B89C7010001000100010097F7FF1F2F
:10418000938707E894439C4293F7F7CF93E7071090
:104190009CC297F7FF1F9387A7EE9043B706CEFF09
:1041A000FD161C46F58F1CC61C4337070300B8CB11
:1041B000938701829C4399CBD44390479842518F77
:1041C00098C2944BDC4B9842D98F9CC297F7FF1F43
:1041D000A38D07E2828097F7FF1F938727E59C4313
:1041E0009C438D8BF1CF411122C426C206C617F71E
:1041F000FF1F034797E18D47AA8417F4FF1F13049D
:1042000064E0631BF70097F7FF1F938767E29C4BFF
:10421000014681454545829719476395E40497F720
:10422000FF1F83C7B7DE99CB97F7FF1F83C707DE52
:104230006396970097F7FF1FA38A07DC83477400F4
:1042400021476318F7009307801017F7FF1F231FFC
:10425000F7DA2244B240924497F7FF1F238907D22E
:104260004101C5BD9D47639FF40097F7FF1F83C7BA
:10427000F7D9E9D717F7FF1F034747D98D47E31F42
:10428000F7FA4DBF83467400630BD70003477400F1
:104290006387E700834774002147E31CF7FA97F729
:1042A000FF1F83C7B7D6D5F78347740017F7FF1FE3
:1042B000230EF7D4854717F7FF1FA309F7D451BF83
:1042C00082805D7156DA97FAFF1F938A6AD303A73B
:1042D0000A0086C6A2C4A6C2CAC04EDE52DC1C4377
:1042E00017FAFF1F130ACAD997F9FF1F938909D438
:1042F00093F7F7CF93E707101CC383260A0037070D
:10430000CEFF7D179C463709030013068002F98F04
:104310009CC683A709002A84AE8423A82705930599
:104320001008280097C0FF1FE780C05F354565353E
:1043300083A70A009376F41F3706330023A40700EF
:10434000984B13098915617F1367F70398CBF84FD2
:10435000CE88130510F8137707E0558FF8CF9843F0
:10436000D68552881367070898C317F7FF1FA30D58
:1043700007C883A6090017F7FF1FA30507C805474D
:1043800098C29843A1629303401F1377F7CF98C355
:1043900098437D1F85491377F7CF1367072098C38C
:1043A00003270A00930F80021C47D18F1CC723A844
:1043B00026050147340011491353370026938347DC
:1043C000030013767700B3D7C740858BDDCF9C41C0
:1043D000832E080023AC070423A0070603AECE02F9
:1043E000137EDEFF23A6CE0383AE0700137EF707FE
:1043F00093FE0EF833EECE0123A0C70103AE4702B1
:10440000336E5E0023A2C70383AE0800014E23A2D1
:104410007E0603AA070663074E0303AE0703038A5B
:104420000600135EFE00620E135E8E416358CA01E1
:1044300003AE0703135EFE002380C60103AE07062A
:10444000137EFE0F03AA4E0663060A0003AA870521
:10445000E37F49FB03AE4702337EEE0123A2C7038D
:1044600083870600635CF400034E03003396C900A3
:104470001346F6FF3376C6012300C3003E8663D39E
:10448000A7002A8613158601618505071377F70FA4
:104490008506E313F7F398411C4B93F707FC93E76A
:1044A000E7001CCBB640264496440649F259625AAE
:1044B000D25A61618280011126CA4AC84EC6C164BF
:1044C0003709006AB70900AC22CC52C406CE0544B5
:1044D000FD141309690E9389E90C130A000205E41F
:1044E0009305000F4145EFF0CF94B7B7006A42053E
:1044F000938767CE5D8DF2406244D2444249B2490F
:10450000224A05618280A6850145EFF0CF9493177A
:10451000850013F7071033E5270119C333E5370189
:1045200081470147E145B356F50085073356F5004D
:10453000858A058A6307D60005071377F70F63E4BA
:10454000E504E39247FF81471306F003ED46335736
:10455000F5001377F70305CB6307C7028507E398D8
:10456000D7FE135785009377F50F1377F70FE39472
:10457000E7F8135705011377F70FE39EE7F6135794
:104580008501E39AE7F605041374F40F89BF17F762
:10459000FF1F034797A791476308F70C97F7FF1F83
:1045A000938707C99843B7C7004093870730631DB7
:1045B000F70A0111354506CE22CC26CA4AC84EC696
:1045C000193997F9FF1F9389A9A3152AEF204018DD
:1045D000EFF09F8783A7090017F9FF1F130949AA66
:1045E000B7063300984397F4FF1F938424A437043D
:1045F00003001367070898C398431377F7CF98C34E
:1046000098431377F7CF1367072098C30327090050
:104610001C47D58F1CC79C4013078455B8CBEF208F
:104620004029EF20D07BEF20E01BEF20E02403A700
:1046300009001C4393F7F7CF93E707101CC38326A9
:1046400009003707CEFF7D179C46F2404249F98F9B
:104650009CC69C40B249D244A0CB624497F7FF1F4E
:10466000A385079A056182808280B7C700401387BF
:10467000073097F6FF1F23ADE6BA138707204111D5
:1046800097F6FF1F23A4E69A9387071037D70040B9
:1046900022C497F6FF1F23A5E69E17F4FF1F1304FD
:1046A000649617F7FF1F232DF7948547A303F400A3
:1046B00097F7FF1F9387878E9C4306C65CD093872E
:1046C00007111CD097D7FF1F9387278323A2F1825E
:1046D0007D3DB7E700E0A305040003C7574113671A
:1046E0000708A38AE740B24037071000224423A0FE
:1046F000E7103707200023A0E7104101828097F7D9
:10470000FF1F9387A7929C431307C0089306600777
:10471000D8CBD4CFD8D31306E006D0D7D8DBD0DFA0
:10472000F8C3F4C7130780072393E700F84BB706D5
:104730000080558FF8CB5147F8CB17F7FF1F1307B1
:10474000678C5853F8DF7D5798C737071F003D0720
:10475000D8C7828097F7FF1F93878792984317F6F1
:10476000FF1F1306E68C97F7FF1F93876789944313
:104770008347160013F8F707D9C588425C421375C2
:1047800005F83365050188C213F5150001C993F5D5
:10479000050341456386A506938787C14C57416849
:1047A000130808A093E525004CD7B3D50703B70835
:1047B00010FEFD18B3F70703FD89139545016C43FF
:1047C000B3F51501C98D6CC39305A00F3705FCFF28
:1047D000AA07B3D7B7026C43E98DBA07B983CD8F67
:1047E0007CC383470600898B99CB9C4293F7F707DC
:1047F00013E707049C4293F707F8D98F9CC2828085
:104800009387078361BF5C57F59B5CD79C4293F706
:1048100007F8B3E707019CC2E9B7411106C697F74D
:10482000FF1F238E0782EFF0DF92B2400145410166
:104830008280411197E7FF1F83C7F77C06C6858BEF
:1048400095C7E13F97E7FF1FA38F077A97E7FF1F01
:10485000238C077A97E7FF1F9387877D03A30701C0
:10486000014681450545B2404101028397E7FF1F9C
:104870009387C77B9C43FC5385E3453797E7FF1F2E
:104880002384077897E7FF1F9387877A03A307019D
:10489000014681454545C1BF97E7FF1F938787764E
:1048A00083C777000D476317F700854717E7FF1F9A
:1048B000230FF76CB24041018280411197E7FF1F3F
:1048C00083C7677426C206C622C4858B97E4FF1F80
:1048D0009384C475F5CB97E7FF1F2386077297E78C
:1048E000FF1F9387E779984317E5FF1F034545743A
:1048F00017E4FF1F1304C4735C578583858BB1CB0A
:10490000504093760503C145930786C16394B60072
:1049100093070683C165938505A0B3D6B702370810
:1049200010FE7D18B3F7B702FD8A13964601744353
:10493000B3F60601D18E74C39306A00F3706FCFFB1
:10494000AA07B3D7D7027443F18EBA07B983D58FBC
:104950007CC31185014697E5FF1F83C5256F0D892F
:10496000EFF02FEC170500001305E50AEFE09F9428
:1049700098408177FD175447F58F5CC70F100000F2
:104980009840B70702001CC7930700F817E6FF1FFF
:10499000230CF66697E7FF1F938787669C439C432B
:1049A0009D83858B99CF93076019032304017CD3E2
:1049B00054C70146814505452244B2409244410115
:1049C00002839307E01BD5B79C40FC5385E3B135C8
:1049D00097E7FF1F238A076297E7FF1F93874765C3
:1049E00003A30701014681454545F9B797E7FF1F36
:1049F0009387476183C777000D476317F7008547A3
:104A000017E7FF1F2305F758B240224492444101A3
:104A10008280011197E7FF1F83C7F75E06CE22CC85
:104A2000858B17E7FF1F1307E75DC1CF3A84F53386
:104A3000485097E7FF1FA388075C8145814613060E
:104A4000F10097E7FF1F2381075C97C0FF1FE780F6
:104A5000806593158501E1858DE15C509306F00F2B
:104A600003C70700630BD70097E7FF1F83C7575E95
:104A70006385D7006303F700894597E7FF1F938796
:104A8000275B038707006347070058508346F10000
:104A90002300D7009C4B505093F5F50F09458297A2
:104AA00097E7FF1F83C7875B898B81CB854517E518
:104AB000FF1F0345E55AEFE02FC9F240624405614C
:104AC000828097E7FF1F938767569C43FC5385E3DB
:104AD000A93397E7FF1F2389075297E7FF1F9387A3
:104AE00027559C4B0146814549458297F9B7834735
:104AF00077000D47E313F7FC854717E7FF1F2308EF
:104B0000F74865BF011106CE22CC26CA4AC84EC658
:104B100052C417E4FF1F1304A4512E89328AAA89B4
:104B2000EFF02FE303451400814597E4FF1F9384C2
:104B3000E44F0D31034504008345C401014611854E
:104B40000D89EFF00FCE97E7FF1F9387674B9C43CC
:104B5000184494403706330098C7584417E4FF1FA1
:104B60001304444ACE85D8C3D84213671700D8C26D
:104B700098431377F7CF98C398431377F7CF13670A
:104B8000072098C397E7FF1F9387874F98430850E4
:104B90001C470905D18F1CC7B707030093878715EA
:104BA000BCCA230F45FFA30F25FF4A8697C0FF1FEE
:104BB000E78060D317E7FF1F130787498347E700A4
:104BC00093E747002307F7009C403707020023A222
:104BD000070698C723020400130700042300E4001B
:104BE000A3020400A3000400F2406244054798C3F6
:104BF000D2444249B249224A05618280797122D465
:104C000052CC56CA06D626D24AD04ECE5AC89307A0
:104C10000008AA8A2E84328A6319F602BD4497C01E
:104C2000FF1FE780007AE3FCA4FE97E7FF1F83C71E
:104C3000C7419607C117E3E4A7FE97E7FF1F9387D5
:104C4000E73E9C4313078007F8D317E9FF1F1309BA
:104C5000293B03270900814597E4FF1F9384043D06
:104C60005C5797E9FF1F9389A93C17EBFF1F130BB4
:104C70006B39F19B93E717005CD717E5FF1F0345DE
:104C8000353BC93C83270900370633009843137727
:104C9000F7CF98C398431377F7CF1367072098C3CC
:104CA00017E7FF1F1307C73D14439846518F98C657
:104CB0009840B70603009386862534CB83A68900E7
:104CC00094C783A6C90097E9FF1F93896938D4C3A5
:104CD0005C4393E717005CC383C7E90093E72700B1
:104CE00017E7FF1F230DF7369307FAFF93F7F70F28
:104CF00005476369F70C03250B022286D68523003E
:104D00004501A3008500090597C0FF1FE780A0BDEE
:104D100003270B029C4093150401C181B8DF17E7FC
:104D2000FF1F2302072E17E7FF1FA30E072C17E70D
:104D3000FF1F230B072C0D4797E6FF1FA387E62CC9
:104D400013070008631EEA08F8537DFF97E7FF1F6B
:104D5000938707249C432EC6829703A78900B245F8
:104D60006368E506198D83270B02370480000D81E7
:104D70001307F42F6205598D88C317E5FF1F0345FC
:104D8000252B11850D89EFF02F9F8327090098436C
:104D9000418F98C3D857719BD8D797E7FF1FA3853A
:104DA000072697E7FF1FA38F07249C40094798C356
:104DB000B250225492540259F249624AD24A424BAA
:104DC0004561828093070008E314FAF4094489B727
:104DD00097E7FF1F93874721DC43998F3E9561B783
:104DE00017E5FF1F0345C52411850D89EFF0CF9806
:104DF00083270900B7068000171500001305456FCB
:104E00009843558F98C3D857719BD8D7EFE08FCA76
:104E100097E7FF1F2384072497E7FF1FA386071E3A
:104E200097E7FF1FA380071E9C40094798C383C7CD
:104E3000C90093F7F70FE5DFA5BF797106D622D435
:104E400026D24AD04ECE52CC56CA5AC897E7FF1F38
:104E500083C7E713639C07122A843545EFF0AFB789
:104E600013067100994513050010EFE0FFA165E1FD
:104E700019469305F00F1305710097C0FF1FE780D7
:104E800060B285476305F50C89472300F100194698
:104E900097E5FF1F938505121305110097C0FF1FAB
:104EA000E78060A417E5FF1F03458510EFF06F86CC
:104EB00097E4FF1F9384C41983C7F40017E9FF1F09
:104EC0001309090DA306A10017E7FF1FA302F71698
:104ED000DC48017A856A17E7FF1F232FF714832721
:104EE0000900216B97E9FF1F93894914829797E77F
:104EF000FF1F23ABA7167D1A938AEAEB130B0BD087
:104F000003460100B9450A85D53983C7C40009475E
:104F10006315F7060347010085470144631EF70048
:104F200017E6FF1F13068614994513050010EFE0DE
:104F30009FC40545EFE09FBE2285B2502254925493
:104F40000259F249624AD24A424B45618280854702
:104F5000194697E5FF1F9385E5051305110023000A
:104F6000F10097C0FF1FE7800098194697450000A1
:104F70009385C5601305710015B719C87D141374A6
:104F8000F40F19E497E7FF1F238A070C05446DB758
:104F900083460100094783A70900639EE604D847BA
:104FA000B3764701D4C70F10000083A70900B706E6
:104FB000020094C7930600F817E6FF1F2306D604E5
:104FC0009306E06EF4D3D8C703A709007C53FDFF16
:104FD000832709008297984C6363E504198DE37178
:104FE000ABF2EFE08FE983270900829797E7FF1F75
:104FF00023ACA70631B7D847B3764701D4C70F1003
:10500000000083A70900B706020094C7930600F8C2
:1050100017E6FF1F230AD6FE23A257076DB797E7AF
:10502000FF1F938767FCDC43998F3E954DBF1C495A
:10503000638D0718411122C406C626C283470500A6
:105040002A8493F7070489C75C410945638E0710DA
:1050500013060002814517E5FF1F130565FD97C084
:10506000FF1FE780208C13060002A28517E5FF1FB3
:10507000130505FC97C0FF1FE780E08697E7FF1F39
:1050800083C797FC97E4FF1F938484FA99E79307FB
:10509000800217E7FF1FA309F7FA97E7FF1F83C7EF
:1050A000C7FA91E7A14717E7FF1F2300F7FA97E731
:1050B000FF1F83C797F991E7C54717E7FF1FA306AF
:1050C000F7F897E7FF1F83C767F891E7ED5717E7F2
:1050D000FF1F230DF7F697E7FF1F83C737F791E709
:1050E000ED5717E7FF1FA303F7F68347040093F775
:1050F000070491CFDC4037B724001307F7E9636A50
:10510000F7069307500217E7FF1FA303F7F297E78D
:10511000FF1F9387E7F3C84309C597C0FF1FE780C8
:10512000804797E7FF1F23A707F283C70400858BFB
:1051300085C317E5FF1F034575F193059004090525
:1051400097C0FF1FE780003697E7FF1F23A4A7F053
:1051500083C71400014517E7FF1FA302F7F09C4423
:1051600017E7FF1F2320F7F0B24022449244410189
:105170008280370725009306F74863EDF60037670E
:10518000DBFF13070793BA971307007DB3D7E70236
:10519000FD1795BF130707496395E7009307600262
:1051A0009DB737D725001307F777636DF70037678B
:1051B000DBFF13070793BA971307007DB3D7E70206
:1051C000F91791B7930770023DBF05458280797149
:1051D00026D297E4FF1F9384A4E59C4406D622D4EC
:1051E0004AD04ECE52CC56CA5AC85EC662C4638BF1
:1051F000072217E7FF1F034757E19547AA8B97EA56
:10520000FF1F938A2AE009456303F71E0D452E848C
:10521000328B368CEFE03FFC97E7FF1F83C707E434
:10522000898B17EAFF1F130AAAE285CB3D4997C075
:10523000FF1FE7800019E37CA9FE97E7FF1F83C7E4
:10524000C7E09607C117E3E4A7FE97E7FF1F938720
:10525000E7DD9C4313078007F8D397E9FF1F938985
:1052600029DA03A709005C57F19B93E717005CD785
:105270008347CA00898B99E783C7040093F7070423
:1052800063930718814517E5FF1F034575DAEFF0B3
:105290006FCC83A709003706330017E9FF1F1309F6
:1052A000E9D898431377F7CF98C398431377F7CF8C
:1052B0001367072098C317E7FF1F130767DC144322
:1052C0009846518F98C603270900B70603009386B6
:1052D000862534CB944494C7D444D4C383C70400F4
:1052E00093F617005C43F99BD58F5CC38347EA00B4
:1052F00003A50A0293E7270017E7FF1F2301F7D64C
:1053000097E7FF1F238667D597E7FF1FA38287D5FF
:10531000638E0B0E23006501A30085002286DE85C7
:10532000090597B0FF1FE780005C83A70A020327E7
:1053300009003CDF97E7FF1F238707CC97E7FF1F94
:10534000A38307CC97E7FF1F238007CC8D4797E601
:10535000FF1FA38CF6CA8347CA00898B9DCB7C5361
:10536000FDFF97E7FF1F9387A7C29C438297032700
:105370008A006361E50A198D83A70A020904137480
:10538000F40FA38087000D81A29723800700A380DC
:10539000A70017E5FF1F0345A5C911850D89A28543
:1053A000EFE09FBD83C7040017F5FFFF13052551EC
:1053B000858B89E717F5FFFF1305E547EFD09FEFD2
:1053C00083A70900B706800001459843558F98C30D
:1053D000D857719BD8D797E7FF1FA38707C297E7D6
:1053E000FF1FA38107C283270900094798C3B25052
:1053F000225492540259F249624AD24A424BB24B69
:10540000224C456182808945C84051B52320650101
:10541000014421BF97E7FF1F938707BDDC43998FA6
:105420003E9599BF0545E1B77971B7E700E026D20F
:1054300084433707200006D622D44AD04ECE52CC21
:1054400056CAF98C23A0E7180F10000017E4FF1FBD
:10545000130404BE184409EF23A097100545B25069
:10546000225492540259F249624AD24A45618280DA
:1054700017E7FF1F130707C90327470A09C723A018
:1054800097100945E9BF83470400328AB689858BA6
:105490002E86AA8ABDC717E9FF1F130969BB832798
:1054A000490095E317E5FF1F034555BA2EC60905C8
:1054B0009305900497C0FF1FE780C0FE324697E730
:1054C000FF1F23A9A7B88327490099E7B7E700E0A2
:1054D00023A097100D4561B717E7FF1F034767B774
:1054E0002380E70083274900638F0A0429CEA38025
:1054F000C70003254900D685090597B0FF1FE7803F
:10550000803E17E7FF1F034757B09547630CF7002E
:1055100097E7FF1F83C787AF19476385E7000D47EC
:105520006396E70297E7FF1F83C757AE99E7930794
:10553000801017E7FF1F231BF7ACB7E700E023A09D
:105540009710014529BFA380070065BF17E9FF1F1A
:105550001309C9AD8327090098430D8B0DC717E7C1
:10556000FF1F230607A2B84B1377F78FB8CB9843DA
:105570001367870098C39C438D83858B89C701007F
:10558000010001000100832709003707020097EAA4
:10559000FF1F938AEAAB23A2070698C797E7FF1F6E
:1055A000238407A697E7FF1F83C747AB918B89EB3F
:1055B00097E5FF1F83C5C5A793F7050463910712FD
:1055C000814517E5FF1F0345B5A6EFF0AF9817E536
:1055D000FF1F0345E5A51185014697E5FF1F83C51C
:1055E000E5A60D89EFE0FFA317E7FF1F130747A10B
:1055F00014441C4394C75444D4C3832609008347EE
:1056000004003A8413F61700DC42F99BD18FDCC208
:1056100083A74A00BCDE97E7FF1FA38C47A397E749
:10562000FF1F238837A383C7EA0093E7470097E665
:10563000FF1F2386F6A29307000497E6FF1F23832C
:10564000F69C97E7FF1F2381079CA14797E6FF1F62
:10565000A38DF69A97E7FF1F938747949C5791CBAA
:1056600013060064C14517E5FF1F0345659FEFD092
:105670003F9783270900170500001305A531DC4378
:10568000858B89E71705000013056506EFD09FC2DB
:105690001840B70633001C4393F7F7CF1CC31C43D5
:1056A00093F7F7CF93E707201CC397E7FF1F938774
:1056B000279D98431C47D58F1CC703270900B707B0
:1056C0000300938787153CCB97E7FF1FA38E0792B4
:1056D00097E7FF1FA388079285471CC3B9BD93F5C1
:1056E000050393E515004840CDB5011197E7FF1F6D
:1056F00083C7579106CE22CC26CA4AC8858B17E7A6
:10570000FF1F130727906385072497E7FF1FA38BCD
:10571000078E3A84A30701004453EFF00F9097E7F8
:10572000FF1F83C7A793918B97E6FF1F938646922F
:1057300017E9FF1F1309C98F6389071A83C714006C
:10574000A69703C7070093070008631AF70083476B
:10575000090093E7870017E7FF1F230BF78C5C4CCA
:105760000D47637EF710F11717E7FF1F232AF78A0B
:105770005C4C984663ECE7103387E74083C714001E
:1057800003C6C600A69783C71700620661868E0708
:10579000635F061063F3E7101D8F9306000263EB4F
:1057A000E600584C636EF70EB307F74017E7FF1F8C
:1057B0002324F78A894517E5FF1F0345658AEFD043
:1057C000AFF883470900A18B638C071097E7FF1F91
:1057D0009387C78594439307800C1307F00FFCD27F
:1057E0001C5037063300014598C397E7FF1F238CF1
:1057F000078097E7FF1FA388078097E7FF1F238590
:10580000078097E7FF1FA381078097D7FF1F938724
:10581000277F98431C4393F7F7CF1CC31C4393F790
:10582000F7CF93E707201CC397E7FF1F93874785B0
:10583000984397D5FF1F83C5A57F91851C478D8908
:10584000D18F1CC7B707030093878725BCCA0546BD
:1058500097C0FF1FE780408E83470900DD9B17D765
:10586000FF1F2307F77C97D6FF1F83C6867E17D6B8
:10587000FF1F0346167E814501457D36E1A017D7FF
:10588000FF1F130767765843BA97F1BD17D6FF1F5E
:10589000130686755042B297C5B53387E740F5BD0C
:1058A00097D6FF1F93864674D4423697F5BD584C61
:1058B0006361F702B307F74017D7FF1F232EF7786E
:1058C00083C7C60093E7070817D7FF1F2308F77899
:1058D000D5B517D6FF1F1306267150423297D9BF90
:1058E00083C71400F917A380F4004850814681450E
:1058F0001306F10097B0FF1FE780E07A5C50931524
:1059000085019306F00F03C70700E185630CD700FC
:1059100097D7FF1F83C7F7736386D7006304F70029
:1059200093E525008307090063C7070089E58347DE
:10593000F1002380F40083270901505093F5F50FFF
:105940000D458297F2406244D2444249056182800B
:1059500097D7FF1F9387876D9C43FC5399EFEFE028
:10596000DFEB97D7FF1F938767639C5BE38D07EEA1
:105970008545130510088297FDB5834777002147B9
:10598000E312F7FC854717D7FF1F2302F7605DBFBF
:10599000797197D7FF1F83C7E76606D622D426D230
:1059A0004AD04ECE52CC858B17D7FF1F1307876581
:1059B000638407260329470281461306F1008145C7
:1059C0004A853A84A307010097D7FF1F238C0762FB
:1059D00097B0FF1FE780206D131A8501135A8A4183
:1059E00063120A0297D7FF1F83C7B7669306F00FAB
:1059F000638AD7005850034707006305D700630345
:105A0000F700094A97D4FF1F9384846283870400B8
:105A100097D9FF1F9389C96363C6071463160A14D5
:105A20008347F1002300F90083C7C900918BD1CBD4
:105A30005C4C0D47637DF716F11717D7FF1F232125
:105A4000F75E5C4C03A7890063EAE7163387E740FB
:105A50008347190083C6C900CA9783C71700E206A7
:105A6000E1868E0763DD061663F1E7161D8F930648
:105A7000000263EBE600584C636CF714B307F74081
:105A800017D7FF1F232AF75C894517D5FF1F03454A
:105A9000255DEFD06FCB834719003307F9008346AC
:105AA0000700130700086395E6161C501307F00F54
:105AB00098C383C7040093E7870017D7FF1F230904
:105AC000F75697D7FF1F9387A75B98435C5785834B
:105AD000858BA1C3DC40C165938505A0B3D6B70211
