:040000006F10900EDF
:10000400000000000000000090000020C202002058
:10001400A9BDF9F5780300200000000000000000ED
:100024007803002090000020000000000000000081
:10003400900000200000000090000020000000005C
:1000440090000020900000209000002090000020EC
:1000540090000020700B00209000002000000000A1
:1000640090000020900000209000002090000020CC
:10007400DE0300209000002090000020900000206B
:1000840090000020900000209000002090000020AC
:1000940001A04111B7170040985F3AC6945F3247F8
:1000A400E39CE6FE324541018280B7F70700011167
:1000B400944B13078008F337078093F787083EC2F1
:1000C4000F100000B71700401308700523800705C0
:1000D400930580FA2380B7040F10000003C6B70409
:1000E4001376F60DA385C7042380070412467326EE
:1000F40006800F1000001376050255CEF3360780F4
:1001040093F6860836C40F10000023800705238069
:10011400B7040F100000B70614007D89558D88C7F9
:10012400010001000100010023800704A246F3A698
:1001340006800F10000073370780137787083AC6CC
:100144000F100000238007052380B7040F10000060
:100154000F1000003727004093061005A303D78033
:1001640023800704B247F3A707800F10000093070A
:100174008008F3B7078093F787083ECE0F1000007E
:10018400B7170040130770052380E704130780FAAC
:100194002380E7040F10000003C7B70413670708A0
:1001A400A385E70423800704F247F3A707800F1011
:1001B4000000056182801376050459C273360780F6
:1001C4001376860832C80F100000238007052380A9
:1001D400B7040F10000037061400130606047D89C7
:1001E400518D88C70100010001000100238007042C
:1001F4004246732606800F1000007337078013777A
:1002040087083ACA0F100000238007052380B7042B
:100214000F100000A54793F6F60F639EF600B7276C
:10022400004013073005A383E780B71700402380FD
:100234000704D2470DBFB727004013072005E5B7D1
:1002440073370780137787083ACC0F100000238098
:1002540007052380B7040F10000098471367070CA5
:1002640098C723800704E247FDBD0111814601467A
:100274008145114506CE912493078008F3B7078082
:1002840093F787083EC60F100000B7170040130706
:1002940070052380E704130780FA2380E7040F1016
:1002A400000003C76704136717002383E704238050
:1002B4000704B247F3A707800F100000F24005615E
:1002C400828041118146014681451145FD22130773
:1002D4008008F337078093F787083EC40F100000A7
:1002E400B7170040130670052380C704930680FAED
:1002F4002380D7040F100000FD552396B7022380F6
:100304000704A245F3A505800F100000733707808A
:10031400137787083AC60F1000002380C704238090
:10032400D7040F10000003C7670413671700238363
:10033400E70423800704B247F3A707800F100000E7
:1003440001A0BD473305F50201007D1575FD8280CE
:10035400411122C426C206C6AA840144631794002C
:10036400B240224492444101828005041305803E38
:100374004204C13F4180DDB79305000273A045806C
:1003840082457390153492402242B2424243D24392
:100394006244F244025592552256B2564257D257FD
:1003A4006258F25806499649264AB64A464BD64BF5
:1003B400664CF64C065D965D265EB65E465FD65F7D
:1003C4000961730020304111B7170040985F3AC6A5
:1003D400945F3247E39CE6FE324541018280B717C1
:1003E4000040130700032388E702854723ACF1820A
:1003F40073002030411106C6EF00502BF5BF2303D4
:10040400048015472303E48001002302A480828032
:1004140083076480E3CE07FE23030480828083077E
:100424006480E3CE07FE03454480828083076480B2
:10043400E3CE07FE2302A4808280411126C44AC26F
:100444004EC006C61377F50BAD47AA892E8995448D
:100454006306F70019456537653F8D444E8545377A
:10046400FD59FD1463983401B240A24412498249F3
:1004740041018280135509011375F50F453F220987
:10048400CDB7011126CC06CEB70408005137154567
:10049400BD37713769372AC6A53F324593771500B2
:1004A40089EB136515001375F50FF240E2440561FD
:1004B4008280FD14E9FC0145CDBF397126DC4ADA9E
:1004C4004ED852D656D45AD25ED006DE62CE66CC10
:1004D400B7E700E07D5783AA070022C603AA4700B6
:1004E40023A0E71823A2E718B717004013077005E5
:1004F4002380E704130780FA2380E70483C74704B3
:10050400930B75FFB684E20793FBFB0F8546AA891C
:100514002E8B328937240040E187015763FA760134
:100524006308D5008946130700026313D5000157F9
:10053400D98F93F7F70FB71C00402382FC041147AF
:100544002303E4801305F00F5D3D094CD135636D41
:100554007C11B7050700DA9537870700795563F2F0
:10056400E504B3879500636EF702370B0800A947CB
:1005740033EB65016399F90689E48144513D26858D
:100584000DA0DA850945553D05090345F9FFFD141C
:10059400050B693D81C49377FB0FFDF7DD3569FDDC
:1005A4007D55B7170040130770052380E704130730
:1005B40080FA2380E70403C74704418B2382E704BE
:1005C400F250B7E700E023A0571123A24711E254E9
:1005D40032445259C259325AA25A125B825B724C4B
:1005E400E24C21618280A5476395F9068569130968
:1005F400F00FB3069900B3742B01B6941349F9FFB5
:10060400B3749900856B33796901416B9387F9FF62
:10061400B3F7270199E363FC340193D94900C14737
:10062400E3E637FF99BF0569C1697D19D9B7130599
:10063400800D638869011305000263847901130541
:100644001008CA85DD3B353D21DD4E99B384344124
:10065400D9B7DA852D45D533CA94E30099F2050953
:100664007D3BA30FA9FED5BF9387F9FF93F7F70F3F
:100674006361FC0C83C71C0413073008631FF70471
:1006840037070800636BEB04B3079B00B706100041
:1006940063F5D704334BEB0089476393F9068980EC
:1006A400D549E38C04ECDA850945413B110903275C
:1006B400C9FF91472320E48003076480E34E07FECB
:1006C40023033481FD17EDFBFD14110B81C49377D3
:1006D400FB0FE9FF7D3371F5E1B5B717004003C7A0
:1006E4005704B70708001377070219E3B787070011
:1006F4007955E378FBEA33079B00E3FFE7F855B548
:100704008547E382F9F2DA852D45053B9389F4FFA9
:10071400E38504E6293393F7390091EB83260480BB
:100724000327090093074900E39AE6E43E89CE844F
:10073400F1BFB5476396F9001305900BC93135BD78
:10074400B1471305B00AE38BF9FE99476391F904A5
:10075400B7050800B365BB002D45C53181448D4BF9
:10076400A149753963967401832704802320F90015
:100774008504E39834FF8327048013172B01635502
:1007840007002312F900D5BB2322F900FDB39D47CE
:100794006399F90281451305B0044531BD44232012
:1007A400090023220900FD599D3993F77400CA9763
:1007B40003C70700FD14398D2380A700E39634FF97
:1007C4006DBBA1476392F9046D398144630D0B003D
:1007D4008D479304C0036308FB009304000563047E
:1007E4008B01930440041375C507E30895D8194594
:1007F400393139390545213126850D3909453D31D0
:100804004931E31C05D669BB91476399F900130587
:100814006006F536F53E130590090DB7E38F09D44C
:10082400F154A9BBBD660147173600001306067FC5
:10083400938606A685458347060093F7F70F91C371
:1008440082800507E3F9E6FE973700002388B77C2A
:10085400DDB77D166206618693178601E18763D44E
:10086400070001458280931726003307F500AE97F1
:1008740018439C4363E7E7007D16E37FF7FC7D554F
:10088400828005458280FD15E205E1851397850187
:10089400618793F7F50F63480700FD15139725004B
:1008A4002A97584365D713851700620561858280AE
:1008B4003308B5021C4283A80600B335B502C297BB
:1008C40033B50701AE98469585486367B5006394D0
:1008D400A50063E3070181480C43C6950CC388C295
:1008E4001CC2828081471397870161876343B700E5
:1008F4008280139727002A97232007008507E5B7EE
:100904008147014793968701E18663C5B600133595
:100914001700828093962700AA9694428507558FE4
:10092400D5B793D755408A07AA979C4305453315F5
:10093400B5007D8D8280171300E0E70203092A8445
:10094400993705C5931725003E940327C4FF8147B3
:1009540011EB7D1516053E9542054185171300E000
:100964006700E30805838507E5B70145C5BF8147EF
:100974001397870161876343C70082801397270019
:10098400B386E50094422A97850714C3D5B77D162C
:1009940062066186014793178601E18763D50700E4
:1009A40013351700828093172600B306F500AE971F
:1009B40094429C437D16B58F5D8FF1BF8A05AA953D
:1009C40001476363B500828083A6C5FFF11593D701
:1009D4001600D98F9CC11397F601E5B72A83014805
:1009E400014701456343D7008280B387050183A88B
:1009F4000700B30706019C43C697AA976384F800CF
:100A040033B517010507B3080301620723A0F800F3
:100A140061871108C1BF2A8301478147014563C328
:100A2400D70082803388E50083280800330EE6006F
:100A3400032E0E003388A8403308C841638408019C
:100A440033B508018507B308E300E20723A00801D2
:100A5400E1871107E9B7171300E0E70203F7011173
:100A6400B286B2842E86AA850A8575372A84A6851D
:100A74000A85793533348000060413351500018D59
:100A84000561171300E0670083F6171300E0E7021F
:100A940043F14111AA89AE8A328BB68402C202C4E0
:100AA40002C60144131C8401135C8C4163499C02FB
:100AB400939B1400FD1B0549138CF4FFF15C330474
:100AC400890162046184634D740592478E04CE9457
:100AD40023AEF4FE4101171300E0670003F013197D
:100AE4002400B30B2B01014A93172A00D69783A540
:100AF4000B0088437800340050005D3B050A9317CF
:100B04008A01E187F11BE351FCFE92474E990504EB
:100B14002320F900A2473EC2B24702C63EC459B7D9
:100B2400131A8901135A8A41131D240093178A0149
:100B3400E18763CF970092470A044E941CC0A247F2
:100B440005091379F90F3EC2B24702C63EC485BFF8
:100B5400B3079A0313152A00569508417800340008
:100B64005000050AEA97DA978C439933C1B700001D
:100B7400197106C212C416C61AC81ECA22CC26CEC1
:100B84002AD02ED232D436D63AD83EDA42DC46DEE9
:100B9400CAC0CEC2D2C4D6C6DAC8DECAE2CCE6CE59
:100BA400EAD0EED2F2D4F6D6FAD8FEDA93850183EF
:100BB4008841E700050092402242B2424243D243B8
:100BC4006244F244025592552256B2564257D257C5
:100BD4006258F25806499649264AB64A464BD64BBD
:100BE400664CF64C065D965D265EB65E465FD65F45
:100BF400096173002030B7E700E09843B70620008E
:100C040023A0D718758F0F10000001C599C1814723
:100C140011E6B7E700E023A0E7108280B386F50071
:100C240003C80600B306F500850723800601E31711
:100C3400F6FEC5B737E700E01C43B70620002320C3
:100C4400D718F58F0F10000001C53307C50011E652
:100C540037E700E02320F71082800505A30FB5FED7
:100C6400E31DE5FEF5B737E700E01C43B7062000B7
:100C74002320D718F58F0F10000001C599C1014733
:100C840011EA37E700E02320F710054582800507C5
:100C9400E309E6FE3308E500B386E50003480800EF
:100CA40083C60600E305D8FE37E700E02320F710EB
:100CB4000145828037E700E01C43B706200023206B
:100CC400D718F58F0F1000001307F6FFBA952A9670
:100CD4006317C50037E700E02320F7108280FD1575
:100CE40003C715000505A30FE5FEDDB737E700E0F0
:100CF4001C43B70620002320D718F58F0F100000DF
:100D040001C53307C50019E637E700E02320F710D3
:100D14000145828005058346F5FFE397B6FEE31B94
:100D2400E5FE37E700E02320F7100545828079715E
:100D34009387018722D4804306D626D24AD04ECE4A
:100D440052CC56CA5AC85EC64DCC37C9C901014BEC
:100D5400938941861309F937173A0000130ACA77B1
:100D6400973A0000938A4A7B973400009384047F67
:100D74008357240085E35C44631B0B0023A8F1869E
:100D8400832BC4002285EF0050265E84A9A8232665
:100D9400FB00FDB783A7090082971C443307F54085
:100DA4006375F500D8401D8F2A97636FE90697375E
:100DB400000023AB077683552400034504009750B5
:100DC40001E0E78040615C405844B9C70C44D0401E
:100DD400AE97BE8663E4B70063E4C700B386C7403A
:100DE40014C4228B3A8449F4973700009387C7725E
:100DF4009C4B09476371F708F9171737000023253F
:100E0400F772B250225492540259F249624AD24AB9
:100E1400424BB24B4561828063150B0023A8E186E7
:100E240085B72326EB00A9BF03274A021DCF63E140
:100E3400A7043385A7408347040085E317370000E0
:100E44000347F76A5917B307A7003E85D44063E404
:100E5400E70063E4D7003385D74083A70A016376AC
:100E6400F5009737000023A1A76C228B4044A5BF4F
:100E7400D840BA977DBF9737000023A7076A51B7B8
:100E8400938781869C4381CF411106C6829783C78D
:100E9400818799E323A40186B2404101828083C7FC
:100EA400818781E723A4018682808280411122C444
:100EB400173400001304C4681C4006C626C24AC086
:100EC40091C782979737000023AC076697370000D5
:100ED40083C71770858B173900001309296F89CFD1
:100EE400834779001947631CF70E97370000A381E5
:100EF400076E69295C4482971C4491C3829793844A
:100F04008185984017360000034616619737000024
:100F140083C7876093961700BA9683D60600E1CEFE
:100F24009737000083C7475F63E1C70E9737000018
:100F34002384075E1C4063940714938741869C4373
:100F4400638F07129737000093874761DC43173795
:100F54000000232BF75CE13B9737000083C7B7679A
:100F6400639F07109737000083C7D76691CF8347E5
:100F7400790093F7F70F89EB97370000A38C076488
:100F8400977001E0E78000EF973700009387C7541C
:100F9400DC536386070E973700009387E7579C4B13
:100FA400F9CF834779001547636BF70C9737000037
:100FB40083C70767918BE1E783C78187E9E39040A3
:100FC4009736000083C6565563C1D70C2244B240FD
:100FD400924402494101175301E06700636D83475E
:100FE40079001D47E31AF7F097370000A382075EE4
:100FF400712E1C4809B7850793F7F70F9736000041
:10100400238CF650E3E4C7F021BF86073E9783554F
:1010140007002310070023900186938741879C4390
:10102400173500000345454F13172500BA979C4315
:10103400829783D70186173700000347E74D93C78C
:10104400F7FF7D8D9317170098403E97835707004D
:101054005D8D2310A7009737000083C7E74B91C726
:101064008507173700002309F74A1737000003479D
:10107400A74A9737000083C7374AE379F7EAB240B3
:101084002244924402494101828013971700329707
:10109400035707006DF7850705BF37C70040832650
:1010A400C720B707FCFFFD17F58F2326F7200100A3
:1010B40001009737000093872746C84F8327872668
:1010C4002326D7206A0593C7F7FF99835D8D828015
:1010D400EFF01FDB730000000000000093828187A3
:1010E4000383020023800200630F0300F3251034FE
:1010F4002EC0970500009385E5FD73901534EF002D
:10110400204A7300203086DCEF008049E65082805C
:1011140000001387418A1443411122C49C5E4AC0D3
:1011240006C6998326C2858B3A841389018AD1C75E
:10113400930700069CDE173700000347874993078F
:1011440000089734000093846448631BF7008327E6
:1011540009009C4393F7070417370000230BF74655
:1011640083C7040093F707048DC3938741869C4388
:1011740082979737000023A9A74683C7040093F7F3
:10118400F70B173700002303F74483C7440093F792
:10119400070485E7854717370000A30BF7429387B9
:1011A400C18A9C433707020098C7130700FC97368F
:1011B4000000238FE6409848F8D318401C5F9183C1
:1011C400858B99CF1C5F93E707011CDF9387C18A46
:1011D4009C4323A20706854717370000230AF73EDE
:1011E40083270900D8430583058B19C7D843759B0A
:1011F400D8C3D843799BD8C3B2402244924402490D
:10120400410182803937730020309317D50063D1B0
:1012140007029387C18A9C437D57B8D7973700004C
:101224009387872FDC4F8507173700002324F73077
:10123400937785008DCB9737000083C7473993E7B1
:101244001700173700002304F738930700F81737FF
:101254000000230FF7369387418A98435C57F19B2C
:1012640093E717005CD7937715009DC39737000069
:1012740083C7D73593E7170017370000A308F7345F
:101284009387418A98435C57F19B93E717005CD797
:101294009377650085CB93774500173700001307D4
:1012A400E732CDC78347070093E7170017370000DD
:1012B400230EF7309387418A98435C57F19B93E759
:1012C40017005CD79317F50063D4070217370000A3
:1012D4000347473E418B973700009387273641C326
:1012E40083C7870793E70702173700002304F73CF7
:1012F4009317E50063D507029737000083C7472D8E
:10130400E207E18763D70700854717370000230109
:10131400F72C9387C18A9C433707020098C7931719
:10132400C50063D40702173700000347B738058B9D
:10133400973700009387873029C383C7970793E7BC
:10134400270017370000A307F7368280834737004A
:1013540093E7170017370000A30BF726A1BF03C7B5
:10136400870789463D8B6308D70083C787070D47E6
:10137400BD8BE39FE7F6914785BF03C79707118BA2
:1013840069D783C7970793E7870065BF9387C18AA7
:101394009443973700009387672303C70700058B9F
:1013A40011CB973700002385072297370000A381CC
:1013B4000722828003C71700058B65F7F85271FF77
:1013C40083C75700DDB71387418A032807008327A3
:1013D40088039583858BADEF11C683270803BD83EE
:1013E4002300F6009DC61C43985B4607935767018C
:1013F4006356070093E707C0C207C183039706003B
:10140400C207C18709C7BA970947B3C7E702239040
:10141400F6008DCD8345150095C99737000083C725
:10142400471B93F7070413879500894585C33A95AD
:10143400834705000547994593F6F7066398E60048
:10144400E207E187814563D30700B9452E85828091
:101454008545EDBF411126C206C622C49384C18AC4
:101464002DED9440AE87F8527DFF37F400E03E85C1
:1014740097370000238D0714832704D1B285ED9B91
:101484002328F4D0832704D193E787022328F4D0B8
:1014940073005010977001E0E780408B9387418A76
:1014A4009C43B70680009843558F98C3D857719BC7
:1014B400D8D797370000A38D071097370000A3876C
:1014C40007109C40094798C3832704D193E78700FA
:1014D4002328F4D07300501039A88D476313F50402
:1014E4009387418A9C43B70680009843558F98C3DD
:1014F400D857719BD8D79440173700001307070DAE
:1015040083472700858B89EB83473700858BD1C7B9
:1015140097370000238E070AB240224492444101C7
:1015240082808547E319F5FCB7F700E003A707D1EC
:101534006D9B23A8E7D003A707D11367870223A8CD
:10154400E7D07300501098408177FD175447F58F0A
:101554005CC70F1000009840B70702001CC7930730
:1015640000F8173600002305F6069387418A9C434A
:101574009C439D83858B639FA700930760197CD34D
:1015840054C737F700E0832707D193E78700232860
:10159400F7D089B79307E01BDDB7FC52B5F3ADBFB5
:1015A4009387C18A9C438847D847798D09C988C7DE
:1015B4009387018B03A307006303030002838280E4
:1015C40017370000130707038346B7019737000056
:1015D40083C717054C4BB697FD8B33D7F500973669
:1015E4000000A389F60097360000A38BF602058B52
:1015F40015EF173700000347F702B3F7E7028146F8
:1016040001471305000233D6E500058A1378F70F66
:1016140019CA6397D70097370000A38D07FD82800E
:10162400850693F6F60F0507E31FA7FC82809387D0
:1016340041869C43011122CC4AC806CE26CA4EC616
:101644008297973700009387E7FC8047014963013D
:10165400A406BE8463668506018D1354550097372E
:10166400000083C7C7FA1379F5016360F40497395E
:1016740000009389A9EEA93703A8840097360000D7
:1016840083C6E6F8139756004297158C3A8683A5CD
:101694004900636407016364B7003306B7409737B2
:1016A400000023ADC7F6E378D4FC160433692401A3
:1016B400F24062444A85D2444249B249056182807B
:1016C40097370000938787E9DC433384874022956A
:1016D40069B79387C18A98438967938707F47CD352
:1016E4009387818B9C4383A60709139656006358FE
:1016F400060083A607091396660063440600745324
:10170400FDF282804111B7E700E022C4804337072D
:10171400200006C6798C23A0E7180F10000011C121
:1017240099E5B7E700E023A0871001454DA893078A
:101734003500C207C183F19BC207C183130740036D
:101744006365F7021387C18C08431387418C1443E4
:101754006390A60217370000130707D8185B71D3EC
:10176400C207DD8D054502976DBF1387818CE9BFE4
:10177400035765002DEB035745006366F706B30670
:10178400F7402146637CD602032805009386870030
:101794001D8FAA96611717360000035646D8239268
:1017A400E60023A006012393060014C12312F500CA
:1017B400130786FF973600002393E6D62313B5005C
:1017C4009735000083D5A5D5B387F54017370000BA
:1017D4002317F7D4B7E700E023A087102105B24010
:1017E4002244410182800841A5B7B7E700E08C4359
:1017F4003707200023A0E718F98D0F10000001E53A
:1018040023A0B71082809387C18C03A3070093871A
:10181400418C83A8070081469A8763FE170B03A8AF
:101824000700636DF50A636BA80A13878700636476
:10183400E50A03D66700216705076317E60003C7B7
:1018440071890507A38BE188173500001305C5CC02
:1018540003D64700035765002393070032974207D6
:101864004183173E0000231CEECA638A6702138378
:10187400818C032303006304F30203D36600631023
:10188400030283D7460023A0060121073E962106C2
:101894002392C600973700002393E7C8B68798437E
:1018A400630B17039386818C94426306D702835695
:1018B400670095E283D64700035647001843A10604
:1018C400B2962392D70098C383576500A1071737B0
:1018D40000002316F7C4B7E700E01DB7BE86C28731
:0418E4002DBF000014
:1018E80097110020938181BD17510020130101F148
:1018F8001305400097E5FF1F9385457017060020E4
:10190800130606FE63FAC5008322050023A05500CE
:1019180011059105E3EAC5FE17C501001305052861
:1019280097050020938505FC1386418263FAC5005C
:101938008322050023A0550011059105E3EAC5FEA1
:101948001385818297350020938585E16377B500FB
:10195800232005001105E36DB5FEFD42739002BC1E
:101968008D4273904280930280087390023097E210
:10197800FF1F9382A26893E232007390523097223D
:101988000000938242317390123473002030397111
:1019980001436EC619A0397141536AC866CA62CC40
:1019A8005ECE19A0397101535AD056D252D44ED6B0
:1019B8004AD826DA22DC06DE3301614082824111F0
:1019C8004AC026C222C406C68282B24D4101024DD7
:1019D800924C224CB24B4101024B924A224AB249E4
:1019E8004101024992442244B240410182803D4370
:1019F8002A876373C3029377F700BDEFADE593764B
:101A080006FF3D8ABA960CC34CC30CC74CC74107A6
:101A1800E36BD7FE11E28280B306C3408A069702C1
:101A2800000096966780A6002307B700A306B700B4
:101A38002306B700A305B7002305B700A304B70022
:101A48002304B700A303B7002303B700A302B7001A
:101A58002302B700A301B7002301B700A300B70012
:101A68002300B700828093F5F50F93968500D58DF6
:101A780093960501D58D61B79396270097020000CC
:101A880096968682E78086FA9680C1171D8F3E96C5
:101A9800E374C3F8A5B73367B500FD530D8B79E739
:101AA800B7877F7F9387F7F710419441B372F600A9
:101AB8003363F600BE92B3E262006397720C631858
:101AC800D6065041D441B372F6003363F600BE9295
:101AD800B3E262006398720A631BD604104594450A
:101AE800B372F6003363F600BE92B3E2620063910C
:101AF800720A631ED6025045D445B372F6003363AA
:101B0800F600BE92B3E26200639A72086311D602CD
:101B180010499449B372F6003363F600BE92B3E2FB
:101B28006200639372085105D105E30FD6F61317C7
:101B3800060193970601631CF7001357060193D714
:101B480006013305F7409375F50F91E982804183CB
:101B5800C1833305F7409375F50F91E182801377C0
:101B6800F70F93F7F70F3305F74082800346050018
:101B780083C60500050585056313D60065FA330598
:101B8800D640828011059105E312D6FE0145828078
:101B98002105A105E31CD6FC014582803105B1056C
:101BA800E316D6FC014582804105C105E310D6FC49
:101BB80001458280B717004003C777051377E70F01
:101BC800A38BE704130700F8A38DE7043D47238C94
:101BD800E70413075003A38CE70403C7A70513778B
:101BE800D70F238DE7048280B717004003C7E702A9
:101BF8000D8941111377C70F498F93068008F3B6F3
:101C0800068093F6860836C60F1000009306700506
:101C18002380D704930680FA2380D7040F1000008E
:101C28002387E70223800704B247F3A707800F1032
:101C380000004101828041112A83014E930E407EAB
:101C4800130F0019930F400663E56E1293080019ED
:101C580013034006B3781503854E0D4FA14F337318
:101C680065020D891335150063EFBE121308F6FFE0
:101C7800794672984208135808013307C70213D6E9
:101C88001700BE0732976146B3F6C6021306807086
:101C9800B386C6023697A166F58F42075D8FB716E1
:101CA800004083C7F60293F70708A303F100034631
:101CB800710083C7F60293F70708E394C7FE8347CA
:101CC8007100B716004093F7F70F63880712930760
:101CD8008008F3B7078093F787083EC40F10000009
:101CE800B7170040930670052380D704930680FA3F
:101CF8002380D7040F10000023AA070383C6170305
:101D080093E60608A388D70223800704A247F3A70F
:101D180007800F1000001166B71700407D16D45BCE
:101D2800C85F93854703A98EF18EF5FA930680085C
:101D3800F3B6068093F6860836C60F1000009306A1
:101D480070052380D704930680FA2380D7040F10E8
:101D5800000098C103C7170313670704A388E702A5
:101D680023800704B247F3A707800F100000410142
:101D780082807D133368E3039308E016630E08003E
:101D88003368F3039308D016630808009378330088
:101D980093B818009388D81633081E01131E08013B
:101DA800135E0E0155B56393E50305486386080085
:101DB8000148630303002A8871087298FD15131EF1
:101DC8000801C205135E0E01C18179BD13F8150023
:101DD80063F4BF007908D5B713381800E5BF83C787
:101DE800F60293F70708A303F1000346710083C7BF
:101DF800F60293F70708E394C7FE8347710093F749
:101E0800F70FF1DFE9B531714AD966CB06DF22DD7C
:101E180026DB4ED752D556D35AD15ECF62CD6AC98A
:101E28006EC7AA8C02D8EF0010122A89930780087F
:101E3800F3B7078093F787083EDA0F100000B7174B
:101E48000040130770052380E704130780FA2380F6
:101E5800E7040F10000003C7F7021377770FA38773
:101E6800E70203C7F70213678700A387E702238007
:101E78000704D257F3A707800F1000000545AD33BC
:101E8800130780C13347E902116A93070AE89306EA
:101E98005002BD69930BA004814A014B13048008CA
:101EA800930470057D1AB347F9023307D7023EC081
:101EB800FD873ECC938709A69309803E3347F702F6
:101EC8003AC27D873AC4334739038549B3999901A2
:101ED80093D93940B306D702B30B7703B3C6F602DA
:101EE800B3CBFB0236C6FD8636C893D6FB4136CE49
:101EF800B7460F00938606243349D9028566938630
:101F080006FAB3969601B389E902130760553309B7
:101F1800D90293060010B389E9023349D902B3C93B
:101F2800F9029316390036CA37190040FD8636D0B3
:101F3800930D090493D7F9413ED2F336048093F602
:101F4800860836DC0F100000930770052380FD001B
:101F5800930680FA2380DD000F10000083463905C0
:101F680093F6860FA309D9048346390593E616002C
:101F7800A309D90423800D00E256F3A606800F10AA
:101F88000000130C80FA116DF336048093F686086E
:101F980036DE0F100000930770052380FD002380B4
:101FA8008D010F10000083463905216693E606026D
:101FB800A309D90483560905B3E6A6012318D90451
:101FC80083560905D18E2318D90423800D00F256B3
:101FD800F3A606800F1000008346390593F6060223
:101FE8006389061803463905218A6DDE0818612FB2
:101FF8007336048013768608B2C20F10000023805F
:102008009D0023808D010F100000B717004003C604
:1020180037051376F60DA389C70403C6370513667B
:102028000602A389C704835609052166B3E6A601FB
:102038002318D90483560905D18E2318D90423807F
:102048000D009646F3A606800F100000834639055A
:1020580093F606026386061483463905A18AEDFEC7
:1020680097E0FF1FE780A002AA8636D497E0FF1FFB
:10207800E780E001A256E30AD5FE835609054255DA
:10208800B3E6A6012318D904392F83463905A18A56
:10209800EDDE035609058346290582473376CA00D3
:1020A800B306DA0293D5F641B296B388F640E24712
:1020B80033B8C6002E983308F840A247B3B61601C5
:1020C8003308D84063C70701631DF800924763FAD5
:1020D8001701C247634DF80E63950701B24763E8DD
:1020E800F80E894663E7660FF2469315180013D376
:1020F800F8015E8613951800B365B30042D646D43E
:10210800EF80D1453258050B137BFB0F6347000165
:1021180063120838A258638F083613081500B336BF
:10212800A800B69513D6F5013298B336C800AE9616
:1021380013581800FE06B3E60601733604801376BA
:102148008608B2C60F10000023809D0023808D01F1
:102158000F1000000356C902B296C206C1822316A8
:10216800D90223800D00B646F3A606800F100000A2
:1021780021BDF336048093F68608B6C00F10000020
:1021880023809D0023808D010F10000083463905B0
:1021980093E60602A309D90423800D0086460DBDE7
:1021A800F336048093F68608B6C40F100000238027
:1021B8009D0023808D010F1000008346390593E6AA
:1021C8000602A309D90423800D00A646A5BDE30D88
:1021D8000BF0F336048093F68608B6C80F1000009B
:1021E800930680FA23809D002380DD000F100000F5
:1021F8008346390593F5FC0F93F6860FA309D90496
:1022080083463905CD8EA309D90423800D00C6461F
:10221800F3A606800F100000130580FA034639055F
:10222800930639051D8A631496297336048013763C
:102238008608B2CC0F100000130680FA23809D0098
:102248002380CD000F10000003C606001376F60D9C
:102258002380C60003C60600136606022380C60054
:10226800835609051166D18E2318D90483560905AA
:102278002166D18E2318D90423800D00E646F3A6E3
:1022880006800F100000130680FA8346390593F67E
:1022980006026388062483463905130C3905A18A8A
:1022A800FDDA0818CD21F336048093F68608B6D0F7
:1022B8000F100000930680FA23809D002380DD0024
:1022C8000F10000083460C00116693F6F60D2300EC
:1022D800DC0083460C0093E606022300DC008356EC
:1022E8000905D18E2318D904835609052166D18E94
:1022F8002318D90423800D008656F3A606800F10F4
:102308000000130680FA8346390593F606026385B2
:10231800062083463905A18AEDFE97E0FF1FE78076
:1023280000D72A8C97E0FF1FE78060D6E30C85FF73
:102338008356090511664255D18E2318D904A52163
:102348008346390513063905A18AFDDAF336048078
:1023580093F68608B6D40F100000930680FA2380FF
:102368009D002380DD000F1000008346060093F6D1
:10237800F60D2300D60023800D00A656F3A606808E
:102388000F1000008356090503462905D247B37686
:10239800DA003306CA021305800C9355F6413696C7
:1023A800330DF6408257333CD6002E9C3336A601B7
:1023B800330CFC40330CCC403308850392564E86D0
:1023C800B335A5033305A503C295EF8031196346DC
:1023D8008001631E0C16630C0D16130615003335A9
:1023E800A6002E959356F5013696B335D600AA95D4
:1023F8009396F50105828585D18E6346B000639D6D
:10240800051A638B061A0356C90215823305D600CE
:102418003336C500B2956348B000639105241306AE
:10242800F00F637DA622894663F35615930780084B
:10243800F3B7078093F78708BED60F100000371749
:102448000040930770052300F704930780FA2300E0
:10245800F7040F1000008356C70289678117D58FCC
:10246800C207C1832316F70223000704B657F3A750
:1024780007800F100000FA506A54DA544A59BA59C2
:102488002A5A9A5A0A5BFA4B6A4CDA4C4A4DBA4DA8
:10249800296182801308F5FF3335A800FD152E95B4
:1024A8001356F5013298B336C800AA9651B1F336DF
:1024B800048093F68608B6CA0F10000023809D009A
:1024C8002380AD000F10000083463905CD8EA30987
:1024D800D90423800D00D646F3A606800F1000000D
:1024E80035BBF336048093F68608B6CE0F1000008D
:1024F80023809D002380CD000F10000083463905FE
:1025080093E60602A309D90423800D00F646F3A634
:1025180006800F10000095BBF336048093F68608FA
:10252800B6D20F10000023809D002380CD000F102D
:1025380000008346390593E60602A309D9042380DF
:102548000D009656F3A606800F1000006DBB93068B
:10255800F5FF33B5A600FD152E959355F501AE96FA
:10256800B3B5B600AA951396F501858269B5F33619
:10257800048093F68608B6D80F100000930680FAF8
:1025880023809D002380DD000F1000008356C902C0
:102598000566011693F6F60FD18EC206C182231680
:1025A800D90223800D00C656F3A606800F1000003E
:1025B800850A93FAFA0F51B233E6B60045C20356BC
:1025C800C9023305D0403338A000B305B040B38505
:1025D800054115826345B000D1E16371A6088946BB
:1025E80063F0560593078008F3B7078093F78708C9
:1025F800BEDA0F100000B7170040130770052380DC
:10260800E704130780FA2380E7040F10000003D7BC
:10261800C7027D8B2396E70223800704D65781BD26
:10262800F336048093F68608B6DC0F100000930694
:1026380080FA23809D002380DD000F100000835660
:10264800C9020566011693F6F60FD18EC206C1823D
:102658002316D90223800D00E656B9B793078008E0
:10266800F3B7078093F78708BEDE0F10000037170F
:102678000040930770052300F704930780FA2300AE
:10268800F7040F1000000356C70293975600B2973D
:10269800C207C1832316F70223000704F657C1BBFC
:1026A800914763EEB70217A70100130727298A0588
:1026B800BA959C41BA978287B717004003A7470B82
:1026C8001345F5FF698F23AAE70A03A7070B698F4C
:1026D80023A8E70A03A7070A798D23A0A70A8280FF
:1026E800B717004083A6470B1347F5FFF98E23AAB7
:1026F800D70A83A6070B558D23A8A70A83A6070A1E
:10270800758F23A0E70A8280B717004003A7470BFD
:10271800498F23AAE70A03A7070B1345F5FF45BF0F
:10272800B717004083A6470B1347F5FF758F23AAF9
:10273800E70A03A7070A598D4DB7B717004003A743
:10274800470B498FEDB7B7170040884742054181CD
:102758009377050491EB9377F5013755E801130555
:1027680005803345F50282809377050C1307000432
:102778006397E7009377F50137459C1CCDB7216532
:10278800130505D0828037E700E01C435443A1833A
:10279800E206D58F1CC1FD572320F7182322F7180E
:1027A8000F100000828013178500B7E700E023A010
:1027B800E710618123A2A7108280B7F700E088475D
:1027C800CC478280814737370040A14663C4C700A1
:1027D800328582800345B740E38EA6FE3385F50037
:1027E8000345050085072304A740CDB797F7FF1FCA
:1027F8009387C74C9C4317270020130767F63E951D
:10280800636EE50017470020130747DF6368A700DA
:1028180017F7FF1F2324A74A3E858280FD57EDBF87
:10282800411122C406C62A84393F2947B307E50265
:10283800B2408D83B3D7870222449507B3D7E70206
:1028480037370040C207C1832316F7404101828011
:10285800716541111305052006C6D937B737004001
:10286800130770F82381E7400D47A381E74013075A
:102878000004A380E74005472387E740B2404101B1
:1028880082802384018223A60182B717004003A710
:10289800070CB706C0FFFD16758F23A0E70C03A72A
:1028A800070DB7064000558F23A8E70C03A7070CB0
:1028B8003D9B23A0E70C03A7070D1367070123A877
:1028C800E70C828023A6A18213064006894503C52A
:1028D80041836F309138B717004003A5470C83A791
:1028E800470C598113451500C18B058999E3136578
:1028F800250083C78182638CA7002384A18201C934
:102908009387C18203A307006303030002838280C5
:1029180011456FF04FCF411193962500AA852D459B
:1029280006C697E0FF1FE78000B9B24001454101A4
:102938008280011122CC06CE3714004026CA4AC82C
:102948004EC652C483447405034AB40583498405BA
:1029580003499405EFF00FA68347A40593F4F40FF9
:10296800137AFA0F93E71700230DF40493F9F90F7C
:102978001379F90FB717004003C7A705058B6DFF3B
:1029880003D5C705A38D4705238C3705A38C2705D9
:10299800A38B9704F2406244D2444249B249224A86
:1029A8000561828041119397050122C406C6C1873B
:1029B8002E8463DA0700EF30E17519C1EF306169E1
:1029C8002165218D1DA093F7150013C5150091EF02
:1029D80093F7250099CF01371306000A894503C5E7
:1029E8004183EF30912713452400B240224441012E
:1029F80082809397250163D00702EF50A169093FB0
:102A080037F60200130606E0896503C54183EF30F7
:102A1800D12409657DB7939715010145E3D707FCD4
:102A280017A50100130545F7EF80514C1306006404
:102A3800916503C54183EF305122116559B72D7156
:102A4800232A9110FD74E98C232C8110232821114D
:102A5800232631112A84AE893289930600100A860A
:102A6800A6852D45232E111097E0FF1FE780A0A40F
:102A78001315440151810A0513962900CA850A9540
:102A880097E0FF1FE780E016A68585660146254585
:102A980097E0FF1FE78020A20A86A685930600100C
:102AA800294597E0FF1FE78000A18320C111032477
:102AB800811183244111032901118329C110156152
:102AC8008280B7F7070003C70701411106C622C471
:102AD80026C24AC0A547631AF7009537B240224478
:102AE8009244024901454101828013942500AA8439
:102AF8003289A286AA850146254597E0FF1FE7800F
:102B0800809BA2864A86A685294597E0FF1FE78015
:102B1800809AE9B71D71494697A50100938545E359
:102B280017B501001305C5E986CEA2CC97E0FF1FB3
:102B3800E780201301E917A501001305A5E2EF803E
:102B4800F13A01A037F700E0795610CBFD5654CB87
:102B5800B7E700E0056423A087109306F00214C3CA
:102B680023A087180F10000017E7FF1F1307C75689
:102B780023A8E1824157A38AE74013060004814550
:102B8800080897E0FF1FE780A00A970700209387AF
:102B9800E72D3EC89D673ECCB70701059387071010
:102BA8003ECEED472310F10285472301F102970736
:102BB8000000938787D6BEC2970700009387A7F0C7
:102BC800BEC48567938757D12312F1029707000087
:102BD8009387E7BE3ED8B7F50700970700009387AD
:102BE80087D53EDC8146970700009387A7D230003F
:102BF800E10519453EDE231A810097E0FF1FE780B3
:102C0800808B18088147994630003E960346060097
:102C180085070507A30BC700E398D7FEC24791C7EE
:102C28000357410185676373F70001A00808EF3077
:102C3800F14BAA8501C917A501001305E5D3EF805B
:102C4800B11601A0F640664425618280411117053E
:102C58000000130565D506C622C4EF30B1451384BC
:102C680041832300A4002128293903450400224474
:102C7800B24013060032896541016F30017E7971D7
:102C880006D613078008F337078093F787083EC2F4
:102C98000F100000B7170040930570052380B70494
:102CA800130680FA2380C7040F10000083C6F702BA
:102CB80093F6A60FA387D702238007049246F3A6AC
:102CC80006800F10000073370780137787083AC40F
:102CD8000F1000002380B7042380C7040F100000E2
:102CE80003C7F70213672700A387E70223800704B7
:102CF800A247F3A707800F1000000545EFE0DFEEBD
:102D08000139814701478146054685451305407EBF
:102D1800EFE07FF268005146814597E0FF1FE780AA
:102D280020F1B707C0A83EC8B787E803938707D044
:102D38003ECA680097D7FF1F9387A7683EC6EF3043
:102D4800D15FB250456182801387C1668147BA85D9
:102D5800130690028356070089CE139547002E95D7
:102D680054411398360063460800139826006357A9
:102D7800080085074107E39FC7FC014582809386C9
:102D8800C166814736871306900283D5060063968D
:102D9800A50092073305F70082808507C106E396F0
:102DA800C7FE01458280D8414111A16722C406C6E9
:102DB80026C29386B7012A846306D7089387D70368
:102DC8006305F7044DEF97A50100938565C617A520
:102DD8000100130565F0EF80217D17A5010013059B
:102DE800A5F0EF80617C2945EF80110083576400CE
:102DF8007D77F98F93E757002313F40089471CC4A4
:102E0800B240224492444101828097A501009385F3
:102E180025C217A50100130525ECEF80E17817A559
:102E28000100130525EEEF8021782945EF80C17B4D
:102E3800835764007D77F98F93E757002313F400D5
:102E48008D4775BF97A50100938585BE17A501001D
:102E5800130585E8EF80417517A50100130545ECBA
:102E6800EF8081742945EF802178835764007D774E
:102E7800F98F93E757002313F400914749B7AE84BD
:102E880017A50100130545E597A50100938545BAE7
:102E9800EF808171CC4017A501001305A5EAEF80EA
:102EA800A1702244B2409244294541016F80C17308
:102EB800411197A501009385A5B317A50100130536
:102EC800A5E106C6EF80416EB240294541016F80F9
:102ED800A171411122C497A501009385E5BA2A84FE
:102EE80017A50100130545DF06C6EF80E16B2945EC
:102EF800EF80816F5840A16793879704631BF7049D
:102F080003D5618469C1EFF0402603D56184853D0E
:102F1800835765007D777D17F98F232405002310DB
:102F280005002313F50097A501009385E5B517A5BE
:102F38000100130565DAEF80216717A50100130565
:102F4800A5CCEF8061662244B240294541016F80DB
:102F5800A169DD3B05E197A501009385E5B217A5B9
:102F68000100130565D7EF80216417A5010013053B
:102F7800E5CAC1BF834604001307F00F6390E60457
:102F880097A50100938545B017A501001305C5D481
:102F9800EF8081614C4017A501001305E5C9EF805A
:102FA800A1602945EF8041642244B24003C5C18332
:102FB8001306803E854541016F30214A5C45A28554
:102FC8009C438297D5B7B240224441018280411187
:102FD80022C406C6834705002A849DC397A501001D
:102FE8009385C5AB17A50100130505CFEF80C15B1D
:102FF8004C4017A50100130525E8EF80E15A71A0A0
:103008005841B707CF009387777D631CF70C97A5C6
:1030180001009385A5A817A501001305E5CBEF804E
:10302800A1581C448356E4008355C40003C6070016
:1030380017A501001305C5E5EF8001572945EF8065
:10304800A15A0356C4000C441385C15897E0FF1FCA
:10305800E78020BA03C7C158930720086317F70E03
:103068000357C40085476308F70297A501009385B5
:10307800E5A217A50100130525C6EF80E15217A5A3
:103088000100130565E3EF8021522244B24029452F
:1030980041016F806155914503C5C183EF30C1512E
:1030A8000355E400EFF0600C0355E400C939835779
:1030B80065007D777D17F98F23240500231005000F
:1030C8002313F50097A501009385459D17A50100D9
:1030D800130585C0EF80414D17A50100130585DF55
:1030E8005DB7B707CE009387777D631AF70297A578
:1030F80001009385A59A17A501001305E5BDEF808A
:10310800A14A1C448356E4008355C40003C6070043
:1031180017A50100130585DDEF800149BDB7B70785
:10312800CC009387777D6302F70297A5010093850A
:10313800E59617A50100130525BAEF80E1464C4036
:1031480017A501001305C5DC4DBDB240224441015D
:103158008280397126DA4AD84ED6AE84AA89328955
:1031680081457146480006DE22DCEFE05F880544B1
:103178002313810023143101EF00B07C9307001959
:103188002305A1003EC64A86FD57A6854800A3052B
:103198008100230AF100EF00507DF2506254D254AE
:1031A8004259B259216182801C45411106C622C488
:1031B80026C209476382E7060D476382E70A05448A
:1031C80063918702835505000355450017A7010041
:1031D800130747C585460146EF30D060AA8401E948
:1031E80001442285B240224492444101828097A53D
:1031F80001009385658517A501001305E5ADEF80EE
:10320800A13AA68517A50100130545B5EF80C13978
:103218002945EF80613DF1B7035605000355450088
:103228009307707D01478546B285EF30F05C2A84AC
:1032380045D997A501009385258117A50100130598
:10324800A5A9EF806136A28517A501001305C5B3AE
:10325800EF8081352945EF802139054459B7035658
:103268000500035545009307707D0147B166B28597
:10327800EF30305A2A842DD5979501009385C57C67
:1032880017A50100130545A5EF800132A28517A5F2
:1032980001001305E5B16DBFD841411122C406C62E
:1032A80026C22A841DCFA1679387D703630DF7062B
:1032B800AE8417A50100130525A2979501009385F3
:1032C800E577EF80612ECC4017A50100130585A78F
:1032D800EF80812D2244B2409244294541016F80FC
:1032E800A130979501009385657517A50100130511
:1032F800A59EEF80612B17A5010013056598EF8047
:10330800A12A2945EF80412E835764007D77F98FE4
:1033180093E717002313F40089471CC4B2402244E2
:10332800924441018280979501009385257117A5E4
:1033380001001305659AEF80212717A501001305E1
:10334800E595EF8061262945EF80012A83576400BF
:103358007D77F98F93E717002313F400914775BF22
:10336800411122C406C62A841385C16615E02A873E
:103378008147130890028358070063900808139444
:1033880047002A942312B4002310C4002311D40048
:103398001387C1668147930590028356070099CE2B
:1033A800630ED60093964700AA96D4421398360027
:1033B80063460800139826006359080685074107E5
:1033C800E39DB7FC81471397D70083576400F976CC
:1033D800FD16F58FD98F2313F4001397270163493E
:1033E800070013060064854503C5C183EF30E10675
:1033F8002285B24022444101828085074107E39C2F
:1034080007F7979501009385656117A501001305D6
:10341800A58CEF80611917A501001305E589EF80D8
:10342800A1182945EF80411CE1B7854769BF4111C3
:1034380022C44AC02E842A89979501009385456243
:1034480017A501001305458906C626C2EF80C115D8
:103458002945EF8061190545EFE0307F15C5AA843D
:10346800979501009385C55F17A501001305C586CB
:10347800EF808113A68517A501001305A596EF8097
:10348800A1122945EF8041162285EFF05F8F19C5FB
:1034980083576500139737016341070685462286DF
:1034A800CA857D3D0DE9979501009385655B17A554
:1034B800010013056582EF80210F17A50100130590
:1034C800A594EF80610E2244B240924402492945F6
:1034D80041016F80611197A701009387A7695CC5B7
:1034E80003C781848357650019CF7D77F98F93E7E8
:1034F80017002313F50085471CC5B24022449244A7
:103508000249410182807D77F98F93E717002313E1
:10351800F5009147D5B7011122CC26CA2E84AA847A
:103528009795010093858555179501001305C57A70
:1035380006CE32C6EF8041072945EF80E10A228591
:10354800EFF0FF83B24619C583576500139737011B
:10355800634F07042286A685213505E99795010062
:103568009385C5511795010013050577EF80C103B1
:1035780017A5010013054589EF8001036244F24055
:10358800D244294505616F80210697A701009387DA
:10359800E75E5CC503C781848357650011CF7D77DB
:1035A800F98F93E757002313F50085471CC5F240B0
:1035B8006244D244056182807D77F98F93E7570092
:1035C8002313F5009147DDB7411122C497950100F7
:1035D8009385C54E2A84179501001305E56F06C625
:1035E800EF70917CA28517A50100130565ABEF70FC
:1035F800B17B2945EF70517F83D7C167C9CF9795B4
:1036080001009385A54B179501001305E56CEF7034
:10361800B17983D5C1671795010013056563EF700C
:10362800B1782945EF70517C930720FA03D5C1671B
:103638002386F158A386A158935785000D46938594
:10364800C1582387F15831369377F50F2A848DCBEB
:103658009795010093858546179501001305C56761
:10366800EF7091749375F40F179501001305455F7A
:10367800EF7091732244B240294541016F70D176B1
:103688002244B240056603C5C1831306062C914542
:1036980041016F20915CB2402244410182800111B6
:1036A80022CC06CE26CA93F715002E84638907120A
:1036B800EFF08FE9AA841DE5979501009385C5343D
:1036C8001795010013054561EF70116E17950100FC
:1036D8001305C554EF70516D2945EF70F17013440F
:1036E8001400F9A0035765008567FD177D8FB306A1
:1036F800F700FD8E835765007D76F18FD58F2313F4
:10370800F5004DEF97950100938505301795010059
:103718001305855CEF70516917950100130505289D
:10372800EF7091682945EF70316C03D50400EFE024
:10373800D02303D50400EFF08FE4835765007D772D
:103748007D17F98F2313F5002324050023100500A6
:10375800979501009385452B179501001305C557CB
:10376800EF709164179501001305C576EF70D1636A
:103778002945EF7071671386C16681463285054811
:103788009305900283570600B1C7139746002A97FE
:103798005C439394370063CF0402F583858B639B66
:1037A800070383576700F976FD16F58F2313F70093
:1037B8002285F2406244D244056182805C45DC4344
:1037C8008297E30E05F083D764000567D98F2393AA
:1037D800F40055B785064106E396B6FA09B793F79C
:1037E8002500D9C783D7C167ADCB979501009385CD
:1037F800A52E179501001305254EEF70F15A83D5B4
:10380800C167179501001305E51AEF70F1592945AD
:10381800EF70915D938701829C4311466C0003D53C
:10382800C1673EC6EFF0FF929377F50FAA8495C75C
:10383800979501009385452A179501001305C549F9
:10384800EF70915693F5F40F1795010013050518BD
:10385800EF7091552945EF703159096613060690A6
:10386800894503C5C183EF20513F1344240089B71C
:1038780093F745009DC7979501009385E525179512
:10388800010013056545EF703152179501001305C6
:10389800E514EF7071512945EF7011551344440038
:1038A80001BF014431B71C45411106C622C4054772
:1038B8006387E7000947638CE704054505A083553E
:1038C800050003554500179701001307A7558546BE
:1038D8000146EF3020712A8411E50145B2402244A7
:1038E80041018280979501009385C51617950100BF
:1038F8001305853EEF70514BA285179501001305FE
:10390800E545EF70714A2945EF70114E7DB70356B2
:103918000500035545009307707D05478546B28528
:10392800EF30806D2A8455D99795010093858512CB
:10393800179501001305453AEF701147A2851795B1
:1039480001001305654475BF411122C41795010094
:10395800130585382E84979501009385250A06C698
:10396800EF709144A285179501001305A530EF70FB
:10397800B1432945EF70514795476319F400224434
:10398800B2408545054541016FE010302244B24000
:10399800054541016FE0702B411122C426C22A84DB
:1039A800AE8417950100130525339795010093857B
:1039B800250C06C6EF70513F29450588EF70D142A6
:1039C80029C09546014681452685EF1070762A84E0
:1039D8000DC9979501009385A50917950100130551
:1039E800A52FEF70713CA285179501001305854638
:1039F800EF70913B2244B2409244294541016F70D7
:103A0800B13EB240224492444101828001113546C0
:103A180097950100938505131795010013050579FE
:103A280006CE22CC97D0FF1FE780A02301E9179587
:103A38000100130525F3EF70714B01A097E7FF1FF5
:103A4800938787353EC4B7F507008567938707CB0B
:103A5800814613860184E10519453EC697D0FF1FAC
:103A6800E78060A519469385018417F5FF1F1305A4
:103A7800253697D0FF1FE780C017340013860184CE
:103A8800979501009385C54B179501001305C54C03
:103A9800EF1050452A840DC9979501009385C502FA
:103AA8001795010013054523EF701130A28517956E
:103AB80001001305250AEF70312F2945EF70D13227
:103AC800F240624405618280EF70B07E1795010074
:103AD8001305C501EF0090669387C16617F7FF1FAE
:103AE8001307872D23A4070023900700C107E39B32
:103AF800E7FEEF40D073EFE0901017E5FF1F1305C6
:103B080025F1EFE0407417950100130525FFEFE05C
:103B1800D0102A84EF10A03EEFA0002EEF005137FE
:103B2800EF208057EF105019EFC0F00A9795010069
:103B3800938585F9179501001305051A09C8EF70D3
:103B4800B126A2851795010013050503ADB7EF70DF
:103B5800B1251795010013056504EF70F124294577
:103B6800EF709128EFC0806D85472384F184EF9032
:103B7800201829C597950100938505F5179501002B
:103B880013058515EF70512217950100130585025D
:103B9800EF7091212945EF703125979501009385A4
:103BA800A5F21795010013052513EF70F11F17955E
:103BB800010013052504EF70311F01B79797010025
:103BC8009387472705478146014681451795010098
:103BD80013054527EF10105C2A8461D197950100E1
:103BE800938585EE179501001305050FEF70D11B1E
:103BF800A28517950100130525FE75BD411117050E
:103C08000000130505AA06C622C4EF20B14A138492
:103C1800C1832300A40017E5FF1F1305A5E1EF00EA
:103C2800B00AED33EFE0FFC5170500001305059A4C
:103C3800EFE05FC9034504002244B240056613065D
:103C4800062C894541016F20510101113546979590
:103C58000100938525EF179501001305255506CE1C
:103C680097D0FF1FE780E0FF01E9179501001305D2
:103C7800A52BEF70B12701A0EF50915C2AC6EF0089
:103C88003163EF007142EF70801DF24032450561EB
:103C9800828041111305800406C697C0FF1FE78084
:103CA8008040371700408327870A8D451305002079
:103CB80093E707202324F70AEFE09F9EEFE05FB920
:103CC80017A501001305C5CFEF7051221795010004
:103CD8001305C54DEF709121EFE0DFE3EFE01FF72B
:103CE800AD37293F97C0FF1FE7808070014582806C
:103CF800B7F7070003C70701A547AE866316F700A5
:103D08009397450191C301A0AA850146254517C38C
:103D1800FF1F6700437A4111B2862E86AA852D457A
:103D280006C697C0FF1FE7800079B24001454101F0
:103D380082809307000463E6C7021D71A2CC2A841F
:103D4800080886CE32C6EF70C17AB2461008A2853E
:103D5800294597C0FF1FE7800076F6406644256135
:103D68008280395582809387C18418429C4383D6C8
:103D780045000345070083C5C70003564600639600
:103D8800A50083D5E700638DD502011106CE2386F1
:103D9800A7002397D700B705CF00DC4B9385757D27
:103DA80005077D162EC2230001003AC42316C10060
:103DB8002317D10099C30A858297F2400561828052
:103DC80082806D713C083EC6B707E500232291103A
:103DD8003EC8AA843C083285232611103ECA2324F3
:103DE8008110232021112E89EF20A04A2A8497953B
:103DF80001009385251A179501001305E5EDEF706D
:103E0800A17AA2851795010013054526EF70C1799F
:103E18002945EF70617DB705CD009385757D6800F4
:103E2800EF00702BA2856800EF20403C01478146D7
:103E38007000CA852685EF00504A15C52A849795D3
:103E4800010093852515179501001305E5E8EF7026
:103E5800A175A2851795010013050522EF70C1749D
:103E68002945EF7061788320C110032481108324D1
:103E780041100329011051618280797122D452CCFA
:103E88002E842A8A9795010093854512179501007B
:103E9800130585E406D626D24AD004424ECE32898E
:103EA80083594600EF70417003572400830684004D
:103EB80003566400835544001795010013054521F6
:103EC800EF70816E2945EF7021729387C1849C43FE
:103ED80003C7040083C607016398E600035644003D
:103EE80083D6E700630AD6022388E7008356440096
:103EF8003707CE001307777D2397D700DC4B85045F
:103F0800FD193AC22300010026C4231631012317E4
:103F1800D10099C30A8582974A86A285528555356C
:103F2800B250225492540259F249624A4561828041
:103F38006D713C083EC0B707E5003EC23C083EC470
:103F48002326111023248110232291102317010006
:103F58002318010023190100231A0100231B010063
:103F680097E7FF1F83D707AF99E3C167FD172316AC
:103F7800F10097E7FF1F83D707AE81EB9387C184D2
:103F88009C439C43DC4783D7070017E4FF1F1304B7
:103F980064AC584C2317F10083574400484B23184E
:103FA800F10005ED979501009385450517950100EA
:103FB800130585D2EF70415F1795010013050508B9
:103FC800EF70815E2945EF7021628320C1100324C0
:103FD8008110832441105161828097E7FF1F83C7B6
:103FE800D7A799E7EF20E1065C4C23AA0700F1BFA9
:103FF800FD1797E6FF1FA382F6A60356070183471E
:1040080004014C470A85230BF100EF20401C9387DD
:10401800C1849C430147814688430A866C00EF00AF
:10402800D02BAA8405C997950100938525FD17957E
:104038000100130565CAEF702157A6851795010081
:1040480013058500EF7041562945EF70E1595C4C26
:10405800C84B49BF97E7FF1F83C737A0EDDB104464
:10406800854503C50185EF20413F85B7411122C42D
:1040780026C22E84AA8497950100938525FA179560
:104088000100130565C506C6EF700152A685179590
:1040980001001305250BEF7021512945EF70C1541C
:1040A8005C4CDC4B99CB10442244B240924403C58B
:1040B8000185914541016F20413AB2402244924422
:1040C800410182805C4EDC4BA1C7B9C1411122C4B9
:1040D80017950100130545C02E8497950100938517
:1040E80025F306C6EF70414CA2851795010013050C
:1040F800A506EF70614B2945EF70014F2244B2408D
:1041080003C5018513064006914541016F20E1343E
:104118008280411122C417E4FF1F1304A4951C4C8C
:1041280006C689C7DC4399C34C4882975C4CC84B88
:10413800EF1031725C4CB240224423AA07004101BF
:1041480082801387918483470700850793F7F70FC9
:1041580093968701E18663C70600A384F18403452B
:1041680007008280A3840184DDBF83574500638DE7
:10417800070C01114AC817E9FF1F1309A98D52C47A
:10418800032AC90106CE22CC03274A0126CA4EC6F5
:10419800F15729EB1307D00DFD576365C7042A842F
:1041A8001305860042054181B284AE89EF10916FF4
:1041B800232AAA000325C9015C4995EF97950100B8
:1041C8009385C5E117950100130505B1EF70C13D51
:1041D800179501001305C5F2EF70013D2945EF70F1
:1041E800A140DD57F2406244D2444249B249224AD2
:1041F8003E850561828093874400B705CF00231967
:10420800F5009385757D3105EF00E06C0325C90144
:10421800834564003105EF10707D0325C9012686AA
:10422800CE853105EF10B07A7146A2854A85EF70C8
:10423800412C504401CA854503C50185EF20E12181
:1042480081474DB7F531EDBFFD573E85828041115D
:1042580022C417D4FF1F1304E47F5C4C06C6C84B66
:10426800EF10315F5C4C2244B24023AA070003C51B
:104278000185854541016F2021341387C1841C4382
:10428800BDCB411126C2BA84D84306C622C439CF51
:104298002300B50058C123A4070023A2070097D71D
:1042A800FF1F9387277DDC4F2A84DC4B99C3295550
:1042B8008D3597D7FF1F9387E779DC4FDC4B91C388
:1042C8007937894503C50185EF20012F914503C53D
:1042D8000185EF20612E9C4003A34701630803007A
:1042E80022852244B240924441010283B2402244D2
:1042F80092444101828082800111328506CE22CC0F
:1043080026CA2E84EF10F078AA8497950100938529
:1043180065CB179501001305259CEF70E12803076D
:1043280084000356640083554400A686179501004F
:10433800130545D7EF7041272945EF70E12A97D734
:10434800FF1F83C78773639797000145D93381455A
:104358000A852537F2406244D244056182806D7136
:1043680023248110232611102322911093F715007E
:104378002E8489CFEFF0DFBB134514008320C110D2
:1043880003248110832441105161828093F7250012
:104398008DC341468145280897D0FF1FE780408993
:1043A8002555853B28089305F00FC13D134524008A
:1043B800F1B793F745000145F1D33C083EC0B70774
:1043C800E5003EC23C083EC4231701002318010043
:1043D80023190100231A0100231B010097D7FF1F8F
:1043E80083D7476999E3C167FD172316F10097D76B
:1043F800FF1F83D7476881EB9387C1849C439C4305
:10440800DC4783D7070017D7FF1F1307A7662317B3
:10441800F100544F835747002318F100DC4A9DE709
:1044280097950100938545C0179501001305C58A26
:10443800EF70811717950100130545C0EF70C1167D
:104448002945EF70611A134544000DBF97D7FF1F28
:1044580083C7B7622555B5C7FD1717D6FF1FA30E2B
:10446800F66003D6060183470701CC460A85230B6D
:10447800F100EF10D0559387C1849C4317D7FF1FD5
:104488001307475F979601009386C66F88430A868D
:104498006C00A125AA8445D9979501009385C5B8D4
:1044A8001795010013054583EF700110A685179530
:1044B8000100130565B9EF70210F2945EF70C1128E
:1044C8002685EFF01FC541B75C4D411106C688C36C
:1044D800170500001305E5E823A6F184EF20813DC8
:1044E800B2402388A184014541018280EFD28FCB5D
:1044F8002A8408452E89B28909C900C19705000098
:104508009385C5736105EF00812B81447D5AEF10B7
:10451800E00363C3A4048144EF10400463C6A40409
:1045280097070020938707989C43DC47B307F94017
:1045380091872302F400638109048327C900B30724
:10454800F4409587A302F4001C4C89C79C4799C383
:10455800228582976FD04FC85C4413971400850456
:10456800BA972390470165B71C4813971400850430
:10457800BA97239007004DB7832789000547B307EB
:10458800F4409587A302F40083570400638EE70282
:104598008DC309476384E7040D47E397E7FA9797C4
:1045A80001009387670F1CCC979701009387C70F6B
:1045B80011A8979701009387A7D51CCC979701005E
:1045C800938707D65CC849B797970100938747C177
:1045D8001CCC979701009387A7C1EDB79797010067
:1045E800938747101CCC979701009387A710D9BFD2
:1045F80085E1EFD2CFBC0046184483479400758309
:104608009D8B6315F700EF00B01948C46FD06FBDDC
:104618008280EFD22FB913893500C1644209411154
:10462800AA890144F11413590901054A2EC6EF005D
:10463800F071B2456346A400014541016FD0CFB97E
:1046480083A7090013171400BA9783D70700638854
:10465800B7006394970063742A010504C1BF054538
:10466800E9BFEFD24FB3AA892E89328BB6843A8A32
:10467800BE8AEF80E0674DC12685EF1030318D4747
:1046880063E5A7007D556FD08FB483DB4400EF004E
:10469800F0712A84EF00D072930774003144330517
:1046A800850263C5A702EF007070EF0030702A849E
:1046B800EF0010719307740031443305850263CD10
:1046C800A702EF00B06E9307450019A8EF00506FDE
:1046D800330585021307F0179307C017E357A7FCA4
:1046E8002D55E3C277FB63000B02D6865286A6855A
:1046F8004A85EFF0600E41BFEF00906C33058502EC
:104708009307C5FFF1BF832749001385C90083D5E7
:104718002700013779F9BDB76955B5B797F7FF1F76
:104728002394A77897F7FF1F9387C777904381470C
:104738000C463307F500420741836393B700828034
:104748005446139847008507C2962390E600D5B7CC
:1047580097F7FF1F938707759C4303C587008280DF
:1047680017F5FF1F035545748280EFD24FA5C16727
:104778001387D7FF6307E5026368A700F117630E85
:10478800F50001456FD0EFA51387E7FF630EE5003D
:10479800FD171D8D13351500F5B7EF40C0617D1568
:1047A800D5BFEF40403FE5BFEF40A03DCDBFEFD2C2
:1047B8000FA14111AA8401442EC6EF00305AB24518
:1047C8006346A400014541016FD0AFA19C48131571
:1047D80014003E9583570500E387B7FE0504E9BF3B
:1047E80003485500814693F7F60F63E507018147B3
:1047F8003E858280584593975600BA9703D727007D
:104808006316B70003D70700E304C7FE8506E1BFB8
:104818008346450001479377F70F63E4D700814744
:1048280011A81C45131657000507B29703D60700B1
:10483800E313B6FE3E858280EFD2CF96931705012B
:10484800C18797FAFF1F938AEA656353F00883A725
:104858000A00C0479C4703570400198D420541814F
:104868006366F500014422856FD00F9712052A94DC
:10487800DDBFDC4713944900014A3E948347440056
:104888006341FA02014A834754006346FA028509E4
:10489800C20993D9090183A70A009847E3EBE9FC09
:1048A800D1B71C4413195A00A6853E994A85013789
:1048B80009ED050AE1B75C4413195A00A6853E992B
:1048C8004A85F53519E1050A7DBFE30209FC61BF98
:1048D800AA848149C9B7EFD28F8E1C452A8481E703
:1048E8009307C5001CC51C44231204001CC0930771
:1048F800F00F63E9B70093F5F50F2285EF10100F5D
:104908006FD02F8E93940501C167C18063F7F500BE
:10491800A6852285EF103011E5B7C18193F5F50F13
:104928002285EF10B00CA6852285EF10700DC9BF47
:1049380097F7FF1F93870757884382801C4599C7BD
:1049480097F7FF1F23A0A756014582807D558280D7
:1049580097F7FF1F938707559843834745004847B4
:1049680092073E958280EFD28F85617100451C18B1
:104978003EC6B70780013EC81C183ECA835744008C
:1049880002CE02D002CC231EF100834784002A897C
:1049980002D22301F1023C083ED402D6553F835788
:1049A80005002316F102EF4080102307A1025C40A6
:1049B80003556400F18313F717008347F10252058A
:1049C8005181F99BD98FA307F102EFE0505239C505
:1049D800AA8403550500EF80803283D704002AD2C9
:1049E8006800231CF10083D72400231DF1001C4814
:1049F80003D647008C43EF10807D8347B400CA86F6
:104A080017860100130646778117A305F4006C008A
:104A18004810EFE0705C5D616FC0BFFC2155E5BFD9
:104A28001C45B1CF03C5A700894613576500630B22
:104A3800D7028D46630ED70285466300D702130757
:104A480040063305E50203C7B700418B15CB83C782
:104A5800B700BD8B3355F54082801375F5031307F6
:104A6800803EC5B709671375F50313070771D1BFF2
:104A7800372709001375F5031307077CD9B70145D4
:104A88008280EFC2DFF303A985006304090483472A
:104A9800B900AE8493F7070E91CF034599009305AB
:104AA80020030D810505B305B50288446105EFF0C3
:104AB800F05C05A02E85AD372A8401CDD52183254C
:104AC800C900B307B54063F887002E94B305A44026
:104AD800E9FD6FC01FF18545C9BFEFC25FEE2A84AB
:104AE80003D50500011132C636C43AC22EC002CA27
:104AF80002CC02CEEF80A02082452ACA22852ECC85
:104B0800813D03570500231EE100EF30507AA2468D
:104B180032469247230FA10036874C08B286228579
:104B28000146EFF01FB405616FC0BFEBEFC23FE96C
:104B380061711C183EC6B70780013EC81C183ECAE2
:104B48003C0800453ED4AA8402CC02CE02D002D250
:104B580002D6FD3B8357050035592316F102EF3085
:104B680010752307A10209C48357440091E721590E
:104B78004A855D616FC0FFE60355640052055181A7
:104B8800EFE0F0362A8965D58347B40093F7070E1E
:104B980089C713058401EFF0F04F83574400231EA3
:104BA800F100834784002301F1025C4003550900AA
:104BB800D98313F7070883471102231CA10093F731
:104BC800F707D98FA300F10283572900231DF100AD
:104BD8005C40F18313F717008347F102F99BD98FE3
:104BE800A307F102EF80A0112AD251D18347940084
:104BF8006800139757008347B400FD8BD98FA3052E
:104C0800F4001C4803D647008C43EF10405CA6878D
:104C18001787010013074756740005464C10268570
:104C2800EFF03FA42A8929D58347B400A685FD8BD8
:104C3800A305F400B9352DBFEFC27FD8832485FEC4
:104C48002A8441112685EFF0BFDD834734FF93F7AF
:104C5800070E9DC32AC62685EFF0FFD019C98347E2
:104C680034FFB245FD8BA309F4FE81C52285EFF020
:104C7800F04041016FC0FFD66DDD8327C4FF268554
:104C8800829765F9834734FF93F7070E81C722851A
:104C9800EFF05040032584FE513DE1BFEFC23FCF06
:104CA8009C4141112A8903C7070089472E849356DE
:104CB8006700638CF6020D466382C6049307F0070B
:104CC8006302F7022E85EF10C05CAA848149C16B8C
:104CD800130C490097F7FF1F9387C71C9C439847FD
:104CE80063ECE90241016FC05FCE03D745008547F9
:104CF800E3FAE7FE2E85EF10A05DC1BF03D745009C
:104D0800E3F2E7FE2E85EF10C058AA842285EF1043
:104D1800A059C204C98C5DBFDC470355A900139A8A
:104D280049003E9A93170501C187635DF0008357D8
:104D38000A006395A70263E574038327CA00034D3D
:104D48005A001DA0A1672167A98F1307F7EFE37425
:104D5800F7FE63950900EFF05FA171FD85099DBF1E
:104D680083278A00034D4A00835DA9000357690021
:104D7800216A138BC7003AC6814A33CA4D01631EA4
:104D88005D0197F7FF1F938767129C43E1DBA286BB
:104D98006286814526858297D1B7A1679387F7EF09
:104DA800930C4BFF63F04703B2455A85EFF07F86BB
:104DB80019CD03278B00104719CA10436380C4021A
:104DC8003107D5BFEE856685EFF07F9E71FD93862E
:104DD8001A0093FAF60F130B0B0255B783564400CB
:104DE8005C43E3EDF6F622853AC6EF108039A167F9
:104DF8009387D7042A8A035D4400324763E8970003
:104E08008347D90093E707F8A306F9001C4766858E
:104E18002286E2858297C1670844FD17337AFA0033
:104E2800529508C02312A40115BF97F7FF1F938757
:104E380067079843814715C31447814763FFD50027
:104E4800939745004C47BE9519C903C7550081473C
:104E58006375E600DC451606B2973E85828003C777
:104E680045008147E37BE6FE16069C45F5B7EFC291
:104E78007FB3AA892E8A814497FAFF1F938A8A02F0
:104E880083A70A00984763E4E4006FC0FFB4DC47D7
:104E98001394440001493E9413BB14008347440013
:104EA800634BF900014913BB140083475400634F57
:104EB800F9008504F1B70844931759005287DA8638
:104EC8000146A2853E9582990509C9BF48449317B2
:104ED80059005287DA860546A2853E9582990509CA
:104EE800E9B7EFC2DFAD814517F5FFFF1305456050
:104EF80097F7FF1F239A07FA9D3F6FC09FAE97F75A
:104F0800FF1F938727FA9C4399CBEFC25FAB81457C
:104F180017F5FFFF1305C55D993F6FC09FAC8280F1
:104F2800EFC25FA841112315E1002E89B284B6892A
:104F38003A8681460147ED452A84EF10B17F2AC69B
:104F48001DCD0356A100CE85EF60A15ACA852285E2
:104F5800EF20A112058915C1228501462C002314D2
:104F68009100EF2081282A8409C5ED452800EF200B
:104F7800C10A228541016FC03FA64944FDB7655467
:104F8800CDBF5C41FD175CC18280EFC25FA3EF100B
:104F9800E14095473305F50281450D816FC07FA437
:104FA800EFC2FFA1EF10813F95473305F5020D8150
:104FB8006FC03FA3EFC2BFA003550500EF10D15348
:104FC8006FC03FA2EFC2BF9F035505003287AE8670
:104FD80017D6FF1F0356E6B097F5FF1F938545EDDB
:104FE80081376FC01FA0EFC29F9DEF5091246FC003
:104FF8005F9FEFC2DF9C97F5FF1F938565EBEF205E
:10500800A12501456FC0FF9DEFC27F9B814517D544
:10501800FF1F035505A9EF2061106FC09F9CEFC2C9
:105028001F9A97F5FF1F9385A5E9EF20E122014517
:105038006FC03F9BEFC2BF98814517D5FF1F03552F
:1050480045ACEF20A10D6FC0DF99EFC25F972E85A9
:10505800EF604079EF60902E6FC0BF98EFC23F9627
:10506800EF6070386FC0FF975C49E1175CC95CC599
:1050780083572501A1072319F50083570501A107C7
:105088002318F5008280F1473305F50297F7FF1FD3
:10509800938707E59C433E9582808D476317F60604
:1050A80003D74600854763F2E706EFC25F9136856E
:1050B80036842E89EF10E01D39C1835744009314BC
:1050C8000501C18063ED97022285EF10801CFD1455
:1050D800231294009307A002630EF5009307B00211
:1050E8006301F50293079002631BF5002285EFD058
:1050F800A01D31A00146CA852285EF8000306FC00F
:105108005F8E2285EF00D059DDBF828097F6FF1FA2
:10511800938646DD9C42014599CF9843D44217F6C1
:10512800FF1F2321E6DC6396D70097F6FF1F23AD08
:10513800E6DA1385C7FE8280EFC27F88C1267144F4
:10514800330585029145EF70700301E565556FC021
:105158005F8997F7FF1F23A3A7D84D26330585023C
:105168009145EF70B0017DD197F7FF1F23AAA7D60D
:10517800712697F7FF1F239DA7D4492697F7FF1F8E
:105188002399A7D4978701009387470417F7FF1F30
:105198002324F7D497070000938747ED17F7FF1FDD
:1051A800232AF7D2014565B7EFC27F81AA8517F593
:1051B800FF1F1305E5D1EF10A0216FC09F82EFC23A
:1051C8001F80DD37EF10402297F7FF1F938787D1A5
:1051D8009C4381CF1387C7FE09CB83D5C7FF17F53B
:1051E800FF1F1305A5D0EFF060696FC08FFFEFC2F6
:1051F8000FFDEFF0BFF111C9834785002A8493F7AB
:10520800070491E70355E5005D3F6FC08FFD8347B5
:10521800C5009304450117F9FF1F1309A9CC85E3BD
:10522800832709005CC997F7FF1F23AD97CA832717
:105238004900E1FF97F7FF1F23A897CAF9B7FD17A1
:105248002306F5006105EF60901F8307840063C99A
:1052580007048347840093E707F82304F400EF105A
:10526800010D4205A94741813375F5028347840042
:1052780093F707FCC98F2304F4008347D4003E95B5
:105288001C402318A40089CF984319CB8347C40036
:105298005040814585073305F50242054181029753
:1052A800832709005CC897F7FF1F23AD97C28327A0
:1052B800490089E797F7FF1F23A897C28347C400CF
:1052C800A9D78355040117F5FF1F130525C2EFF071
:1052D800E05A25BFEFC2AFEE97F7FF1F938747E667
:1052E8009C4701448583858B81EFAE84B2853A86DD
:1052F800EF10E0142A8409C5EF10E00B829408CC63
:1053080022856FC00FEEEFC2EFE941112E8932C638
:10531800AA89692C324713060502CA869705000038
:105328009385A5D617F5FF1F130585BA65372A8417
:1053380029CD9304C5004D261946AA852685EF0078
:10534800106985452685EF00F0651785010013056E
:10535800A5E54E95834505002685EF0030695C4834
:1053680031468145A1075CC85CC483572401E11715
:105378002319F40083570401E1172318F4001C4C87
:105388003E85EFC0CFE6A3042501228541016FC009
:10539800AFE4EFC2CFE24111AA842EC632C4EF10A7
:1053A800E003004DB2452246834784000CC050C03C
:1053B80093F7F70393E707042304F4002318040082
:1053C8002685EF00507F83479400A9462317A40041
:1053D80013D7370005073307D7029D8B85072306A8
:1053E800F400A306E40083C70401D8488507230F07
:1053F800F7FE17F7FF1F1307E7AE5843232A0400E9
:10540800930744011DEB17F7FF1F232FF7AC17F77E
:10541800FF1F2329F7AC17F4FF1F130424AD2285BF
:10542800EFF0803B1C44858B5D8D09E58145228525
:10543800EFF0C04441016FC0CFDA1CC317F7FF1F5C
:105448002324F7AAC9BFEFC28FD797050000938519
:1054580005C50145EFF07FBF01456FC08FD8EFC28A
:105468000FD6EFF0BFBF6FC0CFD78347C500A1E706
:10547800EFC2EFD42A840355E500EFF0FFD215C937
:105488008347840093F7F7FB2304F4001C4091C77B
:10549800DC4381C74C4001458297EFF03FC717F5C1
:1054A800FF1F1305A5A4EFF0E03E0355E400EFF05D
:1054B8001FD16FC00FD38280EFC26FD097F7FF1F45
:1054C800938747A2970500009385A5D217F5FF1F7C
:1054D8001305C5A123A0070023A20700EFF0202E83
:1054E8006FC02FD01C4D91CBDC4381CBEFC22FCDA9
:1054F8008345070082976FC0CFCE828097F7FF1F42
:10550800938707A19C4303C50700828097F7FF1F75
:10551800938707A09C4303C51700828097F7FF1F56
:105528009387079F9C4303C52700828097F7FF1F37
:105538009387079E9C4303C54700828097F7FF1F08
:105548009387079D9C4303C53700828097F7FF1F09
:105558009387079C9C4303C55700828097F7FF1FDA
:105568009387079B9C4303C56700828097F7FF1FBB
:105578009387079A9C4303C57700828097F7FF1F9C
:10558800938707999C4303C58700828097F7FF1F7D
:10559800938707989C4303C59700828097F7FF1F5E
:1055A800938707979C4303C5A700828097F7FF1F3F
:1055B800938707969C4303C5B70011E11D45828078
:1055C80097F7FF1F9387C7949C4303C5C700828042
:1055D80097F7FF1F9387C7939C4303C5D700828023
:1055E80097F7FF1F9387C7929C4303C5E700828004
:1055F80097F7FF1F9387C7919C4303D507018280C4
:1056080097F7FF1F9387C7909C4303C527018280A4
:1056180097F7FF1F9387C78F9C4303D54701828065
:1056280097F7FF1F9387C78E9C4303D56701828036
:1056380097F7FF1F9387C78D9C4303D58701828007
:1056480097F7FF1F9387C78C9C4303C5A7018280E8
:1056580097F7FF1F9387C78B9C4303C5B7018280C9
:1056680097F7FF1F9387C78A9C4303C5C7018280AA
:1056780097F7FF1F9387C7899C4303C5D70182808B
:1056880097F7FF1F9387C7889C438857828097F7AF
:10569800FF1F9387E7879C4303D5C702828097F74C
:1056A800FF1F9387E7869C4303D5E702828097F71D
:1056B800FF1F9387E7859C4303C50703828097F7FD
:1056C800FF1F9387E7849C43C85B828097F7FF1F7F
:1056D800938787838843828097F7FF1F9387078381
:1056E8008843828019E17D558280F5DE984265DF26
:1056F800FDD917F7FF1F1307A7A41847AA877155E5
:10570800058B6316072203C507001547E37DA7FC31
:1057180003C737001305F0057D171377F70FE36408
:10572800E5FC03C35700E30003FC83C86700E38C70
:1057380008FA03C77700494579171377F70FE36429
:10574800E5FA03C7A70011481305F7FF1375F50F0E
:10575800E36BA8F803CE97000D481305FEFF1375F9
:10576800F50FE362A8F803C8B700630908006518D5
:105778001378F80F1305600DE36705F703C5C70035
:10578800794879151375F50FE36FA8F403C8D700A6
:105798000D457D181378F80FE36705F503D8070161
:1057A800930E40175118420813580801E3ED0EF301
:1057B80003C8E7007D181378F80FE36605F303C8FC
:1057C80027017D181378F80FE36F05F103C88700E8
:1057D800C54E75181378F80FE3E70EF103D8670183
:1057E800856E938EBEE06D18420813580801E3ECED
:1057F8000EEF03D847016D18420813580801E3E477
:105808000EEF03D887017918420813580801E36C92
:1058180005ED03C8A7017D181378F80FE36505EDBA
:1058280003C5B7011D487D151375F50FE36DA8EA8B
:1058380003C5D701714879151375F50FE365A8EA13
:1058480003D5E7011308E00F7D1542054181E36C9C
:10585800A8E803C50702494879151375F50FE364ED
:10586800A8E883AE470237C534001308F5BFE36CD8
:10587800D8E703A88702130555BF5918E36505E75C
:1058880017E5FF1F2324C56803C6050117E5FF1F99
:105898002320F5680545E378C5E403D82501D049F8
:1058A80033760603E31106E403C61501E30D06E2A9
:1058B80017E6FF1F232AB66483C5270001466387BE
:1058C800A50003C61700F1453306B60283C70703D0
:1058D8009305C00272971A071307C70516031A978C
:1058E80096084697B387B70241553E9732974207C5
:1058F8004183636EE802EFC28F8C3685EF70201209
:10590800EFD0B0532A84EF80503F2A94EFC09057CD
:105918002A94EF70A0292A94EFF01F822A94EF307E
:10592800800E2A94EF50300F22956FC08F8B8280A3
:1059380097F7FF1F9387C7809C47858B99E77D550D
:1059480082807D5541016FC0CF89EFC24F874111D9
:105958002A842E8536C632C42EC2EF70403A75D1DD
:10596800B246224692452285EFC0B01EE1BFEFC283
:105978000F854111A307A100EF80403C9305F1007A
:1059880017050000130545B6EFF06FCE014541013C
:105998006FC02F85EFC22F8017E4FF1F1304447ACE
:1059A8000328840079599368180097E4FF1F23ADF2
:1059B800147913781800631E0800BA84BE89368BE0
:1059C800328A2E89AA8AEFE0BFD87D15269509E587
:1059D80031594A856FB0BFFFEFE09FD77D152695F7
:1059E800A167E357F5FE97F7FF1F938727AC984306
:1059F8003E8C814B11C70145EFC0D06C933B15001D
:105A08004A85DA865686D285EF7030552A8911CDB7
:105A18001C44F99B17E7FF1F2328F77283270C0004
:105A2800CDDBE3880BFA82976DB7268597E7FF1FD2
:105A380023AA0770EFE09FCE4146CE8517E5FF1FEA
:105A480013058579EF50F12AEFA030260325040BC2
:105A5800EFA030280545EFA0302E0545EFF03FF1C7
:105A68008DBF97E7FF1F9387A76D9C47858BD5C789
:105A7800EFB2FFF417E5FF1F1305457497E7FF1F03
:105A880023A0076C97E7FF1F23AE076A97E7FF1F5E
:105A980023AC076AEFE01060EF406029EFE0B03711
:105AA800EFE0303C97E7FF1F938707689C4381C767
:105AB8000545EF60305297E7FF1F9387A7509C4337
:105AC80089C741657D15EF50B010EFC09068EFA011
