:040000006F208036B7
:100004000000000000000000900000208C0200208E
:10001400A9BDF9F544030020000000000000000021
:1000240044030020900000200000000000000000B5
:10003400900000200000000090000020000000005C
:1000440090000020900000209000002090000020EC
:100054009000002098220020900000200000000062
:1000640090000020900000209000002090000020CC
:10007400AA0300209000002090000020900000209F
:1000840090000020900000209000002090000020AC
:1000940001A0011113078008F337078093F787083D
:1000A4003EC201000100B71700409305700523808C
:1000B400B704130680FA2380C7040100010083C635
:1000C400B70493F6F60DA385D7042380070492465C
:1000D400F3A606800100010093760502D5CEF3361F
:1000E400078093F6860836C4010001002380B70414
:1000F4002380C70401000100B70614007D89558DD3
:1001040088C7010001000100010023800704A24602
:10011400F3A6068001000100733707801377870870
:100124003AC6010001002380B7042380C7040100FC
:100134000100010001003727004093061005A303C6
:10014400D78023800704B247F3A70780010001008A
:1001540093078008F3B7078093F787083ECE010022
:100164000100B7170040130770052380E704130745
:1001740080FA2380E7040100010003C7B704136772
:100184000708A385E70423800704F247F3A7078041
:10019400010001000561828093760504BDC6F33633
:1001A400078093F6860836C8010001002380B7044F
:1001B4002380C70401000100B706140093860604D7
:1001C4007D89558D88C7010001000100010023804D
:1001D4000704C246F3A606800100010073370780B6
:1001E400137787083ACA010001002380B7042380EB
:1001F400C704010001003727004093062005A3032C
:10020400D78023800704D24781B7733707801377D9
:1002140087083ACC010001002380B7042380C70477
:100224000100010098471367070C98C7238007044F
:10023400E24719BF0111814601468145114506CEA9
:10024400992493078008F3B7078093F787083EC67D
:1002540001000100B7170040130770052380E7046D
:10026400130780FA2380E7040100010003C7670431
:10027400136717002383E70423800704B247F3A717
:10028400078001000100F24005618280411181462E
:10029400014681451145C52A13078008F3370780B5
:1002A40093F787083EC401000100B7170040130606
:1002B40070052380C704930680FA2380D7040100C5
:1002C4000100FD552396B70223800704A245F3A538
:1002D40005800100010073370780137787083AC649
:1002E400010001002380C7042380D704010001001A
:1002F40003C76704136717002383E70423800704F5
:10030400B247F3A707800100010001A0BD473305F0
:10031400F50201007D1575FD8280411122C426C2BB
:1003240006C6AA84014463179400B240224492444E
:100334004101828005041305803E4204C13F41808F
:10034400DDB700009305000273A0458082457390D9
:10035400153492402242B2424243D2436244F244B0
:10036400025592552256B2564257D2576258F25805
:1003740006499649264AB64A464BD64B664CF64C35
:10038400065D965D265EB65E465FD65F09617300C4
:1003940020304111B7170040985F3AC6945F324746
:1003A400E39CE6FE324541018280B7170040130703
:1003B40000032388E702854723AAF18873002030CD
:1003C400411106C6EF00D023F5BF2303048015476F
:1003D4002303E48001002302A480828083076480D5
:1003E400E3CE07FE23030480828083076480E3CE88
:1003F40007FE03454480828083076480E3CE07FEC2
:100404002302A4808280411126C44AC24EC006C67B
:100414001377F50BAD47AA892E8995446306F70037
:1004240019456537653F8D444E854537FD59FD14A3
:1004340063983401B240A244124982494101828046
:10044400135509011375F50F453F2209CDB7011165
:1004540026CC06CEB704080051371545BD37713791
:1004640069372AC6A53F32459377150089EB136592
:1004740015001375F50FF240E24405618280FD1406
:10048400E9FC0145CDBF397126DC4ADA4ED852D693
:1004940056D45AD25ED006DE62CE66CCB7E700E010
:1004A4007D5783AA070022C603AA470023A0E718A2
:1004B40023A2E718B7170040130770052380E70449
:1004C400130780FA2380E70483C74704930B75FF5F
:1004D400B684E20793FBFB0F8546AA892E8B3289EB
:1004E40037240040E187015763FA76016308D50099
:1004F4008946130700026313D5000157D98F93F778
:10050400F70FB71C00402382FC0411472303E48047
:100514001305F00F5D3D094CD135636D7C11B705B2
:100524000700DA9537870700795563F2E504B38746
:100534009500636EF702370B0800A94733EB65019A
:100544006399F90689E48144513D26850DA0DA8535
:100554000945553D05090345F9FFFD14050B693DA2
:1005640081C49377FB0FFDF7DD3569FD7D55B71722
:100574000040130770052380E704130780FA2380E3
:10058400E70403C74704418B2382E704F250B7E72B
:1005940000E023A0571123A24711E25432445259D8
:1005A400C259325AA25A125B825B724CE24C2161EC
:1005B4008280A5476395F90685691309F00FB30690
:1005C4009900B3742B01B6941349F9FFB3749900DD
:1005D400856B33796901416B9387F9FFB3F7270181
:1005E40099E363FC340193D94900C147E3E637FF3B
:1005F40099BF0569C1697D19D9B71305800D638851
:100604006901130500026384790113051008CA8582
:10061400DD3B353D21DD4E99B3843441D9B7DA85CC
:100624002D45D533CA94E30099F205097D3BA30F08
:10063400A9FED5BF9387F9FF93F7F70F6361FC0C0D
:1006440083C71C0413073008631FF7043707080027
:10065400636BEB04B3079B00B706100063F5D70484
:10066400334BEB0089476393F9068980D549E38CC2
:1006740004ECDA850945413B11090327C9FF914779
:100684002320E48003076480E34E07FE23033481C0
:10069400FD17EDFBFD14110B81C49377FB0FE9FFEC
:1006A4007D3371F5E1B5B717004003C75704B707A9
:1006B40008001377070219E3B78707007955E37831
:1006C400FBEA33079B00E3FFE7F855B58547E38270
:1006D400F9F2DA852D45053B9389F4FFE38504E6B9
:1006E400293393F7390091EB83260480032709000B
:1006F40093074900E39AE6E43E89CE84F1BFB54707
:100704006396F9001305900BC93135BDB147130544
:10071400B00AE38BF9FE99476391F904B705080021
:10072400B365BB002D45C53181448D4BA149753955
:1007340063967401832704802320F9008504E398D9
:1007440034FF8327048013172B01635507002312FA
:10075400F900D5BB2322F900FDB39D476399F90243
:1007640081451305B0044531BD44232009002322EB
:100774000900FD599D3993F77400CA9703C7070010
:10078400FD14398D2380A700E39634FF6DBBA14788
:100794006392F9046D398144630D0B008D47930412
:1007A400C0036308FB009304000563048B019304F6
:1007B40040041375C507E30895D81945393139390B
:1007C4000545213126850D3909453D314931E31C63
:1007D40005D669BB91476399F90013056006F536A0
:1007E400F53E130590090DB7E38F09D4F154A9BB65
:1007F40017470000130747368347070093F7F70F9F
:10080400E5DF82807D166206618693178601E187A3
:1008140063D4070001458280931726003307F5004F
:10082400AE9718439C4363E7E7007D16E37FF7FC2C
:100834007D55828005458280FD15E205E18513978B
:100844008501618793F7F50F63480700FD1513973A
:1008540025002A97584365D71385170062056185DB
:1008640082803308B5021C4283A80600B335B50262
:10087400C29733B50701AE98469585486367B500BE
:100884006394A50063E3070181480C43C6950CC338
:1008940088C21CC2828081471397870161876343A2
:1008A400B7008280139727002A9723200700850723
:1008B400E5B78147014793968701E18663C5B60092
:1008C40013351700828093962700AA9694428507D1
:1008D400558FD5B793D755408A07AA979C430545AA
:1008E4003315B5007D8D8280172300E0E702E3B560
:1008F4002A84993705C5931725003E940327C4FF1E
:10090400814711EB7D1516053E9542054185172358
:1009140000E06700C3B505838507E5B70145C5BF9A
:1009240081471397870161876343C70082801397C8
:100934002700B386E50094422A97850714C3D5B7E8
:100944007D1662066186014793178601E18763D5A8
:10095400070013351700828093172600B306F500AD
:10096400AE9794429C437D16B58F5D8FF1BF8A0587
:10097400AA9501476363B500828083A6C5FFF1157C
:1009840093D71600D98F9CC11397F601E5B72A8334
:100994000148014701456343D7008280B3870501BD
:1009A40083A80700B30706019C43C697AA976384EC
:1009B400F80033B517010507B3080301620723A044
:1009C400F80061871108C1BF2A83014781470145A7
:1009D40063C3D70082803388E50083280800330E80
:1009E400E600032E0E003388A8403308C841638410
:1009F400080133B508018507B308E300E20723A023
:100A04000801E1871107E9B7172300E0E702E3A330
:100A14000111B286B2842E86AA850A8575372A8486
:100A2400A6850A857935333480000604133515000C
:100A3400018D0561172300E0670063A3172300E01D
:100A4400E702239E4111AA89AE8A328BB68402C280
:100A540002C402C60144131C8401135C8C41634923
:100A64009C02939B1400FD1B0549138CF4FFF15C5D
:100A74003304890162046184634D740592478E04D2
:100A8400CE9423AEF4FE4101172300E06700E39CFB
:100A940013192400B30B2B01014A93172A00D6978C
:100AA40083A50B0088437800340050005D3B050AA1
:100AB40093178A01E187F11BE351FCFE92474E999B
:100AC40005042320F900A2473EC2B24702C63EC431
:100AD40059B7131A8901135A8A41131D2400931715
:100AE4008A01E18763CF970092470A044E941CC0A1
:100AF400A24705091379F90F3EC2B24702C63EC4A4
:100B040085BFB3079A0313152A0056950841780048
:100B140034005000050AEA97DA978C439933C1B739
:100B2400B7C7004003A7C72023A607200F10000063
:100B340001C599C1814711E6B7C7004023A6E72044
:100B44008280B386F50003C80600B306F500850766
:100B540023800601E317F6FEC5B737C70040832795
:100B6400C720232607200F10000019C191C111E6E8
:100B740037C700402326F7208280910503A7C5FFCD
:100B840011057D16232EE5FEDDB737C70040832708
:100B9400C720232607200F10000001C53307C50016
:100BA40011E637C700402326F72082800505A30FEE
:100BB400B5FEE31DE5FEF5B7B7C7004083A6C72021
:100BC40023A607200F10000081473307F500030711
:100BD400070019E737C700402326D7203E858280C7
:100BE4008507E5B7B7C7004003A7C72023A607209A
:100BF4000F10000001C599C1814711EAB7C7004031
:100C040023A6E720054582808507E309F6FE33081D
:100C1400F500B386F5000348080083C60600E30523
:100C2400D8FEB7C7004023A6E72001458280B7C796
:100C3400004003A7C72023A607200F100000930736
:100C4400F6FFBE952A966317C500B7C7004023A6D2
:100C5400E7208280FD1583C715000505A30FF5FE67
:100C6400DDB737C700408327C720232607200F108E
:100C7400000001C53307C50019E637C70040232625
:100C8400F7200145828005058346F5FFE397B6FE0C
:100C9400E31BE5FE37C700402326F7200545828085
:100CA40079719387818C22D4804306D626D24AD088
:100CB4004ECE52CC56CA5AC85EC65DCCB7C4C90122
:100CC400014B9389C18B9384F437174A0000130AAC
:100CD4002A24974A0000938A6A27174900001309B7
:100CE400292B8357240085E35C44631B0B0023A456
:100CF400F18C832BC4002285EF00702F5E84B9A889
:100D04002326FB00FDB783A7090082971C44330701
:100D1400F5406376F500032749001D8F2A9763E0A9
:100D2400E4089747000023AB0722835524000345BA
:100D34000400977001E0E780E0995C405844A1CB3F
:100D44000C4403264900AE97BE8663E4B70063E40F
:100D5400C700B386C74014C4228B3A8459F097471E
:100D640000009387A71E9C4B09476370F706F91789
:100D7400174700002324F71EB250225492540259FC
:100D8400F249624AD24A424BB24B456182806315B2
:100D94000B0023A4E18CB1BF2326EB0099BF0327EA
:100DA4004A0209CF63EFA7003385A74083A70A014E
:100DB4006376F5009747000023A2A71A228B4044CC
:100DC40071BF03274900BA97C5B79747000023A707
:100DD40007185DB79387018C9C4381CF411106C6E8
:100DE400829783C7018D99E323A0018CB24041010E
:100DF400828083C7018D81E723A0018C8280828059
:100E0400411122C4174400001304C4161C4006C632
:100E140026C291C782979747000023AD07149747CE
:100E2400000083C7A7179DE79747000083C7172EC5
:100E3400858B174700001307272D89CF8347770039
:100E440099466399F60E97470000A381072C312E2B
:100E54005C4482971C4491C382979384018B98408D
:100E6400174600000346960E9747000083C7070EF7
:100E740093961700BA9683D60600E9CA97470000EE
:100E840083C7C70C63EEC70C974700002380070C89
:100E94001C40639107149747000083C777271744C2
:100EA40000001304642691CF8347740093F7F70F6F
:100EB40089EB97470000A38D0724977002E0E78031
:100EC400E0F69387C18B9C43638607109747000025
:100ED4009387070CDC43174700002321F708C93325
:100EE400974700009387C702DC536385070E974733
:100EF40000009387A7059C4BF1CF834774001547E7
:100F0400636AF70C9747000083C78724918BF9E342
:100F140083C7018DE1E390409746000083C6160322
:100F240063CFD70A2244B24092444101177301E0CF
:100F3400670043D6834777001D47E31DF7F09747C3
:100F44000000A385071C15241C4821B7850793F7C7
:100F5400F70F97460000238BF6FEE3E7C7F039BF8F
:100F640086073E978355070023100700239C018AB8
:100F74009387C18C9C4317450000034525FD131737
:100F84002500BA979C43829783D7818B174700002B
:100F94000347C7FB93C7F7FF7D8D9317170098404E
:100FA4003E97835707005D8D2310A70097470000E5
:100FB40083C7C7F991C78507174700002308F7F8C7
:100FC40017470000034787F89747000083C717F8BF
:100FD400E37CF7EAB24022449244410182801397B1
:100FE400170032970357070075F7850715BF37C7F2
:100FF40000408326C720B707FCFFFD17F58F232683
:10100400F7200F10000097470000938727F4C84F7C
:10101400832787262326D7206A0593C7F7FF99835A
:101024005D8D82800111974700009387271A22CC97
:1010340003A4070C26CA06CE2AC42EC6854419E486
:101044000145F2406244D2440561828083479100A5
:1010540003471400858B6304F7000044CDB7194699
:101064009305A10013052400B53EE31895FE05453C
:10107400C9BF1387C1991443411122C49C5E4AC05D
:1010840006C6998326C2858B3A8413898199D1C770
:10109400930700069CDE17470000034747079307A2
:1010A40000089744000093842406631BF7008327F9
:1010B40009009C4393F70704174700002309F7042A
:1010C40083C7040093F707048DC39387C18B9C43A4
:1010D40082979747000023A1A70483C7040093F7CE
:1010E400F70B174700002301F70283C7440093F767
:1010F400070485E7854717470000A309F70093878E
:10110400819A9C433707020098C7130700FC97464F
:101114000000238DE6FED844F8D318401C5F918369
:10112400858B99CF1C5F93E707011CDF9387819A16
:101134009C4323A207068547174700002308F7FCB2
:1011440083270900D8430583058B19C7D843759BAA
:10115400D8C3D843799BD8C3B240224492440249AD
:10116400410182803937730020309387819A9443F8
:1011740097470000938747F903C70700058B11CBF6
:1011840097470000238407F897470000A38007F8D7
:10119400828003C71700058B65F7F85271FF83C778
:1011A4005700DDB71387C1990328070083278803F5
:1011B4009583858BADEF11C683270803BD83230078
:1011C400F6009DC61C43985B460793576701635618
:1011D400070093E707C0C207C18303970600C2074D
:1011E400C18709C7BA970947B3C7E7022390F60036
:1011F4008DCD8345150095C99747000083C727F116
:1012040093F7070413879500894585C33A95834767
:1012140005000547994593F6F7066398E600E2074B
:10122400E187814563D30700B9452E8582808545D2
:10123400EDBF411126C206C622C49384819A2DEDC6
:101244009440AE87F8527DFF37F400E03E8597471F
:101254000000238C07EA832704D1B285ED9B232861
:10126400F4D0832704D193E787022328F4D07300B2
:101274005010977002E0E780C0A39387C1999C4304
:10128400B70680009843558F98C3D857719BD8D719
:1012940097470000A38C07E697470000A38607E65C
:1012A4009C40094798C3832704D193E787002328E8
:1012B400F4D07300501039A88D476313F504938755
:1012C400C1999C43B70680009843558F98C3D8575B
:1012D400719BD8D79440174700001307E7E2834770
:1012E4002700858B89EB83473700858BD1C79747C8
:1012F4000000238D07E0B2402244924441018280E1
:101304008547E319F5FCB7F700E003A707D16D9B08
:1013140023A8E7D003A707D11367870223A8E7D040
:101324007300501098408177FD175447F58F5CC7C0
:101334000F1000009840B70702001CC7930700F87D
:10134400174600002304F6DC9387C1999C439C4311
:101354009D83858B639FA700930760197CD354C733
:1013640037F700E0832707D193E787002328F7D0D6
:1013740089B79307E01BDDB7FC52B5F3ADBF938784
:10138400819A9C43D8479316D70063D606029847A0
:101394009316D70063D106027D57B8D717470000CC
:1013A4001307C7BA584F05079746000023AEE6BA9D
:1013B4003707040098C798470D83058B1DC317474B
:1013C4000000034787D41367170097460000238E55
:1013D400E6D2130700F8974600002389E6D2214796
:1013E40098C79847058B09CF174700000347D7D103
:1013F4001367170097460000A388E6D0054798C7EF
:1014040098470983058B09E798470583058B1DCF0A
:1014140017470000A30C07CE984797460000938611
:10142400A6CE0983058B61C703C70600136717009F
:1014340097460000238AE6CC114798C71387C199C1
:101444001443D856719B13671700D8D69847931640
:10145400F70063D606029746000083C6A6DEC18A5B
:1014640017470000130787D6C9CE034787071367BA
:101474000702974600002387E6DC416798C7984730
:101484009316E70063D2060217470000034707C814
:101494006207618763570700054797460000238763
:1014A400E6C63707020098C798479316C70063D764
:1014B40006029746000083C6F6D8858A17470000BF
:1014C4001307C7D0A9CE034797071367270097468A
:1014D4000000A389E6D63707080098C798479316F3
:1014E400B70063D506003707100098C7828003C78A
:1014F40036001367170097460000A388E6C0094723
:101504002DBF834687070946BD8A6388C600034703
:1015140087078D463D8BE312D7F6114799BF834663
:101524009707918ACDDA034797071367870045B772
:1015340017470000130707BF8346B701974700000A
:1015440083C717C14C4BB697FD8B33D7F50097462D
:101554000000A389F6BC97460000A38BF6BE058B5A
:1015640015EF174700000347F7BEB3F7E7028146BC
:1015740001471305000233D6E500058A1378F70FF7
:1015840019CA6397D70097470000A38D07B98280D3
:10159400850693F6F60F0507E31FA7FC828097479D
:1015A400000083C7B7B6D9E79387C18B9C43411129
:1015B40022C426C206C6829797470000938787B83D
:1015C4008047BE846303A40663688504018D1354B5
:1015D40055009747000083C787B66368F404893FC2
:1015E40098449747000083C787B59396570036976A
:1015F4001D8C9746000023ABE6B4E372F4FE22444C
:10160400B2409244174500000345D5B181454101DC
:10161400177302E0670043FA9747000093874797E0
:10162400DC433384874022955DB7B2402244924420
:101634004101828082809387C18B9C43011122CC1B
:101644004AC806CE26CA4EC682979747000093879B
:1016540067AF804701496301A406BE8463668506BB
:10166400018D135455009747000083C747AD137984
:10167400F5016360F40497490000938969914D3D35
:1016840003A884009746000083C666AB13975600F0
:101694004297158C3A8683A5490063640701636405
:1016A400B7003306B7409747000023A1C7AAE378E1
:1016B400D4FC160433692401F24062444A85D244BE
:1016C4004249B24905618280974700009387478C5D
:1016D400DC4333848740229569B79387819A984382
:1016E4008967938707F47CD39387019B9C4383A6E4
:1016F4000709139656006358060083A60709139634
:101704006600634406007453FDF28280411122C4D2
:10171400B7C7004006C603A4C72023A607200F109E
:10172400000011C199E5B7C7004023A687200145F1
:101734004DA893073500C207C183F19BC207C1833B
:10174400130740036365F7021387C1A30843138794
:1017540041A314436390A602173700001307477B85
:10176400185B71D3C207DD8D054502976DBF1387E2
:1017740081A3E9BF035765002DEB0357450063665A
:10178400F706B306F7402146637CD602032805001A
:10179400938687001D8FAA9661171736000003569B
:1017A400467B2392E60023A006012393060014C17E
:1017B4002312F500130786FF97360000239BE67873
:1017C4002313B5009735000083D5A578B387F5407A
:1017D40017370000231FF776B7C7004023A68720DA
:1017E4002105B2402244410182800841A5B7B7C710
:1017F400004003A8C72023A607200F10000001E51E
:1018040023A6072182809387C1A303AE0700938791
:1018140041A303A307008146F28763FC670A83A8F8
:101824000700636BF50A63E9A80A138787006362FC
:10183400E50A03D66700216705076317E60003C7B7
:10184400C19605072386E1969735000093850570B8
:1018540003D6470003D76500239307003297420756
:101864004183173500002316E56E6388C70313858B
:1018740081A308416303F50203D5660019ED83D7FC
:10188400460023A0160121073E9621062392C60096
:1018940097370000239FE76AB6879843630B670274
:1018A400938681A394426306D7028356670095E228
:1018B40083D64700035647001843A106B2962392E5
:1018C400D70098C383D76500A107173700002312F8
:1018D400F768B7C700402DB7BE86C6873DBF03274C
:1018E400851163020712411122C406C68347C5004D
:1018F4008345E5042A8493F7C70F2306F50083463E
:1019040097000356C70013958601618563F2C508E5
:10191400635B05060345870093F6F607A304D70027
:10192400054693E627006314C50093E617002306D3
:10193400D4005C4389075CC3A30AB40003250411E3
:101944002E864C430905EFF0AF9D8327841103468F
:101954005401D44303D7C700B296118FD4C323963E
:10196400E7008947A30DF400034764039737000099
:1019740083C7275B6378F7048347C40093E70701B1
:101984002306F40081A093E717002306F4006DB743
:101994009376F60F635D050203458700854513E6DC
:1019A40027006314B50013E617002306C400A30A36
:1019B400D400A30407008547A30DF40083278411F2
:1019C4009C43DDF3B240224401454101828093E708
:1019D40017002306F400A30AD400A3040700032578
:1019E40004114C430905EFF0AF9383278411034698
:1019F4005401D44303D7C700B296118FD4C323969E
:101A0400E7008D4755BF05458280938741A49C43D9
:101A1400411122C406C6858B2A84C5EF416513058E
:101A240025F5973003E0E780000845C58347A50006
:101A34002315F50083270412BDE72320A4122322D3
:101A4400A41285472311F40423200500834764016D
:101A540054412316F5000347D4002304E500054749
:101A6400A304E500173700001307076A184F13850E
:101A7400170215811C437D151375F50F9CC25C4339
:101A8400DCC21C479CC65C47DCC61C4B9CCA5C4B36
:101A9400DCCA1C4F9CCE5C4FDCCE19CD938606026B
:101AA40013070702C1BF8327441288C38357240442
:101AB4002322A412850779B79737000083D787714B
:101AC4008507173700002317F770B24022444101FD
:101AD40082808347C40023090400054593C7470057
:101AE4002306F400DDB78347850193F7E70FC5EFBD
:101AF40083479501CDEB034625018346C50009CAFA
:101B040083456503173700000347B74163E7E500E2
:101B140013F7060151CB014709C6C18A0357651C57
:101B240081C68356A51C369741C31307C7121735C0
:101B3400000003556546B335A70237460F0041112F
:101B440013060624814622C426C206C67D543305E4
:101B5400A702976003E0E78000C09737000083C7BF
:101B6400973CB384A700973700009387276603A7A1
:101B740087098327070963F387003E84184375FBAD
:101B84009387C18B9C43829781476364A400B30706
:101B9400A440B2402244B3B7970093C717009244BD
:101BA4003E854101828081473E8582809387819A68
:101BB40098433C5BFDFF828005458280011122CC65
:101BC4004AC84EC606CE26CA52C456C25AC0034795
:101BD400B50085472A842E8983290509631EF71ECB
:101BE40083570508035BC503973A000083DACA3AB2
:101BF400173A0000130ACA3963F8671B83460501C4
:101C04006394E61A032785116310071A0327450A0C
:101C1400631C07188346F5001D476397E6180355B0
:101C2400A503330BFB409307204E33056503832440
:101C3400440937460F008146130606243305F5028E
:101C44009737000083C7272EB3549502B3B5AA0271
:101C5400BE94C204C180231394083385AA029760FA
:101C640003E0E78040AFB307350133B5A7002E95F5
:101C74003E8783264A0019E163E4D7003387D740BF
:101C8400B3845403B7460F009387F6239386062440
:101C94002320E900A697B3D7D702DA976360F71039
:101CA4001D8F2320E9009389C18B83A70900832416
:101CB4000900829763E5A4123385A4406354050C9C
:101CC40083A709008297032709006361E512198D30
:101CD4008357E403173700000357072C8E07B38795
:101CE400E7021307003293870719B3D7E70263E7C4
:101CF400A710374A0F00130BFA23973A0000938A70
:101D04002A29130A0A248357040485072310F40498
:101D14008347041499E32285592A2285972003E0F6
:101D2400E780E0CB75E9832604098327C40803A769
:101D34004A00B6973E8563E4D70063E4E700338541
:101D4400E7408347F401835464082328A4088507E3
:101D5400A30FF4009737000083D70724B384F40259
:101D6400DA94B3D444036368950CB304954083A711
:101D7400090023209900829763E3A40C3385A440CF
:101D8400E34305F89737000083C7F71963E7A7080B
:101D94009737000023AC874C014541A083264A00B5
:101DA400B387F6403E97F5BD8354640837470F0068
:101DB4009307F723B3845403BE9493070724B3D73C
:101DC400F40263E7F900B387F9402320F900E1BD89
:101DD40003274A00BA99C5BF23A03501E9B597374F
:101DE40000009387E71ADC43BE94F9B597370000E7
:101DF4009387071ADC43998F3E95D9BDA145228567
:101E0400972003E0E78080B6A305A402973700007B
:101E1400938707109C5B81EF7D55F2406244D24466
:101E24004249B249224A924A024B0561828089455D
:101E340015458297D5B7B3049740AA940DBF83A7DD
:101E44004A00BE9425BF3DC101116C0022CC06CED0
:101E54002A84AD3339C5FD57630AF502973600006D
:101E64009386060BD45232479737000083C7B70BCB
:101E740091C285836360F702B307F7403EC6B2455B
:101E840003459402976001E0E780E09AF2406244DF
:101E940005618280973600009386860FD442369778
:101EA400E1BF972003E0E780E070CDB782807971CD
:101EB40026D206D622D44AD04ECE52CC56CA5AC8BE
:101EC4005EC68347550303447513AA843E94137472
:101ED400F40F9307400263F687001304B4FD1374F0
:101EE400F40F03AA841383AAC413A38B8412228637
:101EF4005285D685975003E0E780E042058915E5D1
:101F040003CBD41201498149337B6403930B500200
:101F14004A865285D685975003E0E780C0400589FC
:101F240015C5639169031374F90F238B8412B2509E
:101F3400225492540259F249624AD24A424BB24B59
:101F4400456182808509E20993D989410509E31134
:101F540079FDE1BF8327850903560504797193D67A
:101F64000701BD8EC206C182358E13577640935742
:101F74005640898B058B5D8F93573640918B5D8FCF
:101F840093571640A18B5D8F93171600C18B5D8FFD
:101F94009317360093F707025D8F931756009355F6
:101FA400860093F707041E065D8F1376F60F518F94
:101FB40093D7554013D63540118A898BD18F13D6C8
:101FC4007540D18F13D61540218AD18F13961500F1
:101FD400418AD18F1396350013760602D18F13965A
:101FE4005500137606049E05D18F93F5F50FCD8F1A
:101FF400A20745465D8F3307C70222D42A8426D21E
:1020040052CC56CA032A8413832AC4135AC806D648
:1020140036974207418393577740135557400989B0
:10202400858BC98F135537401189C98F13551740B4
:102034002189C98F131517004189C98F13153700DA
:1020440013750502C98F131557009355870013752F
:1020540005041E07C98F1377F70FD98F13D53540A1
:1020640013D755401189098B498F13D57540498F72
:1020740013D515402189498F139515004189498F3E
:102084001395350013750502498F13955500137583
:1020940005049E05498F93F5F50F4D8F2207D98FBF
:1020A400B387C7024AD04ECE5EC662C4B697C20793
:1020B400C18313D7774013D557400989058B498FBE
:1020C40013D537401189498F13D517402189498F7A
:1020D400139517004189498F13953700137505022D
:1020E400498F1395570093D58700137505049E07F0
:1020F400498F93F7F70FD98F13D5354013D7554030
:102104001189098B498F13D57540498F13D5154013
:102114002189498F139515004189498F13953500FD
:1021240013750502498F13955500137505049E0513
:10213400498F93F5F50F4D8F2207D98FB387C702C7
:10214400130650025285D685B697BD8E9394060128
:10215400C18033F6C402137BF60F975003E0E78087
:10216400801C05890DED8347D41201498149B3844C
:102174009702130C5002C1804A865285D685975027
:1021840003E0E780401A0589937BF90F11C5638644
:102194003403850993F9F90F0509E31F89FD230B1E
:1021A4006413B250225492540259F249624AD24AF8
:1021B400424BB24B224C456182805E8BCDB70111FC
:1021C400973700009387870022CC03A4870C26CA84
:1021D4004AC84EC606CEAA8413092500854915C0EF
:1021E40083C7140003473400858B6304F700405C05
:1021F400FDB71946930544004A85EFE0BF9EE318F6
:1022040035FF2285F2406244D2444249B249056115
:102214008280411197370000938747FB22C403A4AF
:10222400870C26C24AC006C693042500054901E866
:102234002285B24022449244024941018280A6850B
:102244001305A402974003E0E780208EE30225FFF4
:10225400405CF1BF411197370000938727F722C4F0
:1022640003A4870C26C24AC006C693042500054968
:1022740001E82285B240224492440249410182800D
:10228400A6851305A401974003E0E780008AE302D2
:1022940025FF405CF1BF0000197106C212C416C6C6
:1022A4001AC81ECA22CC26CE2AD02ED232D436D672
:1022B4003AD83EDA42DC46DECAC0CEC2D2C4D6C662
:1022C400DAC8DECAE2CCE6CEEAD0EED2F2D4F6D652
:1022D400FAD8FEDA9385C1888841E7000500924068
:1022E4002242B2424243D2436244F24402559255DE
:1022F4002256B2564257D2576258F2580649964966
:10230400264AB64A464BD64B664CF64C065D965D5D
:10231400265EB65E465FD65F09617300203000001A
:10232400EFE05FAB73000000000000009382018DBA
:102334000383020023800200630F0300F32510349B
:102344002EC0970500009385E5FD73901534EFF0DA
:102354000F837300203086DCEFF06F82E6508280BA
:042364000000000075
:1023680097110020938181E317410020130101494F
:102378001305400097E5FF1F938545C81706002001
:10238800130606FE63FAC5008322050023A0550044
:1023980011059105E3EAC5FE178503001305C5621B
:1023A80097050020938505FC1386018763FAC5000D
:1023B8008322050023A0550011059105E3EAC5FE17
:1023C8001385018797350020938585F26377B500DB
:1023D800232005001105E36DB5FEFD42739002BC94
:1023E8008D4273904280930280087390023097E286
:1023F800FF1F9382A2C093E232007390523097225B
:1024080000009382025673901234730020303971A1
:1024180001436EC619A0397141536AC866CA62CCB5
:102428005ECE19A0397101535AD056D252D44ED625
:102438004AD826DA22DC06DE330161408282411165
:102448004AC026C222C406C68282B24D4101024D4C
:10245800924C224CB24B4101024B924A224AB24959
:102468004101024992442244B240410182803D43E5
:102478002A876373C3029377F700BDEFADE59376C0
:1024880006FF3D8ABA960CC34CC30CC74CC741071C
:10249800E36BD7FE11E28280B306C3408A06970237
:1024A800000096966780A6002307B700A306B7002A
:1024B8002306B700A305B7002305B700A304B70098
:1024C8002304B700A303B7002303B700A302B70090
:1024D8002302B700A301B7002301B700A300B70088
:1024E8002300B700828093F5F50F93968500D58D6C
:1024F80093960501D58D61B7939627009702000042
:1025080096968682E78086FA9680C1171D8F3E963A
:10251800E374C3F8A5B73367B500FD530D8B79E7AE
:10252800B7877F7F9387F7F710419441B372F6001E
:102538003363F600BE92B3E262006397720C6318CD
:10254800D6065041D441B372F6003363F600BE920A
:10255800B3E262006398720A631BD604104594457F
:10256800B372F6003363F600BE92B3E26200639181
:10257800720A631ED6025045D445B372F60033631F
:10258800F600BE92B3E26200639A72086311D60243
:1025980010499449B372F6003363F600BE92B3E271
:1025A8006200639372085105D105E30FD6F613173D
:1025B800060193970601631CF7001357060193D78A
:1025C80006013305F7409375F50F91E98280418341
:1025D800C1833305F7409375F50F91E18280137736
:1025E800F70F93F7F70F3305F7408280034605008E
:1025F80083C60500050585056313D60065FA33050E
:10260800D640828011059105E312D6FE01458280ED
:102618002105A105E31CD6FC014582803105B105E1
:10262800E316D6FC014582804105C105E310D6FCBE
:1026380001458280B717004003C777051377E70F76
:10264800A38BE704130700F8A38DE7043D47238C09
:10265800E70413075003A38CE70403C7A705137700
:10266800D70F238DE7048280B717004003C7E7021E
:102678000D8941111377C70F498F93068008F3B668
:10268800068093F6860836C6010001009306700599
:102698002380D704930680FA2380D7040100010021
:1026A8002387E70223800704B247F3A707800100C6
:1026B80001004101828041112A83014E930E407E20
:1026C800130F0019930F400663E56E129308001963
:1026D80013034006B3781503854E0D4FA14F33738E
:1026E80065020D891335150063EFBE121308F6FF56
:1026F800794672984208135808013307C70213D65F
:102708001700BE0732976146B3F6C60213068070FB
:10271800B386C6023697A166F58F42075D8FB71656
:10272800004083C7F60293F70708A303F1000346A6
:10273800710083C7F60293F70708E394C7FE83473F
:102748007100B716004093F7F70F638807129307D5
:102758008008F3B7078093F787083EC4010001009B
:10276800B7170040930670052380D704930680FAB4
:102778002380D7040100010023AA070383C6170397
:1027880093E60608A388D70223800704A247F3A785
:102798000780010001001166B71700407D16D45B61
:1027A800C85F93854703A98EF18EF5FA93068008D2
:1027B800F3B6068093F6860836C601000100930634
:1027C80070052380D704930680FA2380D70401007C
:1027D800010098C103C7170313670704A388E7021A
:1027E80023800704B247F3A70780010001004101D5
:1027F80082807D133368E3039308E016630E0800B4
:102808003368F3039308D0166308080093783300FD
:1028180093B818009388D81633081E01131E0801B0
:10282800135E0E0155B56393E503054863860800FA
:102838000148630303002A8871087298FD15131E66
:102848000801C205135E0E01C18179BD13F8150098
:1028580063F4BF007908D5B713381800E5BF83C7FC
:10286800F60293F70708A303F1000346710083C734
:10287800F60293F70708E394C7FE8347710093F7BE
:10288800F70FF1DFE9B54111B7170040985F3AC675
:10289800945F3247E39CE6FE324541018280317104
:1028A8004AD966CB06DF22DD26DB4ED752D556D372
:1028B8005AD15ECF62CD6AC96EC7AA8C02D8EF0022
:1028C800101B2A8993078008F3B7078093F78708B6
:1028D8003EDA01000100B717004013077005238096
:1028E800E704130780FA2380E7040100010003C707
:1028F800F7021377770FA387E70203C7F702136777
:102908008700A387E70223800704D257F3A707802D
:10291800010001000545893B130780C13347E902DF
:10292800116A93070AE893065002BD69930BA00445
:10293800814A014B13048008930470057D1AB3473C
:10294800F9023307D7023EC0FD873ECC938709A61C
:102958009309803E3347F7023AC27D873AC433472A
:1029680039038549B399990193D93940B306D702F8
:10297800B30B7703B3C6F602B3CBFB0236C6FD86AC
:1029880036C893D6FB4136CEB7460F009386062449
:102998003349D9028566938606FAB3969601B389B8
:1029A800E902130760553309D90293060010B38969
:1029B800E9023349D902B3C9F9029316390036CA74
:1029C80037190040FD8636D0930D090493D7F94195
:1029D8003ED2F336048093F6860836DC0100010007
:1029E800930770052380FD00930680FA2380DD009D
:1029F800010001008346390593F6860FA309D9041F
:102A08008346390593E61600A309D90423800D00EF
:102A1800E256F3A6068001000100130C80FA116D3E
:102A2800F336048093F6860836DE0100010093072A
:102A380070052380FD0023808D010100010083467D
:102A48003905216693E60602A309D90483560905C8
:102A5800B3E6A6012318D90483560905D18E231895
:102A6800D90423800D00F256F3A606800100010068
:102A78008346390593F6060263840618034639052A
:102A8800218A6DDE0818EF009002733604801376F1
:102A98008608B2C20100010023809D0023808D01B9
:102AA80001000100B717004003C637051376F60D7D
:102AB800A389C70403C6370513660602A389C7049A
:102AC800835609052166B3E6A6012318D90483565F
:102AD8000905D18E2318D90423800D009646F3A644
:102AE8000680010001008346390593F606026380DB
:102AF800061483463905A18AEDFE7133AA8636D4B9
:102B08005933A256E30DD5FE835609054255B3E65F
:102B1800A6012318D904552F83463905A18AEDDE6D
:102B2800035609058346290582473376CA00B3064A
:102B3800DA0293D5F641B296B388F640E24733B845
:102B4800C6002E983308F840A247B3B616013308DA
:102B5800D84063C70701631DF800924763FA17015D
:102B6800C247634DF80E63950701B24763E8F80E54
:102B7800894663E7660FF2469315180013D3F801E8
:102B88005E8613951800B365B30042D646D4EF406D
:102B9800437E3258050B137BFB0F63470001631C10
:102BA8000836A2586389083613081500B336A800FA
:102BB800B69513D6F5013298B336C800AE961358B9
:102BC8001800FE06B3E606017336048013768608FD
:102BD800B2C60100010023809D0023808D01010001
:102BE80001000356C902B296C206C1822316D90251
:102BF80023800D00B646F3A60680010001000DB53E
:102C0800F336048093F68608B6C0010001002380DD
:102C18009D0023808D01010001008346390593E65C
:102C28000602A309D90423800D00864635BDF33674
:102C3800048093F68608B6C40100010023809D0035
:102C480023808D01010001008346390593E60602C1
:102C5800A309D90423800D00A64651B5E30D0BF056
:102C6800F336048093F68608B6C80100010093067F
:102C780080FA23809D002380DD0001000100834647
:102C8800390593F5FC0F93F6860FA309D9048346FB
:102C98003905CD8EA309D90423800D00C646F3A6B5
:102CA800068001000100130580FA034639059306E2
:102CB80039051D8A631E96277336048013768608A5
:102CC800B2CC01000100130680FA23809D00238006
:102CD800CD000100010003C606001376F60D23801F
:102CE800C60003C60600136606022380C600835684
:102CF80009051166D18E2318D90483560905216662
:102D0800D18E2318D90423800D00E646F3A6068049
:102D180001000100130680FA8346390593F606027E
:102D28006382062483463905130C3905A18AFDDA26
:102D38000818B52BF336048093F68608B6D0010040
:102D48000100930680FA23809D002380DD000100A6
:102D5800010083460C00116693F6F60D2300DC0093
:102D680083460C0093E606022300DC00835609051F
:102D7800D18E2318D904835609052166D18E2318CC
:102D8800D90423800D008656F3A6068001000100B1
:102D9800130680FA8346390593F60602638F061EEA
:102DA80083463905A18AEDFEF93C2A8CE93CE30FFC
:102DB80085FF8356090511664255D18E2318D9041B
:102DC80029238346390513063905A18AFDDAF33626
:102DD800048093F68608B6D401000100930680FAB1
:102DE80023809D002380DD0001000100834606004A
:102DF80093F6F60D2300D60023800D00A656F3A601
:102E08000680010001008356090503462905D247BB
:102E1800B376DA003306CA021305800C9355F641DF
:102E28003696330DF6408257333CD6002E9C333607
:102E3800A601330CFC40330CCC4033088503925672
:102E48004E86B335A5033305A503C295EF406352FB
:102E580063468001631E0C16630C0D1613061500DD
:102E68003335A6002E959356F5013696B335D60020
:102E7800AA959396F50105828585D18E6346B000A3
:102E8800639D051A638B061A0356C902158233051A
:102E9800D6003336C500B2956348B0006391052467
:102EA8001306F00F637DA622894663F35615930730
:102EB8008008F3B7078093F78708BED601000100A2
:102EC80037170040930770052300F704930780FA2B
:102ED8002300F704010001008356C70289678117A0
:102EE800D58FC207C1832316F70223000704B657FC
:102EF800F3A7078001000100FA506A54DA544A59CE
:102F0800BA592A5A9A5A0A5BFA4B6A4CDA4C4A4D11
:102F1800BA4D296182801308F5FF3335A800FD15E5
:102F28002E951356F5013298B336C800AA9641B9C2
:102F3800F336048093F68608B6CA010001002380A0
:102F48009D002380AD000100010083463905CD8E28
:102F5800A309D90423800D00D646F3A606800100F4
:102F68000100A1B3F336048093F68608B6CE0100BB
:102F7800010023809D002380CD00010001008346CD
:102F8800390593E60602A309D90423800D00F64605
:102F9800F3A606800100010041B3F336048093F6DE
:102FA8008608B6D20100010023809D002380CD0051
:102FB800010001008346390593E60602A309D904F6
:102FC80023800D009656F3A6068001000100D9B3B0
:102FD8009306F5FF33B5A600FD152E959355F5011B
:102FE800AE96B3B5B600AA951396F501858269B574
:102FF800F336048093F68608B6D8010001009306DC
:1030080080FA23809D002380DD00010001008356A3
:10301800C9020566011693F6F60FD18EC206C18263
:103028002316D90223800D00C656F3A60680010098
:103038000100850A93FAFA0F69BA33E6B60045C269
:103048000356C9023305D0403338A000B305B04059
:10305800B385054115826345B000D1E16371A608C7
:10306800894663F0560593078008F3B7078093F7FE
:103078008708BEDA01000100B71700401307700582
:103088002380E704130780FA2380E7040100010086
:1030980003D7C7027D8B2396E70223800704D65700
:1030A80081BDF336048093F68608B6DC0100010082
:1030B800930680FA23809D002380DD000100010033
:1030C8008356C9020566011693F6F60FD18EC2061D
:1030D800C1822316D90223800D00E656B9B793079B
:1030E8008008F3B7078093F78708BEDE0100010068
:1030F80037170040930770052300F704930780FAF9
:103108002300F704010001000356C70293975600F5
:10311800B297C207C1832316F70223000704F657A4
:10312800C1BB914763EEB70217670300130787E631
:103138008A05BA959C41BA978287B717004003A7BA
:10314800470B1345F5FF698F23AAE70A03A7070B67
:10315800698F23A8E70A03A7070A798D23A0A70A7E
:103168008280B717004083A6470B1347F5FFF98EF7
:1031780023AAD70A83A6070B558D23A8A70A83A6D7
:10318800070A758F23A0E70A8280B717004003A7B4
:10319800470B498F23AAE70A03A7070B1345F5FF37
:1031A80045BFB717004083A6470B1347F5FF758F38
:1031B80023AAE70A03A7070A598D4DB7B717004096
:1031C80003A7470B498FEDB7914763EEB70217671F
:1031D8000300130767DD8A05BA959C41BA97828771
:1031E800B717004003A7470D1345F5FF698F23AABA
:1031F800E70C03A7070D698F23A8E70C03A7070CA3
:10320800798D23A0A70C8280B717004083A6470DAD
:103218001347F5FFF98E23AAD70C83A6070D558D02
:1032280023A8A70C83A6070C758F23A0E70C828020
:10323800B717004003A7470D498F23AAE70C03A738
:10324800070D1345F5FF45BFB717004083A6470D87
:103258001347F5FF758F23AAE70C03A7070C598DB1
:103268004DB7B717004003A7470D498FEDB7B717FC
:1032780000408847420541819377050491EB937795
:10328800F5013755E801130505803345F5028280BD
:103298009377050C130700046397E7009377F5010C
:1032A80037459C1CCDB72165130505D0828037E7CB
:1032B80000E01C435443A183E206D58F1CC1FD578F
:1032C8002320F7182322F718828013178500B7E701
:1032D80000E023A0E710618123A2A7108280B7F73E
:1032E80000E08847CC478280814737370040A146B5
:1032F80063C4C700328582800345B740E38EA6FECB
:103308003385F5000345050085072304A740CDB79D
:10331800411122C406C62A84993F2947B307E5020A
:10332800B2408D83B3D7870222449507B3D7E7020B
:1033380037370040C207C1832316F7404101828016
:10334800716541111305052006C6D937B737004006
:10335800130770F82381E7400D47A381E74013075F
:103368000004A380E74005472387E740B2404101B6
:1033780082802D4549E703C705008947631DF70685
:10338800D841411106C68347170003470700328515
:10339800A207D98F4167130627FE6384C7046369B0
:1033A800F60005176382E7022390060029453DA031
:1033B800130647FE638CC7021517E397E7FE954788
:1033C8002390F600154629A0D5472390F6005546C8
:1033D800CC4597D0FF1FE78060740145B24041019A
:1033E800828085472390F6000546DDB7CD472390B8
:1033F800F6004D46F1BF2390060005458280828085
:1034080083C7850093F70702E1E3411106C622C48A
:1034180026C24AC003C9050009432E888547631B95
:10342800690203A345003284B6848347130003432B
:103438000300A207B3E767004163130E13FE63821C
:10344800C7030D13638B67040D6813082890638501
:103458000707A947B2402244924402493E854101E8
:103468008280AD4765FB5547B547E365D7FE032521
:10347800C8005546A28597D0FF1FE780206A0149FA
:10348800938701889843814771D7184361D7268667
:10349800A2854A850297814775BFAD4745FF5547C5
:1034A800B547E369D7FA0325C8005546A28597D0E2
:1034B800FF1FE780A066E9B72244B2409244024960
:1034C800854741016F90D159A1473E858280416768
:1034D8007917630CE502411122C406C685472A8480
:1034E800639AF50022852244B240938541874101C1
:1034F8006FB0D12A89476396F5008545EFD0D15E34
:1035080075D1B2402244410182808280411122C497
:103518002A844165938541877D1506C6EFB0112839
:10352800170500001305E5FA0588EFD0315305C0EB
:103538002244B24097F6FF1F9386C6F34146C5451D
:1035480017F5FF1F130505E241016FB0511AB2408C
:10355800224401454101828009C523A0A188014573
:103568008280454582801147636EA70697660300EF
:103578009386C6A40A0536951841411106C63697A2
:10358800AE87B285028755476145639AE70055467D
:10359800138541A697D0FF1FE78040580145B240E8
:1035A8004101828005476145E39BE7FE0546138597
:1035B8000187CDB755476145E393E7FE5546138527
:1035C800C1A7C9BF4D476145E39BE7FC4D4613853D
:1035D80041A9C9B715476145E393E7FC154613852B
:1035E80081874DBF09458280411122C42E8493856D
:1035F800418726C206C6AA84EF905141058915C1A4
:1036080097F7FF1F938707D683D7A70BA285B240EA
:103618002310F400224426859244014641016FA0FC
:10362800B126B24022449244494541018280238216
:10363800018823A40188B717004003A7070CB70621
:10364800C0FFFD16758F23A0E70C03A7070DB7066B
:103658004000558F23A8E70C03A7070C3D9B23A028
:10366800E70C03A7070D1367070123A8E70C82805F
:1036780023A4A18813064006894503C501896F4024
:103688008122B717004003A5470C83A7470C59812F
:1036980013451500C18B058999E31365250083C778
:1036A8004188638CA7002382A18801C993878188F8
:1036B80003A30700630303000283828011456FF0B0
:1036C8000F9E411193962500AA852D4506C697D0D1
:1036D800FF1FE78000DBB2400145410182804111B4
:1036E80026C29394250022C44AC02A843289A68619
:1036F800AA850146254506C697D0FF1FE78060D8F2
:10370800A6864A86A285294597D0FF1FE78060D7FD
:10371800B24022449244024901454101828001118C
:1037280022CC06CE3714004026CA4AC84EC652C418
:1037380083447405034AB405834984050349940501
:10374800EFE05FEF8347A40593F4F40F137AFA0FC1
:1037580093E71700230DF40493F9F90F1379F90F80
:10376800B717004003C7A705058B6DFF03D5C7052D
:10377800A38D4705238C3705A38C2705A38B9704B6
:10378800F2406244D2444249B249224A05618280E9
:1037980041119397050122C406C6C1872E8463DAB6
:1037A8000700EF30712F19C1EF30B1232165218D4A
:1037B8001DA093F7150013C5150091EF93F7250089
:1037C80099CFC1351306000A894503C50189EF4021
:1037D800810D13452400B240224441018280939711
:1037E800250163D00702EF40D242C93D37F60200F7
:1037F800130606E0896503C50189EF40C10A09651A
:103808007DB7939715010145E3D707FC17650300BA
:1038180013058580EF40E34E13060064916503C5E8
:103828000189EF404108116559B71D7149469755FF
:1038380003009385E579177503001305A5BE86CEA9
:1038480097D0FF1FE780C03901E91755030013051A
:103858006579EF40034B01A0B7F600E0795798CAA5
:10386800FD57DCCA0567B7E700E023A0E710130699
:10387800F00290C223A0E7180100010017F7FF1F0C
:10388800130787AA23A6E1884157A38AE7401306AE
:10389800C0038145480897D0FF1FE780C02E9707CF
:1038A8000020938727C53ECA856713870740231CD6
:1038B800E1002167130707E03ACE37070105130730
:1038C80007103AD0938757D16D472312E10223148A
:1038D800F1020547970700009387A7A02303E10299
:1038E8003EDA17070000130707DE970700009387E3
:1038F80047E3B7F50700BAC43EDE17070000130711
:1039080047DE970700009387A7DB81467000E10533
:103918001945BAC6BEC097D0FF1FE78080B65808C1
:103928008147994670003E960346060085070507BD
:10393800A30BC700E398D7FED24791C7035781016D
:1039480085676373F70001A04808EF404158AA85CE
:1039580001C9175503001305256AEF40432601A046
:10396800F64025618280411117050000130585E2A4
:1039780006C622C4EF402152138401892300A40003
:1039880031287531034504002244B24037F602005D
:10399800130606E0896541016F30F170797106D62A
:1039A80013078008F337078093F787083EC40100A0
:1039B8000100B7170040930570052380B70413066C
:1039C80080FA2380C7040100010083C6F70293F63A
:1039D800A60FA387D70223800704A246F3A6068072
:1039E8000100010073370780137787083AC6010082
:1039F80001002380B7042380C7040100010003C726
:103A0800F70213672700A387E70223800704B2475A
:103A1800F3A70780010001000545EFE0FFC47939ED
:103A2800814701478146054685451305407EEFE0FD
:103A38009FC808084146814597D0FF1FE780A0141A
:103A4800B707C0A83ECAB787E803938707D03ECC1C
:103A5800080897D7FF1F938787933EC8EF40A17840
:103A6800B250456182804111975503009385455EA8
:103A7800175503001305C57406C6EF4043141755C0
:103A880003001305E574EF4083132945EF4023171E
:103A9800B24041016F30601841119755030093857A
:103AA8006559175503001305A57106C6EF40231184
:103AB80013050002EF40A3142945EF404314EF30EB
:103AC800F1208567138607773376C502B24093875E
:103AD800873803C58189854541013E966F30B15CC1
:103AE8004111975503009385655317550300130536
:103AF800256D06C6EF40A30C13050002EF40231006
:103B08002945EF40C30FB24003C58189854541016E
:103B18006F40E1019717002083C7D7EA411193F757
:103B2800E70F06C617170020A30EF7E8EFA0E0037B
:103B380005E1EF205030EF30206AB2403726090007
:103B480003C581891306067C854541016F30B1554F
:103B5800B240410182804111975503009385854EFB
:103B6800175503001305C56506C6EF4043052945EB
:103B7800EF40E308B240410171BF4111975503007E
:103B88009385854A175503001305856306C622C425
:103B980026C24AC0EF40A3022945EF404306EF90F2
:103BA800D07C19E52244B2409244024941019DB7B4
:103BB80097F4FF1F9384449DBC48757471797D14F4
:103BC800239027012391870017F5FF1F1305C59F31
:103BD800EFD0606CFC4417F5FF1F1305E59E23909A
:103BE8000700EFD0A069BC5817F5FF1F1305C59F44
:103BF8002390270123918700EFD0E069FC5417F543
:103C0800FF1F1305659E23900700EFD0206783A749
:103C1800040917F5FF1F1305259F239027012391FA
:103C28008700EFD0406783A7C40817F5FF1F130567
:103C3800A59D97F4FF1F9384E49F23900700EFD07E
:103C4800E0639C4826852390270123918700EFD0C5
:103C58008064DC442244B240024926859244239081
:103C6800070041016FD0806141119755030093858A
:103C7800E53E175503001305A55406C622C426C2FF
:103C8800EF30F3732945EF309377EF90106E05E925
:103C9800975503009385853C175503001305455236
:103CA800EF30F3711755030013054554EF303371A6
:103CB8002244B2409244294541016F3053741305A0
:103CC8000002EF10C00C2A8405E197550300938584
:103CD800E538175503001305A54EEF30536E1755F9
:103CE800030013052552D9B7A547A300F50093078C
:103CF800C0125CC1FD572306F500EF102008230011
:103D0800A400084CB705D4009385851A3105EF1037
:103D1800105A084C834504003105EF30A068084C60
:103D2800930500103105EF302069044C0565EF005C
:103D3800D026B104AA852685EF30C066084C9305C5
:103D480010123105EF304067084CC165FD1531058B
:103D5800EF308066084C930520123105EF30C065BE
:103D6800084C9565938505E23105EF30E0642285BE
:103D78002244B240924441016F10000793F71500A6
:103D8800B9CB411122C417550300130565432E848E
:103D9800975503009385C53006C6EF305362294511
:103DA800EF30F365EF90705C01C97D3D1345140059
:103DB800B2402244410182809717002083C797C0F0
:103DC80093F7E70F93E7170017170020A30CF7BE28
:103DD800EF20F007E1BF0145828079719755030014
:103DE80093850529175503001305853D06D6EF3041
:103DF800135D2945EF30B360614681452800EFE047
:103E08000FE7EF00B077A547A304F1009307C012AE
:103E18003EC6FD572304A100230AF100EF90F05499
:103E28001DE5975503009385A52417550300130531
:103E38002539EF30D358175503001305253BEF30CC
:103E480013582945EF30B35BB25045618280280092
:103E5800EF00707A2800EF10E0022800EF10600BE6
:103E6800E5B7411197550300938585211755030040
:103E78001305053506C622C4EF3073542945EF30C3
:103E88001358EF90904E1DE5975503009385451FF5
:103E9800175503001305C532EF3073521755030049
:103EA8001305C534EF30B3512244B24029454101CE
:103EB8006F30F3544145EF00906D2A8405E1975522
:103EC80003009385E51B175503001305652FEF3095
:103ED800134F175503001305E532E9B7A547A300AB
:103EE800F5009307C0125CC197770300938787A8F2
:103EF8005CC9FD572306F500EF0050682300A400B5
:103F0800084CB705D4009385851A3105EF10303A6F
:103F1800084C834504003105EF30C048084CBD65A6
:103F2800A5053105EF304049084C930530023105AD
:103F3800EF30404722852244B24041016F00D06AE9
:103F4800411122C4975503009385C5142A84175537
:103F580003001305E52606C6EF307346A2851755FC
:103F680003001305E527EF3093452945EF30334922
:103F780085476309F4008947630AF400B240224484
:103F8800410182802244B240410181BD2244B240B5
:103F98004101C1BD01113546975503009385C517E9
:103FA800176503001305859206CE22CC97D0FF1F14
:103FB800E78000C30DE5975503009385650F1755F6
:103FC80003001305E51FEF30933F17550300130552
:103FD8006501EF3013532945EF30734201A097F77D
:103FE800FF1F938727C63EC48567938707803400E1
:103FF8001776030013068698975503009385854C1A
:10400800175503001305854D3EC6EF20100D2A8471
:104018000DC9975503009385A50917550300130586
:10402800251AEF30D339A285175503001305C50F9C
:10403800EF30F3382945EF30933CF2406244056194
:104048008280EF80900F1755030013056507EF1066
:10405800702CEF50B00FEFF0E01717E5FF1F1305B6
:10406800A55CEFF0C0041755030013056506EFF0D3
:1040780020182A84EF200007EFA0B03FEF10213668
:10408800EF30001DEF204062EFD0801C97550300F1
:1040980093850502175503001305851209C8EF30EB
:1040A8001332A285175503001305450A51B7EF309F
:1040B8001331175503001305A50BEF30533029456D
:1040C800EF30F333EFC0307FEF90302A29C5975592
:1040D80003009385E5FD175503001305650EEF30C2
:1040E800132E175503001305250AEF30532D2945C4
:1040F800EF30F33097550300938585FB1755030080
:104108001305050CEF30B32B175503001305050AEB
:10411800EF30F32A05B7EFF0FF9FE9BF411106C65C
:10412800EFB0222CEF10602E17050000130545C5CF
:10413800EF307156238CA18817E5FF1F1305854FB3
:10414800EF001066813DEFF08FCE170500001305D4
:1041580065DFEFF0EFD1B240814505654101B1A5BA
:104168004111975503009385650B175503001305F7
:10417800250506C622C4EF3093241384A1818355F4
:1041880004001755030013056518EF30532329451C
:10419800EF30F32603550400B240224441018280E7
:1041A80039711C0822DC3EC22E84B7072000A165A5
:1041B80026DA93850526AA843EC448001C0806DE34
:1041C8003EC6EF10D00E0565613FAA854800EF3066
:1041D800A01E975503009385650517550300130521
:1041E80025FEEF30D31D8355840003566400175510
:1041F80003001305A50EA18193F5F507EF30331CD5
:104208002945EF30D31F834794000147814693F730
:10421800F707D917B337F000B307F0402305F400C8
:104228005000A2852685EF10102915C52A849755B8
:1042380003009385A5FF17550300130565F8EF30B4
:104248001318A285175503001305C50AEF30331755
:104258002945EF30D31AF2506254D254216182803A
:10426800411122C426C22A84AE84175503001305BF
:1042780025F5975503009385A5FC06C6EF30331442
:1042880013050002EF30B3172945EF305317228585
:104298002244B240A6859244410119B7397122DC03
:1042A8004AD82E844ED681453289AA89614628008B
:1042B80006DE26DA52D456D2EFE06F9BEF00102CC0
:1042C800A547A304F1009307C0123EC62304A1002A
:1042D800EF30C11F930720033375F502975503008C
:1042E800938505F78144975A0300938A6AFE154A15
:1042F8002AC8175503001305A5ECEF30530C832784
:104308000900835584008306840003C7270083C7F8
:10431800370003566400A181A2075D8F93F5F50766
:1043280017550300130505F8EF3073092945EF30D9
:10433800130D832709005685A69783C507008504B2
:10434800EF30F307E39744FF03270900834737005B
:1043580003472700A207D98F239DF1808347940044
:10436800294793F7F7076385E700FD57230AF1000C
:10437800831764006359F000FD57230AF10093077F
:10438800400602C83EC62800EF00B038A2854E8518
:10439800013DF2506254D2544259B259225A925AAB
:1043A80021618280011197550300938565EB1755AC
:1043B80003001305E5E032C606CEEF3053001305BF
:1043C8000002EF30D3032945EF3073030565493BFD
:1043D800324618428347170083460700A207DD8E3E
:1043E8006307D50003470700D98F239DF180F2406A
:1043F80005618280239DB180828041119755030019
:104408009385C5F117550300130585DB06C622C43D
:10441800EF30E37A1384C1818355040017550300F4
:104428001305C5FDEF30A3792945EF30437D0355CA
:104438000400B24022444101828039711C0822DC08
:104448003EC22E84B7072000A16526DA9385E524AD
:10445800AA843EC448001C0806DE3EC6EF1020654C
:104468000565613FAA854800EF2010759755030040
:10447800938505EC17550300130585D4EF30237495
:10448800835584000356640017550300130505E59A
:10449800A18193F5F507EF3083722945EF30237634
:1044A800834794000147814693F7F707D917B33735
:1044B800F000B307F0402305F4005000A2852685DC
:1044C800EF10607F15C52A8497550300938545E64C
:1044D800175503001305C5CEEF30636EA285175537
:1044E8000300130525E1EF30836D2945EF30237173
:1044F800F2506254D25421618280411122C426C2F2
:104508002A84AE8417550300130585CB97550300FD
:10451800938585E306C6EF30836A13050002EF3002
:10452800036E2945EF30A36D22852244B240A6854B
:104538009244410119B7397122DC4AD82E844ED6EB
:1045480081453289AA896146280006DE26DA52D4D6
:1045580056D2EFD0DFF1EF007002A547A304F100B7
:104568009307C0123EC62304A100EF2031769307BB
:1045780020033375F50297550300938525DE8144A2
:10458800975A0300938A4AE6154A2AC81755030022
:10459800130505C3EF30A362832709008355840000
:1045A8008306840003C7070083C717000356640007
:1045B800A181A2075D8F93F5F50717550300130531
:1045C800A5DFEF30C35F2945EF3063638327090018
:1045D8005685A69783C507008504EF30435EE397A9
:1045E80044FF032709008347170003470700A20772
:1045F800D98F239EF18083479400294793F7F707C3
:104608006385E700FD57230AF100831764006359A7
:10461800F000FD57230AF1009307400602C83EC682
:104628002800EF003006A2854E85013DF250625405
:10463800D2544259B259225A925A216182800111A8
:10464800975503009385C5D217550300130545B741
:1046580032C606CEEF30A35613050002EF30235AB8
:104668002945EF30C3590565493B3246184283470F
:10467800170083460700A207DD8E6307D5000347AE
:104688000700D98F239EF180F24005618280239E26
:10469800B180828039711C0822DC3EC22E84B707A3
:1046A8002000A16526DA3EC4AA841C08938545200B
:1046B800480006DE3EC6EF10803FB717004083A5CE
:1046C800470C4800B18193C515008589EF20904DAE
:1046D800975503009385C5D317550300130545AEB9
:1046E800EF30E34D835584000356640017550300EB
:1046F8001305C5BEA18193F5F507EF30434C294555
:10470800EF30E34F834794000147814693F7F7075B
:10471800D917B337F000B307F0402305F400500071
:10472800A2852685EF10205915C52A8497550300C0
:10473800938505CE17550300130585A8EF30234848
:10474800A285175503001305E5BAEF3043472945FD
:10475800EF30E34AF2506254D25421618280411111
:1047680022C426C22A84AE8417550300130545A522
:1047780097550300938505CB06C6EF3043441305D0
:104788000002EF30C3472945EF30634722852244B2
:10479800B240A68592444101F5BDB717004083A7F2
:1047A800470C7D8D133515008280411126C2AE84D9
:1047B8008D4522C406C62A84EFE01FA1B717004022
:1047C80099C803A5C70C418D23A6A70CB240224463
:1047D80092444101828003A5870C418D23A4A70C34
:1047E800F5B70111975503009385C5C51755030003
:1047F8001305059D32C606CEEF30633C1305000253
:10480800EF30E33F2945EF30833F3246B71700408A
:1048180083A7470C1842B1838345070093C7170045
:10482800858B6386F500F24005650561BDBFF240E2
:1048380005618280797122D426D22E844AD081459E
:104848003289AA846146280006D6EFD05FC23D238C
:10485800A547A304F1009307C0123EC62304A10094
:10486800EF20D146930720033375F50297550300CF
:10487800938545BC2AC81755030013056594EF3086
:104888000334835584008306840003566400A181A1
:1048980093F5F50717550300130505BFEF302332CD
:1048A8002945EF30C33583270900056583C507000F
:1048B800ED3D83479400294793F7F7076385E700A1
:1048C800FD57230AF100831764006359F000FD5770
:1048D800230AF1009307400602C83EC62800212B90
:1048E800A2852685453BB25022549254025945610F
:1048F800828041118D4522C406C62A84EFE0DF8CF0
:10490800B717004003A5870CB240218D224423A489
:10491800A70C410182800111354697450300938514
:10492800A57F17550300130565FA06CE97C0FF1F2C
:10493800E780002B01E917550300130525B7EF3071
:10494800433C01A0EF50A2452AC6EF00516BEF008F
:10495800914AEF706043F24032450561828041110F
:104968001305800406C697B0FF1FE780407237170B
:1049780000408327870A8D451305002093E7072009
:104988002324F70AEFE0EFF9EFE09F9B1765030098
:10499800130545A9EF30E33617550300130505F352
:1049A800EF302336EFE07FE8EFE0FFFBAD37EFF0C5
:1049B800EFF697C0FF1FE78060A001458280411194
:1049C800B2862E86AA852D4506C697C0FF1FE780AA
:1049D80040ABB240014541018280AE860146AA85BE
:1049E800254517C3FF1F6700C3A99307000463E6A3
:1049F800C7021D71A2CC2A84080886CE32C6EF30C1
:104A0800A310B2461008A285294597C0FF1FE7806A
:104A180040A7F64066442561828039558280014767
:104A280097560300938606C53388E5008347080038
:104A3800050709059183B69783C70700230FF5FE7D
:104A480083470800BD8BB69783C70700A30FF5FE01
:104A580093170701C183E3E9C7FC82804111975589
:104A68000300938525B0174503001305657506C631
:104A7800EF30E31413050002EF306318B240294504
:104A880041016F30C317411197550300938585ABDA
:104A9800174503001305C57206C6EF304312130508
:104AA8000002EF30C315B240294541016F3023158C
:104AB8004111975503009385A5A7174503001305D2
:104AC800257006C6EF30A30F13050002EF3023133D
:104AD800B240294541016F308312411197550300B7
:104AE800938545A4174503001305856D06C6EF3069
:104AF800030D13050002EF308310B2402945410130
:104B08006F30E30F4111975503009385E5A01745D2
:104B180003001305E56A06C6EF30630A13050002B1
:104B2800EF30E30DB240294541016F30430D5C4938
:104B3800411122C406C62A8491C7DC4381C72E8549
:104B48000C4882971C4CC84BEF20A1691C4CB24002
:104B5800224423AA0700410182804111328506C6FA
:104B680022C426C22E844AC0EF20300EAA8497554C
:104B780003009385259E1745030013056564EF30F0
:104B88000304030784000356640083554400A68683
:104B980017550300130545B1EF3063022945EF307F
:104BA800030617040020130424DA17090020130948
:104BB800A9DF83470400639B970081452285853FD1
:104BC8008345C40103C5A189EF207176130404024B
:104BD800E31124FFB24022449244024941018280F9
:104BE8001D719707002083C7E7D7CEC686CEA2CC13
:104BF800A6CACAC8D2C4ED8F970900209389C9D420
:104C0800D9EF9707002083C7E7D7ED8FD9EB970730
:104C1800002083C727D9ED8F0145B5CB89479394E9
:104C280057001C103EC4B70720003EC617EAFF1FF6
:104C3800130A4AA01C103EC88327CA0002CA02CC25
:104C480002CE83D7070033849900184C231BF10048
:104C5800FD77231CF1005C4B2E89B1E797550300C3
:104C6800938545931745030013058555EF20337544
:104C7800175503001305C59AEF2073742945EF20D3
:104C88001378B387990003C5C7013345A900F640D7
:104C98006644D6444649B649264A256182808147FA
:104CA800BDBF8547ADBF83471400A555B9CFFD17D4
:104CB800035607014C47A300F4008347C4002800AB
:104CC800230FF100EF20206C52852287976603009E
:104CD800938646CB30004C08EF00F07D2A8A55D1E8
:104CE800975503009385058B174503001305454D1C
:104CF800EF20F36CD2851755030013052593EF2099
:104D0800136C2945EF20B36FD55522850D3595BF16
:104D18009C4DDC4B81CBD04183C5C50103C5A1891E
:104D28006F20713882801C4EDC4BA1CBB9C5411174
:104D380026C2174503001305A548AE8497550300FE
:104D48009385858406C622C43284EF205367A685DE
:104D58001755030013054593EF2073662945EF2087
:104D6800136A8345C4012244B240924403C5A18911
:104D78001306400641016F20113382809387918981
:104D880003C50700130715002380E700828001117F
:104D980022CC17040020130424BB26CA044C06CED8
:104DA8004AC8DC484EC699CF045CDC4895CB244CF5
:104DB800DC488DCB0145F2406244D2444249B249B5
:104DC800056182800149AA891609EF206146C8C891
:104DD800330524011C4D23993701DC4BE9FFD9BF6A
:104DE8000549D5B70949C5B710458345C50103C568
:104DF800A1896F20512B411126C2AA84414506C6BC
:104E080022C4713705E9974503009385A5791745AD
:104E180003001305E53AEF20935A174503001305DD
:104E2800653EEF20D3592244B240924429454101BE
:104E38006F20F35C6146A6852A84EF20F34C084C6A
:104E4800B705D4009385851A3105EF005046084C04
:104E580083C504003105EF20E054084C9305001089
:104E68003105EF206055044C0565EFF01F93B10440
:104E7800AA852685EF20005322852244B240924419
:104E880041019DB7411126C2AA84414506C622C4E4
:104E9800FD3D05E997450300938505721745030015
:104EA80013050532EF20B351174503001305853567
:104EB800EF20F3502244B2409244294541016F202B
:104EC80013546146A6852A84EF201344084CB7057D
:104ED800D4009385851A3105EF00703D084C83C5D1
:104EE80004003105EF20004C084C930510123105E1
:104EF800EF20804C044C0565EFF02FD0B104AA8553
:104F08002685EF20604B22852244B240924441011D
:104F1800E1BD411126C2AA84414506C622C4853D89
:104F280005E9974503009385A56A1745030013050E
:104F38002529EF20D348174503001305A52CEF209A
:104F480013482244B2409244294541016F20334B13
:104F58006146A6852A84EF20333B084CB705D40068
:104F68009385851A3105EF009034084C83C50400F9
:104F78003105EF202043084C930520123105EF201E
:104F8800A043044C0565EFF0AF9DB104AA852685C2
:104F9800EF20804222852244B24092444101A9B5C3
:104FA800B707B1809387871A170700202326F7A031
:104FB800B7A70017938787AA170700202320F7A011
:104FC800B797EB3D157193875703170700202329DF
:104FD800F79E88109307002586CF17070020232304
:104FE800F79EA2CDEF00312DB7A7A880938707A021
:104FF80011464C0028103EC2EFF07FA297450300EF
:105008009385455E0818EF2093501946974503008D
:105018009385856413051103EFF07FA0974503007E
:105028009385455C1305D103EF20734E41469745A0
:1050380003009385C5621305E103EFF05F9E130635
:1050480060032C108810EF00D12D85476308F50AFE
:105058009745030093850552174503001305451628
:10506800EF20F3351745030013050558EF203335B6
:105078002945EF20D338EF2061459357850003C7B2
:105088009189AA97BA9713570501BA976181AA9788
:10509800A38CF188970700209387C78517070020FE
:1050A8002320F78C854717070020230DF78A9707D9
:1050B80000209387E785170700202323F78C89476B
:1050C800170700202300F78C97070020938707868F
:1050D800170700202326F78C17050000130585B055
:1050E800914717070020230FF78AEF20D15AFE4077
:1050F8006E44238DA18801452D6182802A848C10FD
:105108002800EF0031286301850297450300938545
:105118006546174503001305A50AEF20532A1745CE
:1051280003001305E54D99B741462C0017050020EB
:1051380013058587EF20531D3DBF2A86B305B04070
:10514800174503001305C5616F20732783D7418A6C
:105158006390A7022393B18A2394C18A2395D18AA5
:105168002E86174503001305A55DBE856F203325E0
:10517800174503001305455E6F20B338797106D6CD
:1051880019C589476308F50CB2504561828028002B
:1051980097C0FF1FE780809883458100174503006B
:1051A80013050569EF20B321834781000547638311
:1051B800E7048DCF09476387E706EFE01FC217456D
:1051C80003001305A567EF20D33383D5C1811745A5
:1051D800030013056568EF20931E83D5A181174549
:1051E80003001305A568EF20931D79BF0565EFF04F
:1051F8004FF0E1B70565EFF04FDA61D1416783D72A
:10520800C181130767D79305F0286367F700938771
:10521800972893950701C1810565239EB180EFF01A
:105228000FC761BF0565EFF04FD741D983D5A1817D
:105238009307904963FCB700938525F4C205C181A3
:105248000565239DB180EFF0EF9A85BF956593853D
:1052580005CAFDB7280097C0FF1FE780208CEFE044
:105268005FC01745030013056561EF20932929BF27
:1052780003574500011106CE83D7418A631FF70201
:10528800C167F917894503C5818223A2F18A23A43E
:10529800018AEF20D109914503C58182EF203109A8
:1052A80085471306F100854513055030A307F10023
:1052B800EF905265F240056182801745030013059F
:1052C800A549EF201324FDB77D15954763EEA71276
:1052D80017470300130747450A053A951C41411132
:1052E80022C406C6BA972E84828717450300130581
:1052F800A5482244B24041016F20B32003C72500CE
:105308009947631CF7002E85A53783456400174528
:10531800030013056547EF20930A1745030013059B
:105328006548C1BF03C7250095476312F702C167E7
:1053380003D7418AF91703D5A500630FF700EFA03B
:105348000208174503001305E546EF20931B174590
:1053580003001305A54871BF2392A18A83D7E500EE
:105368000966130606902393F18A83D7050103C5BE
:1053780081822394F18A83D72501A1452395F18A57
:10538800EF2061520566130606C8914503C5818260
:10539800EF2061510356E4008355A400174503002C
:1053A80013058542EF20B3015DB7174503001305C8
:1053B800A54381B783C5250091476397F500174535
:1053C80003001305E54335B79947639FF500228528
:1053D800453583456400174503001305E53A224423
:1053E800B24041016F20A37D9547639AF50083473A
:1053F8001400F1F71745030013054542DDBD1745B5
:10540800030013052542E1BF82801D7117050000C6
:105418001305651E86CEA2CCA6CAEF20D127938499
:105428008182994705442380A4002310F10270006B
:1054380093074006854513055030231CF1022306C7
:105448008100EF90324C17D6FF1F1306E622F14574
:1054580013057030EF90124B1386C1829D451305DA
:105468006030EF90324A1010894513051031EF90E3
:1054780072493018894513052031EF90B2489305D9
:1054880000050D45EF40D122930500051145EF4079
:105498003122301891451305704023008100230202
:1054A80081002306810002DC23000102EF80B2267E
:1054B8000A86854513050040EF80F2255000854592
:1054C80013051040EF803225101085451305204044
:1054D800EF8072247000854513055040EF80B22399
:1054E8007D55EF7041557D55EF9031287D55EFE0A2
:1054F800EF8117D6FF1F1306A616D5450145EF7095
:105508002142554681450810EFC07FF68947554628
:1055180081452818230081022300F100EFC03FF5E0
:105528008D474D4681456800230CF102EFC03FF4DA
:1055380091472306F10093878186984383C74700E4
:105548001010D54501453AC22304F100EFE0AF81C0
:105558000A8685450545EFE00F813018D545094590
:10556800EFE06F807000CD450D45EFD0DFFF5000B4
:1055780095451145EFD03FFFC1671387418AF91759
:105588001CC32322070013854182EFD0FFFC13853B
:10559800C189EF70427703C504008545EF20C11229
:1055A800F6406644D64425618280011122CC2E86BD
:1055B8002A842315B10001478146ED4503D5418A68
:1055C80006CEEF70017F0356A100A2852AC697B0C8
:1055D800FF1FE780A0542C0003D5418AEFE0CF805D
:1055E80009C5ED452800EF709114F2406244056149
:1055F800828079719397050122D406D6C1872E84BB
:1056080063DF070003C58182EF10114919C1EF104C
:10561800513D2165218DB25022544561828093F716
:10562800150085C317D6FF1F1306C60297F5FF1F7F
:105638009385453A03C58182EF90D2021345140041
:10564800D9BF93F725009DC713060064894503C594
:105658008182EF2041254D4681456800EFC03FE13A
:10566800930780F86800CD452306F1003D3F1345B8
:10567800240055B793F7850085C383C78182130734
:105688004006814613064006994503D5418AEF90A6
:10569800C2761345840041B793F745000145A5DF5D
:1056A80003D5418AEF9072510566130606C89145E5
:1056B80003C58182EF20211F13454400A9BFEFC213
:1056C8007FD62A8408452E89B28909C900C1970561
:1056D80000009385C5746105EFF0506381447D5ADD
:1056E800EF10C00563C3A4048144EF10200663C60D
:1056F800A40497F7FF1F9387A72E9C43DC47B307A3
:10570800F94091872302F400638109048327C900C3
:10571800B307F4409587A302F4001C4C89C79C4743
:1057280099C3228582976FC03FD35C4413971400B6
:105738008504BA972390470165B71C48139714004E
:105748008504BA97239007004DB78327890005473A
:10575800B307F4409587A302F40083570400638ECF
:10576800E7028DC309476384E7040D47E397E7FA27
:1057780097470300938747641CCC97470300938798
:10578800A76411A8974703009387872A1CCC9747DB
:1057980003009387E72A5CC849B7974703009387B4
:1057A80027161CCC9747030093878716EDB79747B2
:1057B8000300938727651CCC974703009387876569
:1057C800D9BF85E1EFC2BFC700461844834794009C
:1057D80075839D8B6315F700EF00101B48C46FC0DD
:1057E8005FC88280EFC21FC413893500C1644209B3
:1057F8004111AA890144F11413590901054A2EC619
:10580800EF00D073B2456346A400014541016FC063
:10581800BFC483A7090013171400BA9783D70700DA
:105828006388B7006394970063742A010504C1BFB5
:105838000545E9BFEFC23FBEAA892E89328BB684DF
:105848003A8ABE8AEF80603255C12685EF10902FC4
:105858008D4763E5A7007D556FC07FBF83DB44009C
:10586800EF00D0732A84EF00B074930774003144BA
:105878003305850263C5A702EF005072EF0010726E
:105888002A84EF00F07293077400314433058502CF
:1058980063CDA702EF0090709307450019A8EF00A9
:1058A8003071330585021307F0179307C017E357C4
:1058B800A7FC2D55E3C277FB63000B02D686528600
:1058C800A6854A85EFE0304641BFEF00706E33058C
:1058D80085029307C5FFF1BF832749001385C900D7
:1058E80083D52700EFF01FF071F9B5B76955ADB74B
:1058F80097F7FF1F2398A70E97F7FF1F9387470E69
:10590800904381470C463307F50042074183639370
:10591800B70082805446139847008507C2962390A3
:10592800E600D5B797F7FF1F9387870B9C4303C5FE
:105938008700828017F5FF1F0355C50A8280EFC2D2
:105948001FB0C1671387D7FF6307E5026368A70025
:10595800F117630EF50001456FC0BFB01387E7FF6D
:10596800630EE500FD171D8D13351500F5B7EF40E3
:1059780060367D15D5BFEF40E013E5BFEF4040121C
:10598800CDBFEFC2DFAB4111AA8401442EC6EF00A0
:10599800F05BB2456346A400014541016FC07FAC8E
:1059A8009C48131514003E9583570500E387B7FEFE
:1059B8000504E9BF03485500814693F7F60F63E5F0
:1059C800070181473E858280584593975600BA97CC
:1059D80003D727006316B70003D70700E304C7FE01
:1059E8008506E1BF8346450001479377F70F63E4D7
:1059F800D700814711A81C45131657000507B29711
:105A080003D60700E313B6FE3E858280EFC29FA14E
:105A180093170501C18797FAFF1F938A6AFC63559C
:105A2800F00883A70A00C0479C4703570400198D54
:105A3800420541816366F500014422856FC0DFA1FC
:105A480012052A94DDBFDC4713944900014A3E94AD
:105A5800834744006341FA02014A8347540063477D
:105A6800FA028509C20993D9090183A70A00984750
:105A7800E3EBE9FCD1B71C4413195A00A6853E99FB
:105A88004A85EFF01FF011ED050AD9B75C441319E8
:105A98005A00A6853E994A85EFF0BFEE19E1050A3E
:105AA8006DBFE30009FC51BFAA8481497DBFEFC2E5
:105AB8001F991C452A8481E79307C5001CC51C440F
:105AC800231204001CC09307F00F63E9B70093F595
