:040000006F105064C9
:1000040000000000000000009000002072070020A3
:10001400A9BDF9F528080020000000000000000038
:1000240028080020900000200000000000000000CC
:10003400900000200000000090000020000000005C
:1000440090000020900000209000002090000020EC
:1000540090000020741D002090000020000000008B
:1000640090000020900000209000002090000020CC
:100074008E080020900000209000002090000020B6
:1000840090000020900000209000002090000020AC
:1000940001A04111814601468145114506C6EF0084
:1000A400D00CB727004011472383E780B7F700E05F
:1000B40003A707D16D9B23A8E7D003A707D15D9BB6
:1000C40023A8E7D07300501001000100B2404101A1
:1000D40082800111814601468145114506CEEF001B
:1000E400D008B727004011472383E780B7170040A3
:1000F40083C6E70203C5E7041307800893F6C60F17
:100104001365350093E61600733607801376860868
:1001140032C001000100930570052380B704130663
:1001240080FA2380C7040100010023820702238090
:10013400070402487328088001000100733807800F
:100144001378880842C2010001002380B704238089
:10015400C704010001002387D7022387A704238053
:1001640007049246F3A6068001000100F3360780D7
:1001740093F6860836C4010001002380B704238067
:10018400C7040100010083C6B70493E60602A385F1
:10019400D70423800704A246F3A6068001000100C9
:1001A400B7F600E003A506D11365450023A8A6D041
:1001B40003A506D15D9923A8A6D0730050100100B1
:1001C400010073370780137787083AC601000100DE
:1001D4002380B7042380C7040100010003C7B704C8
:1001E4001377F70DA385E70423800704B247F3A729
:1001F400078001000100F240056182803971B7F582
:10020400070022DC81462A843010E105194506DE08
:1002140002D423160102912FB717004083C6E702C8
:1002240003C5E7041307800893F6C60F136535006A
:1002340093E61600733607801376860832C60100EB
:100244000100930570052380B704130680FA238008
:10025400C7040100010023820702238007043248F7
:100264007328088001000100733807801378880818
:1002740042C8010001002380B7042380C7040100A1
:1002840001002387D7022387A70423800704C246DB
:10029400F3A6068001000100F336078093F6860872
:1002A40036CA010001002380B7042380C70401007B
:1002B400010003D50702F176FD16E98E2390D702DB
:1002C40023800704D246F3A606800100010037F517
:1002D40000E0832605D193E646002328D5D083D6B3
:1002E40007026575110593F60660C18EC98EC206B4
:1002F400C18273350780137585082ACC010001007B
:100304002380B7042380C7040100010003C5F7005C
:1003140013650504A387A7002390D702238007044D
:10032400E246F3A60680010001009166758C1DE883
:1003340073370780137787083ACE010001002380C2
:10034400B7042380C7040100010003C7B70413677F
:100354000702A385E70423800704F247F3A7078075
:100364000100010037F700E0832707D1DD9B232834
:10037400F7D0730050100100010013078008F33711
:10038400078093F787083ED001000100B7170040AB
:10039400930570052380B704130680FA2380C704ED
:1003A4000100010003D50702F176FD16E98E2390C2
:1003B400D702238007048256F3A6068001000100B9
:1003C4000DEC73370780137787083AD201000100D8
:1003D4002380B7042380C7040100010003C7B704C6
:1003E4001377F70DA385E704238007049257F3A737
:1003F4000780010001005145ED2EF2506254216145
:100404008280397152D481462A8A01468145114538
:1004140022DC26DA06DE4AD84ED637140040B12351
:100424008347E4020347E4049304800893F7C70F67
:100434001367370093E71700F3B6048093F6860832
:1004440036C6010001009309700523003405130921
:1004540080FA230024050100010023020402230082
:100464000404B246F3A6068001000100F3B604803A
:1004740093F6860836C801000100230034052300E2
:100484002405010001002307F4022307E4042300E8
:100494000404C247F3A707800100010013055002BA
:1004A400E128B7F700E003A707D11367470023A8A3
:1004B400E7D073B70480137787083ACA01000100B4
:1004C4002300340523002405010001000347F40040
:1004D40013670704A307E4002300040452477327A7
:1004E40007800100010073B70480137787083ACCB2
:1004F400010001002300340523002405010001004C
:100504002167336AEA00231044032300040462478A
:10051400732707800100010003A707D15D9B23A86F
:10052400E7D0730050100100010081460146814567
:1005340011452529F3B4048093F4840826CE0100E0
:100544000100230034052300240501000100834732
:10055400640493E717002303F40423000404F2471C
:10056400F3A7078001000100F2506254D2544259AB
:10057400B259225A21618280011113078008F3378E
:10058400078093F787083EC201000100B7170040B7
:10059400930570052380B704130680FA2380C704EB
:1005A4000100010083C6B70493F6F60DA385D704B2
:1005B400238007049246F3A6068001000100937687
:1005C4000502D5CEF336078093F6860836C40100BB
:1005D40001002380B7042380C70401000100B7068B
:1005E40014007D89558D88C70100010001000100B8
:1005F40023800704A246F3A6068001000100733796
:100604000780137787083AC6010001002380B704E6
:100614002380C704010001000100010037270040C6
:1006240093061005A303D78023800704B247F3A7DA
:1006340007800100010093078008F3B7078093F750
:1006440087083ECE01000100B7170040130770056C
:100654002380E704130780FA2380E70401000100E4
:1006640003C7B70413670708A385E70423800704B7
:10067400F247F3A7078001000100056182809376A9
:100684000504BDC6F336078093F6860836C8010014
:1006940001002380B7042380C70401000100B706CA
:1006A4001400938606047D89558D88C701000100D6
:1006B4000100010023800704C246F3A6068001005E
:1006C400010073370780137787083ACA01000100D5
:1006D4002380B7042380C7040100010037270040AA
:1006E40093062005A303D78023800704D24781B74C
:1006F40073370780137787083ACC01000100238001
:10070400B7042380C7040100010098471367070C4E
:1007140098C723800704E24719BF011181460146A7
:100724008145114506CE912493078008F3B70780CD
:1007340093F787083EC601000100B717004013076E
:1007440070052380E704130780FA2380E70401007F
:10075400010003C76704136717002383E70423809A
:100764000704B247F3A7078001000100F2400561C6
:10077400828041118146014681451145FD221307BE
:100784008008F337078093F787083EC4010001000F
:10079400B7170040130670052380C704930680FA38
:1007A4002380D70401000100FD552396B70223805E
:1007B4000704A245F3A505800100010073370780F3
:1007C400137787083AC6010001002380C7042380F9
:1007D400D7040100010003C76704136717002383CC
:1007E400E70423800704B247F3A707800100010050
:1007F40001A0BD473305F50201007D1575FD82801A
:10080400411122C426C206C6AA8401446317940077
:10081400B240224492444101828005041305803E83
:100824004204C13F4180DDB79305000273A04580B7
:1008340082457390153492402242B2424243D243DD
:100844006244F244025592552256B2564257D25748
:100854006258F25806499649264AB64A464BD64B40
:10086400664CF64C065D965D265EB65E465FD65FC8
:100874000961730020304111B7170040985F3AC6F0
:10088400945F3247E39CE6FE324541018280B7170C
:100894000040130700032388E702854723A0F18261
:1008A40073002030411106C6EF00D023F5BF2303A7
:1008B400048015472303E48001002302A48082807E
:1008C40083076480E3CE07FE2303048082808307CA
:1008D4006480E3CE07FE03454480828083076480FE
:1008E400E3CE07FE2302A4808280411126C44AC2BB
:1008F4004EC006C61377F50BAD47AA892E899544D9
:100904006306F70019456537653F8D444E854537C5
:10091400FD59FD1463983401B240A244124982493E
:1009240041018280135509011375F50F453F2209D2
:10093400CDB7011126CC06CEB704080051371545B2
:10094400BD37713769372AC6A53F324593771500FD
:1009540089EB136515001375F50FF240E244056148
:100964008280FD14E9FC0145CDBF397126DC4ADAE9
:100974004ED852D656D45AD25ED006DE62CE66CC5B
:10098400B7E700E07D5783AA070022C603AA470001
:1009940023A0E71823A2E718B71700401307700530
:1009A4002380E704130780FA2380E70483C74704FE
:1009B400930B75FFB684E20793FBFB0F8546AA8968
:1009C4002E8B328937240040E187015763FA760180
:1009D4006308D5008946130700026313D500015745
:1009E400D98F93F7F70FB71C00402382FC041147FB
:1009F4002303E4801305F00F5D3D094CD135636D8D
:100A04007C11B7050700DA9537870700795563F23B
:100A1400E504B3879500636EF702370B0800A94716
:100A240033EB65016399F90689E48144513D2685D8
:100A34000DA0DA850945553D05090345F9FFFD1467
:100A4400050B693D81C49377FB0FFDF7DD3569FD27
:100A54007D55B7170040130770052380E70413077B
:100A640080FA2380E70403C74704418B2382E70409
:100A7400F250B7E700E023A0571123A24711E25434
:100A840032445259C259325AA25A125B825B724C96
:100A9400E24C21618280A5476395F90685691309B3
:100AA400F00FB3069900B3742B01B6941349F9FF00
:100AB400B3749900856B33796901416B9387F9FFAE
:100AC400B3F7270199E363FC340193D94900C14783
:100AD400E3E637FF99BF0569C1697D19D9B71305E5
:100AE400800D63886901130500026384790113058D
:100AF4001008CA85DD3B353D21DD4E99B384344170
:100B0400D9B7DA852D45D533CA94E30099F205099E
:100B14007D3BA30FA9FED5BF9387F9FF93F7F70F8A
:100B24006361FC0C83C71C0413073008631FF704BC
:100B340037070800636BEB04B3079B00B70610008C
:100B440063F5D704334BEB0089476393F906898037
:100B5400D549E38C04ECDA850945413B11090327A7
:100B6400C9FF91472320E48003076480E34E07FE16
:100B740023033481FD17EDFBFD14110B81C493771E
:100B8400FB0FE9FF7D3371F5E1B5B717004003C7EB
:100B94005704B70708001377070219E3B78707005C
:100BA4007955E378FBEA33079B00E3FFE7F855B593
:100BB4008547E382F9F2DA852D45053B9389F4FFF5
:100BC400E38504E6293393F7390091EB8326048007
:100BD4000327090093074900E39AE6E43E89CE849B
:100BE400F1BFB5476396F9001305900BC93135BDC4
:100BF400B1471305B00AE38BF9FE99476391F904F1
:100C0400B7050800B365BB002D45C53181448D4B44
:100C1400A149753963967401832704802320F90060
:100C24008504E39834FF8327048013172B0163554D
:100C340007002312F900D5BB2322F900FDB39D4719
:100C44006399F90281451305B0044531BD4423205D
:100C5400090023220900FD599D3993F77400CA97AE
:100C640003C70700FD14398D2380A700E39634FFE2
:100C74006DBBA1476392F9046D398144630D0B0088
:100C84008D479304C0036308FB00930400056304C9
:100C94008B01930440041375C507E30895D81945DF
:100CA400393139390545213126850D3909453D311B
:100CB4004931E31C05D669BB91476399F9001305D3
:100CC4006006F536F53E130590090DB7E38F09D498
:100CD400F154A9BB173700001307470283470700E5
:100CE40093F7F70FE5DF82807D166206618693171E
:100CF4008601E18763D407000145828093172600AB
:100D04003307F500AE9718439C4363E7E7007D166D
:100D1400E37FF7FC7D55828005458280FD15E20561
:100D2400E18513978501618793F7F50F6348070001
:100D3400FD15139725002A97584365D71385170087
:100D44006205618582803308B5021C4283A80600CF
:100D5400B335B502C29733B50701AE9846958548B9
:100D64006367B5006394A50063E3070181480C43FE
:100D7400C6950CC388C21CC2828081471397870121
:100D840061876343B7008280139727002A97232043
:100D940007008507E5B78147014793968701E186F8
:100DA40063C5B60013351700828093962700AA9670
:100DB40094428507558FD5B793D755408A07AA978C
:100DC4009C4305453315B5007D8D8280171300E0E3
:100DD400E70263152A84993705C5931725003E94C5
:100DE4000327C4FF814711EB7D1516053E95420587
:100DF4004185171300E06700431505838507E5B7B0
:100E04000145C5BF81471397870161876343C700C5
:100E1400828013972700B386E50094422A978507BA
:100E240014C3D5B77D166206618601479317860100
:100E3400E18763D5070013351700828093172600D6
:100E4400B306F500AE9794429C437D16B58F5D8F33
:100E5400F1BF8A05AA9501476363B500828083A622
:100E6400C5FFF11593D71600D98F9CC11397F601CE
:100E7400E5B72A830148014701456343D7008280CF
:100E8400B387050183A80700B30706019C43C697EF
:100E9400AA976384F80033B517010507B308030163
:100EA400620723A0F80061871108C1BF2A830147A4
:100EB4008147014563C3D70082803388E5008328D6
:100EC4000800330EE600032E0E003388A8403308D2
:100ED400C8416384080133B508018507B308E300FA
:100EE400E20723A00801E1871107E9B7171300E01F
:100EF400E70263030111B286B2842E86AA850A85AD
:100F040075372A84A6850A8579353334800006042A
:100F140013351500018D0561171300E06700E30226
:100F2400171300E0E702A3FD4111AA89AE8A328BB0
:100F3400B68402C202C402C60144131C8401135CB9
:100F44008C4163499C02939B1400FD1B0549138C3F
:100F5400F4FFF15C3304890162046184634D740518
:100F640092478E04CE9423AEF4FE4101171300E0A1
:100F7400670063FC13192400B30B2B01014A931778
:100F84002A00D69783A50B008843780034005000CC
:100F94005D3B050A93178A01E187F11BE351FCFECF
:100FA40092474E9905042320F900A2473EC2B24756
:100FB40002C63EC459B7131A8901135A8A41131D34
:100FC400240093178A01E18763CF970092470A04AC
:100FD4004E941CC0A24705091379F90F3EC2B247CB
:100FE40002C63EC485BFB3079A0313152A0056955B
:100FF4000841780034005000050AEA97DA978C43D8
:101004009933C1B7B7C7004003A7C72023A6072059
:101014000F10000001C599C1814711E6B7C7004010
:1010240023A6E7208280B386F50003C80600B30632
:10103400F500850723800601E317F6FEC5B737C719
:1010440000408327C720232607200F10000019C162
:1010540091C111E637C700402326F720828091050D
:1010640003A7C5FF11057D16232EE5FEDDB737C79F
:1010740000408327C720232607200F10000001C546
:101084003307C50011E637C700402326F7208280C6
:101094000505A30FB5FEE31DE5FEF5B7B7C7004090
:1010A40083A6C72023A607200F100000814733071B
:1010B400F5000307070019E737C700402326D720A8
:1010C4003E8582808507E5B7B7C7004003A7C720E0
:1010D40023A607200F10000001C599C1814711EA1A
:1010E400B7C7004023A6E720054582808507E309AA
:1010F400F6FE3308F500B386F5000348080083C6FE
:101104000600E305D8FEB7C7004023A6E720014543
:101114008280B7C7004003A7C72023A607200F106B
:1011240000009307F6FFBE952A966317C500B7C75C
:10113400004023A6E7208280FD1583C7150005051E
:10114400A30FF5FEDDB737C700408327C72023264A
:1011540007200F10000001C53307C50019E637C783
:1011640000402326F7200145828005058346F5FFCC
:10117400E397B6FEE31BE5FE37C700402326F720BE
:101184000545828079719387818522D4804306D670
:1011940026D24AD04ECE52CC56CA5AC85EC65DCC70
:1011A400B7C4C901014B9389C1849384F437173AB6
:1011B4000000130A6AF0973A0000938AAAF31739D9
:1011C4000000130969F78357240085E35C44631B1B
:1011D4000B0023ACF184832BC4002285EF00902AFA
:1011E4005E84B9A82326FB00FDB783A70900829774
:1011F4001C443307F5406376F500032749001D8F2F
:101204002A9763E0E4089737000023AD07EE83557F
:10121400240003450400976001E0E780A0935C404C
:101224005844A1CB0C4403264900AE97BE8663E420
:10123400B70063E4C700B386C74014C4228B3A8462
:1012440059F0973700009387E7EA9C4B094763708E
:10125400F706F917173700002326F7EAB25022548D
:1012640092540259F249624AD24A424BB24B456106
:10127400828063150B0023ACE184B1BF2326EB000D
:1012840099BF03274A0209CF63EFA7003385A7401C
:1012940083A70A016376F5009737000023A4A7E625
:1012A400228B404471BF03274900BA97C5B79737CB
:1012B400000023A907E45DB7938701859C4381CF90
:1012C400411106C6829783C7018699E323A8018446
:1012D400B2404101828083C7018681E723A801844B
:1012E40082808280411122C417340000130404E375
:1012F4001C4006C626C291C782979737000023AFC9
:1013040007E09737000083C7E7E39DE797370000BE
:1013140083C797E9858B173700001307A7E889CFA0
:101324008347770099466399F60E97370000A38D9B
:1013340007E6F9245C4482971C4491C38297938402
:1013440001849840173600000346D6DA9737000028
:1013540083C747DA93961700BA9683D60600E9CA7C
:101364009737000083C707D963EEC70C973700008F
:10137400238207D81C40639107149737000083C762
:10138400F7E2173400001304E4E191CF83477400BB
:1013940093F7F70F89EB97370000A38907E097705D
:1013A40001E0E78000209387C1849C436386071093
:1013B40097370000938747D8DC431737000023236F
:1013C400F7D4C93397370000938707CFDC5363857D
:1013D400070E973700009387E7D19C4BF1CF8347E3
:1013E40074001547636AF70C9737000083C707E05A
:1013F400918BF9E383C70186E1E3904097360000BF
:1014040083C656CF63CFD70A2244B24092444101E7
:10141400176301E06700C39F834777001D47E31DFF
:10142400F7F097370000A38107D8D92A1C4821B7C1
:10143400850793F7F70F97360000238DF6CAE3E785
:10144400C7F039BF86073E9783550700231007006E
:10145400239401849387C1859C4317350000034579
:1014640065C913172500BA979C43829783D7818453
:1014740017370000034707C893C7F7FF7D8D9317FD
:10148400170098403E97835707005D8D2310A700EF
:101494009737000083C707C691C785071737000031
:1014A400230AF7C4173700000347C7C4973700005F
:1014B40083C757C4E37CF7EAB24022449244410113
:1014C40082801397170032970357070075F7850733
:1014D40015BF37C700408326C720B707FCFFFD1799
:1014E400F58F2326F7200F1000009737000093870D
:1014F40067C0C84F832787262326D7206A0593C74A
:10150400F7FF99835D8D82801387C188144341114D
:1015140022C49C5E4AC006C6998326C2858B3A843F
:1015240013898188D1C7930700069CDE1737000012
:101534000347A7C79307000897340000938484C621
:10154400631BF700832709009C4393F707041737AD
:101554000000230CF7C483C7040093F707048DC36A
:101564009387C1849C4382979737000023A4A7C420
:1015740083C7040093F7F70B173700002304F7C25F
:1015840083C7440093F7070485E7854717370000AE
:10159400A30CF7C0938781899C433707020098C73F
:1015A400130700FC973600002380E6C0D844F8D324
:1015B40018401C5F9183858B99CF1C5F93E70701CB
:1015C4001CDF938781899C4323A20706854717372D
:1015D4000000230BF7BC83270900D8430583058B40
:1015E40019C7D843759BD8C3D843799BD8C3B24095
:1015F40022449244024941018280393773002030E9
:10160400938781899443973700009387A7B903C7C9
:101614000700058B11CB97370000238707B897374E
:101624000000A38307B8828003C71700058B65F702
:10163400F85271FF83C75700DDB71387C1880328A9
:101644000700832788039583858BADEF11C6832715
:101654000803BD832300F6009DC61C43985B460720
:10166400935767016356070093E707C0C207C18316
:1016740003970600C207C18709C7BA970947B3C7CA
:10168400E7022390F6008DCD8345150095C9973761
:10169400000083C787B193F7070413879500894532
:1016A40085C33A95834705000547994593F6F706A0
:1016B4006398E600E207E187814563D30700B945F3
:1016C4002E8582808545EDBF411126C206C622C4FF
:1016D400938481892DED9440AE87F8527DFF37F4D1
:1016E40000E03E8597370000238F07AA832704D1A3
:1016F400B285ED9B2328F4D0832704D193E7870296
:101704002328F4D073005010977001E0E780E0D6EE
:101714009387C1889C43B70680009843558F98C32C
:10172400D857719BD8D797370000A38F07A6973750
:101734000000A38907A69C40094798C3832704D1C6
:1017440093E787002328F4D07300501039A88D47FD
:101754006313F5049387C1889C43B70680009843BC
:10176400558F98C3D857719BD8D79440173700002A
:10177400130747A383472700858B89EB83473700EB
:10178400858BD1C797370000238007A2B24022443B
:101794009244410182808547E319F5FCB7F700E0E4
:1017A40003A707D16D9B23A8E7D003A707D113672D
:1017B400870223A8E7D07300501098408177FD1763
:1017C4005447F58F5CC70F1000009840B70702001C
:1017D4001CC7930700F8173600002307F69C93876D
:1017E400C1889C439C439D83858B639FA70093077B
:1017F40060197CD354C737F700E0832707D193E7F8
:1018040087002328F7D089B79307E01BDDB7FC5284
:10181400B5F3ADBF938781899C43D8479316D7000E
:1018240063D6060298479316D70063D106027D5704
:10183400B8D7173700001307E78B584F05079736BB
:10184400000023A7E68C3707040098C798470D8348
:10185400058B1DC3173700000347E7941367170070
:10186400973600002381E694130700F897360000AA
:10187400238CE692214798C79847058B09CF1737E1
:101884000000034737921367170097360000A38BB5
:10189400E690054798C798470983058B09E7984759
:1018A4000583058B1DCF17370000A30F078E9847BC
:1018B400973600009386068F0983058B61C703C79B
:1018C40006001367170097360000238DE68C114736
:1018D40098C71387C1881443D856719B13671700A0
:1018E400D8D698479316F70063D6060297360000B9
:1018F40083C6C698C18A173700001307A790C9CEBC
:101904000347870713670702973600002388E69684
:10191400416798C798479316E70063D206021737C2
:10192400000003476788620761876357070005471C
:1019340097360000238AE6863707020098C798473F
:101944009316C70063D706029736000083C6169322
:10195400858A173700001307E78AA9CE034797073C
:101964001367270097360000A38AE690370708001C
:1019740098C798479316B70063D506003707100039
:1019840098C7828003C73600136717009736000094
:10199400A38BE68009472DBF834687070946BD8A86
:1019A4006388C600034787078D463D8BE312D7F64D
:1019B400114799BF83469707918ACDDA0347970762
:1019C4001367870045B7172700001307677F83460F
:1019D400B7019737000083C777814C4BB697FD8BCF
:1019E40033D7F50097260000A38CF67C97260000D9
:1019F400A38EF67E058B15EF172700000347577F4C
:101A0400B3F7E702814601471305000233D6E50028
:101A1400058A1378F70F19CA6397D7009727000030
:101A2400A380077B8280850693F6F60F0507E31FE4
:101A3400A7FC82809727000083C71777D9E793878D
:101A4400C1849C43411122C426C206C682979727AB
:101A540000009387E7788047BE846303A406636825
:101A64008504018D135455009727000083C7E7763A
:101A74006368F404893F98449727000083C7E77597
:101A84009396570036971D8C9726000023AEE67474
:101A9400E372F4FE2244B240924417250000034549
:101AA400357281454101177301E0670063E99727A7
:101AB400000093876768DC433384874022955DB7D1
:101AC400B240224492444101828082809387C1843F
:101AD4009C43011122CC4AC806CE26CA4EC6829720
:101AE400972700009387C76F804701496301A406C5
:101AF400BE8463668506018D135455009727000044
:101B040083C7A76D1379F5016360F4049729000076
:101B1400938989624D3D03A884009726000083C6FB
:101B2400C66B139756004297158C3A8683A54900D5
:101B3400636407016364B7003306B7409727000066
:101B440023A4C76AE378D4FC160433692401F24061
:101B540062444A85D2444249B2490561828097274A
:101B640000009387675DDC4333848740229569B71F
:101B74009387818998438967938707F47CD39387F4
:101B8400018A9C4383A607091396560063580600EE
:101B940083A6070913966600634406007453FDF296
:101BA4008280411122C4B7C7004006C603A4C720DF
:101BB40023A607200F10000011C199E5B7C7004004
:101BC40023A6872001454DA893073500C207C1838A
:101BD400F19BC207C183130740036365F7021387B0
:101BE400418B08431387C18A14436390A6021727C5
:101BF40000001307674C185B71D3C207DD8D0545E0
:101C040002976DBF1387018BE9BF035765002DEB66
:101C1400035745006366F706B306F7402146637C25
:101C2400D60203280500938687001D8FAA966117A4
:101C3400172600000356664C2392E60023A00601F3
:101C44002393060014C12312F500130786FF972679
:101C540000002394E64A2313B5009725000083D59A
:101C6400C549B387F540172700002318F748B7C7BD
:101C7400004023A687202105B240224441018280EE
:101C84000841A5B7B7C7004003A8C72023A607206B
:101C94000F10000001E523A6072182809387418B62
:101CA40003AE07009387C18A03A307008146F28726
:101CB40063FC670A83A80700636BF50A63E9A80A53
:101CC400138787006362E50A03D667002167050767
:101CD4006317E60003C7B1870507A38DE18697253F
:101CE40000009385254103D6470003D7650023935D
:101CF400070032974207418317250000231FE53E62
:101D04006388C7031385018B08416303F50203D578
:101D1400660019ED83D7460023A0160121073E96DD
:101D240021062392C600972700002398E73CB68734
:101D34009843630B67029386018B94426306D70230
:101D44008356670095E283D647000356470018433D
:101D5400A106B2962392D70098C383D76500A10742
:101D640017270000231BF738B7C700402DB7BE86DE
:101D7400C6873DBF197106C212C416C61AC81ECA48
:101D840022CC26CE2AD02ED232D436D63AD83EDA37
:101D940042DC46DECAC0CEC2D2C4D6C6DAC8DECA67
:101DA400E2CCE6CEEAD0EED2F2D4F6D6FAD8FEDA17
:101DB400938581818841E700050092402242B24226
:101DC4004243D2436244F244025592552256B256DB
:101DD4004257D2576258F25806499649264AB64A9B
:101DE400464BD64B664CF64C065D965D265EB65E5B
:101DF400465FD65F0961730020300000EFF0CFCB5F
:101E04007300000000000000938201860383020037
:101E140023800200630F0300F32510342EC09705BE
:101E240000009385E5FD73901534EFF0BF9E7300B9
:101E3400203086DCEFF01F9EE65082800000000018
:101E4400971100209381C1BA175100201301419BBF
:101E54001305400097E5FF1F9385851A1706002098
:101E6400130606FE63FAC5008322050023A055006D
:101E740011059105E3EAC5FE17C501001305C52E3A
:101E8400970500209385C5FB1386818163FAC500FD
:101E94008322050023A0550011059105E3EAC5FE40
:101EA4001385818197250020938545486377B50084
:101EB400232005001105E36DB5FEFD42739002BCBD
:101EC4008D4273904280930280087390023097E2AF
:101ED400FF1F9382E21293E23200739052309722F2
:101EE40000009382C2EB7390123473002030397176
:101EF40001436EC619A0397141536AC866CA62CCDF
:101F04005ECE19A0397101535AD056D252D44ED64E
:101F14004AD826DA22DC06DE33016140828241118E
:101F24004AC026C222C406C68282B24D4101024D75
:101F3400924C224CB24B4101024B924A224AB24982
:101F44004101024992442244B240410182803D430E
:101F54002A876373C3029377F700BDEFADE59376E9
:101F640006FF3D8ABA960CC34CC30CC74CC7410745
:101F7400E36BD7FE11E28280B306C3408A06970260
:101F8400000096966780A6002307B700A306B70053
:101F94002306B700A305B7002305B700A304B700C1
:101FA4002304B700A303B7002303B700A302B700B9
:101FB4002302B700A301B7002301B700A300B700B1
:101FC4002300B700828093F5F50F93968500D58D95
:101FD40093960501D58D61B793962700970200006B
:101FE40096968682E78086FA9680C1171D8F3E9664
:101FF400E374C3F8A5B73367B500FD530D8B79E7D8
:10200400B7877F7F9387F7F710419441B372F60047
:102014003363F600BE92B3E262006397720C6318F6
:10202400D6065041D441B372F6003363F600BE9233
:10203400B3E262006398720A631BD60410459445A8
:10204400B372F6003363F600BE92B3E262006391AA
:10205400720A631ED6025045D445B372F600336348
:10206400F600BE92B3E26200639A72086311D6026C
:1020740010499449B372F6003363F600BE92B3E29A
:102084006200639372085105D105E30FD6F6131766
:10209400060193970601631CF7001357060193D7B3
:1020A40006013305F7409375F50F91E9828041836A
:1020B400C1833305F7409375F50F91E1828013775F
:1020C400F70F93F7F70F3305F740828003460500B7
:1020D40083C60500050585056313D60065FA330537
:1020E400D640828011059105E312D6FE0145828017
:1020F4002105A105E31CD6FC014582803105B1050B
:10210400E316D6FC014582804105C105E310D6FCE7
:1021140001458280B717004003C777051377E70F9F
:10212400A38BE704130700F8A38DE7043D47238C32
:10213400E70413075003A38CE70403C7A705137729
:10214400D70F238DE7048280B717004003C7E70445
:102154000D8941111377C70F498F93068008F3B691
:10216400068093F6860836C60100010093067005C2
:102174002380D704930680FA2380D704010001004A
:102184002387E70423800704B247F3A707800100ED
:10219400010041018280B717004003C7E7020D899F
:1021A40041111377C70F498F93068008F3B6068051
:1021B40093F6860836C60100010093067005238055
:1021C400D704930680FA2380D704010001002387F3
:1021D400E70223800704B247F3A707800100010048
:1021E4004101828041112A83014E930E407E130FD8
:1021F4000019930F400663E56E1293080019130348
:102204004006B3781503854E0D4FA14F3373650215
:102214000D891335150063EFBE121308F6FF7946D6
:1022240072984208135808013307C70213D61700DF
:10223400BE0732976146B3F6C60213068070B386B2
:10224400C6023697A166F58F42075D8FB716004028
:1022540083C7F60293F70708A303F100034671004E
:1022640083C7F60293F70708E394C7FE8347710018
:10227400B716004093F7F70F638807129307800897
:10228400F3B7078093F787083EC401000100B7172E
:102294000040930670052380D704930680FA2380B8
:1022A400D7040100010023AA070383C6170393E69A
:1022B4000608A388D70223800704A247F3A7078050
:1022C400010001001166B71700407D16D45BC85F9A
:1022D40093854703A98EF18EF5FA93068008F3B629
:1022E400068093F6860836C6010001009306700541
:1022F4002380D704930680FA2380D70401000100C9
:1023040098C103C7170313670704A388E702238050
:102314000704B247F3A7078001000100410182804E
:102324007D133368E3039308E016630E08003368F3
:10233400F3039308D016630808009378330093B826
:1023440018009388D81633081E01131E0801135E63
:102354000E0155B56393E5030548638608000148FB
:10236400630303002A8871087298FD15131E08017F
:10237400C205135E0E01C18179BD13F8150063F423
:10238400BF007908D5B713381800E5BF83C7F60234
:1023940093F70708A303F1000346710083C7F6020D
:1023A40093F70708E394C7FE8347710093F7F70F89
:1023B400F1DFE9B54111B7170040985F3AC6945F61
:1023C4003247E39CE6FE32454101828031714AD9AD
:1023D40066CB06DF22DD26DB4ED752D556D35AD143
:1023E4005ECF62CD6AC96EC7AA8C02D8EF00502DA9
:1023F4002A8993078008F3B7078093F787083EDAA2
:1024040001000100B7170040130770052380E7049B
:10241400130780FA2380E7040100010003C7F702D1
:102424001377770FA387E70203C7F70213678700C1
:10243400A387E70223800704D257F3A7078001008C
:1024440001000545893B130780C13347E902116A3E
:1024540093070AE893065002BD69930BA004814ACE
:10246400014B13048008930470057D1AB347F902E5
:102474003307D7023EC0FD873ECC938709A6930954
:10248400803E3347F7023AC27D873AC43347390363
:102494008549B399990193D93940B306D702B30B4F
:1024A4007703B3C6F602B3CBFB0236C6FD8636C845
:1024B40093D6FB4136CEB7460F00938606243349A4
:1024C400D9028566938606FAB3969601B389E90222
:1024D400130760553309D90293060010B389E90242
:1024E4003349D902B3C9F9029316390036CA3719E8
:1024F4000040FD8636D0930D090493D7F9413ED2AE
:10250400F336048093F6860836DC01000100930755
:1025140070052380FD00930680FA2380DD0001000E
:1025240001008346390593F6860FA309D90483462F
:10253400390593E61600A309D90423800D00E25659
:10254400F3A6068001000100130C80FA116DF33626
:10255400048093F6860836DE0100010093077005B7
:102564002380FD0023808D0101000100834639058D
:10257400216693E60602A309D90483560905B3E646
:10258400A6012318D90483560905D18E2318D9042A
:1025940023800D00F256F3A6068001000100834655
:1025A400390593F606026385061803463905218A20
:1025B4006DDE0818EF00D014733604801376860895
:1025C400B2C20100010023809D0023808D0101001F
:1025D4000100B717004003C637051376F60DA3892B
:1025E400C70403C6370513660602A389C7048356C6
:1025F40009052166B3E6A6012318D9048356090503
:10260400D18E2318D90423800D009646F3A60680A4
:10261400010001008346390593F60602638106141E
:1026240083463905A18AEDFE7133AA8636D459331F
:10263400A256E30DD5FE835609054255B3E6A6011D
:102644002318D904EF00900D83463905A18AEDDEE5
:10265400035609058346290582473376CA00B30623
:10266400DA0293D5F641B296B388F640E24733B81E
:10267400C6002E983308F840A247B3B616013308B3
:10268400D84063C70701631DF800924763FA170136
:10269400C247634DF80E63950701B24763E8F80E2D
:1026A400894663E7660FF2469315180013D3F801C1
:1026B4005E8613951800B365B30042D646D4EF8006
:1026C400D1573258050B137BFB0F63470001631C82
:1026D4000836A2586389083613081500B336A800D3
:1026E400B69513D6F5013298B336C800AE96135892
:1026F4001800FE06B3E606017336048013768608D6
:10270400B2C60100010023809D0023808D010100D9
:1027140001000356C902B296C206C1822316D90229
:1027240023800D00B646F3A606800100010005B51E
:10273400F336048093F68608B6C0010001002380B6
:102744009D0023808D01010001008346390593E635
:102754000602A309D90423800D0086462DBDF33655
:10276400048093F68608B6C40100010023809D000E
:1027740023808D01010001008346390593E606029A
:10278400A309D90423800D00A64649B5E30D0BF037
:10279400F336048093F68608B6C801000100930658
:1027A40080FA23809D002380DD0001000100834620
:1027B400390593F5FC0F93F6860FA309D9048346D4
:1027C4003905CD8EA309D90423800D00C646F3A68E
:1027D400068001000100130580FA034639059306BB
:1027E40039051D8A631E962773360480137686087E
:1027F400B2CC01000100130680FA23809D002380DF
:10280400CD000100010003C606001376F60D2380F7
:10281400C60003C60600136606022380C60083565C
:1028240009051166D18E2318D9048356090521663A
:10283400D18E2318D90423800D00E646F3A6068022
:1028440001000100130680FA8346390593F6060257
:102854006382062483463905130C3905A18AFDDAFF
:102864000818792DF336048093F68608B6D0010053
:102874000100930680FA23809D002380DD0001007F
:10288400010083460C00116693F6F60D2300DC006C
:1028940083460C0093E606022300DC0083560905F8
:1028A400D18E2318D904835609052166D18E2318A5
:1028B400D90423800D008656F3A60680010001008A
:1028C400130680FA8346390593F60602638F061EC3
:1028D40083463905A18AEDFEF13C2A8CE13CE30FE5
:1028E40085FF8356090511664255D18E2318D904F4
:1028F40035258346390513063905A18AFDDAF336F1
:10290400048093F68608B6D401000100930680FA89
:1029140023809D002380DD00010001008346060022
:1029240093F6F60D2300D60023800D00A656F3A6D9
:102934000680010001008356090503462905D24794
:10294400B376DA003306CA021305800C9355F641B8
:102954003696330DF6408257333CD6002E9C3336E0
:10296400A601330CFC40330CCC403308850392564B
:102974004E86B335A5033305A503C295EF80F12B2D
:1029840063468001631E0C16630C0D1613061500B6
:102994003335A6002E959356F5013696B335D600F9
:1029A400AA959396F50105828585D18E6346B0007C
:1029B400639D051A638B061A0356C90215823305F3
:1029C400D6003336C500B2956348B0006391052440
:1029D4001306F00F637DA622894663F35615930709
:1029E4008008F3B7078093F78708BED6010001007B
:1029F40037170040930770052300F704930780FA04
:102A04002300F704010001008356C7028967811778
:102A1400D58FC207C1832316F70223000704B657D4
:102A2400F3A7078001000100FA506A54DA544A59A6
:102A3400BA592A5A9A5A0A5BFA4B6A4CDA4C4A4DEA
:102A4400BA4D296182801308F5FF3335A800FD15BE
:102A54002E951356F5013298B336C800AA9641B99B
:102A6400F336048093F68608B6CA01000100238079
:102A74009D002380AD000100010083463905CD8E01
:102A8400A309D90423800D00D646F3A606800100CD
:102A94000100A1B3F336048093F68608B6CE010094
:102AA400010023809D002380CD00010001008346A6
:102AB400390593E60602A309D90423800D00F646DE
:102AC400F3A606800100010041B3F336048093F6B7
:102AD4008608B6D20100010023809D002380CD002A
:102AE400010001008346390593E60602A309D904CF
:102AF40023800D009656F3A6068001000100D9B389
:102B04009306F5FF33B5A600FD152E959355F501F3
:102B1400AE96B3B5B600AA951396F501858269B54C
:102B2400F336048093F68608B6D8010001009306B4
:102B340080FA23809D002380DD000100010083567C
:102B4400C9020566011693F6F60FD18EC206C1823C
:102B54002316D90223800D00C656F3A60680010071
:102B64000100850A93FAFA0F61BA33E6B60045C24A
:102B74000356C9023305D0403338A000B305B04032
:102B8400B385054115826345B000D1E16371A608A0
:102B9400894663F0560593078008F3B7078093F7D7
:102BA4008708BEDA01000100B7170040130770055B
:102BB4002380E704130780FA2380E704010001005F
:102BC40003D7C7027D8B2396E70223800704D657D9
:102BD40081BDF336048093F68608B6DC010001005B
:102BE400930680FA23809D002380DD00010001000C
:102BF4008356C9020566011693F6F60FD18EC206F6
:102C0400C1822316D90223800D00E656B9B7930773
:102C14008008F3B7078093F78708BEDE0100010040
:102C240037170040930770052300F704930780FAD1
:102C34002300F704010001000356C70293975600CE
:102C4400B297C207C1832316F70223000704F6577D
:102C5400C1BB914763EEB70217A701001307073EF4
:102C64008A05BA959C41BA978287B717004003A793
:102C7400470B1345F5FF698F23AAE70A03A7070B40
:102C8400698F23A8E70A03A7070A798D23A0A70A57
:102C94008280B717004083A6470B1347F5FFF98ED0
:102CA40023AAD70A83A6070B558D23A8A70A83A6B0
:102CB400070A758F23A0E70A8280B717004003A78D
:102CC400470B498F23AAE70A03A7070B1345F5FF10
:102CD40045BFB717004083A6470B1347F5FF758F11
:102CE40023AAE70A03A7070A598D4DB7B71700406F
:102CF40003A7470B498FEDB7914763EEB70217A7B8
:102D040001001307E7348A05BA959C41BA97828774
:102D1400B717004003A7470D1345F5FF698F23AA92
:102D2400E70C03A7070D698F23A8E70C03A7070C7B
:102D3400798D23A0A70C8280B717004083A6470D86
:102D44001347F5FFF98E23AAD70C83A6070D558DDB
:102D540023A8A70C83A6070C758F23A0E70C8280F9
:102D6400B717004003A7470D498F23AAE70C03A711
:102D7400070D1345F5FF45BFB717004083A6470D60
:102D84001347F5FF758F23AAE70C03A7070C598D8A
:102D94004DB7B717004003A7470D498FEDB77971B9
:102DA40022D43714004026D24AD003592402835433
:102DB400040206D64209C2044ECE52CC56CA135956
:102DC4000901C1802DE11379F9F793F4F49F4209C5
:102DD400C20413590901C18093078008F3B707801F
:102DE40093F787083EC40100010093077005230090
:102DF400F404930780FA2300F40401000100231172
:102E040024032310940223000404A247F3A7078099
:102E140001000100B250225492540259F249624A0C
:102E2400D24A45618280B7F5070081463000B1057A
:102E3400194597E0FF1FE78040B3A2471397270186
:102E4400E34A07FC1369090893E4044093098008E2
:102E5400F3B7098093F787083EC001000100930A85
:102E6400700523005405130A80FA23004405010069
:102E74000100231124032310940223000404824735
:102E8400F3A7078001000100294597E0FF1FE780B1
:102E94004096F3B9098093F989084EC201000100F4
:102EA4002300540523004405010001008357040254
:102EB40093E707202310F402230004049247B9B7D0
:102EC400B71700408847420541819377050491EB89
:102ED4009377F5013755E801130505803345F5026D
:102EE40082809377050C130700046397E7009377B8
:102EF400F50137459C1CCDB72165130505D08280AB
:102F040037E700E01C435443A183E206D58F1CC17C
:102F1400FD572320F7182322F71882801317850002
:102F2400B7E700E023A0E710618123A2A710828005
:102F3400B7F700E08847CC478280814737370040A5
:102F4400A14663C4C700328582800345B740E38E3F
:102F5400A6FE3385F5000345050085072304A74035
:102F6400CDB7411122C406C62A84993F2947B30725
:102F7400E502B2408D83B3D7870222449507B3D7C5
:102F8400E70237370040C207C1832316F7404101E7
:102F94008280716541111305052006C6D937B737FC
:102FA4000040130770F82381E7400D47A381E740F1
:102FB40013070004A380E74005472387E740B24096
:102FC4004101828011456FF06FC041119396250035
:102FD400AA852D4506C697E0FF1FE7800099B240F9
:102FE400014541018280411126C29394250022C4E7
:102FF4004AC02A843289A686AA850146254506C682
:1030040097E0FF1FE7806096A6864A86A285294539
:1030140097E0FF1FE7806095B24022449244024942
:10302400014541018280011122CC06CE37140040B3
:1030340026CA4AC84EC652C483447405034AB4051A
:103044008349840503499405EFF0CF8C8347A40595
:1030540093F4F40F137AFA0F93E71700230DF40493
:1030640093F9F90F1379F90FB717004003C7A705B0
:10307400058B6DFF03D5C705A38D4705238C370545
:10308400A38C2705A38B9704F2406244D24442499F
:10309400B249224A0561828041119397050122C4F5
:1030A40006C6C1872E8463DD0700EF30617D19C138
:1030B400EF30A1712165218DB2402244410182800B
:1030C40093F7150013C51500E5FB9397250163D00D
:1030D4000702EF50C16CFD3537F60200130606E017
:1030E400896503C5C181EF30F12E0965E9B793976E
:1030F40015010145E3D207FC17A50100130505FBE3
:10310400EF80B14C13060064916503C5C181EF30B3
:10311400712C11654DB71D71494697A50100938522
:1031240065F417B501001305A5E786CEA2CC97E098
:10313400FF1FE78060F901E917A501001305C5F336
:10314400EF80B14801A037F700E0795610CBFD5667
:1031540054CBB7E700E0056423A087109306F00280
:1031640014C323A087180100010017F7FF1F1307DA
:10317400A7C923ACE1804157A38AE7401306C003E3
:103184008145480897E0FF1FE78060EE970700201D
:103194009387079C3ECAA167938707E03ECEB70793
:1031A4000105938707103ED0ED472312F1028547AE
:1031B4002303F10297070000938767E1BEC49707D2
:1031C4000000938787E2BEC68567938757D123148F
:1031D400F102970700009387E7D53EDA97070000CE
:1031E4009387A7E43EDEB7F50700970700009387AF
:1031F400A7DDBEC08146970700009387A71A700019
:10320400E10519453EDC231C810097D0FF1FE780B0
:10321400C07558088147994670003E9603460600DB
:1032240085070507A30BC700E398D7FED24791C7CC
:103234000357810185676373F70001A04808EF30E5
:103244001161AA8501C917A50100130525E4EF80C2
:10325400912301A0F640664425618280411117053F
:1032640000001305A5E306C622C4EF30D15A138427
:10327400C1812300A4008520C922034504002244FF
:10328400B24037F60200130606E0896541016F304B
:103294007114411193078008F3B7078093F78708E7
:1032A4003EC601000100B7170040130770052380D4
:1032B400E704130780FA2380E70401000100C8DB58
:1032C40023800704B247F3A707800100010023A06D
:1032D400018241018280797106D613078008F33791
:1032E400078093F787083EC401000100B717004028
:1032F400930570052380B704130680FA2380C7045E
:103304000100010083C6F70293F6A60FA387D70234
:1033140023800704A246F3A6068001000100733748
:103324000780137787083AC6010001002380B70499
:103334002380C7040100010003C7F70213672700B5
:10334400A387E70223800704B247F3A7078001009D
:1033540001000545EFE03FE4B5318147014781466F
:10336400054685451305407EEFE0DFE70808414642
:10337400814597E0FF1FE78080CFB707C0A83ECA0A
:10338400B787E803938707D03ECC080897D7FF1F79
:103394009387674E3EC8EF30316EB25045618280EC
:1033A400011122CC06CE930730031304D5FC63E746
:1033B400A7003704C0A81304D4FC2A9468008936F3
:1033C400EFE05FFFB307A4406376A400B707C0A88B
:1033D400A297898F3747F6A68117130707C6637923
:1033E400F7003245253E0945F2406244056182807A
:1033F4002285453532451D363737004083475740CF
:1034040093F707048DCB938701829C430D45E9FF15
:103414001165690597D0FF1FE78040DE0545EFE0A1
:10342400BFD2EFE03FF92AC4EFE0DFF8A247E30D93
:10343400F5FE014555BF0100D1B7411113078008BE
:10344400F337078093F787083EC401000100B717DC
:103454000040930570052380B704130680FA238087
:10346400C7040100010083C6E70093E686002387B2
:10347400D70023800704A246F3A6068001000100BA
:1034840073370780137787083AC601000100238049
:10349400B7042380C7040100010003C7170313679F
:1034A4000702A388E70223800704B247F3A7078033
:1034B40001000100B7E700E03707001023A0E71080
:1034C40041018280411197A50100938525C317A569
:1034D4000100130565D506C6EF80E17A17A5010042
:1034E400130585D5EF80217AB240294541016F80CB
:1034F400817D411197A50100938585C117A5010020
:10350400130585D206C6EF80017817A501001305BF
:1035140065D0EF804177B240294541016F80A17A9F
:10352400411197A501009385E5BF17A50100130577
:10353400A5CF06C6EF802175B240294541016F80B1
:103544008178411122C417A501001305E5CD2E840D
:1035540097A501009385C5BD06C6EF80C1722945B4
:10356400EF8061760DC497A50100938565BC17A50E
:103574000100130565CBEF800171A28517A5010039
:10358400130585DEEF8021702945EF80C173224445
:10359400B240056603C54182130606C8854541014C
:1035A4006F304163797122D426D24AD02E842A897D
:1035B400B28481457146480006D6EFE05F9997F7DB
:1035C400FF1F9387A79ADC4783D7070023142101A1
:1035D4002313F100EF00B03E8547A305F1009307E4
:1035E40000192305A1003EC62686FD57A285480082
:1035F400230AF100EF00103FB250225492540259B2
:1036040045618280411122C406C6834705002A848D
:103614009DC397A50100938525B617A50100130541
:10362400A5C0EF8041664C4017A50100130585DA5B
:10363400EF80616571A85841B707CF009387777D04
:10364400631AF71A97A50100938505B317A501001E
:10365400130585BDEF8021631C448356E400835524
:10366400C40003C6070017A50100130525D8EF8081
:1036740081612945EF8021650356C4000C441385FC
:10368400810C97E0FF1FE780E09783C7810C130745
:10369400200A638AE7001307300A6380E712B24006
:1036A4002244410182800357C4008D4797A501003D
:1036B400938585AC17A50100130505B76300F702D0
:1036C400EF80615C17A50100130545D4EF80A15B71
:1036D4002244B240294541016F80E15EEF80A15A46
:1036E40017A50100130505D4EF80E1592945EF80A2
:1036F400815D0355E400930720F805469385810C0A
:103704002384F10C45359377F50F2A8495C797A543
:103714000100938565A617A501001305E5B0EF80A8
:1037240081569375F40F17A50100130565D3EF8037
:1037340081552945EF80215997A501009385C5A39B
:1037440017A50100130545AEEF80E15317A501004D
:10375400130545D2EF8021532945EF80C1564165B9
:10376400930730FA05469385810C7D152384F10C6B
:10377400153D9377F50F2A8495C797A50100938586
:10378400A59F17A50100130525AAEF80C14F9375C6
:10379400F40F17A501001305A5CCEF80C14E2945F0
:1037A400EF8061520566130606C891452244B24073
:1037B40003C5418241016F30E1410357C40085478D
:1037C4006301F70297A501009385059B17A50100E6
:1037D400130585A5EF80214B17A501001305C5CC62
:1037E400F5B58357E4000566130606C82397F182EE
:1037F400A1456DBFB707CC009387777D631AF702A5
:1038040097A501009385459717A501001305C5A148
:10381400EF8061471C448356E4008355C40003C60B
:10382400070017A50100130565BCEF80C1454DB520
:10383400B707CE009387777DE303F7E697A50100EA
:103844009385859317A501001305059EEF80A14379
:103854004C4017A501001305E5C6D9BB411122C48C
:1038640006C6834705002A8485CB97A50100938566
:10387400A58E17A501001305259BEF80C1404C4080
:1038840017A50100130505A7EF80E13F2244B240CC
:10389400294541016F80214358411DEF97A501003F
:1038A4009385858B17A5010013050598EF80A13D2D
:1038B40017A50100130585A5EF80E13C2945EF809C
:1038C40081402244B240116603C54182130606E8D2
:1038D400914541016F300130A1679386D70363118D
:1038E400D70297A501009385258717A50100130525
:1038F400A593EF80413917A50100130525A26DBFDB
:10390400ED0797A501009385258517A501001305EB
:10391400A5916315F702EF80013717A50100130580
:1039240025A1EF8041362945EF80E1392244B24098
:1039340003C54182914541016F30013FEF80A134BD
:103944004C4017A501001305E5B73DBF411106C65C
:10395400EF90703A19E5EF10F037B24041016F2053
:103964006075B240410182804111979501009385B1
:10397400E57D17A501001305258B06C6EF80A13050
:103984002945EF804134B2404101C9B7411106C60F
:1039940022C426C285476395F502AA84979501003F
:1039A4009385C57C17A5010013050588EF80A12D1B
:1039B400A68517A501001305E59BEF80C12C2DA05A
:1039C4002E848947979501009385457A17A50100B0
:1039D400130585856311F402EF80E12A17A5010020
:1039E4001305459BEF80212A2244B2409244294585
:1039F40041016F80412DEF800129A28517A50100A7
:103A04001305059B5DBF011122CC2EC62A84979510
:103A140001009385A57217A501001305E58006CE64
:103A2400EF8061263246A28517A50100130545994A
:103A3400EF8061252945EF80012983C7018381EF48
:103A440097E7FF1F93878752DC4703D70700C167B7
:103A5400FD17631DF7006244F240116603C54182FD
:103A6400130606E8914505616F30C116F2406244C1
:103A740005618280411122C406C693F725002E8475
:103A840099CF056613060696894503C54182EF3032
:103A9400611413452400B24022444101828093F70B
:103AA4001500A1CF97E7FF1F9387474CDC4703D549
:103AB4000700EF00213D15C90545EF80706E97950D
:103AC40001009385656E179501001305E575EF8078
:103AD400811B179501001305A55DEF80C11A2945C7
:103AE400EF80611E134514007DB7130600648545FD
:103AF40003C54182EF30010EF5B793F745008DCB36
:103B0400979501009385456A179501001305C571C2
:103B1400EF806117179501001305C55AEF80A116B0
:103B24002945EF80411AEF10107D13454400A5B7D5
:103B340093F785000145A5D3854503D5E182EFE0E0
:103B44003065979501009385256617950100130547
:103B5400A56DEF804113179501001305E557EF801C
:103B640081122945EF802116134584002DB70111D8
:103B74003546979501009385656D17A501001305DA
:103B840065BE06CE22CC97D0FF1FE780E05301E943
:103B9400179501001305454EEF80212301A097E7F7
:103BA400FF1F938767713EC48567938707809705D6
:103BB40000009385E5DD179500001305C5F73EC6A3
:103BC400EF801076B7F50700814613868182E10500
:103BD400194597D0FF1FE78040D919469385818204
:103BE4001385810E97D0FF1FE780C04134001386F0
:103BF400818297A501009385E58F17A50100130520
:103C0400E590EF10503B2A840DC9979501009385E8
:103C1400A5581795010013052561EF80C106A285FB
:103C24001795010013058563EF80E1052945EF80B1
:103C34008109F240624405618280EF70B03D1795BE
:103C440001001305A557EF009058EF40F03DEFE059
:103C5400F07C17E5FF1F1305252FEFE0D0691795BA
:103C640001001305A556EFE0307D2A84EF102032C1
:103C7400EFA05022EF10211BEF20404BEF10B00CAF
:103C8400EFC0307F9795010093850551179501008A
:103C94001305855909C8EF70117FA2851795010096
:103CA4001305055E51B7EF70117E179501001305DA
:103CB400655FEF70517D2945EF80E100EFC0D06171
:103CC40085472388F182EF90100331C9979501004D
:103CD4009385854C1795010013050555EF70B17A4E
:103CE400179501001305855DEF70F1792945EF7093
:103CF400917D854503C54182EF205165979501006B
:103D0400938585491795010013050552EF70B17726
:103D1400179501001305C55CEF70F17601BF3D31C5
:103D2400F1BF411117050000130505D506C6EF3094
:103D3400812E2382A18217E5FF1F13052523EF009F
:103D4400D001B240410125B5411135469795010096
:103D54009385C54F17A501001305C5A006C622C447
:103D640097D0FF1FE780403601E91795010013053E
:103D7400E576EF80810501A0EF60213B2A840545AB
:103D8400EF70B028EF10214CEF10612BEF60D06C76
:103D94002285B2402244410182804111054506C674
:103DA400EFE0FFFF1305800497C0FF1FE780C07C8E
:103DB40085457D55EFE0FFE985457D55EFE0DFF36F
:103DC400371700408327870A8D451305002093E7A2
:103DD40007202324F70AEFE0DFE7EFF08F9B17A516
:103DE40001001305E51BEF70517E17A501001305B3
:103DF4006597EF70917DEFF00FB2EFF02FC6A93702
:103E04000D3797D0FF1FE780E0A90145828041115B
:103E1400B2862E86AA852D4506C697D0FF1FE78059
:103E2400C0B4B240014541018280AE860146AA85F4
:103E3400254517D3FF1F670043B39307000463E6C8
:103E4400C7021D71A2CC2A84080886CE32C6EF7040
:103E54003158B2461008A285294597D0FF1FE78044
:103E6400C0B0F640664425618280395582809387CC
:103E7400418318429C4383D645000345070083C50C
:103E8400C700035646006396A50083D5E700638DFB
:103E9400D502011106CE2386A7002397D700B705C4
:103EA400CF00DC4B9385757D05077D162EC223005C
:103EB40001003AC42316C1002317D10099C30A850F
:103EC4008297F2400561828082806D713C083EC613
:103ED400B707E500232291103EC8AA843C08328526
:103EE400232611103ECA23248110232021112E8958
:103EF400EF2060432A8497950100938565661795A2
:103F0400010013056532EF701158A2851795010061
:103F140013050575EF7031572945EF70D15AB70570
:103F2400CB009385757D6800EF001024A28568009E
:103F3400EF200035014781467000CA852685EF00D1
:103F4400F04215C52A8497950100938565611795FC
:103F540001001305652DEF701153A285179501001B
:103F64001305C570EF7031522945EF70D155832088
:103F7400C1100324811083244110032901105161CD
:103F840082809387418318429C43797122D406D658
:103F94000348070083C807012A8483D645000355D4
:103FA40046006396080183D82701638DD8022388CD
:103FB400070105072399D7003708CC00DC4B130809
:103FC400787D3ACC1307F5FF42CA23080100231E6B
:103FD400E100231FD10099C7080832C62EC4829776
:103FE4003246A2452285D535B2502254456182809D
:103FF4006D713C083EC0B707E5003EC23C083EC4B4
:104004002326111023248110232291102317010049
:104014002318010023190100231A0100231B0100A6
:1040240097E7FF1F83D787F899E3C167FD17231626
:10403400F10097E7FF1F83D787F781EB93874183CD
:104044009C439C43DC4783D7070017E4FF1F1304FA
:10405400E4F5584C2317F10083574400484B2318C8
:10406400F10005ED9795010093858556179501009C
:104074001305851BEF703141179501001305855613
:10408400EF7071402945EF7011448320C11003245F
:104094008110832441105161828097E7FF1F83C7F9
:1040A40057F199E7EF2061725C4C23AA0700F1BF36
:1040B400FD1797E6FF1FA38EF6EE0356070183470D
:1040C40004014C470A85230BF100EF2080199387E4
:1040D40041839C430147814688430A866C00EF0074
:1040E400F028AA8405C9979501009385654E179514
:1040F400010013056513EF701139A68517950100AA
:104104001305054FEF7031382945EF70D13B5C4CF6
:10411400C84B49BF97E7FF1F83C7B7E9EDDB1044DE
:10412400854503C58183EF20F12A85B7DC4DDC4B3F
:1041340099C7904503C5818391456F20B129828039
:104144005C4EDC4BA1C7B9C1411122C417950100D3
:104154001305850D2E84979501009385A54506C604
:10416400EF707132A285179501001305A54AEF700F
:1041740091312945EF7031352244B24003C5818322
:1041840013064006914541016F20D12482804111DC
:1041940022C417E4FF1F130464DF1C4C06C689C73E
:1041A400DC4399C34C4882975C4CC84BEF20E161D7
:1041B4005C4CB240224423AA070041018280138749
:1041C400A180834707009306F00B850793F7F70F49
:1041D40063E7F6002385F180034507008280930797
:1041E40000F8CDBF83574500638D070C01114AC801
:1041F40017E9FF1F130989DB52C4032AC90106CE3C
:1042040022CC03274A0126CA4EC6F15729EB1307CD
:10421400D00DFD576365C7042A8413058600420543
:104224004181B284AE89EF20215F232AAA000325AD
:10423400C9015C4995EF979501009385A5351795BC
:104244000100130565FEEF70112417950100130595
:10425400A544EF7051232945EF70F126DD57F24054
:104264006244D2444249B249224A3E850561828071
:1042740093874400B705CF002319F5009385757D16
:104284003105EF00606E0325C901834564003105E3
:10429400EF10107F0325C9012686CE853105EF1066
:1042A400507C7146A2854A85EF709112504401CA30
:1042B400854503C58183EF20F11181474DB70D3B3F
:1042C400EDBFFD573E858280411122C417E4FF1FD4
:1042D4001304C4CD5C4C06C6C84BEF20014F5C4CA4
:1042E4002244B24023AA070003C5818385454101C6
:1042F4006F209123411126C2938441839C4006C6BA
:1043040022C4BDCFDC43ADCF5CC12300B5002A84F9
:104314009795010093854523179501001305C5F072
:10432400EF7071162945EF70111A9C4023A4070001
:1043340023A2070097E7FF1F938747C5DC4FDC4B99
:1043440099C32955A93597E7FF1F938727C6DC4FE3
:10435400DC4B91C3953F894503C58183EF20D11C74
:10436400914503C58183EF20311C9C4003A3470181
:104374006308030022852244B2409244410102832F
:10438400B24022449244410182800111328506CE1A
:1043940022CC26CA2E84EF101079AA8497950100A6
:1043A4009385C51D17950100130505E8EF70B10D40
:1043B400030784000356640083554400A6861795BA
:1043C400010013052527EF70110C2945EF70B10F7B
:1043D40097E7FF1F83C7E7BB639797000145453BFA
:1043E40081450A85013FF2406244D24405618280DE
:1043F4006D7123248110232611102322911093F729
:1044040045002E84638F07103C083EC0B707E500C3
:104414003EC23C083EC4231701002318010023199F
:104424000100231A0100231B010097E7FF1F83D714
:10443400E7B599E3C167FD172316F10097E7FF1F5E
:1044440083D7E7B481EB938741839C439C43DC4748
:1044540083D7070017E7FF1F130747B32317F1009C
:10446400544F835747002318F100DC4A95EF979582
:1044740001009385E514179501001305E5DAEF7043
:104484009100179501001305E515EF70C17F2945CB
:10449400EF707103134544008320C110032481107D
:1044A400832441105161828097E7FF1F83C777AE51
:1044B4002555B5C7FD1717E6FF1FA30CF6AC03D6A9
:1044C400060183470701CC460A85230BF100EF1050
:1044D4005059938741839C4317E7FF1F130707AB8A
:1044E40097A601009386C6C688430A866C00BD2D34
:1044F400AA844DD1979501009385850C17950100E9
:10450400130585D2EF702178A68517950100130550
:10451400250EEF7041772945EF70E17A26858539BC
:1045240095BF93F725008DC341468145280897D050
:10453400FF1FE780C0B32555993928089305F00F6C
:10454400553B1345240089BF93F715000145A9D7AE
:10455400EFF01FAA1345140081B75C4D411106C644
:1045640088C3170500001305E5E823AAF182EF20AC
:10457400912AB240238CA182014541018280EFD26D
:104584007F982A8408452E89B28909C900C19705F4
:1045940000009385C5736105EF00D11B81447D5AEA
:1045A400EF10A00363C3A4048144EF10000463C6A6
:1045B400A40497F7FF1F9387275D9C43DC47B30749
:1045C400F94091872302F400638109048327C90019
:1045D400B307F4409587A302F4001C4C89C79C4799
:1045E40099C3228582976FD03F955C44139714003A
:1045F4008504BA972390470165B71C4813971400A4
:104604008504BA97239007004DB78327890005478F
:10461400B307F4409587A302F40083570400638E24
:10462400E7028DC309476384E7040D47E397E7FA7C
:10463400979701009387C7611CCC979701009387D4
:10464400276211A897970100938707281CCC979796
:104654000100938767285CC849B79797010093873F
:10466400A7131CCC9797010093870714EDB797976E
:1046740001009387A7621CCC979701009387076377
:10468400D9BF85E1EFD2BF8900461844834794001F
:1046940075839D8B6315F700EF00901948C46FD0A4
:1046A4005F8A8280EFD21F8613893500C164420974
:1046B4004111AA890144F11413590901054A2EC66E
:1046C400EF00B071B2456346A400014541016FD0CB
:1046D400BF8683A7090013171400BA9783D707006E
:1046E4006388B7006394970063742A010504C1BF0B
:1046F4000545E9BFEFD23F80AA892E89328BB68463
:104704003A8ABE8AEF80305F4DC12685EF10503162
:104714008D4763E5A7007D556FD07F8183DB44001F
:10472400EF00B0712A84EF00907293077400314453
:104734003305850263C5A702EF003070EF00F06F08
:104744002A84EF00D0709307740031443305850246
:1047540063CDA702EF00706E9307450019A8EF0020
:10476400106F330585021307F0179307C017E3573B
:10477400A7FC2D55E3C277FB63000B02D686528655
:10478400A6854A85EFF0A07E41BFEF00506C33054B
:1047940085029307C5FFF1BF832749001385C9002C
:1047A40083D52700013779F9BDB76955B5B797F7B0
:1047B400FF1F239DA73C97F7FF1F9387E73C904378
:1047C40081470C463307F500420741836393B700E2
:1047D40082805446139847008507C2962390E600CA
:1047E400D5B797F7FF1F9387273A9C4303C58700E4
:1047F400828017F5FF1F035565398280EFD22FF2AF
:10480400C1671387D7FF6307E5026368A700F11741
:10481400630EF50001456FD0CFF21387E7FF630EF7
:10482400E500FD171D8D13351500F5B7EF40403831
:104834007D15D5BFEF40C015E5BFEF402014CDBFB7
:10484400EFD2EFED4111AA8401442EC6EF00F059D6
:10485400B2456346A400014541016FD08FEE9C48E8
:10486400131514003E9583570500E387B7FE05042E
:10487400E9BF03485500814693F7F60F63E5070146
:1048840081473E858280584593975600BA9703D74F
:1048940027006316B70003D70700E304C7FE8506A5
:1048A400E1BF8346450001479377F70F63E4D700E0
:1048B400814711A81C45131657000507B29703D664
:1048C4000700E313B6FE3E858280EFD2AFE3931771
:1048D4000501C18797FAFF1F938A0A2B6353F008D7
:1048E40083A70A00C0479C4703570400198D42055B
:1048F40041816366F500014422856FD0EFE3120520
:104904002A94DDBFDC4713944900014A3E9483474F
:1049140044006341FA02014A834754006346FA02A1
:104924008509C20993D9090183A70A009847E3EBD3
:10493400E9FCD1B71C4413195A00A6853E994A854F
:10494400013709ED050AE1B75C4413195A00A6853D
:104954003E994A85F53519E1050A7DBFE30209FC54
:1049640061BFAA848149C9B7EFD26FDB1C452A8491
:1049740081E79307C5001CC51C44231204001CC016
:104984009307F00F63E9B70093F5F50F2285EF1055
:10499400300F6FD00FDB93940501C167C18063F7BB
:1049A400F500A6852285EF105011E5B7C18193F576
:1049B400F50F2285EF10D00CA6852285EF10900DFF
:1049C400C9BF97F7FF1F9387271C884382801C4524
:1049D40099C797F7FF1F23A9A71A014582807D5520
:1049E400828097F7FF1F9387271A984383474500D0
:1049F400484792073E958280EFD26FD2617100459D
:104A04001C183EC6B70780013EC81C183ECA83570F
:104A1400440002CE02D002CC231EF100834784005E
:104A24002A8902D22301F1023C083ED402D6553F22
:104A3400835705002316F102EF3010672307A10204
:104A44005C4003556400F18313F717008347F102B8
:104A540052055181F99BD98FA307F102EFF08042EF
:104A640039C5AA8403550500EF80D02983D70400F3
:104A74002AD26800231CF10083D72400231DF100EF
:104A84001C4803D647008C43EF10A07D8347B40035
:104A9400CA86179601001306A6C98117A305F40058
:104AA4006C004810EFF0A04C5D616FD08FC92155A8
:104AB400E5BF1C45B1CF03C5A70089461357650060
:104AC400630BD7028D46630ED70285466300D70277
:104AD400130740063305E50203C7B700418B15CB26
:104AE40083C7B700BD8B3355F54082801375F5033A
:104AF4001307803EC5B709671375F50313070771DC
:104B0400D1BF372709001375F5031307077CD9B7FD
:104B140001458280EFD2AFC003A985006304090474
:104B24008347B900AE8493F7070E91CF03459900EC
:104B3400930520030D810505B305B502884461057D
:104B4400EF00214D05A02E85AD372A8401CDCD215E
:104B54008325C900B307B54063F887002E94B305D5
:104B6400A440E9FD6FD0EFBD8545C9BFEFD22FBB8F
:104B74002A8403D50500011132C636C43AC22EC0B8
:104B840002CA02CC02CEEF80F01782452ACA2285DF
:104B94002ECC813D03570500231EE100EF30D05099
:104BA400A24632469247230FA10036874C08B286AC
:104BB40022850146EFF01FB405616FD08FB8EFD2A4
:104BC4000FB661711C183EC6B70780013EC81C1899
:104BD4003ECA3C0800453ED4AA8402CC02CE02D090
:104BE40002D202D6FD3B8357050035592316F10244
:104BF400EF30904B2307A10209C48357440091E787
:104C040021594A855D616FD0CFB3035564005205C5
:104C14005181EFF020272A8965D58347B40093F7A3
:104C2400070E89C713058401EF0021408357440010
:104C3400231EF100834784002301F1025C400355E5
:104C44000900D98313F7070883471102231CA10025
:104C540093F7F707D98FA300F10283572900231D87
:104C6400F1005C40F18313F717008347F102F99BCD
:104C7400D98FA307F102EF80F0082AD251D18347DC
:104C840094006800139757008347B400FD8BD98FB5
:104C9400A305F4001C4803D647008C43EF10605C66
:104CA400A687179701001307A7A8740005464C10A0
:104CB4002685EFF03FA42A8929D58347B400A68529
:104CC400FD8BA305F400B9352DBFEFD24FA5832486
:104CD40085FE2A8441112685E93B834734FF93F7F7
:104CE400070E9DC32AC62685EFF01FD119C9834735
:104CF40034FFB245FD8BA309F4FE81C52285EF0084
:104D0400413141016FD0EFA36DDD8327C4FF2685B8
:104D1400829765F9834734FF93F7070E81C722858D
:104D2400EF00A130032584FE593DE1BFEFD22F9C53
:104D34009C4141112A8903C7070089472E84935651
:104D44006700638CF6020D466382C6049307F0077E
:104D54006302F7022E85EF10005DAA848149C16BBE
:104D6400130C490097F7FF1F938707E29C4398476A
:104D740063ECE90241016FD04F9B03D7450085479F
:104D8400E3FAE7FE2E85EF10E05DC1BF03D74500CF
:104D9400E3F2E7FE2E85EF100059AA842285EF1076
:104DA400E059C204C98C5DBFDC470355A900139ABE
:104DB40049003E9A93170501C187635DF00083574C
:104DC4000A006395A70263E574038327CA00034DB1
:104DD4005A001DA0A1672167A98F1307F7EFE37499
:104DE400F7FE63950900EFF07FA171FD85099DBF72
:104DF40083278A00034D4A00835DA9000357690095
:104E0400216A138BC7003AC6814A33CA4D01631E17
:104E14005D0197F7FF1F9387A7D79C43E1DBA28629
:104E24006286814526858297D1B7A1679387F7EF7C
:104E3400930C4BFF63F04703B2455A85EFF09F860E
:104E440019CD03278B00104719CA10436380C4028D
:104E54003107D5BFEE856685EFF09F9E71FD938681
:104E64001A0093FAF60F130B0B0255B7835644003E
:104E74005C43E3EDF6F622853AC6EF10C039A1672C
:104E84009387D7042A8A035D4400324763E8970076
:104E94008347D90093E707F8A306F9001C47668502
:104EA4002286E2858297C1670844FD17337AFA00A7
:104EB400529508C02312A40115BF97F7FF1F9387CB
:104EC400A7CC9843814715C31447814763FFD50096
:104ED400939745004C47BE9519C903C755008147B0
:104EE4006375E600DC451606B2973E85828003C7EB
:104EF40045008147E37BE6FE16069C45F5B7EFD2F5
:104F04006F80AA892E8A814497FAFF1F938ACAC7A1
:104F140083A70A00984763E4E4006FD0EF81DC477D
:104F24001394440001493E9413BB14008347440086
:104F3400634BF900014913BB140083475400634FCA
:104F4400F9008504F1B70844931759005287DA86AB
:104F54000146A2853E9582990509C9BF4844931725
:104F640059005287DA860546A2853E95829905093D
:104F7400E9B7EFC2DFFA814517F5FFFF1305656056
:104F840097F7FF1F239407C09D3F6FC09FFB97F7C0
:104F9400FF1F938767BF9C4399CBEFC25FF881459E
:104FA40017F5FFFF1305E55D993F6FC09FF98280F8
:104FB400EFC25FF541112315E1002E89B284B68951
:104FC4003A8681460147ED452A84EF2041692AC685
:104FD4001DCD0356A100CE85EF60913FCA85228581
:104FE400EF20417C058915C1228501462C0023143C
:104FF4009100EF2031122A8409C5ED452800EF20E5
:105004006174228541016FC03FF34944FDB7655483
:10501400CDBF5C41FD175CC18280EFC25FF0EF1031
:10502400113095473305F50281450D816FC07FF13D
:10503400EFC2FFEEEF10B12E95473305F5020D8157
:105044006FC03FF0EFC2BFED03550500EF20613D97
:105054006FC03FEFEFC2BFEC035505003287AE8649
:1050640017D6FF1F035666FB97F5FF1F938585B27E
:1050740081376FC01FEDEFC29FEAEF6081086FC0F8
:105084005FECEFC2DFE997F5FF1F9385A5B0EF2032
:10509400510F01456FC0FFEAEFC27FE8814517D584
:1050A400FF1F035585F3EF20017A6FC09FE9EFC21C
:1050B4001FE797F5FF1F9385E5AEEF20910C01459F
:1050C4006FC03FE8EFC2BFE5814517D5FF1F035509
:1050D400C5F6EF2041776FC0DFE6EFC25FE42E85AF
:1050E400EF60C054EF60A07B6FC0BFE5EFC23FE349
:1050F400EF6090056FC0FFE45C49E1175CC95CC5D3
:1051040083572501A1072319F50083570501A1073A
:105114002318F5008280F1473305F50297F7FF1F46
:10512400938747AA9C433E9582808D476317F60672
:1051340003D74600854763F2E706EFC25FDE368594
:1051440036842E89EF10201E39C1835744009314EE
:105154000501C18063ED97022285EF10C01CFD1488
:10516400231294009307A002630EF5009307B00284
:105174006301F50293079002631BF5002285EFD0CB
:10518400B01F31A00146CA852285EF8070276FC009
:105194005FDB2285EF00105ADDBF828097F6FF1F88
:1051A400938686A29C42014599CF9843D44217F630
:1051B400FF1F232BE6A06396D70097F6FF1F23A7B4
:1051C400E6A01385C7FE8280EFC27FD57D2E714491
:1051D400330585029145EF70D07A01E565556FC0BE
:1051E4005FD697F7FF1F23ADA79C4526330585029D
:1051F4009145EF7010797DD197F7FF1F23A4A79CE9
:10520400692697F7FF1F2397A79A412697F7FF1F51
:105214002393A79A978701009387C75617F7FF1F11
:10522400232EF79897070000938747ED17F7FF1F82
:105234002324F798014565B7EFC27FCEAA8517F5F9
:10524400FF1F13052597EF10E0216FC09FCFEFC21A
:105254001FCDDD37EF10802297F7FF1F9387C79686
:105264009C4381CF1387C7FE09CB83D5C7FF17F5AE
:10527400FF1F1305E595EFF0D0596FC09FCCEFC227
:105284001FCA293F11C9834785002A8493F707045D
:1052940091E70355E500653F6FC0BFCA8347C5006A
:1052A4009304450117F9FF1F1309099285E3832726
:1052B40009005CC997F7FF1F23A89790832749002B
:1052C400E1FF97F7FF1F23A39790F9B7FD17230674
:1052D400F5006105EF60C06C8307840063C90704AF
:1052E4008347840093E707F82304F400EF10617CFC
:1052F4004205A94741813375F5028347840093F73A
:1053040007FCC98F2304F4008347D4003E951C4056
:105314002318A40089CF984319CB8347C400504075
:10532400814585073305F5024205418102978327AC
:1053340009005CC897F7FF1F23A8978883274900B3
:1053440089E797F7FF1F23A397888347C400A9D74A
:105354008355040117F5FF1F13058587EFF0704B84
:1053640025BFEFC2DFBB97F7FF1F9387679B9C475F
:1053740001448583858B81EFAE84B2853A86EF1034
:1053840040152A8409C5EF10400C829408CC22856C
:105394006FC03FBBEFC21FB741112E8932C6AA8925
:1053A400692C324713060502CA86970500009385C7
:1053B400C5D617E5FF1F1305E57F65372A8429CD78
:1053C4009304C500DD261946AA852685EF00706979
:1053D40085452685EF00506617850100130545387D
:1053E4004E95834505002685EF0090695C4831465B
:1053F4008145A1075CC85CC483572401E1172319C4
:10540400F40083570401E1172318F4001C4C3E8573
:10541400EFC0FFB3A3042501228541016FC0DFB1B2
:10542400EFC2FFAF4111AA842EC632C4EF1040046C
:10543400004DB2452246834784000CC050C093F708
:10544400F70393E707042304F400231804002685D4
:10545400EF00B07F83479400A9462317A40013D715
:10546400370005073307D7029D8B85072306F40011
:10547400A306E40083C70401D8488507230FF7FE79
:1054840017E7FF1F130747745843232A04009307A1
:1054940044011DEB17E7FF1F232AF77217E7FF1FCD
:1054A4002324F77217E4FF1F130484722285EFF09C
:1054B400102C1C44858B5D8D09E581452285EFF018
:1054C400503541016FC0FFA71CC317E7FF1F232FEF
:1054D400F76EC9BFEFC2BFA497050000938525C529
:1054E4000145EFF09FBF01456FC0BFA5EFC23FA3C9
:1054F400EFF0DFBF6FC0FFA48347C500A1E7EFC291
:105504001FA22A840355E500EFF01FD315C9834772
:10551400840093F7F7FB2304F4001C4091C7DC4399
:1055240081C74C4001458297EFF05FC717E5FF1F25
:105534001305056AEFF0702F0355E400EFF03FD137
:105544006FC03FA08280EFC29F9D97E7FF1F9387A4
:10555400A767970500009385C5D217E5FF1F1305BC
:10556400256723A0070023A20700EFF0B01E6FC039
:105574005F9D1C4D91CBDC4381CBEFC25F9A834589
:10558400070082976FC0FF9B828097E7FF1F938776
:1055940067669C4303C50700828097E7FF1F9387D4
:1055A40067659C4303C51700828097E7FF1F9387B5
:1055B40067649C4303C52700828097E7FF1F938796
:1055C40067639C4303C54700828097E7FF1F938767
:1055D40067629C4303C53700828097E7FF1F938768
:1055E40067619C4303C55700828097E7FF1F938739
:1055F40067609C4303C56700828097E7FF1F93871A
:10560400675F9C4303C57700828097E7FF1F9387FA
:10561400675E9C4303C58700828097E7FF1F9387DB
:10562400675D9C4303C59700828097E7FF1F9387BC
:10563400675C9C4303C5A700828097E7FF1F93879D
:10564400675B9C4303C5B70011E11D45828097E762
:10565400FF1F9387275A9C4303C5C700828097E79F
:10566400FF1F938727599C4303C5D700828097E780
:10567400FF1F938727589C4303C5E700828097E761
:10568400FF1F938727579C4303D50701828097E721
:10569400FF1F938727569C4303C52701828097E702
:1056A400FF1F938727559C4303D54701828097E7C3
:1056B400FF1F938727549C4303D56701828097E794
:1056C400FF1F938727539C4303D58701828097E765
:1056D400FF1F938727529C4303C5A701828097E746
:1056E400FF1F938727519C4303C5B701828097E727
:1056F400FF1F938727509C4303C5C701828097E708
:10570400FF1F9387274F9C4303C5D701828097E7E8
:10571400FF1F9387274E9C4303C50702828097E7A8
:10572400FF1F9387274D9C4303C51702828097E789
:10573400FF1F9387274C9C4303C52702828097E76A
:10574400FF1F9387274B9C43C853828097E7FF1F13
:105754009387474A9C438857828097E7FF1F938724
:1057640067499C4303D5C702828097E7FF1F93874D
:1057740067489C4303D5E70219E11305800C828036
:1057840097E7FF1F938707479C4303C5070382805E
:1057940097E7FF1F938707469C43C85B828097E780
:1057A400FF1F9387A7448843828097E7FF1F93874F
:1057B40027448843828019E17D558280F5DE984232
:1057C40065DFFDD917E7FF1F130787551847AA8719
:1057D4007155058B6316072203C507001547E37D42
:1057E400A7FC03C737001305F0057D171377F70FE0
:1057F400E364E5FC03C35700E30003FC83C86700CC
:10580400E38C08FA03C77700494579171377F70F34
:10581400E364E5FA03C7A70011481305F7FF1375FE
:10582400F50FE36BA8F803CE97000D481305FEFFB0
:105834001375F50FE362A8F803C8B70063090800FD
:1058440065181378F80F1305600DE36705F703C5B2
:10585400C700794879151375F50FE36FA8F403C8E9
:10586400D7000D457D181378F80FE36705F503D8C5
:105874000701930E40175118420813580801E3ED2D
:105884000EF303C8E7007D181378F80FE36605F3F9
:1058940003C827017D181378F80FE36F05F103C8D7
:1058A4008700C54E75181378F80FE3E70EF103D897
:1058B4006701856E938EBEE06D1842081358080187
:1058C400E3EC0EEF03D847016D18420813580801A2
:1058D400E3E40EEF03D8870179184208135808014E
:1058E400E36C05ED03C8A7017D181378F80FE36591
:1058F40005ED03C5B7011D487D151375F50FE36D5F
:10590400A8EA03C5D701714879151375F50FE36546
:10591400A8EA03D5E7011308E00F7D15420541818C
:10592400E36CA8E803C50702494879151375F50F18
:10593400E364A8E883AE470237C534001308F5BF13
:10594400E36CD8E703A88702130555BF5918E3652C
:1059540005E717E5FF1F232DC52803C6050117E535
:10596400FF1F2329F5280545E378C5E403D825015D
:10597400D04933760603E31106E403C61501E30DAB
:1059840006E217E6FF1F2323B62683C52700014638
:105994006387A50003C61700F1453306B60283C723
:1059A40007039305C00272971A071307C705160366
:1059B4001A9796084697B387B70241553E97329790
:1059C40042074183636EE802EFC26FD53685EF70FC
:1059D4007005EFE0E03F2A84EF90E03B2A94EFD09B
:1059E400C0432A94EF70F01C2A94EFF0EFFD2A9440
:1059F400EF2010612A94EF50A06122956FC06FD4FC
:105A04008280EFC2CFD14111A307A100EF80D03C27
:105A14009305F100170500001305E5B5EFF02FCE4F
:105A2400014541016FC0EFD1EFC2EFCC17E4FF1F76
:105A34001304042F0328840079599368180097E409
:105A4400FF1F23A3142F13781800631E0800BA84C1
:105A5400BE89368B328A2E89AA8AEFE09FD87D15BB
:105A6400269509E531594A856FC06FCCEFE07FD7A1
:105A74007D152695A167E357F5FE97E7FF1F9387EA
:105A8400276198433E8C814B11C70145EFD0E05C00
:105A9400933B15004A85DA865686D285EF80404CC2
:105AA4002A8911CD1C44F99B17E7FF1F232EF726E3
:105AB40083270C00CDDBE3880BFA82976DB726852C
:105AC40097E7FF1F23A00726EFE07FCE4146CE8550
:105AD40017E5FF1F1305452EEF60810FEFB0A026D9
