:040000006F105072BB
:10000400000000000000000090000020AE0200206C
:10001400A9BDF9F564030020000000000000000001
:100024006403002090000020000000000000000095
:10003400900000200000000090000020000000005C
:1000440090000020900000209000002090000020EC
:10005400900000200C080020900000200000000008
:1000640090000020900000209000002090000020CC
:10007400CA0300209000002090000020900000207F
:1000840090000020900000209000002090000020AC
:1000940001A0411106C6EF001032F5BF4111B71798
:1000A4000040985F3AC6945F3247E39CE6FE3245CF
:1000B40041018280011113078008F337078093F709
:1000C40087083EC201000100B71700409305700580
:1000D4002380B704130680FA2380C70401000100BB
:1000E40083C6B70493F6F60DA385D70423800704CB
:1000F4009246F3A606800100010093760502D5CE50
:10010400F336078093F6860836C401000100238085
:10011400B7042380C70401000100B70614007D89D9
:10012400558D88C7010001000100010023800704E8
:10013400A246F3A6068001000100733707801377F7
:1001440087083AC6010001002380B7042380C7044E
:10015400010001000100010037270040930610054B
:10016400A303D78023800704B247F3A707800100C5
:10017400010093078008F3B7078093F787083ECE02
:1001840001000100B7170040130770052380E7043E
:10019400130780FA2380E7040100010003C7B704B2
:1001A40013670708A385E70423800704F247F3A72E
:1001B4000780010001000561828093760504BDC6B5
:1001C400F336078093F6860836C8010001002380C1
:1001D400B7042380C70401000100B7061400938606
:1001E40006047D89558D88C70100010001000100C6
:1001F40023800704C246F3A606800100010073377A
:100204000780137787083ACA010001002380B704E6
:100214002380C7040100010037270040930620050E
:10022400A303D78023800704D24781B7733707809D
:10023400137787083ACC010001002380B704238098
:10024400C7040100010098471367070C98C723806F
:100254000704E24719BF0111814601468145114552
:1002640006CE3D2C93078008F3B7078093F78708E1
:100274003EC601000100B717004013077005238034
:10028400E704130780FA2380E7040100010003C791
:100294006704136717002383E70423800704B24726
:1002A400F3A7078001000100F2400561828041113B
:1002B4008146014681451145E52213078008F3373D
:1002C400078093F787083EC401000100B717004078
:1002D400130670052380C704930680FA2380D7048D
:1002E40001000100FD552396B70223800704A245AF
:1002F400F3A5058001000100733707801377870891
:100304003AC6010001002380C7042380D7040100FA
:10031400010003C76704136717002383E7042380DE
:100324000704B247F3A707800100010001A0BD47FD
:100334003305F50201007D1575FD8280411122C44B
:1003440026C206C6AA84014463179400B24022441C
:1003540092444101828005041305803E4204C13F5A
:100364004180DDB79305000273A0458082457390F8
:10037400153492402242B2424243D2436244F24490
:10038400025592552256B2564257D2576258F258E5
:1003940006499649264AB64A464BD64B664CF64C15
:1003A400065D965D265EB65E465FD65F09617300A4
:1003B40020304111B7170040985F3AC6945F324726
:1003C400E39CE6FE324541018280B71700401307E3
:1003D40000032388E702854717470000232AF7B65E
:1003E400730020302303048015472303E4800100B5
:1003F4002302A480828083076480E3CE07FE230364
:100404000480828083076480E3CE07FE0345448032
:10041400828083076480E3CE07FE2302A480828067
:10042400411126C44AC24EC006C61377F50BAD4728
:10043400AA892E8995446306F70019456537653FF7
:100444008D444E854537FD59FD1463983401B240FF
:10045400A24412498249410182801355090113754E
:10046400F50F453F2209CDB7011126CC06CEB704BE
:10047400080051371545BD37713769372AC6A53F7E
:1004840032459377150089EB136515001375F50F45
:10049400F240E24405618280FD14E9FC0145CDBFD0
:1004A400397126DC4ADA4ED852D656D45AD25ED0A6
:1004B40006DE62CE66CCB7E700E07D5783AA07006C
:1004C40022C603AA470023A0E71823A2E718B717F8
:1004D4000040130770052380E704130780FA238084
:1004E400E70483C74704930B75FFB684E20793FBC5
:1004F400FB0F8546AA892E8B328937240040E18779
:10050400015763FA76016308D50089461307000290
:100514006313D5000157D98F93F7F70FB71C004029
:100524002382FC0411472303E4801305F00F5D3D8F
:10053400094CD135636D7C11B7050700DA9537870F
:100544000700795563F2E504B3879500636EF702FB
:10055400370B0800A94733EB65016399F90689E471
:100564008144513D26850DA0DA850945553D05098F
:100574000345F9FFFD14050B693D81C49377FB0F17
:10058400FDF7DD3569FD7D55B7170040130770058C
:100594002380E704130780FA2380E70403C7470492
:1005A400418B2382E704F250B7E700E023A0571100
:1005B40023A24711E25432445259C259325AA25A20
:1005C400125B825B724CE24C21618280A547639589
:1005D400F90685691309F00FB3069900B3742B016A
:1005E400B6941349F9FFB3749900856B33796901A3
:1005F400416B9387F9FFB3F7270199E363FC340157
:1006040093D94900C147E3E637FF99BF0569C1693A
:100614007D19D9B71305800D63886901130500029C
:100624006384790113051008CA85DD3B353D21DD5E
:100634004E99B3843441D9B7DA852D45D533CA945C
:10064400E30099F205097D3BA30FA9FED5BF93876B
:10065400F9FF93F7F70F6361FC0C83C71C041307BE
:100664003008631FF70437070800636BEB04B30714
:100674009B00B706100063F5D704334BEB008947A2
:100684006393F9068980D549E38C04ECDA8509453E
:10069400413B11090327C9FF91472320E480030745
:1006A4006480E34E07FE23033481FD17EDFBFD1444
:1006B400110B81C49377FB0FE9FF7D3371F5E1B52D
:1006C400B717004003C75704B7070800137707029A
:1006D40019E3B78707007955E378FBEA33079B00F2
:1006E400E3FFE7F855B58547E382F9F2DA852D454E
:1006F400053B9389F4FFE38504E6293393F7390036
:1007040091EB832604800327090093074900E39AA9
:10071400E6E43E89CE84F1BFB5476396F90013053C
:10072400900BC93135BDB1471305B00AE38BF9FE0F
:1007340099476391F904B7050800B365BB002D45DB
:10074400C53181448D4BA149753963967401832762
:1007540004802320F9008504E39834FF8327048070
:1007640013172B01635507002312F900D5BB23226D
:10077400F900FDB39D476399F90281451305B0045F
:100784004531BD442320090023220900FD599D3928
:1007940093F77400CA9703C70700FD14398D2380AB
:1007A400A700E39634FF6DBBA1476392F9046D394A
:1007B4008144630D0B008D479304C0036308FB0061
:1007C4009304000563048B01930440041375C50767
:1007D400E30895D81945393139390545213126853C
:1007E4000D3909453D314931E31C05D669BB9147B3
:1007F4006399F90013056006F536F53E1305900973
:100804000DB7E38F09D4F154A9BB0000197106C2D6
:1008140012C416C61AC81ECA22CC26CE2AD02ED27C
:1008240032D436D63AD83EDA42DC46DECAC0CEC22C
:10083400D2C4D6C6DAC8DECAE2CCE6CEEAD0EED25C
:10084400F2D4F6D6FAD8FEDA97350000938505700F
:100854008841E700050092402242B2424243D2431B
:100864006244F244025592552256B2564257D25728
:100874006258F25806499649264AB64A464BD64B20
:10088400664CF64C065D965D265EB65E465FD65FA8
:10089400096173002030B7E700E09843B7062000F1
:1008A40023A0D718758F0F10000001C599C1814787
:1008B40011E6B7E700E023A0E7108280B386F500D5
:1008C40003C80600B306F500850723800601E31775
:1008D400F6FEC5B737E700E01C43B7062000232027
:1008E400D718F58F0F10000019C191C111E637E731
:1008F40000E02320F7108280910503A7C5FF1105AE
:100904007D16232EE5FEDDB737E700E01C43B7066E
:1009140020002320D718F58F0F10000001C53307DE
:10092400C50011E637E700E02320F71082800505B3
:10093400A30FB5FEE31DE5FEF5B7B7E700E0984366
:10094400B706200023A0D718758F0F100000814729
:10095400B306F5008386060099E6B7E600E023A017
:10096400E6103E8582808507E5B737E700E01C4343
:10097400B70620002320D718F58F0F10000001C5FB
:1009840099C1014711EA37E700E02320F710054534
:1009940082800507E309E6FE3308E500B386E50037
:1009A4000348080083C60600E305D8FE37E700E0E5
:1009B4002320F7100145828037E700E01C43B70687
:1009C40020002320D718F58F0F1000001307F6FF1F
:1009D400BA952A966317C50037E700E02320F7107D
:1009E4008280FD1503C715000505A30FE5FEDDB7DD
:1009F40037E700E01C43B70620002320D718F58F03
:100A04000F10000001C53307C50019E637E700E001
:100A14002320F7100145828005058346F5FFE397FF
:100A2400B6FEE31BE5FE37E700E02320F71005459B
:100A340082807971973700009387475722D4804387
:100A440006D626D24AD04ECE52CC56CA5AC85EC614
:100A540079C0B7C4C901014B9739000093898954FF
:100A64009384F437173A0000130A8A54973A000023
:100A7400938A8A4E17390000130949588357240072
:100A840095E35C44631D0B00173700002320F752E5
:100A9400832BC4002285EF1020385E84B9A8232656
:100AA400FB00FDB783A7090082971C443307F54078
:100AB4006376F500032749001D8F2A9763E2E40853
:100AC4009737000023A2074A8355240003450400F6
:100AD400974000E0E780A0C25C405844A1CB0C449E
:100AE40003264900AE97BE8663E4B70063E4C700FB
:100AF400B386C74014C4228B3A8449F09737000068
:100B0400938787459C4B09476372F706F917173794
:100B14000000232BF744B250225492540259F24954
:100B2400624AD24A424BB24B4561828063170B0042
:100B34009737000023ACE746A1BF2326EB0089BF0B
:100B440003274A0209CF63EFA7003385A74083A791
:100B54000A016376F5009737000023A7A740228B8C
:100B6400404461BF03274900BA97C5B797370000CF
:100B740023AC073E4DB7973700009387A7479C43A4
:100B840085C3411106C682979737000083C7674122
:100B940089E79737000023AF0744B24041018280C0
:100BA4009737000083C7E73F91E79737000023A3F7
:100BB400074482808280411122C417340000130448
:100BC400643C1C4006C626C24AC091C78297973728
:100BD400000023A9073A9737000083C7B75C858BC9
:100BE400173900001309C95B91CF8347790019476E
:100BF4006313F71097370000A386075AEF00106AB3
:100C04005C4482971C4491C3829797340000938478
:100C1400A43998401736000003461634973700006D
:100C240083C7873393961700BA9683D60600EDC21E
:100C34009737000083C7473263E6C70E9737000033
:100C4400238C07301C40639F071497370000938759
:100C540067359C4363880714973700009387073AE6
:100C6400DC43173700002321F730E13397370000C6
:100C740083C7B753639807129737000083C7D752C7
:100C840091CF8347790093F7F70F89EB97370000EB
:100C9400A38C075097B001E0E780A00997370000C4
:100CA40093870731DC53638F070E973700009387D0
:100CB400A72A9C4BE5CB8347790015476364F70E5D
:100CC4009737000083C74753918BE9EF97370000AC
:100CD40083C7272DE1EB90409736000083C6D627C3
:100CE40063C8D70C2244B2409244024941011743DD
:100CF40000E067006302834779001D47E314F7F0BF
:100D040097370000A380074AEF0050591C48D5BD0F
:100D1400850793F7F70F97360000238FF622E3EF4A
:100D2400C7EE39B786073E9783550700231007009F
:100D340097370000239607269737000093874724A8
:100D44009C43173500000345252113172500BA9746
:100D54009C4382979737000083D787241737000076
:100D64000347871F93C7F7FF7D8D9317170098409C
:100D74003E97835707005D8D2310A7009737000027
:100D840083C7871D91C78507173700002306F71C03
:100D9400173700000347471C9737000083C7D71B4A
:100DA400E37EF7E8B2402244924402494101828042
:100DB400139717003297035707006DF785070DB790
:100DC40037C700408326C720B707FCFFFD17F58F00
:100DD4002326F72001000100973700009387C717E7
:100DE400C84F832787262326D7206A0593C7F7FF92
:100DF40099835D8D82800327851163000712411159
:100E040022C406C68347C5008345E5042A8493F7B4
:100E1400C70F2306F500834697000356C7001395B2
:100E24008601618563F1C508635A05060345870099
:100E340093F6F607A304D700054693E62700631448
:100E4400C50093E617002306D4005C4389075CC3FE
:100E5400A30AB400032504112E864C430905253C3E
:100E64008327841103465401D44303D7C700B296A1
:100E7400118FD4C32396E7008947A30DF4000347D9
:100E840064039737000083C7C7136378F704834765
:100E9400C40093E707012306F40081A093E7170039
:100EA4002306F40075B79376F60F635D05020345D8
:100EB4008700854513E627006314B50013E6170081
:100EC4002306C400A30AD400A30407008547A30D86
:100ED400F400832784119C43DDF3B240224401458E
:100EE4004101828093E717002306F400A30AD4008B
:100EF400A3040700032504114C430905693A832719
:100F0400841103465401D44303D7C700B296118F0A
:100F1400D4C32396E7008D475DBF0545828097378C
:100F24000000938727269C43411122C406C6858B63
:100F34002A84C5EF4165130525F5976001E0E78034
:100F440040EE45C58347A5002315F5008327041209
:100F5400BDE72320A4122322A41285472311F404FD
:100F6400232005008347640154412316F5000347F9
:100F7400D4002304E5000547A304E5001737000067
:100F84001307072258531385170215811C437D1537
:100F94001375F50F9CC25C43DCC21C479CC65C47BE
:100FA400DCC61C4B9CCA5C4BDCCA1C4F9CCE5C4F01
:100FB400DCCE19CD9386060213070702C1BF83272F
:100FC400441288C3835724042322A412850779B7C3
:100FD4009737000083D7072E850717370000231B98
:100FE400F72CB2402244410182808347C400230984
:100FF4000400054593C747002306F400DDB7834783
:10100400850193F7E70FD5EF83479501DDEB0346A1
:1010140025018346C50009CA8345650317370000C7
:10102400034737FA63E7E50013F7060141CF0147A9
:1010340009C6C18A0357651C81C68356A51C369709
:1010440051C31307C712173500000355A5FBB33569
:10105400A70237460F00411113060624814622C415
:1010640026C206C67D543305A702974002E0E780F6
:1010740020649737000083C717F5B384A700973718
:1010840000009387A72203A787098327070963F32F
:1010940087003E84184375FB97370000938787F0D9
:1010A4009C43829781476364A400B307A440B24081
:1010B4002244B3B7970093C7170092443E85410179
:1010C400828081473E858280973700009387C70FCF
:1010D40098433C5BFDFF010001008280011122CC9A
:1010E4004AC84EC606CE26CA52C456C25AC0034780
:1010F400B50085472A842E89832905096310F720C2
:1011040083570508035BC503973A000083DA8AEF27
:10111400173A0000130A8AEE63FA671B8346050137
:101124006396E61A032785116312071A0327450AF3
:10113400631E07188346F5001D476399E618035597
:10114400A503330BFB409307204E3305650383242B
:10115400440937460F008146130606243305F50279
:101164009737000083C727E6B3549502B3B5AA02A4
:10117400BE94C204C180231394083385AA02974005
:1011840002E0E780E052B307350133B5A7002E959E
:101194003E8783264A0019E163E4D7003387D740AA
:1011A400B3845403B7460F009387F623938606242B
:1011B4002320E900A697B3D7D702DA976362F71022
:1011C4001D8F2320E900973900009389A9DD83A7A7
:1011D400090083240900829763E5A4123385A4409F
:1011E4006354050C83A709008297032709006361F0
:1011F400E512198D8357E40317370000035787E07E
:101204008E07B387E7021307003293870719B3D712
:10121400E70263E7A710374A0F00130BFA23973A44
:101224000000938AAADD130A0A248357040485075D
:101234002310F4048347041499E322856D22228544
:10124400975001E0E78060B175E98326040983279C
:10125400C40803A74A00B6973E8563E4D70063E455
:10126400E7003385E7408347F40183546408232867
:10127400A4088507A30FF4009737000083D787D805
:10128400B384F402DA94B3D444036368950CB304CE
:10129400954083A7090023209900829763E3A40C57
:1012A4003385A440E34305F89737000083C7B7D1DB
:1012B40063E7A7089737000023AA8708014541A0E0
:1012C40083264A00B387F6403E97E5BD83546408FD
:1012D40037470F009307F723B3845403BE9493074F
:1012E4000724B3D7F40263E7F900B387F940232056
:1012F400F900D1BD03274A00BA99C5BF23A035011F
:10130400D9B597370000938767CFDC43BE94F9B50E
:1013140097370000938787CEDC43998F3E95D9BDDC
:10132400A1452285975001E0E780009CA305A40213
:10133400973700009387C7C79C5B81EF7D55F240C8
:101344006244D2444249B249224A924A024B05615C
:101354008280894515458297D5B7B3049740AA94EE
:101364000DBF83A74A00BE9425BF2DCD01116C008B
:1013740022CC06CE2A849D332DC1FD576305F50288
:10138400173700001307C7C25853B24705CB254788
:10139400637FF700D9173EC6B245034594029730E0
:1013A40000E0E780604DF2406244056182801737B7
:1013B40000001307A7C45843BA97E9BF17370000C2
:1013C400034777C063E4E700998FF1B797360000CD
:1013D4009386C6C2D442B697C5BF975001E0E78052
:1013E4004055D1B78280797126D206D622D44AD00C
:1013F4004ECE52CC56CA5AC85EC6834755030344E0
:101404007513AA843E941374F40F9307400263F691
:1014140087001304B4FD1374F40F03AA841383AA7E
:10142400C413A38B841222865285D685974002E08A
:10143400E78000E5058915E503CBD412014981490C
:10144400337B6403930B50024A865285D6859740BA
:1014540002E0E780E0E2058915C56391690313742E
:10146400F90F238B8412B250225492540259F24938
:10147400624AD24A424BB24B456182808509E209F5
:1014840093D989410509E31179FDE1BF83278509D2
:1014940003560504797193D60701BD8EC206C18235
:1014A400358E1357764093575640898B058B5D8F45
:1014B40093573640918B5D8F93571640A18B5D8F68
:1014C40093171600C18B5D8F9317360093F70702AD
:1014D4005D8F931756009355860093F707041E06F5
:1014E4005D8F1376F60F518F93D7554013D6354041
:1014F400118A898BD18F13D67540D18F13D615409D
:10150400218AD18F13961500418AD18F1396350005
:1015140013760602D18F13965500137606049E05A2
:10152400D18F93F5F50FCD8FA20745465D8F330715
:10153400C70222D42A8426D252CC56CA032A841340
:10154400832AC4135AC806D6369742074183935751
:101554007740135557400989858BC98F13553740F8
:101564001189C98F135517402189C98F1315170085
:101574004189C98F1315370013750502C98F1315D7
:10158400570093558700137505041E07C98F1377F9
:10159400F70FD98F13D5354013D755401189098BCF
:1015A400498F13D57540498F13D515402189498F2B
:1015B400139515004189498F13953500137505025C
:1015C400498F13955500137505049E05498F93F5AE
:1015D400F50F4D8F2207D98FB387C7024AD04ECE5D
:1015E4005EC662C4B697C207C18313D7774013D5CA
:1015F40057400989058B498F13D537401189498F85
:1016040013D517402189498F139517004189498FB4
:101614001395370013750502498F1395570093D519
:101624008700137505049E07498F93F7F70FD98F29
:1016340013D5354013D755401189098B498F13D5DC
:101644007540498F13D515402189498F139515008D
:101654004189498F1395350013750502498F1395F8
:101664005500137505049E05498F93F5F50F4D8FAD
:101674002207D98FB387C702130650025285D68535
:10168400B697BD8E93940601C18033F6C402137BD2
:10169400F60F974002E0E780A0BE05890DED834771
:1016A400D41201498149B3849702130C5002C180BA
:1016B4004A865285D685974002E0E78060BC05895A
:1016C400937BF90F11C563863403850993F9F90FE8
:1016D4000509E31F89FD230B6413B250225492546D
:1016E4000259F249624AD24A424BB24B224C4561FA
:1016F40082805E8BCDB7011197370000938707BBBB
:1017040022CC03A4870C26CA4AC84EC606CEAA8495
:1017140013092500854915C083C714000347340005
:10172400858B6304F700405CFDB7194693054400BC
:101734004A85EFF08FA3E31835FF2285F240624417
:10174400D2444249B2490561828041119737000071
:101754009387C7B522C403A4870C26C24AC006C611
:1017640093042500054901E82285B24022449244AD
:10177400024941018280A6851305A402978001E0F5
:10178400E780C05CE30225FF405CF1BF011197379D
:1017940000009387A7B122CC03A4070C26CA06CE67
:1017A4002AC42EC6854419E40145F2406244D24459
:1017B400056182808347910003471400858B63048D
:1017C400F7000044CDB719469305A1001305240082
:1017D400EFF0AF99E31795FE0545C1BFEFF0AFB940
:1017E4007300000000000000972200009382627BD7
:1017F4000383020023800200630F0300F3251034E7
:101804002EC0970500009385A5FD73901534EF0055
:10181400A04B7300203086DCEF00004BE650828042
:10182400000017370000130767971443411122C4BF
:101834009C5E4AC006C6998326C2858B3A841739B2
:10184400000013096995D1CB930700069CDE173776
:1018540000000347479593070008973400009384DA
:101864002494631BF700832709009C4393F7070420
:10187400173700002309F79283C7040093F707047E
:101884009DC3972700009387E7719C4382979737FE
:10189400000023A5A79283C7040093F7F70B17371B
:1018A4000000230FF78E83C7440093F7070495E7DE
:1018B400854717370000A307F78E973700009387F3
:1018C400A7909C433707020098C7130700FC97367C
:1018D40000002389E68C9848F8D318401C5F918354
:1018E400858B8DC31C5F93E707011CDF97370000CE
:1018F4009387878D9C4323A20706854717370000EB
:101904002302F78A83270900D8430583058B19C767
:10191400D843759BD8C3D843799BD8C3B2402244DB
:101924009244024941018280ED3D730020309317B7
:10193400D50063D30702973700009387E7889C4359
:101944007D57B8D79727000093870761DC4F850739
:10195400172700002320F762937785008DC39737FC
:10196400000083C7078493E7170017370000230A92
:10197400F782930700F8173700002305F78293775F
:10198400150099CB9737000083C7978193E7170019
:1019940017370000A306F7809377650095CB9377FC
:1019A4004500172700001307A77FCDCB8347070007
:1019B40093E71700172700002304F77E97270000FA
:1019C4009387C77D98435C57F19B93E717005CD7D7
:1019D4009317F50063D40702173700000347879471
:1019E400418B973700009387678C51C383C7870760
:1019F40093E70702173700002306F7929317E500D1
:101A040063D707029727000083C7C779E207E187F6
:101A140063D707008547172700002305F778972722
:101A240000009387677A9C433707020098C793178F
:101A3400C50063D40702173700000347B78E058B30
:101A4400973700009387878629C383C7970793E74F
:101A5400270017370000A307F78C828083473700DD
:101A640093E7170017270000A30DF77281BF03C780
:101A7400870789463D8B6308D70083C787070D47CF
:101A8400BD8BE39DE7F69147B5B703C79707118B65
:101A940069D783C7970793E7870065BF9727000037
:101AA400938787729443972700009387676F03C7D0
:101AB4000700058B11CB972700002385076E972716
:101AC4000000A381076E828003C71700058B65F7AA
:101AD400F85271FF83C75700DDB7172700001307BB
:101AE400E76B03280700832788039583858BADEF75
:101AF40011C683270803BD832300F6009DC61C433B
:101B0400985B4607935767016356070093E707C03E
:101B1400C207C18303970600C207C18709C7BA97E2
:101B24000947B3C7E7022390F6008DCD834515001E
:101B340095C99727000083C7076793F7070413879E
:101B44009500894585C33A9583470500054799451E
:101B540093F6F7066398E600E207E187814563D3CD
:101B64000700B9452E8582808545EDBF411126C207
:101B740006C622C497240000938404653DED944076
:101B8400AE87F8527DFF37F400E03E8597270000CA
:101B940023890760832704D1B285ED9B2328F4D0E1
:101BA400832704D193E787022328F4D073005010CD
:101BB40097A001E0E78040FF972700009387075E26
:101BC4009C43B70680009843558F98C3D857719BA0
:101BD400D8D797270000A387075C97270000A38125
:101BE400075C9C40094798C3832704D193E7870087
:101BF4002328F4D0730050100DA08D476315F5040D
:101C040097270000938787599C43B7068000984321
:101C1400558F98C3D857719BD8D794401727000085
:101C24001307075883472700858B89EB83473700C1
:101C3400858BC1CB9727000023860756B2402244E8
:101C44009244410182808547E319F5FCB7F700E02F
:101C540003A707D16D9B23A8E7D003A707D1136778
:101C6400870223A8E7D07300501098408177FD17AE
:101C74005447F58F5CC70F1000009840B707020067
:101C84001CC7930700F817260000230DF65097276A
:101C940000009387A7509C439C439D83858B639F3F
:101CA400A700930760197CD354C737F700E0832754
:101CB40007D193E787002328F7D02DBF9307E01BB4
:101CC400DDB7FC52A5F39DBF972700009387C74F4C
:101CD4009C438847D847798D09C988C79387C191A0
:101CE40003A3070063030300028382809727000095
:101CF4009387874D98438967938707F47CD3972705
:101D040000009387A7519C4383A6070913965600A6
:101D14006358060083A60709139666006344060009
:101D24007453FDF282804111B7E700E022C480437E
:101D34003707200006C6798C23A0E7180F1000008F
:101D440011C199E5B7E700E023A0871001457DA8FC
:101D540093073500C207C183F19BC207C1831307F0
:101D640040036369F702172700001307E75308438A
:101D7400172700001307C75214436392A6021727BC
:101D840000001307E722185B55DFC207DD8D054508
:101D940002974DBF172700001307C750C9BF035749
:101DA40065002DEB035745006366F706B306F7405D
:101DB4002146637CD60203280500938687001D8F85
:101DC400AA96611717260000035666192392E600A7
:101DD40023A006012393060014C12312F500130760
:101DE40086FF97260000239CE6162313B50097254B
:101DF400000083D5C516B387F540172700002310CC
:101E0400F716B7E700E023A087102105B24022446B
:101E140041018280084195B7B7E700E08C4337075A
:101E2400200023A0E718F98D0F10000001E523A07E
:101E3400B7108280972700009387074703A3070002
:101E4400972700009387C74583A8070081469A8790
:101E540063F2170D03A807006361F50C636FA80A0A
:101E6400138787006368E50A03D6670021670507BF
:101E74006317E60003C741910507238AE1901725FC
:101E840000001305650D03D647000357650023932F
:101E94000700329742074183172E00002311EE0CEE
:101EA400638C6702172300001303C33F032303005B
:101EB4006304F30203D366006310030283D746006E
:101EC40023A0060121073E9621062392C6009727E8
:101ED40000002396E708B6879843630D17039726F7
:101EE40000009386263C94426306D702835667001B
:101EF40095E283D64700035647001843A106B296DD
:101F04002392D70098C383576500A10717270000C1
:101F14002317F704B7E700E019BFBE86C2870DBFD9
:101F240097110020938141BA175100201301418D6C
:101F34001305400097E5FF1F9385850C17060020C5
:101F4400130606FE63FAC5008322050023A055008C
:101F540011059105E3EAC5FE176502001305C5A145
:101F6400970500209385C5FB1386818663FAC50017
:101F74008322050023A0550011059105E3EAC5FE5F
:101F84001385818697250020938505456377B500E1
:101F9400232005001105E36DB5FEFD42739002BCDC
:101FA4008D4273904280930280087390023097E2CE
:101FB400FF1F9382E20493E232007390523097122F
:101FC40000009382E28173901234730020303D4309
:101FD4002A876373C3029377F700BDEFADE5937669
:101FE40006FF3D8ABA960CC34CC30CC74CC74107C5
:101FF400E36BD7FE11E28280B306C3408A069702E0
:10200400000096966780A6002307B700A306B700D2
:102014002306B700A305B7002305B700A304B70040
:102024002304B700A303B7002303B700A302B70038
:102034002302B700A301B7002301B700A300B70030
:102044002300B700828093F5F50F93968500D58D14
:1020540093960501D58D61B79396270097020000EA
:1020640096968682E78086FA9680C1171D8F3E96E3
:10207400E374C3F8A5B7011106CEA3070100EF006E
:102084001004A307A10001C983C7518789C78545E7
:102094001305F100092BF24005618280854503C5D3
:1020A40081866F204065411106C622C4EF20120FBD
:1020B40083C7C1878DCBFD1793F7F70F238EF18666
:1020C40091EFEF003043894503C58186EF20D02C82
:1020D40093070032170700202318F71E2244B2404A
:1020E40041016F20120303D541A9EF209250239D93
:1020F400A18621C11345F5FF42054181EF10522FFE
:1021040013048002EF203226239CA18615C5EF001C
:10211400B03B9307000A170700202317F71ABD3FA7
:102124000146894503C58186EF20807C83D781875A
:10213400D5F7EF20027E5DB77D141374F40F79F0A8
:10214400CDBF411122C406C693F725002E849DC33A
:10215400EF00007A0D3783C7D18799C72146894597
:1021640003C58186EF20C07813452400B240224481
:102174004101828093F715000145EDDB2D3783C7BC
:10218400418781C783C7D18791CB170600200356A7
:10219400A613854503C58186EF2080751345140079
:1021A400F1B74111170500001305E5F906C622C46D
:1021B400EF20105B138481862300A400EF00F00E4F
:1021C40003D541A9930720031345F5FF238EF18618
:1021D400420585474181A38EF1869307000A1707BC
:1021E40000202313F70EEF10B2204D3D03450400E9
:1021F4002244B240894541016F20E04F828083C769
:10220400D18795E3411117550200130565C006C631
:10221400EF301220493DB24017550200130585BF27
:1022240041016F30F21E82800DE10111680006CE7B
:1022340097E0FF1FE780206617550200130545CB82
:10224400EF30121DF24005618280828083D741B550
:102254006390A702239BB1B4239CC1B4239DD1B442
:102264002E8617550200130525BBBE856F30B208B4
:10227400175502001305C5BB6F309219411193978E
:10228400050122C406C626C2C1872E8463DA070666
:1022940003C58180EF204004AA840DCD8347050047
:1022A4001307000B638FE7021307000D6391E70226
:1022B40003472500C547631CF700034665008345B3
:1022C400750017550200130525B0EF30D20226859C
:1022D400EF1070742165218DB24022449244410173
:1022E4008280034745009307F007E312F7FE835506
:1022F400850017550200130525AFEF30C27FC1BF1B
:1023040093F7150091CF17060020130666C1938535
:10231400C19703C58180EFF0915A134514006DBF36
:1023240093F7250099CB13060064894503C5818082
:10233400EF20005C1345240045B793F7850099CF3F
:1023440083C781801307400681462946994503D5F2
:1023540041B5EFF0315013458400BDBF93F705013B
:102364009DC3014789460946814503D541B5EF0020
:10237400023DAA8517550200130545A8EF30A27740
:102384001345040191BF93F745000145B1D703D527
:1023940041B5EF0042380566130606C8914503C5EA
:1023A4008180EF20E054134544003DB703574500B6
:1023B400011106CE83D741B56315F704F957894552
:1023C40003C58180239AF1B4239B01B4239C01B4F7
:1023D400239D01B4EF20407C914503C58180EF200B
:1023E400A07B83C7D18799CB85471306F100854528
:1023F40013055030A307F100EF000200F24005611D
:102404008280175502001305A5A2EF307200FDB7B4
:1024140079714AD013894187230009001705000008
:10242400130505E606D622D426D2A38A0186EF2018
:10243400303393848180994705442380A400138614
:1024440061872314F1008545A947130550302316ED
:10245400F1002300860023008900EFF0F1791706CC
:102464000020130626AED14513057030EFF0D17865
:102474001386C1809D4513056030EFF0F17730007D
:10248400894513051031EFF0317770008945130544
:102494002031EFF0717617060020130626A9D545E2
:1024A4000145EF70A030930500320D45EF409008D0
:1024B400930500321145EF40F00785457945EF401B
:1024C40070077000914513057040A3028100230337
:1024D4008100A303810002C623040100EFE0713BE5
:1024E40013065100854513050040EFE0913A1306A9
:1024F4006100854513051040EFE0B1393000854592
:1025040013052040EFE0F1381306710085451305EB
:102514005040EFE011387D55EF70A03A7D55EF90B3
:10252400407BEF1040647D55EF10A07A4D46814505
:10253400680023048100613C8947300085450145DA
:102544002306F100EF10807E7000CD450545EF10A5
:10255400E07D938741B57957138541802390E70047
:10256400239107002392070023930700EF10207B99
:102574001385C186EFD0F11103C504008545EF2012
:102584008017175502001305A582EF3062681705FE
:102594000000130505C7EF20D13BB25022549254DA
:1025A40002594561828001112E8683D5418122CC56
:1025B40006CE9387E5FF2A846346F6001386D5FF8B
:1025C4004206418201478146ED4503D541B52315B5
:1025D400C100EF70C0660356A100A2852AC697E029
:1025E400FF1FE780402B2C0003D541B5EF10007886
:1025F40009C5ED452800EF70407CF2406244056156
:10260400828083C7418785E7411122C4138661878D
:10261400054485451305503006C6238B8186EFF0AB
:10262400B15DB240238A8186224441018280828046
:102634003D897D15954763EFA716174702001307D9
:10264400A7750A053A951C41411122C406C6BA97DA
:102654002E848287174502001305057E2244B2406A
:1026640041016F30E25A83C7250019476394E7029A
:102674002E852D3B83456400174502001305C57C58
:10268400EF3062478547238AF18617450200130518
:10269400657DE9B70D47E387E7FEB2402244410177
:1026A400828003C725009547E319F7FEC16703D766
:1026B40041B5F91703D5A5006304F702EF00E2055D
:1026C400174502001305057BEF3082548547A38A22
:1026D400F186238A0186174502001305257CBDBFB8
:1026E400239AA1B483D7E5001306006403C581804F
:1026F400239BF1B483D70501239CF1B483D725012F
:102704008945239DF1B4EF20A01E096613060690A7
:10271400A14503C58180EF20A01DEFF03F9803562B
:10272400E4008355A400174502001305E575EF3056
:10273400823C69BF03C725008D47E310F7F6854740
:10274400A38AF186238AF186174502001305C5750D
:1027540031B783C5250091476397F50017450200FB
:1027640013050576E5BD99476392F50222853D3947
:1027740083456400174502001305056DEF30A23749
:102784002244B240A38A01864101A5BD9547639ABC
:10279400F50083471400F9F3174502001305057487
:1027A40075BD2244B240174502001305A5734101CB
:1027B4006F3062348280371700408327870C4111C1
:1027C40006C693E707082324F70C8D451305000874
:1027D400EF10A002B24041016F10601C41111305BB
:1027E400800406C697E0FF1FE780C08CE9371745D1
:1027F40002001305A571EF30A2411755020013051D
:1028040065C1EF30E240EF108079EF10300DEFF04A
:102814005173FD3EEFF0FF9897E0FF1FE78060875C
:1028240003C581870589828003D581870581058950
:10283400828003D5818709810589828003D58187B8
:102844000D810589828003D5818711810589828064
:1028540003D5818715810589828003D581871981F4
:102864000589828003D581871D810589828003D5EE
:10287400818721810589828003D581872581058906
:10288400828003D5818729810589828003D5818748
:102894002D810589828083C791A8138781A43E97DF
:1028A40085072300A70093F7F70F1307F003636569
:1028B400F700A384F1A88280A38401A8828083C73F
:1028C40081A803C791A801456303F702138781A474
:1028D4003E9785070345070093F7F70F1307F003A7
:1028E4006365F7002384F1A88280238401A8828091
:1028F400011106CE22CC26CA4AC84EC6EF20020ACF
:10290400EF206226239CA18609C593072003238E0A
:10291400F18613848198B144054989491C40829702
:102924008347A400631A250981EF13952400338596
:10293400A440130555021375F50F23052401A13F87
:102944000357840021C78357640063F5E7028507B2
:10295400C207C1832313F400631AF70213952400FA
:102964003385A44023053401130575021375F50F4F
:102974001D3729A80347B40011CB8347C40085073A
:1029840093F7F70F63F1E7022306F400FD1493F4C1
:10299400F40F4104C1F46244F240D2444249B249C2
:1029A40005616F101277139524003385A440230624
:1029B4000400130555025DBF81CF139524003385B0
:1029C400A440130565021375F50F23050400E135D2
:1029D400231304002306040055BF9747020093877E
:1029E40067540E053E951C41B71600401386460BEE
:1029F4008A073E9658410C421347F7FFF98D0CC2E3
:102A04001386060B3E960C429386060AB697F98DFA
:102A14000CC29443758F98C38280974702009387B2
:102A240067500E053E951C41371700409306070A70
:102A3400BE9690424C411307C70ABA974D8E90C276
:102A44008CC382809387C1A89043D443B7170040B6
:102A540083A5070B1347F6FFF98D23A8B70A83A5AF
:102A6400470B6D8F23AAE70A03A7070A518F23A0F8
:102A7400E70A03A7C70A518F23A6E70A03A6070D8F
:102A840013C7F6FF798E23A8C70C03A6470D718FD1
:102A940023AAE70C03A7070C558F23A0E70C03A771
:102AA400C70C558F23A6E70C82801971CAD8174921
:102AB40002001309294EA6DA86DEA2DCCED6D2D4D1
:102AC400D6D2DAD0DECEE2CC02DE82C082C282C4AA
:102AD40082C6CA860147CA849748020093888844FC
:102AE4001386C1A8130300020548314583C71600A5
:102AF4008E07C6978C43639C05180C42DC43CD8F2C
:102B040023A6F1A883558600B317E8000507CD8FE7
:102B1400239AF1A8B106E31BA7FC371700408347AB
:102B240077050144B14993E72700A30BF704193F44
:102B3400B70700039387C7103EDE91472300F104D3
:102B44009307803EBEC45146971700209387872D74
:102B54006C180808BEC6A301010423120104EF2067
:102B6400326E0808EF103250B305340331460A853B
:102B74000504A695EF20D26C0A85EF005270E31588
:102B840034FFFD79974402009384C440014A014410
:102B94009389892B130B0019B14A83C5240003C6FA
:102BA400340003C514009306803EEF105265B3074A
:102BB4003501C207C183AA856363FB0E2285EF003A
:102BC400D27F05041374F40FB104E31854FD6307B2
:102BD4000A06056AFD7A130B8AEDAD358144938AA2
:102BE400FA37130A7AED834919000144130C60255E
:102BF4004E85E533930B0002A2859306803E0D4675
:102C04004E85EF10D25FAA8519E06360AB02B387EB
:102C14005501C207C1836366FC082685EF00F2797B
:102C24000D46A2852685EF00127D4E85FD33850471
:102C340093F4F40FB1473109E397F4FAEF10724DAE
:102C4400239401A89387819817F7FF1F1307C730B0
:102C5400938681A485451043239407002382B700FB
:102C640023850700A38507002386070090C3C107B7
:102C74001107E392F6FEF6506654D6544659B659F7
:102C8400265A965A065BF64B664C09618280E39B92
:102C940065E64C42DC43CD8F23A8F1A8A5B5054ACF
:102CA4000DB7637DBA007D141374F40FA285D14669
:102CB4000D464E85EF10B254AA8585B705041374EA
:102CC400F40FE31B74F395B703D541A91345F5FF3E
:102CD4009307200342054111238EF18641818547E4
:102CE40006C6A38EF186EF00B270EF109242B24096
:102CF400410189BB411106C6EF10B241A133B24074
:102D0400A38E018603D541A941016F00726EB717E6
:102D1400004003C777051377E70FA38BE704130776
:102D240000F8A38DE7043D47238CE7041307500301
:102D3400A38CE70403C7A7051377D70F238DE704F4
:102D44008280B717004003C7E7020D89411113774A
:102D5400C70F498F93068008F3B6068093F686085A
:102D640036C601000100930670052380D70493063C
:102D740080FA2380D704010001002387E70223801F
:102D84000704B247F3A707800100010041018280D4
:102D940041112A83014E930E407E130F0019930FA5
:102DA400400663E56E129308001913034006B378D6
:102DB4001503854E0D4FA14F337365020D891335ED
:102DC400150063EFBE121308F6FF794672984208A5
:102DD400135808013307C70213D61700BE073297EA
:102DE4006146B3F6C60213068070B386C6023697F0
:102DF400A166F58F42075D8FB716004083C7F602C0
:102E040093F70708A303F1000346710083C7F60292
:102E140093F70708E394C7FE83477100B716004091
:102E240093F7F70F6388071293078008F3B70780B7
:102E340093F787083EC401000100B71700409306CA
:102E440070052380D704930680FA2380D7040100F9
:102E5400010023AA070383C6170393E60608A38881
:102E6400D70223800704A247F3A7078001000100CB
:102E74001166B71700407D16D45BC85F938547037E
:102E8400A98EF18EF5FA93068008F3B6068093F6C0
:102E9400860836C601000100930670052380D70416
:102EA400930680FA2380D7040100010098C103C768
:102EB400170313670704A388E70223800704B247B4
:102EC400F3A7078001000100410182807D1333686C
:102ED400E3039308E016630E08003368F3039308D2
:102EE400D016630808009378330093B818009388C9
:102EF400D81633081E01131E0801135E0E0155B5C2
:102F04006393E503054863860800014863030300EF
:102F14002A8871087298FD15131E0801C205135EF4
:102F24000E01C18179BD13F8150063F4BF0079085F
:102F3400D5B713381800E5BF83C7F60293F707081F
:102F4400A303F1000346710083C7F60293F7070851
:102F5400E394C7FE8347710093F7F70FF1DFE9B5F8
:102F640031714AD966CB06DF22DD26DB4ED752D536
:102F740056D35AD15ECF62CD6AC96EC7AA8C02D825
:102F8400EF0010122A8993078008F3B7078093F79C
:102F940087083EDA01000100B717004013077005E7
:102FA4002380E704130780FA2380E704010001006B
:102FB40003C7F7021377770FA387E70203C7F70264
:102FC40013678700A387E70223800704D257F3A778
:102FD4000780010001000545AD33130780C1334765
:102FE400E902116A93070AE893065002BD69930B3C
:102FF400A004814A014B13048008930470057D1AD0
:10300400B347F9023307D7023EC0FD873ECC93870E
:1030140009A69309803E3347F7023AC27D873AC432
:10302400334739038549B399990193D93940B30694
:10303400D702B30B7703B3C6F602B3CBFB0236C693
:10304400FD8636C893D6FB4136CEB7460F0093862D
:1030540006243349D9028566938606FAB396960107
:10306400B389E902130760553309D90293060010A6
:10307400B389E9023349D902B3C9F9029316390075
:1030840036CA37190040FD8636D0930D090493D70C
:10309400F9413ED2F336048093F6860836DC01000B
:1030A4000100930770052380FD00930680FA2380B6
:1030B400DD00010001008346390593F6860FA3095C
:1030C400D9048346390593E61600A309D90423805D
:1030D4000D00E256F3A6068001000100130C80FAED
:1030E400116DF336048093F6860836DE0100010084
:1030F400930770052380FD0023808D0101000100EA
:1031040083463905216693E60602A309D90483564A
:103114000905B3E6A6012318D90483560905D18EFF
:103124002318D90423800D00F256F3A6068001006B
:1031340001008346390593F606026389061803469F
:103144003905218A6DDE0818612F733604801376E1
:103154008608B2C20100010023809D0023808D01F6
:1031640001000100B717004003C637051376F60DBA
:10317400A389C70403C6370513660602A389C704D7
:10318400835609052166B3E6A6012318D90483569C
:103194000905D18E2318D90423800D009646F3A681
:1031A4000680010001008346390593F60602638612
:1031B400061483463905A18AEDFE97D0FF1FE780E8
:1031C400E0EDAA8636D497D0FF1FE78020EDA25603
:1031D400E30AD5FE835609054255B3E6A601231832
:1031E400D904292F83463905A18AEDDE0356090542
:1031F4008346290582473376CA00B306DA0293D59B
:10320400F641B296B388F640E24733B8C6002E982A
:103214003308F840A247B3B616013308D84063C751
:103224000701631DF800924763FA1701C247634D13
:10323400F80E63950701B24763E8F80E894663E721
:10324400660FF2469315180013D3F8015E861395A2
:103254001800B365B30042D646D4EF206207325853
:10326400050B137BFB0F6347000163120838A25858
:10327400638F083613081500B336A800B69513D625
:10328400F5013298B336C800AE9613581800FE06FE
:10329400B3E606017336048013768608B2C60100CD
:1032A400010023809D0023808D010100010003564D
:1032B400C902B296C206C1822316D90223800D0028
:1032C400B646F3A606800100010021BDF336048052
:1032D40093F68608B6C00100010023809D00238078
:1032E4008D01010001008346390593E60602A30916
:1032F400D90423800D0086460DBDF336048093F671
:103304008608B6C40100010023809D0023808D013E
:10331400010001008346390593E60602A309D90496
:1033240023800D00A646A5BDE30D0BF0F336048003
:1033340093F68608B6C801000100930680FA23803C
:103344009D002380DD00010001008346390593F5CB
:10335400FC0F93F6860FA309D90483463905CD8E55
:10336400A309D90423800D00C646F3A606800100F4
:103374000100130580FA03463905930639051D8AB1
:10338400631496297336048013768608B2CC010040
:103394000100130680FA23809D002380CD000100E4
:1033A400010003C606001376F60D2380C60003C68B
:1033B4000600136606022380C600835609051166BB
:1033C400D18E2318D904835609052166D18E23187A
:1033D400D90423800D00E646F3A60680010001000F
:1033E400130680FA8346390593F606026388062499
:1033F40083463905130C3905A18AFDDA0818CD2155
:10340400F336048093F68608B6D0010001009306D3
:1034140080FA23809D002380DD00010001008346A3
:103424000C00116693F6F60D2300DC0083460C00B5
:1034340093E606022300DC0083560905D18E231887
:10344400D904835609052166D18E2318D904238013
:103454000D008656F3A6068001000100130680FACB
:103464008346390593F606026385062083463905AB
:10347400A18AEDFE97D0FF1FE78040C22A8C97D027
:10348400FF1FE780A0C1E30C85FF83560905116681
:103494004255D18E2318D904952183463905130644
:1034A4003905A18AFDDAF336048093F68608B6D48A
:1034B40001000100930680FA23809D002380DD0033
:1034C400010001008346060093F6F60D2300D600A2
:1034D40023800D00A656F3A6068001000100835642
:1034E400090503462905D247B376DA003306CA0232
:1034F4001305800C9355F6413696330DF6408257EA
:10350400333CD6002E9C3336A601330CFC40330CDE
:10351400CC403308850392564E86B335A503330554
:10352400A503C295EF10D25A63468001631E0C16A0
:10353400630C0D16130615003335A6002E9593560D
:10354400F5013696B335D600AA959396F501058212
:103554008585D18E6346B000639D051A638B061A78
:103564000356C90215823305D6003336C500B29519
:103574006348B000639105241306F00F637DA6220F
:10358400894663F3561593078008F3B7078093F7CA
:103594008708BED601000100371700409307700565
:1035A4002300F704930780FA2300F70401000100C5
:1035B4008356C70289678117D58FC207C183231633
:1035C400F70223000704B657F3A7078001000100A0
:1035D400FA506A54DA544A59BA592A5A9A5A0A5B1E
:1035E400FA4B6A4CDA4C4A4DBA4D29618280130871
:1035F400F5FF3335A800FD152E951356F5013298C5
:10360400B336C800AA9651B1F336048093F68608FF
:10361400B6CA0100010023809D002380AD00010093
:10362400010083463905CD8EA309D90423800D00FA
:10363400D646F3A606800100010035BBF3360480AC
:1036440093F68608B6CE0100010023809D002380F6
:10365400CD00010001008346390593E60602A30963
:10366400D90423800D00F646F3A60680010001006C
:1036740095BBF336048093F68608B6D201000100A8
:1036840023809D002380CD0001000100834639057D
:1036940093E60602A309D90423800D009656F3A6E7
:1036A4000680010001006DBB9306F5FF33B5A6004B
:1036B400FD152E959355F501AE96B3B5B600AA95B2
:1036C4001396F501858269B5F336048093F686086E
:1036D400B6D801000100930680FA23809D00238060
:1036E400DD00010001008356C9020566011693F648
:1036F400F60FD18EC206C1822316D90223800D0093
:10370400C656F3A6068001000100850A93FAFA0F53
:1037140051B233E6B60045C20356C9023305D04060
:103724003338A000B305B040B38505411582634525
:10373400B000D1E16371A608894663F0560593078A
:103744008008F3B7078093F78708BEDA0100010009
:10375400B7170040130770052380E704130780FAA6
:103764002380E7040100010003D7C7027D8B239661
:10377400E70223800704D65781BDF336048093F60D
:103784008608B6DC01000100930680FA23809D00C0
:103794002380DD00010001008356C902056601167D
:1037A40093F6F60FD18EC206C1822316D902238066
:1037B4000D00E656B9B793078008F3B7078093F76F
:1037C4008708BEDE0100010037170040930770052B
:1037D4002300F704930780FA2300F7040100010093
:1037E4000356C70293975600B297C207C1832316A4
:1037F400F70223000704F657C1BB914763EEB702F3
:1038040017470200130707828A05BA959C41BA97A5
:103814008287B717004003A7470D1345F5FF698F4B
:1038240023AAE70C03A7070D698F23A8E70C03A7B6
:10383400070C798D23A0A70C8280B717004083A6BC
:10384400470D1347F5FFF98E23AAD70C83A6070D5E
:10385400558D23A8A70C83A6070C758F23A0E70C0E
:103864008280B717004003A7470D498F23AAE70CAE
:1038740003A7070D1345F5FF45BFB717004083A6FF
:10388400470D1347F5FF758F23AAE70C03A7070C11
:10389400598D4DB7B717004003A7470D498FEDB7B2
:1038A400B71700408847420541819377050491EB9F
:1038B4009377F5013755E801130505803345F50283
:1038C40082809377050C130700046397E7009377CE
:1038D400F50137459C1CCDB72165130505D08280C1
:1038E40037E700E01C435443A183E206D58F1CC193
:1038F400FD572320F7182322F71882801317850019
:10390400B7E700E023A0E710618123A2A71082801B
:10391400B7F700E08847CC478280814737370040BB
:10392400A14663C4C700328582800345B700E38E95
:10393400A6FE3385F5000345050085072304A7008B
:10394400CDB7938781819C43171700201307C7A81D
:103954003E95636CE50017370020130767CA63665A
:10396400A70023ACA1803E858280FD57EDBF4111A5
:1039740022C406C62A842D372947B307E502B2407C
:103984008D83B3D7870222449507B3D7E70237372D
:103994000040C207C1832316F7004101828071658C
:1039A40041111305052006C6D937B7370040130760
:1039B40070F82381E7000D47A381E7001307000493
:1039C400A380E70005472387E700B24041018280D6
:1039D400CC41411106C6328503C6150083C50500D6
:1039E40022064D8E42068D654186138875A2630CAE
:1039F400060F6348C804138845A26306060B634A8E
:103A0400C800938535A26309B606239006002946AB
:103A140079A0138855A26308060B938565A2E31663
:103A2400B6FEC1451D4663ECE5064546198E63F3B3
:103A3400C7003E862390C600973502009385C56073
:103A440089A8138895A26300060F634E060B13889A
:103A5400A5A2630A060F938505A5E318B6FA99454E
:103A64001D4663EEE502198E63F3C7003E8623907C
:103A7400C6009385418231A89D451D4663E1E50258
:103A84002146198E63F3C7003E862390C6009385B2
:103A94000188BA9597D0FF1FE780E0DF0146B24066
:103AA400328541018280AD451D46E3EAE5FE31469B
:103AB400198E63F3C7003E862390C6009735020033
:103AC4009385455CF9B7B1451D46E3EAE5FC354607
:103AD400198E63F3C7003E862390C6009735020013
:103AE4009385455B7DB7C1451D46E3EAE5FA454646
:103AF400198E63F3C7003E862390C60097350200F3
:103B04009385C55579B7C1451D46E3EAE5F84546B1
:103B1400198E63F3C7003E862390C60097350200D2
:103B240093854558BDB7C1451D46E3EAE5F64546CC
:103B3400198E63F3C7003E862390C60097350200B2
:103B440093850553B9B7B5451D46E3EAE5F439460F
:103B5400198E63F3C7003E862390C6009735020092
:103B64009385854D3DB797E6FF1F9386665541467D
:103B7400CD4517E5FF1F1305A5416F80C00D03C890
:103B84008500214513780801631908062D4535E79A
:103B940003C505000947631EE5043285D041411180
:103BA40006C603471600034606002207518F4166E6
:103BB400130816FE6309070109166306C70223905A
:103BC4000600294531A83E8691C30546CC4523907D
:103BD400C6004206418297D0FF1FE780C0CB014553
:103BE400B240410182804D473E86E371F7FE4D4667
:103BF400F1BF2390060005458280828083C785003B
:103C040093F70702C9E783CE050089482E888547C4
:103C140063901E09DC4183C8170083C70700A2080C
:103C2400B3E8F8008D6793872790638FF8043A8E82
:103C340041670517A947639DE804AD47631A0E045D
:103C4400411126C206C622C40547B684B547636738
:103C5400D7020325C8003284A285054697D0FF1FEA
:103C6400E78060C39387C1889843814701CB184399
:103C740011C72686A285014502978147B240224496
:103C840092443E854101828085476F608046A1470A
:103C94003E85828041677917630CE502411122C495
:103CA40006C685472A84639AF50022852244B240D9
:103CB4009385C1AA41016F80E00489476396F500AA
:103CC4008545EFA0803C75D1B240224441018280F9
:103CD4008280411122C42A8441659385C1AA7D153D
:103CE40006C6EF802002170500001305E5FA0588D3
:103CF400EFA0E03005C02244B24097E6FF1F938650
:103D0400E6444146A14517E5FF1F1305253C410143
:103D14006F707074B240224401454101828009C52C
:103D240023A6A1880145828045458280411106C6AB
:103D3400AE870547B28519C56302E5020945B2405D
:103D4400410182806145E39CE7FE05461385818835
:103D540097D0FF1FE78020B40145D5B74D47614593
:103D6400E39FE7FC4D46138581A9DDB7411122C4C9
:103D74002E849385C1AA26C206C6AA84EF60203287
:103D8400058915C197E7FF1F9387473483D7A70594
:103D9400A285B2402310F4002244268592440146B1
:103DA40041016F70A00CB240224492444945410144
:103DB400828011456FF0CF9A411193962500AA8510
:103DC4002D4506C697C0FF1FE780806DB2400145B0
:103DD40041018280011122CC06CE3714004026CA4C
:103DE4004AC84EC652C483447405034AB405834981
:103DF400840503499405EFE09FF18347A40593F4F8
:103E0400F40F137AFA0F93E71700230DF40493F9D0
:103E1400F90F1379F90FB717004003C7A705058BEE
:103E24006DFF03D5C705A38D4705238C3705A38CE8
:103E34002705A38B9704F2406244D2444249B24915
:103E4400224A0561828041119397050122C406C666
:103E5400C1872E8463DB0700412111C16D2E2165CA
:103E6400218DB24022444101828093F7150013C58D
:103E74001500E5FB9397250163D20702EF80C14C3F
:103E84000D3F37F60200130606E08965170500208A
:103E94000345450BEF00D0250965D9B79397150164
:103EA4000145E3D007FC1735020013056525EF1023
:103EB40032561306006491651705002003458508F2
:103EC400EF001023116569BF2D71232A9110FD7431
:103ED400E98C232C811023282111232631112A84D3
:103EE400AE893289930600100A86A6852D45232EB5
:103EF400111097C0FF1FE780A05A13154401518188
:103F04000A0513962900CA850A9597D0FF1FE780F2
:103F14008098A68585660146254597C0FF1FE780E2
:103F240020580A86A68593060010294597C0FF1FCE
:103F3400E78000578320C111032481118324411198
:103F4400032901118329C11015618280B7F7070085
:103F540003C70701411106C622C426C24AC0A547A9
:103F6400631AF7009537B24022449244024901454E
:103F74004101828013942500AA843289A286AA85ED
:103F84000146254597C0FF1FE7808051A2864A86D7
:103F9400A685294597C0FF1FE7808050E9B71D71AA
:103FA40049469735020093852511173502001305FC
:103FB400654686CE97D0FF1FE780209B01E9173521
:103FC40002001305A510EF10B24401A0B7F600E0FB
:103FD400795798CAFD57DCCA0567B7E700E023A004
:103FE400E7101306F00290C223A0E71801000100B5
:103FF40017D7FF1F1307477F9706002023A6E6F471
:104004004157A38AE740130600048145080897D066
:10401400FF1FE780608F97E7FF1F9387A7603EC865
:10402400896793870780231AF1009D673ECCB70701
:104034000105938707103ECEED472310F102854713
:104044002301F10297070000938747D7BEC2970761
:1040540000009387E7EFBEC48567938757D1231287
:10406400F102970700009387E78A3ED8B7F5070067
:1040740097070000938747D63EDC814697070000E8
:10408400938767D33000E10519453EDE97C0FF1FD3
:10409400E780004118088147994630003E96034660
:1040A400060085070507A30BC700E398D7FEC247A0
:1040B40091C70357410185676373F70001A008089E
:1040C400EF00D06DAA8501C917350200130545011B
:1040D400EF10722201A0F64025618280411117057C
:1040E4000000130585D606C622C4EF0070671704C6
:1040F4000020130424E52300A40019280345040028
:104104002244B24013060032896541016F00407EAB
:10411400797106D613078008F337078093F7870869
:104124003EC201000100B7170040930570052380CB
:10413400B704130680FA2380C7040100010083C674
:10414400F70293F6A60FA387D702238007049246AB
:10415400F3A60680010001007337078013778708F0
:104164003AC4010001002380B7042380C70401007E
:10417400010003C7F70213672700A387E702238020
:104184000704A247F3A70780010001000545EFE0FB
:104194005FBB0531814701478146054685451305C7
:1041A400407EEFE0FFBE68005146814597C0FF1F87
:1041B400E7808075B707C0A83EC8B787E803938730
:1041C40007D03ECA680097C7FF1F9387871E3EC665
:1041D400EF10A010B2504561828023AC05FE1C4153
:1041E40091E7010001000CC18280BA8703A787FF11
:1041F4006DFF23ACB7FE8280184183A785FF631946
:10420400B7001CC1FD5723AC05FE238FF5FE828049
:10421400232CF6FEC5BF411122C437E400E026C2B8
:1042240004403707200006C6F98C2320E4180F1039
:10423400000009E9232094101545B2402244924419
:10424400410182800347E5FF9307F00F6306F700FF
:10425400232094101145D5B797E0FF1FE780C0BB1A
:10426400014523209410D1BF411126C2B7E400E0D8
:104274004AC003A90400B707200006C622C4337944
:10428400F90023A0F4180F10000009E923A0241159
:10429400B24022449244024941018280956593854B
:1042A40005D0C98D2A842105C2054205C1814181F9
:1042B40097E0FF1FE78020A701CDFD5723200500CD
:1042C400231285002303F50023A024112105C9B777
:1042D40023A0241101456DBF0111B7E700E04AC8CE
:1042E40003A907004EC63707200006CE22CC26CAF3
:1042F400AA893379E90023A0E7180F100000970773
:1043040000209387E7C480438144014619E499E877
:10431400A1654E85EF00500805A08347E4FF63992B
:10432400370385CCA68517050020130565C2E9353A
:1043340065D0A1654E85C126F2406244B7E700E02E
:1043440023A0271126854249D244B24905618280BF
:1043540091E02286032484FF55BFA284E5BF411166
:104364004AC037E900E022C40324090037072000CB
:1043740006C626C2798C2320E9180F10000089E5AF
:1043840023208910154515A0AA849707002083C708
:1043940077BC2E8563F5F400894763EE9700A53D4D
:1043A400B7E700E023A087100D45B24022449244B1
:1043B40002494101828083A785FF99E703C7E5FF8E
:1043C4009307F00F6308F700B935B7E700E023A0BF
:1043D40087104DBF238F95FE17050020130545B7A1
:1043E400ED3BA1652685012E01452320891075BF6B
:1043F4009707002023AE07B4828097070020938795
:10440400A7BA9C4399E33E85828003D727006316AD
:10441400B70003C70700E308A7FEDC47E5B7A5C15B
:10442400011106CE22CC26CA8147C14633D7F540B6
:10443400058B29C312053E9531473305E50217075D
:1044440000201307A7BA044305443314F4002EC60E
:1044540042044180AA949C40C8408297B24523A05C
:10446400040023A20400A18DF2406244D2442E85AC
:10447400056182808507E39BD7FA0144EDB72E8559
:104484008280C9C1797122D406D626D24AD04ECEB2
:1044940001444147B3D78540858BA5C312053147F5
:1044A40022953305E50297070020938727B403A9D3
:1044B40007008544B3948400C204C180BE892A994C
:1044C4000327090011C7032549002EC60297B245E8
:1044D40031473304E40283A709003E941C4489E76E
:1044E4002320090023220900B2502254A58D025929
:1044F4009254F2492E85456182800504E31CE4F858
:104504008144DDB72E8582804111B7E700E022C4E3
:1045140080433707200006C626C2798C23A0E718FB
:104524000F10000097070020938747A89C5393849B
:10453400418399C782979C403E9523AAA18239A0C2
:10454400970700209387C7A59C43EDF78840B7479A
:1045540003009387D73F3305F502B7A72600938757
:1045640037ECB24092443E9523AAA182B7E700E01B
:1045740023A087102244410182800111B7E700E0A3
:1045840022CC80434AC83707200006CE26CA2A898F
:104594002E86798C23A0E7180F100000131506014E
:1045A4009305F004418132C697D0FF1FE780A077BE
:1045B400AA8419C53246CA8597C0FF1FE780A02D7B
:1045C400B7E700E023A08710F24062442685424901
:1045D400D244056182807971B7E700E022D4804338
:1045E4003708200006D626D24AD04ECE52CC56CA20
:1045F4005AC85EC662C43374040123A007190F109D
:10460400000005E123A087100945B25022549254BA
:104614000259F249624AD24A424BB24B224C45619A
:104624008280970700209387A7979C43BA8A368A8B
:10463400B28B2E8BAA898297970700209387079BBA
:1046440098433E898144B146C147338CD402330632
:104654008701104241EAC165938505F0414597D031
:10466400FF1FE780406C05E19707002093870794BC
:104674009C5B81C7814511458297B7E700E023A081
:1046840087102D4559B7970700209387E7919843E2
:1046940031E79707002023A9A7902300050083276B
:1046A40009000547331797002326050023247501C5
:1046B4002311E50023225501E29723A0370123A209
:1046C400670123A4570163040A0023009A00B7E793
:1046D40000E023A0871001450DBF3E875C47F5FF2E
:1046E40048C765BF8504E392F4F6B7E700E023A06A
:1046F4008710214519BFB7E700E09843B7062000AB
:1047040023A0D718758F0F1000009706002083C6CA
:1047140076846373D502170600201306A6889316C1
:1047240015000842369583560500D58D2310B50033
:1047340023A0E7100145828023A0E7100D45828065
:10474400B7E700E09843B706200023A0D718758F79
:104754000F10000097F6FF1F83C6D67F6375D5023E
:10476400170600201306068493161500084293C505
:10477400F5FF369583560500F58D2310B50023A06B
:10478400E7100145828023A0E7100D4582800111C6
:1047940037E700E026CA0443B706200006CE22CC41
:1047A4004AC84EC652C4F58C2320D7180F100000F7
:1047B400130705FF1377F70FFD4763E5E70AB146D3
:1047C400B306D5029707002093874782984336970C
:1047D4001C43C9CB135A450005443D893315A40035
:1047E4001314050141802E895285A2853931AA8985
:1047F40029CDA2855285A93797F7FF1F9387477A5A
:104804009C43829797F7FF1F83D7877F33872703BC
:104814002A84814613060064B3B7270313050732BD
:10482400B335E500BE95EF003268B307850097F60F
:10483400FF1F9386667C3E87D44263E4A70063E44B
:10484400D7003387D74023A4E900B7E700E023A0CB
:1048540097100145F2406244D2444249B249224A87
:1048640005618280B7E700E023A097100945DDB712
:104874000111B7E700E026CA84433707200006CEBB
:1048840022CC4AC84EC6F98C23A0E7180F100000AA
:10489400BD4763E9A70431473307E50297F7FF1FD4
:1048A4009387C7749C43BA979C438DCF05443314B4
:1048B400A400420441802E890145A2853D3EAA8977
:1048C40011C5A2850145AD3D23A42901B7E700E048
:1048D40023A097100145F2406244D2444249B249B0
:1048E40005618280B7E700E023A097100945E5B78A
:1048F40079714AD037E900E026D283240900B7074A
:10490400200006D622D44ECE52CC56CA5AC85EC611
:10491400FD8C2320F9180F10000097F7FF1F83C7A1
:104924007763637AF50097F7FF1F9387676783AB15
:10493400070063970B00B7E700E023A09710A9A036
:1049440017FBFF1F130B4B6B832A4B00B74736FE35
:10495400938707C82E8A97F5FF1F83D5656ABE9A89
:10496400B387C5022A84B2898146B3B5C5021385CB
:104974000732B337F50013060064BE95EF00D25238
:1049840063F0AA02232099100145B2502254925494
:104994000259F249624AD24A424BB24B4561828083
:1049A400829B97F5FF1F83D5A565B38735032A89B5
:1049B400130600648146B3B5350313850732B33754
:1049C400F500BE95EF00524EB30725013E8903273B
:1049D4004B0063E4A70063E4E7003389E740D28532
:1049E4002285EFF09FA109C923242501B7E700E040
:1049F40023A09710054551BF936504F0C205C181FA
:104A0400414597D0FF1FE780003219E997F7FF1F50
:104A14009387C7599C5B85D3A2851145829721BF93
:104A240097F7FF1F938747589C4385E797F7FF1F26
:104A340023ACA756854723260500232425012311EB
:104A4400450123008500A300F5002322050079BF5A
:104A5400BA87D84775FFC8C7F1BF7971B7E700E0D7
:104A640026D284433707200006D622D44AD04ECE1D
:104A740052CC56CA5AC85EC662C466C26AC0F98CB1
:104A840023A0E7180F1000003DC14144B689B28A43
:104A94002E8A2A89B14C17FBFF1F130B2B55054D8A
:104AA400130C0003B30B940303270B005E971C4302
:104AB400A5E39375F400B315BD0013554440C20536
:104AC4005686C1811375F50F253539C183270B002F
:104AD400DE9723A0270123A24701638409002380D2
:104AE4008900B7E700E023A09710014521A023A087
:104AF40097100945B250225492540259F249624A1D
:104B0400D24A424BB24B224C924C024D45618280B8
:104B14000504E31984F9B7E700E023A097102145C1
:104B2400D1BF0111B7E700E026CA844322CC4AC8AA
:104B34004EC63707200006CE2A84AE893289F98C06
:104B440023A0E7180F10000065332285CE85EFF00F
:104B5400DF8A2A8405C597F5FF1F83D5654AB38785
:104B64002503130600648146B3B525031385073274
:104B7400B337F500BE95EF00323348C01335140047
:104B8400F2406244B7E700E023A097104249D244C0
:104B9400B2490E05056182800111B7E700E04AC8F9
:104BA40003A9070022CC4EC63707200006CE26CA2A
:104BB400AA892E843379E90023A0E7180F10000096
:104BC400EFF0BF83AA8419C123110500A2854E8585
:104BD400853E97F7FF1F83C7E737639B370197F736
:104BE400FF1F83D7A73B5D8C97F7FF1F2398873A56
:104BF400B7E700E023A02711014591E01945F240F1
:104C04006244D2444249B2490561828001114AC8D2
:104C140037E900E022CC03240900B707200006CEC0
:104C240026CA4EC67D8C2320F9180F100000930766
:104C3400F00263E8A704B147B304F50297F9FF1F34
:104C44009389C93A83A70900A6979C439DCB937780
:104C5400F5008545B395F500C205C18111812D3F4D
:104C640083A709000145A69723A0070023A20700F4
:104C740023208910F2406244D2444249B24905617A
:104C84008280B7E700E023A087100945E5B741110A
:104C9400B7E700E026C2844306C622C437072000D3
:104CA400F98C23A0E7180F100000EFF00FF519E9B5
:104CB4000145B2402244B7E700E023A09710924494
:104CC4004101828097F7FF1F9387872D9C430045FE
:104CD400829797F7FF1F938727326368A402D8430C
:104CE400B74636FE938606C83305A4403697E3716B
:104CF400E5FC13070064B335E50203D6870081465B
:104D04003305E502EF00521A6DB7D8433A94C1BF98
:104D1400411122C426C217F4FF1F1304E42D97F493
:104D2400FF1F938424239448584097F7FF1F9387C9
:104D3400272706C69C436393E60882975440B747E7
:104D440036FE938707C8B6973387A7003A8563640E
:104D5400F7006364D7003305D74097F4FF1F9384AB
:104D6400E443DC5081CF97F7FF1F9387E74A9443CE
:104D74003707CDFF7D179C46F98F9CC611E148404B
:104D840097F7FF1F93878722DC53829719E5DC503E
:104D94008DC3EF70A172EF60B147DC5099CB97F7E8
:104DA400FF1F938767479843B70633001C47D58F87
:104DB4001CC7B240224492444101828082979448A5
:104DC4005840B387A6003E8563E4D700E3E7E7F8DD
:104DD4003385E74059B7411106C697F7FF1F23AB48
:104DE400A7200295B24097F7FF1F23A1A7180145FA
:104DF40041018280994763E9B7008A0597F7FF1F4D
:104E040093870718BE9588C1828097F7FF1F23A157
:104E1400A71E11C5854717F7FF1F2302F7188280C5
:104E240041117146814517F5FF1F1305651506C627
:104E340097F7FF1F23AA071697F7FF1F23AC071A3C
:104E440097F7FF1F23AE071497F7FF1F2389071453
:104E540097F7FF1F23AE071897C0FF1FE780C0AA6C
:104E640013068002814517F5FF1F1305A50E97C091
:104E7400FF1FE78060A9EFD0911697F7FF1F938774
:104E8400E71203C5C70383C7D70385453E958D47FE
:104E94003305F50239051375F50F97F7FF1F238CBA
:104EA400A70A99473305F5021305052497D0FF1F78
:104EB400E78060E717F7FF1F232AA71259CD994708
:104EC40017F6FF1F034626093306F602814513062B
:104ED400062497C0FF1FE78020A397F7FF1F93873F
:104EE400E7109C439387072417F7FF1F2328F7082D
:104EF40017F7FF1F034727060A07BA9717F7FF1F7D
:104F04002322F70AEFF0CFCEC12197F7FF1F938733
:104F1400E706944397F7FF1F83C7D7031397270028
:104F2400369717F6FFFF1306065610C313871700AC
:104F34001377F70F0A07369717F6FFFF1306664E27
:104F440010C313873700890793F7F70F8A0797F57C
:104F5400FF1FA381E500B69790C3B2404101828050
:104F640097F7FF1F83C717FF17F7FF1F0347A7FE16
:104F740063F3E70217F7FF1F1307470018439386ED
:104F8400170017F6FF1FA307D6FC93962700369742
:104F940008C33E8582809307F00FE5BF1C416384FC
:104FA400071641777D8FB70600208947631ED71403
:104FB40003574500630A0714411122C419462A8481
:104FC4009305F00F610506C697C0FF1FE78040A256
:104FD40005478D476304E5121C4481CB5858994713
:104FE400630E0710185C630B071013060004814559
:104FF40017F5FF1F130585FB97C0FF1FE780C090BF
:1050040013060004A28517F5FF1F130525FA97C0A0
:10501400FF1FE780408897F7FF1F83D7E7F917F74B
:10502400FF1F1307A7F899E79307001097F6FF1FD0
:105034002394F6F897F7FF1F83C727F891E785476E
:1050440097F6FF1F238BF6F697F7FF1F83D707F713
:1050540091E7ED4797F6FF1F2392F6F697F7FF1FA8
:1050640083C7B7F591E7954797F6FF1FA387F6F433
:1050740097F7FF1F83C7A7F491E7854797F6FF1FAC
:10508400238FF6F297F7FF1F83C777F399E78347D8
:10509400F70097F6FF1FA384F6F297F7FF1F83C765
:1050A40037F281CF93F63700898317F6FF1F230D5C
:1050B400D6F297F6FF1FA389F6F297F7FF1F83C76F
:1050C40027F091E7D54797F6FF1F238BF6EE83472A
:1050D400640199E79307C00397F6FF1F2383F6EE55
:1050E4001C5791C7829797F7FF1F2399A7E6FD578F
:1050F40017F7FF1FA304F71825338147B240224452
:105104003E854101828089473E85828001114EC6D9
:1051140097F9FF1F938949EE83A7090006CE22CC95
:1051240026CA4AC852C4829713090064B3352503BA
:1051340003DA89008146528633052503EF00C256FF
:1051440097F7FF1F938707E1804FAA840145630601
:10515400940233858440636E940003A5490052860B
:105164008146B335A9023305A902EF00E253018D4C
:10517400269597F7FF1F23AB97DEF2406244D24493
:105184004249B249224A05618280011122CC0A8532
:105194002E84414697250200938505BF06CEEF0075
:1051A400320A180806043A94035504FF97F7FF1FC0
:1051B40083D727E5F2406244AA9737450F001305C9
:1051C40005243355F5020561828097F7FF1F83D7C5
:1051D40047E351471D45637CF702794719456378D6
:1051E400F7021307200315456373F7021307B0048E
:1051F4001145637EF700130740060D456379F700F8
:105204001307600909456374F70013B5B70F82806B
:10521400011122CC06CE2A842EC6EFF0EFAEB245A1
:10522400F240818D33A5A502229562441375F50FD2
:1052340005618280011122CC06CE2A842EC6EFF0AD
:10524400AFACB245F240818D33A5A50222956244EC
:105254004205418105618280011122CC06CE2A8457
:105264002EC6EFF06FAAB245F240818D33B5A50288
:10527400229562440561828097F7FF1F938707D3C5
:10528400985739CB411122C426C206C6BE84029760
:1052940017F7FF1F035787CC2A8415CBBA8763738C
:1052A400A700AA87C207C183BA866373E400A286F3
:1052B400C206C182958F5147635BF700DC5491C3EA
:1052C4008297EF70610897F7FF1F239987C8B24050
:1052D4002244924441018280828097F7FF1F23A7D2
:1052E40007D297F7FF1F938767CCDC57011106CECF
:1052F400AA8581C72AC68297B245C9C59C4105457E
:10530400BDCFDC41ADCF83D78500B5CB83D7A50016
:10531400BDC7514617F5FF1F130505CE97B0FF1FF4
:10532400E780605797F7FF1F238E07CC97F7FF1F7F
:10533400938787CC9C4317F7FF1F2323F7C697F760
:10534400FF1F83C717C88DE79307805717F5FF1F03
:10535400035505CB3305F50237460F001306062423
:1053640081468145EF00423497F7FF1FA38BA7C402
:10537400170500001305C5D9EFF0FFA50145F2405C
:105384000561828097F7FF1F23A407BE97C7FF1FFD
:10539400938707A317F7FF1F2320F7C67D5797F7B7
:1053A400FF1F23ADE7C4B7873200938727A197F681
:1053B400FF1F23A7F6C497F7FF1F238507C4B7C7AA
:1053C400004023A4E7269DB7011122CC17F4FF1F48
:1053D4001304C4BD084406CE26CA4AC801E90545DB
:1053E400F2406244D2444249056182805C58E5DB64
:1053F400185C75D77000854582971844B247E3005E
:10540400F7FE9305E00417F5FF1F0355E5BA97D09F
:10541400FF1FE780409117F7FF1F232DA7B461D129
:1054240017F6FF1F035646B99305F00F97B0FF1FF9
:10543400E780804D814417F9FF1F1309A9B197F73D
:10544400FF1F83C787B70326090263C1F4023285AD
:1054540097D0FF1FE780409C014597F7FF1F23ABC0
:1054640007B097F7FF1F23A907B09DBF97F5FF1F4C
:1054740083D585B4B38795020844185C8981850473
:105484003E9508C2029765BF011156C297FAFF1FE5
:10549400938ACAB183A78A0022CC4AC84EC606CED4
:1054A40026CA52C45AC0AA892E8432896386072226
:1054B40003A74A03630907141307F01F6367A714BC
:1054C40097F4FF1F938404A903AA040263170A0A2A
:1054D4009565938515E017F5FF1F0355E5AD97D046
:1054E400FF1FE780408497F7FF1F23A5A7A82A86FC
:1054F400630B051083A74A0303A58A0097F5FF1FD2
:1055040083D585AB8981829783A78A0003AA040285
:1055140017F7FF1F2322F7A68947639CF908C147A1
:105524006313F40E97F5FF1F83D505A9938505FC36
:105534009147B3C5F5028A05D29503C725009307A1
:10554400A005631EF70A83D70500639A370B4A85C3
:105554002286910597B0FF1FE780E0339C50528567
:10556400639347150145F2406244D2444249B2492B
:10557400224A924A024B05618280D850E38EE7F8B2
:105584009565938525E017F5FF1F0355E5A297C0A0
:10559400FF1FE78040792A8A3DC52A8683A74A03EC
:1055A40003A58A0097F5FF1F83D505A189818297FA
:1055B400A5B78D47639DF900C1476316F40497F5B9
:1055C400FF1F83D5659F938545FDF199B5B7914735
:1055D400639AF9006319340397F5FF1F83D5C59DBA
:1055E400A115E5B793070010639FF900A14763EC89
:1055F400870097F5FF1F83D5259CC115F9B79C50EB
:1056040052856396470D2945B9BF1D6A568B637150
:10561400450B130A05E01947334AEA0217F7FF1F3F
:105624000357879997FAFF1F938ACA92330AEA02AB
:105634003E9A83A74A026395470183A40A029DE424
:105644009305E00417F5FF1F0355059797C0FF1F47
:10565400E780606DAA8445D983274B0397F5FF1F24
:1056640083D585952A86898152858297914513072A
:10567400A005898193972500A69783C62700639385
:10568400E60483D60700639C360385058A052286D3
:10569400A6954A8597B0FF1FE780E01F83A70A02FB
:1056A400E38297EC268597C0FF1FE780E0765DBD17
:1056B40021677917E369A7F4330A454185B783C5A0
:1056C400370045BF83A70A02E38F97F2268597C068
:1056D400FF1FE780607405BF97F7FF1F93878787D5
:1056E4008C5395D191479306A0058983139727007E
:1056F4002E9703462700E318D6F003560700631CD1
:10570400360185078A072286BE954A8597B0FF1F12
:10571400E780601881BD83473700C1BF97F7FF1F3B
:105724009387C788984739C79C5FA9C70547631300
:10573400E504411122C417F4FF1F1304A48110507F
:1057440006C60DC6485097F5FF1F83D5E5868981A7
:105754008297085097C0FF1FE780006C97F7FF1FE0
:1057640023AA078097F7FF1F23A80780B24022448B
:10577400410182808280011117F7FF1F13070783FD
:105784004EC68329870022CC26CA4AC806CE52C4F4
:1057940056C2AA842E843289638B09201C5FBA8A7C
:1057A40099EB2945F2406244D2444249B249224A23
:1057B400924A056182805C5BEDD79307F01F63EA30
:1057C400A70E97E9FF1F9389E97883A70902B1CB54
:1057D40003A58A0083A749026395A70689476393B3
:1057E400F408C147E31FF4FA17E5FF1F0355C57C0E
:1057F4009147130505FC3345F5029317250003A5CE
:1058040009022286CA853E959307A0052301F50067
:1058140023109500110597B0FF1FE780C0070145CD
:1058240051B79305E00417E5FF1F0355E57897C0CA
:10583400FF1FE780404F97E7FF1F23ADA77249F989
:105844008DB783A74A0303A6090297E5FF1F83D5F3
:10585400A5768981829783A78A0017E7FF1F232DE6
:10586400F770ADBF8D47639EF400C147E31BF4F2AC
:1058740017E5FF1F03554574130545FD9377C5FFD1
:10588400BDBF9147639AF400E31D94F017E5FF1F31
:10589400035585722115DDB793070010E393F4F0E7
:1058A400A147E3E087F017E5FF1F0355E5704115B5
:1058B400F1B79D676379F506930705E01947B3C708
:1058C400E70217E7FF1F0357276F17EAFF1F130AA3
:1058D4006A68B387E702BE9983270A02A1CF8327A8
:1058E4004A026399370703250A0291461308A00563
:1058F4009305F00F93D72600139727002A970346A2
:105904002700631F06078358070003463700639583
:105914009806B306D64063CF860485078A07228695
:10592400CA853E95CDBD21677917E36CA7E6B30719
:10593400F54041BF9305E00417E5FF1F0355C56714
:1059440097C0FF1FE780203E97E7FF1F23A4A762AD
:1059540059F581BD83A74A0303260A0297E5FF1F71
:1059640083D5856589814E85829797E7FF1F23A597
:10597400376195BF2310B70093160601C1829DBFFE
:10598400B385860017E6FF1F0356066391051306C9
:1059940006FCE3F8C5E013063400719A1106B296CA
:1059A4002301070123109700A301D700BDB797E790
:1059B400FF1F9387275A9453BE89A9C203A50902DE
:1059C40091461308A0059305F00F93D7260013976B
:1059D40027002A9703462700631806058358070003
:1059E4000346370063989800B306D640E3D786F29F
:1059F4002310B70093160601C182C1BF8357C700A5
:105A040017E5FF1F0345655B9305E0043305F502C5
:105A14004205418197C0FF1FE780E03097E7FF1FF1
:105A240023AAA75441FDB5BB17E6FF1F0356C6586A
:105A340097E5FF1F83C56558B385C5023386860085
:105A44001106E3E0C5D681BF01458280011106CE6F
:105A54002EC6EF80405101C9B245F24003552500DE
:105A640005616FC0A06EF240494505618280A38C38
:105A7400018A238C018A23A0018A23A2018A23A4F8
:105A8400018A23A6018A23AE018823AC018897E703
:105A9400FF1F9387E759930640382391D702F17685
:105AA4001307400B938606B82391E7002392D7028D
:105AB40011679D46130600059305000A1305007D32
:105AC4002392E7002393D70241478546130810F831
:105AD4002395E7002396E7002399E700239AE7003C
