:040000006F10D0713C
:10000400000000000000000090000020A402002076
:10001400A9BDF9F55C030020000000000000000009
:100024005C0300209000002000000000000000009D
:10003400900000200000000090000020000000005C
:1000440090000020900000209000002090000020EC
:10005400900000200808002090000020000000000C
:1000640090000020900000209000002090000020CC
:10007400C203002090000020900000209000002087
:1000840090000020900000209000002090000020AC
:1000940001A04111B7170040985F3AC6945F3247F8
:1000A400E39CE6FE3245410182800111130780087A
:1000B400F337078093F787083EC201000100B717A2
:1000C4000040930570052380B704130680FA23804B
:1000D400C7040100010083C6B70493F6F60DA38597
:1000E400D704238007049246F3A60680010001008A
:1000F40093760502D5CEF336078093F6860836C488
:10010400010001002380B7042380C704010001001B
:10011400B70614007D89558D88C7010001000100D0
:10012400010023800704A246F3A606800100010013
:1001340073370780137787083AC6010001002380CC
:10014400B7042380C7040100010001000100372720
:10015400004093061005A303D78023800704B24709
:10016400F3A707800100010093078008F3B7078015
:1001740093F787083ECE01000100B717004013072C
:1001840070052380E704130780FA2380E704010045
:10019400010003C7B70413670708A385E704238096
:1001A4000704F247F3A7078001000100056182807C
:1001B40093760504BDC6F336078093F6860836C8E1
:1001C400010001002380B7042380C704010001005B
:1001D400B7061400938606047D89558D88C70100EF
:1001E40001000100010023800704C246F3A6068033
:1001F4000100010073370780137787083ACA0100AA
:1002040001002380B7042380C704010001003727BD
:10021400004093062005A303D78023800704D24718
:1002240081B773370780137787083ACC0100010040
:100234002380B7042380C704010001009847136793
:10024400070C98C723800704E24719BF01118146B0
:1002540001468145114506CE992493078008F3B7DA
:10026400078093F787083EC601000100B7170040D6
:10027400130770052380E704130780FA2380E7043B
:100284000100010003C76704136717002383E70411
:1002940023800704B247F3A7078001000100F2405E
:1002A4000561828041118146014681451145C52A77
:1002B40013078008F337078093F787083EC40100CB
:1002C4000100B7170040130670052380C704930686
:1002D40080FA2380D70401000100FD552396B7025C
:1002E40023800704A245F3A50580010001007337AC
:1002F4000780137787083AC6010001002380C704EA
:100304002380D7040100010003C7670413671700A3
:100314002383E70423800704B247F3A7078001007F
:10032400010001A0BD473305F50201007D1575FDEF
:100334008280411122C426C206C6AA8401446317DE
:100344009400B24022449244410182800504130582
:10035400803E4204C13F4180DDB7000093050002A6
:1003640073A0458082457390153492402242B24274
:100374004243D2436244F244025592552256B25645
:100384004257D2576258F25806499649264AB64A05
:10039400464BD64B664CF64C065D965D265EB65EC5
:1003A400465FD65F0961730020304111B7170040E2
:1003B400985F3AC6945F3247E39CE6FE32454101BA
:1003C4008280B7170040130700032388E70285479C
:1003D40023A2F18873002030411106C6EF00207D6E
:1003E400F5BF2303048015472303E480010023029F
:1003F400A480828083076480E3CE07FE2303048005
:10040400828083076480E3CE07FE034544808280B4
:1004140083076480E3CE07FE2302A4808280411117
:1004240026C44AC24EC006C61377F50BAD47AA8947
:100434002E8995446306F70019456537653F8D4459
:100444004E854537FD59FD1463983401B240A244EA
:100454001249824941018280135509011375F50F30
:10046400453F2209CDB7011126CC06CEB7040800BA
:1004740051371545BD37713769372AC6A53F32450F
:100484009377150089EB136515001375F50FF2408A
:10049400E24405618280FD14E9FC0145CDBF397158
:1004A40026DC4ADA4ED852D656D45AD25ED006DE6C
:1004B40062CE66CCB7E700E07D5783AA070022C668
:1004C40003AA470023A0E71823A2E718B7170040A0
:1004D400130770052380E704130780FA2380E704D9
:1004E40083C74704930B75FFB684E20793FBFB0FA6
:1004F4008546AA892E8B328937240040E18701572B
:1005040063FA76016308D500894613070002631372
:10051400D5000157D98F93F7F70FB71C00402382FA
:10052400FC0411472303E4801305F00F5D3D094CDF
:10053400D135636D7C11B7050700DA95378707005D
:10054400795563F2E504B3879500636EF702370BC0
:100554000800A94733EB65016399F90689E48144EE
:10056400513D26850DA0DA850945553D050903450C
:10057400F9FFFD14050B693D81C49377FB0FFDF76B
:10058400DD3569FD7D55B7170040130770052380DD
:10059400E704130780FA2380E70403C74704418B69
:1005A4002382E704F250B7E700E023A0571123A207
:1005B4004711E25432445259C259325AA25A125B78
:1005C400825B724CE24C21618280A5476395F906F7
:1005D40085691309F00FB3069900B3742B01B6941F
:1005E4001349F9FFB3749900856B33796901416B41
:1005F4009387F9FFB3F7270199E363FC340193D997
:100604004900C147E3E637FF99BF0569C1697D1910
:10061400D9B71305800D638869011305000263844B
:10062400790113051008CA85DD3B353D21DD4E995E
:10063400B3843441D9B7DA852D45D533CA94E30060
:1006440099F205097D3BA30FA9FED5BF9387F9FF56
:1006540093F7F70F6361FC0C83C71C04130730087E
:10066400631FF70437070800636BEB04B3079B00B1
:10067400B706100063F5D704334BEB008947639347
:10068400F9068980D549E38C04ECDA850945413BB8
:1006940011090327C9FF91472320E48003076480DD
:1006A400E34E07FE23033481FD17EDFBFD14110B0C
:1006B40081C49377FB0FE9FF7D3371F5E1B5B7177B
:1006C400004003C75704B70708001377070219E36C
:1006D400B78707007955E378FBEA33079B00E3FF0C
:1006E400E7F855B58547E382F9F2DA852D45053BF0
:1006F4009389F4FFE38504E6293393F7390091EBFA
:10070400832604800327090093074900E39AE6E45B
:100714003E89CE84F1BFB5476396F9001305900B6B
:10072400C93135BDB1471305B00AE38BF9FE9947CA
:100734006391F904B7050800B365BB002D45C531C5
:1007440081448D4BA14975396396740183270480D4
:100754002320F9008504E39834FF832704801317CA
:100764002B01635507002312F900D5BB2322F9009E
:10077400FDB39D476399F90281451305B0044531E2
:10078400BD442320090023220900FD599D3993F714
:100794007400CA9703C70700FD14398D2380A7008E
:1007A400E39634FF6DBBA1476392F9046D3981442C
:1007B400630D0B008D479304C0036308FB0093048F
:1007C400000563048B01930440041375C507E30813
:1007D40095D81945393139390545213126850D39E1
:1007E40009453D314931E31C05D669BB91476399FD
:1007F400F90013056006F536F53E130590090DB7AB
:10080400E38F09D4F154A9BB197106C212C416C6E8
:100814001AC81ECA22CC26CE2AD02ED232D436D61C
:100824003AD83EDA42DC46DECAC0CEC2D2C4D6C60C
:10083400DAC8DECAE2CCE6CEEAD0EED2F2D4F6D6FC
:10084400FAD8FEDA9385C1878841E7000500924013
:100854002242B2424243D2436244F2440255925588
:100864002256B2564257D2576258F2580649964910
:10087400264AB64A464BD64B664CF64C065D965D08
:10088400265EB65E465FD65F096173002030B7E727
:1008940000E09843B706200023A0D718758F0F10E7
:1008A400000001C599C1814711E6B7E700E023A024
:1008B400E7108280B386F50003C80600B306F5008E
:1008C400850723800601E317F6FEC5B737E700E086
:1008D4001C43B70620002320D718F58F0F10000003
:1008E40019C191C111E637E700E02320F710828097
:1008F400910503A7C5FF11057D16232EE5FEDDB77F
:1009040037E700E01C43B70620002320D718F58FF3
:100914000F10000001C53307C50011E637E700E0FA
:100924002320F71082800505A30FB5FEE31DE5FE25
:10093400F5B7B7E700E09843B706200023A0D7181F
:10094400758F0F1000008147B306F50083860600FB
:1009540099E6B7E600E023A0E6103E85828085078D
:10096400E5B737E700E01C43B70620002320D7187B
:10097400F58F0F10000001C599C1014711EA37E74F
:1009840000E02320F710054582800507E309E6FE11
:100994003308E500B386E5000348080083C6060073
:1009A400E305D8FE37E700E02320F71001458280F5
:1009B40037E700E01C43B70620002320D718F58F43
:1009C4000F1000001307F6FFBA952A966317C500A7
:1009D40037E700E02320F7108280FD1503C71500D8
:1009E4000505A30FE5FEDDB737E700E01C43B706B6
:1009F40020002320D718F58F0F10000001C53307FE
:100A0400C50019E637E700E02320F710014582808E
:100A140005058346F5FFE397B6FEE31BE5FE37E7DE
:100A240000E02320F7100545828079719737000094
:100A34009387472D22D4804306D626D24AD04ECE61
:100A440052CC56CA5AC85EC679C0B7C4C901014B54
:100A5400973900009389892A9384F437173A000060
:100A6400130A8A2A973A0000938A8A2417390000C5
:100A74001309492E8357240095E35C44631D0B003E
:100A8400173700002320F728832BC4002285EF00AA
:100A9400701E5E84B9A82326FB00FDB783A7090056
:100AA40082971C443307F5406376F5000327490019
:100AB4001D8F2A9763E2E4089737000023A20720DA
:100AC4008355240003450400973000E0E780C06AA2
:100AD4005C405844A1CB0C4403264900AE97BE8623
:100AE40063E4B70063E4C700B386C74014C4228B31
:100AF4003A8449F0973700009387871B9C4B09473A
:100B04006372F706F91717370000232BF71AB25050
:100B1400225492540259F249624AD24A424BB24B8D
:100B24004561828063170B009737000023ACE71CF4
:100B3400A1BF2326EB0089BF03274A0209CF63EF35
:100B4400A7003385A74083A70A016376F50097378A
:100B5400000023A7A716228B404461BF0327490046
:100B6400BA97C5B79737000023AC07144DB797372A
:100B740000009387A71D9C4385C3411106C6829735
:100B84009737000083C7671789E79737000023AFBB
:100B9400071AB240410182809737000083C7E715E6
:100BA40091E79737000023A3071A828082804111BE
:100BB40022C417340000130464121C4006C626C263
:100BC4004AC091C782979737000023A90710973727
:100BD400000083C77731858B1739000013098930EA
:100BE40089CF8347790019476312F71097370000BC
:100BF400A38C072E11235C4482971C4491C38297D3
:100C0400973400009384C40F9840173600000346BD
:100C1400360A9737000083C7A70993961700BA9638
:100C240083D60600E5C29737000083C7670863E5EB
:100C3400C70E97370000238D07061C40639E0714D8
:100C4400973700009387870B9C4363870714973774
:100C5400000093872710DC43173700002322F70690
:100C6400E9339737000083C79728639707129737AC
:100C7400000083C7B72791CF8347790093F7F70F15
:100C840089EB97370000A3830726974001E0E780AC
:100C940020AE9737000093872707DC53638E070E37
:100CA400973700009387C7009C4BFDC783477900A3
:100CB40015476363F70E9737000083C72728918B86
:100CC400E1EF9737000083C74703F9E79040973671
:100CD400000083C6F6FD63C7D70C2244B240924499
:100CE40002494101174300E0670083AA8347790062
:100CF4001D47E314F7F097370000A387071EED2E76
:100D04001C48DDBD850793F7F70F97360000238154
:100D1400F6FAE3E0C7F001BF86073E978355070064
:100D24002310070097370000239807FC973700002B
:100D3400938787FA9C4317350000034565F713171B
:100D44002500BA979C4382979737000083D7C7FA48
:100D5400173700000347C7F593C7F7FF7D8D931737
:100D6400170098403E97835707005D8D2310A70016
:100D74009737000083C7C7F391C78507173700006B
:100D84002308F7F217370000034787F2973700006C
:100D940083C717F2E37FF7E8B24022449244024942
:100DA40041018280139717003297035707006DF7AC
:100DB400850715B737C700408326C720B707FCFF50
:100DC400FD17F58F2326F720010001009737000057
:100DD400938707EEC84F832787262326D7206A05E3
:100DE40093C7F7FF99835D8D8280011197370000C7
:100DF4009387472022CC03A4070C26CA06CE2AC414
:100E04002EC6854419E40145F2406244D24405618A
:100E140082808347910003471400858B6304F700A5
:100E24000044CDB719469305A10013052400153ECF
:100E3400E31895FE0545C9BFEFF07FD373000000AA
:100E44000000000097320000938222EB038302002B
:100E540023800200630F0300F32510342EC097058E
:100E640000009385A5FD73901534EF00A04B73002B
:100E7400203086DCEF00004BE650828000001737FC
:100E840000001307E7051443411122C49C5E4AC0C5
:100E940006C6998326C2858B3A8417390000130944
:100EA400E903D1CB930700069CDE17370000034704
:100EB400C70393070008973400009384A402631BBC
:100EC400F700832709009C4393F7070417370000B2
:100ED400230DF70083C7040093F707049DC39737D6
:100EE40000009387A7E19C4382979737000023A9CA
:100EF400A70083C7040093F7F70B173700002303F9
:100F0400F7FE83C7440093F7070495E7854717372F
:100F14000000A30BF7FC97370000938727FF9C433F
:100F24003707020098C7130700FC97360000238D8B
:100F3400E6FA9848F8D318401C5F9183858B8DC3DB
:100F44001C5F93E707011CDF97370000938707FCBA
:100F54009C4323A207068547173700002306F7F8AA
:100F640083270900D8430583058B19C7D843759B8C
:100F7400D8C3D843799BD8C3B2402244924402498F
:100F840041018280ED3D730020309317D50063D377
:100F9400070297370000938767F79C437D57B8D7BC
:100FA400973700009387C7D0DC4F850717370000B9
:100FB400232EF7D0937785008DC39737000083C71E
:100FC40087F293E7170017370000230EF7F0930713
:100FD40000F8173700002309F7F09377150099CB31
:100FE4009737000083C717F093E7170017370000FF
:100FF400A30AF7EE9377650095CB937745001737EF
:101004000000130727EECDCB8347070093E71700B3
:10101400173700002308F7EC97370000938747EC55
:1010240098435C57F19B93E717005CD79317F5003F
:1010340063D407021737000003474703418B9737F0
:101044000000938727FB51C383C7870793E70702F1
:1010540017370000230CF7009317E50063D7070246
:101064009737000083C747E8E207E18763D70700A3
:101074008547173700002309F7E697370000938761
:10108400E7E89C433707020098C79317C50063D469
:10109400070217370000034777FD058B97370000D9
:1010A400938747F529C383C7970793E72700173723
:1010B4000000A30DF7FA82808347370093E71700F7
:1010C40017370000A301F7E281BF03C787078946EA
:1010D4003D8B6308D70083C787070D47BD8BE39D0E
:1010E400E7F69147B5B703C79707118B69D783C74D
:1010F400970793E7870065BF97370000938707E159
:101104009443973700009387E7DD03C70700058BF7
:1011140011CB97370000238907DC97370000A3859C
:1011240007DC828003C71700058B65F7F85271FF4F
:1011340083C75700DDB717370000130767DA0328A2
:101144000700832788039583858BADEF11C683271A
:101154000803BD832300F6009DC61C43985B460725
:10116400935767016356070093E707C0C207C1831B
:1011740003970600C207C18709C7BA970947B3C7CF
:10118400E7022390F6008DCD8345150095C9973766
:10119400000083C787D593F7070413879500894513
:1011A40085C33A95834705000547994593F6F706A5
:1011B4006398E600E207E187814563D30700B945F8
:1011C4002E8582808545EDBF411126C206C622C404
:1011D40097340000938484D33DED9440AE87F85255
:1011E4007DFF37F400E03E8597370000238D07CE5E
:1011F400832704D1B285ED9B2328F4D0832704D11F
:1012040093E787022328F4D073005010973001E04D
:10121400E780603D97370000938787CC9C43B706EF
:1012240080009843558F98C3D857719BD8D7973768
:101234000000A38B07CA97370000A38507CA9C4008
:10124400094798C3832704D193E787002328F4D060
:10125400730050100DA08D476315F50497370000F7
:10126400938707C89C43B70680009843558F98C35B
:10127400D857719BD8D7944017370000130787C6F7
:1012840083472700858B89EB83473700858BC1CB48
:1012940097370000238A07C4B24022449244410194
:1012A40082808547E319F5FCB7F700E003A707D16F
:1012B4006D9B23A8E7D003A707D11367870223A850
:1012C400E7D07300501098408177FD175447F58F8D
:1012D4005CC70F1000009840B70702001CC79307B3
:1012E40000F8173600002301F6C0973700009387F3
:1012F40027BF9C439C439D83858B639FA7009307D3
:1013040060197CD354C737F700E0832707D193E7EC
:1013140087002328F7D02DBF9307E01BDDB7FC52CD
:10132400A5F39DBF97370000938747BE9C4388472A
:10133400D847798D09C988C79387819303A3070088
:10134400630303000283828097370000938707BCFE
:1013540098438967938707F47CD397370000938772
:1013640027C09C4383A607091396560063580600BA
:1013740083A6070913966600634406007453FDF2BE
:1013840082804111B7E700E022C480433707200080
:1013940006C6798C23A0E7180F10000011C199E547
:1013A400B7E700E023A0871001457DA89307350027
:1013B400C207C183F19BC207C1831307400363695A
:1013C400F70217370000130767C2084317370000F6
:1013D400130747C114436392A6021737000013078B
:1013E400A792185B55DFC207DD8D054502974DBFF7
:1013F40017370000130747BFC9BF035765002DEB1C
:10140400035745006366F706B306F7402146637C3D
:10141400D60203280500938687001D8FAA966117BC
:1014240017360000035626892392E60023A00601FE
:101434002393060014C12312F500130786FF973681
:101444000000239AE6862313B5009735000083D560
:101454008586B387F54017370000231EF784B7E766
:1014640000E023A087102105B2402244410182807C
:10147400084195B7B7E700E08C433707200023A065
:10148400E718F98D0F10000001E523A0B710828042
:1014940097370000938787B503A3070097370000A9
:1014A400938747B483A8070081469A8763F2170D90
:1014B40003A807006361F50C636FA80A138787000C
:1014C4006368E50A03D66700216705076317E6002A
:1014D40003C7019305072388E1921725000013052C
:1014E400257D03D6470003576500239307003297F1
:1014F40042074183172E0000231FEE7A638C670294
:1015040017330000130343AE032303006304F30201
:1015140003D366006310030283D7460023A00601A9
:1015240021073E9621062392C600972700002394A4
:10153400E778B6879843630D1703973600009386C0
:10154400A6AA94426306D7028356670095E283D61F
:101554004700035647001843A106B2962392D700CA
:1015640098C383576500A107172700002315F77454
:10157400B7E700E019BFBE86C2870DBF03278511F8
:1015840063020712411122C406C68347C50083457E
:10159400E5042A8493F7C70F2306F50083469700D2
:1015A4000356C70013958601618563F2C508635B22
:1015B40005060345870093F6F607A304D7000546FE
:1015C40093E627006314C50093E617002306D400AE
:1015D4005C4389075CC3A30AB400032504112E8667
:1015E4004C430905EFF0AFAA832784110346540145
:1015F400D44303D7C700B296118FD4C32396E70010
:101604008947A30DF400034764039727000083C7A9
:10161400C7706378F7048347C40093E70701230680
:10162400F40081A093E717002306F4006DB79376C6
:10163400F60F635D050203458700854513E6270021
:101644006314B50013E617002306C400A30AD400EC
:10165400A30407008547A30DF400832784119C434A
:10166400DDF3B240224401454101828093E7170033
:101674002306F400A30AD400A304070003250411DD
:101684004C430905EFF0AFA08327841103465401AE
:10169400D44303D7C700B296118FD4C32396E7006F
:1016A4008D4755BF0545828097370000938747A72C
:1016B4009C43411122C406C6858B2A84C5EF41652B
:1016C400130525F597F001E0E780402C45C58347D5
:1016D400A5002315F50083270412BDE72320A412D7
:1016E4002322A41285472311F404232005008347F1
:1016F400640154412316F5000347D4002304E50094
:101704000547A304E500172700001307A77D5853D6
:101714001385170215811C437D151375F50F9CC2A3
:101724005C43DCC21C479CC65C47DCC61C4B9CCAA1
:101734005C4BDCCA1C4F9CCE5C4FDCCE19CD93862F
:10174400060213070702C1BF8327441288C38357C5
:1017540024042322A412850779B79737000083D77E
:10176400E789850717370000231AF788B240224417
:10177400410182808347C40023090400054593C7BF
:1017840047002306F400DDB78347850193F7E70F8D
:10179400D5EF83479501DDEB034625018346C5005C
:1017A40009CA83456503172700000347175763E7F2
:1017B400E50013F7060141CF014709C6C18A035763
:1017C400651C81C68356A51C369751C31307C712DF
:1017D4001725000003558558B335A70237460F0077
:1017E400411113060624814622C426C206C67D542E
:1017F4003305A702972002E0E78060EE97270000F8
:1018040083C7F751B384A700972700009387877E87
:1018140003A787098327070963F387003E841843D6
:1018240075FB972700009387674D9C4382978147F8
:101834006364A400B307A440B2402244B3B7970042
:1018440093C7170092443E854101828081473E85BB
:101854008280972700009387676B98433C5BFDFF6A
:10186400010001008280011122CC4AC84EC606CE76
:1018740026CA52C456C25AC00347B50085472A84B3
:101884002E89832905096310F72083570508035B14
:10189400C503972A000083DA6A4C172A0000130A4A
:1018A4006A4B63FA671B834605016396E61A0327AE
:1018B40085116312071A0327450A631E0718834616
:1018C400F5001D476399E6180355A503330BFB4048
:1018D4009307204E330565038324440937460F00DC
:1018E4008146130606243305F5029727000083C7B3
:1018F4000743B3549502B3B5AA02BE94C204C1808F
:10190400231394083385AA02972002E0E78020DDA0
:10191400B307350133B5A7002E953E8783264A00C9
:1019240019E163E4D7003387D740B3845403B7463F
:101934000F009387F623938606242320E900A697B5
:10194400B3D7D702DA976362F7101D8F2320E9001B
:10195400972900009389893A83A709008324090001
:10196400829763E5A4123385A4406354050C83A7CE
:1019740009008297032709006361E512198D8357D3
:10198400E403172700000357673D8E07B387E70278
:101994001307003293870719B3D7E70263E7A71049
:1019A400374A0F00130BFA23972A0000938A8A3AC6
:1019B400130A0A248357040485072310F404834775
:1019C400041499E322856D22228597E001E0E780E3
:1019D40060EF75E9832604098327C40803A74A0036
:1019E400B6973E8563E4D70063E4E7003385E740B8
:1019F4008347F401835464082328A4088507A30FAC
:101A0400F4009727000083D76735B384F402DA948F
:101A1400B3D444036368950CB304954083A70900C9
:101A240023209900829763E3A40C3385A440E34305
:101A340005F89727000083C7972E63E7A708972721
:101A4400000023A98764014541A083264A00B38787
:101A5400F6403E97E5BD8354640837470F0093076B
:101A6400F723B3845403BE9493070724B3D7F40233
:101A740063E7F900B387F9402320F900D1BD0327B8
:101A84004A00BA99C5BF23A03501D9B597270000EC
:101A94009387472CDC43BE94F9B5972700009387BE
:101AA400672BDC43998F3E95D9BDA145228597E0EC
:101AB40001E0E78000DAA305A402972700009387DA
:101AC400A7249C5B81EF7D55F2406244D244424995
:101AD400B249224A924A024B0561828089451545E2
:101AE4008297D5B7B3049740AA940DBF83A74A0041
:101AF400BE9425BF2DCD01116C0022CC06CE2A84C4
:101B04009D332DC1FD576305F50217270000130708
:101B1400A71F5853B24705CB2547637FF700D91752
:101B24003EC6B24503459402972000E0E780607CFE
:101B3400F240624405618280172700001307872161
:101B44005843BA97E9BF172700000347571D63E4BA
:101B5400E700998FF1B7972600009386A61FD44219
:101B6400B697C5BF97F001E0E7804093D1B7828074
:101B7400797126D206D622D44AD04ECE52CC56CA39
:101B84005AC85EC68347550303447513AA843E941A
:101B94001374F40F9307400263F687001304B4FD33
:101BA4001374F40F03AA841383AAC413A38B84129B
:101BB40022865285D685971002E0E780406F05891A
:101BC40015E503CBD41201498149337B6403930B9C
:101BD40050024A865285D685971002E0E780206D30
:101BE400058915C5639169031374F90F238B841256
:101BF400B250225492540259F249624AD24A424B98
:101C0400B24B456182808509E20993D9894105096E
:101C1400E31179FDE1BF8327850903560504797132
:101C240093D60701BD8EC206C182358E1357764006
:101C340093575640898B058B5D8F93573640918B14
:101C44005D8F93571640A18B5D8F93171600C18B40
:101C54005D8F9317360093F707025D8F9317560035
:101C64009355860093F707041E065D8F1376F60FCF
:101C7400518F93D7554013D63540118A898BD18F14
:101C840013D67540D18F13D61540218AD18F139660
:101C94001500418AD18F1396350013760602D18F31
:101CA40013965500137606049E05D18F93F5F50F10
:101CB400CD8FA20745465D8F3307C70222D42A84FD
:101CC40026D252CC56CA032A8413832AC4135AC870
:101CD40006D63697420741839357774013555740AA
:101CE4000989858BC98F135537401189C98F1355BD
:101CF40017402189C98F131517004189C98F1315FE
:101D0400370013750502C98F1315570093558700C3
:101D1400137505041E07C98F1377F70FD98F13D5D1
:101D2400354013D755401189098B498F13D5754018
:101D3400498F13D515402189498F13951500418981
:101D4400498F1395350013750502498F1395550076
:101D5400137505049E05498F93F5F50F4D8F2207E2
:101D6400D98FB387C7024AD04ECE5EC662C4B69737
:101D7400C207C18313D7774013D557400989058B10
:101D8400498F13D537401189498F13D517402189BD
:101D9400498F139517004189498F1395370013759F
:101DA4000502498F1395570093D5870013750504D1
:101DB4009E07498F93F7F70FD98F13D5354013D763
:101DC40055401189098B498F13D57540498F13D517
:101DD40015402189498F139515004189498F139521
:101DE400350013750502498F1395550013750504C5
:101DF4009E05498F93F5F50F4D8F2207D98FB38731
:101E0400C702130650025285D685B697BD8E9394A9
:101E14000601C18033F6C402137BF60F971002E06B
:101E2400E780E04805890DED8347D41201498149D3
:101E3400B3849702130C5002C1804A865285D6851A
:101E4400971002E0E780A0460589937BF90F11C53E
:101E540063863403850993F9F90F0509E31F89FDA6
:101E6400230B6413B250225492540259F249624A29
:101E7400D24A424BB24B224C456182805E8BCDB735
:101E84000111972700009387E71622CC03A4870C3F
:101E940026CA4AC84EC606CEAA8413092500854917
:101EA40015C083C7140003473400858B6304F7000F
:101EB400405CFDB71946930544004A85EFE07FAACC
:101EC400E31835FF2285F2406244D2444249B249C4
:101ED400056182804111972700009387A71122C4CE
:101EE40003A4870C26C24AC006C6930425000549EC
:101EF40001E82285B2402244924402494101828091
:101F0400A6851305A402970002E0E780A0B5E302CA
:081F140025FF405CF1BF000055
:101F1C0097110020938141B7175100201301C18DF7
:101F2C001305400097E5FF1F9385050D170600204C
:101F3C00130606FE63FAC5008322050023A0550094
:101F4C0011059105E3EAC5FE173502001305C575A9
:101F5C00970500209385C5FB1386818563FAC50020
:101F6C008322050023A0550011059105E3EAC5FE67
:101F7C0013858185972500209385451B6377B500D4
:101F8C00232005001105E36DB5FEFD42739002BCE4
:101F9C008D4273904280930280087390023097E2D6
:101FAC00FF1F9382620593E23200739052309722A6
:101FBC0000009382E2C473901234730020303D43CE
:101FCC002A876373C3029377F700BDEFADE5937671
:101FDC0006FF3D8ABA960CC34CC30CC74CC74107CD
:101FEC00E36BD7FE11E28280B306C3408A069702E8
:101FFC00000096966780A6002307B700A306B700DB
:10200C002306B700A305B7002305B700A304B70048
:10201C002304B700A303B7002303B700A302B70040
:10202C002302B700A301B7002301B700A300B70038
:10203C002300B700828093F5F50F93968500D58D1C
:10204C0093960501D58D61B79396270097020000F2
:10205C0096968682E78086FA9680C1171D8F3E96EB
:10206C00E374C3F8A5B7B717004003C77705137718
:10207C00E70FA38BE704130700F8A38DE7043D4794
:10208C00238CE70413075003A38CE70403C7A705AD
:10209C001377D70F238DE7048280B717004003C74F
:1020AC00E7020D8941111377C70F498F93068008FA
:1020BC00F3B6068093F6860836C601000100930637
:1020CC0070052380D704930680FA2380D70401007F
:1020DC0001002387E70223800704B247F3A7078098
:1020EC00010001004101828041112A83014E930EAF
:1020FC00407E130F0019930F400663E56E12930890
:10210C00001913034006B3781503854E0D4FA14FEC
:10211C00337365020D891335150063EFBE12130876
:10212C00F6FF794672984208135808013307C70224
:10213C0013D61700BE0732976146B3F6C6021306D4
:10214C008070B386C6023697A166F58F42075D8F05
:10215C00B716004083C7F60293F70708A303F100F4
:10216C000346710083C7F60293F70708E394C7FE92
:10217C0083477100B716004093F7F70F6388071277
:10218C0093078008F3B7078093F787083EC40100D4
:10219C000100B7170040930670052380D7049306FF
:1021AC0080FA2380D7040100010023AA070383C609
:1021BC00170393E60608A388D70223800704A247D7
:1021CC00F3A70780010001001166B71700407D16C8
:1021DC00D45BC85F93854703A98EF18EF5FA9306FD
:1021EC008008F3B6068093F6860836C60100010017
:1021FC00930670052380D704930680FA2380D704B6
:10220C000100010098C103C7170313670704A388D3
:10221C00E70223800704B247F3A7078001000100FF
:10222C00410182807D133368E3039308E016630E4B
:10223C0008003368F3039308D016630808009378FA
:10224C00330093B818009388D81633081E01131E58
:10225C000801135E0E0155B56393E50305486386CB
:10226C0008000148630303002A8871087298FD1561
:10227C00131E0801C205135E0E01C18179BD13F84E
:10228C00150063F4BF007908D5B713381800E5BF03
:10229C0083C7F60293F70708A303F1000346710006
:1022AC0083C7F60293F70708E394C7FE83477100D0
:1022BC0093F7F70FF1DFE9B531714AD966CB06DF39
:1022CC0022DD26DB4ED752D556D35AD15ECF62CD06
:1022DC006AC96EC7AA8C02D8EF0010122A8993071C
:1022EC008008F3B7078093F787083EDA01000100F6
:1022FC00B7170040130770052380E704130780FA13
:10230C002380E7040100010003C7F7021377770F5E
:10231C00A387E70203C7F70213678700A387E702C7
:10232C0023800704D257F3A707800100010005455D
:10233C00AD33130780C13347E902116A93070AE8EA
:10234C0093065002BD69930BA004814A014B130400
:10235C008008930470057D1AB347F9023307D7023E
:10236C003EC0FD873ECC938709A69309803E334738
:10237C00F7023AC27D873AC4334739038549B3998A
:10238C00990193D93940B306D702B30B7703B3C67F
:10239C00F602B3CBFB0236C6FD8636C893D6FB419C
:1023AC0036CEB7460F00938606243349D90285668C
:1023BC00938606FAB3969601B389E9021307605522
:1023CC003309D90293060010B389E9023349D902C3
:1023DC00B3C9F9029316390036CA37190040FD8685
:1023EC0036D0930D090493D7F9413ED2F3360480CD
:1023FC0093F6860836DC01000100930770052380F4
:10240C00FD00930680FA2380DD0001000100834665
:10241C00390593F6860FA309D9048346390593E64B
:10242C001600A309D90423800D00E256F3A60680FA
:10243C0001000100130C80FA116DF336048093F641
:10244C00860836DE01000100930770052380FD002D
:10245C0023808D010100010083463905216693E636
:10246C000602A309D90483560905B3E6A60123186D
:10247C00D90483560905D18E2318D90423800D0065
:10248C00F256F3A60680010001008346390593F647
:10249C0006026389061803463905218A6DDE081881
:1024AC00612F7336048013768608B2C201000100D6
:1024BC0023809D0023808D0101000100B71700408F
:1024CC0003C637051376F60DA389C70403C6370573
:1024DC0013660602A389C704835609052166B3E671
:1024EC00A6012318D90483560905D18E2318D904C3
:1024FC0023800D009646F3A606800100010083465A
:10250C00390593F606026386061483463905A18ABB
:10251C00EDFE97E0FF1FE78040B7AA8636D497E020
:10252C00FF1FE78080B6A256E30AD5FE8356090545
:10253C004255B3E6A6012318D904292F8346390541
:10254C00A18AEDDE035609058346290582473376B9
:10255C00CA00B306DA0293D5F641B296B388F640B8
:10256C00E24733B8C6002E983308F840A247B3B6FA
:10257C0016013308D84063C70701631DF800924762
:10258C0063FA1701C247634DF80E63950701B24712
:10259C0063E8F80E894663E7660FF2469315180058
:1025AC0013D3F8015E8613951800B365B30042D6B9
:1025BC0046D4EF0052543258050B137BFB0F634784
:1025CC00000163120838A258638F083613081500EF
:1025DC00B336A800B69513D6F5013298B336C800B9
:1025EC00AE9613581800FE06B3E606017336048047
:1025FC0013768608B2C60100010023809D0023805B
:10260C008D01010001000356C902B296C206C182B7
:10261C002316D90223800D00B646F3A606800100CE
:10262C00010021BDF336048093F68608B6C0010084
:10263C00010023809D0023808D0101000100834651
:10264C00390593E60602A309D90423800D008646BA
:10265C000DBDF336048093F68608B6C40100010064
:10266C0023809D0023808D010100010083463905E4
:10267C0093E60602A309D90423800D00A646A5BD46
:10268C00E30D0BF0F336048093F68608B6C8010010
:10269C000100930680FA23809D002380DD00010059
:1026AC0001008346390593F5FC0F93F6860FA309B9
:1026BC00D90483463905CD8EA309D90423800D0096
:1026CC00C646F3A6068001000100130580FA0346F6
:1026DC003905930639051D8A6314962973360480CF
:1026EC0013768608B2CC01000100130680FA238011
:1026FC009D002380CD000100010003C60600137667
:10270C00F60D2380C60003C606001366060223805E
:10271C00C600835609051166D18E2318D904835639
:10272C0009052166D18E2318D90423800D00E646B5
:10273C00F3A6068001000100130680FA83463905D2
:10274C0093F606026388062483463905130C390573
:10275C00A18AFDDA0818CD21F336048093F6860899
:10276C00B6D001000100930680FA23809D002380DF
:10277C00DD000100010083460C00116693F6F60D96
:10278C002300DC0083460C0093E606022300DC00E9
:10279C0083560905D18E2318D90483560905216661
:1027AC00D18E2318D90423800D008656F3A60680FB
:1027BC0001000100130680FA8346390593F60602E0
:1027CC006385062083463905A18AEDFE97E0FF1F3D
:1027DC00E780A08B2A8C97E0FF1FE780008BE30C2F
:1027EC0085FF8356090511664255D18E2318D904ED
:1027FC0095218346390513063905A18AFDDAF3368E
:10280C00048093F68608B6D401000100930680FA82
:10281C0023809D002380DD0001000100834606001B
:10282C0093F6F60D2300D60023800D00A656F3A6D2
:10283C000680010001008356090503462905D2478D
:10284C00B376DA003306CA021305800C9355F641B1
:10285C003696330DF6408257333CD6002E9C3336D9
:10286C00A601330CFC40330CCC4033088503925644
:10287C004E86B335A5033305A503C295EF00B227E9
:10288C0063468001631E0C16630C0D1613061500AF
:10289C003335A6002E959356F5013696B335D600F2
:1028AC00AA959396F50105828585D18E6346B00075
:1028BC00639D051A638B061A0356C90215823305EC
:1028CC00D6003336C500B2956348B0006391052439
:1028DC001306F00F637DA622894663F35615930702
:1028EC008008F3B7078093F78708BED60100010074
:1028FC0037170040930770052300F704930780FAFD
:10290C002300F704010001008356C7028967811771
:10291C00D58FC207C1832316F70223000704B657CD
:10292C00F3A7078001000100FA506A54DA544A599F
:10293C00BA592A5A9A5A0A5BFA4B6A4CDA4C4A4DE3
:10294C00BA4D296182801308F5FF3335A800FD15B7
:10295C002E951356F5013298B336C800AA9651B18C
:10296C00F336048093F68608B6CA01000100238072
:10297C009D002380AD000100010083463905CD8EFA
:10298C00A309D90423800D00D646F3A606800100C6
:10299C00010035BBF336048093F68608B6CE0100F1
:1029AC00010023809D002380CD000100010083469F
:1029BC00390593E60602A309D90423800D00F646D7
:1029CC00F3A606800100010095BBF336048093F654
:1029DC008608B6D20100010023809D002380CD0023
:1029EC00010001008346390593E60602A309D904C8
:1029FC0023800D009656F3A60680010001006DBBE6
:102A0C009306F5FF33B5A600FD152E959355F501EC
:102A1C00AE96B3B5B600AA951396F501858269B545
:102A2C00F336048093F68608B6D8010001009306AD
:102A3C0080FA23809D002380DD0001000100835675
:102A4C00C9020566011693F6F60FD18EC206C18235
:102A5C002316D90223800D00C656F3A6068001006A
:102A6C000100850A93FAFA0F51B233E6B60045C25B
:102A7C000356C9023305D0403338A000B305B0402B
:102A8C00B385054115826345B000D1E16371A60899
:102A9C00894663F0560593078008F3B7078093F7D0
:102AAC008708BEDA01000100B71700401307700554
:102ABC002380E704130780FA2380E7040100010058
:102ACC0003D7C7027D8B2396E70223800704D657D2
:102ADC0081BDF336048093F68608B6DC0100010054
:102AEC00930680FA23809D002380DD000100010005
:102AFC008356C9020566011693F6F60FD18EC206EF
:102B0C00C1822316D90223800D00E656B9B793076C
:102B1C008008F3B7078093F78708BEDE0100010039
:102B2C0037170040930770052300F704930780FACA
:102B3C002300F704010001000356C70293975600C7
:102B4C00B297C207C1832316F70223000704F65776
:102B5C00C1BB914763EEB702172702001307472644
:102B6C008A05BA959C41BA978287B717004003A78C
:102B7C00470B1345F5FF698F23AAE70A03A7070B39
:102B8C00698F23A8E70A03A7070A798D23A0A70A50
:102B9C008280B717004083A6470B1347F5FFF98EC9
:102BAC0023AAD70A83A6070B558D23A8A70A83A6A9
:102BBC00070A758F23A0E70A8280B717004003A786
:102BCC00470B498F23AAE70A03A7070B1345F5FF09
:102BDC0045BFB717004083A6470B1347F5FF758F0A
:102BEC0023AAE70A03A7070A598D4DB7B717004068
:102BFC0003A7470B498FEDB7B7170040884742052D
:102C0C0041819377050491EB9377F5013755E801F2
:102C1C00130505803345F50282809377050C130765
:102C2C0000046397E7009377F50137459C1CCDB7FB
:102C3C002165130505D0828037E700E01C4354431F
:102C4C00A183E206D58F1CC1FD572320F718232240
:102C5C00F718828013178500B7E700E023A0E71070
:102C6C00618123A2A7108280B7F700E08847CC4788
:102C7C008280814737370040A14663C4C700328544
:102C8C0082800345B740E38EA6FE3385F5000345ED
:102C9C00050085072304A740CDB797F7FF1F93873F
:102CAC00A75E9C4317170020130747483E95636E99
:102CBC00E50017470020130727946368A70017F750
:102CCC00FF1F2323A75C3E858280FD57EDBF41117A
:102CDC0022C406C62A840D372947B307E502B24041
:102CEC008D83B3D7870222449507B3D7E7023737D2
:102CFC000040C207C1832316F740410182807165F1
:102D0C0041111305052006C6D937B7370040130704
:102D1C0070F82381E7400D47A381E74013070004B7
:102D2C00A380E74005472387E740B24041018280FA
:102D3C0003A84500411122C406C626C283471800C9
:102D4C00034808002D44A207B3E7070141E3C2077B
:102D5C000D67B284C1871306C7A56382C704130627
:102D6C00D7A56384C7021307279029446399E70406
:102D7C00CC459387019A639FF50285472390F60013
:102D8C00EF60F0582380A40009A885472390F60033
:102D9C00DC4583C707002380F40001440DA089475C
:102DAC002390F600DC4583C70700A3800400238032
:102DBC00F400E5B7938701992944E380F5FC9387E8
:102DCC00C1869C4381C78145194582972285B240B3
:102DDC00224492444101828083A8450079714AD0F3
:102DEC0006D622D426D24ECE52CC83C7180083C826
:102DFC0008002D49A207B3E717015DEFC2078D68E4
:102E0C00C18713832890B284638C6718938858A564
:102E1C0029496393170B3684854783C61187130999
:102E2C000008638BF6089316250093870199B697D3
:102E3C0083C72700AA8913091008898BB5CF13897A
:102E4C00C1858327490003DAA5001374F40FA1CBC5
:102E5C008547A388F186239E41858D47239FF18466
:102E6C008327490041472380E7000327490083C794
:102E7C000400A300F7000D476380E70C114763893A
:102E8C00E70E05476383E70409448327490085451A
:102E9C0003C5018723818700EF10002D19A88146F7
:102EAC004546F54503D58185EF60700023A0A186CA
:102EBC0045F1239C31850149B25022544A859254E4
:102ECC000259F249624A4561828015476360870A5C
:102EDC0083D76186858BD9CB631AE40283C7240020
:102EEC0003C73400A2074207BA9703C71400BA9766
:102EFC0003C744006207BA973EC69387C1869C43BA
:102F0C0081C76C0005458297054441B702C68146CE
:102F1C00014781477D1463C58700E5D23AC6F1BFEE
:102F2C00B386F40083C61600139637008507B39654
:102F3C00C60036978546C5B789476319F40283D70F
:102F4C006186918B0D44B1D303C7140083C62187CE
:102F5C0081471386019BB305F60083C50500638288
:102F6C00E50A850793F7F70FE3F7F6FE0D4431BF3B
:102F7C008547E31DF4FE83D76186918BE5DB835790
:102F8C0029000325490003C62187B2979385019B2D
:102F9C000D05239FF18497E0FF1FE780C08EF5B5E8
:102FAC0083D7A50017F8FF1F03582801631FF800EB
:102FBC008947EF60103B9387C1869C432A89E38D38
:102FCC0007EE81451D458297C5BD17F8FF1F0358B5
:102FDC00C8F7E312F8EE8547EF60B0382A89E31D95
:102FEC0005EC9387C1869C43E38707EC03C514006B
:102FFC0003C7040081452205598D133515001105B1
:10300C00D9B7A383E1809387C1869C43E38E07EEF7
:10301C0081450D45CDBD411126C2C16422C49385A5
:10302C00019A2A841385F4FF06C6EF80207A9385D3
:10303C0001991385F4FF0588EF8040790DC0224477
:10304C00B240924497F6FF1F938686F74146AD45F2
:10305C0017F5FF1F1305C5EB41016F80406CB240A3
:10306C002244924401454101828023A6A18682809C
:10307C009147630AF5009D476302F5028D47630A89
:10308C00F5000945828083470600A383F180014542
:10309C008280834706002393F186D5BF03C721871F
:1030AC00B547014563EDE700930717002389F186C7
:1030BC00834606009387019BBA972380D7008280B2
:1030CC0091476302F50295476302F5020D47894764
:1030DC006319E5009387618683D707002380F50089
:1030EC0081473E85828083C77180CDBF83C741866F
:1030FC00F5B7411122C42E849385019A26C206C6C7
:10310C00AA84EF60D020058915C197F7FF1F93871C
:10311C0027E083D7A702A285B2402310F4002244F3
:10312C0026859244014641016F70C07AB240224418
:10313C009244494541018280C167F9176301F50446
:10314C00411122C406C685472A84639FF500228557
:10315C009385019AEF80806722852244B240938543
:10316C00019941016F80806689476396F50085451A
:10317C00EFA0F02169DDB2402244410182808280BF
:10318C00CC41411106C6328503C6150083C5050026
:10319C0022064D8E42068D654186138875A2630CFE
:1031AC00060F6348C804138845A26306060B634ADE
:1031BC00C800938535A26309B606239006002946FC
:1031CC0079A0138855A26308060B938565A2E316B4
:1031DC00B6FEC1451D4663ECE5064546198E63F304
:1031EC00C7003E862390C60097250200938585BFB5
:1031FC0089A8138895A26300060F634E060B1388EB
:10320C00A5A2630A060F938505A5E318B6FA99459E
:10321C001D4663EEE502198E63F3C7003E862390CC
:10322C00C6009385018131A89D451D4663E1E502E9
:10323C002146198E63F3C7003E862390C600938502
:10324C004187BA9597D0FF1FE780E0630146B240F3
:10325C00328541018280AD451D46E3EAE5FE3146EB
:10326C00198E63F3C7003E862390C6009725020093
:10327C00938505BBF9B7B1451D46E3EAE5FC354638
:10328C00198E63F3C7003E862390C6009725020073
:10329C00938505BA7DB7C1451D46E3EAE5FA454677
:1032AC00198E63F3C7003E862390C6009725020053
:1032BC00938585B479B7C1451D46E3EAE5F84546E3
:1032CC00198E63F3C7003E862390C6009725020033
:1032DC00938505B7BDB7C1451D46E3EAE5F64546FE
:1032EC00198E63F3C7003E862390C6009725020013
:1032FC009385C5B1B9B7B5451D46E3EAE5F4394642
:10330C00198E63F3C7003E862390C60097250200F2
:10331C00938545AC3DB797F6FF1F938626DE414655
:10332C00CD4517F5FF1F130565CA6F80403F05E1BA
:10333C00B28741112E8613854187BE8506C697D06C
:10334C00FF1FE7804054B24001454101828009458E
:10335C00828011456FE05FF6411193962500AA8596
:10336C002D4506C697D0FF1FE780E012B2400145FD
:10337C0041018280011122CC06CE3714004026CAAE
:10338C004AC84EC652C483447405034AB4058349E3
:10339C00840503499405EFE01FCD8347A40593F4FE
:1033AC00F40F137AFA0F93E71700230DF40493F933
:1033BC00F90F1379F90FB717004003C7A705058B51
:1033CC006DFF03D5C705A38D4705238C3705A38C4B
:1033DC002705A38B9704F2406244D2444249B24978
:1033EC00224A0561828041119397050122C406C6C9
:1033FC00C1872E8463DD0700EF00301519C1EF0083
:10340C00B0082165218DB24022444101828093F79E
:10341C00150013C51500E5FB9397250163D0070232
:10342C00EF10F1153D3737F60200130606E08965FB
:10343C0003C50188EF00F0720965E9B79397150190
:10344C000145E3D207FC17250200130525A5EF0063
:10345C00827E13060064916503C50188EF007070CD
:10346C0011654DB72D71232A9110FD74E98C232C15
:10347C00811023282111232631112A84AE89328907
:10348C00930600100A86A6852D45232E111097D081
:10349C00FF1FE78040001315440151810A05139664
:1034AC002900CA850A9597D0FF1FE780C03DA685E5
:1034BC0085660146254597D0FF1FE780C0FD0A862B
:1034CC00A68593060010294597D0FF1FE780A0FC26
:1034DC008320C1110324811183244111032901117B
:1034EC008329C11015618280B7F7070003C7070154
:1034FC00411106C622C426C24AC0A547631AF7006A
:10350C009537B240224492440249014541018280E0
:10351C0013942500AA843289A286AA8501462545E2
:10352C0097D0FF1FE78020F7A2864A86A6852945FB
:10353C0097D0FF1FE78020F6E9B71D714946972504
:10354C00020093852591172502001305A5B986CE97
:10355C0097D0FF1FE780604001E917250200130593
:10356C00A590EF00426D01A0B7F600E0795798CA1C
:10357C00FD57DCCA0567B7E700E023A0E710130688
:10358C00F00290C223A0E7180100010017E7FF1F0B
:10359C001307C78A23AEE1864157A38AE740130677
:1035AC0000048145080897D0FF1FE780E03497F7A7
:1035BC00FF1F938727EA3EC8896793870780231AE2
:1035CC00F1009D673ECCB7070105938707103ECEEF
:1035DC00ED472310F10285472301F1029707000004
:1035EC009387C7D7BEC297070000938727F0BEC446
:1035FC008567938757D12312F10297F7FFFF9387C3
:10360C00E7663ED8B7F50700970700009387C7D643
:10361C003EDC8146970700009387E7D33000E10535
:10362C0019453EDE97D0FF1FE780E0E6180881477A
:10363C00994630003E960346060085070507A30B06
:10364C00C700E398D7FEC24791C70357410185676E
:10365C006373F70001A00808EF10403BAA8501C96D
:10366C001725020013058581EF00424B01A0F6409F
:10367C0025618280411117050000130505D706C688
:10368C0022C4EF10E034138401882300A40019280D
:10369C00034504002244B2401306003289654101FF
:1036AC006F00304C797106D613078008F33707800A
:1036BC0093F787083EC201000100B717004093053D
:1036CC0070052380B704130680FA2380C704010019
:1036DC00010083C6F70293F6A60FA387D7022380B7
:1036EC0007049246F3A60680010001007337078099
:1036FC00137787083AC4010001002380B7042380A4
:10370C00C7040100010003C7F70213672700A38752
:10371C00E70223800704A247F3A7078001000100FA
:10372C000545EFE09F9735318147014781460546B6
:10373C0085451305407EEFE03F9B6800514681456F
:10374C0097D0FF1FE780401BB707C0A83EC8B787BC
:10375C00E803938707D03ECA680097D7FF1F93876B
:10376C0047C43EC6EF10605EB250456182800111C5
:10377C0022CC06CE11472A846319E50203C7250023
:10378C009547631EF70083D7A50005661306863898
:10379C00914503C5918A2398F188EF00903C23AAA8
:1037AC008188F240624405618280938741899C4301
:1037BC00639DE7048547894503C5918AA303F100FE
:1037CC0023040100EF005064854503D50189AD3217
:1037DC002C0013055041EF50D13B930500020D45D1
:1037EC00EF20307C930500021145EF20907B89651A
:1037FC00938505710145EF20D07A1306710085453C
:10380C0013055030EF70815459BF09476391E70895
:10381C008D47631EF50603C7818A8547631CF70035
:10382C00300085451305C03023040100EF700152B0
:10383C002384018A83C7E18981C7238F018885B7D7
:10384C000D45EF209021930700026317F502854781
:10385C00930500020D452304F100EF2090749305AD
:10386C0000021145EF20F0739565938505E2014543
:10387C00EF203073300061B785479305806A0D45A2
:10388C002304F100EF20F0719305806AD9BF8547BE
:10389C00E317F4F02C0013054030EF7061378347C9
:1038AC00D1003000A145A307F1008347C1000145B9
:1038BC00230601002307F1008347B100A305010093
:1038CC00A306F100AD34E1BD8D476303F50263E659
:1038DC00A7008547630AF50082809147630FF500C6
:1038EC0095476308F50282809C4123A6F18882806B
:1038FC009385F18911456FF0AFFC938741899C4307
:10390C00639EA7001306803E894503C5918A6F000C
:10391C005025894503C5918A6F00104F8280411153
:10392C009397050122C406C626C2C1872E8463DE86
:10393C00070003C5918A112911C1B9262165218D72
:10394C00B240224492444101828093F7150091CFFA
:10395C0017E6FF1F1306C67C9385019C03C5918A4D
:10396C00EF70210B13451400E1BF93F7250063871B
:10397C00070E9387418998439147631CF70C0147C5
:10398C0081462D46ED4503D50189EF50505223A2B7
:10399C00A18A4DC98D472300F5009387C1889843B0
:1039AC002546A300E500984321832301E50003D7B6
:1039BC002700A301E500944303D7A189A302E500E6
:1039CC0093D786012302F500935787002303F50054
:1039DC0083D7C1896362F6088507C207C1831307C1
:1039EC000740239EF188B69723A6F188239DE18892
:1039FC0003D78188935787002304F50083D78189E7
:103A0C00A303E500A304F50093D68700050793876D
:103A1C0007409384018A2305D5002394E188239CD5
:103A2C00F188DC402D05A6851D8D1375F50F2391AE
:103A3C00A18A03D50189EFF0CFEB09C5ED452685A9
:103A4C00EF50B05E1306803E894503C5918AEF00A6
:103A5C00501113452400EDB5FD1741B793F7450000
:103A6C0085C383C7918A1307803ED1461306800C09
:103A7C00D14503D50189EF60317313454400C9B5B5
:103A8C0093F785000145E38D07EA03D50189EF70B3
:103A9C00C15D134584006DB50111170500001305B8
:103AAC0045E806CE22CC26CA4AC81384918AEF0078
:103ABC0030722300A4000549700085451305503071
:103ACC0023062101EF70812817E6FF1F13060666F7
:103ADC00BD4513057030EF7061271386C1819D457C
:103AEC0013056030EF70812689478D447000914535
:103AFC0013057040A303F100A304910023052101D9
:103B0C0002C623040100A3050100EF50516D1306FA
:103B1C007100854513050040EF50716C30008545F0
:103B2C0013051040EF50B16B13069100854513053A
:103B3C002040EF50D16A1306A10085451305504073
:103B4C00EF50F1691306B100854513054041EF5064
:103B5C0011697D55EF50007E7D55EF7010447D55F9
:103B6C00EFF06FCBEFF02FFB17E6FF1F1306C659D4
:103B7C00D5450145EF50A06A17050000130505D582
:103B8C00EFF0AFCE9D47A303F100A9472304F1004A
:103B9C00A304F10095472305F10013069100B147EA
:103BAC0085451D45A305F10023069100EFF04FCC90
:103BBC001306A10085451D45EFF08FCB1306B10010
:103BCC0085451D45EFF0CFCA700085451D45EFF0CA
:103BDC002FCA300085451145EFF08FC913067100CF
:103BEC0085450D45EFF0CFC8034504008545AD2B49
:103BFC00F2406244D244424905618280411113056E
:103C0C00800406C697C0FF1FE780A0493717004005
:103C1C008327870A8D451305002093E7072023246B
:103C2C00F70AEFE01FF3EFF08F8D17150200130565
:103C3C00654BEF004200EFF05F90EFF0BFA3EF7029
:103C4C000145993D97C0FF1FE780807823AC05FEA6
:103C5C001C4191E7010001000CC18280BA8703A7C7
:103C6C0087FF6DFF23ACB7FE8280184183A785FFC9
:103C7C006319B7001CC1FD5723AC05FE238FF5FE5D
:103C8C008280232CF6FEC5BF411122C437E400E02C
:103C9C0026C204403707200006C6F98C2320E418FE
:103CAC000F10000009E9232094101545B24022445E
:103CBC009244410182800347E5FF9307F00F6306AE
:103CCC00F700232094101145D5B797D0FF1FE7803C
:103CDC00E079014523209410D1BF411126C2B7E4ED
:103CEC0000E04AC003A90400B707200006C622C49E
:103CFC003379F90023A0F4180F10000009E923A070
:103D0C002411B240224492440249410182809565BB
:103D1C00938505D0C98D2A842105C2054205C18130
:103D2C00418197D0FF1FE780406501CDFD572320CF
:103D3C000500231285002303F50023A0241121057F
:103D4C00C9B723A0241101456DBF0111B7E700E0ED
:103D5C004AC803A907004EC63707200006CE22CC5E
:103D6C0026CAAA893379E90023A0E7180F100000AE
:103D7C00970700209387C7F280438144014619E4DA
:103D8C0099E8A1654E85EF00300805A08347E4FF54
:103D9C006399370385CCA68517050020130545F0DC
:103DAC00E93565D0A1654E85C126F2406244B7E77E
:103DBC0000E023A0271126854249D244B24905616F
:103DCC00828091E02286032484FF55BFA284E5BF44
:103DDC0041114AC037E900E022C403240900370727
:103DEC00200006C626C2798C2320E9180F1000008B
:103DFC0089E523208910154515A0AA849707002072
:103E0C0083C757EA2E8563F5F400894763EE970064
:103E1C00A53DB7E700E023A087100D45B240224432
:103E2C00924402494101828083A785FF99E703C729
:103E3C00E5FF9307F00F6308F700B935B7E700E02B
:103E4C0023A087104DBF238F95FE17050020130567
:103E5C0025E5ED3BA1652685012E01452320891022
:103E6C0075BF9707002023AD07E2828097070020DB
:103E7C00938787E89C4399E33E85828003D727008C
:103E8C006316B70003C70700E308A7FEDC47E5B7D6
:103E9C00A5C1011106CE22CC26CA8147C14633D713
:103EAC00F540058B29C312053E9531473305E502D4
:103EBC0017070020130787E8044305443314F40064
:103ECC002EC642044180AA949C40C8408297B245B9
:103EDC0023A0040023A20400A18DF2406244D2442A
:103EEC002E85056182808507E39BD7FA0144EDB7E7
:103EFC002E858280C9C1797122D406D626D24AD0A9
:103F0C004ECE01444147B3D78540858BA5C31205DE
:103F1C00314722953305E50297070020938707E286
:103F2C0003A907008544B3948400C204C180BE89F0
:103F3C002A990327090011C7032549002EC60297A9
:103F4C00B24531473304E40283A709003E941C4474
:103F5C0089E72320090023220900B2502254A58DA1
:103F6C0002599254F2492E85456182800504E31C66
:103F7C00E4F88144DDB72E8582804111B7E700E07B
:103F8C0022C480433707200006C626C2798C23A0A2
:103F9C00E7180F10000097070020938727D69C5333
:103FAC009384418299C782979C403E9523A2A1821B
:103FBC0039A0970700209387A7D39C43EDF788403F
:103FCC00B74703009387D73F3305F502B7A7260001
:103FDC00938737ECB24092443E9523A2A182B7E777
:103FEC0000E023A087102244410182800111B7E731
:103FFC0000E022CC80434AC83707200006CE26CAF0
:10400C002A892E86798C23A0E7180F10000013152F
:10401C0006019305F004418132C697D0FF1FE7805B
:10402C00C035AA8419C53246CA8597D0FF1FE780D0
:10403C008085B7E700E023A08710F2406244268514
:10404C004249D244056182807971B7E700E022D4FD
:10405C0080433708200006D626D24AD04ECE52CC0A
:10406C0056CA5AC85EC662C43374040123A0071929
:10407C000F10000005E123A087100945B25022540F
:10408C0092540259F249624AD24A424BB24B224CE8
:10409C004561828097070020938787C59C43BA8A25
:1040AC00368AB28B2E8BAA8982979707002093872A
:1040BC00E7C898433E898144B146C147338CD4024A
:1040CC0033068701104241EAC165938505F04145ED
:1040DC0097D0FF1FE780602A05E1970700209387A0
:1040EC00E7C19C5B81C7814511458297B7E700E02A
:1040FC0023A087102D4559B7970700209387C7BF7A
:10410C00984331E79707002023A8A7BE230005009A
:10411C00832709000547331797002326050023241E
:10412C0075012311E50023225501E29723A03701E5
:10413C0023A2670123A4570163040A0023009A00F9
:10414C00B7E700E023A0871001450DBF3E875C4711
:10415C00F5FF48C765BF8504E392F4F6B7E700E0C6
:10416C0023A08710214519BFB7E700E09843B70695
:10417C00200023A0D718758F0F1000009706002081
:10418C0083C656B26373D50217060020130686B693
:10419C00931615000842369583560500D58D2310CD
:1041AC00B50023A0E7100145828023A0E7100D4540
:1041BC008280B7E700E09843B706200023A0D71809
:1041CC00758F0F1000009706002083C6B6AD63757F
:1041DC00D502170600201306E6B193161500084207
:1041EC0093C5F5FF369583560500F58D2310B50064
:1041FC0023A0E7100145828023A0E7100D458280A3
:10420C00011137E700E026CA0443B706200006CEAA
:10421C0022CC4AC84EC652C4F58C2320D7180F1096
:10422C000000130705FF1377F70FFD4763E5E70A57
:10423C00B146B306D50297070020938727B0984361
:10424C0036971C43C9CB135A450005443D89331599
:10425C00A4001314050141802E895285A2853931A1
:10426C00AA8929CDA2855285A93797070020938763
:10427C0027A89C4382979707002083D767AD338785
:10428C0027032A84814613060064B3B7270313055A
:10429C000732B335E500BE95EFF06143B3078500F7
:1042AC0097060020938646AA3E87D44263E4A70073
:1042BC0063E4D7003387D74023A4E900B7E700E0D5
:1042CC0023A097100145F2406244D2444249B249BE
:1042DC00224A05618280B7E700E023A097100945C8
:1042EC00DDB70111B7E700E026CA84433707200089
:1042FC0006CE22CC4AC84EC6F98C23A0E7180F1064
:10430C000000BD4763E9A70431473307E50297076F
:10431C0000209387A7A29C43BA979C438DCF05445A
:10432C003314A400420441802E890145A2853D3EF0
:10433C00AA8911C5A2850145AD3D23A42901B7E782
:10434C0000E023A097100145F2406244D244424958
:10435C00B24905618280B7E700E023A097100945B8
:10436C00E5B779714AD037E900E026D283240900F9
:10437C00B707200006D622D44ECE52CC56CA5AC805
:10438C005EC6FD8C2320F9180F1000009707002043
:10439C0083C75791637AF500970700209387479559
:1043AC0083AB070063970B00B7E700E023A09710DF
:1043BC00A9A0170B0020130B2B99832A4B00B7478E
:1043CC0036FE938707C82E8A9705002083D545981B
:1043DC00BE9AB387C5022A84B2898146B3B5C50299
:1043EC0013850732B337F50013060064BE95EFF062
:1043FC00012E63F0AA02232099100145B2502254D9
:10440C0092540259F249624AD24A424BB24B45612C
:10441C008280829B9705002083D58593B3873503D3
:10442C002A89130600648146B3B535031385073218
:10443C00B337F500BE95EFF08129B30725013E890E
:10444C0003274B0063E4A70063E4E7003389E740EC
:10445C00D2852285213C09C923242501B7E700E038
:10446C0023A09710054559BF936504F0C205C1817F
:10447C00414597D0FF1FE78040F019E997070020CE
:10448C009387C7879C5B8DD3A2851145829729BFE3
:10449C0097070020938747869C4385E79707002062
:1044AC0023ACA7848547232605002324250123114B
:1044BC00450123008500A300F5002322050079BFE8
:1044CC00BA87D84775FFC8C7F1BF7971B7E700E065
:1044DC0026D284433707200006D622D44AD04ECEAB
:1044EC0052CC56CA5AC85EC662C466C26AC0F98C3F
:1044FC0023A0E7180F1000003DC14144B689B28AD1
:10450C002E8A2A89B14C170B0020130B2B83054DD7
:10451C00130C0003B30B940303270B005E971C438F
:10452C00A5E39375F400B315BD0013554440C205C3
:10453C005686C1811375F50F2D3539C183270B00B4
:10454C00DE9723A0270123A247016384090023805F
:10455C008900B7E700E023A09710014521A023A014
:10456C0097100945B250225492540259F249624AAA
:10457C00D24A424BB24B224C924C024D4561828046
:10458C000504E31984F9B7E700E023A0971021454F
:10459C00D1BF0111B7E700E026CA844322CC4AC838
:1045AC004EC63707200006CE2A84AE893289F98C94
:1045BC0023A0E7180F1000006D332285CE85EFF095
:1045CC00FF8A2A8405C597F5FF1F83D56578B387C5
:1045DC002503130600648146B3B525031385073202
:1045EC00B337F500BE95EFF0810E48C013351400BB
:1045FC00F2406244B7E700E023A097104249D2444E
:10460C00B2490E05056182800111B7E700E04AC886
:10461C0003A9070022CC4EC63707200006CE26CAB7
:10462C00AA892E843379E90023A0E7180F10000023
:10463C00EFF0DF83AA8419C123110500A2854E85F2
:10464C008D3E97F7FF1F83C7E765639B370197F78D
:10465C00FF1F83D7A7695D8C97F7FF1F2398876887
:10466C00B7E700E023A02711014591E01945F2407E
:10467C006244D2444249B2490561828001114AC860
:10468C0037E900E022CC03240900B707200006CE4E
:10469C0026CA4EC67D8C2320F9180F1000009307F4
:1046AC00F00263E8A704B147B304F50297F9FF1FC2
:1046BC009389C96883A70900A6979C439DCB9377E0
:1046CC00F5008545B395F500C205C18111812D3FDB
:1046DC0083A709000145A69723A0070023A2070082
:1046EC0023208910F2406244D2444249B249056108
:1046FC008280B7E700E023A087100945E5B7411198
:10470C00B7E700E026C2844306C622C43707200060
:10471C00F98C23A0E7180F100000EFF02FF519E922
:10472C000145B2402244B7E700E023A09710924421
:10473C004101828097F7FF1F9387875B9C4300455D
:10474C00829797F7FF1F938727606368A402D8436B
:10475C00B74636FE938606C83305A4403697E371F8
:10476C00E5FC13070064B335E50203D687008146E8
:10477C003305E502EFE0B1756DB7D8433A94C1BF8C
:10478C00411122C426C217F4FF1F1304E45B97F4F3
:10479C00FF1F938424519448584097F7FF1F938729
:1047AC00275506C69C436393E60882975440B74747
:1047BC0036FE938707C8B6973387A7003A8563649C
:1047CC00F7006364D7003305D74097F4FF1F938439
:1047DC00A470DC5081CF97F7FF1F9387A777944382
:1047EC003707CDFF7D179C46F98F9CC611E14840D9
:1047FC0097F7FF1F93878750DC53829719E5DC509E
:10480C008DC3EF00016FEFF01044DC5099CB97F79C
:10481C00FF1F938727749843B70633001C47D58F27
:10482C001CC7B24022449244410182808297944832
:10483C005840B387A6003E8563E4D700E3E7E7F86A
:10484C003385E74059B7411106C697F7FF1F23ABD5
:10485C00A74E0295B24097F7FF1F23A1A74601452B
:10486C0041018280994763E9B7008A0597F7FF1FDA
:10487C0093870746BE9588C1828097F7FF1F23A1B7
:10488C00A74C11C5854717F7FF1F2302F7468280F7
:10489C0041117146814517F5FF1F1305654306C687
:1048AC0097F7FF1F23AA074497F7FF1F23AC07486E
:1048BC0097F7FF1F23AE074297F7FF1F2389074285
:1048CC0097F7FF1F23AE074697C0FF1FE780C00274
:1048DC0013068002814517F5FF1F1305A53C97C0F1
:1048EC00FF1FE7806001EF60510497F7FF1F93876C
:1048FC00E74003C5C70383C7D70385453E958D475E
:10490C003305F50239051375F50F97F7FF1F238C47
:10491C00A73899473305F5021305052497D0FF1FD7
:10492C00E780A0A517F7FF1F232AA74059CD994769
:10493C0017F6FF1F034626373306F602814513068A
:10494C00062497C0FF1FE78020FB97F7FF1F938774
:10495C00E73E9C439387072417F7FF1F2328F7365E
:10496C0017F7FF1F034727340A07BA9717F7FF1FDC
:10497C002322F738EFF0EFCEC12197F7FF1F938773
:10498C00E734944397F7FF1F83C7D731139727005A
:10499C00369717F6FFFF1306265610C3138717001A
:1049AC001377F70F0A07369717F6FFFF1306864E95
:1049BC0010C313873700890793F7F70F8A0797F50A
:1049CC00FF1FA381E52EB69790C3B24041018280B0
:1049DC0097F7FF1F83C7172D17F7FF1F0347A72C48
:1049EC0063F3E70217F7FF1F1307472E184393864D
:1049FC00170017F6FF1FA307D62A939627003697A2
:104A0C0008C33E8582809307F00FE5BF1C41638489
:104A1C00071641777D8FB70600208947631ED71490
:104A2C0003574500630A0714411122C419462A840E
:104A3C009305F00F610506C697C0FF1FE78040FA8B
:104A4C0005478D476304E5121C4481CB58589947A0
:104A5C00630E0710185C630B0710130600048145E6
:104A6C0017F5FF1F1305852997C0FF1FE780C0E8C6
:104A7C0013060004A28517F5FF1F1305252897C000
:104A8C00FF1FE78040E097F7FF1F83D7E72717F753
:104A9C00FF1F1307A72699E79307001097F6FF1F30
:104AAC002394F62697F7FF1F83C7272691E78547A0
:104ABC0097F6FF1F238BF62497F7FF1F83D7072545
:104ACC0091E7ED4797F6FF1F2392F62497F7FF1F08
:104ADC0083C7B72391E7954797F6FF1FA387F62265
:104AEC0097F7FF1F83C7A72291E7854797F6FF1F0C
:104AFC00238FF62097F7FF1F83C7772199E783470A
:104B0C00F70097F6FF1FA384F62097F7FF1F83C7C4
:104B1C00372081CF93F63700898317F6FF1F230DBB
:104B2C00D62097F6FF1FA389F62097F7FF1F83C7A0
:104B3C00271E91E7D54797F6FF1F238BF61C83475B
:104B4C00640199E79307C00397F6FF1F2383F61CB4
:104B5C001C5791C7829797F7FF1F2399A714FD57EE
:104B6C0017F7FF1FA30AF74425338147B2402244AD
:104B7C003E854101828089473E85828001114EC667
:104B8C0097F9FF1F9389491C83A7090006CE22CCF5
:104B9C0026CA4AC852C4829713090064B335250348
:104BAC0003DA89008146528633052503EFE0313262
:104BBC0097F7FF1F9387070F804FAA840145630661
:104BCC00940233858440636E940003A54900528699
:104BDC008146B335A9023305A902EFE0512F018DAF
:104BEC00269597F7FF1F23AB970CF2406244D244F3
:104BFC004249B249224A05618280011122CC0A85C0
:104C0C002E844146970502009385851A06CEEFE067
:104C1C009165180806043A94035504FF97F7FF1F93
:104C2C0083D72713F2406244AA9737450F00130528
:104C3C0005243355F5020561828097F7FF1F83D752
:104C4C00471151471D45637CF70279471945637835
:104C5C00F7021307200315456373F7021307B0041B
:104C6C001145637EF700130740060D456379F70085
:104C7C001307600909456374F70013B5B70F8280F9
:104C8C00011122CC06CE2A842EC6EFF00FAFB2450E
:104C9C00F240818D33A5A502229562441375F50F60
:104CAC0005618280011122CC06CE2A842EC6EFF03B
:104CBC00CFACB245F240818D33A5A502229562445A
:104CCC004205418105618280011122CC06CE2A84E5
:104CDC002EC6EFF08FAAB245F240818D33B5A502F6
:104CEC00229562440561828097F7FF1F9387070125
:104CFC00985739CB411122C426C206C6BE840297EE
:104D0C0017F7FF1F035787FA2A8415CBBA876373EB
:104D1C00A700AA87C207C183BA866373E400A28680
:104D2C00C206C182958F5147635BF700DC5491C377
:104D3C008297EF00C10497F7FF1F239987F6B240C3
:104D4C002244924441018280828097F7FF1F23A75F
:104D5C00070097F7FF1F938767FADC57011106CE00
:104D6C00AA8581C72AC68297B245C9C59C4105450B
:104D7C00BDCFDC41ADCF83D78500B5CB83D7A500A4
:104D8C00BDC7514617F5FF1F130505FC97C0FF1F44
:104D9C00E78060AF97F7FF1F238E07FA97F7FF1F87
:104DAC00938787FA9C4317F7FF1F2323F7F497F792
:104DBC00FF1F83C717F68DE79307805717F5FF1F63
:104DCC00035505F93305F50237460F001306062483
:104DDC0081468145EFE0B10F97F7FF1FA38BA7F238
:104DEC00170500001305C5D9EFF0FFA50145F240EA
:104DFC000561828097F7FF1F23A407EC97C7FF1F5D
:104E0C009387C7FA17F7FF1F2320F7F47D5797F7FF
:104E1C00FF1F23ADE7F2B7873200938727A197F6E0
:104E2C00FF1F23A7F6F297F7FF1F238507F2B7C7DB
:104E3C00004023A4E7269DB7011122CC17F4FF1FD5
:104E4C001304C4EB084406CE26CA4AC801E905453A
:104E5C00F2406244D2444249056182805C58E5DBF1
:104E6C00185C75D77000854582971844B247E300EB
:104E7C00F7FE9305E00417F5FF1F0355E5E897C00F
:104E8C00FF1FE780804F17F7FF1F232DA7E261D18B
:104E9C0017F6FF1F035646E79305F00F97C0FF1F49
:104EAC00E78080A5814417F9FF1F1309A9DF97F745
:104EBC00FF1F83C787E50326090263C1F40232850D
:104ECC0097C0FF1FE780805A014597F7FF1F23AB60
:104EDC0007DE97F7FF1F23A907DE9DBF97F5FF1F7E
:104EEC0083D585E2B38795020844185C89818504D3
:104EFC003E9508C2029765BF011156C297FAFF1F73
:104F0C00938ACADF83A78A0022CC4AC84EC606CE33
:104F1C0026CA52C45AC0AA892E84328963860722B3
:104F2C0003A74A03630907141307F01F6367A71449
:104F3C0097F4FF1F938404D703AA040263170A0A89
:104F4C009565938515E017F5FF1F0355E5DB97C0B5
:104F5C00FF1FE780804297F7FF1F23A5A7D62A865D
:104F6C00630B051083A74A0303A58A0097F5FF1F5F
:104F7C0083D585D98981829783A78A0003AA0402E5
:104F8C0017F7FF1F2322F7D48947639CF908C14701
:104F9C006313F40E97F5FF1F83D505D7938505FC96
:104FAC009147B3C5F5028A05D29503C7250093072F
:104FBC00A005631EF70A83D70500639A370B4A8551
:104FCC002286910597C0FF1FE780E08B9C5052858D
:104FDC00639347150145F2406244D2444249B249B9
:104FEC00224A924A024B05618280D850E38EE7F840
:104FFC009565938525E017F5FF1F0355E5D097C000
:10500C00FF1FE78080372A8A3DC52A8683A74A037B
:10501C0003A58A0097F5FF1F83D505CF8981829759
:10502C00A5B78D47639DF900C1476316F40497F546
:10503C00FF1F83D565CD938545FDF199B5B7914794
:10504C00639AF9006319340397F5FF1F83D5C5CB19
:10505C00A115E5B793070010639FF900A14763EC16
:10506C00870097F5FF1F83D525CAC115F9B79C504A
:10507C0052856396470D2945B9BF1D6A568B6371DE
:10508C00450B130A05E01947334AEA0217F7FF1FCD
:10509C00035787C797FAFF1F938ACAC0330AEA02DD
:1050AC003E9A83A74A026395470183A40A029DE4B2
:1050BC009305E00417F5FF1F035505C597C0FF1FA7
:1050CC00E780A02BAA8445D983274B0397F5FF1FB4
:1050DC0083D585C32A86898152858297914513078A
:1050EC00A005898193972500A69783C62700639313
:1050FC00E60483D60700639C360385058A05228661
:10510C00A6954A8597B0FF1FE780E07783A70A0230
:10511C00E38297EC268597C0FF1FE78020355DBDA5
:10512C0021677917E369A7F4330A454185B783C52D
:10513C00370045BF83A70A02E38F97F2268597C0F5
:10514C00FF1FE780A03205BF97F7FF1F938787B536
:10515C008C5395D191479306A0058983139727000B
:10516C002E9703462700E318D6F003560700631C5E
:10517C00360185078A072286BE954A8597B0FF1FA0
:10518C00E780607081BD83473700C1BF97F7FF1F71
:10519C009387C7B6984739C79C5FA9C70547631360
:1051AC00E504411122C417F4FF1F1304A4AF1050DF
:1051BC0006C60DC6485097F5FF1F83D5E5B4898107
:1051CC008297085097C0FF1FE780402A97F7FF1F70
:1051DC0023AA07AE97F7FF1F23A807AEB2402244BD
:1051EC00410182808280011117F7FF1F130707B15D
:1051FC004EC68329870022CC26CA4AC806CE52C482
:10520C0056C2AA842E843289638B09201C5FBA8A09
:10521C0099EB2945F2406244D2444249B249224AB0
:10522C00924A056182805C5BEDD79307F01F63EABD
:10523C00A70E97F9FF1F9389E9A683A70902B1CBA3
:10524C0003A58A0083A749026395A7068947639340
:10525C00F408C147E31FF4FA17F5FF1F0355C5AA5D
:10526C009147130505FC3345F5029317250003A55B
:10527C0009022286CA853E959307A0052301F500F5
:10528C0023109500110597B0FF1FE780C05F014503
:10529C0051B79305E00417F5FF1F0355E5A697C01A
:1052AC00FF1FE780800D97F7FF1F23ADA7A049F9DB
:1052BC008DB783A74A0303A6090297F5FF1F83D571
:1052CC00A5A48981829783A78A0017F7FF1F232D36
:1052DC00F79EADBF8D47639EF400C147E31BF4F20C
:1052EC0017F5FF1F035545A2130545FD9377C5FF21
:1052FC00BDBF9147639AF400E31D94F017F5FF1FAF
:10530C00035585A02115DDB793070010E393F4F046
:10531C00A147E3E087F017F5FF1F0355E59E411504
:10532C00F1B79D676379F506930705E01947B3C795
:10533C00E70217F7FF1F0357279D17FAFF1F130AE2
:10534C006A96B387E702BE9983270A02A1CF832707
:10535C004A026399370703250A0291461308A005F0
:10536C009305F00F93D72600139727002A9703462F
:10537C002700631F06078358070003463700639511
:10538C009806B306D64063CF860485078A07228623
:10539C00CA853E95CDBD21677917E36CA7E6B307A7
:1053AC00F54041BF9305E00417F5FF1F0355C59564
:1053BC0097C0FF1FE78060FC97F7FF1F23A4A790FF
:1053CC0059F581BD83A74A0303260A0297F5FF1FEF
:1053DC0083D5859389814E85829797F7FF1F23A5E7
:1053EC00378F95BF2310B70093160601C1829DBF5E
:1053FC00B385860017F6FF1F035606919105130619
:10540C0006FCE3F8C5E013063400719A1106B29657
:10541C002301070123109700A301D700BDB797F70D
:10542C00FF1F938727889453BE89A9C203A509023D
:10543C0091461308A0059305F00F93D726001397F8
:10544C0027002A9703462700631806058358070090
:10545C000346370063989800B306D640E3D786F22C
:10546C002310B70093160601C182C1BF8357C70032
:10547C0017F5FF1F034565899305E0043305F50215
:10548C004205418197C0FF1FE78020EF97F7FF1F70
:10549C0023AAA78241FDB5BB17F6FF1F0356C6868C
:1054AC0097F5FF1F83C56586B385C50233868600D5
:1054BC001106E3E0C5D681BF01458280011106CEFD
:1054CC002EC6EF80805A01C9B245F2400355250023
:1054DC0005616FC0E077F240494505618280A38A7F
:1054EC00018C238A018C23AE018A23A0018C23A278
:1054FC00018C23A4018C23AC018A23AA018A97F77F
:10550C00FF1F9387E787930640382391D702F176E4
:10551C001307400B938606B82391E7002392D7021A
:10552C0011679D46130600059305000A1305007DBF
:10553C002392E7002393D70241478546130810F8BE
:10554C002395E7002396E7002399E700239AE700C9
:10555C00239BE700239CE7002394E702239007009A
:10556C002393B7002394B7002397C7002398C70051
:10557C00239DA700239E0700239F0700239007026B
:10558C002395D70223960703239707029308F00766
:10559C00239807022392E7042393E704239FE7044D
:1055AC002390E7062391E7062392E7062399170336
:1055BC001307C01C239AD702239BD702239C0702F4
:1055CC00239D0702239E0702239F070223900704B3
:1055DC002391D70423940704239507042396D70417
:1055EC002397C7042398C7042399A704239A070475
:1055FC00239B0704239C0704239DC704239EC704F5
:10560C002393A706239407062395070623960706DC
:10561C002397B7062398B70623990706239AE7061C
:10562C005147239DE7067D57239B0706239C0706BE
:10563C00239ED706239F0706239007092391E7088B
:10564C008280011126CAAA84214522CC06CE2E8442
:10565C0032C636C43AC2EFE04FE81DC9A246124723
:10566C003246930700FD2300F5009947A3009500EF
:10567C002301F5002303D500A303E5002312C50085
:10568C00AA8522856244F240D24405616FE04FF452
:10569C00F2406244D2440561828023AEA18A8280AA
:1056AC0023A0A18C828023A2A18C828023A4A18C14
:1056BC008280011122CC4AC806CE26CA2A8901440E
:1056CC00B30489006368B400F2406244D244424996
:1056DC00056182802EC6EFE05F8A93170501C183B6
:1056EC00A183B2452380F4009307140093F7F70FBE
:1056FC00850463F9B700CA9709042380A7001374C3
:10570C00F40F7DBF3E847DBFC16717E5FF1F0355B6
:10571C008565FD176304F502411117E6FF1F03466B
:10572C00267A9385C18C06C6EF80C011B240FD5716
:10573C0017E7FF1F2319F76241018280828009C994
:10574C0025151375F50F1335850E1345150082803D
:10575C000145828023900500C9C6797122D426D2D6
:10576C004ECE52CC5AC806D64AD056CA5EC63684DD
:10577C00328AAE892A8B814463F34407B3079400C1
:10578C0083C70700138914004209939A070193DA1F
:10579C000A011359090163840A04CA976341FA0484
:1057AC00B307240183CB07005E85513F0DC9938756
:1057BC00FAFF2390F90063906B03130519002295EF
:1057CC00B250225492540259F249624AD24A424B84
:1057DC00B24B45618280D694C204C18071BF014531
:1057EC00C5B701458280411126C2AE8422C497E719
:1057FC00FF1F23A1C75897E7FF1F23ABB75697E7A7
:10580C00FF1F23A5A7562A8441469305F00F268532
:10581C004AC006C6054997B0FF1FE780601C63109D
:10582C00250597E7FF1F9387A753884BC145513533
:10583C0041469305F00F228597B0FF1FE780401A71
:10584C00854463189502224497E7FF1F93874751BD
:10585C00B24092440249C847C145410199BD4146F5
:10586C008145268597B0FF1FE7808017E31225FD41
:10587C004DBF41468145228597B0FF1FE7804016FA
:10588C00E30395FCB24022449244024941018280D8
:10589C00411122C426C22E84AA841306000281451B
:1058AC0017E5FF1F1305C54B06C697B0FF1FE78012
:1058BC00A00497E7FF1FA386974A97E7FF1F238350
:1058CC008760EFC0E03A854719C181474945B2402E
:1058DC00224417E7FF1F2305F748924441018280B9
:1058EC00814781CD19C98547631BF50083C75500D6
:1058FC0093E707FCA382F50085473E8582808947A4
:10590C006317F50083C7550093F7F703E5B70D4709
:10591C008547E314E5FE03C755001377F7031367B8
:10592C000704A382E500D1BF81478DC105C103C720
:10593C0055009306000C85471377070C6308D700B6
:10594C00930600048D476303D70089473E85828008
:10595C00411122C4005D06C626C21DC8AA84085087
:10596C0009C597C0FF1FE78060B0485009C597C0B4
:10597C00FF1FE780A0AF085409C597C0FF1FE78041
:10598C00E0AE228597C0FF1FE78040AE23AC040237
:10599C00B240224492444101828009ED97E7FF1FF7
:1059AC0083C7273C17E5FF1F1305053D81CB1385E6
:1059BC00C18A828017E5FF1F1305053C828017E51D
:1059CC00FF1F0345053A828097E7FF1F93874739EE
:1059DC00C847828097E7FF1F93878738884B828060
:1059EC0097E7FF1F9387C737DC4B8843828097E785
:1059FC00FF1F9387E736D84B1C4385071CC317E55D
:105A0C00FF1F034515369307F00F6305F5009165ED
:105A1C006FE08FF58280011122CC06CE2E8432C627
:105A2C00EF8060159147B245631FF5009387818C19
:105A3C009C438DC303A30700630E030022856244BD
:105A4C00F240056102839387018C9C4381C703A3B9
:105A5C004700DDB7F24062440545056182800111C3
:105A6C0022CC2A840355450006CE26CA4AC84EC607
:105A7C00EF70906E35C52A89834405008349C500B3
:105A8C00C13D4A85EF80A04E03554400EF80E009EC
:105A9C0083C7418DB1CB6399970483C5518D2685FE
:105AAC00EFF0DFA119E1238A018C03554400EF804C
:105ABC00800C9147631FF5000357440097E7FF1FC5
:105ACC0083D7672A6317F700FD5717E7FF1F231CBF
